{
	"RoleAccess.sol": {
		"RoleAccess": {
			"abi": [
				{
					"inputs": [],
					"stateMutability": "nonpayable",
					"type": "constructor"
				},
				{
					"anonymous": false,
					"inputs": [
						{
							"indexed": true,
							"internalType": "bytes32",
							"name": "role",
							"type": "bytes32"
						},
						{
							"indexed": true,
							"internalType": "address",
							"name": "account",
							"type": "address"
						},
						{
							"indexed": true,
							"internalType": "address",
							"name": "sender",
							"type": "address"
						}
					],
					"name": "RoleGranted",
					"type": "event"
				},
				{
					"anonymous": false,
					"inputs": [
						{
							"indexed": true,
							"internalType": "bytes32",
							"name": "role",
							"type": "bytes32"
						},
						{
							"indexed": true,
							"internalType": "address",
							"name": "account",
							"type": "address"
						},
						{
							"indexed": true,
							"internalType": "address",
							"name": "sender",
							"type": "address"
						}
					],
					"name": "RoleRevoked",
					"type": "event"
				},
				{
					"inputs": [],
					"name": "APPROVER_ROLE",
					"outputs": [
						{
							"internalType": "bytes32",
							"name": "",
							"type": "bytes32"
						}
					],
					"stateMutability": "view",
					"type": "function"
				},
				{
					"inputs": [],
					"name": "AUDITOR_ROLE",
					"outputs": [
						{
							"internalType": "bytes32",
							"name": "",
							"type": "bytes32"
						}
					],
					"stateMutability": "view",
					"type": "function"
				},
				{
					"inputs": [],
					"name": "DEFAULT_ADMIN_ROLE",
					"outputs": [
						{
							"internalType": "bytes32",
							"name": "",
							"type": "bytes32"
						}
					],
					"stateMutability": "view",
					"type": "function"
				},
				{
					"inputs": [],
					"name": "LOGGER_ROLE",
					"outputs": [
						{
							"internalType": "bytes32",
							"name": "",
							"type": "bytes32"
						}
					],
					"stateMutability": "view",
					"type": "function"
				},
				{
					"inputs": [],
					"name": "REGISTRY_ROLE",
					"outputs": [
						{
							"internalType": "bytes32",
							"name": "",
							"type": "bytes32"
						}
					],
					"stateMutability": "view",
					"type": "function"
				},
				{
					"inputs": [],
					"name": "REVIEWER_ROLE",
					"outputs": [
						{
							"internalType": "bytes32",
							"name": "",
							"type": "bytes32"
						}
					],
					"stateMutability": "view",
					"type": "function"
				},
				{
					"inputs": [],
					"name": "TREASURY_ROLE",
					"outputs": [
						{
							"internalType": "bytes32",
							"name": "",
							"type": "bytes32"
						}
					],
					"stateMutability": "view",
					"type": "function"
				},
				{
					"inputs": [
						{
							"internalType": "bytes32[]",
							"name": "roles",
							"type": "bytes32[]"
						},
						{
							"internalType": "address",
							"name": "account",
							"type": "address"
						}
					],
					"name": "grantMultipleRoles",
					"outputs": [],
					"stateMutability": "nonpayable",
					"type": "function"
				},
				{
					"inputs": [
						{
							"internalType": "bytes32",
							"name": "role",
							"type": "bytes32"
						},
						{
							"internalType": "address",
							"name": "account",
							"type": "address"
						}
					],
					"name": "grantRole",
					"outputs": [],
					"stateMutability": "nonpayable",
					"type": "function"
				},
				{
					"inputs": [
						{
							"internalType": "bytes32",
							"name": "role",
							"type": "bytes32"
						},
						{
							"internalType": "address",
							"name": "account",
							"type": "address"
						}
					],
					"name": "hasRole",
					"outputs": [
						{
							"internalType": "bool",
							"name": "",
							"type": "bool"
						}
					],
					"stateMutability": "view",
					"type": "function"
				},
				{
					"inputs": [
						{
							"internalType": "bytes32",
							"name": "role",
							"type": "bytes32"
						}
					],
					"name": "renounceRole",
					"outputs": [],
					"stateMutability": "nonpayable",
					"type": "function"
				},
				{
					"inputs": [
						{
							"internalType": "bytes32",
							"name": "role",
							"type": "bytes32"
						},
						{
							"internalType": "address",
							"name": "account",
							"type": "address"
						}
					],
					"name": "revokeRole",
					"outputs": [],
					"stateMutability": "nonpayable",
					"type": "function"
				}
			],
			"devdoc": {
				"kind": "dev",
				"methods": {},
				"version": 1
			},
			"evm": {
				"assembly": "    /* \"RoleAccess.sol\":391:4313  contract RoleAccess {... */\n  mstore(0x40, 0x80)\n    /* \"RoleAccess.sol\":1888:2084  constructor() {... */\n  callvalue\n  dup1\n  iszero\n  tag_1\n  jumpi\n  revert(0x00, 0x00)\ntag_1:\n  pop\n    /* \"RoleAccess.sol\":2003:2007  true */\n  0x01\n    /* \"RoleAccess.sol\":1962:1968  _roles */\n  0x00\n    /* \"RoleAccess.sol\":1962:1988  _roles[DEFAULT_ADMIN_ROLE] */\n  0x00\n    /* \"RoleAccess.sol\":610:641  keccak256(\"DEFAULT_ADMIN_ROLE\") */\n  0x1effbbff9c66c5e59634f24fe842750c60d18891155c32dd155fc2d661a4c86d\n    /* \"RoleAccess.sol\":1962:1988  _roles[DEFAULT_ADMIN_ROLE] */\n  dup2\n  mstore\n  0x20\n  add\n  swap1\n  dup2\n  mstore\n  0x20\n  add\n  0x00\n  keccak256\n    /* \"RoleAccess.sol\":1962:2000  _roles[DEFAULT_ADMIN_ROLE][msg.sender] */\n  0x00\n    /* \"RoleAccess.sol\":1989:1999  msg.sender */\n  caller\n    /* \"RoleAccess.sol\":1962:2000  _roles[DEFAULT_ADMIN_ROLE][msg.sender] */\n  0xffffffffffffffffffffffffffffffffffffffff\n  and\n  0xffffffffffffffffffffffffffffffffffffffff\n  and\n  dup2\n  mstore\n  0x20\n  add\n  swap1\n  dup2\n  mstore\n  0x20\n  add\n  0x00\n  keccak256\n  0x00\n    /* \"RoleAccess.sol\":1962:2007  _roles[DEFAULT_ADMIN_ROLE][msg.sender] = true */\n  0x0100\n  exp\n  dup2\n  sload\n  dup2\n  0xff\n  mul\n  not\n  and\n  swap1\n  dup4\n  iszero\n  iszero\n  mul\n  or\n  swap1\n  sstore\n  pop\n    /* \"RoleAccess.sol\":2066:2076  msg.sender */\n  caller\n    /* \"RoleAccess.sol\":2022:2077  RoleGranted(DEFAULT_ADMIN_ROLE, msg.sender, msg.sender) */\n  0xffffffffffffffffffffffffffffffffffffffff\n  and\n    /* \"RoleAccess.sol\":2054:2064  msg.sender */\n  caller\n    /* \"RoleAccess.sol\":2022:2077  RoleGranted(DEFAULT_ADMIN_ROLE, msg.sender, msg.sender) */\n  0xffffffffffffffffffffffffffffffffffffffff\n  and\n    /* \"RoleAccess.sol\":610:641  keccak256(\"DEFAULT_ADMIN_ROLE\") */\n  0x1effbbff9c66c5e59634f24fe842750c60d18891155c32dd155fc2d661a4c86d\n    /* \"RoleAccess.sol\":2022:2077  RoleGranted(DEFAULT_ADMIN_ROLE, msg.sender, msg.sender) */\n  0x2f8788117e7eff1d82e926ec794901d17c78024a50270940304540a733656f0d\n  mload(0x40)\n  mload(0x40)\n  dup1\n  swap2\n  sub\n  swap1\n  log4\n    /* \"RoleAccess.sol\":391:4313  contract RoleAccess {... */\n  dataSize(sub_0)\n  dup1\n  dataOffset(sub_0)\n  0x00\n  codecopy\n  0x00\n  return\nstop\n\nsub_0: assembly {\n        /* \"RoleAccess.sol\":391:4313  contract RoleAccess {... */\n      mstore(0x40, 0x80)\n      callvalue\n      dup1\n      iszero\n      tag_1\n      jumpi\n      revert(0x00, 0x00)\n    tag_1:\n      pop\n      jumpi(tag_2, lt(calldatasize, 0x04))\n      shr(0xe0, calldataload(0x00))\n      dup1\n      0x7bf0fbde\n      gt\n      tag_15\n      jumpi\n      dup1\n      0x7bf0fbde\n      eq\n      tag_9\n      jumpi\n      dup1\n      0x8bb9c5bf\n      eq\n      tag_10\n      jumpi\n      dup1\n      0x91d14854\n      eq\n      tag_11\n      jumpi\n      dup1\n      0xa217fddf\n      eq\n      tag_12\n      jumpi\n      dup1\n      0xd11a57ec\n      eq\n      tag_13\n      jumpi\n      dup1\n      0xd547741f\n      eq\n      tag_14\n      jumpi\n      jump(tag_2)\n    tag_15:\n      dup1\n      0x18989def\n      eq\n      tag_3\n      jumpi\n      dup1\n      0x2f2ff15d\n      eq\n      tag_4\n      jumpi\n      dup1\n      0x3b129a56\n      eq\n      tag_5\n      jumpi\n      dup1\n      0x4245962b\n      eq\n      tag_6\n      jumpi\n      dup1\n      0x42f1e879\n      eq\n      tag_7\n      jumpi\n      dup1\n      0x6e1d616e\n      eq\n      tag_8\n      jumpi\n    tag_2:\n      revert(0x00, 0x00)\n        /* \"RoleAccess.sol\":3976:4311  function grantMultipleRoles(bytes32[] calldata roles, address account) external onlyAdmin {... */\n    tag_3:\n      tag_16\n      0x04\n      dup1\n      calldatasize\n      sub\n      dup2\n      add\n      swap1\n      tag_17\n      swap2\n      swap1\n      tag_18\n      jump\t// in\n    tag_17:\n      tag_19\n      jump\t// in\n    tag_16:\n      stop\n        /* \"RoleAccess.sol\":2917:3259  function grantRole(bytes32 role, address account) external onlyAdmin {... */\n    tag_4:\n      tag_20\n      0x04\n      dup1\n      calldatasize\n      sub\n      dup2\n      add\n      swap1\n      tag_21\n      swap2\n      swap1\n      tag_22\n      jump\t// in\n    tag_21:\n      tag_23\n      jump\t// in\n    tag_20:\n      stop\n        /* \"RoleAccess.sol\":647:719  bytes32 public constant REVIEWER_ROLE       = keccak256(\"REVIEWER_ROLE\") */\n    tag_5:\n      tag_24\n      tag_25\n      jump\t// in\n    tag_24:\n      mload(0x40)\n      tag_26\n      swap2\n      swap1\n      tag_27\n      jump\t// in\n    tag_26:\n      mload(0x40)\n      dup1\n      swap2\n      sub\n      swap1\n      return\n        /* \"RoleAccess.sol\":725:797  bytes32 public constant APPROVER_ROLE       = keccak256(\"APPROVER_ROLE\") */\n    tag_6:\n      tag_28\n      tag_29\n      jump\t// in\n    tag_28:\n      mload(0x40)\n      tag_30\n      swap2\n      swap1\n      tag_27\n      jump\t// in\n    tag_30:\n      mload(0x40)\n      dup1\n      swap2\n      sub\n      swap1\n      return\n        /* \"RoleAccess.sol\":1034:1106  bytes32 public constant REGISTRY_ROLE       = keccak256(\"REGISTRY_ROLE\") */\n    tag_7:\n      tag_31\n      tag_32\n      jump\t// in\n    tag_31:\n      mload(0x40)\n      tag_33\n      swap2\n      swap1\n      tag_27\n      jump\t// in\n    tag_33:\n      mload(0x40)\n      dup1\n      swap2\n      sub\n      swap1\n      return\n        /* \"RoleAccess.sol\":881:952  bytes32 public constant AUDITOR_ROLE        = keccak256(\"AUDITOR_ROLE\") */\n    tag_8:\n      tag_34\n      tag_35\n      jump\t// in\n    tag_34:\n      mload(0x40)\n      tag_36\n      swap2\n      swap1\n      tag_27\n      jump\t// in\n    tag_36:\n      mload(0x40)\n      dup1\n      swap2\n      sub\n      swap1\n      return\n        /* \"RoleAccess.sol\":958:1028  bytes32 public constant LOGGER_ROLE         = keccak256(\"LOGGER_ROLE\") */\n    tag_9:\n      tag_37\n      tag_38\n      jump\t// in\n    tag_37:\n      mload(0x40)\n      tag_39\n      swap2\n      swap1\n      tag_27\n      jump\t// in\n    tag_39:\n      mload(0x40)\n      dup1\n      swap2\n      sub\n      swap1\n      return\n        /* \"RoleAccess.sol\":3653:3892  function renounceRole(bytes32 role) external {... */\n    tag_10:\n      tag_40\n      0x04\n      dup1\n      calldatasize\n      sub\n      dup2\n      add\n      swap1\n      tag_41\n      swap2\n      swap1\n      tag_42\n      jump\t// in\n    tag_41:\n      tag_43\n      jump\t// in\n    tag_40:\n      stop\n        /* \"RoleAccess.sol\":2735:2855  function hasRole(bytes32 role, address account) public view returns (bool) {... */\n    tag_11:\n      tag_44\n      0x04\n      dup1\n      calldatasize\n      sub\n      dup2\n      add\n      swap1\n      tag_45\n      swap2\n      swap1\n      tag_22\n      jump\t// in\n    tag_45:\n      tag_46\n      jump\t// in\n    tag_44:\n      mload(0x40)\n      tag_47\n      swap2\n      swap1\n      tag_48\n      jump\t// in\n    tag_47:\n      mload(0x40)\n      dup1\n      swap2\n      sub\n      swap1\n      return\n        /* \"RoleAccess.sol\":564:641  bytes32 public constant DEFAULT_ADMIN_ROLE  = keccak256(\"DEFAULT_ADMIN_ROLE\") */\n    tag_12:\n      tag_49\n      tag_50\n      jump\t// in\n    tag_49:\n      mload(0x40)\n      tag_51\n      swap2\n      swap1\n      tag_27\n      jump\t// in\n    tag_51:\n      mload(0x40)\n      dup1\n      swap2\n      sub\n      swap1\n      return\n        /* \"RoleAccess.sol\":803:875  bytes32 public constant TREASURY_ROLE       = keccak256(\"TREASURY_ROLE\") */\n    tag_13:\n      tag_52\n      tag_53\n      jump\t// in\n    tag_52:\n      mload(0x40)\n      tag_54\n      swap2\n      swap1\n      tag_27\n      jump\t// in\n    tag_54:\n      mload(0x40)\n      dup1\n      swap2\n      sub\n      swap1\n      return\n        /* \"RoleAccess.sol\":3324:3580  function revokeRole(bytes32 role, address account) external onlyAdmin {... */\n    tag_14:\n      tag_55\n      0x04\n      dup1\n      calldatasize\n      sub\n      dup2\n      add\n      swap1\n      tag_56\n      swap2\n      swap1\n      tag_22\n      jump\t// in\n    tag_56:\n      tag_57\n      jump\t// in\n    tag_55:\n      stop\n        /* \"RoleAccess.sol\":3976:4311  function grantMultipleRoles(bytes32[] calldata roles, address account) external onlyAdmin {... */\n    tag_19:\n        /* \"RoleAccess.sol\":2438:2444  _roles */\n      0x00\n        /* \"RoleAccess.sol\":2438:2464  _roles[DEFAULT_ADMIN_ROLE] */\n      0x00\n        /* \"RoleAccess.sol\":610:641  keccak256(\"DEFAULT_ADMIN_ROLE\") */\n      0x1effbbff9c66c5e59634f24fe842750c60d18891155c32dd155fc2d661a4c86d\n        /* \"RoleAccess.sol\":2438:2464  _roles[DEFAULT_ADMIN_ROLE] */\n      dup2\n      mstore\n      0x20\n      add\n      swap1\n      dup2\n      mstore\n      0x20\n      add\n      0x00\n      keccak256\n        /* \"RoleAccess.sol\":2438:2476  _roles[DEFAULT_ADMIN_ROLE][msg.sender] */\n      0x00\n        /* \"RoleAccess.sol\":2465:2475  msg.sender */\n      caller\n        /* \"RoleAccess.sol\":2438:2476  _roles[DEFAULT_ADMIN_ROLE][msg.sender] */\n      0xffffffffffffffffffffffffffffffffffffffff\n      and\n      0xffffffffffffffffffffffffffffffffffffffff\n      and\n      dup2\n      mstore\n      0x20\n      add\n      swap1\n      dup2\n      mstore\n      0x20\n      add\n      0x00\n      keccak256\n      0x00\n      swap1\n      sload\n      swap1\n      0x0100\n      exp\n      swap1\n      div\n      0xff\n      and\n        /* \"RoleAccess.sol\":2430:2512  require(_roles[DEFAULT_ADMIN_ROLE][msg.sender], \"RoleAccess: caller is not admin\") */\n      tag_59\n      jumpi\n      mload(0x40)\n      0x08c379a000000000000000000000000000000000000000000000000000000000\n      dup2\n      mstore\n      0x04\n      add\n      tag_60\n      swap1\n      tag_61\n      jump\t// in\n    tag_60:\n      mload(0x40)\n      dup1\n      swap2\n      sub\n      swap1\n      revert\n    tag_59:\n        /* \"RoleAccess.sol\":4081:4090  uint256 i */\n      0x00\n        /* \"RoleAccess.sol\":4093:4094  0 */\n      0x00\n        /* \"RoleAccess.sol\":4081:4094  uint256 i = 0 */\n      swap1\n      pop\n        /* \"RoleAccess.sol\":4076:4305  for (uint256 i = 0; i < roles.length; i++) {... */\n    tag_63:\n        /* \"RoleAccess.sol\":4100:4105  roles */\n      dup4\n      dup4\n        /* \"RoleAccess.sol\":4100:4112  roles.length */\n      swap1\n      pop\n        /* \"RoleAccess.sol\":4096:4097  i */\n      dup2\n        /* \"RoleAccess.sol\":4096:4112  i < roles.length */\n      lt\n        /* \"RoleAccess.sol\":4076:4305  for (uint256 i = 0; i < roles.length; i++) {... */\n      iszero\n      tag_64\n      jumpi\n        /* \"RoleAccess.sol\":4138:4144  _roles */\n      0x00\n        /* \"RoleAccess.sol\":4138:4154  _roles[roles[i]] */\n      0x00\n        /* \"RoleAccess.sol\":4145:4150  roles */\n      dup6\n      dup6\n        /* \"RoleAccess.sol\":4151:4152  i */\n      dup5\n        /* \"RoleAccess.sol\":4145:4153  roles[i] */\n      dup2\n      dup2\n      lt\n      tag_66\n      jumpi\n      tag_67\n      tag_68\n      jump\t// in\n    tag_67:\n    tag_66:\n      swap1\n      pop\n      0x20\n      mul\n      add\n      calldataload\n        /* \"RoleAccess.sol\":4138:4154  _roles[roles[i]] */\n      dup2\n      mstore\n      0x20\n      add\n      swap1\n      dup2\n      mstore\n      0x20\n      add\n      0x00\n      keccak256\n        /* \"RoleAccess.sol\":4138:4163  _roles[roles[i]][account] */\n      0x00\n        /* \"RoleAccess.sol\":4155:4162  account */\n      dup4\n        /* \"RoleAccess.sol\":4138:4163  _roles[roles[i]][account] */\n      0xffffffffffffffffffffffffffffffffffffffff\n      and\n      0xffffffffffffffffffffffffffffffffffffffff\n      and\n      dup2\n      mstore\n      0x20\n      add\n      swap1\n      dup2\n      mstore\n      0x20\n      add\n      0x00\n      keccak256\n      0x00\n      swap1\n      sload\n      swap1\n      0x0100\n      exp\n      swap1\n      div\n      0xff\n      and\n        /* \"RoleAccess.sol\":4133:4295  if (!_roles[roles[i]][account]) {... */\n      tag_69\n      jumpi\n        /* \"RoleAccess.sol\":4211:4215  true */\n      0x01\n        /* \"RoleAccess.sol\":4183:4189  _roles */\n      0x00\n        /* \"RoleAccess.sol\":4183:4199  _roles[roles[i]] */\n      0x00\n        /* \"RoleAccess.sol\":4190:4195  roles */\n      dup7\n      dup7\n        /* \"RoleAccess.sol\":4196:4197  i */\n      dup6\n        /* \"RoleAccess.sol\":4190:4198  roles[i] */\n      dup2\n      dup2\n      lt\n      tag_70\n      jumpi\n      tag_71\n      tag_68\n      jump\t// in\n    tag_71:\n    tag_70:\n      swap1\n      pop\n      0x20\n      mul\n      add\n      calldataload\n        /* \"RoleAccess.sol\":4183:4199  _roles[roles[i]] */\n      dup2\n      mstore\n      0x20\n      add\n      swap1\n      dup2\n      mstore\n      0x20\n      add\n      0x00\n      keccak256\n        /* \"RoleAccess.sol\":4183:4208  _roles[roles[i]][account] */\n      0x00\n        /* \"RoleAccess.sol\":4200:4207  account */\n      dup5\n        /* \"RoleAccess.sol\":4183:4208  _roles[roles[i]][account] */\n      0xffffffffffffffffffffffffffffffffffffffff\n      and\n      0xffffffffffffffffffffffffffffffffffffffff\n      and\n      dup2\n      mstore\n      0x20\n      add\n      swap1\n      dup2\n      mstore\n      0x20\n      add\n      0x00\n      keccak256\n      0x00\n        /* \"RoleAccess.sol\":4183:4215  _roles[roles[i]][account] = true */\n      0x0100\n      exp\n      dup2\n      sload\n      dup2\n      0xff\n      mul\n      not\n      and\n      swap1\n      dup4\n      iszero\n      iszero\n      mul\n      or\n      swap1\n      sstore\n      pop\n        /* \"RoleAccess.sol\":4269:4279  msg.sender */\n      caller\n        /* \"RoleAccess.sol\":4238:4280  RoleGranted(roles[i], account, msg.sender) */\n      0xffffffffffffffffffffffffffffffffffffffff\n      and\n        /* \"RoleAccess.sol\":4260:4267  account */\n      dup3\n        /* \"RoleAccess.sol\":4238:4280  RoleGranted(roles[i], account, msg.sender) */\n      0xffffffffffffffffffffffffffffffffffffffff\n      and\n        /* \"RoleAccess.sol\":4250:4255  roles */\n      dup6\n      dup6\n        /* \"RoleAccess.sol\":4256:4257  i */\n      dup5\n        /* \"RoleAccess.sol\":4250:4258  roles[i] */\n      dup2\n      dup2\n      lt\n      tag_72\n      jumpi\n      tag_73\n      tag_68\n      jump\t// in\n    tag_73:\n    tag_72:\n      swap1\n      pop\n      0x20\n      mul\n      add\n      calldataload\n        /* \"RoleAccess.sol\":4238:4280  RoleGranted(roles[i], account, msg.sender) */\n      0x2f8788117e7eff1d82e926ec794901d17c78024a50270940304540a733656f0d\n      mload(0x40)\n      mload(0x40)\n      dup1\n      swap2\n      sub\n      swap1\n      log4\n        /* \"RoleAccess.sol\":4133:4295  if (!_roles[roles[i]][account]) {... */\n    tag_69:\n        /* \"RoleAccess.sol\":4114:4117  i++ */\n      dup1\n      dup1\n      0x01\n      add\n      swap2\n      pop\n      pop\n        /* \"RoleAccess.sol\":4076:4305  for (uint256 i = 0; i < roles.length; i++) {... */\n      jump(tag_63)\n    tag_64:\n      pop\n        /* \"RoleAccess.sol\":3976:4311  function grantMultipleRoles(bytes32[] calldata roles, address account) external onlyAdmin {... */\n      pop\n      pop\n      pop\n      jump\t// out\n        /* \"RoleAccess.sol\":2917:3259  function grantRole(bytes32 role, address account) external onlyAdmin {... */\n    tag_23:\n        /* \"RoleAccess.sol\":2438:2444  _roles */\n      0x00\n        /* \"RoleAccess.sol\":2438:2464  _roles[DEFAULT_ADMIN_ROLE] */\n      0x00\n        /* \"RoleAccess.sol\":610:641  keccak256(\"DEFAULT_ADMIN_ROLE\") */\n      0x1effbbff9c66c5e59634f24fe842750c60d18891155c32dd155fc2d661a4c86d\n        /* \"RoleAccess.sol\":2438:2464  _roles[DEFAULT_ADMIN_ROLE] */\n      dup2\n      mstore\n      0x20\n      add\n      swap1\n      dup2\n      mstore\n      0x20\n      add\n      0x00\n      keccak256\n        /* \"RoleAccess.sol\":2438:2476  _roles[DEFAULT_ADMIN_ROLE][msg.sender] */\n      0x00\n        /* \"RoleAccess.sol\":2465:2475  msg.sender */\n      caller\n        /* \"RoleAccess.sol\":2438:2476  _roles[DEFAULT_ADMIN_ROLE][msg.sender] */\n      0xffffffffffffffffffffffffffffffffffffffff\n      and\n      0xffffffffffffffffffffffffffffffffffffffff\n      and\n      dup2\n      mstore\n      0x20\n      add\n      swap1\n      dup2\n      mstore\n      0x20\n      add\n      0x00\n      keccak256\n      0x00\n      swap1\n      sload\n      swap1\n      0x0100\n      exp\n      swap1\n      div\n      0xff\n      and\n        /* \"RoleAccess.sol\":2430:2512  require(_roles[DEFAULT_ADMIN_ROLE][msg.sender], \"RoleAccess: caller is not admin\") */\n      tag_75\n      jumpi\n      mload(0x40)\n      0x08c379a000000000000000000000000000000000000000000000000000000000\n      dup2\n      mstore\n      0x04\n      add\n      tag_76\n      swap1\n      tag_61\n      jump\t// in\n    tag_76:\n      mload(0x40)\n      dup1\n      swap2\n      sub\n      swap1\n      revert\n    tag_75:\n        /* \"RoleAccess.sol\":3023:3024  0 */\n      0x00\n        /* \"RoleAccess.sol\":3004:3025  account != address(0) */\n      0xffffffffffffffffffffffffffffffffffffffff\n      and\n        /* \"RoleAccess.sol\":3004:3011  account */\n      dup2\n        /* \"RoleAccess.sol\":3004:3025  account != address(0) */\n      0xffffffffffffffffffffffffffffffffffffffff\n      and\n      sub\n        /* \"RoleAccess.sol\":2996:3075  require(account != address(0), \"RoleAccess: cannot grant role to zero address\") */\n      tag_78\n      jumpi\n      mload(0x40)\n      0x08c379a000000000000000000000000000000000000000000000000000000000\n      dup2\n      mstore\n      0x04\n      add\n      tag_79\n      swap1\n      tag_80\n      jump\t// in\n    tag_79:\n      mload(0x40)\n      dup1\n      swap2\n      sub\n      swap1\n      revert\n    tag_78:\n        /* \"RoleAccess.sol\":3094:3100  _roles */\n      0x00\n        /* \"RoleAccess.sol\":3094:3106  _roles[role] */\n      0x00\n        /* \"RoleAccess.sol\":3101:3105  role */\n      dup4\n        /* \"RoleAccess.sol\":3094:3106  _roles[role] */\n      dup2\n      mstore\n      0x20\n      add\n      swap1\n      dup2\n      mstore\n      0x20\n      add\n      0x00\n      keccak256\n        /* \"RoleAccess.sol\":3094:3115  _roles[role][account] */\n      0x00\n        /* \"RoleAccess.sol\":3107:3114  account */\n      dup3\n        /* \"RoleAccess.sol\":3094:3115  _roles[role][account] */\n      0xffffffffffffffffffffffffffffffffffffffff\n      and\n      0xffffffffffffffffffffffffffffffffffffffff\n      and\n      dup2\n      mstore\n      0x20\n      add\n      swap1\n      dup2\n      mstore\n      0x20\n      add\n      0x00\n      keccak256\n      0x00\n      swap1\n      sload\n      swap1\n      0x0100\n      exp\n      swap1\n      div\n      0xff\n      and\n        /* \"RoleAccess.sol\":3093:3115  !_roles[role][account] */\n      iszero\n        /* \"RoleAccess.sol\":3085:3161  require(!_roles[role][account], \"RoleAccess: account already has this role\") */\n      tag_81\n      jumpi\n      mload(0x40)\n      0x08c379a000000000000000000000000000000000000000000000000000000000\n      dup2\n      mstore\n      0x04\n      add\n      tag_82\n      swap1\n      tag_83\n      jump\t// in\n    tag_82:\n      mload(0x40)\n      dup1\n      swap2\n      sub\n      swap1\n      revert\n    tag_81:\n        /* \"RoleAccess.sol\":3195:3199  true */\n      0x01\n        /* \"RoleAccess.sol\":3171:3177  _roles */\n      0x00\n        /* \"RoleAccess.sol\":3171:3183  _roles[role] */\n      0x00\n        /* \"RoleAccess.sol\":3178:3182  role */\n      dup5\n        /* \"RoleAccess.sol\":3171:3183  _roles[role] */\n      dup2\n      mstore\n      0x20\n      add\n      swap1\n      dup2\n      mstore\n      0x20\n      add\n      0x00\n      keccak256\n        /* \"RoleAccess.sol\":3171:3192  _roles[role][account] */\n      0x00\n        /* \"RoleAccess.sol\":3184:3191  account */\n      dup4\n        /* \"RoleAccess.sol\":3171:3192  _roles[role][account] */\n      0xffffffffffffffffffffffffffffffffffffffff\n      and\n      0xffffffffffffffffffffffffffffffffffffffff\n      and\n      dup2\n      mstore\n      0x20\n      add\n      swap1\n      dup2\n      mstore\n      0x20\n      add\n      0x00\n      keccak256\n      0x00\n        /* \"RoleAccess.sol\":3171:3199  _roles[role][account] = true */\n      0x0100\n      exp\n      dup2\n      sload\n      dup2\n      0xff\n      mul\n      not\n      and\n      swap1\n      dup4\n      iszero\n      iszero\n      mul\n      or\n      swap1\n      sstore\n      pop\n        /* \"RoleAccess.sol\":3241:3251  msg.sender */\n      caller\n        /* \"RoleAccess.sol\":3214:3252  RoleGranted(role, account, msg.sender) */\n      0xffffffffffffffffffffffffffffffffffffffff\n      and\n        /* \"RoleAccess.sol\":3232:3239  account */\n      dup2\n        /* \"RoleAccess.sol\":3214:3252  RoleGranted(role, account, msg.sender) */\n      0xffffffffffffffffffffffffffffffffffffffff\n      and\n        /* \"RoleAccess.sol\":3226:3230  role */\n      dup4\n        /* \"RoleAccess.sol\":3214:3252  RoleGranted(role, account, msg.sender) */\n      0x2f8788117e7eff1d82e926ec794901d17c78024a50270940304540a733656f0d\n      mload(0x40)\n      mload(0x40)\n      dup1\n      swap2\n      sub\n      swap1\n      log4\n        /* \"RoleAccess.sol\":2917:3259  function grantRole(bytes32 role, address account) external onlyAdmin {... */\n      pop\n      pop\n      jump\t// out\n        /* \"RoleAccess.sol\":647:719  bytes32 public constant REVIEWER_ROLE       = keccak256(\"REVIEWER_ROLE\") */\n    tag_25:\n        /* \"RoleAccess.sol\":693:719  keccak256(\"REVIEWER_ROLE\") */\n      0xc10c77be35aff266144ed64c26a1fa104bae2f284ae99ac4a34203454704a185\n        /* \"RoleAccess.sol\":647:719  bytes32 public constant REVIEWER_ROLE       = keccak256(\"REVIEWER_ROLE\") */\n      dup2\n      jump\t// out\n        /* \"RoleAccess.sol\":725:797  bytes32 public constant APPROVER_ROLE       = keccak256(\"APPROVER_ROLE\") */\n    tag_29:\n        /* \"RoleAccess.sol\":771:797  keccak256(\"APPROVER_ROLE\") */\n      0x408a36151f841709116a4e8aca4e0202874f7f54687dcb863b1ea4672dc9d8cf\n        /* \"RoleAccess.sol\":725:797  bytes32 public constant APPROVER_ROLE       = keccak256(\"APPROVER_ROLE\") */\n      dup2\n      jump\t// out\n        /* \"RoleAccess.sol\":1034:1106  bytes32 public constant REGISTRY_ROLE       = keccak256(\"REGISTRY_ROLE\") */\n    tag_32:\n        /* \"RoleAccess.sol\":1080:1106  keccak256(\"REGISTRY_ROLE\") */\n      0xc2979137d1774e40fe2638d355bf7a7b092be4c67f242aad1655e1e27f9df9cc\n        /* \"RoleAccess.sol\":1034:1106  bytes32 public constant REGISTRY_ROLE       = keccak256(\"REGISTRY_ROLE\") */\n      dup2\n      jump\t// out\n        /* \"RoleAccess.sol\":881:952  bytes32 public constant AUDITOR_ROLE        = keccak256(\"AUDITOR_ROLE\") */\n    tag_35:\n        /* \"RoleAccess.sol\":927:952  keccak256(\"AUDITOR_ROLE\") */\n      0x59a1c48e5837ad7a7f3dcedcbe129bf3249ec4fbf651fd4f5e2600ead39fe2f5\n        /* \"RoleAccess.sol\":881:952  bytes32 public constant AUDITOR_ROLE        = keccak256(\"AUDITOR_ROLE\") */\n      dup2\n      jump\t// out\n        /* \"RoleAccess.sol\":958:1028  bytes32 public constant LOGGER_ROLE         = keccak256(\"LOGGER_ROLE\") */\n    tag_38:\n        /* \"RoleAccess.sol\":1004:1028  keccak256(\"LOGGER_ROLE\") */\n      0x566c814873eed56a69b28c40ab27cc2cb150d74068bae3e884ccd44f8de60f8a\n        /* \"RoleAccess.sol\":958:1028  bytes32 public constant LOGGER_ROLE         = keccak256(\"LOGGER_ROLE\") */\n      dup2\n      jump\t// out\n        /* \"RoleAccess.sol\":3653:3892  function renounceRole(bytes32 role) external {... */\n    tag_43:\n        /* \"RoleAccess.sol\":3716:3722  _roles */\n      0x00\n        /* \"RoleAccess.sol\":3716:3728  _roles[role] */\n      0x00\n        /* \"RoleAccess.sol\":3723:3727  role */\n      dup3\n        /* \"RoleAccess.sol\":3716:3728  _roles[role] */\n      dup2\n      mstore\n      0x20\n      add\n      swap1\n      dup2\n      mstore\n      0x20\n      add\n      0x00\n      keccak256\n        /* \"RoleAccess.sol\":3716:3740  _roles[role][msg.sender] */\n      0x00\n        /* \"RoleAccess.sol\":3729:3739  msg.sender */\n      caller\n        /* \"RoleAccess.sol\":3716:3740  _roles[role][msg.sender] */\n      0xffffffffffffffffffffffffffffffffffffffff\n      and\n      0xffffffffffffffffffffffffffffffffffffffff\n      and\n      dup2\n      mstore\n      0x20\n      add\n      swap1\n      dup2\n      mstore\n      0x20\n      add\n      0x00\n      keccak256\n      0x00\n      swap1\n      sload\n      swap1\n      0x0100\n      exp\n      swap1\n      div\n      0xff\n      and\n        /* \"RoleAccess.sol\":3708:3787  require(_roles[role][msg.sender], \"RoleAccess: caller does not have this role\") */\n      tag_85\n      jumpi\n      mload(0x40)\n      0x08c379a000000000000000000000000000000000000000000000000000000000\n      dup2\n      mstore\n      0x04\n      add\n      tag_86\n      swap1\n      tag_87\n      jump\t// in\n    tag_86:\n      mload(0x40)\n      dup1\n      swap2\n      sub\n      swap1\n      revert\n    tag_85:\n        /* \"RoleAccess.sol\":3824:3829  false */\n      0x00\n        /* \"RoleAccess.sol\":3797:3803  _roles */\n      0x00\n        /* \"RoleAccess.sol\":3797:3809  _roles[role] */\n      0x00\n        /* \"RoleAccess.sol\":3804:3808  role */\n      dup4\n        /* \"RoleAccess.sol\":3797:3809  _roles[role] */\n      dup2\n      mstore\n      0x20\n      add\n      swap1\n      dup2\n      mstore\n      0x20\n      add\n      0x00\n      keccak256\n        /* \"RoleAccess.sol\":3797:3821  _roles[role][msg.sender] */\n      0x00\n        /* \"RoleAccess.sol\":3810:3820  msg.sender */\n      caller\n        /* \"RoleAccess.sol\":3797:3821  _roles[role][msg.sender] */\n      0xffffffffffffffffffffffffffffffffffffffff\n      and\n      0xffffffffffffffffffffffffffffffffffffffff\n      and\n      dup2\n      mstore\n      0x20\n      add\n      swap1\n      dup2\n      mstore\n      0x20\n      add\n      0x00\n      keccak256\n      0x00\n        /* \"RoleAccess.sol\":3797:3829  _roles[role][msg.sender] = false */\n      0x0100\n      exp\n      dup2\n      sload\n      dup2\n      0xff\n      mul\n      not\n      and\n      swap1\n      dup4\n      iszero\n      iszero\n      mul\n      or\n      swap1\n      sstore\n      pop\n        /* \"RoleAccess.sol\":3874:3884  msg.sender */\n      caller\n        /* \"RoleAccess.sol\":3844:3885  RoleRevoked(role, msg.sender, msg.sender) */\n      0xffffffffffffffffffffffffffffffffffffffff\n      and\n        /* \"RoleAccess.sol\":3862:3872  msg.sender */\n      caller\n        /* \"RoleAccess.sol\":3844:3885  RoleRevoked(role, msg.sender, msg.sender) */\n      0xffffffffffffffffffffffffffffffffffffffff\n      and\n        /* \"RoleAccess.sol\":3856:3860  role */\n      dup3\n        /* \"RoleAccess.sol\":3844:3885  RoleRevoked(role, msg.sender, msg.sender) */\n      0xf6391f5c32d9c69d2a47ea670b442974b53935d1edc7fd64eb21e047a839171b\n      mload(0x40)\n      mload(0x40)\n      dup1\n      swap2\n      sub\n      swap1\n      log4\n        /* \"RoleAccess.sol\":3653:3892  function renounceRole(bytes32 role) external {... */\n      pop\n      jump\t// out\n        /* \"RoleAccess.sol\":2735:2855  function hasRole(bytes32 role, address account) public view returns (bool) {... */\n    tag_46:\n        /* \"RoleAccess.sol\":2804:2808  bool */\n      0x00\n        /* \"RoleAccess.sol\":2827:2833  _roles */\n      0x00\n        /* \"RoleAccess.sol\":2827:2839  _roles[role] */\n      0x00\n        /* \"RoleAccess.sol\":2834:2838  role */\n      dup5\n        /* \"RoleAccess.sol\":2827:2839  _roles[role] */\n      dup2\n      mstore\n      0x20\n      add\n      swap1\n      dup2\n      mstore\n      0x20\n      add\n      0x00\n      keccak256\n        /* \"RoleAccess.sol\":2827:2848  _roles[role][account] */\n      0x00\n        /* \"RoleAccess.sol\":2840:2847  account */\n      dup4\n        /* \"RoleAccess.sol\":2827:2848  _roles[role][account] */\n      0xffffffffffffffffffffffffffffffffffffffff\n      and\n      0xffffffffffffffffffffffffffffffffffffffff\n      and\n      dup2\n      mstore\n      0x20\n      add\n      swap1\n      dup2\n      mstore\n      0x20\n      add\n      0x00\n      keccak256\n      0x00\n      swap1\n      sload\n      swap1\n      0x0100\n      exp\n      swap1\n      div\n      0xff\n      and\n        /* \"RoleAccess.sol\":2820:2848  return _roles[role][account] */\n      swap1\n      pop\n        /* \"RoleAccess.sol\":2735:2855  function hasRole(bytes32 role, address account) public view returns (bool) {... */\n      swap3\n      swap2\n      pop\n      pop\n      jump\t// out\n        /* \"RoleAccess.sol\":564:641  bytes32 public constant DEFAULT_ADMIN_ROLE  = keccak256(\"DEFAULT_ADMIN_ROLE\") */\n    tag_50:\n        /* \"RoleAccess.sol\":610:641  keccak256(\"DEFAULT_ADMIN_ROLE\") */\n      0x1effbbff9c66c5e59634f24fe842750c60d18891155c32dd155fc2d661a4c86d\n        /* \"RoleAccess.sol\":564:641  bytes32 public constant DEFAULT_ADMIN_ROLE  = keccak256(\"DEFAULT_ADMIN_ROLE\") */\n      dup2\n      jump\t// out\n        /* \"RoleAccess.sol\":803:875  bytes32 public constant TREASURY_ROLE       = keccak256(\"TREASURY_ROLE\") */\n    tag_53:\n        /* \"RoleAccess.sol\":849:875  keccak256(\"TREASURY_ROLE\") */\n      0xe1dcbdb91df27212a29bc27177c840cf2f819ecf2187432e1fac86c2dd5dfca9\n        /* \"RoleAccess.sol\":803:875  bytes32 public constant TREASURY_ROLE       = keccak256(\"TREASURY_ROLE\") */\n      dup2\n      jump\t// out\n        /* \"RoleAccess.sol\":3324:3580  function revokeRole(bytes32 role, address account) external onlyAdmin {... */\n    tag_57:\n        /* \"RoleAccess.sol\":2438:2444  _roles */\n      0x00\n        /* \"RoleAccess.sol\":2438:2464  _roles[DEFAULT_ADMIN_ROLE] */\n      0x00\n        /* \"RoleAccess.sol\":610:641  keccak256(\"DEFAULT_ADMIN_ROLE\") */\n      0x1effbbff9c66c5e59634f24fe842750c60d18891155c32dd155fc2d661a4c86d\n        /* \"RoleAccess.sol\":2438:2464  _roles[DEFAULT_ADMIN_ROLE] */\n      dup2\n      mstore\n      0x20\n      add\n      swap1\n      dup2\n      mstore\n      0x20\n      add\n      0x00\n      keccak256\n        /* \"RoleAccess.sol\":2438:2476  _roles[DEFAULT_ADMIN_ROLE][msg.sender] */\n      0x00\n        /* \"RoleAccess.sol\":2465:2475  msg.sender */\n      caller\n        /* \"RoleAccess.sol\":2438:2476  _roles[DEFAULT_ADMIN_ROLE][msg.sender] */\n      0xffffffffffffffffffffffffffffffffffffffff\n      and\n      0xffffffffffffffffffffffffffffffffffffffff\n      and\n      dup2\n      mstore\n      0x20\n      add\n      swap1\n      dup2\n      mstore\n      0x20\n      add\n      0x00\n      keccak256\n      0x00\n      swap1\n      sload\n      swap1\n      0x0100\n      exp\n      swap1\n      div\n      0xff\n      and\n        /* \"RoleAccess.sol\":2430:2512  require(_roles[DEFAULT_ADMIN_ROLE][msg.sender], \"RoleAccess: caller is not admin\") */\n      tag_90\n      jumpi\n      mload(0x40)\n      0x08c379a000000000000000000000000000000000000000000000000000000000\n      dup2\n      mstore\n      0x04\n      add\n      tag_91\n      swap1\n      tag_61\n      jump\t// in\n    tag_91:\n      mload(0x40)\n      dup1\n      swap2\n      sub\n      swap1\n      revert\n    tag_90:\n        /* \"RoleAccess.sol\":3412:3418  _roles */\n      0x00\n        /* \"RoleAccess.sol\":3412:3424  _roles[role] */\n      0x00\n        /* \"RoleAccess.sol\":3419:3423  role */\n      dup4\n        /* \"RoleAccess.sol\":3412:3424  _roles[role] */\n      dup2\n      mstore\n      0x20\n      add\n      swap1\n      dup2\n      mstore\n      0x20\n      add\n      0x00\n      keccak256\n        /* \"RoleAccess.sol\":3412:3433  _roles[role][account] */\n      0x00\n        /* \"RoleAccess.sol\":3425:3432  account */\n      dup3\n        /* \"RoleAccess.sol\":3412:3433  _roles[role][account] */\n      0xffffffffffffffffffffffffffffffffffffffff\n      and\n      0xffffffffffffffffffffffffffffffffffffffff\n      and\n      dup2\n      mstore\n      0x20\n      add\n      swap1\n      dup2\n      mstore\n      0x20\n      add\n      0x00\n      keccak256\n      0x00\n      swap1\n      sload\n      swap1\n      0x0100\n      exp\n      swap1\n      div\n      0xff\n      and\n        /* \"RoleAccess.sol\":3404:3481  require(_roles[role][account], \"RoleAccess: account does not have this role\") */\n      tag_93\n      jumpi\n      mload(0x40)\n      0x08c379a000000000000000000000000000000000000000000000000000000000\n      dup2\n      mstore\n      0x04\n      add\n      tag_94\n      swap1\n      tag_95\n      jump\t// in\n    tag_94:\n      mload(0x40)\n      dup1\n      swap2\n      sub\n      swap1\n      revert\n    tag_93:\n        /* \"RoleAccess.sol\":3515:3520  false */\n      0x00\n        /* \"RoleAccess.sol\":3491:3497  _roles */\n      0x00\n        /* \"RoleAccess.sol\":3491:3503  _roles[role] */\n      0x00\n        /* \"RoleAccess.sol\":3498:3502  role */\n      dup5\n        /* \"RoleAccess.sol\":3491:3503  _roles[role] */\n      dup2\n      mstore\n      0x20\n      add\n      swap1\n      dup2\n      mstore\n      0x20\n      add\n      0x00\n      keccak256\n        /* \"RoleAccess.sol\":3491:3512  _roles[role][account] */\n      0x00\n        /* \"RoleAccess.sol\":3504:3511  account */\n      dup4\n        /* \"RoleAccess.sol\":3491:3512  _roles[role][account] */\n      0xffffffffffffffffffffffffffffffffffffffff\n      and\n      0xffffffffffffffffffffffffffffffffffffffff\n      and\n      dup2\n      mstore\n      0x20\n      add\n      swap1\n      dup2\n      mstore\n      0x20\n      add\n      0x00\n      keccak256\n      0x00\n        /* \"RoleAccess.sol\":3491:3520  _roles[role][account] = false */\n      0x0100\n      exp\n      dup2\n      sload\n      dup2\n      0xff\n      mul\n      not\n      and\n      swap1\n      dup4\n      iszero\n      iszero\n      mul\n      or\n      swap1\n      sstore\n      pop\n        /* \"RoleAccess.sol\":3562:3572  msg.sender */\n      caller\n        /* \"RoleAccess.sol\":3535:3573  RoleRevoked(role, account, msg.sender) */\n      0xffffffffffffffffffffffffffffffffffffffff\n      and\n        /* \"RoleAccess.sol\":3553:3560  account */\n      dup2\n        /* \"RoleAccess.sol\":3535:3573  RoleRevoked(role, account, msg.sender) */\n      0xffffffffffffffffffffffffffffffffffffffff\n      and\n        /* \"RoleAccess.sol\":3547:3551  role */\n      dup4\n        /* \"RoleAccess.sol\":3535:3573  RoleRevoked(role, account, msg.sender) */\n      0xf6391f5c32d9c69d2a47ea670b442974b53935d1edc7fd64eb21e047a839171b\n      mload(0x40)\n      mload(0x40)\n      dup1\n      swap2\n      sub\n      swap1\n      log4\n        /* \"RoleAccess.sol\":3324:3580  function revokeRole(bytes32 role, address account) external onlyAdmin {... */\n      pop\n      pop\n      jump\t// out\n        /* \"#utility.yul\":88:205   */\n    tag_97:\n        /* \"#utility.yul\":197:198   */\n      0x00\n        /* \"#utility.yul\":194:195   */\n      0x00\n        /* \"#utility.yul\":187:199   */\n      revert\n        /* \"#utility.yul\":211:328   */\n    tag_98:\n        /* \"#utility.yul\":320:321   */\n      0x00\n        /* \"#utility.yul\":317:318   */\n      0x00\n        /* \"#utility.yul\":310:322   */\n      revert\n        /* \"#utility.yul\":334:451   */\n    tag_99:\n        /* \"#utility.yul\":443:444   */\n      0x00\n        /* \"#utility.yul\":440:441   */\n      0x00\n        /* \"#utility.yul\":433:445   */\n      revert\n        /* \"#utility.yul\":457:574   */\n    tag_100:\n        /* \"#utility.yul\":566:567   */\n      0x00\n        /* \"#utility.yul\":563:564   */\n      0x00\n        /* \"#utility.yul\":556:568   */\n      revert\n        /* \"#utility.yul\":580:697   */\n    tag_101:\n        /* \"#utility.yul\":689:690   */\n      0x00\n        /* \"#utility.yul\":686:687   */\n      0x00\n        /* \"#utility.yul\":679:691   */\n      revert\n        /* \"#utility.yul\":720:1288   */\n    tag_102:\n        /* \"#utility.yul\":793:801   */\n      0x00\n        /* \"#utility.yul\":803:809   */\n      0x00\n        /* \"#utility.yul\":853:856   */\n      dup4\n        /* \"#utility.yul\":846:850   */\n      0x1f\n        /* \"#utility.yul\":838:844   */\n      dup5\n        /* \"#utility.yul\":834:851   */\n      add\n        /* \"#utility.yul\":830:857   */\n      slt\n        /* \"#utility.yul\":820:942   */\n      tag_132\n      jumpi\n        /* \"#utility.yul\":861:940   */\n      tag_133\n      tag_99\n      jump\t// in\n    tag_133:\n        /* \"#utility.yul\":820:942   */\n    tag_132:\n        /* \"#utility.yul\":974:980   */\n      dup3\n        /* \"#utility.yul\":961:981   */\n      calldataload\n        /* \"#utility.yul\":951:981   */\n      swap1\n      pop\n        /* \"#utility.yul\":1004:1022   */\n      0xffffffffffffffff\n        /* \"#utility.yul\":996:1002   */\n      dup2\n        /* \"#utility.yul\":993:1023   */\n      gt\n        /* \"#utility.yul\":990:1107   */\n      iszero\n      tag_134\n      jumpi\n        /* \"#utility.yul\":1026:1105   */\n      tag_135\n      tag_100\n      jump\t// in\n    tag_135:\n        /* \"#utility.yul\":990:1107   */\n    tag_134:\n        /* \"#utility.yul\":1140:1144   */\n      0x20\n        /* \"#utility.yul\":1132:1138   */\n      dup4\n        /* \"#utility.yul\":1128:1145   */\n      add\n        /* \"#utility.yul\":1116:1145   */\n      swap2\n      pop\n        /* \"#utility.yul\":1194:1197   */\n      dup4\n        /* \"#utility.yul\":1186:1190   */\n      0x20\n        /* \"#utility.yul\":1178:1184   */\n      dup3\n        /* \"#utility.yul\":1174:1191   */\n      mul\n        /* \"#utility.yul\":1164:1172   */\n      dup4\n        /* \"#utility.yul\":1160:1192   */\n      add\n        /* \"#utility.yul\":1157:1198   */\n      gt\n        /* \"#utility.yul\":1154:1282   */\n      iszero\n      tag_136\n      jumpi\n        /* \"#utility.yul\":1201:1280   */\n      tag_137\n      tag_101\n      jump\t// in\n    tag_137:\n        /* \"#utility.yul\":1154:1282   */\n    tag_136:\n        /* \"#utility.yul\":720:1288   */\n      swap3\n      pop\n      swap3\n      swap1\n      pop\n      jump\t// out\n        /* \"#utility.yul\":1294:1420   */\n    tag_103:\n        /* \"#utility.yul\":1331:1338   */\n      0x00\n        /* \"#utility.yul\":1371:1413   */\n      0xffffffffffffffffffffffffffffffffffffffff\n        /* \"#utility.yul\":1364:1369   */\n      dup3\n        /* \"#utility.yul\":1360:1414   */\n      and\n        /* \"#utility.yul\":1349:1414   */\n      swap1\n      pop\n        /* \"#utility.yul\":1294:1420   */\n      swap2\n      swap1\n      pop\n      jump\t// out\n        /* \"#utility.yul\":1426:1522   */\n    tag_104:\n        /* \"#utility.yul\":1463:1470   */\n      0x00\n        /* \"#utility.yul\":1492:1516   */\n      tag_140\n        /* \"#utility.yul\":1510:1515   */\n      dup3\n        /* \"#utility.yul\":1492:1516   */\n      tag_103\n      jump\t// in\n    tag_140:\n        /* \"#utility.yul\":1481:1516   */\n      swap1\n      pop\n        /* \"#utility.yul\":1426:1522   */\n      swap2\n      swap1\n      pop\n      jump\t// out\n        /* \"#utility.yul\":1528:1650   */\n    tag_105:\n        /* \"#utility.yul\":1601:1625   */\n      tag_142\n        /* \"#utility.yul\":1619:1624   */\n      dup2\n        /* \"#utility.yul\":1601:1625   */\n      tag_104\n      jump\t// in\n    tag_142:\n        /* \"#utility.yul\":1594:1599   */\n      dup2\n        /* \"#utility.yul\":1591:1626   */\n      eq\n        /* \"#utility.yul\":1581:1644   */\n      tag_143\n      jumpi\n        /* \"#utility.yul\":1640:1641   */\n      0x00\n        /* \"#utility.yul\":1637:1638   */\n      0x00\n        /* \"#utility.yul\":1630:1642   */\n      revert\n        /* \"#utility.yul\":1581:1644   */\n    tag_143:\n        /* \"#utility.yul\":1528:1650   */\n      pop\n      jump\t// out\n        /* \"#utility.yul\":1656:1795   */\n    tag_106:\n        /* \"#utility.yul\":1702:1707   */\n      0x00\n        /* \"#utility.yul\":1740:1746   */\n      dup2\n        /* \"#utility.yul\":1727:1747   */\n      calldataload\n        /* \"#utility.yul\":1718:1747   */\n      swap1\n      pop\n        /* \"#utility.yul\":1756:1789   */\n      tag_145\n        /* \"#utility.yul\":1783:1788   */\n      dup2\n        /* \"#utility.yul\":1756:1789   */\n      tag_105\n      jump\t// in\n    tag_145:\n        /* \"#utility.yul\":1656:1795   */\n      swap3\n      swap2\n      pop\n      pop\n      jump\t// out\n        /* \"#utility.yul\":1801:2505   */\n    tag_18:\n        /* \"#utility.yul\":1896:1902   */\n      0x00\n        /* \"#utility.yul\":1904:1910   */\n      0x00\n        /* \"#utility.yul\":1912:1918   */\n      0x00\n        /* \"#utility.yul\":1961:1963   */\n      0x40\n        /* \"#utility.yul\":1949:1958   */\n      dup5\n        /* \"#utility.yul\":1940:1947   */\n      dup7\n        /* \"#utility.yul\":1936:1959   */\n      sub\n        /* \"#utility.yul\":1932:1964   */\n      slt\n        /* \"#utility.yul\":1929:2048   */\n      iszero\n      tag_147\n      jumpi\n        /* \"#utility.yul\":1967:2046   */\n      tag_148\n      tag_97\n      jump\t// in\n    tag_148:\n        /* \"#utility.yul\":1929:2048   */\n    tag_147:\n        /* \"#utility.yul\":2115:2116   */\n      0x00\n        /* \"#utility.yul\":2104:2113   */\n      dup5\n        /* \"#utility.yul\":2100:2117   */\n      add\n        /* \"#utility.yul\":2087:2118   */\n      calldataload\n        /* \"#utility.yul\":2145:2163   */\n      0xffffffffffffffff\n        /* \"#utility.yul\":2137:2143   */\n      dup2\n        /* \"#utility.yul\":2134:2164   */\n      gt\n        /* \"#utility.yul\":2131:2248   */\n      iszero\n      tag_149\n      jumpi\n        /* \"#utility.yul\":2167:2246   */\n      tag_150\n      tag_98\n      jump\t// in\n    tag_150:\n        /* \"#utility.yul\":2131:2248   */\n    tag_149:\n        /* \"#utility.yul\":2280:2360   */\n      tag_151\n        /* \"#utility.yul\":2352:2359   */\n      dup7\n        /* \"#utility.yul\":2343:2349   */\n      dup3\n        /* \"#utility.yul\":2332:2341   */\n      dup8\n        /* \"#utility.yul\":2328:2350   */\n      add\n        /* \"#utility.yul\":2280:2360   */\n      tag_102\n      jump\t// in\n    tag_151:\n        /* \"#utility.yul\":2262:2360   */\n      swap4\n      pop\n      swap4\n      pop\n        /* \"#utility.yul\":2058:2370   */\n      pop\n        /* \"#utility.yul\":2409:2411   */\n      0x20\n        /* \"#utility.yul\":2435:2488   */\n      tag_152\n        /* \"#utility.yul\":2480:2487   */\n      dup7\n        /* \"#utility.yul\":2471:2477   */\n      dup3\n        /* \"#utility.yul\":2460:2469   */\n      dup8\n        /* \"#utility.yul\":2456:2478   */\n      add\n        /* \"#utility.yul\":2435:2488   */\n      tag_106\n      jump\t// in\n    tag_152:\n        /* \"#utility.yul\":2425:2488   */\n      swap2\n      pop\n        /* \"#utility.yul\":2380:2498   */\n      pop\n        /* \"#utility.yul\":1801:2505   */\n      swap3\n      pop\n      swap3\n      pop\n      swap3\n      jump\t// out\n        /* \"#utility.yul\":2511:2588   */\n    tag_107:\n        /* \"#utility.yul\":2548:2555   */\n      0x00\n        /* \"#utility.yul\":2577:2582   */\n      dup2\n        /* \"#utility.yul\":2566:2582   */\n      swap1\n      pop\n        /* \"#utility.yul\":2511:2588   */\n      swap2\n      swap1\n      pop\n      jump\t// out\n        /* \"#utility.yul\":2594:2716   */\n    tag_108:\n        /* \"#utility.yul\":2667:2691   */\n      tag_155\n        /* \"#utility.yul\":2685:2690   */\n      dup2\n        /* \"#utility.yul\":2667:2691   */\n      tag_107\n      jump\t// in\n    tag_155:\n        /* \"#utility.yul\":2660:2665   */\n      dup2\n        /* \"#utility.yul\":2657:2692   */\n      eq\n        /* \"#utility.yul\":2647:2710   */\n      tag_156\n      jumpi\n        /* \"#utility.yul\":2706:2707   */\n      0x00\n        /* \"#utility.yul\":2703:2704   */\n      0x00\n        /* \"#utility.yul\":2696:2708   */\n      revert\n        /* \"#utility.yul\":2647:2710   */\n    tag_156:\n        /* \"#utility.yul\":2594:2716   */\n      pop\n      jump\t// out\n        /* \"#utility.yul\":2722:2861   */\n    tag_109:\n        /* \"#utility.yul\":2768:2773   */\n      0x00\n        /* \"#utility.yul\":2806:2812   */\n      dup2\n        /* \"#utility.yul\":2793:2813   */\n      calldataload\n        /* \"#utility.yul\":2784:2813   */\n      swap1\n      pop\n        /* \"#utility.yul\":2822:2855   */\n      tag_158\n        /* \"#utility.yul\":2849:2854   */\n      dup2\n        /* \"#utility.yul\":2822:2855   */\n      tag_108\n      jump\t// in\n    tag_158:\n        /* \"#utility.yul\":2722:2861   */\n      swap3\n      swap2\n      pop\n      pop\n      jump\t// out\n        /* \"#utility.yul\":2867:3341   */\n    tag_22:\n        /* \"#utility.yul\":2935:2941   */\n      0x00\n        /* \"#utility.yul\":2943:2949   */\n      0x00\n        /* \"#utility.yul\":2992:2994   */\n      0x40\n        /* \"#utility.yul\":2980:2989   */\n      dup4\n        /* \"#utility.yul\":2971:2978   */\n      dup6\n        /* \"#utility.yul\":2967:2990   */\n      sub\n        /* \"#utility.yul\":2963:2995   */\n      slt\n        /* \"#utility.yul\":2960:3079   */\n      iszero\n      tag_160\n      jumpi\n        /* \"#utility.yul\":2998:3077   */\n      tag_161\n      tag_97\n      jump\t// in\n    tag_161:\n        /* \"#utility.yul\":2960:3079   */\n    tag_160:\n        /* \"#utility.yul\":3118:3119   */\n      0x00\n        /* \"#utility.yul\":3143:3196   */\n      tag_162\n        /* \"#utility.yul\":3188:3195   */\n      dup6\n        /* \"#utility.yul\":3179:3185   */\n      dup3\n        /* \"#utility.yul\":3168:3177   */\n      dup7\n        /* \"#utility.yul\":3164:3186   */\n      add\n        /* \"#utility.yul\":3143:3196   */\n      tag_109\n      jump\t// in\n    tag_162:\n        /* \"#utility.yul\":3133:3196   */\n      swap3\n      pop\n        /* \"#utility.yul\":3089:3206   */\n      pop\n        /* \"#utility.yul\":3245:3247   */\n      0x20\n        /* \"#utility.yul\":3271:3324   */\n      tag_163\n        /* \"#utility.yul\":3316:3323   */\n      dup6\n        /* \"#utility.yul\":3307:3313   */\n      dup3\n        /* \"#utility.yul\":3296:3305   */\n      dup7\n        /* \"#utility.yul\":3292:3314   */\n      add\n        /* \"#utility.yul\":3271:3324   */\n      tag_106\n      jump\t// in\n    tag_163:\n        /* \"#utility.yul\":3261:3324   */\n      swap2\n      pop\n        /* \"#utility.yul\":3216:3334   */\n      pop\n        /* \"#utility.yul\":2867:3341   */\n      swap3\n      pop\n      swap3\n      swap1\n      pop\n      jump\t// out\n        /* \"#utility.yul\":3347:3465   */\n    tag_110:\n        /* \"#utility.yul\":3434:3458   */\n      tag_165\n        /* \"#utility.yul\":3452:3457   */\n      dup2\n        /* \"#utility.yul\":3434:3458   */\n      tag_107\n      jump\t// in\n    tag_165:\n        /* \"#utility.yul\":3429:3432   */\n      dup3\n        /* \"#utility.yul\":3422:3459   */\n      mstore\n        /* \"#utility.yul\":3347:3465   */\n      pop\n      pop\n      jump\t// out\n        /* \"#utility.yul\":3471:3693   */\n    tag_27:\n        /* \"#utility.yul\":3564:3568   */\n      0x00\n        /* \"#utility.yul\":3602:3604   */\n      0x20\n        /* \"#utility.yul\":3591:3600   */\n      dup3\n        /* \"#utility.yul\":3587:3605   */\n      add\n        /* \"#utility.yul\":3579:3605   */\n      swap1\n      pop\n        /* \"#utility.yul\":3615:3686   */\n      tag_167\n        /* \"#utility.yul\":3683:3684   */\n      0x00\n        /* \"#utility.yul\":3672:3681   */\n      dup4\n        /* \"#utility.yul\":3668:3685   */\n      add\n        /* \"#utility.yul\":3659:3665   */\n      dup5\n        /* \"#utility.yul\":3615:3686   */\n      tag_110\n      jump\t// in\n    tag_167:\n        /* \"#utility.yul\":3471:3693   */\n      swap3\n      swap2\n      pop\n      pop\n      jump\t// out\n        /* \"#utility.yul\":3699:4028   */\n    tag_42:\n        /* \"#utility.yul\":3758:3764   */\n      0x00\n        /* \"#utility.yul\":3807:3809   */\n      0x20\n        /* \"#utility.yul\":3795:3804   */\n      dup3\n        /* \"#utility.yul\":3786:3793   */\n      dup5\n        /* \"#utility.yul\":3782:3805   */\n      sub\n        /* \"#utility.yul\":3778:3810   */\n      slt\n        /* \"#utility.yul\":3775:3894   */\n      iszero\n      tag_169\n      jumpi\n        /* \"#utility.yul\":3813:3892   */\n      tag_170\n      tag_97\n      jump\t// in\n    tag_170:\n        /* \"#utility.yul\":3775:3894   */\n    tag_169:\n        /* \"#utility.yul\":3933:3934   */\n      0x00\n        /* \"#utility.yul\":3958:4011   */\n      tag_171\n        /* \"#utility.yul\":4003:4010   */\n      dup5\n        /* \"#utility.yul\":3994:4000   */\n      dup3\n        /* \"#utility.yul\":3983:3992   */\n      dup6\n        /* \"#utility.yul\":3979:4001   */\n      add\n        /* \"#utility.yul\":3958:4011   */\n      tag_109\n      jump\t// in\n    tag_171:\n        /* \"#utility.yul\":3948:4011   */\n      swap2\n      pop\n        /* \"#utility.yul\":3904:4021   */\n      pop\n        /* \"#utility.yul\":3699:4028   */\n      swap3\n      swap2\n      pop\n      pop\n      jump\t// out\n        /* \"#utility.yul\":4034:4124   */\n    tag_111:\n        /* \"#utility.yul\":4068:4075   */\n      0x00\n        /* \"#utility.yul\":4111:4116   */\n      dup2\n        /* \"#utility.yul\":4104:4117   */\n      iszero\n        /* \"#utility.yul\":4097:4118   */\n      iszero\n        /* \"#utility.yul\":4086:4118   */\n      swap1\n      pop\n        /* \"#utility.yul\":4034:4124   */\n      swap2\n      swap1\n      pop\n      jump\t// out\n        /* \"#utility.yul\":4130:4239   */\n    tag_112:\n        /* \"#utility.yul\":4211:4232   */\n      tag_174\n        /* \"#utility.yul\":4226:4231   */\n      dup2\n        /* \"#utility.yul\":4211:4232   */\n      tag_111\n      jump\t// in\n    tag_174:\n        /* \"#utility.yul\":4206:4209   */\n      dup3\n        /* \"#utility.yul\":4199:4233   */\n      mstore\n        /* \"#utility.yul\":4130:4239   */\n      pop\n      pop\n      jump\t// out\n        /* \"#utility.yul\":4245:4455   */\n    tag_48:\n        /* \"#utility.yul\":4332:4336   */\n      0x00\n        /* \"#utility.yul\":4370:4372   */\n      0x20\n        /* \"#utility.yul\":4359:4368   */\n      dup3\n        /* \"#utility.yul\":4355:4373   */\n      add\n        /* \"#utility.yul\":4347:4373   */\n      swap1\n      pop\n        /* \"#utility.yul\":4383:4448   */\n      tag_176\n        /* \"#utility.yul\":4445:4446   */\n      0x00\n        /* \"#utility.yul\":4434:4443   */\n      dup4\n        /* \"#utility.yul\":4430:4447   */\n      add\n        /* \"#utility.yul\":4421:4427   */\n      dup5\n        /* \"#utility.yul\":4383:4448   */\n      tag_112\n      jump\t// in\n    tag_176:\n        /* \"#utility.yul\":4245:4455   */\n      swap3\n      swap2\n      pop\n      pop\n      jump\t// out\n        /* \"#utility.yul\":4461:4630   */\n    tag_113:\n        /* \"#utility.yul\":4545:4556   */\n      0x00\n        /* \"#utility.yul\":4579:4585   */\n      dup3\n        /* \"#utility.yul\":4574:4577   */\n      dup3\n        /* \"#utility.yul\":4567:4586   */\n      mstore\n        /* \"#utility.yul\":4619:4623   */\n      0x20\n        /* \"#utility.yul\":4614:4617   */\n      dup3\n        /* \"#utility.yul\":4610:4624   */\n      add\n        /* \"#utility.yul\":4595:4624   */\n      swap1\n      pop\n        /* \"#utility.yul\":4461:4630   */\n      swap3\n      swap2\n      pop\n      pop\n      jump\t// out\n        /* \"#utility.yul\":4636:4817   */\n    tag_114:\n        /* \"#utility.yul\":4776:4809   */\n      0x526f6c654163636573733a2063616c6c6572206973206e6f742061646d696e00\n        /* \"#utility.yul\":4772:4773   */\n      0x00\n        /* \"#utility.yul\":4764:4770   */\n      dup3\n        /* \"#utility.yul\":4760:4774   */\n      add\n        /* \"#utility.yul\":4753:4810   */\n      mstore\n        /* \"#utility.yul\":4636:4817   */\n      pop\n      jump\t// out\n        /* \"#utility.yul\":4823:5189   */\n    tag_115:\n        /* \"#utility.yul\":4965:4968   */\n      0x00\n        /* \"#utility.yul\":4986:5053   */\n      tag_180\n        /* \"#utility.yul\":5050:5052   */\n      0x1f\n        /* \"#utility.yul\":5045:5048   */\n      dup4\n        /* \"#utility.yul\":4986:5053   */\n      tag_113\n      jump\t// in\n    tag_180:\n        /* \"#utility.yul\":4979:5053   */\n      swap2\n      pop\n        /* \"#utility.yul\":5062:5155   */\n      tag_181\n        /* \"#utility.yul\":5151:5154   */\n      dup3\n        /* \"#utility.yul\":5062:5155   */\n      tag_114\n      jump\t// in\n    tag_181:\n        /* \"#utility.yul\":5180:5182   */\n      0x20\n        /* \"#utility.yul\":5175:5178   */\n      dup3\n        /* \"#utility.yul\":5171:5183   */\n      add\n        /* \"#utility.yul\":5164:5183   */\n      swap1\n      pop\n        /* \"#utility.yul\":4823:5189   */\n      swap2\n      swap1\n      pop\n      jump\t// out\n        /* \"#utility.yul\":5195:5614   */\n    tag_61:\n        /* \"#utility.yul\":5361:5365   */\n      0x00\n        /* \"#utility.yul\":5399:5401   */\n      0x20\n        /* \"#utility.yul\":5388:5397   */\n      dup3\n        /* \"#utility.yul\":5384:5402   */\n      add\n        /* \"#utility.yul\":5376:5402   */\n      swap1\n      pop\n        /* \"#utility.yul\":5448:5457   */\n      dup2\n        /* \"#utility.yul\":5442:5446   */\n      dup2\n        /* \"#utility.yul\":5438:5458   */\n      sub\n        /* \"#utility.yul\":5434:5435   */\n      0x00\n        /* \"#utility.yul\":5423:5432   */\n      dup4\n        /* \"#utility.yul\":5419:5436   */\n      add\n        /* \"#utility.yul\":5412:5459   */\n      mstore\n        /* \"#utility.yul\":5476:5607   */\n      tag_183\n        /* \"#utility.yul\":5602:5606   */\n      dup2\n        /* \"#utility.yul\":5476:5607   */\n      tag_115\n      jump\t// in\n    tag_183:\n        /* \"#utility.yul\":5468:5607   */\n      swap1\n      pop\n        /* \"#utility.yul\":5195:5614   */\n      swap2\n      swap1\n      pop\n      jump\t// out\n        /* \"#utility.yul\":5620:5800   */\n    tag_68:\n        /* \"#utility.yul\":5668:5745   */\n      0x4e487b7100000000000000000000000000000000000000000000000000000000\n        /* \"#utility.yul\":5665:5666   */\n      0x00\n        /* \"#utility.yul\":5658:5746   */\n      mstore\n        /* \"#utility.yul\":5765:5769   */\n      0x32\n        /* \"#utility.yul\":5762:5763   */\n      0x04\n        /* \"#utility.yul\":5755:5770   */\n      mstore\n        /* \"#utility.yul\":5789:5793   */\n      0x24\n        /* \"#utility.yul\":5786:5787   */\n      0x00\n        /* \"#utility.yul\":5779:5794   */\n      revert\n        /* \"#utility.yul\":5806:6038   */\n    tag_116:\n        /* \"#utility.yul\":5946:5980   */\n      0x526f6c654163636573733a2063616e6e6f74206772616e7420726f6c6520746f\n        /* \"#utility.yul\":5942:5943   */\n      0x00\n        /* \"#utility.yul\":5934:5940   */\n      dup3\n        /* \"#utility.yul\":5930:5944   */\n      add\n        /* \"#utility.yul\":5923:5981   */\n      mstore\n        /* \"#utility.yul\":6015:6030   */\n      0x207a65726f206164647265737300000000000000000000000000000000000000\n        /* \"#utility.yul\":6010:6012   */\n      0x20\n        /* \"#utility.yul\":6002:6008   */\n      dup3\n        /* \"#utility.yul\":5998:6013   */\n      add\n        /* \"#utility.yul\":5991:6031   */\n      mstore\n        /* \"#utility.yul\":5806:6038   */\n      pop\n      jump\t// out\n        /* \"#utility.yul\":6044:6410   */\n    tag_117:\n        /* \"#utility.yul\":6186:6189   */\n      0x00\n        /* \"#utility.yul\":6207:6274   */\n      tag_187\n        /* \"#utility.yul\":6271:6273   */\n      0x2d\n        /* \"#utility.yul\":6266:6269   */\n      dup4\n        /* \"#utility.yul\":6207:6274   */\n      tag_113\n      jump\t// in\n    tag_187:\n        /* \"#utility.yul\":6200:6274   */\n      swap2\n      pop\n        /* \"#utility.yul\":6283:6376   */\n      tag_188\n        /* \"#utility.yul\":6372:6375   */\n      dup3\n        /* \"#utility.yul\":6283:6376   */\n      tag_116\n      jump\t// in\n    tag_188:\n        /* \"#utility.yul\":6401:6403   */\n      0x40\n        /* \"#utility.yul\":6396:6399   */\n      dup3\n        /* \"#utility.yul\":6392:6404   */\n      add\n        /* \"#utility.yul\":6385:6404   */\n      swap1\n      pop\n        /* \"#utility.yul\":6044:6410   */\n      swap2\n      swap1\n      pop\n      jump\t// out\n        /* \"#utility.yul\":6416:6835   */\n    tag_80:\n        /* \"#utility.yul\":6582:6586   */\n      0x00\n        /* \"#utility.yul\":6620:6622   */\n      0x20\n        /* \"#utility.yul\":6609:6618   */\n      dup3\n        /* \"#utility.yul\":6605:6623   */\n      add\n        /* \"#utility.yul\":6597:6623   */\n      swap1\n      pop\n        /* \"#utility.yul\":6669:6678   */\n      dup2\n        /* \"#utility.yul\":6663:6667   */\n      dup2\n        /* \"#utility.yul\":6659:6679   */\n      sub\n        /* \"#utility.yul\":6655:6656   */\n      0x00\n        /* \"#utility.yul\":6644:6653   */\n      dup4\n        /* \"#utility.yul\":6640:6657   */\n      add\n        /* \"#utility.yul\":6633:6680   */\n      mstore\n        /* \"#utility.yul\":6697:6828   */\n      tag_190\n        /* \"#utility.yul\":6823:6827   */\n      dup2\n        /* \"#utility.yul\":6697:6828   */\n      tag_117\n      jump\t// in\n    tag_190:\n        /* \"#utility.yul\":6689:6828   */\n      swap1\n      pop\n        /* \"#utility.yul\":6416:6835   */\n      swap2\n      swap1\n      pop\n      jump\t// out\n        /* \"#utility.yul\":6841:7069   */\n    tag_118:\n        /* \"#utility.yul\":6981:7015   */\n      0x526f6c654163636573733a206163636f756e7420616c72656164792068617320\n        /* \"#utility.yul\":6977:6978   */\n      0x00\n        /* \"#utility.yul\":6969:6975   */\n      dup3\n        /* \"#utility.yul\":6965:6979   */\n      add\n        /* \"#utility.yul\":6958:7016   */\n      mstore\n        /* \"#utility.yul\":7050:7061   */\n      0x7468697320726f6c650000000000000000000000000000000000000000000000\n        /* \"#utility.yul\":7045:7047   */\n      0x20\n        /* \"#utility.yul\":7037:7043   */\n      dup3\n        /* \"#utility.yul\":7033:7048   */\n      add\n        /* \"#utility.yul\":7026:7062   */\n      mstore\n        /* \"#utility.yul\":6841:7069   */\n      pop\n      jump\t// out\n        /* \"#utility.yul\":7075:7441   */\n    tag_119:\n        /* \"#utility.yul\":7217:7220   */\n      0x00\n        /* \"#utility.yul\":7238:7305   */\n      tag_193\n        /* \"#utility.yul\":7302:7304   */\n      0x29\n        /* \"#utility.yul\":7297:7300   */\n      dup4\n        /* \"#utility.yul\":7238:7305   */\n      tag_113\n      jump\t// in\n    tag_193:\n        /* \"#utility.yul\":7231:7305   */\n      swap2\n      pop\n        /* \"#utility.yul\":7314:7407   */\n      tag_194\n        /* \"#utility.yul\":7403:7406   */\n      dup3\n        /* \"#utility.yul\":7314:7407   */\n      tag_118\n      jump\t// in\n    tag_194:\n        /* \"#utility.yul\":7432:7434   */\n      0x40\n        /* \"#utility.yul\":7427:7430   */\n      dup3\n        /* \"#utility.yul\":7423:7435   */\n      add\n        /* \"#utility.yul\":7416:7435   */\n      swap1\n      pop\n        /* \"#utility.yul\":7075:7441   */\n      swap2\n      swap1\n      pop\n      jump\t// out\n        /* \"#utility.yul\":7447:7866   */\n    tag_83:\n        /* \"#utility.yul\":7613:7617   */\n      0x00\n        /* \"#utility.yul\":7651:7653   */\n      0x20\n        /* \"#utility.yul\":7640:7649   */\n      dup3\n        /* \"#utility.yul\":7636:7654   */\n      add\n        /* \"#utility.yul\":7628:7654   */\n      swap1\n      pop\n        /* \"#utility.yul\":7700:7709   */\n      dup2\n        /* \"#utility.yul\":7694:7698   */\n      dup2\n        /* \"#utility.yul\":7690:7710   */\n      sub\n        /* \"#utility.yul\":7686:7687   */\n      0x00\n        /* \"#utility.yul\":7675:7684   */\n      dup4\n        /* \"#utility.yul\":7671:7688   */\n      add\n        /* \"#utility.yul\":7664:7711   */\n      mstore\n        /* \"#utility.yul\":7728:7859   */\n      tag_196\n        /* \"#utility.yul\":7854:7858   */\n      dup2\n        /* \"#utility.yul\":7728:7859   */\n      tag_119\n      jump\t// in\n    tag_196:\n        /* \"#utility.yul\":7720:7859   */\n      swap1\n      pop\n        /* \"#utility.yul\":7447:7866   */\n      swap2\n      swap1\n      pop\n      jump\t// out\n        /* \"#utility.yul\":7872:8101   */\n    tag_120:\n        /* \"#utility.yul\":8012:8046   */\n      0x526f6c654163636573733a2063616c6c657220646f6573206e6f742068617665\n        /* \"#utility.yul\":8008:8009   */\n      0x00\n        /* \"#utility.yul\":8000:8006   */\n      dup3\n        /* \"#utility.yul\":7996:8010   */\n      add\n        /* \"#utility.yul\":7989:8047   */\n      mstore\n        /* \"#utility.yul\":8081:8093   */\n      0x207468697320726f6c6500000000000000000000000000000000000000000000\n        /* \"#utility.yul\":8076:8078   */\n      0x20\n        /* \"#utility.yul\":8068:8074   */\n      dup3\n        /* \"#utility.yul\":8064:8079   */\n      add\n        /* \"#utility.yul\":8057:8094   */\n      mstore\n        /* \"#utility.yul\":7872:8101   */\n      pop\n      jump\t// out\n        /* \"#utility.yul\":8107:8473   */\n    tag_121:\n        /* \"#utility.yul\":8249:8252   */\n      0x00\n        /* \"#utility.yul\":8270:8337   */\n      tag_199\n        /* \"#utility.yul\":8334:8336   */\n      0x2a\n        /* \"#utility.yul\":8329:8332   */\n      dup4\n        /* \"#utility.yul\":8270:8337   */\n      tag_113\n      jump\t// in\n    tag_199:\n        /* \"#utility.yul\":8263:8337   */\n      swap2\n      pop\n        /* \"#utility.yul\":8346:8439   */\n      tag_200\n        /* \"#utility.yul\":8435:8438   */\n      dup3\n        /* \"#utility.yul\":8346:8439   */\n      tag_120\n      jump\t// in\n    tag_200:\n        /* \"#utility.yul\":8464:8466   */\n      0x40\n        /* \"#utility.yul\":8459:8462   */\n      dup3\n        /* \"#utility.yul\":8455:8467   */\n      add\n        /* \"#utility.yul\":8448:8467   */\n      swap1\n      pop\n        /* \"#utility.yul\":8107:8473   */\n      swap2\n      swap1\n      pop\n      jump\t// out\n        /* \"#utility.yul\":8479:8898   */\n    tag_87:\n        /* \"#utility.yul\":8645:8649   */\n      0x00\n        /* \"#utility.yul\":8683:8685   */\n      0x20\n        /* \"#utility.yul\":8672:8681   */\n      dup3\n        /* \"#utility.yul\":8668:8686   */\n      add\n        /* \"#utility.yul\":8660:8686   */\n      swap1\n      pop\n        /* \"#utility.yul\":8732:8741   */\n      dup2\n        /* \"#utility.yul\":8726:8730   */\n      dup2\n        /* \"#utility.yul\":8722:8742   */\n      sub\n        /* \"#utility.yul\":8718:8719   */\n      0x00\n        /* \"#utility.yul\":8707:8716   */\n      dup4\n        /* \"#utility.yul\":8703:8720   */\n      add\n        /* \"#utility.yul\":8696:8743   */\n      mstore\n        /* \"#utility.yul\":8760:8891   */\n      tag_202\n        /* \"#utility.yul\":8886:8890   */\n      dup2\n        /* \"#utility.yul\":8760:8891   */\n      tag_121\n      jump\t// in\n    tag_202:\n        /* \"#utility.yul\":8752:8891   */\n      swap1\n      pop\n        /* \"#utility.yul\":8479:8898   */\n      swap2\n      swap1\n      pop\n      jump\t// out\n        /* \"#utility.yul\":8904:9134   */\n    tag_122:\n        /* \"#utility.yul\":9044:9078   */\n      0x526f6c654163636573733a206163636f756e7420646f6573206e6f7420686176\n        /* \"#utility.yul\":9040:9041   */\n      0x00\n        /* \"#utility.yul\":9032:9038   */\n      dup3\n        /* \"#utility.yul\":9028:9042   */\n      add\n        /* \"#utility.yul\":9021:9079   */\n      mstore\n        /* \"#utility.yul\":9113:9126   */\n      0x65207468697320726f6c65000000000000000000000000000000000000000000\n        /* \"#utility.yul\":9108:9110   */\n      0x20\n        /* \"#utility.yul\":9100:9106   */\n      dup3\n        /* \"#utility.yul\":9096:9111   */\n      add\n        /* \"#utility.yul\":9089:9127   */\n      mstore\n        /* \"#utility.yul\":8904:9134   */\n      pop\n      jump\t// out\n        /* \"#utility.yul\":9140:9506   */\n    tag_123:\n        /* \"#utility.yul\":9282:9285   */\n      0x00\n        /* \"#utility.yul\":9303:9370   */\n      tag_205\n        /* \"#utility.yul\":9367:9369   */\n      0x2b\n        /* \"#utility.yul\":9362:9365   */\n      dup4\n        /* \"#utility.yul\":9303:9370   */\n      tag_113\n      jump\t// in\n    tag_205:\n        /* \"#utility.yul\":9296:9370   */\n      swap2\n      pop\n        /* \"#utility.yul\":9379:9472   */\n      tag_206\n        /* \"#utility.yul\":9468:9471   */\n      dup3\n        /* \"#utility.yul\":9379:9472   */\n      tag_122\n      jump\t// in\n    tag_206:\n        /* \"#utility.yul\":9497:9499   */\n      0x40\n        /* \"#utility.yul\":9492:9495   */\n      dup3\n        /* \"#utility.yul\":9488:9500   */\n      add\n        /* \"#utility.yul\":9481:9500   */\n      swap1\n      pop\n        /* \"#utility.yul\":9140:9506   */\n      swap2\n      swap1\n      pop\n      jump\t// out\n        /* \"#utility.yul\":9512:9931   */\n    tag_95:\n        /* \"#utility.yul\":9678:9682   */\n      0x00\n        /* \"#utility.yul\":9716:9718   */\n      0x20\n        /* \"#utility.yul\":9705:9714   */\n      dup3\n        /* \"#utility.yul\":9701:9719   */\n      add\n        /* \"#utility.yul\":9693:9719   */\n      swap1\n      pop\n        /* \"#utility.yul\":9765:9774   */\n      dup2\n        /* \"#utility.yul\":9759:9763   */\n      dup2\n        /* \"#utility.yul\":9755:9775   */\n      sub\n        /* \"#utility.yul\":9751:9752   */\n      0x00\n        /* \"#utility.yul\":9740:9749   */\n      dup4\n        /* \"#utility.yul\":9736:9753   */\n      add\n        /* \"#utility.yul\":9729:9776   */\n      mstore\n        /* \"#utility.yul\":9793:9924   */\n      tag_208\n        /* \"#utility.yul\":9919:9923   */\n      dup2\n        /* \"#utility.yul\":9793:9924   */\n      tag_123\n      jump\t// in\n    tag_208:\n        /* \"#utility.yul\":9785:9924   */\n      swap1\n      pop\n        /* \"#utility.yul\":9512:9931   */\n      swap2\n      swap1\n      pop\n      jump\t// out\n\n    auxdata: 0xa26469706673582212200b40f5c3acefe4198e78b03cc63a68b90df55efb4257cb2df16c7cb01d03c46664736f6c634300081f0033\n}\n",
				"bytecode": {
					"linkReferences": {},
					"object": "608060405234801561000f575f5ffd5b5060015f5f7f1effbbff9c66c5e59634f24fe842750c60d18891155c32dd155fc2d661a4c86d81526020019081526020015f205f3373ffffffffffffffffffffffffffffffffffffffff1673ffffffffffffffffffffffffffffffffffffffff1681526020019081526020015f205f6101000a81548160ff0219169083151502179055503373ffffffffffffffffffffffffffffffffffffffff163373ffffffffffffffffffffffffffffffffffffffff167f1effbbff9c66c5e59634f24fe842750c60d18891155c32dd155fc2d661a4c86d7f2f8788117e7eff1d82e926ec794901d17c78024a50270940304540a733656f0d60405160405180910390a46110d48061011b5f395ff3fe608060405234801561000f575f5ffd5b50600436106100b2575f3560e01c80637bf0fbde1161006f5780637bf0fbde146101665780638bb9c5bf1461018457806391d14854146101a0578063a217fddf146101d0578063d11a57ec146101ee578063d547741f1461020c576100b2565b806318989def146100b65780632f2ff15d146100d25780633b129a56146100ee5780634245962b1461010c57806342f1e8791461012a5780636e1d616e14610148575b5f5ffd5b6100d060048036038101906100cb9190610c6d565b610228565b005b6100ec60048036038101906100e79190610cfd565b610468565b005b6100f66106e7565b6040516101039190610d4a565b60405180910390f35b61011461070b565b6040516101219190610d4a565b60405180910390f35b61013261072f565b60405161013f9190610d4a565b60405180910390f35b610150610753565b60405161015d9190610d4a565b60405180910390f35b61016e610777565b60405161017b9190610d4a565b60405180910390f35b61019e60048036038101906101999190610d63565b61079b565b005b6101ba60048036038101906101b59190610cfd565b6108f2565b6040516101c79190610da8565b60405180910390f35b6101d8610953565b6040516101e59190610d4a565b60405180910390f35b6101f6610977565b6040516102039190610d4a565b60405180910390f35b61022660048036038101906102219190610cfd565b61099b565b005b5f5f7f1effbbff9c66c5e59634f24fe842750c60d18891155c32dd155fc2d661a4c86d81526020019081526020015f205f3373ffffffffffffffffffffffffffffffffffffffff1673ffffffffffffffffffffffffffffffffffffffff1681526020019081526020015f205f9054906101000a900460ff166102df576040517f08c379a00000000000000000000000000000000000000000000000000000000081526004016102d690610e1b565b60405180910390fd5b5f5f90505b83839050811015610462575f5f85858481811061030457610303610e39565b5b9050602002013581526020019081526020015f205f8373ffffffffffffffffffffffffffffffffffffffff1673ffffffffffffffffffffffffffffffffffffffff1681526020019081526020015f205f9054906101000a900460ff166104555760015f5f86868581811061037b5761037a610e39565b5b9050602002013581526020019081526020015f205f8473ffffffffffffffffffffffffffffffffffffffff1673ffffffffffffffffffffffffffffffffffffffff1681526020019081526020015f205f6101000a81548160ff0219169083151502179055503373ffffffffffffffffffffffffffffffffffffffff168273ffffffffffffffffffffffffffffffffffffffff1685858481811061042157610420610e39565b5b905060200201357f2f8788117e7eff1d82e926ec794901d17c78024a50270940304540a733656f0d60405160405180910390a45b80806001019150506102e4565b50505050565b5f5f7f1effbbff9c66c5e59634f24fe842750c60d18891155c32dd155fc2d661a4c86d81526020019081526020015f205f3373ffffffffffffffffffffffffffffffffffffffff1673ffffffffffffffffffffffffffffffffffffffff1681526020019081526020015f205f9054906101000a900460ff1661051f576040517f08c379a000000000000000000000000000000000000000000000000000000000815260040161051690610e1b565b60405180910390fd5b5f73ffffffffffffffffffffffffffffffffffffffff168173ffffffffffffffffffffffffffffffffffffffff160361058d576040517f08c379a000000000000000000000000000000000000000000000000000000000815260040161058490610ed6565b60405180910390fd5b5f5f8381526020019081526020015f205f8273ffffffffffffffffffffffffffffffffffffffff1673ffffffffffffffffffffffffffffffffffffffff1681526020019081526020015f205f9054906101000a900460ff1615610625576040517f08c379a000000000000000000000000000000000000000000000000000000000815260040161061c90610f64565b60405180910390fd5b60015f5f8481526020019081526020015f205f8373ffffffffffffffffffffffffffffffffffffffff1673ffffffffffffffffffffffffffffffffffffffff1681526020019081526020015f205f6101000a81548160ff0219169083151502179055503373ffffffffffffffffffffffffffffffffffffffff168173ffffffffffffffffffffffffffffffffffffffff16837f2f8788117e7eff1d82e926ec794901d17c78024a50270940304540a733656f0d60405160405180910390a45050565b7fc10c77be35aff266144ed64c26a1fa104bae2f284ae99ac4a34203454704a18581565b7f408a36151f841709116a4e8aca4e0202874f7f54687dcb863b1ea4672dc9d8cf81565b7fc2979137d1774e40fe2638d355bf7a7b092be4c67f242aad1655e1e27f9df9cc81565b7f59a1c48e5837ad7a7f3dcedcbe129bf3249ec4fbf651fd4f5e2600ead39fe2f581565b7f566c814873eed56a69b28c40ab27cc2cb150d74068bae3e884ccd44f8de60f8a81565b5f5f8281526020019081526020015f205f3373ffffffffffffffffffffffffffffffffffffffff1673ffffffffffffffffffffffffffffffffffffffff1681526020019081526020015f205f9054906101000a900460ff16610832576040517f08c379a000000000000000000000000000000000000000000000000000000000815260040161082990610ff2565b60405180910390fd5b5f5f5f8381526020019081526020015f205f3373ffffffffffffffffffffffffffffffffffffffff1673ffffffffffffffffffffffffffffffffffffffff1681526020019081526020015f205f6101000a81548160ff0219169083151502179055503373ffffffffffffffffffffffffffffffffffffffff163373ffffffffffffffffffffffffffffffffffffffff16827ff6391f5c32d9c69d2a47ea670b442974b53935d1edc7fd64eb21e047a839171b60405160405180910390a450565b5f5f5f8481526020019081526020015f205f8373ffffffffffffffffffffffffffffffffffffffff1673ffffffffffffffffffffffffffffffffffffffff1681526020019081526020015f205f9054906101000a900460ff16905092915050565b7f1effbbff9c66c5e59634f24fe842750c60d18891155c32dd155fc2d661a4c86d81565b7fe1dcbdb91df27212a29bc27177c840cf2f819ecf2187432e1fac86c2dd5dfca981565b5f5f7f1effbbff9c66c5e59634f24fe842750c60d18891155c32dd155fc2d661a4c86d81526020019081526020015f205f3373ffffffffffffffffffffffffffffffffffffffff1673ffffffffffffffffffffffffffffffffffffffff1681526020019081526020015f205f9054906101000a900460ff16610a52576040517f08c379a0000000000000000000000000000000000000000000000000000000008152600401610a4990610e1b565b60405180910390fd5b5f5f8381526020019081526020015f205f8273ffffffffffffffffffffffffffffffffffffffff1673ffffffffffffffffffffffffffffffffffffffff1681526020019081526020015f205f9054906101000a900460ff16610ae9576040517f08c379a0000000000000000000000000000000000000000000000000000000008152600401610ae090611080565b60405180910390fd5b5f5f5f8481526020019081526020015f205f8373ffffffffffffffffffffffffffffffffffffffff1673ffffffffffffffffffffffffffffffffffffffff1681526020019081526020015f205f6101000a81548160ff0219169083151502179055503373ffffffffffffffffffffffffffffffffffffffff168173ffffffffffffffffffffffffffffffffffffffff16837ff6391f5c32d9c69d2a47ea670b442974b53935d1edc7fd64eb21e047a839171b60405160405180910390a45050565b5f5ffd5b5f5ffd5b5f5ffd5b5f5ffd5b5f5ffd5b5f5f83601f840112610bd357610bd2610bb2565b5b8235905067ffffffffffffffff811115610bf057610bef610bb6565b5b602083019150836020820283011115610c0c57610c0b610bba565b5b9250929050565b5f73ffffffffffffffffffffffffffffffffffffffff82169050919050565b5f610c3c82610c13565b9050919050565b610c4c81610c32565b8114610c56575f5ffd5b50565b5f81359050610c6781610c43565b92915050565b5f5f5f60408486031215610c8457610c83610baa565b5b5f84013567ffffffffffffffff811115610ca157610ca0610bae565b5b610cad86828701610bbe565b93509350506020610cc086828701610c59565b9150509250925092565b5f819050919050565b610cdc81610cca565b8114610ce6575f5ffd5b50565b5f81359050610cf781610cd3565b92915050565b5f5f60408385031215610d1357610d12610baa565b5b5f610d2085828601610ce9565b9250506020610d3185828601610c59565b9150509250929050565b610d4481610cca565b82525050565b5f602082019050610d5d5f830184610d3b565b92915050565b5f60208284031215610d7857610d77610baa565b5b5f610d8584828501610ce9565b91505092915050565b5f8115159050919050565b610da281610d8e565b82525050565b5f602082019050610dbb5f830184610d99565b92915050565b5f82825260208201905092915050565b7f526f6c654163636573733a2063616c6c6572206973206e6f742061646d696e005f82015250565b5f610e05601f83610dc1565b9150610e1082610dd1565b602082019050919050565b5f6020820190508181035f830152610e3281610df9565b9050919050565b7f4e487b71000000000000000000000000000000000000000000000000000000005f52603260045260245ffd5b7f526f6c654163636573733a2063616e6e6f74206772616e7420726f6c6520746f5f8201527f207a65726f206164647265737300000000000000000000000000000000000000602082015250565b5f610ec0602d83610dc1565b9150610ecb82610e66565b604082019050919050565b5f6020820190508181035f830152610eed81610eb4565b9050919050565b7f526f6c654163636573733a206163636f756e7420616c726561647920686173205f8201527f7468697320726f6c650000000000000000000000000000000000000000000000602082015250565b5f610f4e602983610dc1565b9150610f5982610ef4565b604082019050919050565b5f6020820190508181035f830152610f7b81610f42565b9050919050565b7f526f6c654163636573733a2063616c6c657220646f6573206e6f7420686176655f8201527f207468697320726f6c6500000000000000000000000000000000000000000000602082015250565b5f610fdc602a83610dc1565b9150610fe782610f82565b604082019050919050565b5f6020820190508181035f83015261100981610fd0565b9050919050565b7f526f6c654163636573733a206163636f756e7420646f6573206e6f74206861765f8201527f65207468697320726f6c65000000000000000000000000000000000000000000602082015250565b5f61106a602b83610dc1565b915061107582611010565b604082019050919050565b5f6020820190508181035f8301526110978161105e565b905091905056fea26469706673582212200b40f5c3acefe4198e78b03cc63a68b90df55efb4257cb2df16c7cb01d03c46664736f6c634300081f0033",
					"opcodes": "PUSH1 0x80 PUSH1 0x40 MSTORE CALLVALUE DUP1 ISZERO PUSH2 0xF JUMPI PUSH0 PUSH0 REVERT JUMPDEST POP PUSH1 0x1 PUSH0 PUSH0 PUSH32 0x1EFFBBFF9C66C5E59634F24FE842750C60D18891155C32DD155FC2D661A4C86D DUP2 MSTORE PUSH1 0x20 ADD SWAP1 DUP2 MSTORE PUSH1 0x20 ADD PUSH0 KECCAK256 PUSH0 CALLER PUSH20 0xFFFFFFFFFFFFFFFFFFFFFFFFFFFFFFFFFFFFFFFF AND PUSH20 0xFFFFFFFFFFFFFFFFFFFFFFFFFFFFFFFFFFFFFFFF AND DUP2 MSTORE PUSH1 0x20 ADD SWAP1 DUP2 MSTORE PUSH1 0x20 ADD PUSH0 KECCAK256 PUSH0 PUSH2 0x100 EXP DUP2 SLOAD DUP2 PUSH1 0xFF MUL NOT AND SWAP1 DUP4 ISZERO ISZERO MUL OR SWAP1 SSTORE POP CALLER PUSH20 0xFFFFFFFFFFFFFFFFFFFFFFFFFFFFFFFFFFFFFFFF AND CALLER PUSH20 0xFFFFFFFFFFFFFFFFFFFFFFFFFFFFFFFFFFFFFFFF AND PUSH32 0x1EFFBBFF9C66C5E59634F24FE842750C60D18891155C32DD155FC2D661A4C86D PUSH32 0x2F8788117E7EFF1D82E926EC794901D17C78024A50270940304540A733656F0D PUSH1 0x40 MLOAD PUSH1 0x40 MLOAD DUP1 SWAP2 SUB SWAP1 LOG4 PUSH2 0x10D4 DUP1 PUSH2 0x11B PUSH0 CODECOPY PUSH0 RETURN INVALID PUSH1 0x80 PUSH1 0x40 MSTORE CALLVALUE DUP1 ISZERO PUSH2 0xF JUMPI PUSH0 PUSH0 REVERT JUMPDEST POP PUSH1 0x4 CALLDATASIZE LT PUSH2 0xB2 JUMPI PUSH0 CALLDATALOAD PUSH1 0xE0 SHR DUP1 PUSH4 0x7BF0FBDE GT PUSH2 0x6F JUMPI DUP1 PUSH4 0x7BF0FBDE EQ PUSH2 0x166 JUMPI DUP1 PUSH4 0x8BB9C5BF EQ PUSH2 0x184 JUMPI DUP1 PUSH4 0x91D14854 EQ PUSH2 0x1A0 JUMPI DUP1 PUSH4 0xA217FDDF EQ PUSH2 0x1D0 JUMPI DUP1 PUSH4 0xD11A57EC EQ PUSH2 0x1EE JUMPI DUP1 PUSH4 0xD547741F EQ PUSH2 0x20C JUMPI PUSH2 0xB2 JUMP JUMPDEST DUP1 PUSH4 0x18989DEF EQ PUSH2 0xB6 JUMPI DUP1 PUSH4 0x2F2FF15D EQ PUSH2 0xD2 JUMPI DUP1 PUSH4 0x3B129A56 EQ PUSH2 0xEE JUMPI DUP1 PUSH4 0x4245962B EQ PUSH2 0x10C JUMPI DUP1 PUSH4 0x42F1E879 EQ PUSH2 0x12A JUMPI DUP1 PUSH4 0x6E1D616E EQ PUSH2 0x148 JUMPI JUMPDEST PUSH0 PUSH0 REVERT JUMPDEST PUSH2 0xD0 PUSH1 0x4 DUP1 CALLDATASIZE SUB DUP2 ADD SWAP1 PUSH2 0xCB SWAP2 SWAP1 PUSH2 0xC6D JUMP JUMPDEST PUSH2 0x228 JUMP JUMPDEST STOP JUMPDEST PUSH2 0xEC PUSH1 0x4 DUP1 CALLDATASIZE SUB DUP2 ADD SWAP1 PUSH2 0xE7 SWAP2 SWAP1 PUSH2 0xCFD JUMP JUMPDEST PUSH2 0x468 JUMP JUMPDEST STOP JUMPDEST PUSH2 0xF6 PUSH2 0x6E7 JUMP JUMPDEST PUSH1 0x40 MLOAD PUSH2 0x103 SWAP2 SWAP1 PUSH2 0xD4A JUMP JUMPDEST PUSH1 0x40 MLOAD DUP1 SWAP2 SUB SWAP1 RETURN JUMPDEST PUSH2 0x114 PUSH2 0x70B JUMP JUMPDEST PUSH1 0x40 MLOAD PUSH2 0x121 SWAP2 SWAP1 PUSH2 0xD4A JUMP JUMPDEST PUSH1 0x40 MLOAD DUP1 SWAP2 SUB SWAP1 RETURN JUMPDEST PUSH2 0x132 PUSH2 0x72F JUMP JUMPDEST PUSH1 0x40 MLOAD PUSH2 0x13F SWAP2 SWAP1 PUSH2 0xD4A JUMP JUMPDEST PUSH1 0x40 MLOAD DUP1 SWAP2 SUB SWAP1 RETURN JUMPDEST PUSH2 0x150 PUSH2 0x753 JUMP JUMPDEST PUSH1 0x40 MLOAD PUSH2 0x15D SWAP2 SWAP1 PUSH2 0xD4A JUMP JUMPDEST PUSH1 0x40 MLOAD DUP1 SWAP2 SUB SWAP1 RETURN JUMPDEST PUSH2 0x16E PUSH2 0x777 JUMP JUMPDEST PUSH1 0x40 MLOAD PUSH2 0x17B SWAP2 SWAP1 PUSH2 0xD4A JUMP JUMPDEST PUSH1 0x40 MLOAD DUP1 SWAP2 SUB SWAP1 RETURN JUMPDEST PUSH2 0x19E PUSH1 0x4 DUP1 CALLDATASIZE SUB DUP2 ADD SWAP1 PUSH2 0x199 SWAP2 SWAP1 PUSH2 0xD63 JUMP JUMPDEST PUSH2 0x79B JUMP JUMPDEST STOP JUMPDEST PUSH2 0x1BA PUSH1 0x4 DUP1 CALLDATASIZE SUB DUP2 ADD SWAP1 PUSH2 0x1B5 SWAP2 SWAP1 PUSH2 0xCFD JUMP JUMPDEST PUSH2 0x8F2 JUMP JUMPDEST PUSH1 0x40 MLOAD PUSH2 0x1C7 SWAP2 SWAP1 PUSH2 0xDA8 JUMP JUMPDEST PUSH1 0x40 MLOAD DUP1 SWAP2 SUB SWAP1 RETURN JUMPDEST PUSH2 0x1D8 PUSH2 0x953 JUMP JUMPDEST PUSH1 0x40 MLOAD PUSH2 0x1E5 SWAP2 SWAP1 PUSH2 0xD4A JUMP JUMPDEST PUSH1 0x40 MLOAD DUP1 SWAP2 SUB SWAP1 RETURN JUMPDEST PUSH2 0x1F6 PUSH2 0x977 JUMP JUMPDEST PUSH1 0x40 MLOAD PUSH2 0x203 SWAP2 SWAP1 PUSH2 0xD4A JUMP JUMPDEST PUSH1 0x40 MLOAD DUP1 SWAP2 SUB SWAP1 RETURN JUMPDEST PUSH2 0x226 PUSH1 0x4 DUP1 CALLDATASIZE SUB DUP2 ADD SWAP1 PUSH2 0x221 SWAP2 SWAP1 PUSH2 0xCFD JUMP JUMPDEST PUSH2 0x99B JUMP JUMPDEST STOP JUMPDEST PUSH0 PUSH0 PUSH32 0x1EFFBBFF9C66C5E59634F24FE842750C60D18891155C32DD155FC2D661A4C86D DUP2 MSTORE PUSH1 0x20 ADD SWAP1 DUP2 MSTORE PUSH1 0x20 ADD PUSH0 KECCAK256 PUSH0 CALLER PUSH20 0xFFFFFFFFFFFFFFFFFFFFFFFFFFFFFFFFFFFFFFFF AND PUSH20 0xFFFFFFFFFFFFFFFFFFFFFFFFFFFFFFFFFFFFFFFF AND DUP2 MSTORE PUSH1 0x20 ADD SWAP1 DUP2 MSTORE PUSH1 0x20 ADD PUSH0 KECCAK256 PUSH0 SWAP1 SLOAD SWAP1 PUSH2 0x100 EXP SWAP1 DIV PUSH1 0xFF AND PUSH2 0x2DF JUMPI PUSH1 0x40 MLOAD PUSH32 0x8C379A000000000000000000000000000000000000000000000000000000000 DUP2 MSTORE PUSH1 0x4 ADD PUSH2 0x2D6 SWAP1 PUSH2 0xE1B JUMP JUMPDEST PUSH1 0x40 MLOAD DUP1 SWAP2 SUB SWAP1 REVERT JUMPDEST PUSH0 PUSH0 SWAP1 POP JUMPDEST DUP4 DUP4 SWAP1 POP DUP2 LT ISZERO PUSH2 0x462 JUMPI PUSH0 PUSH0 DUP6 DUP6 DUP5 DUP2 DUP2 LT PUSH2 0x304 JUMPI PUSH2 0x303 PUSH2 0xE39 JUMP JUMPDEST JUMPDEST SWAP1 POP PUSH1 0x20 MUL ADD CALLDATALOAD DUP2 MSTORE PUSH1 0x20 ADD SWAP1 DUP2 MSTORE PUSH1 0x20 ADD PUSH0 KECCAK256 PUSH0 DUP4 PUSH20 0xFFFFFFFFFFFFFFFFFFFFFFFFFFFFFFFFFFFFFFFF AND PUSH20 0xFFFFFFFFFFFFFFFFFFFFFFFFFFFFFFFFFFFFFFFF AND DUP2 MSTORE PUSH1 0x20 ADD SWAP1 DUP2 MSTORE PUSH1 0x20 ADD PUSH0 KECCAK256 PUSH0 SWAP1 SLOAD SWAP1 PUSH2 0x100 EXP SWAP1 DIV PUSH1 0xFF AND PUSH2 0x455 JUMPI PUSH1 0x1 PUSH0 PUSH0 DUP7 DUP7 DUP6 DUP2 DUP2 LT PUSH2 0x37B JUMPI PUSH2 0x37A PUSH2 0xE39 JUMP JUMPDEST JUMPDEST SWAP1 POP PUSH1 0x20 MUL ADD CALLDATALOAD DUP2 MSTORE PUSH1 0x20 ADD SWAP1 DUP2 MSTORE PUSH1 0x20 ADD PUSH0 KECCAK256 PUSH0 DUP5 PUSH20 0xFFFFFFFFFFFFFFFFFFFFFFFFFFFFFFFFFFFFFFFF AND PUSH20 0xFFFFFFFFFFFFFFFFFFFFFFFFFFFFFFFFFFFFFFFF AND DUP2 MSTORE PUSH1 0x20 ADD SWAP1 DUP2 MSTORE PUSH1 0x20 ADD PUSH0 KECCAK256 PUSH0 PUSH2 0x100 EXP DUP2 SLOAD DUP2 PUSH1 0xFF MUL NOT AND SWAP1 DUP4 ISZERO ISZERO MUL OR SWAP1 SSTORE POP CALLER PUSH20 0xFFFFFFFFFFFFFFFFFFFFFFFFFFFFFFFFFFFFFFFF AND DUP3 PUSH20 0xFFFFFFFFFFFFFFFFFFFFFFFFFFFFFFFFFFFFFFFF AND DUP6 DUP6 DUP5 DUP2 DUP2 LT PUSH2 0x421 JUMPI PUSH2 0x420 PUSH2 0xE39 JUMP JUMPDEST JUMPDEST SWAP1 POP PUSH1 0x20 MUL ADD CALLDATALOAD PUSH32 0x2F8788117E7EFF1D82E926EC794901D17C78024A50270940304540A733656F0D PUSH1 0x40 MLOAD PUSH1 0x40 MLOAD DUP1 SWAP2 SUB SWAP1 LOG4 JUMPDEST DUP1 DUP1 PUSH1 0x1 ADD SWAP2 POP POP PUSH2 0x2E4 JUMP JUMPDEST POP POP POP POP JUMP JUMPDEST PUSH0 PUSH0 PUSH32 0x1EFFBBFF9C66C5E59634F24FE842750C60D18891155C32DD155FC2D661A4C86D DUP2 MSTORE PUSH1 0x20 ADD SWAP1 DUP2 MSTORE PUSH1 0x20 ADD PUSH0 KECCAK256 PUSH0 CALLER PUSH20 0xFFFFFFFFFFFFFFFFFFFFFFFFFFFFFFFFFFFFFFFF AND PUSH20 0xFFFFFFFFFFFFFFFFFFFFFFFFFFFFFFFFFFFFFFFF AND DUP2 MSTORE PUSH1 0x20 ADD SWAP1 DUP2 MSTORE PUSH1 0x20 ADD PUSH0 KECCAK256 PUSH0 SWAP1 SLOAD SWAP1 PUSH2 0x100 EXP SWAP1 DIV PUSH1 0xFF AND PUSH2 0x51F JUMPI PUSH1 0x40 MLOAD PUSH32 0x8C379A000000000000000000000000000000000000000000000000000000000 DUP2 MSTORE PUSH1 0x4 ADD PUSH2 0x516 SWAP1 PUSH2 0xE1B JUMP JUMPDEST PUSH1 0x40 MLOAD DUP1 SWAP2 SUB SWAP1 REVERT JUMPDEST PUSH0 PUSH20 0xFFFFFFFFFFFFFFFFFFFFFFFFFFFFFFFFFFFFFFFF AND DUP2 PUSH20 0xFFFFFFFFFFFFFFFFFFFFFFFFFFFFFFFFFFFFFFFF AND SUB PUSH2 0x58D JUMPI PUSH1 0x40 MLOAD PUSH32 0x8C379A000000000000000000000000000000000000000000000000000000000 DUP2 MSTORE PUSH1 0x4 ADD PUSH2 0x584 SWAP1 PUSH2 0xED6 JUMP JUMPDEST PUSH1 0x40 MLOAD DUP1 SWAP2 SUB SWAP1 REVERT JUMPDEST PUSH0 PUSH0 DUP4 DUP2 MSTORE PUSH1 0x20 ADD SWAP1 DUP2 MSTORE PUSH1 0x20 ADD PUSH0 KECCAK256 PUSH0 DUP3 PUSH20 0xFFFFFFFFFFFFFFFFFFFFFFFFFFFFFFFFFFFFFFFF AND PUSH20 0xFFFFFFFFFFFFFFFFFFFFFFFFFFFFFFFFFFFFFFFF AND DUP2 MSTORE PUSH1 0x20 ADD SWAP1 DUP2 MSTORE PUSH1 0x20 ADD PUSH0 KECCAK256 PUSH0 SWAP1 SLOAD SWAP1 PUSH2 0x100 EXP SWAP1 DIV PUSH1 0xFF AND ISZERO PUSH2 0x625 JUMPI PUSH1 0x40 MLOAD PUSH32 0x8C379A000000000000000000000000000000000000000000000000000000000 DUP2 MSTORE PUSH1 0x4 ADD PUSH2 0x61C SWAP1 PUSH2 0xF64 JUMP JUMPDEST PUSH1 0x40 MLOAD DUP1 SWAP2 SUB SWAP1 REVERT JUMPDEST PUSH1 0x1 PUSH0 PUSH0 DUP5 DUP2 MSTORE PUSH1 0x20 ADD SWAP1 DUP2 MSTORE PUSH1 0x20 ADD PUSH0 KECCAK256 PUSH0 DUP4 PUSH20 0xFFFFFFFFFFFFFFFFFFFFFFFFFFFFFFFFFFFFFFFF AND PUSH20 0xFFFFFFFFFFFFFFFFFFFFFFFFFFFFFFFFFFFFFFFF AND DUP2 MSTORE PUSH1 0x20 ADD SWAP1 DUP2 MSTORE PUSH1 0x20 ADD PUSH0 KECCAK256 PUSH0 PUSH2 0x100 EXP DUP2 SLOAD DUP2 PUSH1 0xFF MUL NOT AND SWAP1 DUP4 ISZERO ISZERO MUL OR SWAP1 SSTORE POP CALLER PUSH20 0xFFFFFFFFFFFFFFFFFFFFFFFFFFFFFFFFFFFFFFFF AND DUP2 PUSH20 0xFFFFFFFFFFFFFFFFFFFFFFFFFFFFFFFFFFFFFFFF AND DUP4 PUSH32 0x2F8788117E7EFF1D82E926EC794901D17C78024A50270940304540A733656F0D PUSH1 0x40 MLOAD PUSH1 0x40 MLOAD DUP1 SWAP2 SUB SWAP1 LOG4 POP POP JUMP JUMPDEST PUSH32 0xC10C77BE35AFF266144ED64C26A1FA104BAE2F284AE99AC4A34203454704A185 DUP2 JUMP JUMPDEST PUSH32 0x408A36151F841709116A4E8ACA4E0202874F7F54687DCB863B1EA4672DC9D8CF DUP2 JUMP JUMPDEST PUSH32 0xC2979137D1774E40FE2638D355BF7A7B092BE4C67F242AAD1655E1E27F9DF9CC DUP2 JUMP JUMPDEST PUSH32 0x59A1C48E5837AD7A7F3DCEDCBE129BF3249EC4FBF651FD4F5E2600EAD39FE2F5 DUP2 JUMP JUMPDEST PUSH32 0x566C814873EED56A69B28C40AB27CC2CB150D74068BAE3E884CCD44F8DE60F8A DUP2 JUMP JUMPDEST PUSH0 PUSH0 DUP3 DUP2 MSTORE PUSH1 0x20 ADD SWAP1 DUP2 MSTORE PUSH1 0x20 ADD PUSH0 KECCAK256 PUSH0 CALLER PUSH20 0xFFFFFFFFFFFFFFFFFFFFFFFFFFFFFFFFFFFFFFFF AND PUSH20 0xFFFFFFFFFFFFFFFFFFFFFFFFFFFFFFFFFFFFFFFF AND DUP2 MSTORE PUSH1 0x20 ADD SWAP1 DUP2 MSTORE PUSH1 0x20 ADD PUSH0 KECCAK256 PUSH0 SWAP1 SLOAD SWAP1 PUSH2 0x100 EXP SWAP1 DIV PUSH1 0xFF AND PUSH2 0x832 JUMPI PUSH1 0x40 MLOAD PUSH32 0x8C379A000000000000000000000000000000000000000000000000000000000 DUP2 MSTORE PUSH1 0x4 ADD PUSH2 0x829 SWAP1 PUSH2 0xFF2 JUMP JUMPDEST PUSH1 0x40 MLOAD DUP1 SWAP2 SUB SWAP1 REVERT JUMPDEST PUSH0 PUSH0 PUSH0 DUP4 DUP2 MSTORE PUSH1 0x20 ADD SWAP1 DUP2 MSTORE PUSH1 0x20 ADD PUSH0 KECCAK256 PUSH0 CALLER PUSH20 0xFFFFFFFFFFFFFFFFFFFFFFFFFFFFFFFFFFFFFFFF AND PUSH20 0xFFFFFFFFFFFFFFFFFFFFFFFFFFFFFFFFFFFFFFFF AND DUP2 MSTORE PUSH1 0x20 ADD SWAP1 DUP2 MSTORE PUSH1 0x20 ADD PUSH0 KECCAK256 PUSH0 PUSH2 0x100 EXP DUP2 SLOAD DUP2 PUSH1 0xFF MUL NOT AND SWAP1 DUP4 ISZERO ISZERO MUL OR SWAP1 SSTORE POP CALLER PUSH20 0xFFFFFFFFFFFFFFFFFFFFFFFFFFFFFFFFFFFFFFFF AND CALLER PUSH20 0xFFFFFFFFFFFFFFFFFFFFFFFFFFFFFFFFFFFFFFFF AND DUP3 PUSH32 0xF6391F5C32D9C69D2A47EA670B442974B53935D1EDC7FD64EB21E047A839171B PUSH1 0x40 MLOAD PUSH1 0x40 MLOAD DUP1 SWAP2 SUB SWAP1 LOG4 POP JUMP JUMPDEST PUSH0 PUSH0 PUSH0 DUP5 DUP2 MSTORE PUSH1 0x20 ADD SWAP1 DUP2 MSTORE PUSH1 0x20 ADD PUSH0 KECCAK256 PUSH0 DUP4 PUSH20 0xFFFFFFFFFFFFFFFFFFFFFFFFFFFFFFFFFFFFFFFF AND PUSH20 0xFFFFFFFFFFFFFFFFFFFFFFFFFFFFFFFFFFFFFFFF AND DUP2 MSTORE PUSH1 0x20 ADD SWAP1 DUP2 MSTORE PUSH1 0x20 ADD PUSH0 KECCAK256 PUSH0 SWAP1 SLOAD SWAP1 PUSH2 0x100 EXP SWAP1 DIV PUSH1 0xFF AND SWAP1 POP SWAP3 SWAP2 POP POP JUMP JUMPDEST PUSH32 0x1EFFBBFF9C66C5E59634F24FE842750C60D18891155C32DD155FC2D661A4C86D DUP2 JUMP JUMPDEST PUSH32 0xE1DCBDB91DF27212A29BC27177C840CF2F819ECF2187432E1FAC86C2DD5DFCA9 DUP2 JUMP JUMPDEST PUSH0 PUSH0 PUSH32 0x1EFFBBFF9C66C5E59634F24FE842750C60D18891155C32DD155FC2D661A4C86D DUP2 MSTORE PUSH1 0x20 ADD SWAP1 DUP2 MSTORE PUSH1 0x20 ADD PUSH0 KECCAK256 PUSH0 CALLER PUSH20 0xFFFFFFFFFFFFFFFFFFFFFFFFFFFFFFFFFFFFFFFF AND PUSH20 0xFFFFFFFFFFFFFFFFFFFFFFFFFFFFFFFFFFFFFFFF AND DUP2 MSTORE PUSH1 0x20 ADD SWAP1 DUP2 MSTORE PUSH1 0x20 ADD PUSH0 KECCAK256 PUSH0 SWAP1 SLOAD SWAP1 PUSH2 0x100 EXP SWAP1 DIV PUSH1 0xFF AND PUSH2 0xA52 JUMPI PUSH1 0x40 MLOAD PUSH32 0x8C379A000000000000000000000000000000000000000000000000000000000 DUP2 MSTORE PUSH1 0x4 ADD PUSH2 0xA49 SWAP1 PUSH2 0xE1B JUMP JUMPDEST PUSH1 0x40 MLOAD DUP1 SWAP2 SUB SWAP1 REVERT JUMPDEST PUSH0 PUSH0 DUP4 DUP2 MSTORE PUSH1 0x20 ADD SWAP1 DUP2 MSTORE PUSH1 0x20 ADD PUSH0 KECCAK256 PUSH0 DUP3 PUSH20 0xFFFFFFFFFFFFFFFFFFFFFFFFFFFFFFFFFFFFFFFF AND PUSH20 0xFFFFFFFFFFFFFFFFFFFFFFFFFFFFFFFFFFFFFFFF AND DUP2 MSTORE PUSH1 0x20 ADD SWAP1 DUP2 MSTORE PUSH1 0x20 ADD PUSH0 KECCAK256 PUSH0 SWAP1 SLOAD SWAP1 PUSH2 0x100 EXP SWAP1 DIV PUSH1 0xFF AND PUSH2 0xAE9 JUMPI PUSH1 0x40 MLOAD PUSH32 0x8C379A000000000000000000000000000000000000000000000000000000000 DUP2 MSTORE PUSH1 0x4 ADD PUSH2 0xAE0 SWAP1 PUSH2 0x1080 JUMP JUMPDEST PUSH1 0x40 MLOAD DUP1 SWAP2 SUB SWAP1 REVERT JUMPDEST PUSH0 PUSH0 PUSH0 DUP5 DUP2 MSTORE PUSH1 0x20 ADD SWAP1 DUP2 MSTORE PUSH1 0x20 ADD PUSH0 KECCAK256 PUSH0 DUP4 PUSH20 0xFFFFFFFFFFFFFFFFFFFFFFFFFFFFFFFFFFFFFFFF AND PUSH20 0xFFFFFFFFFFFFFFFFFFFFFFFFFFFFFFFFFFFFFFFF AND DUP2 MSTORE PUSH1 0x20 ADD SWAP1 DUP2 MSTORE PUSH1 0x20 ADD PUSH0 KECCAK256 PUSH0 PUSH2 0x100 EXP DUP2 SLOAD DUP2 PUSH1 0xFF MUL NOT AND SWAP1 DUP4 ISZERO ISZERO MUL OR SWAP1 SSTORE POP CALLER PUSH20 0xFFFFFFFFFFFFFFFFFFFFFFFFFFFFFFFFFFFFFFFF AND DUP2 PUSH20 0xFFFFFFFFFFFFFFFFFFFFFFFFFFFFFFFFFFFFFFFF AND DUP4 PUSH32 0xF6391F5C32D9C69D2A47EA670B442974B53935D1EDC7FD64EB21E047A839171B PUSH1 0x40 MLOAD PUSH1 0x40 MLOAD DUP1 SWAP2 SUB SWAP1 LOG4 POP POP JUMP JUMPDEST PUSH0 PUSH0 REVERT JUMPDEST PUSH0 PUSH0 REVERT JUMPDEST PUSH0 PUSH0 REVERT JUMPDEST PUSH0 PUSH0 REVERT JUMPDEST PUSH0 PUSH0 REVERT JUMPDEST PUSH0 PUSH0 DUP4 PUSH1 0x1F DUP5 ADD SLT PUSH2 0xBD3 JUMPI PUSH2 0xBD2 PUSH2 0xBB2 JUMP JUMPDEST JUMPDEST DUP3 CALLDATALOAD SWAP1 POP PUSH8 0xFFFFFFFFFFFFFFFF DUP2 GT ISZERO PUSH2 0xBF0 JUMPI PUSH2 0xBEF PUSH2 0xBB6 JUMP JUMPDEST JUMPDEST PUSH1 0x20 DUP4 ADD SWAP2 POP DUP4 PUSH1 0x20 DUP3 MUL DUP4 ADD GT ISZERO PUSH2 0xC0C JUMPI PUSH2 0xC0B PUSH2 0xBBA JUMP JUMPDEST JUMPDEST SWAP3 POP SWAP3 SWAP1 POP JUMP JUMPDEST PUSH0 PUSH20 0xFFFFFFFFFFFFFFFFFFFFFFFFFFFFFFFFFFFFFFFF DUP3 AND SWAP1 POP SWAP2 SWAP1 POP JUMP JUMPDEST PUSH0 PUSH2 0xC3C DUP3 PUSH2 0xC13 JUMP JUMPDEST SWAP1 POP SWAP2 SWAP1 POP JUMP JUMPDEST PUSH2 0xC4C DUP2 PUSH2 0xC32 JUMP JUMPDEST DUP2 EQ PUSH2 0xC56 JUMPI PUSH0 PUSH0 REVERT JUMPDEST POP JUMP JUMPDEST PUSH0 DUP2 CALLDATALOAD SWAP1 POP PUSH2 0xC67 DUP2 PUSH2 0xC43 JUMP JUMPDEST SWAP3 SWAP2 POP POP JUMP JUMPDEST PUSH0 PUSH0 PUSH0 PUSH1 0x40 DUP5 DUP7 SUB SLT ISZERO PUSH2 0xC84 JUMPI PUSH2 0xC83 PUSH2 0xBAA JUMP JUMPDEST JUMPDEST PUSH0 DUP5 ADD CALLDATALOAD PUSH8 0xFFFFFFFFFFFFFFFF DUP2 GT ISZERO PUSH2 0xCA1 JUMPI PUSH2 0xCA0 PUSH2 0xBAE JUMP JUMPDEST JUMPDEST PUSH2 0xCAD DUP7 DUP3 DUP8 ADD PUSH2 0xBBE JUMP JUMPDEST SWAP4 POP SWAP4 POP POP PUSH1 0x20 PUSH2 0xCC0 DUP7 DUP3 DUP8 ADD PUSH2 0xC59 JUMP JUMPDEST SWAP2 POP POP SWAP3 POP SWAP3 POP SWAP3 JUMP JUMPDEST PUSH0 DUP2 SWAP1 POP SWAP2 SWAP1 POP JUMP JUMPDEST PUSH2 0xCDC DUP2 PUSH2 0xCCA JUMP JUMPDEST DUP2 EQ PUSH2 0xCE6 JUMPI PUSH0 PUSH0 REVERT JUMPDEST POP JUMP JUMPDEST PUSH0 DUP2 CALLDATALOAD SWAP1 POP PUSH2 0xCF7 DUP2 PUSH2 0xCD3 JUMP JUMPDEST SWAP3 SWAP2 POP POP JUMP JUMPDEST PUSH0 PUSH0 PUSH1 0x40 DUP4 DUP6 SUB SLT ISZERO PUSH2 0xD13 JUMPI PUSH2 0xD12 PUSH2 0xBAA JUMP JUMPDEST JUMPDEST PUSH0 PUSH2 0xD20 DUP6 DUP3 DUP7 ADD PUSH2 0xCE9 JUMP JUMPDEST SWAP3 POP POP PUSH1 0x20 PUSH2 0xD31 DUP6 DUP3 DUP7 ADD PUSH2 0xC59 JUMP JUMPDEST SWAP2 POP POP SWAP3 POP SWAP3 SWAP1 POP JUMP JUMPDEST PUSH2 0xD44 DUP2 PUSH2 0xCCA JUMP JUMPDEST DUP3 MSTORE POP POP JUMP JUMPDEST PUSH0 PUSH1 0x20 DUP3 ADD SWAP1 POP PUSH2 0xD5D PUSH0 DUP4 ADD DUP5 PUSH2 0xD3B JUMP JUMPDEST SWAP3 SWAP2 POP POP JUMP JUMPDEST PUSH0 PUSH1 0x20 DUP3 DUP5 SUB SLT ISZERO PUSH2 0xD78 JUMPI PUSH2 0xD77 PUSH2 0xBAA JUMP JUMPDEST JUMPDEST PUSH0 PUSH2 0xD85 DUP5 DUP3 DUP6 ADD PUSH2 0xCE9 JUMP JUMPDEST SWAP2 POP POP SWAP3 SWAP2 POP POP JUMP JUMPDEST PUSH0 DUP2 ISZERO ISZERO SWAP1 POP SWAP2 SWAP1 POP JUMP JUMPDEST PUSH2 0xDA2 DUP2 PUSH2 0xD8E JUMP JUMPDEST DUP3 MSTORE POP POP JUMP JUMPDEST PUSH0 PUSH1 0x20 DUP3 ADD SWAP1 POP PUSH2 0xDBB PUSH0 DUP4 ADD DUP5 PUSH2 0xD99 JUMP JUMPDEST SWAP3 SWAP2 POP POP JUMP JUMPDEST PUSH0 DUP3 DUP3 MSTORE PUSH1 0x20 DUP3 ADD SWAP1 POP SWAP3 SWAP2 POP POP JUMP JUMPDEST PUSH32 0x526F6C654163636573733A2063616C6C6572206973206E6F742061646D696E00 PUSH0 DUP3 ADD MSTORE POP JUMP JUMPDEST PUSH0 PUSH2 0xE05 PUSH1 0x1F DUP4 PUSH2 0xDC1 JUMP JUMPDEST SWAP2 POP PUSH2 0xE10 DUP3 PUSH2 0xDD1 JUMP JUMPDEST PUSH1 0x20 DUP3 ADD SWAP1 POP SWAP2 SWAP1 POP JUMP JUMPDEST PUSH0 PUSH1 0x20 DUP3 ADD SWAP1 POP DUP2 DUP2 SUB PUSH0 DUP4 ADD MSTORE PUSH2 0xE32 DUP2 PUSH2 0xDF9 JUMP JUMPDEST SWAP1 POP SWAP2 SWAP1 POP JUMP JUMPDEST PUSH32 0x4E487B7100000000000000000000000000000000000000000000000000000000 PUSH0 MSTORE PUSH1 0x32 PUSH1 0x4 MSTORE PUSH1 0x24 PUSH0 REVERT JUMPDEST PUSH32 0x526F6C654163636573733A2063616E6E6F74206772616E7420726F6C6520746F PUSH0 DUP3 ADD MSTORE PUSH32 0x207A65726F206164647265737300000000000000000000000000000000000000 PUSH1 0x20 DUP3 ADD MSTORE POP JUMP JUMPDEST PUSH0 PUSH2 0xEC0 PUSH1 0x2D DUP4 PUSH2 0xDC1 JUMP JUMPDEST SWAP2 POP PUSH2 0xECB DUP3 PUSH2 0xE66 JUMP JUMPDEST PUSH1 0x40 DUP3 ADD SWAP1 POP SWAP2 SWAP1 POP JUMP JUMPDEST PUSH0 PUSH1 0x20 DUP3 ADD SWAP1 POP DUP2 DUP2 SUB PUSH0 DUP4 ADD MSTORE PUSH2 0xEED DUP2 PUSH2 0xEB4 JUMP JUMPDEST SWAP1 POP SWAP2 SWAP1 POP JUMP JUMPDEST PUSH32 0x526F6C654163636573733A206163636F756E7420616C72656164792068617320 PUSH0 DUP3 ADD MSTORE PUSH32 0x7468697320726F6C650000000000000000000000000000000000000000000000 PUSH1 0x20 DUP3 ADD MSTORE POP JUMP JUMPDEST PUSH0 PUSH2 0xF4E PUSH1 0x29 DUP4 PUSH2 0xDC1 JUMP JUMPDEST SWAP2 POP PUSH2 0xF59 DUP3 PUSH2 0xEF4 JUMP JUMPDEST PUSH1 0x40 DUP3 ADD SWAP1 POP SWAP2 SWAP1 POP JUMP JUMPDEST PUSH0 PUSH1 0x20 DUP3 ADD SWAP1 POP DUP2 DUP2 SUB PUSH0 DUP4 ADD MSTORE PUSH2 0xF7B DUP2 PUSH2 0xF42 JUMP JUMPDEST SWAP1 POP SWAP2 SWAP1 POP JUMP JUMPDEST PUSH32 0x526F6C654163636573733A2063616C6C657220646F6573206E6F742068617665 PUSH0 DUP3 ADD MSTORE PUSH32 0x207468697320726F6C6500000000000000000000000000000000000000000000 PUSH1 0x20 DUP3 ADD MSTORE POP JUMP JUMPDEST PUSH0 PUSH2 0xFDC PUSH1 0x2A DUP4 PUSH2 0xDC1 JUMP JUMPDEST SWAP2 POP PUSH2 0xFE7 DUP3 PUSH2 0xF82 JUMP JUMPDEST PUSH1 0x40 DUP3 ADD SWAP1 POP SWAP2 SWAP1 POP JUMP JUMPDEST PUSH0 PUSH1 0x20 DUP3 ADD SWAP1 POP DUP2 DUP2 SUB PUSH0 DUP4 ADD MSTORE PUSH2 0x1009 DUP2 PUSH2 0xFD0 JUMP JUMPDEST SWAP1 POP SWAP2 SWAP1 POP JUMP JUMPDEST PUSH32 0x526F6C654163636573733A206163636F756E7420646F6573206E6F7420686176 PUSH0 DUP3 ADD MSTORE PUSH32 0x65207468697320726F6C65000000000000000000000000000000000000000000 PUSH1 0x20 DUP3 ADD MSTORE POP JUMP JUMPDEST PUSH0 PUSH2 0x106A PUSH1 0x2B DUP4 PUSH2 0xDC1 JUMP JUMPDEST SWAP2 POP PUSH2 0x1075 DUP3 PUSH2 0x1010 JUMP JUMPDEST PUSH1 0x40 DUP3 ADD SWAP1 POP SWAP2 SWAP1 POP JUMP JUMPDEST PUSH0 PUSH1 0x20 DUP3 ADD SWAP1 POP DUP2 DUP2 SUB PUSH0 DUP4 ADD MSTORE PUSH2 0x1097 DUP2 PUSH2 0x105E JUMP JUMPDEST SWAP1 POP SWAP2 SWAP1 POP JUMP INVALID LOG2 PUSH5 0x6970667358 0x22 SLT KECCAK256 SIGNEXTEND BLOCKHASH CREATE2 0xC3 0xAC 0xEF RETF NOT DUP15 PUSH25 0xB03CC63A68B90DF55EFB4257CB2DF16C7CB01D03C46664736F PUSH13 0x634300081F0033000000000000 "
				},
				"gasEstimates": {
					"creation": {
						"codeDepositCost": "861600",
						"executionCost": "27243",
						"totalCost": "888843"
					},
					"external": {
						"APPROVER_ROLE()": "392",
						"AUDITOR_ROLE()": "436",
						"DEFAULT_ADMIN_ROLE()": "391",
						"LOGGER_ROLE()": "325",
						"REGISTRY_ROLE()": "414",
						"REVIEWER_ROLE()": "370",
						"TREASURY_ROLE()": "413",
						"grantMultipleRoles(bytes32[],address)": "infinite",
						"grantRole(bytes32,address)": "31659",
						"hasRole(bytes32,address)": "3159",
						"renounceRole(bytes32)": "29085",
						"revokeRole(bytes32,address)": "31708"
					}
				},
				"methodIdentifiers": {
					"APPROVER_ROLE()": "4245962b",
					"AUDITOR_ROLE()": "6e1d616e",
					"DEFAULT_ADMIN_ROLE()": "a217fddf",
					"LOGGER_ROLE()": "7bf0fbde",
					"REGISTRY_ROLE()": "42f1e879",
					"REVIEWER_ROLE()": "3b129a56",
					"TREASURY_ROLE()": "d11a57ec",
					"grantMultipleRoles(bytes32[],address)": "18989def",
					"grantRole(bytes32,address)": "2f2ff15d",
					"hasRole(bytes32,address)": "91d14854",
					"renounceRole(bytes32)": "8bb9c5bf",
					"revokeRole(bytes32,address)": "d547741f"
				}
			},
			"storageLayout": {
				"storage": [
					{
						"astId": 302,
						"contract": "RoleAccess.sol:RoleAccess",
						"label": "_roles",
						"offset": 0,
						"slot": "0",
						"type": "t_mapping(t_bytes32,t_mapping(t_address,t_bool))"
					}
				],
				"types": {
					"t_address": {
						"encoding": "inplace",
						"label": "address",
						"numberOfBytes": "20"
					},
					"t_bool": {
						"encoding": "inplace",
						"label": "bool",
						"numberOfBytes": "1"
					},
					"t_bytes32": {
						"encoding": "inplace",
						"label": "bytes32",
						"numberOfBytes": "32"
					},
					"t_mapping(t_address,t_bool)": {
						"encoding": "mapping",
						"key": "t_address",
						"label": "mapping(address => bool)",
						"numberOfBytes": "32",
						"value": "t_bool"
					},
					"t_mapping(t_bytes32,t_mapping(t_address,t_bool))": {
						"encoding": "mapping",
						"key": "t_bytes32",
						"label": "mapping(bytes32 => mapping(address => bool))",
						"numberOfBytes": "32",
						"value": "t_mapping(t_address,t_bool)"
					}
				}
			},
			"userdoc": {
				"kind": "user",
				"methods": {
					"grantMultipleRoles(bytes32[],address)": {
						"notice": "Convenience: grant multiple roles to one account (admin only)"
					},
					"grantRole(bytes32,address)": {
						"notice": "Grant a role to an account (admin only)"
					},
					"hasRole(bytes32,address)": {
						"notice": "Check if an account has a specific role"
					},
					"renounceRole(bytes32)": {
						"notice": "An account can voluntarily renounce their own role"
					},
					"revokeRole(bytes32,address)": {
						"notice": "Revoke a role from an account (admin only)"
					}
				},
				"version": 1
			}
		}
	}
}