{
	"IPFSVerifier.sol": {
		"IPFSVerifier": {
			"abi": [
				{
					"anonymous": false,
					"inputs": [
						{
							"indexed": true,
							"internalType": "uint256",
							"name": "applicationId",
							"type": "uint256"
						},
						{
							"indexed": false,
							"internalType": "string",
							"name": "ipfsCID",
							"type": "string"
						},
						{
							"indexed": false,
							"internalType": "bytes32",
							"name": "sha256Hash",
							"type": "bytes32"
						},
						{
							"indexed": false,
							"internalType": "string",
							"name": "docType",
							"type": "string"
						},
						{
							"indexed": false,
							"internalType": "uint256",
							"name": "timestamp",
							"type": "uint256"
						}
					],
					"name": "DocumentAnchored",
					"type": "event"
				},
				{
					"anonymous": false,
					"inputs": [
						{
							"indexed": true,
							"internalType": "bytes32",
							"name": "role",
							"type": "bytes32"
						},
						{
							"indexed": true,
							"internalType": "address",
							"name": "account",
							"type": "address"
						},
						{
							"indexed": true,
							"internalType": "address",
							"name": "sender",
							"type": "address"
						}
					],
					"name": "RoleGranted",
					"type": "event"
				},
				{
					"anonymous": false,
					"inputs": [
						{
							"indexed": true,
							"internalType": "bytes32",
							"name": "role",
							"type": "bytes32"
						},
						{
							"indexed": true,
							"internalType": "address",
							"name": "account",
							"type": "address"
						},
						{
							"indexed": true,
							"internalType": "address",
							"name": "sender",
							"type": "address"
						}
					],
					"name": "RoleRevoked",
					"type": "event"
				},
				{
					"anonymous": false,
					"inputs": [
						{
							"indexed": true,
							"internalType": "uint256",
							"name": "applicationId",
							"type": "uint256"
						},
						{
							"indexed": false,
							"internalType": "bytes32",
							"name": "claimedHash",
							"type": "bytes32"
						},
						{
							"indexed": false,
							"internalType": "bool",
							"name": "isValid",
							"type": "bool"
						},
						{
							"indexed": false,
							"internalType": "address",
							"name": "verifier",
							"type": "address"
						}
					],
					"name": "VerificationResult",
					"type": "event"
				},
				{
					"inputs": [],
					"name": "APPROVER_ROLE",
					"outputs": [
						{
							"internalType": "bytes32",
							"name": "",
							"type": "bytes32"
						}
					],
					"stateMutability": "view",
					"type": "function"
				},
				{
					"inputs": [],
					"name": "AUDITOR_ROLE",
					"outputs": [
						{
							"internalType": "bytes32",
							"name": "",
							"type": "bytes32"
						}
					],
					"stateMutability": "view",
					"type": "function"
				},
				{
					"inputs": [],
					"name": "DEFAULT_ADMIN_ROLE",
					"outputs": [
						{
							"internalType": "bytes32",
							"name": "",
							"type": "bytes32"
						}
					],
					"stateMutability": "view",
					"type": "function"
				},
				{
					"inputs": [],
					"name": "LOGGER_ROLE",
					"outputs": [
						{
							"internalType": "bytes32",
							"name": "",
							"type": "bytes32"
						}
					],
					"stateMutability": "view",
					"type": "function"
				},
				{
					"inputs": [],
					"name": "REGISTRY_ROLE",
					"outputs": [
						{
							"internalType": "bytes32",
							"name": "",
							"type": "bytes32"
						}
					],
					"stateMutability": "view",
					"type": "function"
				},
				{
					"inputs": [],
					"name": "REVIEWER_ROLE",
					"outputs": [
						{
							"internalType": "bytes32",
							"name": "",
							"type": "bytes32"
						}
					],
					"stateMutability": "view",
					"type": "function"
				},
				{
					"inputs": [],
					"name": "TREASURY_ROLE",
					"outputs": [
						{
							"internalType": "bytes32",
							"name": "",
							"type": "bytes32"
						}
					],
					"stateMutability": "view",
					"type": "function"
				},
				{
					"inputs": [
						{
							"internalType": "uint256",
							"name": "applicationId",
							"type": "uint256"
						},
						{
							"internalType": "string",
							"name": "ipfsCID",
							"type": "string"
						},
						{
							"internalType": "bytes32",
							"name": "sha256Hash",
							"type": "bytes32"
						},
						{
							"internalType": "string",
							"name": "docType",
							"type": "string"
						}
					],
					"name": "anchorDocument",
					"outputs": [],
					"stateMutability": "nonpayable",
					"type": "function"
				},
				{
					"inputs": [
						{
							"internalType": "uint256",
							"name": "applicationId",
							"type": "uint256"
						}
					],
					"name": "documentCount",
					"outputs": [
						{
							"internalType": "uint256",
							"name": "",
							"type": "uint256"
						}
					],
					"stateMutability": "view",
					"type": "function"
				},
				{
					"inputs": [
						{
							"internalType": "string",
							"name": "cid",
							"type": "string"
						}
					],
					"name": "getAppIdByCID",
					"outputs": [
						{
							"internalType": "uint256",
							"name": "",
							"type": "uint256"
						}
					],
					"stateMutability": "view",
					"type": "function"
				},
				{
					"inputs": [
						{
							"internalType": "uint256",
							"name": "applicationId",
							"type": "uint256"
						},
						{
							"internalType": "uint256",
							"name": "docIndex",
							"type": "uint256"
						}
					],
					"name": "getDocument",
					"outputs": [
						{
							"components": [
								{
									"internalType": "string",
									"name": "ipfsCID",
									"type": "string"
								},
								{
									"internalType": "bytes32",
									"name": "sha256Hash",
									"type": "bytes32"
								},
								{
									"internalType": "string",
									"name": "docType",
									"type": "string"
								},
								{
									"internalType": "uint256",
									"name": "anchoredAt",
									"type": "uint256"
								},
								{
									"internalType": "bool",
									"name": "exists",
									"type": "bool"
								}
							],
							"internalType": "struct IPFSVerifier.DocumentRecord",
							"name": "",
							"type": "tuple"
						}
					],
					"stateMutability": "view",
					"type": "function"
				},
				{
					"inputs": [
						{
							"internalType": "uint256",
							"name": "applicationId",
							"type": "uint256"
						}
					],
					"name": "getDocumentManifest",
					"outputs": [
						{
							"components": [
								{
									"internalType": "string",
									"name": "ipfsCID",
									"type": "string"
								},
								{
									"internalType": "bytes32",
									"name": "sha256Hash",
									"type": "bytes32"
								},
								{
									"internalType": "string",
									"name": "docType",
									"type": "string"
								},
								{
									"internalType": "uint256",
									"name": "anchoredAt",
									"type": "uint256"
								},
								{
									"internalType": "bool",
									"name": "exists",
									"type": "bool"
								}
							],
							"internalType": "struct IPFSVerifier.DocumentRecord[]",
							"name": "",
							"type": "tuple[]"
						}
					],
					"stateMutability": "view",
					"type": "function"
				},
				{
					"inputs": [
						{
							"internalType": "bytes32[]",
							"name": "roles",
							"type": "bytes32[]"
						},
						{
							"internalType": "address",
							"name": "account",
							"type": "address"
						}
					],
					"name": "grantMultipleRoles",
					"outputs": [],
					"stateMutability": "nonpayable",
					"type": "function"
				},
				{
					"inputs": [
						{
							"internalType": "bytes32",
							"name": "role",
							"type": "bytes32"
						},
						{
							"internalType": "address",
							"name": "account",
							"type": "address"
						}
					],
					"name": "grantRole",
					"outputs": [],
					"stateMutability": "nonpayable",
					"type": "function"
				},
				{
					"inputs": [
						{
							"internalType": "bytes32",
							"name": "role",
							"type": "bytes32"
						},
						{
							"internalType": "address",
							"name": "account",
							"type": "address"
						}
					],
					"name": "hasRole",
					"outputs": [
						{
							"internalType": "bool",
							"name": "",
							"type": "bool"
						}
					],
					"stateMutability": "view",
					"type": "function"
				},
				{
					"inputs": [
						{
							"internalType": "bytes32",
							"name": "role",
							"type": "bytes32"
						}
					],
					"name": "renounceRole",
					"outputs": [],
					"stateMutability": "nonpayable",
					"type": "function"
				},
				{
					"inputs": [
						{
							"internalType": "bytes32",
							"name": "role",
							"type": "bytes32"
						},
						{
							"internalType": "address",
							"name": "account",
							"type": "address"
						}
					],
					"name": "revokeRole",
					"outputs": [],
					"stateMutability": "nonpayable",
					"type": "function"
				},
				{
					"inputs": [
						{
							"internalType": "uint256",
							"name": "applicationId",
							"type": "uint256"
						},
						{
							"internalType": "uint256",
							"name": "docIndex",
							"type": "uint256"
						},
						{
							"internalType": "bytes32",
							"name": "claimedHash",
							"type": "bytes32"
						}
					],
					"name": "verifyDocument",
					"outputs": [
						{
							"internalType": "bool",
							"name": "isValid",
							"type": "bool"
						},
						{
							"internalType": "string",
							"name": "storedCID",
							"type": "string"
						}
					],
					"stateMutability": "nonpayable",
					"type": "function"
				}
			],
			"devdoc": {
				"kind": "dev",
				"methods": {
					"anchorDocument(uint256,string,bytes32,string)": {
						"params": {
							"applicationId": "The application this document belongs to",
							"docType": "Document category string",
							"ipfsCID": "The IPFS CID returned after upload",
							"sha256Hash": "SHA-256 hash of the original file (bytes32)"
						}
					},
					"verifyDocument(uint256,uint256,bytes32)": {
						"params": {
							"applicationId": "The application to check against",
							"claimedHash": "SHA-256 hash of the document being verified",
							"docIndex": "Index of the document in the application's list"
						},
						"returns": {
							"isValid": "     True if the hash matches the stored record",
							"storedCID": "   The original IPFS CID stored on-chain"
						}
					}
				},
				"version": 1
			},
			"evm": {
				"assembly": "    /* \"IPFSVerifier.sol\":404:5398  contract IPFSVerifier is RoleAccess {... */\n  mstore(0x40, 0x80)\n  callvalue\n  dup1\n  iszero\n  tag_1\n  jumpi\n  revert(0x00, 0x00)\ntag_1:\n  pop\n    /* \"RoleAccess.sol\":2003:2007  true */\n  0x01\n    /* \"RoleAccess.sol\":1962:1968  _roles */\n  0x00\n    /* \"RoleAccess.sol\":1962:1988  _roles[DEFAULT_ADMIN_ROLE] */\n  0x00\n    /* \"RoleAccess.sol\":610:641  keccak256(\"DEFAULT_ADMIN_ROLE\") */\n  0x1effbbff9c66c5e59634f24fe842750c60d18891155c32dd155fc2d661a4c86d\n    /* \"RoleAccess.sol\":1962:1988  _roles[DEFAULT_ADMIN_ROLE] */\n  dup2\n  mstore\n  0x20\n  add\n  swap1\n  dup2\n  mstore\n  0x20\n  add\n  0x00\n  keccak256\n    /* \"RoleAccess.sol\":1962:2000  _roles[DEFAULT_ADMIN_ROLE][msg.sender] */\n  0x00\n    /* \"RoleAccess.sol\":1989:1999  msg.sender */\n  caller\n    /* \"RoleAccess.sol\":1962:2000  _roles[DEFAULT_ADMIN_ROLE][msg.sender] */\n  0xffffffffffffffffffffffffffffffffffffffff\n  and\n  0xffffffffffffffffffffffffffffffffffffffff\n  and\n  dup2\n  mstore\n  0x20\n  add\n  swap1\n  dup2\n  mstore\n  0x20\n  add\n  0x00\n  keccak256\n  0x00\n    /* \"RoleAccess.sol\":1962:2007  _roles[DEFAULT_ADMIN_ROLE][msg.sender] = true */\n  0x0100\n  exp\n  dup2\n  sload\n  dup2\n  0xff\n  mul\n  not\n  and\n  swap1\n  dup4\n  iszero\n  iszero\n  mul\n  or\n  swap1\n  sstore\n  pop\n    /* \"RoleAccess.sol\":2066:2076  msg.sender */\n  caller\n    /* \"RoleAccess.sol\":2022:2077  RoleGranted(DEFAULT_ADMIN_ROLE, msg.sender, msg.sender) */\n  0xffffffffffffffffffffffffffffffffffffffff\n  and\n    /* \"RoleAccess.sol\":2054:2064  msg.sender */\n  caller\n    /* \"RoleAccess.sol\":2022:2077  RoleGranted(DEFAULT_ADMIN_ROLE, msg.sender, msg.sender) */\n  0xffffffffffffffffffffffffffffffffffffffff\n  and\n    /* \"RoleAccess.sol\":610:641  keccak256(\"DEFAULT_ADMIN_ROLE\") */\n  0x1effbbff9c66c5e59634f24fe842750c60d18891155c32dd155fc2d661a4c86d\n    /* \"RoleAccess.sol\":2022:2077  RoleGranted(DEFAULT_ADMIN_ROLE, msg.sender, msg.sender) */\n  0x2f8788117e7eff1d82e926ec794901d17c78024a50270940304540a733656f0d\n  mload(0x40)\n  mload(0x40)\n  dup1\n  swap2\n  sub\n  swap1\n  log4\n    /* \"IPFSVerifier.sol\":404:5398  contract IPFSVerifier is RoleAccess {... */\n  dataSize(sub_0)\n  dup1\n  dataOffset(sub_0)\n  0x00\n  codecopy\n  0x00\n  return\nstop\n\nsub_0: assembly {\n        /* \"IPFSVerifier.sol\":404:5398  contract IPFSVerifier is RoleAccess {... */\n      mstore(0x40, 0x80)\n      callvalue\n      dup1\n      iszero\n      tag_1\n      jumpi\n      revert(0x00, 0x00)\n    tag_1:\n      pop\n      jumpi(tag_2, lt(calldatasize, 0x04))\n      shr(0xe0, calldataload(0x00))\n      dup1\n      0x7bf0fbde\n      gt\n      tag_21\n      jumpi\n      dup1\n      0x9dd0c51b\n      gt\n      tag_22\n      jumpi\n      dup1\n      0x9dd0c51b\n      eq\n      tag_16\n      jumpi\n      dup1\n      0xa217fddf\n      eq\n      tag_17\n      jumpi\n      dup1\n      0xd11a57ec\n      eq\n      tag_18\n      jumpi\n      dup1\n      0xd547741f\n      eq\n      tag_19\n      jumpi\n      dup1\n      0xdfbfb6c4\n      eq\n      tag_20\n      jumpi\n      jump(tag_2)\n    tag_22:\n      dup1\n      0x7bf0fbde\n      eq\n      tag_12\n      jumpi\n      dup1\n      0x8bb9c5bf\n      eq\n      tag_13\n      jumpi\n      dup1\n      0x91d14854\n      eq\n      tag_14\n      jumpi\n      dup1\n      0x9baa4b71\n      eq\n      tag_15\n      jumpi\n      jump(tag_2)\n    tag_21:\n      dup1\n      0x3b129a56\n      gt\n      tag_23\n      jumpi\n      dup1\n      0x3b129a56\n      eq\n      tag_7\n      jumpi\n      dup1\n      0x4245962b\n      eq\n      tag_8\n      jumpi\n      dup1\n      0x42f1e879\n      eq\n      tag_9\n      jumpi\n      dup1\n      0x56fb4636\n      eq\n      tag_10\n      jumpi\n      dup1\n      0x6e1d616e\n      eq\n      tag_11\n      jumpi\n      jump(tag_2)\n    tag_23:\n      dup1\n      0x0f53ce01\n      eq\n      tag_3\n      jumpi\n      dup1\n      0x18989def\n      eq\n      tag_4\n      jumpi\n      dup1\n      0x1b1aa49a\n      eq\n      tag_5\n      jumpi\n      dup1\n      0x2f2ff15d\n      eq\n      tag_6\n      jumpi\n    tag_2:\n      revert(0x00, 0x00)\n        /* \"IPFSVerifier.sol\":4679:4998  function getDocument(uint256 applicationId, uint256 docIndex)... */\n    tag_3:\n      tag_24\n      0x04\n      dup1\n      calldatasize\n      sub\n      dup2\n      add\n      swap1\n      tag_25\n      swap2\n      swap1\n      tag_26\n      jump\t// in\n    tag_25:\n      tag_27\n      jump\t// in\n    tag_24:\n      mload(0x40)\n      tag_28\n      swap2\n      swap1\n      tag_29\n      jump\t// in\n    tag_28:\n      mload(0x40)\n      dup1\n      swap2\n      sub\n      swap1\n      return\n        /* \"RoleAccess.sol\":3976:4311  function grantMultipleRoles(bytes32[] calldata roles, address account) external onlyAdmin {... */\n    tag_4:\n      tag_30\n      0x04\n      dup1\n      calldatasize\n      sub\n      dup2\n      add\n      swap1\n      tag_31\n      swap2\n      swap1\n      tag_32\n      jump\t// in\n    tag_31:\n      tag_33\n      jump\t// in\n    tag_30:\n      stop\n        /* \"IPFSVerifier.sol\":5281:5396  function getAppIdByCID(string calldata cid) external view returns (uint256) {... */\n    tag_5:\n      tag_34\n      0x04\n      dup1\n      calldatasize\n      sub\n      dup2\n      add\n      swap1\n      tag_35\n      swap2\n      swap1\n      tag_36\n      jump\t// in\n    tag_35:\n      tag_37\n      jump\t// in\n    tag_34:\n      mload(0x40)\n      tag_38\n      swap2\n      swap1\n      tag_39\n      jump\t// in\n    tag_38:\n      mload(0x40)\n      dup1\n      swap2\n      sub\n      swap1\n      return\n        /* \"RoleAccess.sol\":2917:3259  function grantRole(bytes32 role, address account) external onlyAdmin {... */\n    tag_6:\n      tag_40\n      0x04\n      dup1\n      calldatasize\n      sub\n      dup2\n      add\n      swap1\n      tag_41\n      swap2\n      swap1\n      tag_42\n      jump\t// in\n    tag_41:\n      tag_43\n      jump\t// in\n    tag_40:\n      stop\n        /* \"RoleAccess.sol\":647:719  bytes32 public constant REVIEWER_ROLE       = keccak256(\"REVIEWER_ROLE\") */\n    tag_7:\n      tag_44\n      tag_45\n      jump\t// in\n    tag_44:\n      mload(0x40)\n      tag_46\n      swap2\n      swap1\n      tag_47\n      jump\t// in\n    tag_46:\n      mload(0x40)\n      dup1\n      swap2\n      sub\n      swap1\n      return\n        /* \"RoleAccess.sol\":725:797  bytes32 public constant APPROVER_ROLE       = keccak256(\"APPROVER_ROLE\") */\n    tag_8:\n      tag_48\n      tag_49\n      jump\t// in\n    tag_48:\n      mload(0x40)\n      tag_50\n      swap2\n      swap1\n      tag_47\n      jump\t// in\n    tag_50:\n      mload(0x40)\n      dup1\n      swap2\n      sub\n      swap1\n      return\n        /* \"RoleAccess.sol\":1034:1106  bytes32 public constant REGISTRY_ROLE       = keccak256(\"REGISTRY_ROLE\") */\n    tag_9:\n      tag_51\n      tag_52\n      jump\t// in\n    tag_51:\n      mload(0x40)\n      tag_53\n      swap2\n      swap1\n      tag_47\n      jump\t// in\n    tag_53:\n      mload(0x40)\n      dup1\n      swap2\n      sub\n      swap1\n      return\n        /* \"IPFSVerifier.sol\":3838:4400  function verifyDocument(... */\n    tag_10:\n      tag_54\n      0x04\n      dup1\n      calldatasize\n      sub\n      dup2\n      add\n      swap1\n      tag_55\n      swap2\n      swap1\n      tag_56\n      jump\t// in\n    tag_55:\n      tag_57\n      jump\t// in\n    tag_54:\n      mload(0x40)\n      tag_58\n      swap3\n      swap2\n      swap1\n      tag_59\n      jump\t// in\n    tag_58:\n      mload(0x40)\n      dup1\n      swap2\n      sub\n      swap1\n      return\n        /* \"RoleAccess.sol\":881:952  bytes32 public constant AUDITOR_ROLE        = keccak256(\"AUDITOR_ROLE\") */\n    tag_11:\n      tag_60\n      tag_61\n      jump\t// in\n    tag_60:\n      mload(0x40)\n      tag_62\n      swap2\n      swap1\n      tag_47\n      jump\t// in\n    tag_62:\n      mload(0x40)\n      dup1\n      swap2\n      sub\n      swap1\n      return\n        /* \"RoleAccess.sol\":958:1028  bytes32 public constant LOGGER_ROLE         = keccak256(\"LOGGER_ROLE\") */\n    tag_12:\n      tag_63\n      tag_64\n      jump\t// in\n    tag_63:\n      mload(0x40)\n      tag_65\n      swap2\n      swap1\n      tag_47\n      jump\t// in\n    tag_65:\n      mload(0x40)\n      dup1\n      swap2\n      sub\n      swap1\n      return\n        /* \"RoleAccess.sol\":3653:3892  function renounceRole(bytes32 role) external {... */\n    tag_13:\n      tag_66\n      0x04\n      dup1\n      calldatasize\n      sub\n      dup2\n      add\n      swap1\n      tag_67\n      swap2\n      swap1\n      tag_68\n      jump\t// in\n    tag_67:\n      tag_69\n      jump\t// in\n    tag_66:\n      stop\n        /* \"RoleAccess.sol\":2735:2855  function hasRole(bytes32 role, address account) public view returns (bool) {... */\n    tag_14:\n      tag_70\n      0x04\n      dup1\n      calldatasize\n      sub\n      dup2\n      add\n      swap1\n      tag_71\n      swap2\n      swap1\n      tag_42\n      jump\t// in\n    tag_71:\n      tag_72\n      jump\t// in\n    tag_70:\n      mload(0x40)\n      tag_73\n      swap2\n      swap1\n      tag_74\n      jump\t// in\n    tag_73:\n      mload(0x40)\n      dup1\n      swap2\n      sub\n      swap1\n      return\n        /* \"IPFSVerifier.sol\":2353:3269  function anchorDocument(... */\n    tag_15:\n      tag_75\n      0x04\n      dup1\n      calldatasize\n      sub\n      dup2\n      add\n      swap1\n      tag_76\n      swap2\n      swap1\n      tag_77\n      jump\t// in\n    tag_76:\n      tag_78\n      jump\t// in\n    tag_75:\n      stop\n        /* \"IPFSVerifier.sol\":4466:4626  function getDocumentManifest(uint256 applicationId)... */\n    tag_16:\n      tag_79\n      0x04\n      dup1\n      calldatasize\n      sub\n      dup2\n      add\n      swap1\n      tag_80\n      swap2\n      swap1\n      tag_81\n      jump\t// in\n    tag_80:\n      tag_82\n      jump\t// in\n    tag_79:\n      mload(0x40)\n      tag_83\n      swap2\n      swap1\n      tag_84\n      jump\t// in\n    tag_83:\n      mload(0x40)\n      dup1\n      swap2\n      sub\n      swap1\n      return\n        /* \"RoleAccess.sol\":564:641  bytes32 public constant DEFAULT_ADMIN_ROLE  = keccak256(\"DEFAULT_ADMIN_ROLE\") */\n    tag_17:\n      tag_85\n      tag_86\n      jump\t// in\n    tag_85:\n      mload(0x40)\n      tag_87\n      swap2\n      swap1\n      tag_47\n      jump\t// in\n    tag_87:\n      mload(0x40)\n      dup1\n      swap2\n      sub\n      swap1\n      return\n        /* \"RoleAccess.sol\":803:875  bytes32 public constant TREASURY_ROLE       = keccak256(\"TREASURY_ROLE\") */\n    tag_18:\n      tag_88\n      tag_89\n      jump\t// in\n    tag_88:\n      mload(0x40)\n      tag_90\n      swap2\n      swap1\n      tag_47\n      jump\t// in\n    tag_90:\n      mload(0x40)\n      dup1\n      swap2\n      sub\n      swap1\n      return\n        /* \"RoleAccess.sol\":3324:3580  function revokeRole(bytes32 role, address account) external onlyAdmin {... */\n    tag_19:\n      tag_91\n      0x04\n      dup1\n      calldatasize\n      sub\n      dup2\n      add\n      swap1\n      tag_92\n      swap2\n      swap1\n      tag_42\n      jump\t// in\n    tag_92:\n      tag_93\n      jump\t// in\n    tag_91:\n      stop\n        /* \"IPFSVerifier.sol\":5069:5202  function documentCount(uint256 applicationId) external view returns (uint256) {... */\n    tag_20:\n      tag_94\n      0x04\n      dup1\n      calldatasize\n      sub\n      dup2\n      add\n      swap1\n      tag_95\n      swap2\n      swap1\n      tag_81\n      jump\t// in\n    tag_95:\n      tag_96\n      jump\t// in\n    tag_94:\n      mload(0x40)\n      tag_97\n      swap2\n      swap1\n      tag_39\n      jump\t// in\n    tag_97:\n      mload(0x40)\n      dup1\n      swap2\n      sub\n      swap1\n      return\n        /* \"IPFSVerifier.sol\":4679:4998  function getDocument(uint256 applicationId, uint256 docIndex)... */\n    tag_27:\n        /* \"IPFSVerifier.sol\":4772:4793  DocumentRecord memory */\n      tag_98\n      tag_99\n      jump\t// in\n    tag_98:\n        /* \"IPFSVerifier.sol\":4841:4850  documents */\n      0x01\n        /* \"IPFSVerifier.sol\":4841:4865  documents[applicationId] */\n      0x00\n        /* \"IPFSVerifier.sol\":4851:4864  applicationId */\n      dup5\n        /* \"IPFSVerifier.sol\":4841:4865  documents[applicationId] */\n      dup2\n      mstore\n      0x20\n      add\n      swap1\n      dup2\n      mstore\n      0x20\n      add\n      0x00\n      keccak256\n        /* \"IPFSVerifier.sol\":4841:4872  documents[applicationId].length */\n      dup1\n      sload\n      swap1\n      pop\n        /* \"IPFSVerifier.sol\":4830:4838  docIndex */\n      dup3\n        /* \"IPFSVerifier.sol\":4830:4872  docIndex < documents[applicationId].length */\n      lt\n        /* \"IPFSVerifier.sol\":4809:4940  require(... */\n      tag_101\n      jumpi\n      mload(0x40)\n      0x08c379a000000000000000000000000000000000000000000000000000000000\n      dup2\n      mstore\n      0x04\n      add\n      tag_102\n      swap1\n      tag_103\n      jump\t// in\n    tag_102:\n      mload(0x40)\n      dup1\n      swap2\n      sub\n      swap1\n      revert\n    tag_101:\n        /* \"IPFSVerifier.sol\":4957:4966  documents */\n      0x01\n        /* \"IPFSVerifier.sol\":4957:4981  documents[applicationId] */\n      0x00\n        /* \"IPFSVerifier.sol\":4967:4980  applicationId */\n      dup5\n        /* \"IPFSVerifier.sol\":4957:4981  documents[applicationId] */\n      dup2\n      mstore\n      0x20\n      add\n      swap1\n      dup2\n      mstore\n      0x20\n      add\n      0x00\n      keccak256\n        /* \"IPFSVerifier.sol\":4982:4990  docIndex */\n      dup3\n        /* \"IPFSVerifier.sol\":4957:4991  documents[applicationId][docIndex] */\n      dup2\n      sload\n      dup2\n      lt\n      tag_104\n      jumpi\n      tag_105\n      tag_106\n      jump\t// in\n    tag_105:\n    tag_104:\n      swap1\n      0x00\n      mstore\n      keccak256(0x00, 0x20)\n      swap1\n      0x05\n      mul\n      add\n        /* \"IPFSVerifier.sol\":4950:4991  return documents[applicationId][docIndex] */\n      mload(0x40)\n      dup1\n      0xa0\n      add\n      0x40\n      mstore\n      swap1\n      dup2\n      0x00\n      dup3\n      add\n      dup1\n      sload\n      tag_108\n      swap1\n      tag_109\n      jump\t// in\n    tag_108:\n      dup1\n      0x1f\n      add\n      0x20\n      dup1\n      swap2\n      div\n      mul\n      0x20\n      add\n      mload(0x40)\n      swap1\n      dup2\n      add\n      0x40\n      mstore\n      dup1\n      swap3\n      swap2\n      swap1\n      dup2\n      dup2\n      mstore\n      0x20\n      add\n      dup3\n      dup1\n      sload\n      tag_110\n      swap1\n      tag_109\n      jump\t// in\n    tag_110:\n      dup1\n      iszero\n      tag_111\n      jumpi\n      dup1\n      0x1f\n      lt\n      tag_112\n      jumpi\n      0x0100\n      dup1\n      dup4\n      sload\n      div\n      mul\n      dup4\n      mstore\n      swap2\n      0x20\n      add\n      swap2\n      jump(tag_111)\n    tag_112:\n      dup3\n      add\n      swap2\n      swap1\n      0x00\n      mstore\n      keccak256(0x00, 0x20)\n      swap1\n    tag_113:\n      dup2\n      sload\n      dup2\n      mstore\n      swap1\n      0x01\n      add\n      swap1\n      0x20\n      add\n      dup1\n      dup4\n      gt\n      tag_113\n      jumpi\n      dup3\n      swap1\n      sub\n      0x1f\n      and\n      dup3\n      add\n      swap2\n    tag_111:\n      pop\n      pop\n      pop\n      pop\n      pop\n      dup2\n      mstore\n      0x20\n      add\n      0x01\n      dup3\n      add\n      sload\n      dup2\n      mstore\n      0x20\n      add\n      0x02\n      dup3\n      add\n      dup1\n      sload\n      tag_114\n      swap1\n      tag_109\n      jump\t// in\n    tag_114:\n      dup1\n      0x1f\n      add\n      0x20\n      dup1\n      swap2\n      div\n      mul\n      0x20\n      add\n      mload(0x40)\n      swap1\n      dup2\n      add\n      0x40\n      mstore\n      dup1\n      swap3\n      swap2\n      swap1\n      dup2\n      dup2\n      mstore\n      0x20\n      add\n      dup3\n      dup1\n      sload\n      tag_115\n      swap1\n      tag_109\n      jump\t// in\n    tag_115:\n      dup1\n      iszero\n      tag_116\n      jumpi\n      dup1\n      0x1f\n      lt\n      tag_117\n      jumpi\n      0x0100\n      dup1\n      dup4\n      sload\n      div\n      mul\n      dup4\n      mstore\n      swap2\n      0x20\n      add\n      swap2\n      jump(tag_116)\n    tag_117:\n      dup3\n      add\n      swap2\n      swap1\n      0x00\n      mstore\n      keccak256(0x00, 0x20)\n      swap1\n    tag_118:\n      dup2\n      sload\n      dup2\n      mstore\n      swap1\n      0x01\n      add\n      swap1\n      0x20\n      add\n      dup1\n      dup4\n      gt\n      tag_118\n      jumpi\n      dup3\n      swap1\n      sub\n      0x1f\n      and\n      dup3\n      add\n      swap2\n    tag_116:\n      pop\n      pop\n      pop\n      pop\n      pop\n      dup2\n      mstore\n      0x20\n      add\n      0x03\n      dup3\n      add\n      sload\n      dup2\n      mstore\n      0x20\n      add\n      0x04\n      dup3\n      add\n      0x00\n      swap1\n      sload\n      swap1\n      0x0100\n      exp\n      swap1\n      div\n      0xff\n      and\n      iszero\n      iszero\n      iszero\n      iszero\n      dup2\n      mstore\n      pop\n      pop\n      swap1\n      pop\n        /* \"IPFSVerifier.sol\":4679:4998  function getDocument(uint256 applicationId, uint256 docIndex)... */\n      swap3\n      swap2\n      pop\n      pop\n      jump\t// out\n        /* \"RoleAccess.sol\":3976:4311  function grantMultipleRoles(bytes32[] calldata roles, address account) external onlyAdmin {... */\n    tag_33:\n        /* \"RoleAccess.sol\":2438:2444  _roles */\n      0x00\n        /* \"RoleAccess.sol\":2438:2464  _roles[DEFAULT_ADMIN_ROLE] */\n      0x00\n        /* \"RoleAccess.sol\":610:641  keccak256(\"DEFAULT_ADMIN_ROLE\") */\n      0x1effbbff9c66c5e59634f24fe842750c60d18891155c32dd155fc2d661a4c86d\n        /* \"RoleAccess.sol\":2438:2464  _roles[DEFAULT_ADMIN_ROLE] */\n      dup2\n      mstore\n      0x20\n      add\n      swap1\n      dup2\n      mstore\n      0x20\n      add\n      0x00\n      keccak256\n        /* \"RoleAccess.sol\":2438:2476  _roles[DEFAULT_ADMIN_ROLE][msg.sender] */\n      0x00\n        /* \"RoleAccess.sol\":2465:2475  msg.sender */\n      caller\n        /* \"RoleAccess.sol\":2438:2476  _roles[DEFAULT_ADMIN_ROLE][msg.sender] */\n      0xffffffffffffffffffffffffffffffffffffffff\n      and\n      0xffffffffffffffffffffffffffffffffffffffff\n      and\n      dup2\n      mstore\n      0x20\n      add\n      swap1\n      dup2\n      mstore\n      0x20\n      add\n      0x00\n      keccak256\n      0x00\n      swap1\n      sload\n      swap1\n      0x0100\n      exp\n      swap1\n      div\n      0xff\n      and\n        /* \"RoleAccess.sol\":2430:2512  require(_roles[DEFAULT_ADMIN_ROLE][msg.sender], \"RoleAccess: caller is not admin\") */\n      tag_120\n      jumpi\n      mload(0x40)\n      0x08c379a000000000000000000000000000000000000000000000000000000000\n      dup2\n      mstore\n      0x04\n      add\n      tag_121\n      swap1\n      tag_122\n      jump\t// in\n    tag_121:\n      mload(0x40)\n      dup1\n      swap2\n      sub\n      swap1\n      revert\n    tag_120:\n        /* \"RoleAccess.sol\":4081:4090  uint256 i */\n      0x00\n        /* \"RoleAccess.sol\":4093:4094  0 */\n      0x00\n        /* \"RoleAccess.sol\":4081:4094  uint256 i = 0 */\n      swap1\n      pop\n        /* \"RoleAccess.sol\":4076:4305  for (uint256 i = 0; i < roles.length; i++) {... */\n    tag_124:\n        /* \"RoleAccess.sol\":4100:4105  roles */\n      dup4\n      dup4\n        /* \"RoleAccess.sol\":4100:4112  roles.length */\n      swap1\n      pop\n        /* \"RoleAccess.sol\":4096:4097  i */\n      dup2\n        /* \"RoleAccess.sol\":4096:4112  i < roles.length */\n      lt\n        /* \"RoleAccess.sol\":4076:4305  for (uint256 i = 0; i < roles.length; i++) {... */\n      iszero\n      tag_125\n      jumpi\n        /* \"RoleAccess.sol\":4138:4144  _roles */\n      0x00\n        /* \"RoleAccess.sol\":4138:4154  _roles[roles[i]] */\n      0x00\n        /* \"RoleAccess.sol\":4145:4150  roles */\n      dup6\n      dup6\n        /* \"RoleAccess.sol\":4151:4152  i */\n      dup5\n        /* \"RoleAccess.sol\":4145:4153  roles[i] */\n      dup2\n      dup2\n      lt\n      tag_127\n      jumpi\n      tag_128\n      tag_106\n      jump\t// in\n    tag_128:\n    tag_127:\n      swap1\n      pop\n      0x20\n      mul\n      add\n      calldataload\n        /* \"RoleAccess.sol\":4138:4154  _roles[roles[i]] */\n      dup2\n      mstore\n      0x20\n      add\n      swap1\n      dup2\n      mstore\n      0x20\n      add\n      0x00\n      keccak256\n        /* \"RoleAccess.sol\":4138:4163  _roles[roles[i]][account] */\n      0x00\n        /* \"RoleAccess.sol\":4155:4162  account */\n      dup4\n        /* \"RoleAccess.sol\":4138:4163  _roles[roles[i]][account] */\n      0xffffffffffffffffffffffffffffffffffffffff\n      and\n      0xffffffffffffffffffffffffffffffffffffffff\n      and\n      dup2\n      mstore\n      0x20\n      add\n      swap1\n      dup2\n      mstore\n      0x20\n      add\n      0x00\n      keccak256\n      0x00\n      swap1\n      sload\n      swap1\n      0x0100\n      exp\n      swap1\n      div\n      0xff\n      and\n        /* \"RoleAccess.sol\":4133:4295  if (!_roles[roles[i]][account]) {... */\n      tag_129\n      jumpi\n        /* \"RoleAccess.sol\":4211:4215  true */\n      0x01\n        /* \"RoleAccess.sol\":4183:4189  _roles */\n      0x00\n        /* \"RoleAccess.sol\":4183:4199  _roles[roles[i]] */\n      0x00\n        /* \"RoleAccess.sol\":4190:4195  roles */\n      dup7\n      dup7\n        /* \"RoleAccess.sol\":4196:4197  i */\n      dup6\n        /* \"RoleAccess.sol\":4190:4198  roles[i] */\n      dup2\n      dup2\n      lt\n      tag_130\n      jumpi\n      tag_131\n      tag_106\n      jump\t// in\n    tag_131:\n    tag_130:\n      swap1\n      pop\n      0x20\n      mul\n      add\n      calldataload\n        /* \"RoleAccess.sol\":4183:4199  _roles[roles[i]] */\n      dup2\n      mstore\n      0x20\n      add\n      swap1\n      dup2\n      mstore\n      0x20\n      add\n      0x00\n      keccak256\n        /* \"RoleAccess.sol\":4183:4208  _roles[roles[i]][account] */\n      0x00\n        /* \"RoleAccess.sol\":4200:4207  account */\n      dup5\n        /* \"RoleAccess.sol\":4183:4208  _roles[roles[i]][account] */\n      0xffffffffffffffffffffffffffffffffffffffff\n      and\n      0xffffffffffffffffffffffffffffffffffffffff\n      and\n      dup2\n      mstore\n      0x20\n      add\n      swap1\n      dup2\n      mstore\n      0x20\n      add\n      0x00\n      keccak256\n      0x00\n        /* \"RoleAccess.sol\":4183:4215  _roles[roles[i]][account] = true */\n      0x0100\n      exp\n      dup2\n      sload\n      dup2\n      0xff\n      mul\n      not\n      and\n      swap1\n      dup4\n      iszero\n      iszero\n      mul\n      or\n      swap1\n      sstore\n      pop\n        /* \"RoleAccess.sol\":4269:4279  msg.sender */\n      caller\n        /* \"RoleAccess.sol\":4238:4280  RoleGranted(roles[i], account, msg.sender) */\n      0xffffffffffffffffffffffffffffffffffffffff\n      and\n        /* \"RoleAccess.sol\":4260:4267  account */\n      dup3\n        /* \"RoleAccess.sol\":4238:4280  RoleGranted(roles[i], account, msg.sender) */\n      0xffffffffffffffffffffffffffffffffffffffff\n      and\n        /* \"RoleAccess.sol\":4250:4255  roles */\n      dup6\n      dup6\n        /* \"RoleAccess.sol\":4256:4257  i */\n      dup5\n        /* \"RoleAccess.sol\":4250:4258  roles[i] */\n      dup2\n      dup2\n      lt\n      tag_132\n      jumpi\n      tag_133\n      tag_106\n      jump\t// in\n    tag_133:\n    tag_132:\n      swap1\n      pop\n      0x20\n      mul\n      add\n      calldataload\n        /* \"RoleAccess.sol\":4238:4280  RoleGranted(roles[i], account, msg.sender) */\n      0x2f8788117e7eff1d82e926ec794901d17c78024a50270940304540a733656f0d\n      mload(0x40)\n      mload(0x40)\n      dup1\n      swap2\n      sub\n      swap1\n      log4\n        /* \"RoleAccess.sol\":4133:4295  if (!_roles[roles[i]][account]) {... */\n    tag_129:\n        /* \"RoleAccess.sol\":4114:4117  i++ */\n      dup1\n      dup1\n      0x01\n      add\n      swap2\n      pop\n      pop\n        /* \"RoleAccess.sol\":4076:4305  for (uint256 i = 0; i < roles.length; i++) {... */\n      jump(tag_124)\n    tag_125:\n      pop\n        /* \"RoleAccess.sol\":3976:4311  function grantMultipleRoles(bytes32[] calldata roles, address account) external onlyAdmin {... */\n      pop\n      pop\n      pop\n      jump\t// out\n        /* \"IPFSVerifier.sol\":5281:5396  function getAppIdByCID(string calldata cid) external view returns (uint256) {... */\n    tag_37:\n        /* \"IPFSVerifier.sol\":5348:5355  uint256 */\n      0x00\n        /* \"IPFSVerifier.sol\":5374:5384  cidToAppId */\n      0x02\n        /* \"IPFSVerifier.sol\":5385:5388  cid */\n      dup4\n      dup4\n        /* \"IPFSVerifier.sol\":5374:5389  cidToAppId[cid] */\n      mload(0x40)\n      tag_135\n      swap3\n      swap2\n      swap1\n      tag_136\n      jump\t// in\n    tag_135:\n      swap1\n      dup2\n      mstore\n      0x20\n      add\n      mload(0x40)\n      dup1\n      swap2\n      sub\n      swap1\n      keccak256\n      sload\n        /* \"IPFSVerifier.sol\":5367:5389  return cidToAppId[cid] */\n      swap1\n      pop\n        /* \"IPFSVerifier.sol\":5281:5396  function getAppIdByCID(string calldata cid) external view returns (uint256) {... */\n      swap3\n      swap2\n      pop\n      pop\n      jump\t// out\n        /* \"RoleAccess.sol\":2917:3259  function grantRole(bytes32 role, address account) external onlyAdmin {... */\n    tag_43:\n        /* \"RoleAccess.sol\":2438:2444  _roles */\n      0x00\n        /* \"RoleAccess.sol\":2438:2464  _roles[DEFAULT_ADMIN_ROLE] */\n      0x00\n        /* \"RoleAccess.sol\":610:641  keccak256(\"DEFAULT_ADMIN_ROLE\") */\n      0x1effbbff9c66c5e59634f24fe842750c60d18891155c32dd155fc2d661a4c86d\n        /* \"RoleAccess.sol\":2438:2464  _roles[DEFAULT_ADMIN_ROLE] */\n      dup2\n      mstore\n      0x20\n      add\n      swap1\n      dup2\n      mstore\n      0x20\n      add\n      0x00\n      keccak256\n        /* \"RoleAccess.sol\":2438:2476  _roles[DEFAULT_ADMIN_ROLE][msg.sender] */\n      0x00\n        /* \"RoleAccess.sol\":2465:2475  msg.sender */\n      caller\n        /* \"RoleAccess.sol\":2438:2476  _roles[DEFAULT_ADMIN_ROLE][msg.sender] */\n      0xffffffffffffffffffffffffffffffffffffffff\n      and\n      0xffffffffffffffffffffffffffffffffffffffff\n      and\n      dup2\n      mstore\n      0x20\n      add\n      swap1\n      dup2\n      mstore\n      0x20\n      add\n      0x00\n      keccak256\n      0x00\n      swap1\n      sload\n      swap1\n      0x0100\n      exp\n      swap1\n      div\n      0xff\n      and\n        /* \"RoleAccess.sol\":2430:2512  require(_roles[DEFAULT_ADMIN_ROLE][msg.sender], \"RoleAccess: caller is not admin\") */\n      tag_138\n      jumpi\n      mload(0x40)\n      0x08c379a000000000000000000000000000000000000000000000000000000000\n      dup2\n      mstore\n      0x04\n      add\n      tag_139\n      swap1\n      tag_122\n      jump\t// in\n    tag_139:\n      mload(0x40)\n      dup1\n      swap2\n      sub\n      swap1\n      revert\n    tag_138:\n        /* \"RoleAccess.sol\":3023:3024  0 */\n      0x00\n        /* \"RoleAccess.sol\":3004:3025  account != address(0) */\n      0xffffffffffffffffffffffffffffffffffffffff\n      and\n        /* \"RoleAccess.sol\":3004:3011  account */\n      dup2\n        /* \"RoleAccess.sol\":3004:3025  account != address(0) */\n      0xffffffffffffffffffffffffffffffffffffffff\n      and\n      sub\n        /* \"RoleAccess.sol\":2996:3075  require(account != address(0), \"RoleAccess: cannot grant role to zero address\") */\n      tag_141\n      jumpi\n      mload(0x40)\n      0x08c379a000000000000000000000000000000000000000000000000000000000\n      dup2\n      mstore\n      0x04\n      add\n      tag_142\n      swap1\n      tag_143\n      jump\t// in\n    tag_142:\n      mload(0x40)\n      dup1\n      swap2\n      sub\n      swap1\n      revert\n    tag_141:\n        /* \"RoleAccess.sol\":3094:3100  _roles */\n      0x00\n        /* \"RoleAccess.sol\":3094:3106  _roles[role] */\n      0x00\n        /* \"RoleAccess.sol\":3101:3105  role */\n      dup4\n        /* \"RoleAccess.sol\":3094:3106  _roles[role] */\n      dup2\n      mstore\n      0x20\n      add\n      swap1\n      dup2\n      mstore\n      0x20\n      add\n      0x00\n      keccak256\n        /* \"RoleAccess.sol\":3094:3115  _roles[role][account] */\n      0x00\n        /* \"RoleAccess.sol\":3107:3114  account */\n      dup3\n        /* \"RoleAccess.sol\":3094:3115  _roles[role][account] */\n      0xffffffffffffffffffffffffffffffffffffffff\n      and\n      0xffffffffffffffffffffffffffffffffffffffff\n      and\n      dup2\n      mstore\n      0x20\n      add\n      swap1\n      dup2\n      mstore\n      0x20\n      add\n      0x00\n      keccak256\n      0x00\n      swap1\n      sload\n      swap1\n      0x0100\n      exp\n      swap1\n      div\n      0xff\n      and\n        /* \"RoleAccess.sol\":3093:3115  !_roles[role][account] */\n      iszero\n        /* \"RoleAccess.sol\":3085:3161  require(!_roles[role][account], \"RoleAccess: account already has this role\") */\n      tag_144\n      jumpi\n      mload(0x40)\n      0x08c379a000000000000000000000000000000000000000000000000000000000\n      dup2\n      mstore\n      0x04\n      add\n      tag_145\n      swap1\n      tag_146\n      jump\t// in\n    tag_145:\n      mload(0x40)\n      dup1\n      swap2\n      sub\n      swap1\n      revert\n    tag_144:\n        /* \"RoleAccess.sol\":3195:3199  true */\n      0x01\n        /* \"RoleAccess.sol\":3171:3177  _roles */\n      0x00\n        /* \"RoleAccess.sol\":3171:3183  _roles[role] */\n      0x00\n        /* \"RoleAccess.sol\":3178:3182  role */\n      dup5\n        /* \"RoleAccess.sol\":3171:3183  _roles[role] */\n      dup2\n      mstore\n      0x20\n      add\n      swap1\n      dup2\n      mstore\n      0x20\n      add\n      0x00\n      keccak256\n        /* \"RoleAccess.sol\":3171:3192  _roles[role][account] */\n      0x00\n        /* \"RoleAccess.sol\":3184:3191  account */\n      dup4\n        /* \"RoleAccess.sol\":3171:3192  _roles[role][account] */\n      0xffffffffffffffffffffffffffffffffffffffff\n      and\n      0xffffffffffffffffffffffffffffffffffffffff\n      and\n      dup2\n      mstore\n      0x20\n      add\n      swap1\n      dup2\n      mstore\n      0x20\n      add\n      0x00\n      keccak256\n      0x00\n        /* \"RoleAccess.sol\":3171:3199  _roles[role][account] = true */\n      0x0100\n      exp\n      dup2\n      sload\n      dup2\n      0xff\n      mul\n      not\n      and\n      swap1\n      dup4\n      iszero\n      iszero\n      mul\n      or\n      swap1\n      sstore\n      pop\n        /* \"RoleAccess.sol\":3241:3251  msg.sender */\n      caller\n        /* \"RoleAccess.sol\":3214:3252  RoleGranted(role, account, msg.sender) */\n      0xffffffffffffffffffffffffffffffffffffffff\n      and\n        /* \"RoleAccess.sol\":3232:3239  account */\n      dup2\n        /* \"RoleAccess.sol\":3214:3252  RoleGranted(role, account, msg.sender) */\n      0xffffffffffffffffffffffffffffffffffffffff\n      and\n        /* \"RoleAccess.sol\":3226:3230  role */\n      dup4\n        /* \"RoleAccess.sol\":3214:3252  RoleGranted(role, account, msg.sender) */\n      0x2f8788117e7eff1d82e926ec794901d17c78024a50270940304540a733656f0d\n      mload(0x40)\n      mload(0x40)\n      dup1\n      swap2\n      sub\n      swap1\n      log4\n        /* \"RoleAccess.sol\":2917:3259  function grantRole(bytes32 role, address account) external onlyAdmin {... */\n      pop\n      pop\n      jump\t// out\n        /* \"RoleAccess.sol\":647:719  bytes32 public constant REVIEWER_ROLE       = keccak256(\"REVIEWER_ROLE\") */\n    tag_45:\n        /* \"RoleAccess.sol\":693:719  keccak256(\"REVIEWER_ROLE\") */\n      0xc10c77be35aff266144ed64c26a1fa104bae2f284ae99ac4a34203454704a185\n        /* \"RoleAccess.sol\":647:719  bytes32 public constant REVIEWER_ROLE       = keccak256(\"REVIEWER_ROLE\") */\n      dup2\n      jump\t// out\n        /* \"RoleAccess.sol\":725:797  bytes32 public constant APPROVER_ROLE       = keccak256(\"APPROVER_ROLE\") */\n    tag_49:\n        /* \"RoleAccess.sol\":771:797  keccak256(\"APPROVER_ROLE\") */\n      0x408a36151f841709116a4e8aca4e0202874f7f54687dcb863b1ea4672dc9d8cf\n        /* \"RoleAccess.sol\":725:797  bytes32 public constant APPROVER_ROLE       = keccak256(\"APPROVER_ROLE\") */\n      dup2\n      jump\t// out\n        /* \"RoleAccess.sol\":1034:1106  bytes32 public constant REGISTRY_ROLE       = keccak256(\"REGISTRY_ROLE\") */\n    tag_52:\n        /* \"RoleAccess.sol\":1080:1106  keccak256(\"REGISTRY_ROLE\") */\n      0xc2979137d1774e40fe2638d355bf7a7b092be4c67f242aad1655e1e27f9df9cc\n        /* \"RoleAccess.sol\":1034:1106  bytes32 public constant REGISTRY_ROLE       = keccak256(\"REGISTRY_ROLE\") */\n      dup2\n      jump\t// out\n        /* \"IPFSVerifier.sol\":3838:4400  function verifyDocument(... */\n    tag_57:\n        /* \"IPFSVerifier.sol\":3972:3984  bool isValid */\n      0x00\n        /* \"IPFSVerifier.sol\":3986:4009  string memory storedCID */\n      0x60\n        /* \"IPFSVerifier.sol\":4053:4062  documents */\n      0x01\n        /* \"IPFSVerifier.sol\":4053:4077  documents[applicationId] */\n      0x00\n        /* \"IPFSVerifier.sol\":4063:4076  applicationId */\n      dup7\n        /* \"IPFSVerifier.sol\":4053:4077  documents[applicationId] */\n      dup2\n      mstore\n      0x20\n      add\n      swap1\n      dup2\n      mstore\n      0x20\n      add\n      0x00\n      keccak256\n        /* \"IPFSVerifier.sol\":4053:4084  documents[applicationId].length */\n      dup1\n      sload\n      swap1\n      pop\n        /* \"IPFSVerifier.sol\":4042:4050  docIndex */\n      dup5\n        /* \"IPFSVerifier.sol\":4042:4084  docIndex < documents[applicationId].length */\n      lt\n        /* \"IPFSVerifier.sol\":4021:4152  require(... */\n      tag_148\n      jumpi\n      mload(0x40)\n      0x08c379a000000000000000000000000000000000000000000000000000000000\n      dup2\n      mstore\n      0x04\n      add\n      tag_149\n      swap1\n      tag_103\n      jump\t// in\n    tag_149:\n      mload(0x40)\n      dup1\n      swap2\n      sub\n      swap1\n      revert\n    tag_148:\n        /* \"IPFSVerifier.sol\":4162:4187  DocumentRecord memory doc */\n      0x00\n        /* \"IPFSVerifier.sol\":4190:4199  documents */\n      0x01\n        /* \"IPFSVerifier.sol\":4190:4214  documents[applicationId] */\n      0x00\n        /* \"IPFSVerifier.sol\":4200:4213  applicationId */\n      dup8\n        /* \"IPFSVerifier.sol\":4190:4214  documents[applicationId] */\n      dup2\n      mstore\n      0x20\n      add\n      swap1\n      dup2\n      mstore\n      0x20\n      add\n      0x00\n      keccak256\n        /* \"IPFSVerifier.sol\":4215:4223  docIndex */\n      dup6\n        /* \"IPFSVerifier.sol\":4190:4224  documents[applicationId][docIndex] */\n      dup2\n      sload\n      dup2\n      lt\n      tag_150\n      jumpi\n      tag_151\n      tag_106\n      jump\t// in\n    tag_151:\n    tag_150:\n      swap1\n      0x00\n      mstore\n      keccak256(0x00, 0x20)\n      swap1\n      0x05\n      mul\n      add\n        /* \"IPFSVerifier.sol\":4162:4224  DocumentRecord memory doc = documents[applicationId][docIndex] */\n      mload(0x40)\n      dup1\n      0xa0\n      add\n      0x40\n      mstore\n      swap1\n      dup2\n      0x00\n      dup3\n      add\n      dup1\n      sload\n      tag_153\n      swap1\n      tag_109\n      jump\t// in\n    tag_153:\n      dup1\n      0x1f\n      add\n      0x20\n      dup1\n      swap2\n      div\n      mul\n      0x20\n      add\n      mload(0x40)\n      swap1\n      dup2\n      add\n      0x40\n      mstore\n      dup1\n      swap3\n      swap2\n      swap1\n      dup2\n      dup2\n      mstore\n      0x20\n      add\n      dup3\n      dup1\n      sload\n      tag_154\n      swap1\n      tag_109\n      jump\t// in\n    tag_154:\n      dup1\n      iszero\n      tag_155\n      jumpi\n      dup1\n      0x1f\n      lt\n      tag_156\n      jumpi\n      0x0100\n      dup1\n      dup4\n      sload\n      div\n      mul\n      dup4\n      mstore\n      swap2\n      0x20\n      add\n      swap2\n      jump(tag_155)\n    tag_156:\n      dup3\n      add\n      swap2\n      swap1\n      0x00\n      mstore\n      keccak256(0x00, 0x20)\n      swap1\n    tag_157:\n      dup2\n      sload\n      dup2\n      mstore\n      swap1\n      0x01\n      add\n      swap1\n      0x20\n      add\n      dup1\n      dup4\n      gt\n      tag_157\n      jumpi\n      dup3\n      swap1\n      sub\n      0x1f\n      and\n      dup3\n      add\n      swap2\n    tag_155:\n      pop\n      pop\n      pop\n      pop\n      pop\n      dup2\n      mstore\n      0x20\n      add\n      0x01\n      dup3\n      add\n      sload\n      dup2\n      mstore\n      0x20\n      add\n      0x02\n      dup3\n      add\n      dup1\n      sload\n      tag_158\n      swap1\n      tag_109\n      jump\t// in\n    tag_158:\n      dup1\n      0x1f\n      add\n      0x20\n      dup1\n      swap2\n      div\n      mul\n      0x20\n      add\n      mload(0x40)\n      swap1\n      dup2\n      add\n      0x40\n      mstore\n      dup1\n      swap3\n      swap2\n      swap1\n      dup2\n      dup2\n      mstore\n      0x20\n      add\n      dup3\n      dup1\n      sload\n      tag_159\n      swap1\n      tag_109\n      jump\t// in\n    tag_159:\n      dup1\n      iszero\n      tag_160\n      jumpi\n      dup1\n      0x1f\n      lt\n      tag_161\n      jumpi\n      0x0100\n      dup1\n      dup4\n      sload\n      div\n      mul\n      dup4\n      mstore\n      swap2\n      0x20\n      add\n      swap2\n      jump(tag_160)\n    tag_161:\n      dup3\n      add\n      swap2\n      swap1\n      0x00\n      mstore\n      keccak256(0x00, 0x20)\n      swap1\n    tag_162:\n      dup2\n      sload\n      dup2\n      mstore\n      swap1\n      0x01\n      add\n      swap1\n      0x20\n      add\n      dup1\n      dup4\n      gt\n      tag_162\n      jumpi\n      dup3\n      swap1\n      sub\n      0x1f\n      and\n      dup3\n      add\n      swap2\n    tag_160:\n      pop\n      pop\n      pop\n      pop\n      pop\n      dup2\n      mstore\n      0x20\n      add\n      0x03\n      dup3\n      add\n      sload\n      dup2\n      mstore\n      0x20\n      add\n      0x04\n      dup3\n      add\n      0x00\n      swap1\n      sload\n      swap1\n      0x0100\n      exp\n      swap1\n      div\n      0xff\n      and\n      iszero\n      iszero\n      iszero\n      iszero\n      dup2\n      mstore\n      pop\n      pop\n      swap1\n      pop\n        /* \"IPFSVerifier.sol\":4265:4276  claimedHash */\n      dup4\n        /* \"IPFSVerifier.sol\":4247:4250  doc */\n      dup2\n        /* \"IPFSVerifier.sol\":4247:4261  doc.sha256Hash */\n      0x20\n      add\n      mload\n        /* \"IPFSVerifier.sol\":4247:4276  doc.sha256Hash == claimedHash */\n      eq\n        /* \"IPFSVerifier.sol\":4234:4277  isValid   = (doc.sha256Hash == claimedHash) */\n      swap3\n      pop\n        /* \"IPFSVerifier.sol\":4299:4302  doc */\n      dup1\n        /* \"IPFSVerifier.sol\":4299:4310  doc.ipfsCID */\n      0x00\n      add\n      mload\n        /* \"IPFSVerifier.sol\":4287:4310  storedCID = doc.ipfsCID */\n      swap2\n      pop\n        /* \"IPFSVerifier.sol\":4345:4358  applicationId */\n      dup6\n        /* \"IPFSVerifier.sol\":4326:4393  VerificationResult(applicationId, claimedHash, isValid, msg.sender) */\n      0x13ac87fcd784fd62588dd5d751090b3996bd31bd932f0987530b3bda226c5368\n        /* \"IPFSVerifier.sol\":4360:4371  claimedHash */\n      dup6\n        /* \"IPFSVerifier.sol\":4373:4380  isValid */\n      dup6\n        /* \"IPFSVerifier.sol\":4382:4392  msg.sender */\n      caller\n        /* \"IPFSVerifier.sol\":4326:4393  VerificationResult(applicationId, claimedHash, isValid, msg.sender) */\n      mload(0x40)\n      tag_163\n      swap4\n      swap3\n      swap2\n      swap1\n      tag_164\n      jump\t// in\n    tag_163:\n      mload(0x40)\n      dup1\n      swap2\n      sub\n      swap1\n      log2\n        /* \"IPFSVerifier.sol\":4011:4400  {... */\n      pop\n        /* \"IPFSVerifier.sol\":3838:4400  function verifyDocument(... */\n      swap4\n      pop\n      swap4\n      swap2\n      pop\n      pop\n      jump\t// out\n        /* \"RoleAccess.sol\":881:952  bytes32 public constant AUDITOR_ROLE        = keccak256(\"AUDITOR_ROLE\") */\n    tag_61:\n        /* \"RoleAccess.sol\":927:952  keccak256(\"AUDITOR_ROLE\") */\n      0x59a1c48e5837ad7a7f3dcedcbe129bf3249ec4fbf651fd4f5e2600ead39fe2f5\n        /* \"RoleAccess.sol\":881:952  bytes32 public constant AUDITOR_ROLE        = keccak256(\"AUDITOR_ROLE\") */\n      dup2\n      jump\t// out\n        /* \"RoleAccess.sol\":958:1028  bytes32 public constant LOGGER_ROLE         = keccak256(\"LOGGER_ROLE\") */\n    tag_64:\n        /* \"RoleAccess.sol\":1004:1028  keccak256(\"LOGGER_ROLE\") */\n      0x566c814873eed56a69b28c40ab27cc2cb150d74068bae3e884ccd44f8de60f8a\n        /* \"RoleAccess.sol\":958:1028  bytes32 public constant LOGGER_ROLE         = keccak256(\"LOGGER_ROLE\") */\n      dup2\n      jump\t// out\n        /* \"RoleAccess.sol\":3653:3892  function renounceRole(bytes32 role) external {... */\n    tag_69:\n        /* \"RoleAccess.sol\":3716:3722  _roles */\n      0x00\n        /* \"RoleAccess.sol\":3716:3728  _roles[role] */\n      0x00\n        /* \"RoleAccess.sol\":3723:3727  role */\n      dup3\n        /* \"RoleAccess.sol\":3716:3728  _roles[role] */\n      dup2\n      mstore\n      0x20\n      add\n      swap1\n      dup2\n      mstore\n      0x20\n      add\n      0x00\n      keccak256\n        /* \"RoleAccess.sol\":3716:3740  _roles[role][msg.sender] */\n      0x00\n        /* \"RoleAccess.sol\":3729:3739  msg.sender */\n      caller\n        /* \"RoleAccess.sol\":3716:3740  _roles[role][msg.sender] */\n      0xffffffffffffffffffffffffffffffffffffffff\n      and\n      0xffffffffffffffffffffffffffffffffffffffff\n      and\n      dup2\n      mstore\n      0x20\n      add\n      swap1\n      dup2\n      mstore\n      0x20\n      add\n      0x00\n      keccak256\n      0x00\n      swap1\n      sload\n      swap1\n      0x0100\n      exp\n      swap1\n      div\n      0xff\n      and\n        /* \"RoleAccess.sol\":3708:3787  require(_roles[role][msg.sender], \"RoleAccess: caller does not have this role\") */\n      tag_166\n      jumpi\n      mload(0x40)\n      0x08c379a000000000000000000000000000000000000000000000000000000000\n      dup2\n      mstore\n      0x04\n      add\n      tag_167\n      swap1\n      tag_168\n      jump\t// in\n    tag_167:\n      mload(0x40)\n      dup1\n      swap2\n      sub\n      swap1\n      revert\n    tag_166:\n        /* \"RoleAccess.sol\":3824:3829  false */\n      0x00\n        /* \"RoleAccess.sol\":3797:3803  _roles */\n      0x00\n        /* \"RoleAccess.sol\":3797:3809  _roles[role] */\n      0x00\n        /* \"RoleAccess.sol\":3804:3808  role */\n      dup4\n        /* \"RoleAccess.sol\":3797:3809  _roles[role] */\n      dup2\n      mstore\n      0x20\n      add\n      swap1\n      dup2\n      mstore\n      0x20\n      add\n      0x00\n      keccak256\n        /* \"RoleAccess.sol\":3797:3821  _roles[role][msg.sender] */\n      0x00\n        /* \"RoleAccess.sol\":3810:3820  msg.sender */\n      caller\n        /* \"RoleAccess.sol\":3797:3821  _roles[role][msg.sender] */\n      0xffffffffffffffffffffffffffffffffffffffff\n      and\n      0xffffffffffffffffffffffffffffffffffffffff\n      and\n      dup2\n      mstore\n      0x20\n      add\n      swap1\n      dup2\n      mstore\n      0x20\n      add\n      0x00\n      keccak256\n      0x00\n        /* \"RoleAccess.sol\":3797:3829  _roles[role][msg.sender] = false */\n      0x0100\n      exp\n      dup2\n      sload\n      dup2\n      0xff\n      mul\n      not\n      and\n      swap1\n      dup4\n      iszero\n      iszero\n      mul\n      or\n      swap1\n      sstore\n      pop\n        /* \"RoleAccess.sol\":3874:3884  msg.sender */\n      caller\n        /* \"RoleAccess.sol\":3844:3885  RoleRevoked(role, msg.sender, msg.sender) */\n      0xffffffffffffffffffffffffffffffffffffffff\n      and\n        /* \"RoleAccess.sol\":3862:3872  msg.sender */\n      caller\n        /* \"RoleAccess.sol\":3844:3885  RoleRevoked(role, msg.sender, msg.sender) */\n      0xffffffffffffffffffffffffffffffffffffffff\n      and\n        /* \"RoleAccess.sol\":3856:3860  role */\n      dup3\n        /* \"RoleAccess.sol\":3844:3885  RoleRevoked(role, msg.sender, msg.sender) */\n      0xf6391f5c32d9c69d2a47ea670b442974b53935d1edc7fd64eb21e047a839171b\n      mload(0x40)\n      mload(0x40)\n      dup1\n      swap2\n      sub\n      swap1\n      log4\n        /* \"RoleAccess.sol\":3653:3892  function renounceRole(bytes32 role) external {... */\n      pop\n      jump\t// out\n        /* \"RoleAccess.sol\":2735:2855  function hasRole(bytes32 role, address account) public view returns (bool) {... */\n    tag_72:\n        /* \"RoleAccess.sol\":2804:2808  bool */\n      0x00\n        /* \"RoleAccess.sol\":2827:2833  _roles */\n      0x00\n        /* \"RoleAccess.sol\":2827:2839  _roles[role] */\n      0x00\n        /* \"RoleAccess.sol\":2834:2838  role */\n      dup5\n        /* \"RoleAccess.sol\":2827:2839  _roles[role] */\n      dup2\n      mstore\n      0x20\n      add\n      swap1\n      dup2\n      mstore\n      0x20\n      add\n      0x00\n      keccak256\n        /* \"RoleAccess.sol\":2827:2848  _roles[role][account] */\n      0x00\n        /* \"RoleAccess.sol\":2840:2847  account */\n      dup4\n        /* \"RoleAccess.sol\":2827:2848  _roles[role][account] */\n      0xffffffffffffffffffffffffffffffffffffffff\n      and\n      0xffffffffffffffffffffffffffffffffffffffff\n      and\n      dup2\n      mstore\n      0x20\n      add\n      swap1\n      dup2\n      mstore\n      0x20\n      add\n      0x00\n      keccak256\n      0x00\n      swap1\n      sload\n      swap1\n      0x0100\n      exp\n      swap1\n      div\n      0xff\n      and\n        /* \"RoleAccess.sol\":2820:2848  return _roles[role][account] */\n      swap1\n      pop\n        /* \"RoleAccess.sol\":2735:2855  function hasRole(bytes32 role, address account) public view returns (bool) {... */\n      swap3\n      swap2\n      pop\n      pop\n      jump\t// out\n        /* \"IPFSVerifier.sol\":2353:3269  function anchorDocument(... */\n    tag_78:\n        /* \"RoleAccess.sol\":1080:1106  keccak256(\"REGISTRY_ROLE\") */\n      0xc2979137d1774e40fe2638d355bf7a7b092be4c67f242aad1655e1e27f9df9cc\n        /* \"RoleAccess.sol\":2300:2306  _roles */\n      0x00\n        /* \"RoleAccess.sol\":2300:2312  _roles[role] */\n      0x00\n        /* \"RoleAccess.sol\":2307:2311  role */\n      dup3\n        /* \"RoleAccess.sol\":2300:2312  _roles[role] */\n      dup2\n      mstore\n      0x20\n      add\n      swap1\n      dup2\n      mstore\n      0x20\n      add\n      0x00\n      keccak256\n        /* \"RoleAccess.sol\":2300:2324  _roles[role][msg.sender] */\n      0x00\n        /* \"RoleAccess.sol\":2313:2323  msg.sender */\n      caller\n        /* \"RoleAccess.sol\":2300:2324  _roles[role][msg.sender] */\n      0xffffffffffffffffffffffffffffffffffffffff\n      and\n      0xffffffffffffffffffffffffffffffffffffffff\n      and\n      dup2\n      mstore\n      0x20\n      add\n      swap1\n      dup2\n      mstore\n      0x20\n      add\n      0x00\n      keccak256\n      0x00\n      swap1\n      sload\n      swap1\n      0x0100\n      exp\n      swap1\n      div\n      0xff\n      and\n        /* \"RoleAccess.sol\":2292:2375  require(_roles[role][msg.sender], \"RoleAccess: caller does not have required role\") */\n      tag_171\n      jumpi\n      mload(0x40)\n      0x08c379a000000000000000000000000000000000000000000000000000000000\n      dup2\n      mstore\n      0x04\n      add\n      tag_172\n      swap1\n      tag_173\n      jump\t// in\n    tag_172:\n      mload(0x40)\n      dup1\n      swap2\n      sub\n      swap1\n      revert\n    tag_171:\n        /* \"IPFSVerifier.sol\":2585:2586  0 */\n      0x00\n        /* \"IPFSVerifier.sol\":2567:2574  ipfsCID */\n      dup7\n      dup7\n        /* \"IPFSVerifier.sol\":2561:2582  bytes(ipfsCID).length */\n      swap1\n      pop\n        /* \"IPFSVerifier.sol\":2561:2586  bytes(ipfsCID).length > 0 */\n      gt\n        /* \"IPFSVerifier.sol\":2553:2626  require(bytes(ipfsCID).length > 0,   \"IPFSVerifier: CID cannot be empty\") */\n      tag_175\n      jumpi\n      mload(0x40)\n      0x08c379a000000000000000000000000000000000000000000000000000000000\n      dup2\n      mstore\n      0x04\n      add\n      tag_176\n      swap1\n      tag_177\n      jump\t// in\n    tag_176:\n      mload(0x40)\n      dup1\n      swap2\n      sub\n      swap1\n      revert\n    tag_175:\n        /* \"IPFSVerifier.sol\":2666:2667  0 */\n      0x00\n        /* \"IPFSVerifier.sol\":2658:2668  bytes32(0) */\n      0x00\n      shl\n        /* \"IPFSVerifier.sol\":2644:2654  sha256Hash */\n      dup5\n        /* \"IPFSVerifier.sol\":2644:2668  sha256Hash != bytes32(0) */\n      sub\n        /* \"IPFSVerifier.sol\":2636:2710  require(sha256Hash != bytes32(0),     \"IPFSVerifier: hash cannot be zero\") */\n      tag_178\n      jumpi\n      mload(0x40)\n      0x08c379a000000000000000000000000000000000000000000000000000000000\n      dup2\n      mstore\n      0x04\n      add\n      tag_179\n      swap1\n      tag_180\n      jump\t// in\n    tag_179:\n      mload(0x40)\n      dup1\n      swap2\n      sub\n      swap1\n      revert\n    tag_178:\n        /* \"IPFSVerifier.sol\":2752:2753  0 */\n      0x00\n        /* \"IPFSVerifier.sol\":2734:2741  docType */\n      dup4\n      dup4\n        /* \"IPFSVerifier.sol\":2728:2749  bytes(docType).length */\n      swap1\n      pop\n        /* \"IPFSVerifier.sol\":2728:2753  bytes(docType).length > 0 */\n      gt\n        /* \"IPFSVerifier.sol\":2720:2797  require(bytes(docType).length > 0,   \"IPFSVerifier: docType cannot be empty\") */\n      tag_181\n      jumpi\n      mload(0x40)\n      0x08c379a000000000000000000000000000000000000000000000000000000000\n      dup2\n      mstore\n      0x04\n      add\n      tag_182\n      swap1\n      tag_183\n      jump\t// in\n    tag_182:\n      mload(0x40)\n      dup1\n      swap2\n      sub\n      swap1\n      revert\n    tag_181:\n        /* \"IPFSVerifier.sol\":2838:2839  0 */\n      0x00\n        /* \"IPFSVerifier.sol\":2815:2825  cidToAppId */\n      0x02\n        /* \"IPFSVerifier.sol\":2826:2833  ipfsCID */\n      dup8\n      dup8\n        /* \"IPFSVerifier.sol\":2815:2834  cidToAppId[ipfsCID] */\n      mload(0x40)\n      tag_184\n      swap3\n      swap2\n      swap1\n      tag_136\n      jump\t// in\n    tag_184:\n      swap1\n      dup2\n      mstore\n      0x20\n      add\n      mload(0x40)\n      dup1\n      swap2\n      sub\n      swap1\n      keccak256\n      sload\n        /* \"IPFSVerifier.sol\":2815:2839  cidToAppId[ipfsCID] == 0 */\n      eq\n        /* \"IPFSVerifier.sol\":2807:2881  require(cidToAppId[ipfsCID] == 0,    \"IPFSVerifier: CID already anchored\") */\n      tag_185\n      jumpi\n      mload(0x40)\n      0x08c379a000000000000000000000000000000000000000000000000000000000\n      dup2\n      mstore\n      0x04\n      add\n      tag_186\n      swap1\n      tag_187\n      jump\t// in\n    tag_186:\n      mload(0x40)\n      dup1\n      swap2\n      sub\n      swap1\n      revert\n    tag_185:\n        /* \"IPFSVerifier.sol\":2892:2901  documents */\n      0x01\n        /* \"IPFSVerifier.sol\":2892:2916  documents[applicationId] */\n      0x00\n        /* \"IPFSVerifier.sol\":2902:2915  applicationId */\n      dup9\n        /* \"IPFSVerifier.sol\":2892:2916  documents[applicationId] */\n      dup2\n      mstore\n      0x20\n      add\n      swap1\n      dup2\n      mstore\n      0x20\n      add\n      0x00\n      keccak256\n        /* \"IPFSVerifier.sol\":2922:3121  DocumentRecord({... */\n      mload(0x40)\n      dup1\n      0xa0\n      add\n      0x40\n      mstore\n      dup1\n        /* \"IPFSVerifier.sol\":2963:2970  ipfsCID */\n      dup9\n      dup9\n        /* \"IPFSVerifier.sol\":2922:3121  DocumentRecord({... */\n      dup1\n      dup1\n      0x1f\n      add\n      0x20\n      dup1\n      swap2\n      div\n      mul\n      0x20\n      add\n      mload(0x40)\n      swap1\n      dup2\n      add\n      0x40\n      mstore\n      dup1\n      swap4\n      swap3\n      swap2\n      swap1\n      dup2\n      dup2\n      mstore\n      0x20\n      add\n      dup4\n      dup4\n      dup1\n      dup3\n      dup5\n      calldatacopy\n      0x00\n      dup2\n      dup5\n      add\n      mstore\n      not(0x1f)\n      0x1f\n      dup3\n      add\n      and\n      swap1\n      pop\n      dup1\n      dup4\n      add\n      swap3\n      pop\n      pop\n      pop\n      pop\n      pop\n      pop\n      pop\n      dup2\n      mstore\n      0x20\n      add\n        /* \"IPFSVerifier.sol\":2996:3006  sha256Hash */\n      dup7\n        /* \"IPFSVerifier.sol\":2922:3121  DocumentRecord({... */\n      dup2\n      mstore\n      0x20\n      add\n        /* \"IPFSVerifier.sol\":3032:3039  docType */\n      dup6\n      dup6\n        /* \"IPFSVerifier.sol\":2922:3121  DocumentRecord({... */\n      dup1\n      dup1\n      0x1f\n      add\n      0x20\n      dup1\n      swap2\n      div\n      mul\n      0x20\n      add\n      mload(0x40)\n      swap1\n      dup2\n      add\n      0x40\n      mstore\n      dup1\n      swap4\n      swap3\n      swap2\n      swap1\n      dup2\n      dup2\n      mstore\n      0x20\n      add\n      dup4\n      dup4\n      dup1\n      dup3\n      dup5\n      calldatacopy\n      0x00\n      dup2\n      dup5\n      add\n      mstore\n      not(0x1f)\n      0x1f\n      dup3\n      add\n      and\n      swap1\n      pop\n      dup1\n      dup4\n      add\n      swap3\n      pop\n      pop\n      pop\n      pop\n      pop\n      pop\n      pop\n      dup2\n      mstore\n      0x20\n      add\n        /* \"IPFSVerifier.sol\":3065:3080  block.timestamp */\n      timestamp\n        /* \"IPFSVerifier.sol\":2922:3121  DocumentRecord({... */\n      dup2\n      mstore\n      0x20\n      add\n        /* \"IPFSVerifier.sol\":3106:3110  true */\n      0x01\n        /* \"IPFSVerifier.sol\":2922:3121  DocumentRecord({... */\n      iszero\n      iszero\n      dup2\n      mstore\n      pop\n        /* \"IPFSVerifier.sol\":2892:3122  documents[applicationId].push(DocumentRecord({... */\n      swap1\n      dup1\n      0x01\n      dup2\n      sload\n      add\n      dup1\n      dup3\n      sstore\n      dup1\n      swap2\n      pop\n      pop\n      0x01\n      swap1\n      sub\n      swap1\n      0x00\n      mstore\n      keccak256(0x00, 0x20)\n      swap1\n      0x05\n      mul\n      add\n      0x00\n      swap1\n      swap2\n      swap1\n      swap2\n      swap1\n      swap2\n      pop\n      0x00\n      dup3\n      add\n      mload\n      dup2\n      0x00\n      add\n      swap1\n      dup2\n      tag_189\n      swap2\n      swap1\n      tag_190\n      jump\t// in\n    tag_189:\n      pop\n      0x20\n      dup3\n      add\n      mload\n      dup2\n      0x01\n      add\n      sstore\n      0x40\n      dup3\n      add\n      mload\n      dup2\n      0x02\n      add\n      swap1\n      dup2\n      tag_191\n      swap2\n      swap1\n      tag_190\n      jump\t// in\n    tag_191:\n      pop\n      0x60\n      dup3\n      add\n      mload\n      dup2\n      0x03\n      add\n      sstore\n      0x80\n      dup3\n      add\n      mload\n      dup2\n      0x04\n      add\n      exp(0x0100, 0x00)\n      dup2\n      sload\n      dup2\n      0xff\n      mul\n      not\n      and\n      swap1\n      dup4\n      iszero\n      iszero\n      mul\n      or\n      swap1\n      sstore\n      pop\n      pop\n      pop\n        /* \"IPFSVerifier.sol\":3155:3168  applicationId */\n      dup7\n        /* \"IPFSVerifier.sol\":3133:3143  cidToAppId */\n      0x02\n        /* \"IPFSVerifier.sol\":3144:3151  ipfsCID */\n      dup8\n      dup8\n        /* \"IPFSVerifier.sol\":3133:3152  cidToAppId[ipfsCID] */\n      mload(0x40)\n      tag_192\n      swap3\n      swap2\n      swap1\n      tag_136\n      jump\t// in\n    tag_192:\n      swap1\n      dup2\n      mstore\n      0x20\n      add\n      mload(0x40)\n      dup1\n      swap2\n      sub\n      swap1\n      keccak256\n        /* \"IPFSVerifier.sol\":3133:3168  cidToAppId[ipfsCID] = applicationId */\n      dup2\n      swap1\n      sstore\n      pop\n        /* \"IPFSVerifier.sol\":3201:3214  applicationId */\n      dup7\n        /* \"IPFSVerifier.sol\":3184:3262  DocumentAnchored(applicationId, ipfsCID, sha256Hash, docType, block.timestamp) */\n      0xd3e7a2dbe7458e141b9209e0c140b86bc210c7e7eb3cef382e9a80b4e2e6c575\n        /* \"IPFSVerifier.sol\":3216:3223  ipfsCID */\n      dup8\n      dup8\n        /* \"IPFSVerifier.sol\":3225:3235  sha256Hash */\n      dup8\n        /* \"IPFSVerifier.sol\":3237:3244  docType */\n      dup8\n      dup8\n        /* \"IPFSVerifier.sol\":3246:3261  block.timestamp */\n      timestamp\n        /* \"IPFSVerifier.sol\":3184:3262  DocumentAnchored(applicationId, ipfsCID, sha256Hash, docType, block.timestamp) */\n      mload(0x40)\n      tag_193\n      swap7\n      swap6\n      swap5\n      swap4\n      swap3\n      swap2\n      swap1\n      tag_194\n      jump\t// in\n    tag_193:\n      mload(0x40)\n      dup1\n      swap2\n      sub\n      swap1\n      log2\n        /* \"IPFSVerifier.sol\":2353:3269  function anchorDocument(... */\n      pop\n      pop\n      pop\n      pop\n      pop\n      pop\n      pop\n      jump\t// out\n        /* \"IPFSVerifier.sol\":4466:4626  function getDocumentManifest(uint256 applicationId)... */\n    tag_82:\n        /* \"IPFSVerifier.sol\":4549:4572  DocumentRecord[] memory */\n      0x60\n        /* \"IPFSVerifier.sol\":4595:4604  documents */\n      0x01\n        /* \"IPFSVerifier.sol\":4595:4619  documents[applicationId] */\n      0x00\n        /* \"IPFSVerifier.sol\":4605:4618  applicationId */\n      dup4\n        /* \"IPFSVerifier.sol\":4595:4619  documents[applicationId] */\n      dup2\n      mstore\n      0x20\n      add\n      swap1\n      dup2\n      mstore\n      0x20\n      add\n      0x00\n      keccak256\n        /* \"IPFSVerifier.sol\":4588:4619  return documents[applicationId] */\n      dup1\n      sload\n      dup1\n      0x20\n      mul\n      0x20\n      add\n      mload(0x40)\n      swap1\n      dup2\n      add\n      0x40\n      mstore\n      dup1\n      swap3\n      swap2\n      swap1\n      dup2\n      dup2\n      mstore\n      0x20\n      add\n      0x00\n      swap1\n    tag_196:\n      dup3\n      dup3\n      lt\n      iszero\n      tag_197\n      jumpi\n      dup4\n      dup3\n      swap1\n      0x00\n      mstore\n      keccak256(0x00, 0x20)\n      swap1\n      0x05\n      mul\n      add\n      mload(0x40)\n      dup1\n      0xa0\n      add\n      0x40\n      mstore\n      swap1\n      dup2\n      0x00\n      dup3\n      add\n      dup1\n      sload\n      tag_199\n      swap1\n      tag_109\n      jump\t// in\n    tag_199:\n      dup1\n      0x1f\n      add\n      0x20\n      dup1\n      swap2\n      div\n      mul\n      0x20\n      add\n      mload(0x40)\n      swap1\n      dup2\n      add\n      0x40\n      mstore\n      dup1\n      swap3\n      swap2\n      swap1\n      dup2\n      dup2\n      mstore\n      0x20\n      add\n      dup3\n      dup1\n      sload\n      tag_200\n      swap1\n      tag_109\n      jump\t// in\n    tag_200:\n      dup1\n      iszero\n      tag_201\n      jumpi\n      dup1\n      0x1f\n      lt\n      tag_202\n      jumpi\n      0x0100\n      dup1\n      dup4\n      sload\n      div\n      mul\n      dup4\n      mstore\n      swap2\n      0x20\n      add\n      swap2\n      jump(tag_201)\n    tag_202:\n      dup3\n      add\n      swap2\n      swap1\n      0x00\n      mstore\n      keccak256(0x00, 0x20)\n      swap1\n    tag_203:\n      dup2\n      sload\n      dup2\n      mstore\n      swap1\n      0x01\n      add\n      swap1\n      0x20\n      add\n      dup1\n      dup4\n      gt\n      tag_203\n      jumpi\n      dup3\n      swap1\n      sub\n      0x1f\n      and\n      dup3\n      add\n      swap2\n    tag_201:\n      pop\n      pop\n      pop\n      pop\n      pop\n      dup2\n      mstore\n      0x20\n      add\n      0x01\n      dup3\n      add\n      sload\n      dup2\n      mstore\n      0x20\n      add\n      0x02\n      dup3\n      add\n      dup1\n      sload\n      tag_204\n      swap1\n      tag_109\n      jump\t// in\n    tag_204:\n      dup1\n      0x1f\n      add\n      0x20\n      dup1\n      swap2\n      div\n      mul\n      0x20\n      add\n      mload(0x40)\n      swap1\n      dup2\n      add\n      0x40\n      mstore\n      dup1\n      swap3\n      swap2\n      swap1\n      dup2\n      dup2\n      mstore\n      0x20\n      add\n      dup3\n      dup1\n      sload\n      tag_205\n      swap1\n      tag_109\n      jump\t// in\n    tag_205:\n      dup1\n      iszero\n      tag_206\n      jumpi\n      dup1\n      0x1f\n      lt\n      tag_207\n      jumpi\n      0x0100\n      dup1\n      dup4\n      sload\n      div\n      mul\n      dup4\n      mstore\n      swap2\n      0x20\n      add\n      swap2\n      jump(tag_206)\n    tag_207:\n      dup3\n      add\n      swap2\n      swap1\n      0x00\n      mstore\n      keccak256(0x00, 0x20)\n      swap1\n    tag_208:\n      dup2\n      sload\n      dup2\n      mstore\n      swap1\n      0x01\n      add\n      swap1\n      0x20\n      add\n      dup1\n      dup4\n      gt\n      tag_208\n      jumpi\n      dup3\n      swap1\n      sub\n      0x1f\n      and\n      dup3\n      add\n      swap2\n    tag_206:\n      pop\n      pop\n      pop\n      pop\n      pop\n      dup2\n      mstore\n      0x20\n      add\n      0x03\n      dup3\n      add\n      sload\n      dup2\n      mstore\n      0x20\n      add\n      0x04\n      dup3\n      add\n      0x00\n      swap1\n      sload\n      swap1\n      0x0100\n      exp\n      swap1\n      div\n      0xff\n      and\n      iszero\n      iszero\n      iszero\n      iszero\n      dup2\n      mstore\n      pop\n      pop\n      dup2\n      mstore\n      0x20\n      add\n      swap1\n      0x01\n      add\n      swap1\n      jump(tag_196)\n    tag_197:\n      pop\n      pop\n      pop\n      pop\n      swap1\n      pop\n        /* \"IPFSVerifier.sol\":4466:4626  function getDocumentManifest(uint256 applicationId)... */\n      swap2\n      swap1\n      pop\n      jump\t// out\n        /* \"RoleAccess.sol\":564:641  bytes32 public constant DEFAULT_ADMIN_ROLE  = keccak256(\"DEFAULT_ADMIN_ROLE\") */\n    tag_86:\n        /* \"RoleAccess.sol\":610:641  keccak256(\"DEFAULT_ADMIN_ROLE\") */\n      0x1effbbff9c66c5e59634f24fe842750c60d18891155c32dd155fc2d661a4c86d\n        /* \"RoleAccess.sol\":564:641  bytes32 public constant DEFAULT_ADMIN_ROLE  = keccak256(\"DEFAULT_ADMIN_ROLE\") */\n      dup2\n      jump\t// out\n        /* \"RoleAccess.sol\":803:875  bytes32 public constant TREASURY_ROLE       = keccak256(\"TREASURY_ROLE\") */\n    tag_89:\n        /* \"RoleAccess.sol\":849:875  keccak256(\"TREASURY_ROLE\") */\n      0xe1dcbdb91df27212a29bc27177c840cf2f819ecf2187432e1fac86c2dd5dfca9\n        /* \"RoleAccess.sol\":803:875  bytes32 public constant TREASURY_ROLE       = keccak256(\"TREASURY_ROLE\") */\n      dup2\n      jump\t// out\n        /* \"RoleAccess.sol\":3324:3580  function revokeRole(bytes32 role, address account) external onlyAdmin {... */\n    tag_93:\n        /* \"RoleAccess.sol\":2438:2444  _roles */\n      0x00\n        /* \"RoleAccess.sol\":2438:2464  _roles[DEFAULT_ADMIN_ROLE] */\n      0x00\n        /* \"RoleAccess.sol\":610:641  keccak256(\"DEFAULT_ADMIN_ROLE\") */\n      0x1effbbff9c66c5e59634f24fe842750c60d18891155c32dd155fc2d661a4c86d\n        /* \"RoleAccess.sol\":2438:2464  _roles[DEFAULT_ADMIN_ROLE] */\n      dup2\n      mstore\n      0x20\n      add\n      swap1\n      dup2\n      mstore\n      0x20\n      add\n      0x00\n      keccak256\n        /* \"RoleAccess.sol\":2438:2476  _roles[DEFAULT_ADMIN_ROLE][msg.sender] */\n      0x00\n        /* \"RoleAccess.sol\":2465:2475  msg.sender */\n      caller\n        /* \"RoleAccess.sol\":2438:2476  _roles[DEFAULT_ADMIN_ROLE][msg.sender] */\n      0xffffffffffffffffffffffffffffffffffffffff\n      and\n      0xffffffffffffffffffffffffffffffffffffffff\n      and\n      dup2\n      mstore\n      0x20\n      add\n      swap1\n      dup2\n      mstore\n      0x20\n      add\n      0x00\n      keccak256\n      0x00\n      swap1\n      sload\n      swap1\n      0x0100\n      exp\n      swap1\n      div\n      0xff\n      and\n        /* \"RoleAccess.sol\":2430:2512  require(_roles[DEFAULT_ADMIN_ROLE][msg.sender], \"RoleAccess: caller is not admin\") */\n      tag_210\n      jumpi\n      mload(0x40)\n      0x08c379a000000000000000000000000000000000000000000000000000000000\n      dup2\n      mstore\n      0x04\n      add\n      tag_211\n      swap1\n      tag_122\n      jump\t// in\n    tag_211:\n      mload(0x40)\n      dup1\n      swap2\n      sub\n      swap1\n      revert\n    tag_210:\n        /* \"RoleAccess.sol\":3412:3418  _roles */\n      0x00\n        /* \"RoleAccess.sol\":3412:3424  _roles[role] */\n      0x00\n        /* \"RoleAccess.sol\":3419:3423  role */\n      dup4\n        /* \"RoleAccess.sol\":3412:3424  _roles[role] */\n      dup2\n      mstore\n      0x20\n      add\n      swap1\n      dup2\n      mstore\n      0x20\n      add\n      0x00\n      keccak256\n        /* \"RoleAccess.sol\":3412:3433  _roles[role][account] */\n      0x00\n        /* \"RoleAccess.sol\":3425:3432  account */\n      dup3\n        /* \"RoleAccess.sol\":3412:3433  _roles[role][account] */\n      0xffffffffffffffffffffffffffffffffffffffff\n      and\n      0xffffffffffffffffffffffffffffffffffffffff\n      and\n      dup2\n      mstore\n      0x20\n      add\n      swap1\n      dup2\n      mstore\n      0x20\n      add\n      0x00\n      keccak256\n      0x00\n      swap1\n      sload\n      swap1\n      0x0100\n      exp\n      swap1\n      div\n      0xff\n      and\n        /* \"RoleAccess.sol\":3404:3481  require(_roles[role][account], \"RoleAccess: account does not have this role\") */\n      tag_213\n      jumpi\n      mload(0x40)\n      0x08c379a000000000000000000000000000000000000000000000000000000000\n      dup2\n      mstore\n      0x04\n      add\n      tag_214\n      swap1\n      tag_215\n      jump\t// in\n    tag_214:\n      mload(0x40)\n      dup1\n      swap2\n      sub\n      swap1\n      revert\n    tag_213:\n        /* \"RoleAccess.sol\":3515:3520  false */\n      0x00\n        /* \"RoleAccess.sol\":3491:3497  _roles */\n      0x00\n        /* \"RoleAccess.sol\":3491:3503  _roles[role] */\n      0x00\n        /* \"RoleAccess.sol\":3498:3502  role */\n      dup5\n        /* \"RoleAccess.sol\":3491:3503  _roles[role] */\n      dup2\n      mstore\n      0x20\n      add\n      swap1\n      dup2\n      mstore\n      0x20\n      add\n      0x00\n      keccak256\n        /* \"RoleAccess.sol\":3491:3512  _roles[role][account] */\n      0x00\n        /* \"RoleAccess.sol\":3504:3511  account */\n      dup4\n        /* \"RoleAccess.sol\":3491:3512  _roles[role][account] */\n      0xffffffffffffffffffffffffffffffffffffffff\n      and\n      0xffffffffffffffffffffffffffffffffffffffff\n      and\n      dup2\n      mstore\n      0x20\n      add\n      swap1\n      dup2\n      mstore\n      0x20\n      add\n      0x00\n      keccak256\n      0x00\n        /* \"RoleAccess.sol\":3491:3520  _roles[role][account] = false */\n      0x0100\n      exp\n      dup2\n      sload\n      dup2\n      0xff\n      mul\n      not\n      and\n      swap1\n      dup4\n      iszero\n      iszero\n      mul\n      or\n      swap1\n      sstore\n      pop\n        /* \"RoleAccess.sol\":3562:3572  msg.sender */\n      caller\n        /* \"RoleAccess.sol\":3535:3573  RoleRevoked(role, account, msg.sender) */\n      0xffffffffffffffffffffffffffffffffffffffff\n      and\n        /* \"RoleAccess.sol\":3553:3560  account */\n      dup2\n        /* \"RoleAccess.sol\":3535:3573  RoleRevoked(role, account, msg.sender) */\n      0xffffffffffffffffffffffffffffffffffffffff\n      and\n        /* \"RoleAccess.sol\":3547:3551  role */\n      dup4\n        /* \"RoleAccess.sol\":3535:3573  RoleRevoked(role, account, msg.sender) */\n      0xf6391f5c32d9c69d2a47ea670b442974b53935d1edc7fd64eb21e047a839171b\n      mload(0x40)\n      mload(0x40)\n      dup1\n      swap2\n      sub\n      swap1\n      log4\n        /* \"RoleAccess.sol\":3324:3580  function revokeRole(bytes32 role, address account) external onlyAdmin {... */\n      pop\n      pop\n      jump\t// out\n        /* \"IPFSVerifier.sol\":5069:5202  function documentCount(uint256 applicationId) external view returns (uint256) {... */\n    tag_96:\n        /* \"IPFSVerifier.sol\":5138:5145  uint256 */\n      0x00\n        /* \"IPFSVerifier.sol\":5164:5173  documents */\n      0x01\n        /* \"IPFSVerifier.sol\":5164:5188  documents[applicationId] */\n      0x00\n        /* \"IPFSVerifier.sol\":5174:5187  applicationId */\n      dup4\n        /* \"IPFSVerifier.sol\":5164:5188  documents[applicationId] */\n      dup2\n      mstore\n      0x20\n      add\n      swap1\n      dup2\n      mstore\n      0x20\n      add\n      0x00\n      keccak256\n        /* \"IPFSVerifier.sol\":5164:5195  documents[applicationId].length */\n      dup1\n      sload\n      swap1\n      pop\n        /* \"IPFSVerifier.sol\":5157:5195  return documents[applicationId].length */\n      swap1\n      pop\n        /* \"IPFSVerifier.sol\":5069:5202  function documentCount(uint256 applicationId) external view returns (uint256) {... */\n      swap2\n      swap1\n      pop\n      jump\t// out\n    tag_99:\n      mload(0x40)\n      dup1\n      0xa0\n      add\n      0x40\n      mstore\n      dup1\n      0x60\n      dup2\n      mstore\n      0x20\n      add\n      0x00\n      dup2\n      mstore\n      0x20\n      add\n      0x60\n      dup2\n      mstore\n      0x20\n      add\n      0x00\n      dup2\n      mstore\n      0x20\n      add\n      iszero(iszero(0x00))\n      dup2\n      mstore\n      pop\n      swap1\n      jump\t// out\n        /* \"#utility.yul\":88:205   */\n    tag_218:\n        /* \"#utility.yul\":197:198   */\n      0x00\n        /* \"#utility.yul\":194:195   */\n      0x00\n        /* \"#utility.yul\":187:199   */\n      revert\n        /* \"#utility.yul\":211:328   */\n    tag_219:\n        /* \"#utility.yul\":320:321   */\n      0x00\n        /* \"#utility.yul\":317:318   */\n      0x00\n        /* \"#utility.yul\":310:322   */\n      revert\n        /* \"#utility.yul\":334:411   */\n    tag_220:\n        /* \"#utility.yul\":371:378   */\n      0x00\n        /* \"#utility.yul\":400:405   */\n      dup2\n        /* \"#utility.yul\":389:405   */\n      swap1\n      pop\n        /* \"#utility.yul\":334:411   */\n      swap2\n      swap1\n      pop\n      jump\t// out\n        /* \"#utility.yul\":417:539   */\n    tag_221:\n        /* \"#utility.yul\":490:514   */\n      tag_307\n        /* \"#utility.yul\":508:513   */\n      dup2\n        /* \"#utility.yul\":490:514   */\n      tag_220\n      jump\t// in\n    tag_307:\n        /* \"#utility.yul\":483:488   */\n      dup2\n        /* \"#utility.yul\":480:515   */\n      eq\n        /* \"#utility.yul\":470:533   */\n      tag_308\n      jumpi\n        /* \"#utility.yul\":529:530   */\n      0x00\n        /* \"#utility.yul\":526:527   */\n      0x00\n        /* \"#utility.yul\":519:531   */\n      revert\n        /* \"#utility.yul\":470:533   */\n    tag_308:\n        /* \"#utility.yul\":417:539   */\n      pop\n      jump\t// out\n        /* \"#utility.yul\":545:684   */\n    tag_222:\n        /* \"#utility.yul\":591:596   */\n      0x00\n        /* \"#utility.yul\":629:635   */\n      dup2\n        /* \"#utility.yul\":616:636   */\n      calldataload\n        /* \"#utility.yul\":607:636   */\n      swap1\n      pop\n        /* \"#utility.yul\":645:678   */\n      tag_310\n        /* \"#utility.yul\":672:677   */\n      dup2\n        /* \"#utility.yul\":645:678   */\n      tag_221\n      jump\t// in\n    tag_310:\n        /* \"#utility.yul\":545:684   */\n      swap3\n      swap2\n      pop\n      pop\n      jump\t// out\n        /* \"#utility.yul\":690:1164   */\n    tag_26:\n        /* \"#utility.yul\":758:764   */\n      0x00\n        /* \"#utility.yul\":766:772   */\n      0x00\n        /* \"#utility.yul\":815:817   */\n      0x40\n        /* \"#utility.yul\":803:812   */\n      dup4\n        /* \"#utility.yul\":794:801   */\n      dup6\n        /* \"#utility.yul\":790:813   */\n      sub\n        /* \"#utility.yul\":786:818   */\n      slt\n        /* \"#utility.yul\":783:902   */\n      iszero\n      tag_312\n      jumpi\n        /* \"#utility.yul\":821:900   */\n      tag_313\n      tag_218\n      jump\t// in\n    tag_313:\n        /* \"#utility.yul\":783:902   */\n    tag_312:\n        /* \"#utility.yul\":941:942   */\n      0x00\n        /* \"#utility.yul\":966:1019   */\n      tag_314\n        /* \"#utility.yul\":1011:1018   */\n      dup6\n        /* \"#utility.yul\":1002:1008   */\n      dup3\n        /* \"#utility.yul\":991:1000   */\n      dup7\n        /* \"#utility.yul\":987:1009   */\n      add\n        /* \"#utility.yul\":966:1019   */\n      tag_222\n      jump\t// in\n    tag_314:\n        /* \"#utility.yul\":956:1019   */\n      swap3\n      pop\n        /* \"#utility.yul\":912:1029   */\n      pop\n        /* \"#utility.yul\":1068:1070   */\n      0x20\n        /* \"#utility.yul\":1094:1147   */\n      tag_315\n        /* \"#utility.yul\":1139:1146   */\n      dup6\n        /* \"#utility.yul\":1130:1136   */\n      dup3\n        /* \"#utility.yul\":1119:1128   */\n      dup7\n        /* \"#utility.yul\":1115:1137   */\n      add\n        /* \"#utility.yul\":1094:1147   */\n      tag_222\n      jump\t// in\n    tag_315:\n        /* \"#utility.yul\":1084:1147   */\n      swap2\n      pop\n        /* \"#utility.yul\":1039:1157   */\n      pop\n        /* \"#utility.yul\":690:1164   */\n      swap3\n      pop\n      swap3\n      swap1\n      pop\n      jump\t// out\n        /* \"#utility.yul\":1170:1269   */\n    tag_223:\n        /* \"#utility.yul\":1222:1228   */\n      0x00\n        /* \"#utility.yul\":1256:1261   */\n      dup2\n        /* \"#utility.yul\":1250:1262   */\n      mload\n        /* \"#utility.yul\":1240:1262   */\n      swap1\n      pop\n        /* \"#utility.yul\":1170:1269   */\n      swap2\n      swap1\n      pop\n      jump\t// out\n        /* \"#utility.yul\":1275:1434   */\n    tag_224:\n        /* \"#utility.yul\":1349:1360   */\n      0x00\n        /* \"#utility.yul\":1383:1389   */\n      dup3\n        /* \"#utility.yul\":1378:1381   */\n      dup3\n        /* \"#utility.yul\":1371:1390   */\n      mstore\n        /* \"#utility.yul\":1423:1427   */\n      0x20\n        /* \"#utility.yul\":1418:1421   */\n      dup3\n        /* \"#utility.yul\":1414:1428   */\n      add\n        /* \"#utility.yul\":1399:1428   */\n      swap1\n      pop\n        /* \"#utility.yul\":1275:1434   */\n      swap3\n      swap2\n      pop\n      pop\n      jump\t// out\n        /* \"#utility.yul\":1440:1579   */\n    tag_225:\n        /* \"#utility.yul\":1529:1535   */\n      dup3\n        /* \"#utility.yul\":1524:1527   */\n      dup2\n        /* \"#utility.yul\":1519:1522   */\n      dup4\n        /* \"#utility.yul\":1513:1536   */\n      mcopy\n        /* \"#utility.yul\":1570:1571   */\n      0x00\n        /* \"#utility.yul\":1561:1567   */\n      dup4\n        /* \"#utility.yul\":1556:1559   */\n      dup4\n        /* \"#utility.yul\":1552:1568   */\n      add\n        /* \"#utility.yul\":1545:1572   */\n      mstore\n        /* \"#utility.yul\":1440:1579   */\n      pop\n      pop\n      pop\n      jump\t// out\n        /* \"#utility.yul\":1585:1687   */\n    tag_226:\n        /* \"#utility.yul\":1626:1632   */\n      0x00\n        /* \"#utility.yul\":1677:1679   */\n      0x1f\n        /* \"#utility.yul\":1673:1680   */\n      not\n        /* \"#utility.yul\":1668:1670   */\n      0x1f\n        /* \"#utility.yul\":1661:1666   */\n      dup4\n        /* \"#utility.yul\":1657:1671   */\n      add\n        /* \"#utility.yul\":1653:1681   */\n      and\n        /* \"#utility.yul\":1643:1681   */\n      swap1\n      pop\n        /* \"#utility.yul\":1585:1687   */\n      swap2\n      swap1\n      pop\n      jump\t// out\n        /* \"#utility.yul\":1693:2050   */\n    tag_227:\n        /* \"#utility.yul\":1771:1774   */\n      0x00\n        /* \"#utility.yul\":1799:1838   */\n      tag_321\n        /* \"#utility.yul\":1832:1837   */\n      dup3\n        /* \"#utility.yul\":1799:1838   */\n      tag_223\n      jump\t// in\n    tag_321:\n        /* \"#utility.yul\":1854:1915   */\n      tag_322\n        /* \"#utility.yul\":1908:1914   */\n      dup2\n        /* \"#utility.yul\":1903:1906   */\n      dup6\n        /* \"#utility.yul\":1854:1915   */\n      tag_224\n      jump\t// in\n    tag_322:\n        /* \"#utility.yul\":1847:1915   */\n      swap4\n      pop\n        /* \"#utility.yul\":1924:1989   */\n      tag_323\n        /* \"#utility.yul\":1982:1988   */\n      dup2\n        /* \"#utility.yul\":1977:1980   */\n      dup6\n        /* \"#utility.yul\":1970:1974   */\n      0x20\n        /* \"#utility.yul\":1963:1968   */\n      dup7\n        /* \"#utility.yul\":1959:1975   */\n      add\n        /* \"#utility.yul\":1924:1989   */\n      tag_225\n      jump\t// in\n    tag_323:\n        /* \"#utility.yul\":2014:2043   */\n      tag_324\n        /* \"#utility.yul\":2036:2042   */\n      dup2\n        /* \"#utility.yul\":2014:2043   */\n      tag_226\n      jump\t// in\n    tag_324:\n        /* \"#utility.yul\":2009:2012   */\n      dup5\n        /* \"#utility.yul\":2005:2044   */\n      add\n        /* \"#utility.yul\":1998:2044   */\n      swap2\n      pop\n        /* \"#utility.yul\":1775:2050   */\n      pop\n        /* \"#utility.yul\":1693:2050   */\n      swap3\n      swap2\n      pop\n      pop\n      jump\t// out\n        /* \"#utility.yul\":2056:2133   */\n    tag_228:\n        /* \"#utility.yul\":2093:2100   */\n      0x00\n        /* \"#utility.yul\":2122:2127   */\n      dup2\n        /* \"#utility.yul\":2111:2127   */\n      swap1\n      pop\n        /* \"#utility.yul\":2056:2133   */\n      swap2\n      swap1\n      pop\n      jump\t// out\n        /* \"#utility.yul\":2139:2247   */\n    tag_229:\n        /* \"#utility.yul\":2216:2240   */\n      tag_327\n        /* \"#utility.yul\":2234:2239   */\n      dup2\n        /* \"#utility.yul\":2216:2240   */\n      tag_228\n      jump\t// in\n    tag_327:\n        /* \"#utility.yul\":2211:2214   */\n      dup3\n        /* \"#utility.yul\":2204:2241   */\n      mstore\n        /* \"#utility.yul\":2139:2247   */\n      pop\n      pop\n      jump\t// out\n        /* \"#utility.yul\":2253:2361   */\n    tag_230:\n        /* \"#utility.yul\":2330:2354   */\n      tag_329\n        /* \"#utility.yul\":2348:2353   */\n      dup2\n        /* \"#utility.yul\":2330:2354   */\n      tag_220\n      jump\t// in\n    tag_329:\n        /* \"#utility.yul\":2325:2328   */\n      dup3\n        /* \"#utility.yul\":2318:2355   */\n      mstore\n        /* \"#utility.yul\":2253:2361   */\n      pop\n      pop\n      jump\t// out\n        /* \"#utility.yul\":2367:2457   */\n    tag_231:\n        /* \"#utility.yul\":2401:2408   */\n      0x00\n        /* \"#utility.yul\":2444:2449   */\n      dup2\n        /* \"#utility.yul\":2437:2450   */\n      iszero\n        /* \"#utility.yul\":2430:2451   */\n      iszero\n        /* \"#utility.yul\":2419:2451   */\n      swap1\n      pop\n        /* \"#utility.yul\":2367:2457   */\n      swap2\n      swap1\n      pop\n      jump\t// out\n        /* \"#utility.yul\":2463:2562   */\n    tag_232:\n        /* \"#utility.yul\":2534:2555   */\n      tag_332\n        /* \"#utility.yul\":2549:2554   */\n      dup2\n        /* \"#utility.yul\":2534:2555   */\n      tag_231\n      jump\t// in\n    tag_332:\n        /* \"#utility.yul\":2529:2532   */\n      dup3\n        /* \"#utility.yul\":2522:2556   */\n      mstore\n        /* \"#utility.yul\":2463:2562   */\n      pop\n      pop\n      jump\t// out\n        /* \"#utility.yul\":2648:3871   */\n    tag_233:\n        /* \"#utility.yul\":2777:2780   */\n      0x00\n        /* \"#utility.yul\":2813:2817   */\n      0xa0\n        /* \"#utility.yul\":2808:2811   */\n      dup4\n        /* \"#utility.yul\":2804:2818   */\n      add\n        /* \"#utility.yul\":2903:2907   */\n      0x00\n        /* \"#utility.yul\":2896:2901   */\n      dup4\n        /* \"#utility.yul\":2892:2908   */\n      add\n        /* \"#utility.yul\":2886:2909   */\n      mload\n        /* \"#utility.yul\":2956:2959   */\n      dup5\n        /* \"#utility.yul\":2950:2954   */\n      dup3\n        /* \"#utility.yul\":2946:2960   */\n      sub\n        /* \"#utility.yul\":2939:2943   */\n      0x00\n        /* \"#utility.yul\":2934:2937   */\n      dup7\n        /* \"#utility.yul\":2930:2944   */\n      add\n        /* \"#utility.yul\":2923:2961   */\n      mstore\n        /* \"#utility.yul\":2982:3055   */\n      tag_334\n        /* \"#utility.yul\":3050:3054   */\n      dup3\n        /* \"#utility.yul\":3036:3048   */\n      dup3\n        /* \"#utility.yul\":2982:3055   */\n      tag_227\n      jump\t// in\n    tag_334:\n        /* \"#utility.yul\":2974:3055   */\n      swap2\n      pop\n        /* \"#utility.yul\":2828:3066   */\n      pop\n        /* \"#utility.yul\":3154:3158   */\n      0x20\n        /* \"#utility.yul\":3147:3152   */\n      dup4\n        /* \"#utility.yul\":3143:3159   */\n      add\n        /* \"#utility.yul\":3137:3160   */\n      mload\n        /* \"#utility.yul\":3173:3236   */\n      tag_335\n        /* \"#utility.yul\":3230:3234   */\n      0x20\n        /* \"#utility.yul\":3225:3228   */\n      dup7\n        /* \"#utility.yul\":3221:3235   */\n      add\n        /* \"#utility.yul\":3207:3219   */\n      dup3\n        /* \"#utility.yul\":3173:3236   */\n      tag_229\n      jump\t// in\n    tag_335:\n        /* \"#utility.yul\":3076:3246   */\n      pop\n        /* \"#utility.yul\":3331:3335   */\n      0x40\n        /* \"#utility.yul\":3324:3329   */\n      dup4\n        /* \"#utility.yul\":3320:3336   */\n      add\n        /* \"#utility.yul\":3314:3337   */\n      mload\n        /* \"#utility.yul\":3384:3387   */\n      dup5\n        /* \"#utility.yul\":3378:3382   */\n      dup3\n        /* \"#utility.yul\":3374:3388   */\n      sub\n        /* \"#utility.yul\":3367:3371   */\n      0x40\n        /* \"#utility.yul\":3362:3365   */\n      dup7\n        /* \"#utility.yul\":3358:3372   */\n      add\n        /* \"#utility.yul\":3351:3389   */\n      mstore\n        /* \"#utility.yul\":3410:3483   */\n      tag_336\n        /* \"#utility.yul\":3478:3482   */\n      dup3\n        /* \"#utility.yul\":3464:3476   */\n      dup3\n        /* \"#utility.yul\":3410:3483   */\n      tag_227\n      jump\t// in\n    tag_336:\n        /* \"#utility.yul\":3402:3483   */\n      swap2\n      pop\n        /* \"#utility.yul\":3256:3494   */\n      pop\n        /* \"#utility.yul\":3582:3586   */\n      0x60\n        /* \"#utility.yul\":3575:3580   */\n      dup4\n        /* \"#utility.yul\":3571:3587   */\n      add\n        /* \"#utility.yul\":3565:3588   */\n      mload\n        /* \"#utility.yul\":3601:3664   */\n      tag_337\n        /* \"#utility.yul\":3658:3662   */\n      0x60\n        /* \"#utility.yul\":3653:3656   */\n      dup7\n        /* \"#utility.yul\":3649:3663   */\n      add\n        /* \"#utility.yul\":3635:3647   */\n      dup3\n        /* \"#utility.yul\":3601:3664   */\n      tag_230\n      jump\t// in\n    tag_337:\n        /* \"#utility.yul\":3504:3674   */\n      pop\n        /* \"#utility.yul\":3758:3762   */\n      0x80\n        /* \"#utility.yul\":3751:3756   */\n      dup4\n        /* \"#utility.yul\":3747:3763   */\n      add\n        /* \"#utility.yul\":3741:3764   */\n      mload\n        /* \"#utility.yul\":3777:3834   */\n      tag_338\n        /* \"#utility.yul\":3828:3832   */\n      0x80\n        /* \"#utility.yul\":3823:3826   */\n      dup7\n        /* \"#utility.yul\":3819:3833   */\n      add\n        /* \"#utility.yul\":3805:3817   */\n      dup3\n        /* \"#utility.yul\":3777:3834   */\n      tag_232\n      jump\t// in\n    tag_338:\n        /* \"#utility.yul\":3684:3844   */\n      pop\n        /* \"#utility.yul\":3861:3865   */\n      dup1\n        /* \"#utility.yul\":3854:3865   */\n      swap2\n      pop\n        /* \"#utility.yul\":2782:3871   */\n      pop\n        /* \"#utility.yul\":2648:3871   */\n      swap3\n      swap2\n      pop\n      pop\n      jump\t// out\n        /* \"#utility.yul\":3877:4270   */\n    tag_29:\n        /* \"#utility.yul\":4030:4034   */\n      0x00\n        /* \"#utility.yul\":4068:4070   */\n      0x20\n        /* \"#utility.yul\":4057:4066   */\n      dup3\n        /* \"#utility.yul\":4053:4071   */\n      add\n        /* \"#utility.yul\":4045:4071   */\n      swap1\n      pop\n        /* \"#utility.yul\":4117:4126   */\n      dup2\n        /* \"#utility.yul\":4111:4115   */\n      dup2\n        /* \"#utility.yul\":4107:4127   */\n      sub\n        /* \"#utility.yul\":4103:4104   */\n      0x00\n        /* \"#utility.yul\":4092:4101   */\n      dup4\n        /* \"#utility.yul\":4088:4105   */\n      add\n        /* \"#utility.yul\":4081:4128   */\n      mstore\n        /* \"#utility.yul\":4145:4263   */\n      tag_340\n        /* \"#utility.yul\":4258:4262   */\n      dup2\n        /* \"#utility.yul\":4249:4255   */\n      dup5\n        /* \"#utility.yul\":4145:4263   */\n      tag_233\n      jump\t// in\n    tag_340:\n        /* \"#utility.yul\":4137:4263   */\n      swap1\n      pop\n        /* \"#utility.yul\":3877:4270   */\n      swap3\n      swap2\n      pop\n      pop\n      jump\t// out\n        /* \"#utility.yul\":4276:4393   */\n    tag_234:\n        /* \"#utility.yul\":4385:4386   */\n      0x00\n        /* \"#utility.yul\":4382:4383   */\n      0x00\n        /* \"#utility.yul\":4375:4387   */\n      revert\n        /* \"#utility.yul\":4399:4516   */\n    tag_235:\n        /* \"#utility.yul\":4508:4509   */\n      0x00\n        /* \"#utility.yul\":4505:4506   */\n      0x00\n        /* \"#utility.yul\":4498:4510   */\n      revert\n        /* \"#utility.yul\":4522:4639   */\n    tag_236:\n        /* \"#utility.yul\":4631:4632   */\n      0x00\n        /* \"#utility.yul\":4628:4629   */\n      0x00\n        /* \"#utility.yul\":4621:4633   */\n      revert\n        /* \"#utility.yul\":4662:5230   */\n    tag_237:\n        /* \"#utility.yul\":4735:4743   */\n      0x00\n        /* \"#utility.yul\":4745:4751   */\n      0x00\n        /* \"#utility.yul\":4795:4798   */\n      dup4\n        /* \"#utility.yul\":4788:4792   */\n      0x1f\n        /* \"#utility.yul\":4780:4786   */\n      dup5\n        /* \"#utility.yul\":4776:4793   */\n      add\n        /* \"#utility.yul\":4772:4799   */\n      slt\n        /* \"#utility.yul\":4762:4884   */\n      tag_345\n      jumpi\n        /* \"#utility.yul\":4803:4882   */\n      tag_346\n      tag_234\n      jump\t// in\n    tag_346:\n        /* \"#utility.yul\":4762:4884   */\n    tag_345:\n        /* \"#utility.yul\":4916:4922   */\n      dup3\n        /* \"#utility.yul\":4903:4923   */\n      calldataload\n        /* \"#utility.yul\":4893:4923   */\n      swap1\n      pop\n        /* \"#utility.yul\":4946:4964   */\n      0xffffffffffffffff\n        /* \"#utility.yul\":4938:4944   */\n      dup2\n        /* \"#utility.yul\":4935:4965   */\n      gt\n        /* \"#utility.yul\":4932:5049   */\n      iszero\n      tag_347\n      jumpi\n        /* \"#utility.yul\":4968:5047   */\n      tag_348\n      tag_235\n      jump\t// in\n    tag_348:\n        /* \"#utility.yul\":4932:5049   */\n    tag_347:\n        /* \"#utility.yul\":5082:5086   */\n      0x20\n        /* \"#utility.yul\":5074:5080   */\n      dup4\n        /* \"#utility.yul\":5070:5087   */\n      add\n        /* \"#utility.yul\":5058:5087   */\n      swap2\n      pop\n        /* \"#utility.yul\":5136:5139   */\n      dup4\n        /* \"#utility.yul\":5128:5132   */\n      0x20\n        /* \"#utility.yul\":5120:5126   */\n      dup3\n        /* \"#utility.yul\":5116:5133   */\n      mul\n        /* \"#utility.yul\":5106:5114   */\n      dup4\n        /* \"#utility.yul\":5102:5134   */\n      add\n        /* \"#utility.yul\":5099:5140   */\n      gt\n        /* \"#utility.yul\":5096:5224   */\n      iszero\n      tag_349\n      jumpi\n        /* \"#utility.yul\":5143:5222   */\n      tag_350\n      tag_236\n      jump\t// in\n    tag_350:\n        /* \"#utility.yul\":5096:5224   */\n    tag_349:\n        /* \"#utility.yul\":4662:5230   */\n      swap3\n      pop\n      swap3\n      swap1\n      pop\n      jump\t// out\n        /* \"#utility.yul\":5236:5362   */\n    tag_238:\n        /* \"#utility.yul\":5273:5280   */\n      0x00\n        /* \"#utility.yul\":5313:5355   */\n      0xffffffffffffffffffffffffffffffffffffffff\n        /* \"#utility.yul\":5306:5311   */\n      dup3\n        /* \"#utility.yul\":5302:5356   */\n      and\n        /* \"#utility.yul\":5291:5356   */\n      swap1\n      pop\n        /* \"#utility.yul\":5236:5362   */\n      swap2\n      swap1\n      pop\n      jump\t// out\n        /* \"#utility.yul\":5368:5464   */\n    tag_239:\n        /* \"#utility.yul\":5405:5412   */\n      0x00\n        /* \"#utility.yul\":5434:5458   */\n      tag_353\n        /* \"#utility.yul\":5452:5457   */\n      dup3\n        /* \"#utility.yul\":5434:5458   */\n      tag_238\n      jump\t// in\n    tag_353:\n        /* \"#utility.yul\":5423:5458   */\n      swap1\n      pop\n        /* \"#utility.yul\":5368:5464   */\n      swap2\n      swap1\n      pop\n      jump\t// out\n        /* \"#utility.yul\":5470:5592   */\n    tag_240:\n        /* \"#utility.yul\":5543:5567   */\n      tag_355\n        /* \"#utility.yul\":5561:5566   */\n      dup2\n        /* \"#utility.yul\":5543:5567   */\n      tag_239\n      jump\t// in\n    tag_355:\n        /* \"#utility.yul\":5536:5541   */\n      dup2\n        /* \"#utility.yul\":5533:5568   */\n      eq\n        /* \"#utility.yul\":5523:5586   */\n      tag_356\n      jumpi\n        /* \"#utility.yul\":5582:5583   */\n      0x00\n        /* \"#utility.yul\":5579:5580   */\n      0x00\n        /* \"#utility.yul\":5572:5584   */\n      revert\n        /* \"#utility.yul\":5523:5586   */\n    tag_356:\n        /* \"#utility.yul\":5470:5592   */\n      pop\n      jump\t// out\n        /* \"#utility.yul\":5598:5737   */\n    tag_241:\n        /* \"#utility.yul\":5644:5649   */\n      0x00\n        /* \"#utility.yul\":5682:5688   */\n      dup2\n        /* \"#utility.yul\":5669:5689   */\n      calldataload\n        /* \"#utility.yul\":5660:5689   */\n      swap1\n      pop\n        /* \"#utility.yul\":5698:5731   */\n      tag_358\n        /* \"#utility.yul\":5725:5730   */\n      dup2\n        /* \"#utility.yul\":5698:5731   */\n      tag_240\n      jump\t// in\n    tag_358:\n        /* \"#utility.yul\":5598:5737   */\n      swap3\n      swap2\n      pop\n      pop\n      jump\t// out\n        /* \"#utility.yul\":5743:6447   */\n    tag_32:\n        /* \"#utility.yul\":5838:5844   */\n      0x00\n        /* \"#utility.yul\":5846:5852   */\n      0x00\n        /* \"#utility.yul\":5854:5860   */\n      0x00\n        /* \"#utility.yul\":5903:5905   */\n      0x40\n        /* \"#utility.yul\":5891:5900   */\n      dup5\n        /* \"#utility.yul\":5882:5889   */\n      dup7\n        /* \"#utility.yul\":5878:5901   */\n      sub\n        /* \"#utility.yul\":5874:5906   */\n      slt\n        /* \"#utility.yul\":5871:5990   */\n      iszero\n      tag_360\n      jumpi\n        /* \"#utility.yul\":5909:5988   */\n      tag_361\n      tag_218\n      jump\t// in\n    tag_361:\n        /* \"#utility.yul\":5871:5990   */\n    tag_360:\n        /* \"#utility.yul\":6057:6058   */\n      0x00\n        /* \"#utility.yul\":6046:6055   */\n      dup5\n        /* \"#utility.yul\":6042:6059   */\n      add\n        /* \"#utility.yul\":6029:6060   */\n      calldataload\n        /* \"#utility.yul\":6087:6105   */\n      0xffffffffffffffff\n        /* \"#utility.yul\":6079:6085   */\n      dup2\n        /* \"#utility.yul\":6076:6106   */\n      gt\n        /* \"#utility.yul\":6073:6190   */\n      iszero\n      tag_362\n      jumpi\n        /* \"#utility.yul\":6109:6188   */\n      tag_363\n      tag_219\n      jump\t// in\n    tag_363:\n        /* \"#utility.yul\":6073:6190   */\n    tag_362:\n        /* \"#utility.yul\":6222:6302   */\n      tag_364\n        /* \"#utility.yul\":6294:6301   */\n      dup7\n        /* \"#utility.yul\":6285:6291   */\n      dup3\n        /* \"#utility.yul\":6274:6283   */\n      dup8\n        /* \"#utility.yul\":6270:6292   */\n      add\n        /* \"#utility.yul\":6222:6302   */\n      tag_237\n      jump\t// in\n    tag_364:\n        /* \"#utility.yul\":6204:6302   */\n      swap4\n      pop\n      swap4\n      pop\n        /* \"#utility.yul\":6000:6312   */\n      pop\n        /* \"#utility.yul\":6351:6353   */\n      0x20\n        /* \"#utility.yul\":6377:6430   */\n      tag_365\n        /* \"#utility.yul\":6422:6429   */\n      dup7\n        /* \"#utility.yul\":6413:6419   */\n      dup3\n        /* \"#utility.yul\":6402:6411   */\n      dup8\n        /* \"#utility.yul\":6398:6420   */\n      add\n        /* \"#utility.yul\":6377:6430   */\n      tag_241\n      jump\t// in\n    tag_365:\n        /* \"#utility.yul\":6367:6430   */\n      swap2\n      pop\n        /* \"#utility.yul\":6322:6440   */\n      pop\n        /* \"#utility.yul\":5743:6447   */\n      swap3\n      pop\n      swap3\n      pop\n      swap3\n      jump\t// out\n        /* \"#utility.yul\":6467:7020   */\n    tag_242:\n        /* \"#utility.yul\":6525:6533   */\n      0x00\n        /* \"#utility.yul\":6535:6541   */\n      0x00\n        /* \"#utility.yul\":6585:6588   */\n      dup4\n        /* \"#utility.yul\":6578:6582   */\n      0x1f\n        /* \"#utility.yul\":6570:6576   */\n      dup5\n        /* \"#utility.yul\":6566:6583   */\n      add\n        /* \"#utility.yul\":6562:6589   */\n      slt\n        /* \"#utility.yul\":6552:6674   */\n      tag_367\n      jumpi\n        /* \"#utility.yul\":6593:6672   */\n      tag_368\n      tag_234\n      jump\t// in\n    tag_368:\n        /* \"#utility.yul\":6552:6674   */\n    tag_367:\n        /* \"#utility.yul\":6706:6712   */\n      dup3\n        /* \"#utility.yul\":6693:6713   */\n      calldataload\n        /* \"#utility.yul\":6683:6713   */\n      swap1\n      pop\n        /* \"#utility.yul\":6736:6754   */\n      0xffffffffffffffff\n        /* \"#utility.yul\":6728:6734   */\n      dup2\n        /* \"#utility.yul\":6725:6755   */\n      gt\n        /* \"#utility.yul\":6722:6839   */\n      iszero\n      tag_369\n      jumpi\n        /* \"#utility.yul\":6758:6837   */\n      tag_370\n      tag_235\n      jump\t// in\n    tag_370:\n        /* \"#utility.yul\":6722:6839   */\n    tag_369:\n        /* \"#utility.yul\":6872:6876   */\n      0x20\n        /* \"#utility.yul\":6864:6870   */\n      dup4\n        /* \"#utility.yul\":6860:6877   */\n      add\n        /* \"#utility.yul\":6848:6877   */\n      swap2\n      pop\n        /* \"#utility.yul\":6926:6929   */\n      dup4\n        /* \"#utility.yul\":6918:6922   */\n      0x01\n        /* \"#utility.yul\":6910:6916   */\n      dup3\n        /* \"#utility.yul\":6906:6923   */\n      mul\n        /* \"#utility.yul\":6896:6904   */\n      dup4\n        /* \"#utility.yul\":6892:6924   */\n      add\n        /* \"#utility.yul\":6889:6930   */\n      gt\n        /* \"#utility.yul\":6886:7014   */\n      iszero\n      tag_371\n      jumpi\n        /* \"#utility.yul\":6933:7012   */\n      tag_372\n      tag_236\n      jump\t// in\n    tag_372:\n        /* \"#utility.yul\":6886:7014   */\n    tag_371:\n        /* \"#utility.yul\":6467:7020   */\n      swap3\n      pop\n      swap3\n      swap1\n      pop\n      jump\t// out\n        /* \"#utility.yul\":7026:7555   */\n    tag_36:\n        /* \"#utility.yul\":7097:7103   */\n      0x00\n        /* \"#utility.yul\":7105:7111   */\n      0x00\n        /* \"#utility.yul\":7154:7156   */\n      0x20\n        /* \"#utility.yul\":7142:7151   */\n      dup4\n        /* \"#utility.yul\":7133:7140   */\n      dup6\n        /* \"#utility.yul\":7129:7152   */\n      sub\n        /* \"#utility.yul\":7125:7157   */\n      slt\n        /* \"#utility.yul\":7122:7241   */\n      iszero\n      tag_374\n      jumpi\n        /* \"#utility.yul\":7160:7239   */\n      tag_375\n      tag_218\n      jump\t// in\n    tag_375:\n        /* \"#utility.yul\":7122:7241   */\n    tag_374:\n        /* \"#utility.yul\":7308:7309   */\n      0x00\n        /* \"#utility.yul\":7297:7306   */\n      dup4\n        /* \"#utility.yul\":7293:7310   */\n      add\n        /* \"#utility.yul\":7280:7311   */\n      calldataload\n        /* \"#utility.yul\":7338:7356   */\n      0xffffffffffffffff\n        /* \"#utility.yul\":7330:7336   */\n      dup2\n        /* \"#utility.yul\":7327:7357   */\n      gt\n        /* \"#utility.yul\":7324:7441   */\n      iszero\n      tag_376\n      jumpi\n        /* \"#utility.yul\":7360:7439   */\n      tag_377\n      tag_219\n      jump\t// in\n    tag_377:\n        /* \"#utility.yul\":7324:7441   */\n    tag_376:\n        /* \"#utility.yul\":7473:7538   */\n      tag_378\n        /* \"#utility.yul\":7530:7537   */\n      dup6\n        /* \"#utility.yul\":7521:7527   */\n      dup3\n        /* \"#utility.yul\":7510:7519   */\n      dup7\n        /* \"#utility.yul\":7506:7528   */\n      add\n        /* \"#utility.yul\":7473:7538   */\n      tag_242\n      jump\t// in\n    tag_378:\n        /* \"#utility.yul\":7455:7538   */\n      swap3\n      pop\n      swap3\n      pop\n        /* \"#utility.yul\":7251:7548   */\n      pop\n        /* \"#utility.yul\":7026:7555   */\n      swap3\n      pop\n      swap3\n      swap1\n      pop\n      jump\t// out\n        /* \"#utility.yul\":7561:7679   */\n    tag_243:\n        /* \"#utility.yul\":7648:7672   */\n      tag_380\n        /* \"#utility.yul\":7666:7671   */\n      dup2\n        /* \"#utility.yul\":7648:7672   */\n      tag_220\n      jump\t// in\n    tag_380:\n        /* \"#utility.yul\":7643:7646   */\n      dup3\n        /* \"#utility.yul\":7636:7673   */\n      mstore\n        /* \"#utility.yul\":7561:7679   */\n      pop\n      pop\n      jump\t// out\n        /* \"#utility.yul\":7685:7907   */\n    tag_39:\n        /* \"#utility.yul\":7778:7782   */\n      0x00\n        /* \"#utility.yul\":7816:7818   */\n      0x20\n        /* \"#utility.yul\":7805:7814   */\n      dup3\n        /* \"#utility.yul\":7801:7819   */\n      add\n        /* \"#utility.yul\":7793:7819   */\n      swap1\n      pop\n        /* \"#utility.yul\":7829:7900   */\n      tag_382\n        /* \"#utility.yul\":7897:7898   */\n      0x00\n        /* \"#utility.yul\":7886:7895   */\n      dup4\n        /* \"#utility.yul\":7882:7899   */\n      add\n        /* \"#utility.yul\":7873:7879   */\n      dup5\n        /* \"#utility.yul\":7829:7900   */\n      tag_243\n      jump\t// in\n    tag_382:\n        /* \"#utility.yul\":7685:7907   */\n      swap3\n      swap2\n      pop\n      pop\n      jump\t// out\n        /* \"#utility.yul\":7913:8035   */\n    tag_244:\n        /* \"#utility.yul\":7986:8010   */\n      tag_384\n        /* \"#utility.yul\":8004:8009   */\n      dup2\n        /* \"#utility.yul\":7986:8010   */\n      tag_228\n      jump\t// in\n    tag_384:\n        /* \"#utility.yul\":7979:7984   */\n      dup2\n        /* \"#utility.yul\":7976:8011   */\n      eq\n        /* \"#utility.yul\":7966:8029   */\n      tag_385\n      jumpi\n        /* \"#utility.yul\":8025:8026   */\n      0x00\n        /* \"#utility.yul\":8022:8023   */\n      0x00\n        /* \"#utility.yul\":8015:8027   */\n      revert\n        /* \"#utility.yul\":7966:8029   */\n    tag_385:\n        /* \"#utility.yul\":7913:8035   */\n      pop\n      jump\t// out\n        /* \"#utility.yul\":8041:8180   */\n    tag_245:\n        /* \"#utility.yul\":8087:8092   */\n      0x00\n        /* \"#utility.yul\":8125:8131   */\n      dup2\n        /* \"#utility.yul\":8112:8132   */\n      calldataload\n        /* \"#utility.yul\":8103:8132   */\n      swap1\n      pop\n        /* \"#utility.yul\":8141:8174   */\n      tag_387\n        /* \"#utility.yul\":8168:8173   */\n      dup2\n        /* \"#utility.yul\":8141:8174   */\n      tag_244\n      jump\t// in\n    tag_387:\n        /* \"#utility.yul\":8041:8180   */\n      swap3\n      swap2\n      pop\n      pop\n      jump\t// out\n        /* \"#utility.yul\":8186:8660   */\n    tag_42:\n        /* \"#utility.yul\":8254:8260   */\n      0x00\n        /* \"#utility.yul\":8262:8268   */\n      0x00\n        /* \"#utility.yul\":8311:8313   */\n      0x40\n        /* \"#utility.yul\":8299:8308   */\n      dup4\n        /* \"#utility.yul\":8290:8297   */\n      dup6\n        /* \"#utility.yul\":8286:8309   */\n      sub\n        /* \"#utility.yul\":8282:8314   */\n      slt\n        /* \"#utility.yul\":8279:8398   */\n      iszero\n      tag_389\n      jumpi\n        /* \"#utility.yul\":8317:8396   */\n      tag_390\n      tag_218\n      jump\t// in\n    tag_390:\n        /* \"#utility.yul\":8279:8398   */\n    tag_389:\n        /* \"#utility.yul\":8437:8438   */\n      0x00\n        /* \"#utility.yul\":8462:8515   */\n      tag_391\n        /* \"#utility.yul\":8507:8514   */\n      dup6\n        /* \"#utility.yul\":8498:8504   */\n      dup3\n        /* \"#utility.yul\":8487:8496   */\n      dup7\n        /* \"#utility.yul\":8483:8505   */\n      add\n        /* \"#utility.yul\":8462:8515   */\n      tag_245\n      jump\t// in\n    tag_391:\n        /* \"#utility.yul\":8452:8515   */\n      swap3\n      pop\n        /* \"#utility.yul\":8408:8525   */\n      pop\n        /* \"#utility.yul\":8564:8566   */\n      0x20\n        /* \"#utility.yul\":8590:8643   */\n      tag_392\n        /* \"#utility.yul\":8635:8642   */\n      dup6\n        /* \"#utility.yul\":8626:8632   */\n      dup3\n        /* \"#utility.yul\":8615:8624   */\n      dup7\n        /* \"#utility.yul\":8611:8633   */\n      add\n        /* \"#utility.yul\":8590:8643   */\n      tag_241\n      jump\t// in\n    tag_392:\n        /* \"#utility.yul\":8580:8643   */\n      swap2\n      pop\n        /* \"#utility.yul\":8535:8653   */\n      pop\n        /* \"#utility.yul\":8186:8660   */\n      swap3\n      pop\n      swap3\n      swap1\n      pop\n      jump\t// out\n        /* \"#utility.yul\":8666:8784   */\n    tag_246:\n        /* \"#utility.yul\":8753:8777   */\n      tag_394\n        /* \"#utility.yul\":8771:8776   */\n      dup2\n        /* \"#utility.yul\":8753:8777   */\n      tag_228\n      jump\t// in\n    tag_394:\n        /* \"#utility.yul\":8748:8751   */\n      dup3\n        /* \"#utility.yul\":8741:8778   */\n      mstore\n        /* \"#utility.yul\":8666:8784   */\n      pop\n      pop\n      jump\t// out\n        /* \"#utility.yul\":8790:9012   */\n    tag_47:\n        /* \"#utility.yul\":8883:8887   */\n      0x00\n        /* \"#utility.yul\":8921:8923   */\n      0x20\n        /* \"#utility.yul\":8910:8919   */\n      dup3\n        /* \"#utility.yul\":8906:8924   */\n      add\n        /* \"#utility.yul\":8898:8924   */\n      swap1\n      pop\n        /* \"#utility.yul\":8934:9005   */\n      tag_396\n        /* \"#utility.yul\":9002:9003   */\n      0x00\n        /* \"#utility.yul\":8991:9000   */\n      dup4\n        /* \"#utility.yul\":8987:9004   */\n      add\n        /* \"#utility.yul\":8978:8984   */\n      dup5\n        /* \"#utility.yul\":8934:9005   */\n      tag_246\n      jump\t// in\n    tag_396:\n        /* \"#utility.yul\":8790:9012   */\n      swap3\n      swap2\n      pop\n      pop\n      jump\t// out\n        /* \"#utility.yul\":9018:9637   */\n    tag_56:\n        /* \"#utility.yul\":9095:9101   */\n      0x00\n        /* \"#utility.yul\":9103:9109   */\n      0x00\n        /* \"#utility.yul\":9111:9117   */\n      0x00\n        /* \"#utility.yul\":9160:9162   */\n      0x60\n        /* \"#utility.yul\":9148:9157   */\n      dup5\n        /* \"#utility.yul\":9139:9146   */\n      dup7\n        /* \"#utility.yul\":9135:9158   */\n      sub\n        /* \"#utility.yul\":9131:9163   */\n      slt\n        /* \"#utility.yul\":9128:9247   */\n      iszero\n      tag_398\n      jumpi\n        /* \"#utility.yul\":9166:9245   */\n      tag_399\n      tag_218\n      jump\t// in\n    tag_399:\n        /* \"#utility.yul\":9128:9247   */\n    tag_398:\n        /* \"#utility.yul\":9286:9287   */\n      0x00\n        /* \"#utility.yul\":9311:9364   */\n      tag_400\n        /* \"#utility.yul\":9356:9363   */\n      dup7\n        /* \"#utility.yul\":9347:9353   */\n      dup3\n        /* \"#utility.yul\":9336:9345   */\n      dup8\n        /* \"#utility.yul\":9332:9354   */\n      add\n        /* \"#utility.yul\":9311:9364   */\n      tag_222\n      jump\t// in\n    tag_400:\n        /* \"#utility.yul\":9301:9364   */\n      swap4\n      pop\n        /* \"#utility.yul\":9257:9374   */\n      pop\n        /* \"#utility.yul\":9413:9415   */\n      0x20\n        /* \"#utility.yul\":9439:9492   */\n      tag_401\n        /* \"#utility.yul\":9484:9491   */\n      dup7\n        /* \"#utility.yul\":9475:9481   */\n      dup3\n        /* \"#utility.yul\":9464:9473   */\n      dup8\n        /* \"#utility.yul\":9460:9482   */\n      add\n        /* \"#utility.yul\":9439:9492   */\n      tag_222\n      jump\t// in\n    tag_401:\n        /* \"#utility.yul\":9429:9492   */\n      swap3\n      pop\n        /* \"#utility.yul\":9384:9502   */\n      pop\n        /* \"#utility.yul\":9541:9543   */\n      0x40\n        /* \"#utility.yul\":9567:9620   */\n      tag_402\n        /* \"#utility.yul\":9612:9619   */\n      dup7\n        /* \"#utility.yul\":9603:9609   */\n      dup3\n        /* \"#utility.yul\":9592:9601   */\n      dup8\n        /* \"#utility.yul\":9588:9610   */\n      add\n        /* \"#utility.yul\":9567:9620   */\n      tag_245\n      jump\t// in\n    tag_402:\n        /* \"#utility.yul\":9557:9620   */\n      swap2\n      pop\n        /* \"#utility.yul\":9512:9630   */\n      pop\n        /* \"#utility.yul\":9018:9637   */\n      swap3\n      pop\n      swap3\n      pop\n      swap3\n      jump\t// out\n        /* \"#utility.yul\":9643:9752   */\n    tag_247:\n        /* \"#utility.yul\":9724:9745   */\n      tag_404\n        /* \"#utility.yul\":9739:9744   */\n      dup2\n        /* \"#utility.yul\":9724:9745   */\n      tag_231\n      jump\t// in\n    tag_404:\n        /* \"#utility.yul\":9719:9722   */\n      dup3\n        /* \"#utility.yul\":9712:9746   */\n      mstore\n        /* \"#utility.yul\":9643:9752   */\n      pop\n      pop\n      jump\t// out\n        /* \"#utility.yul\":9758:9927   */\n    tag_248:\n        /* \"#utility.yul\":9842:9853   */\n      0x00\n        /* \"#utility.yul\":9876:9882   */\n      dup3\n        /* \"#utility.yul\":9871:9874   */\n      dup3\n        /* \"#utility.yul\":9864:9883   */\n      mstore\n        /* \"#utility.yul\":9916:9920   */\n      0x20\n        /* \"#utility.yul\":9911:9914   */\n      dup3\n        /* \"#utility.yul\":9907:9921   */\n      add\n        /* \"#utility.yul\":9892:9921   */\n      swap1\n      pop\n        /* \"#utility.yul\":9758:9927   */\n      swap3\n      swap2\n      pop\n      pop\n      jump\t// out\n        /* \"#utility.yul\":9933:10310   */\n    tag_249:\n        /* \"#utility.yul\":10021:10024   */\n      0x00\n        /* \"#utility.yul\":10049:10088   */\n      tag_407\n        /* \"#utility.yul\":10082:10087   */\n      dup3\n        /* \"#utility.yul\":10049:10088   */\n      tag_223\n      jump\t// in\n    tag_407:\n        /* \"#utility.yul\":10104:10175   */\n      tag_408\n        /* \"#utility.yul\":10168:10174   */\n      dup2\n        /* \"#utility.yul\":10163:10166   */\n      dup6\n        /* \"#utility.yul\":10104:10175   */\n      tag_248\n      jump\t// in\n    tag_408:\n        /* \"#utility.yul\":10097:10175   */\n      swap4\n      pop\n        /* \"#utility.yul\":10184:10249   */\n      tag_409\n        /* \"#utility.yul\":10242:10248   */\n      dup2\n        /* \"#utility.yul\":10237:10240   */\n      dup6\n        /* \"#utility.yul\":10230:10234   */\n      0x20\n        /* \"#utility.yul\":10223:10228   */\n      dup7\n        /* \"#utility.yul\":10219:10235   */\n      add\n        /* \"#utility.yul\":10184:10249   */\n      tag_225\n      jump\t// in\n    tag_409:\n        /* \"#utility.yul\":10274:10303   */\n      tag_410\n        /* \"#utility.yul\":10296:10302   */\n      dup2\n        /* \"#utility.yul\":10274:10303   */\n      tag_226\n      jump\t// in\n    tag_410:\n        /* \"#utility.yul\":10269:10272   */\n      dup5\n        /* \"#utility.yul\":10265:10304   */\n      add\n        /* \"#utility.yul\":10258:10304   */\n      swap2\n      pop\n        /* \"#utility.yul\":10025:10310   */\n      pop\n        /* \"#utility.yul\":9933:10310   */\n      swap3\n      swap2\n      pop\n      pop\n      jump\t// out\n        /* \"#utility.yul\":10316:10727   */\n    tag_59:\n        /* \"#utility.yul\":10451:10455   */\n      0x00\n        /* \"#utility.yul\":10489:10491   */\n      0x40\n        /* \"#utility.yul\":10478:10487   */\n      dup3\n        /* \"#utility.yul\":10474:10492   */\n      add\n        /* \"#utility.yul\":10466:10492   */\n      swap1\n      pop\n        /* \"#utility.yul\":10502:10567   */\n      tag_412\n        /* \"#utility.yul\":10564:10565   */\n      0x00\n        /* \"#utility.yul\":10553:10562   */\n      dup4\n        /* \"#utility.yul\":10549:10566   */\n      add\n        /* \"#utility.yul\":10540:10546   */\n      dup6\n        /* \"#utility.yul\":10502:10567   */\n      tag_247\n      jump\t// in\n    tag_412:\n        /* \"#utility.yul\":10614:10623   */\n      dup2\n        /* \"#utility.yul\":10608:10612   */\n      dup2\n        /* \"#utility.yul\":10604:10624   */\n      sub\n        /* \"#utility.yul\":10599:10601   */\n      0x20\n        /* \"#utility.yul\":10588:10597   */\n      dup4\n        /* \"#utility.yul\":10584:10602   */\n      add\n        /* \"#utility.yul\":10577:10625   */\n      mstore\n        /* \"#utility.yul\":10642:10720   */\n      tag_413\n        /* \"#utility.yul\":10715:10719   */\n      dup2\n        /* \"#utility.yul\":10706:10712   */\n      dup5\n        /* \"#utility.yul\":10642:10720   */\n      tag_249\n      jump\t// in\n    tag_413:\n        /* \"#utility.yul\":10634:10720   */\n      swap1\n      pop\n        /* \"#utility.yul\":10316:10727   */\n      swap4\n      swap3\n      pop\n      pop\n      pop\n      jump\t// out\n        /* \"#utility.yul\":10733:11062   */\n    tag_68:\n        /* \"#utility.yul\":10792:10798   */\n      0x00\n        /* \"#utility.yul\":10841:10843   */\n      0x20\n        /* \"#utility.yul\":10829:10838   */\n      dup3\n        /* \"#utility.yul\":10820:10827   */\n      dup5\n        /* \"#utility.yul\":10816:10839   */\n      sub\n        /* \"#utility.yul\":10812:10844   */\n      slt\n        /* \"#utility.yul\":10809:10928   */\n      iszero\n      tag_415\n      jumpi\n        /* \"#utility.yul\":10847:10926   */\n      tag_416\n      tag_218\n      jump\t// in\n    tag_416:\n        /* \"#utility.yul\":10809:10928   */\n    tag_415:\n        /* \"#utility.yul\":10967:10968   */\n      0x00\n        /* \"#utility.yul\":10992:11045   */\n      tag_417\n        /* \"#utility.yul\":11037:11044   */\n      dup5\n        /* \"#utility.yul\":11028:11034   */\n      dup3\n        /* \"#utility.yul\":11017:11026   */\n      dup6\n        /* \"#utility.yul\":11013:11035   */\n      add\n        /* \"#utility.yul\":10992:11045   */\n      tag_245\n      jump\t// in\n    tag_417:\n        /* \"#utility.yul\":10982:11045   */\n      swap2\n      pop\n        /* \"#utility.yul\":10938:11055   */\n      pop\n        /* \"#utility.yul\":10733:11062   */\n      swap3\n      swap2\n      pop\n      pop\n      jump\t// out\n        /* \"#utility.yul\":11068:11278   */\n    tag_74:\n        /* \"#utility.yul\":11155:11159   */\n      0x00\n        /* \"#utility.yul\":11193:11195   */\n      0x20\n        /* \"#utility.yul\":11182:11191   */\n      dup3\n        /* \"#utility.yul\":11178:11196   */\n      add\n        /* \"#utility.yul\":11170:11196   */\n      swap1\n      pop\n        /* \"#utility.yul\":11206:11271   */\n      tag_419\n        /* \"#utility.yul\":11268:11269   */\n      0x00\n        /* \"#utility.yul\":11257:11266   */\n      dup4\n        /* \"#utility.yul\":11253:11270   */\n      add\n        /* \"#utility.yul\":11244:11250   */\n      dup5\n        /* \"#utility.yul\":11206:11271   */\n      tag_247\n      jump\t// in\n    tag_419:\n        /* \"#utility.yul\":11068:11278   */\n      swap3\n      swap2\n      pop\n      pop\n      jump\t// out\n        /* \"#utility.yul\":11284:12449   */\n    tag_77:\n        /* \"#utility.yul\":11394:11400   */\n      0x00\n        /* \"#utility.yul\":11402:11408   */\n      0x00\n        /* \"#utility.yul\":11410:11416   */\n      0x00\n        /* \"#utility.yul\":11418:11424   */\n      0x00\n        /* \"#utility.yul\":11426:11432   */\n      0x00\n        /* \"#utility.yul\":11434:11440   */\n      0x00\n        /* \"#utility.yul\":11483:11486   */\n      0x80\n        /* \"#utility.yul\":11471:11480   */\n      dup8\n        /* \"#utility.yul\":11462:11469   */\n      dup10\n        /* \"#utility.yul\":11458:11481   */\n      sub\n        /* \"#utility.yul\":11454:11487   */\n      slt\n        /* \"#utility.yul\":11451:11571   */\n      iszero\n      tag_421\n      jumpi\n        /* \"#utility.yul\":11490:11569   */\n      tag_422\n      tag_218\n      jump\t// in\n    tag_422:\n        /* \"#utility.yul\":11451:11571   */\n    tag_421:\n        /* \"#utility.yul\":11610:11611   */\n      0x00\n        /* \"#utility.yul\":11635:11688   */\n      tag_423\n        /* \"#utility.yul\":11680:11687   */\n      dup10\n        /* \"#utility.yul\":11671:11677   */\n      dup3\n        /* \"#utility.yul\":11660:11669   */\n      dup11\n        /* \"#utility.yul\":11656:11678   */\n      add\n        /* \"#utility.yul\":11635:11688   */\n      tag_222\n      jump\t// in\n    tag_423:\n        /* \"#utility.yul\":11625:11688   */\n      swap7\n      pop\n        /* \"#utility.yul\":11581:11698   */\n      pop\n        /* \"#utility.yul\":11765:11767   */\n      0x20\n        /* \"#utility.yul\":11754:11763   */\n      dup8\n        /* \"#utility.yul\":11750:11768   */\n      add\n        /* \"#utility.yul\":11737:11769   */\n      calldataload\n        /* \"#utility.yul\":11796:11814   */\n      0xffffffffffffffff\n        /* \"#utility.yul\":11788:11794   */\n      dup2\n        /* \"#utility.yul\":11785:11815   */\n      gt\n        /* \"#utility.yul\":11782:11899   */\n      iszero\n      tag_424\n      jumpi\n        /* \"#utility.yul\":11818:11897   */\n      tag_425\n      tag_219\n      jump\t// in\n    tag_425:\n        /* \"#utility.yul\":11782:11899   */\n    tag_424:\n        /* \"#utility.yul\":11931:11996   */\n      tag_426\n        /* \"#utility.yul\":11988:11995   */\n      dup10\n        /* \"#utility.yul\":11979:11985   */\n      dup3\n        /* \"#utility.yul\":11968:11977   */\n      dup11\n        /* \"#utility.yul\":11964:11986   */\n      add\n        /* \"#utility.yul\":11931:11996   */\n      tag_242\n      jump\t// in\n    tag_426:\n        /* \"#utility.yul\":11913:11996   */\n      swap6\n      pop\n      swap6\n      pop\n        /* \"#utility.yul\":11708:12006   */\n      pop\n        /* \"#utility.yul\":12045:12047   */\n      0x40\n        /* \"#utility.yul\":12071:12124   */\n      tag_427\n        /* \"#utility.yul\":12116:12123   */\n      dup10\n        /* \"#utility.yul\":12107:12113   */\n      dup3\n        /* \"#utility.yul\":12096:12105   */\n      dup11\n        /* \"#utility.yul\":12092:12114   */\n      add\n        /* \"#utility.yul\":12071:12124   */\n      tag_245\n      jump\t// in\n    tag_427:\n        /* \"#utility.yul\":12061:12124   */\n      swap4\n      pop\n        /* \"#utility.yul\":12016:12134   */\n      pop\n        /* \"#utility.yul\":12201:12203   */\n      0x60\n        /* \"#utility.yul\":12190:12199   */\n      dup8\n        /* \"#utility.yul\":12186:12204   */\n      add\n        /* \"#utility.yul\":12173:12205   */\n      calldataload\n        /* \"#utility.yul\":12232:12250   */\n      0xffffffffffffffff\n        /* \"#utility.yul\":12224:12230   */\n      dup2\n        /* \"#utility.yul\":12221:12251   */\n      gt\n        /* \"#utility.yul\":12218:12335   */\n      iszero\n      tag_428\n      jumpi\n        /* \"#utility.yul\":12254:12333   */\n      tag_429\n      tag_219\n      jump\t// in\n    tag_429:\n        /* \"#utility.yul\":12218:12335   */\n    tag_428:\n        /* \"#utility.yul\":12367:12432   */\n      tag_430\n        /* \"#utility.yul\":12424:12431   */\n      dup10\n        /* \"#utility.yul\":12415:12421   */\n      dup3\n        /* \"#utility.yul\":12404:12413   */\n      dup11\n        /* \"#utility.yul\":12400:12422   */\n      add\n        /* \"#utility.yul\":12367:12432   */\n      tag_242\n      jump\t// in\n    tag_430:\n        /* \"#utility.yul\":12349:12432   */\n      swap3\n      pop\n      swap3\n      pop\n        /* \"#utility.yul\":12144:12442   */\n      pop\n        /* \"#utility.yul\":11284:12449   */\n      swap3\n      swap6\n      pop\n      swap3\n      swap6\n      pop\n      swap3\n      swap6\n      jump\t// out\n        /* \"#utility.yul\":12455:12784   */\n    tag_81:\n        /* \"#utility.yul\":12514:12520   */\n      0x00\n        /* \"#utility.yul\":12563:12565   */\n      0x20\n        /* \"#utility.yul\":12551:12560   */\n      dup3\n        /* \"#utility.yul\":12542:12549   */\n      dup5\n        /* \"#utility.yul\":12538:12561   */\n      sub\n        /* \"#utility.yul\":12534:12566   */\n      slt\n        /* \"#utility.yul\":12531:12650   */\n      iszero\n      tag_432\n      jumpi\n        /* \"#utility.yul\":12569:12648   */\n      tag_433\n      tag_218\n      jump\t// in\n    tag_433:\n        /* \"#utility.yul\":12531:12650   */\n    tag_432:\n        /* \"#utility.yul\":12689:12690   */\n      0x00\n        /* \"#utility.yul\":12714:12767   */\n      tag_434\n        /* \"#utility.yul\":12759:12766   */\n      dup5\n        /* \"#utility.yul\":12750:12756   */\n      dup3\n        /* \"#utility.yul\":12739:12748   */\n      dup6\n        /* \"#utility.yul\":12735:12757   */\n      add\n        /* \"#utility.yul\":12714:12767   */\n      tag_222\n      jump\t// in\n    tag_434:\n        /* \"#utility.yul\":12704:12767   */\n      swap2\n      pop\n        /* \"#utility.yul\":12660:12777   */\n      pop\n        /* \"#utility.yul\":12455:12784   */\n      swap3\n      swap2\n      pop\n      pop\n      jump\t// out\n        /* \"#utility.yul\":12790:12934   */\n    tag_250:\n        /* \"#utility.yul\":12887:12893   */\n      0x00\n        /* \"#utility.yul\":12921:12926   */\n      dup2\n        /* \"#utility.yul\":12915:12927   */\n      mload\n        /* \"#utility.yul\":12905:12927   */\n      swap1\n      pop\n        /* \"#utility.yul\":12790:12934   */\n      swap2\n      swap1\n      pop\n      jump\t// out\n        /* \"#utility.yul\":12940:13154   */\n    tag_251:\n        /* \"#utility.yul\":13069:13080   */\n      0x00\n        /* \"#utility.yul\":13103:13109   */\n      dup3\n        /* \"#utility.yul\":13098:13101   */\n      dup3\n        /* \"#utility.yul\":13091:13110   */\n      mstore\n        /* \"#utility.yul\":13143:13147   */\n      0x20\n        /* \"#utility.yul\":13138:13141   */\n      dup3\n        /* \"#utility.yul\":13134:13148   */\n      add\n        /* \"#utility.yul\":13119:13148   */\n      swap1\n      pop\n        /* \"#utility.yul\":12940:13154   */\n      swap3\n      swap2\n      pop\n      pop\n      jump\t// out\n        /* \"#utility.yul\":13160:13322   */\n    tag_252:\n        /* \"#utility.yul\":13257:13261   */\n      0x00\n        /* \"#utility.yul\":13280:13283   */\n      dup2\n        /* \"#utility.yul\":13272:13283   */\n      swap1\n      pop\n        /* \"#utility.yul\":13310:13314   */\n      0x20\n        /* \"#utility.yul\":13305:13308   */\n      dup3\n        /* \"#utility.yul\":13301:13315   */\n      add\n        /* \"#utility.yul\":13293:13315   */\n      swap1\n      pop\n        /* \"#utility.yul\":13160:13322   */\n      swap2\n      swap1\n      pop\n      jump\t// out\n        /* \"#utility.yul\":13408:14621   */\n    tag_253:\n        /* \"#utility.yul\":13527:13530   */\n      0x00\n        /* \"#utility.yul\":13563:13567   */\n      0xa0\n        /* \"#utility.yul\":13558:13561   */\n      dup4\n        /* \"#utility.yul\":13554:13568   */\n      add\n        /* \"#utility.yul\":13653:13657   */\n      0x00\n        /* \"#utility.yul\":13646:13651   */\n      dup4\n        /* \"#utility.yul\":13642:13658   */\n      add\n        /* \"#utility.yul\":13636:13659   */\n      mload\n        /* \"#utility.yul\":13706:13709   */\n      dup5\n        /* \"#utility.yul\":13700:13704   */\n      dup3\n        /* \"#utility.yul\":13696:13710   */\n      sub\n        /* \"#utility.yul\":13689:13693   */\n      0x00\n        /* \"#utility.yul\":13684:13687   */\n      dup7\n        /* \"#utility.yul\":13680:13694   */\n      add\n        /* \"#utility.yul\":13673:13711   */\n      mstore\n        /* \"#utility.yul\":13732:13805   */\n      tag_439\n        /* \"#utility.yul\":13800:13804   */\n      dup3\n        /* \"#utility.yul\":13786:13798   */\n      dup3\n        /* \"#utility.yul\":13732:13805   */\n      tag_227\n      jump\t// in\n    tag_439:\n        /* \"#utility.yul\":13724:13805   */\n      swap2\n      pop\n        /* \"#utility.yul\":13578:13816   */\n      pop\n        /* \"#utility.yul\":13904:13908   */\n      0x20\n        /* \"#utility.yul\":13897:13902   */\n      dup4\n        /* \"#utility.yul\":13893:13909   */\n      add\n        /* \"#utility.yul\":13887:13910   */\n      mload\n        /* \"#utility.yul\":13923:13986   */\n      tag_440\n        /* \"#utility.yul\":13980:13984   */\n      0x20\n        /* \"#utility.yul\":13975:13978   */\n      dup7\n        /* \"#utility.yul\":13971:13985   */\n      add\n        /* \"#utility.yul\":13957:13969   */\n      dup3\n        /* \"#utility.yul\":13923:13986   */\n      tag_229\n      jump\t// in\n    tag_440:\n        /* \"#utility.yul\":13826:13996   */\n      pop\n        /* \"#utility.yul\":14081:14085   */\n      0x40\n        /* \"#utility.yul\":14074:14079   */\n      dup4\n        /* \"#utility.yul\":14070:14086   */\n      add\n        /* \"#utility.yul\":14064:14087   */\n      mload\n        /* \"#utility.yul\":14134:14137   */\n      dup5\n        /* \"#utility.yul\":14128:14132   */\n      dup3\n        /* \"#utility.yul\":14124:14138   */\n      sub\n        /* \"#utility.yul\":14117:14121   */\n      0x40\n        /* \"#utility.yul\":14112:14115   */\n      dup7\n        /* \"#utility.yul\":14108:14122   */\n      add\n        /* \"#utility.yul\":14101:14139   */\n      mstore\n        /* \"#utility.yul\":14160:14233   */\n      tag_441\n        /* \"#utility.yul\":14228:14232   */\n      dup3\n        /* \"#utility.yul\":14214:14226   */\n      dup3\n        /* \"#utility.yul\":14160:14233   */\n      tag_227\n      jump\t// in\n    tag_441:\n        /* \"#utility.yul\":14152:14233   */\n      swap2\n      pop\n        /* \"#utility.yul\":14006:14244   */\n      pop\n        /* \"#utility.yul\":14332:14336   */\n      0x60\n        /* \"#utility.yul\":14325:14330   */\n      dup4\n        /* \"#utility.yul\":14321:14337   */\n      add\n        /* \"#utility.yul\":14315:14338   */\n      mload\n        /* \"#utility.yul\":14351:14414   */\n      tag_442\n        /* \"#utility.yul\":14408:14412   */\n      0x60\n        /* \"#utility.yul\":14403:14406   */\n      dup7\n        /* \"#utility.yul\":14399:14413   */\n      add\n        /* \"#utility.yul\":14385:14397   */\n      dup3\n        /* \"#utility.yul\":14351:14414   */\n      tag_230\n      jump\t// in\n    tag_442:\n        /* \"#utility.yul\":14254:14424   */\n      pop\n        /* \"#utility.yul\":14508:14512   */\n      0x80\n        /* \"#utility.yul\":14501:14506   */\n      dup4\n        /* \"#utility.yul\":14497:14513   */\n      add\n        /* \"#utility.yul\":14491:14514   */\n      mload\n        /* \"#utility.yul\":14527:14584   */\n      tag_443\n        /* \"#utility.yul\":14578:14582   */\n      0x80\n        /* \"#utility.yul\":14573:14576   */\n      dup7\n        /* \"#utility.yul\":14569:14583   */\n      add\n        /* \"#utility.yul\":14555:14567   */\n      dup3\n        /* \"#utility.yul\":14527:14584   */\n      tag_232\n      jump\t// in\n    tag_443:\n        /* \"#utility.yul\":14434:14594   */\n      pop\n        /* \"#utility.yul\":14611:14615   */\n      dup1\n        /* \"#utility.yul\":14604:14615   */\n      swap2\n      pop\n        /* \"#utility.yul\":13532:14621   */\n      pop\n        /* \"#utility.yul\":13408:14621   */\n      swap3\n      swap2\n      pop\n      pop\n      jump\t// out\n        /* \"#utility.yul\":14627:14903   */\n    tag_254:\n        /* \"#utility.yul\":14756:14766   */\n      0x00\n        /* \"#utility.yul\":14791:14897   */\n      tag_445\n        /* \"#utility.yul\":14893:14896   */\n      dup4\n        /* \"#utility.yul\":14885:14891   */\n      dup4\n        /* \"#utility.yul\":14791:14897   */\n      tag_253\n      jump\t// in\n    tag_445:\n        /* \"#utility.yul\":14777:14897   */\n      swap1\n      pop\n        /* \"#utility.yul\":14627:14903   */\n      swap3\n      swap2\n      pop\n      pop\n      jump\t// out\n        /* \"#utility.yul\":14909:15052   */\n    tag_255:\n        /* \"#utility.yul\":15009:15013   */\n      0x00\n        /* \"#utility.yul\":15041:15045   */\n      0x20\n        /* \"#utility.yul\":15036:15039   */\n      dup3\n        /* \"#utility.yul\":15032:15046   */\n      add\n        /* \"#utility.yul\":15024:15046   */\n      swap1\n      pop\n        /* \"#utility.yul\":14909:15052   */\n      swap2\n      swap1\n      pop\n      jump\t// out\n        /* \"#utility.yul\":15142:16293   */\n    tag_256:\n        /* \"#utility.yul\":15321:15324   */\n      0x00\n        /* \"#utility.yul\":15350:15434   */\n      tag_448\n        /* \"#utility.yul\":15428:15433   */\n      dup3\n        /* \"#utility.yul\":15350:15434   */\n      tag_250\n      jump\t// in\n    tag_448:\n        /* \"#utility.yul\":15450:15566   */\n      tag_449\n        /* \"#utility.yul\":15559:15565   */\n      dup2\n        /* \"#utility.yul\":15554:15557   */\n      dup6\n        /* \"#utility.yul\":15450:15566   */\n      tag_251\n      jump\t// in\n    tag_449:\n        /* \"#utility.yul\":15443:15566   */\n      swap4\n      pop\n        /* \"#utility.yul\":15592:15595   */\n      dup4\n        /* \"#utility.yul\":15637:15641   */\n      0x20\n        /* \"#utility.yul\":15629:15635   */\n      dup3\n        /* \"#utility.yul\":15625:15642   */\n      mul\n        /* \"#utility.yul\":15620:15623   */\n      dup6\n        /* \"#utility.yul\":15616:15643   */\n      add\n        /* \"#utility.yul\":15667:15753   */\n      tag_450\n        /* \"#utility.yul\":15747:15752   */\n      dup6\n        /* \"#utility.yul\":15667:15753   */\n      tag_252\n      jump\t// in\n    tag_450:\n        /* \"#utility.yul\":15776:15783   */\n      dup1\n        /* \"#utility.yul\":15807:15808   */\n      0x00\n        /* \"#utility.yul\":15792:16248   */\n    tag_451:\n        /* \"#utility.yul\":15817:15823   */\n      dup6\n        /* \"#utility.yul\":15814:15815   */\n      dup2\n        /* \"#utility.yul\":15811:15824   */\n      lt\n        /* \"#utility.yul\":15792:16248   */\n      iszero\n      tag_453\n      jumpi\n        /* \"#utility.yul\":15888:15897   */\n      dup5\n        /* \"#utility.yul\":15882:15886   */\n      dup5\n        /* \"#utility.yul\":15878:15898   */\n      sub\n        /* \"#utility.yul\":15873:15876   */\n      dup10\n        /* \"#utility.yul\":15866:15899   */\n      mstore\n        /* \"#utility.yul\":15939:15945   */\n      dup2\n        /* \"#utility.yul\":15933:15946   */\n      mload\n        /* \"#utility.yul\":15967:16091   */\n      tag_454\n        /* \"#utility.yul\":16086:16090   */\n      dup6\n        /* \"#utility.yul\":16071:16084   */\n      dup3\n        /* \"#utility.yul\":15967:16091   */\n      tag_254\n      jump\t// in\n    tag_454:\n        /* \"#utility.yul\":15959:16091   */\n      swap5\n      pop\n        /* \"#utility.yul\":16114:16204   */\n      tag_455\n        /* \"#utility.yul\":16197:16203   */\n      dup4\n        /* \"#utility.yul\":16114:16204   */\n      tag_255\n      jump\t// in\n    tag_455:\n        /* \"#utility.yul\":16104:16204   */\n      swap3\n      pop\n        /* \"#utility.yul\":16233:16237   */\n      0x20\n        /* \"#utility.yul\":16228:16231   */\n      dup11\n        /* \"#utility.yul\":16224:16238   */\n      add\n        /* \"#utility.yul\":16217:16238   */\n      swap10\n      pop\n        /* \"#utility.yul\":15852:16248   */\n      pop\n        /* \"#utility.yul\":15839:15840   */\n      0x01\n        /* \"#utility.yul\":15836:15837   */\n      dup2\n        /* \"#utility.yul\":15832:15841   */\n      add\n        /* \"#utility.yul\":15827:15841   */\n      swap1\n      pop\n        /* \"#utility.yul\":15792:16248   */\n      jump(tag_451)\n    tag_453:\n        /* \"#utility.yul\":15796:15810   */\n      pop\n        /* \"#utility.yul\":16264:16268   */\n      dup3\n        /* \"#utility.yul\":16257:16268   */\n      swap8\n      pop\n        /* \"#utility.yul\":16284:16287   */\n      dup8\n        /* \"#utility.yul\":16277:16287   */\n      swap6\n      pop\n        /* \"#utility.yul\":15326:16293   */\n      pop\n      pop\n      pop\n      pop\n      pop\n        /* \"#utility.yul\":15142:16293   */\n      swap3\n      swap2\n      pop\n      pop\n      jump\t// out\n        /* \"#utility.yul\":16299:16792   */\n    tag_84:\n        /* \"#utility.yul\":16502:16506   */\n      0x00\n        /* \"#utility.yul\":16540:16542   */\n      0x20\n        /* \"#utility.yul\":16529:16538   */\n      dup3\n        /* \"#utility.yul\":16525:16543   */\n      add\n        /* \"#utility.yul\":16517:16543   */\n      swap1\n      pop\n        /* \"#utility.yul\":16589:16598   */\n      dup2\n        /* \"#utility.yul\":16583:16587   */\n      dup2\n        /* \"#utility.yul\":16579:16599   */\n      sub\n        /* \"#utility.yul\":16575:16576   */\n      0x00\n        /* \"#utility.yul\":16564:16573   */\n      dup4\n        /* \"#utility.yul\":16560:16577   */\n      add\n        /* \"#utility.yul\":16553:16600   */\n      mstore\n        /* \"#utility.yul\":16617:16785   */\n      tag_457\n        /* \"#utility.yul\":16780:16784   */\n      dup2\n        /* \"#utility.yul\":16771:16777   */\n      dup5\n        /* \"#utility.yul\":16617:16785   */\n      tag_256\n      jump\t// in\n    tag_457:\n        /* \"#utility.yul\":16609:16785   */\n      swap1\n      pop\n        /* \"#utility.yul\":16299:16792   */\n      swap3\n      swap2\n      pop\n      pop\n      jump\t// out\n        /* \"#utility.yul\":16798:17027   */\n    tag_257:\n        /* \"#utility.yul\":16938:16972   */\n      0x4950465356657269666965723a20646f63756d656e7420696e646578206f7574\n        /* \"#utility.yul\":16934:16935   */\n      0x00\n        /* \"#utility.yul\":16926:16932   */\n      dup3\n        /* \"#utility.yul\":16922:16936   */\n      add\n        /* \"#utility.yul\":16915:16973   */\n      mstore\n        /* \"#utility.yul\":17007:17019   */\n      0x206f6620626f756e647300000000000000000000000000000000000000000000\n        /* \"#utility.yul\":17002:17004   */\n      0x20\n        /* \"#utility.yul\":16994:17000   */\n      dup3\n        /* \"#utility.yul\":16990:17005   */\n      add\n        /* \"#utility.yul\":16983:17020   */\n      mstore\n        /* \"#utility.yul\":16798:17027   */\n      pop\n      jump\t// out\n        /* \"#utility.yul\":17033:17399   */\n    tag_258:\n        /* \"#utility.yul\":17175:17178   */\n      0x00\n        /* \"#utility.yul\":17196:17263   */\n      tag_460\n        /* \"#utility.yul\":17260:17262   */\n      0x2a\n        /* \"#utility.yul\":17255:17258   */\n      dup4\n        /* \"#utility.yul\":17196:17263   */\n      tag_248\n      jump\t// in\n    tag_460:\n        /* \"#utility.yul\":17189:17263   */\n      swap2\n      pop\n        /* \"#utility.yul\":17272:17365   */\n      tag_461\n        /* \"#utility.yul\":17361:17364   */\n      dup3\n        /* \"#utility.yul\":17272:17365   */\n      tag_257\n      jump\t// in\n    tag_461:\n        /* \"#utility.yul\":17390:17392   */\n      0x40\n        /* \"#utility.yul\":17385:17388   */\n      dup3\n        /* \"#utility.yul\":17381:17393   */\n      add\n        /* \"#utility.yul\":17374:17393   */\n      swap1\n      pop\n        /* \"#utility.yul\":17033:17399   */\n      swap2\n      swap1\n      pop\n      jump\t// out\n        /* \"#utility.yul\":17405:17824   */\n    tag_103:\n        /* \"#utility.yul\":17571:17575   */\n      0x00\n        /* \"#utility.yul\":17609:17611   */\n      0x20\n        /* \"#utility.yul\":17598:17607   */\n      dup3\n        /* \"#utility.yul\":17594:17612   */\n      add\n        /* \"#utility.yul\":17586:17612   */\n      swap1\n      pop\n        /* \"#utility.yul\":17658:17667   */\n      dup2\n        /* \"#utility.yul\":17652:17656   */\n      dup2\n        /* \"#utility.yul\":17648:17668   */\n      sub\n        /* \"#utility.yul\":17644:17645   */\n      0x00\n        /* \"#utility.yul\":17633:17642   */\n      dup4\n        /* \"#utility.yul\":17629:17646   */\n      add\n        /* \"#utility.yul\":17622:17669   */\n      mstore\n        /* \"#utility.yul\":17686:17817   */\n      tag_463\n        /* \"#utility.yul\":17812:17816   */\n      dup2\n        /* \"#utility.yul\":17686:17817   */\n      tag_258\n      jump\t// in\n    tag_463:\n        /* \"#utility.yul\":17678:17817   */\n      swap1\n      pop\n        /* \"#utility.yul\":17405:17824   */\n      swap2\n      swap1\n      pop\n      jump\t// out\n        /* \"#utility.yul\":17830:18010   */\n    tag_106:\n        /* \"#utility.yul\":17878:17955   */\n      0x4e487b7100000000000000000000000000000000000000000000000000000000\n        /* \"#utility.yul\":17875:17876   */\n      0x00\n        /* \"#utility.yul\":17868:17956   */\n      mstore\n        /* \"#utility.yul\":17975:17979   */\n      0x32\n        /* \"#utility.yul\":17972:17973   */\n      0x04\n        /* \"#utility.yul\":17965:17980   */\n      mstore\n        /* \"#utility.yul\":17999:18003   */\n      0x24\n        /* \"#utility.yul\":17996:17997   */\n      0x00\n        /* \"#utility.yul\":17989:18004   */\n      revert\n        /* \"#utility.yul\":18016:18196   */\n    tag_259:\n        /* \"#utility.yul\":18064:18141   */\n      0x4e487b7100000000000000000000000000000000000000000000000000000000\n        /* \"#utility.yul\":18061:18062   */\n      0x00\n        /* \"#utility.yul\":18054:18142   */\n      mstore\n        /* \"#utility.yul\":18161:18165   */\n      0x22\n        /* \"#utility.yul\":18158:18159   */\n      0x04\n        /* \"#utility.yul\":18151:18166   */\n      mstore\n        /* \"#utility.yul\":18185:18189   */\n      0x24\n        /* \"#utility.yul\":18182:18183   */\n      0x00\n        /* \"#utility.yul\":18175:18190   */\n      revert\n        /* \"#utility.yul\":18202:18522   */\n    tag_109:\n        /* \"#utility.yul\":18246:18252   */\n      0x00\n        /* \"#utility.yul\":18283:18284   */\n      0x02\n        /* \"#utility.yul\":18277:18281   */\n      dup3\n        /* \"#utility.yul\":18273:18285   */\n      div\n        /* \"#utility.yul\":18263:18285   */\n      swap1\n      pop\n        /* \"#utility.yul\":18330:18331   */\n      0x01\n        /* \"#utility.yul\":18324:18328   */\n      dup3\n        /* \"#utility.yul\":18320:18332   */\n      and\n        /* \"#utility.yul\":18351:18369   */\n      dup1\n        /* \"#utility.yul\":18341:18422   */\n      tag_467\n      jumpi\n        /* \"#utility.yul\":18407:18411   */\n      0x7f\n        /* \"#utility.yul\":18399:18405   */\n      dup3\n        /* \"#utility.yul\":18395:18412   */\n      and\n        /* \"#utility.yul\":18385:18412   */\n      swap2\n      pop\n        /* \"#utility.yul\":18341:18422   */\n    tag_467:\n        /* \"#utility.yul\":18469:18471   */\n      0x20\n        /* \"#utility.yul\":18461:18467   */\n      dup3\n        /* \"#utility.yul\":18458:18472   */\n      lt\n        /* \"#utility.yul\":18438:18456   */\n      dup2\n        /* \"#utility.yul\":18435:18473   */\n      sub\n        /* \"#utility.yul\":18432:18516   */\n      tag_468\n      jumpi\n        /* \"#utility.yul\":18488:18506   */\n      tag_469\n      tag_259\n      jump\t// in\n    tag_469:\n        /* \"#utility.yul\":18432:18516   */\n    tag_468:\n        /* \"#utility.yul\":18253:18522   */\n      pop\n        /* \"#utility.yul\":18202:18522   */\n      swap2\n      swap1\n      pop\n      jump\t// out\n        /* \"#utility.yul\":18528:18709   */\n    tag_260:\n        /* \"#utility.yul\":18668:18701   */\n      0x526f6c654163636573733a2063616c6c6572206973206e6f742061646d696e00\n        /* \"#utility.yul\":18664:18665   */\n      0x00\n        /* \"#utility.yul\":18656:18662   */\n      dup3\n        /* \"#utility.yul\":18652:18666   */\n      add\n        /* \"#utility.yul\":18645:18702   */\n      mstore\n        /* \"#utility.yul\":18528:18709   */\n      pop\n      jump\t// out\n        /* \"#utility.yul\":18715:19081   */\n    tag_261:\n        /* \"#utility.yul\":18857:18860   */\n      0x00\n        /* \"#utility.yul\":18878:18945   */\n      tag_472\n        /* \"#utility.yul\":18942:18944   */\n      0x1f\n        /* \"#utility.yul\":18937:18940   */\n      dup4\n        /* \"#utility.yul\":18878:18945   */\n      tag_248\n      jump\t// in\n    tag_472:\n        /* \"#utility.yul\":18871:18945   */\n      swap2\n      pop\n        /* \"#utility.yul\":18954:19047   */\n      tag_473\n        /* \"#utility.yul\":19043:19046   */\n      dup3\n        /* \"#utility.yul\":18954:19047   */\n      tag_260\n      jump\t// in\n    tag_473:\n        /* \"#utility.yul\":19072:19074   */\n      0x20\n        /* \"#utility.yul\":19067:19070   */\n      dup3\n        /* \"#utility.yul\":19063:19075   */\n      add\n        /* \"#utility.yul\":19056:19075   */\n      swap1\n      pop\n        /* \"#utility.yul\":18715:19081   */\n      swap2\n      swap1\n      pop\n      jump\t// out\n        /* \"#utility.yul\":19087:19506   */\n    tag_122:\n        /* \"#utility.yul\":19253:19257   */\n      0x00\n        /* \"#utility.yul\":19291:19293   */\n      0x20\n        /* \"#utility.yul\":19280:19289   */\n      dup3\n        /* \"#utility.yul\":19276:19294   */\n      add\n        /* \"#utility.yul\":19268:19294   */\n      swap1\n      pop\n        /* \"#utility.yul\":19340:19349   */\n      dup2\n        /* \"#utility.yul\":19334:19338   */\n      dup2\n        /* \"#utility.yul\":19330:19350   */\n      sub\n        /* \"#utility.yul\":19326:19327   */\n      0x00\n        /* \"#utility.yul\":19315:19324   */\n      dup4\n        /* \"#utility.yul\":19311:19328   */\n      add\n        /* \"#utility.yul\":19304:19351   */\n      mstore\n        /* \"#utility.yul\":19368:19499   */\n      tag_475\n        /* \"#utility.yul\":19494:19498   */\n      dup2\n        /* \"#utility.yul\":19368:19499   */\n      tag_261\n      jump\t// in\n    tag_475:\n        /* \"#utility.yul\":19360:19499   */\n      swap1\n      pop\n        /* \"#utility.yul\":19087:19506   */\n      swap2\n      swap1\n      pop\n      jump\t// out\n        /* \"#utility.yul\":19512:19660   */\n    tag_262:\n        /* \"#utility.yul\":19614:19625   */\n      0x00\n        /* \"#utility.yul\":19651:19654   */\n      dup2\n        /* \"#utility.yul\":19636:19654   */\n      swap1\n      pop\n        /* \"#utility.yul\":19512:19660   */\n      swap3\n      swap2\n      pop\n      pop\n      jump\t// out\n        /* \"#utility.yul\":19666:19814   */\n    tag_263:\n        /* \"#utility.yul\":19764:19770   */\n      dup3\n        /* \"#utility.yul\":19759:19762   */\n      dup2\n        /* \"#utility.yul\":19754:19757   */\n      dup4\n        /* \"#utility.yul\":19741:19771   */\n      calldatacopy\n        /* \"#utility.yul\":19805:19806   */\n      0x00\n        /* \"#utility.yul\":19796:19802   */\n      dup4\n        /* \"#utility.yul\":19791:19794   */\n      dup4\n        /* \"#utility.yul\":19787:19803   */\n      add\n        /* \"#utility.yul\":19780:19807   */\n      mstore\n        /* \"#utility.yul\":19666:19814   */\n      pop\n      pop\n      pop\n      jump\t// out\n        /* \"#utility.yul\":19844:20174   */\n    tag_264:\n        /* \"#utility.yul\":19960:19963   */\n      0x00\n        /* \"#utility.yul\":19981:20070   */\n      tag_479\n        /* \"#utility.yul\":20063:20069   */\n      dup4\n        /* \"#utility.yul\":20058:20061   */\n      dup6\n        /* \"#utility.yul\":19981:20070   */\n      tag_262\n      jump\t// in\n    tag_479:\n        /* \"#utility.yul\":19974:20070   */\n      swap4\n      pop\n        /* \"#utility.yul\":20080:20136   */\n      tag_480\n        /* \"#utility.yul\":20129:20135   */\n      dup4\n        /* \"#utility.yul\":20124:20127   */\n      dup6\n        /* \"#utility.yul\":20117:20122   */\n      dup5\n        /* \"#utility.yul\":20080:20136   */\n      tag_263\n      jump\t// in\n    tag_480:\n        /* \"#utility.yul\":20161:20167   */\n      dup3\n        /* \"#utility.yul\":20156:20159   */\n      dup5\n        /* \"#utility.yul\":20152:20168   */\n      add\n        /* \"#utility.yul\":20145:20168   */\n      swap1\n      pop\n        /* \"#utility.yul\":19844:20174   */\n      swap4\n      swap3\n      pop\n      pop\n      pop\n      jump\t// out\n        /* \"#utility.yul\":20180:20475   */\n    tag_136:\n        /* \"#utility.yul\":20322:20325   */\n      0x00\n        /* \"#utility.yul\":20344:20449   */\n      tag_482\n        /* \"#utility.yul\":20445:20448   */\n      dup3\n        /* \"#utility.yul\":20436:20442   */\n      dup5\n        /* \"#utility.yul\":20428:20434   */\n      dup7\n        /* \"#utility.yul\":20344:20449   */\n      tag_264\n      jump\t// in\n    tag_482:\n        /* \"#utility.yul\":20337:20449   */\n      swap2\n      pop\n        /* \"#utility.yul\":20466:20469   */\n      dup2\n        /* \"#utility.yul\":20459:20469   */\n      swap1\n      pop\n        /* \"#utility.yul\":20180:20475   */\n      swap4\n      swap3\n      pop\n      pop\n      pop\n      jump\t// out\n        /* \"#utility.yul\":20481:20713   */\n    tag_265:\n        /* \"#utility.yul\":20621:20655   */\n      0x526f6c654163636573733a2063616e6e6f74206772616e7420726f6c6520746f\n        /* \"#utility.yul\":20617:20618   */\n      0x00\n        /* \"#utility.yul\":20609:20615   */\n      dup3\n        /* \"#utility.yul\":20605:20619   */\n      add\n        /* \"#utility.yul\":20598:20656   */\n      mstore\n        /* \"#utility.yul\":20690:20705   */\n      0x207a65726f206164647265737300000000000000000000000000000000000000\n        /* \"#utility.yul\":20685:20687   */\n      0x20\n        /* \"#utility.yul\":20677:20683   */\n      dup3\n        /* \"#utility.yul\":20673:20688   */\n      add\n        /* \"#utility.yul\":20666:20706   */\n      mstore\n        /* \"#utility.yul\":20481:20713   */\n      pop\n      jump\t// out\n        /* \"#utility.yul\":20719:21085   */\n    tag_266:\n        /* \"#utility.yul\":20861:20864   */\n      0x00\n        /* \"#utility.yul\":20882:20949   */\n      tag_485\n        /* \"#utility.yul\":20946:20948   */\n      0x2d\n        /* \"#utility.yul\":20941:20944   */\n      dup4\n        /* \"#utility.yul\":20882:20949   */\n      tag_248\n      jump\t// in\n    tag_485:\n        /* \"#utility.yul\":20875:20949   */\n      swap2\n      pop\n        /* \"#utility.yul\":20958:21051   */\n      tag_486\n        /* \"#utility.yul\":21047:21050   */\n      dup3\n        /* \"#utility.yul\":20958:21051   */\n      tag_265\n      jump\t// in\n    tag_486:\n        /* \"#utility.yul\":21076:21078   */\n      0x40\n        /* \"#utility.yul\":21071:21074   */\n      dup3\n        /* \"#utility.yul\":21067:21079   */\n      add\n        /* \"#utility.yul\":21060:21079   */\n      swap1\n      pop\n        /* \"#utility.yul\":20719:21085   */\n      swap2\n      swap1\n      pop\n      jump\t// out\n        /* \"#utility.yul\":21091:21510   */\n    tag_143:\n        /* \"#utility.yul\":21257:21261   */\n      0x00\n        /* \"#utility.yul\":21295:21297   */\n      0x20\n        /* \"#utility.yul\":21284:21293   */\n      dup3\n        /* \"#utility.yul\":21280:21298   */\n      add\n        /* \"#utility.yul\":21272:21298   */\n      swap1\n      pop\n        /* \"#utility.yul\":21344:21353   */\n      dup2\n        /* \"#utility.yul\":21338:21342   */\n      dup2\n        /* \"#utility.yul\":21334:21354   */\n      sub\n        /* \"#utility.yul\":21330:21331   */\n      0x00\n        /* \"#utility.yul\":21319:21328   */\n      dup4\n        /* \"#utility.yul\":21315:21332   */\n      add\n        /* \"#utility.yul\":21308:21355   */\n      mstore\n        /* \"#utility.yul\":21372:21503   */\n      tag_488\n        /* \"#utility.yul\":21498:21502   */\n      dup2\n        /* \"#utility.yul\":21372:21503   */\n      tag_266\n      jump\t// in\n    tag_488:\n        /* \"#utility.yul\":21364:21503   */\n      swap1\n      pop\n        /* \"#utility.yul\":21091:21510   */\n      swap2\n      swap1\n      pop\n      jump\t// out\n        /* \"#utility.yul\":21516:21744   */\n    tag_267:\n        /* \"#utility.yul\":21656:21690   */\n      0x526f6c654163636573733a206163636f756e7420616c72656164792068617320\n        /* \"#utility.yul\":21652:21653   */\n      0x00\n        /* \"#utility.yul\":21644:21650   */\n      dup3\n        /* \"#utility.yul\":21640:21654   */\n      add\n        /* \"#utility.yul\":21633:21691   */\n      mstore\n        /* \"#utility.yul\":21725:21736   */\n      0x7468697320726f6c650000000000000000000000000000000000000000000000\n        /* \"#utility.yul\":21720:21722   */\n      0x20\n        /* \"#utility.yul\":21712:21718   */\n      dup3\n        /* \"#utility.yul\":21708:21723   */\n      add\n        /* \"#utility.yul\":21701:21737   */\n      mstore\n        /* \"#utility.yul\":21516:21744   */\n      pop\n      jump\t// out\n        /* \"#utility.yul\":21750:22116   */\n    tag_268:\n        /* \"#utility.yul\":21892:21895   */\n      0x00\n        /* \"#utility.yul\":21913:21980   */\n      tag_491\n        /* \"#utility.yul\":21977:21979   */\n      0x29\n        /* \"#utility.yul\":21972:21975   */\n      dup4\n        /* \"#utility.yul\":21913:21980   */\n      tag_248\n      jump\t// in\n    tag_491:\n        /* \"#utility.yul\":21906:21980   */\n      swap2\n      pop\n        /* \"#utility.yul\":21989:22082   */\n      tag_492\n        /* \"#utility.yul\":22078:22081   */\n      dup3\n        /* \"#utility.yul\":21989:22082   */\n      tag_267\n      jump\t// in\n    tag_492:\n        /* \"#utility.yul\":22107:22109   */\n      0x40\n        /* \"#utility.yul\":22102:22105   */\n      dup3\n        /* \"#utility.yul\":22098:22110   */\n      add\n        /* \"#utility.yul\":22091:22110   */\n      swap1\n      pop\n        /* \"#utility.yul\":21750:22116   */\n      swap2\n      swap1\n      pop\n      jump\t// out\n        /* \"#utility.yul\":22122:22541   */\n    tag_146:\n        /* \"#utility.yul\":22288:22292   */\n      0x00\n        /* \"#utility.yul\":22326:22328   */\n      0x20\n        /* \"#utility.yul\":22315:22324   */\n      dup3\n        /* \"#utility.yul\":22311:22329   */\n      add\n        /* \"#utility.yul\":22303:22329   */\n      swap1\n      pop\n        /* \"#utility.yul\":22375:22384   */\n      dup2\n        /* \"#utility.yul\":22369:22373   */\n      dup2\n        /* \"#utility.yul\":22365:22385   */\n      sub\n        /* \"#utility.yul\":22361:22362   */\n      0x00\n        /* \"#utility.yul\":22350:22359   */\n      dup4\n        /* \"#utility.yul\":22346:22363   */\n      add\n        /* \"#utility.yul\":22339:22386   */\n      mstore\n        /* \"#utility.yul\":22403:22534   */\n      tag_494\n        /* \"#utility.yul\":22529:22533   */\n      dup2\n        /* \"#utility.yul\":22403:22534   */\n      tag_268\n      jump\t// in\n    tag_494:\n        /* \"#utility.yul\":22395:22534   */\n      swap1\n      pop\n        /* \"#utility.yul\":22122:22541   */\n      swap2\n      swap1\n      pop\n      jump\t// out\n        /* \"#utility.yul\":22547:22665   */\n    tag_269:\n        /* \"#utility.yul\":22634:22658   */\n      tag_496\n        /* \"#utility.yul\":22652:22657   */\n      dup2\n        /* \"#utility.yul\":22634:22658   */\n      tag_239\n      jump\t// in\n    tag_496:\n        /* \"#utility.yul\":22629:22632   */\n      dup3\n        /* \"#utility.yul\":22622:22659   */\n      mstore\n        /* \"#utility.yul\":22547:22665   */\n      pop\n      pop\n      jump\t// out\n        /* \"#utility.yul\":22671:23101   */\n    tag_164:\n        /* \"#utility.yul\":22814:22818   */\n      0x00\n        /* \"#utility.yul\":22852:22854   */\n      0x60\n        /* \"#utility.yul\":22841:22850   */\n      dup3\n        /* \"#utility.yul\":22837:22855   */\n      add\n        /* \"#utility.yul\":22829:22855   */\n      swap1\n      pop\n        /* \"#utility.yul\":22865:22936   */\n      tag_498\n        /* \"#utility.yul\":22933:22934   */\n      0x00\n        /* \"#utility.yul\":22922:22931   */\n      dup4\n        /* \"#utility.yul\":22918:22935   */\n      add\n        /* \"#utility.yul\":22909:22915   */\n      dup7\n        /* \"#utility.yul\":22865:22936   */\n      tag_246\n      jump\t// in\n    tag_498:\n        /* \"#utility.yul\":22946:23012   */\n      tag_499\n        /* \"#utility.yul\":23008:23010   */\n      0x20\n        /* \"#utility.yul\":22997:23006   */\n      dup4\n        /* \"#utility.yul\":22993:23011   */\n      add\n        /* \"#utility.yul\":22984:22990   */\n      dup6\n        /* \"#utility.yul\":22946:23012   */\n      tag_247\n      jump\t// in\n    tag_499:\n        /* \"#utility.yul\":23022:23094   */\n      tag_500\n        /* \"#utility.yul\":23090:23092   */\n      0x40\n        /* \"#utility.yul\":23079:23088   */\n      dup4\n        /* \"#utility.yul\":23075:23093   */\n      add\n        /* \"#utility.yul\":23066:23072   */\n      dup5\n        /* \"#utility.yul\":23022:23094   */\n      tag_269\n      jump\t// in\n    tag_500:\n        /* \"#utility.yul\":22671:23101   */\n      swap5\n      swap4\n      pop\n      pop\n      pop\n      pop\n      jump\t// out\n        /* \"#utility.yul\":23107:23336   */\n    tag_270:\n        /* \"#utility.yul\":23247:23281   */\n      0x526f6c654163636573733a2063616c6c657220646f6573206e6f742068617665\n        /* \"#utility.yul\":23243:23244   */\n      0x00\n        /* \"#utility.yul\":23235:23241   */\n      dup3\n        /* \"#utility.yul\":23231:23245   */\n      add\n        /* \"#utility.yul\":23224:23282   */\n      mstore\n        /* \"#utility.yul\":23316:23328   */\n      0x207468697320726f6c6500000000000000000000000000000000000000000000\n        /* \"#utility.yul\":23311:23313   */\n      0x20\n        /* \"#utility.yul\":23303:23309   */\n      dup3\n        /* \"#utility.yul\":23299:23314   */\n      add\n        /* \"#utility.yul\":23292:23329   */\n      mstore\n        /* \"#utility.yul\":23107:23336   */\n      pop\n      jump\t// out\n        /* \"#utility.yul\":23342:23708   */\n    tag_271:\n        /* \"#utility.yul\":23484:23487   */\n      0x00\n        /* \"#utility.yul\":23505:23572   */\n      tag_503\n        /* \"#utility.yul\":23569:23571   */\n      0x2a\n        /* \"#utility.yul\":23564:23567   */\n      dup4\n        /* \"#utility.yul\":23505:23572   */\n      tag_248\n      jump\t// in\n    tag_503:\n        /* \"#utility.yul\":23498:23572   */\n      swap2\n      pop\n        /* \"#utility.yul\":23581:23674   */\n      tag_504\n        /* \"#utility.yul\":23670:23673   */\n      dup3\n        /* \"#utility.yul\":23581:23674   */\n      tag_270\n      jump\t// in\n    tag_504:\n        /* \"#utility.yul\":23699:23701   */\n      0x40\n        /* \"#utility.yul\":23694:23697   */\n      dup3\n        /* \"#utility.yul\":23690:23702   */\n      add\n        /* \"#utility.yul\":23683:23702   */\n      swap1\n      pop\n        /* \"#utility.yul\":23342:23708   */\n      swap2\n      swap1\n      pop\n      jump\t// out\n        /* \"#utility.yul\":23714:24133   */\n    tag_168:\n        /* \"#utility.yul\":23880:23884   */\n      0x00\n        /* \"#utility.yul\":23918:23920   */\n      0x20\n        /* \"#utility.yul\":23907:23916   */\n      dup3\n        /* \"#utility.yul\":23903:23921   */\n      add\n        /* \"#utility.yul\":23895:23921   */\n      swap1\n      pop\n        /* \"#utility.yul\":23967:23976   */\n      dup2\n        /* \"#utility.yul\":23961:23965   */\n      dup2\n        /* \"#utility.yul\":23957:23977   */\n      sub\n        /* \"#utility.yul\":23953:23954   */\n      0x00\n        /* \"#utility.yul\":23942:23951   */\n      dup4\n        /* \"#utility.yul\":23938:23955   */\n      add\n        /* \"#utility.yul\":23931:23978   */\n      mstore\n        /* \"#utility.yul\":23995:24126   */\n      tag_506\n        /* \"#utility.yul\":24121:24125   */\n      dup2\n        /* \"#utility.yul\":23995:24126   */\n      tag_271\n      jump\t// in\n    tag_506:\n        /* \"#utility.yul\":23987:24126   */\n      swap1\n      pop\n        /* \"#utility.yul\":23714:24133   */\n      swap2\n      swap1\n      pop\n      jump\t// out\n        /* \"#utility.yul\":24139:24372   */\n    tag_272:\n        /* \"#utility.yul\":24279:24313   */\n      0x526f6c654163636573733a2063616c6c657220646f6573206e6f742068617665\n        /* \"#utility.yul\":24275:24276   */\n      0x00\n        /* \"#utility.yul\":24267:24273   */\n      dup3\n        /* \"#utility.yul\":24263:24277   */\n      add\n        /* \"#utility.yul\":24256:24314   */\n      mstore\n        /* \"#utility.yul\":24348:24364   */\n      0x20726571756972656420726f6c65000000000000000000000000000000000000\n        /* \"#utility.yul\":24343:24345   */\n      0x20\n        /* \"#utility.yul\":24335:24341   */\n      dup3\n        /* \"#utility.yul\":24331:24346   */\n      add\n        /* \"#utility.yul\":24324:24365   */\n      mstore\n        /* \"#utility.yul\":24139:24372   */\n      pop\n      jump\t// out\n        /* \"#utility.yul\":24378:24744   */\n    tag_273:\n        /* \"#utility.yul\":24520:24523   */\n      0x00\n        /* \"#utility.yul\":24541:24608   */\n      tag_509\n        /* \"#utility.yul\":24605:24607   */\n      0x2e\n        /* \"#utility.yul\":24600:24603   */\n      dup4\n        /* \"#utility.yul\":24541:24608   */\n      tag_248\n      jump\t// in\n    tag_509:\n        /* \"#utility.yul\":24534:24608   */\n      swap2\n      pop\n        /* \"#utility.yul\":24617:24710   */\n      tag_510\n        /* \"#utility.yul\":24706:24709   */\n      dup3\n        /* \"#utility.yul\":24617:24710   */\n      tag_272\n      jump\t// in\n    tag_510:\n        /* \"#utility.yul\":24735:24737   */\n      0x40\n        /* \"#utility.yul\":24730:24733   */\n      dup3\n        /* \"#utility.yul\":24726:24738   */\n      add\n        /* \"#utility.yul\":24719:24738   */\n      swap1\n      pop\n        /* \"#utility.yul\":24378:24744   */\n      swap2\n      swap1\n      pop\n      jump\t// out\n        /* \"#utility.yul\":24750:25169   */\n    tag_173:\n        /* \"#utility.yul\":24916:24920   */\n      0x00\n        /* \"#utility.yul\":24954:24956   */\n      0x20\n        /* \"#utility.yul\":24943:24952   */\n      dup3\n        /* \"#utility.yul\":24939:24957   */\n      add\n        /* \"#utility.yul\":24931:24957   */\n      swap1\n      pop\n        /* \"#utility.yul\":25003:25012   */\n      dup2\n        /* \"#utility.yul\":24997:25001   */\n      dup2\n        /* \"#utility.yul\":24993:25013   */\n      sub\n        /* \"#utility.yul\":24989:24990   */\n      0x00\n        /* \"#utility.yul\":24978:24987   */\n      dup4\n        /* \"#utility.yul\":24974:24991   */\n      add\n        /* \"#utility.yul\":24967:25014   */\n      mstore\n        /* \"#utility.yul\":25031:25162   */\n      tag_512\n        /* \"#utility.yul\":25157:25161   */\n      dup2\n        /* \"#utility.yul\":25031:25162   */\n      tag_273\n      jump\t// in\n    tag_512:\n        /* \"#utility.yul\":25023:25162   */\n      swap1\n      pop\n        /* \"#utility.yul\":24750:25169   */\n      swap2\n      swap1\n      pop\n      jump\t// out\n        /* \"#utility.yul\":25175:25395   */\n    tag_274:\n        /* \"#utility.yul\":25315:25349   */\n      0x4950465356657269666965723a204349442063616e6e6f7420626520656d7074\n        /* \"#utility.yul\":25311:25312   */\n      0x00\n        /* \"#utility.yul\":25303:25309   */\n      dup3\n        /* \"#utility.yul\":25299:25313   */\n      add\n        /* \"#utility.yul\":25292:25350   */\n      mstore\n        /* \"#utility.yul\":25384:25387   */\n      0x7900000000000000000000000000000000000000000000000000000000000000\n        /* \"#utility.yul\":25379:25381   */\n      0x20\n        /* \"#utility.yul\":25371:25377   */\n      dup3\n        /* \"#utility.yul\":25367:25382   */\n      add\n        /* \"#utility.yul\":25360:25388   */\n      mstore\n        /* \"#utility.yul\":25175:25395   */\n      pop\n      jump\t// out\n        /* \"#utility.yul\":25401:25767   */\n    tag_275:\n        /* \"#utility.yul\":25543:25546   */\n      0x00\n        /* \"#utility.yul\":25564:25631   */\n      tag_515\n        /* \"#utility.yul\":25628:25630   */\n      0x21\n        /* \"#utility.yul\":25623:25626   */\n      dup4\n        /* \"#utility.yul\":25564:25631   */\n      tag_248\n      jump\t// in\n    tag_515:\n        /* \"#utility.yul\":25557:25631   */\n      swap2\n      pop\n        /* \"#utility.yul\":25640:25733   */\n      tag_516\n        /* \"#utility.yul\":25729:25732   */\n      dup3\n        /* \"#utility.yul\":25640:25733   */\n      tag_274\n      jump\t// in\n    tag_516:\n        /* \"#utility.yul\":25758:25760   */\n      0x40\n        /* \"#utility.yul\":25753:25756   */\n      dup3\n        /* \"#utility.yul\":25749:25761   */\n      add\n        /* \"#utility.yul\":25742:25761   */\n      swap1\n      pop\n        /* \"#utility.yul\":25401:25767   */\n      swap2\n      swap1\n      pop\n      jump\t// out\n        /* \"#utility.yul\":25773:26192   */\n    tag_177:\n        /* \"#utility.yul\":25939:25943   */\n      0x00\n        /* \"#utility.yul\":25977:25979   */\n      0x20\n        /* \"#utility.yul\":25966:25975   */\n      dup3\n        /* \"#utility.yul\":25962:25980   */\n      add\n        /* \"#utility.yul\":25954:25980   */\n      swap1\n      pop\n        /* \"#utility.yul\":26026:26035   */\n      dup2\n        /* \"#utility.yul\":26020:26024   */\n      dup2\n        /* \"#utility.yul\":26016:26036   */\n      sub\n        /* \"#utility.yul\":26012:26013   */\n      0x00\n        /* \"#utility.yul\":26001:26010   */\n      dup4\n        /* \"#utility.yul\":25997:26014   */\n      add\n        /* \"#utility.yul\":25990:26037   */\n      mstore\n        /* \"#utility.yul\":26054:26185   */\n      tag_518\n        /* \"#utility.yul\":26180:26184   */\n      dup2\n        /* \"#utility.yul\":26054:26185   */\n      tag_275\n      jump\t// in\n    tag_518:\n        /* \"#utility.yul\":26046:26185   */\n      swap1\n      pop\n        /* \"#utility.yul\":25773:26192   */\n      swap2\n      swap1\n      pop\n      jump\t// out\n        /* \"#utility.yul\":26198:26418   */\n    tag_276:\n        /* \"#utility.yul\":26338:26372   */\n      0x4950465356657269666965723a20686173682063616e6e6f74206265207a6572\n        /* \"#utility.yul\":26334:26335   */\n      0x00\n        /* \"#utility.yul\":26326:26332   */\n      dup3\n        /* \"#utility.yul\":26322:26336   */\n      add\n        /* \"#utility.yul\":26315:26373   */\n      mstore\n        /* \"#utility.yul\":26407:26410   */\n      0x6f00000000000000000000000000000000000000000000000000000000000000\n        /* \"#utility.yul\":26402:26404   */\n      0x20\n        /* \"#utility.yul\":26394:26400   */\n      dup3\n        /* \"#utility.yul\":26390:26405   */\n      add\n        /* \"#utility.yul\":26383:26411   */\n      mstore\n        /* \"#utility.yul\":26198:26418   */\n      pop\n      jump\t// out\n        /* \"#utility.yul\":26424:26790   */\n    tag_277:\n        /* \"#utility.yul\":26566:26569   */\n      0x00\n        /* \"#utility.yul\":26587:26654   */\n      tag_521\n        /* \"#utility.yul\":26651:26653   */\n      0x21\n        /* \"#utility.yul\":26646:26649   */\n      dup4\n        /* \"#utility.yul\":26587:26654   */\n      tag_248\n      jump\t// in\n    tag_521:\n        /* \"#utility.yul\":26580:26654   */\n      swap2\n      pop\n        /* \"#utility.yul\":26663:26756   */\n      tag_522\n        /* \"#utility.yul\":26752:26755   */\n      dup3\n        /* \"#utility.yul\":26663:26756   */\n      tag_276\n      jump\t// in\n    tag_522:\n        /* \"#utility.yul\":26781:26783   */\n      0x40\n        /* \"#utility.yul\":26776:26779   */\n      dup3\n        /* \"#utility.yul\":26772:26784   */\n      add\n        /* \"#utility.yul\":26765:26784   */\n      swap1\n      pop\n        /* \"#utility.yul\":26424:26790   */\n      swap2\n      swap1\n      pop\n      jump\t// out\n        /* \"#utility.yul\":26796:27215   */\n    tag_180:\n        /* \"#utility.yul\":26962:26966   */\n      0x00\n        /* \"#utility.yul\":27000:27002   */\n      0x20\n        /* \"#utility.yul\":26989:26998   */\n      dup3\n        /* \"#utility.yul\":26985:27003   */\n      add\n        /* \"#utility.yul\":26977:27003   */\n      swap1\n      pop\n        /* \"#utility.yul\":27049:27058   */\n      dup2\n        /* \"#utility.yul\":27043:27047   */\n      dup2\n        /* \"#utility.yul\":27039:27059   */\n      sub\n        /* \"#utility.yul\":27035:27036   */\n      0x00\n        /* \"#utility.yul\":27024:27033   */\n      dup4\n        /* \"#utility.yul\":27020:27037   */\n      add\n        /* \"#utility.yul\":27013:27060   */\n      mstore\n        /* \"#utility.yul\":27077:27208   */\n      tag_524\n        /* \"#utility.yul\":27203:27207   */\n      dup2\n        /* \"#utility.yul\":27077:27208   */\n      tag_277\n      jump\t// in\n    tag_524:\n        /* \"#utility.yul\":27069:27208   */\n      swap1\n      pop\n        /* \"#utility.yul\":26796:27215   */\n      swap2\n      swap1\n      pop\n      jump\t// out\n        /* \"#utility.yul\":27221:27445   */\n    tag_278:\n        /* \"#utility.yul\":27361:27395   */\n      0x4950465356657269666965723a20646f63547970652063616e6e6f7420626520\n        /* \"#utility.yul\":27357:27358   */\n      0x00\n        /* \"#utility.yul\":27349:27355   */\n      dup3\n        /* \"#utility.yul\":27345:27359   */\n      add\n        /* \"#utility.yul\":27338:27396   */\n      mstore\n        /* \"#utility.yul\":27430:27437   */\n      0x656d707479000000000000000000000000000000000000000000000000000000\n        /* \"#utility.yul\":27425:27427   */\n      0x20\n        /* \"#utility.yul\":27417:27423   */\n      dup3\n        /* \"#utility.yul\":27413:27428   */\n      add\n        /* \"#utility.yul\":27406:27438   */\n      mstore\n        /* \"#utility.yul\":27221:27445   */\n      pop\n      jump\t// out\n        /* \"#utility.yul\":27451:27817   */\n    tag_279:\n        /* \"#utility.yul\":27593:27596   */\n      0x00\n        /* \"#utility.yul\":27614:27681   */\n      tag_527\n        /* \"#utility.yul\":27678:27680   */\n      0x25\n        /* \"#utility.yul\":27673:27676   */\n      dup4\n        /* \"#utility.yul\":27614:27681   */\n      tag_248\n      jump\t// in\n    tag_527:\n        /* \"#utility.yul\":27607:27681   */\n      swap2\n      pop\n        /* \"#utility.yul\":27690:27783   */\n      tag_528\n        /* \"#utility.yul\":27779:27782   */\n      dup3\n        /* \"#utility.yul\":27690:27783   */\n      tag_278\n      jump\t// in\n    tag_528:\n        /* \"#utility.yul\":27808:27810   */\n      0x40\n        /* \"#utility.yul\":27803:27806   */\n      dup3\n        /* \"#utility.yul\":27799:27811   */\n      add\n        /* \"#utility.yul\":27792:27811   */\n      swap1\n      pop\n        /* \"#utility.yul\":27451:27817   */\n      swap2\n      swap1\n      pop\n      jump\t// out\n        /* \"#utility.yul\":27823:28242   */\n    tag_183:\n        /* \"#utility.yul\":27989:27993   */\n      0x00\n        /* \"#utility.yul\":28027:28029   */\n      0x20\n        /* \"#utility.yul\":28016:28025   */\n      dup3\n        /* \"#utility.yul\":28012:28030   */\n      add\n        /* \"#utility.yul\":28004:28030   */\n      swap1\n      pop\n        /* \"#utility.yul\":28076:28085   */\n      dup2\n        /* \"#utility.yul\":28070:28074   */\n      dup2\n        /* \"#utility.yul\":28066:28086   */\n      sub\n        /* \"#utility.yul\":28062:28063   */\n      0x00\n        /* \"#utility.yul\":28051:28060   */\n      dup4\n        /* \"#utility.yul\":28047:28064   */\n      add\n        /* \"#utility.yul\":28040:28087   */\n      mstore\n        /* \"#utility.yul\":28104:28235   */\n      tag_530\n        /* \"#utility.yul\":28230:28234   */\n      dup2\n        /* \"#utility.yul\":28104:28235   */\n      tag_279\n      jump\t// in\n    tag_530:\n        /* \"#utility.yul\":28096:28235   */\n      swap1\n      pop\n        /* \"#utility.yul\":27823:28242   */\n      swap2\n      swap1\n      pop\n      jump\t// out\n        /* \"#utility.yul\":28248:28469   */\n    tag_280:\n        /* \"#utility.yul\":28388:28422   */\n      0x4950465356657269666965723a2043494420616c726561647920616e63686f72\n        /* \"#utility.yul\":28384:28385   */\n      0x00\n        /* \"#utility.yul\":28376:28382   */\n      dup3\n        /* \"#utility.yul\":28372:28386   */\n      add\n        /* \"#utility.yul\":28365:28423   */\n      mstore\n        /* \"#utility.yul\":28457:28461   */\n      0x6564000000000000000000000000000000000000000000000000000000000000\n        /* \"#utility.yul\":28452:28454   */\n      0x20\n        /* \"#utility.yul\":28444:28450   */\n      dup3\n        /* \"#utility.yul\":28440:28455   */\n      add\n        /* \"#utility.yul\":28433:28462   */\n      mstore\n        /* \"#utility.yul\":28248:28469   */\n      pop\n      jump\t// out\n        /* \"#utility.yul\":28475:28841   */\n    tag_281:\n        /* \"#utility.yul\":28617:28620   */\n      0x00\n        /* \"#utility.yul\":28638:28705   */\n      tag_533\n        /* \"#utility.yul\":28702:28704   */\n      0x22\n        /* \"#utility.yul\":28697:28700   */\n      dup4\n        /* \"#utility.yul\":28638:28705   */\n      tag_248\n      jump\t// in\n    tag_533:\n        /* \"#utility.yul\":28631:28705   */\n      swap2\n      pop\n        /* \"#utility.yul\":28714:28807   */\n      tag_534\n        /* \"#utility.yul\":28803:28806   */\n      dup3\n        /* \"#utility.yul\":28714:28807   */\n      tag_280\n      jump\t// in\n    tag_534:\n        /* \"#utility.yul\":28832:28834   */\n      0x40\n        /* \"#utility.yul\":28827:28830   */\n      dup3\n        /* \"#utility.yul\":28823:28835   */\n      add\n        /* \"#utility.yul\":28816:28835   */\n      swap1\n      pop\n        /* \"#utility.yul\":28475:28841   */\n      swap2\n      swap1\n      pop\n      jump\t// out\n        /* \"#utility.yul\":28847:29266   */\n    tag_187:\n        /* \"#utility.yul\":29013:29017   */\n      0x00\n        /* \"#utility.yul\":29051:29053   */\n      0x20\n        /* \"#utility.yul\":29040:29049   */\n      dup3\n        /* \"#utility.yul\":29036:29054   */\n      add\n        /* \"#utility.yul\":29028:29054   */\n      swap1\n      pop\n        /* \"#utility.yul\":29100:29109   */\n      dup2\n        /* \"#utility.yul\":29094:29098   */\n      dup2\n        /* \"#utility.yul\":29090:29110   */\n      sub\n        /* \"#utility.yul\":29086:29087   */\n      0x00\n        /* \"#utility.yul\":29075:29084   */\n      dup4\n        /* \"#utility.yul\":29071:29088   */\n      add\n        /* \"#utility.yul\":29064:29111   */\n      mstore\n        /* \"#utility.yul\":29128:29259   */\n      tag_536\n        /* \"#utility.yul\":29254:29258   */\n      dup2\n        /* \"#utility.yul\":29128:29259   */\n      tag_281\n      jump\t// in\n    tag_536:\n        /* \"#utility.yul\":29120:29259   */\n      swap1\n      pop\n        /* \"#utility.yul\":28847:29266   */\n      swap2\n      swap1\n      pop\n      jump\t// out\n        /* \"#utility.yul\":29272:29452   */\n    tag_282:\n        /* \"#utility.yul\":29320:29397   */\n      0x4e487b7100000000000000000000000000000000000000000000000000000000\n        /* \"#utility.yul\":29317:29318   */\n      0x00\n        /* \"#utility.yul\":29310:29398   */\n      mstore\n        /* \"#utility.yul\":29417:29421   */\n      0x41\n        /* \"#utility.yul\":29414:29415   */\n      0x04\n        /* \"#utility.yul\":29407:29422   */\n      mstore\n        /* \"#utility.yul\":29441:29445   */\n      0x24\n        /* \"#utility.yul\":29438:29439   */\n      0x00\n        /* \"#utility.yul\":29431:29446   */\n      revert\n        /* \"#utility.yul\":29458:29599   */\n    tag_283:\n        /* \"#utility.yul\":29507:29511   */\n      0x00\n        /* \"#utility.yul\":29530:29533   */\n      dup2\n        /* \"#utility.yul\":29522:29533   */\n      swap1\n      pop\n        /* \"#utility.yul\":29553:29556   */\n      dup2\n        /* \"#utility.yul\":29550:29551   */\n      0x00\n        /* \"#utility.yul\":29543:29557   */\n      mstore\n        /* \"#utility.yul\":29587:29591   */\n      0x20\n        /* \"#utility.yul\":29584:29585   */\n      0x00\n        /* \"#utility.yul\":29574:29592   */\n      keccak256\n        /* \"#utility.yul\":29566:29592   */\n      swap1\n      pop\n        /* \"#utility.yul\":29458:29599   */\n      swap2\n      swap1\n      pop\n      jump\t// out\n        /* \"#utility.yul\":29605:29698   */\n    tag_284:\n        /* \"#utility.yul\":29642:29648   */\n      0x00\n        /* \"#utility.yul\":29689:29691   */\n      0x20\n        /* \"#utility.yul\":29684:29686   */\n      0x1f\n        /* \"#utility.yul\":29677:29682   */\n      dup4\n        /* \"#utility.yul\":29673:29687   */\n      add\n        /* \"#utility.yul\":29669:29692   */\n      div\n        /* \"#utility.yul\":29659:29692   */\n      swap1\n      pop\n        /* \"#utility.yul\":29605:29698   */\n      swap2\n      swap1\n      pop\n      jump\t// out\n        /* \"#utility.yul\":29704:29811   */\n    tag_285:\n        /* \"#utility.yul\":29748:29756   */\n      0x00\n        /* \"#utility.yul\":29798:29803   */\n      dup3\n        /* \"#utility.yul\":29792:29796   */\n      dup3\n        /* \"#utility.yul\":29788:29804   */\n      shl\n        /* \"#utility.yul\":29767:29804   */\n      swap1\n      pop\n        /* \"#utility.yul\":29704:29811   */\n      swap3\n      swap2\n      pop\n      pop\n      jump\t// out\n        /* \"#utility.yul\":29817:30210   */\n    tag_286:\n        /* \"#utility.yul\":29886:29892   */\n      0x00\n        /* \"#utility.yul\":29936:29937   */\n      0x08\n        /* \"#utility.yul\":29924:29934   */\n      dup4\n        /* \"#utility.yul\":29920:29938   */\n      mul\n        /* \"#utility.yul\":29959:30056   */\n      tag_542\n        /* \"#utility.yul\":29989:30055   */\n      0xffffffffffffffffffffffffffffffffffffffffffffffffffffffffffffffff\n        /* \"#utility.yul\":29978:29987   */\n      dup3\n        /* \"#utility.yul\":29959:30056   */\n      tag_285\n      jump\t// in\n    tag_542:\n        /* \"#utility.yul\":30077:30116   */\n      tag_543\n        /* \"#utility.yul\":30107:30115   */\n      dup7\n        /* \"#utility.yul\":30096:30105   */\n      dup4\n        /* \"#utility.yul\":30077:30116   */\n      tag_285\n      jump\t// in\n    tag_543:\n        /* \"#utility.yul\":30065:30116   */\n      swap6\n      pop\n        /* \"#utility.yul\":30149:30153   */\n      dup1\n        /* \"#utility.yul\":30145:30154   */\n      not\n        /* \"#utility.yul\":30138:30143   */\n      dup5\n        /* \"#utility.yul\":30134:30155   */\n      and\n        /* \"#utility.yul\":30125:30155   */\n      swap4\n      pop\n        /* \"#utility.yul\":30198:30202   */\n      dup1\n        /* \"#utility.yul\":30188:30196   */\n      dup7\n        /* \"#utility.yul\":30184:30203   */\n      and\n        /* \"#utility.yul\":30177:30182   */\n      dup5\n        /* \"#utility.yul\":30174:30204   */\n      or\n        /* \"#utility.yul\":30164:30204   */\n      swap3\n      pop\n        /* \"#utility.yul\":29893:30210   */\n      pop\n      pop\n        /* \"#utility.yul\":29817:30210   */\n      swap4\n      swap3\n      pop\n      pop\n      pop\n      jump\t// out\n        /* \"#utility.yul\":30216:30276   */\n    tag_287:\n        /* \"#utility.yul\":30244:30247   */\n      0x00\n        /* \"#utility.yul\":30265:30270   */\n      dup2\n        /* \"#utility.yul\":30258:30270   */\n      swap1\n      pop\n        /* \"#utility.yul\":30216:30276   */\n      swap2\n      swap1\n      pop\n      jump\t// out\n        /* \"#utility.yul\":30282:30424   */\n    tag_288:\n        /* \"#utility.yul\":30332:30341   */\n      0x00\n        /* \"#utility.yul\":30365:30418   */\n      tag_546\n        /* \"#utility.yul\":30383:30417   */\n      tag_547\n        /* \"#utility.yul\":30392:30416   */\n      tag_548\n        /* \"#utility.yul\":30410:30415   */\n      dup5\n        /* \"#utility.yul\":30392:30416   */\n      tag_220\n      jump\t// in\n    tag_548:\n        /* \"#utility.yul\":30383:30417   */\n      tag_287\n      jump\t// in\n    tag_547:\n        /* \"#utility.yul\":30365:30418   */\n      tag_220\n      jump\t// in\n    tag_546:\n        /* \"#utility.yul\":30352:30418   */\n      swap1\n      pop\n        /* \"#utility.yul\":30282:30424   */\n      swap2\n      swap1\n      pop\n      jump\t// out\n        /* \"#utility.yul\":30430:30505   */\n    tag_289:\n        /* \"#utility.yul\":30473:30476   */\n      0x00\n        /* \"#utility.yul\":30494:30499   */\n      dup2\n        /* \"#utility.yul\":30487:30499   */\n      swap1\n      pop\n        /* \"#utility.yul\":30430:30505   */\n      swap2\n      swap1\n      pop\n      jump\t// out\n        /* \"#utility.yul\":30511:30780   */\n    tag_290:\n        /* \"#utility.yul\":30621:30660   */\n      tag_551\n        /* \"#utility.yul\":30652:30659   */\n      dup4\n        /* \"#utility.yul\":30621:30660   */\n      tag_288\n      jump\t// in\n    tag_551:\n        /* \"#utility.yul\":30682:30773   */\n      tag_552\n        /* \"#utility.yul\":30731:30772   */\n      tag_553\n        /* \"#utility.yul\":30755:30771   */\n      dup3\n        /* \"#utility.yul\":30731:30772   */\n      tag_289\n      jump\t// in\n    tag_553:\n        /* \"#utility.yul\":30723:30729   */\n      dup5\n        /* \"#utility.yul\":30716:30720   */\n      dup5\n        /* \"#utility.yul\":30710:30721   */\n      sload\n        /* \"#utility.yul\":30682:30773   */\n      tag_286\n      jump\t// in\n    tag_552:\n        /* \"#utility.yul\":30676:30680   */\n      dup3\n        /* \"#utility.yul\":30669:30774   */\n      sstore\n        /* \"#utility.yul\":30587:30780   */\n      pop\n        /* \"#utility.yul\":30511:30780   */\n      pop\n      pop\n      pop\n      jump\t// out\n        /* \"#utility.yul\":30786:30859   */\n    tag_291:\n        /* \"#utility.yul\":30831:30834   */\n      0x00\n        /* \"#utility.yul\":30852:30853   */\n      0x00\n        /* \"#utility.yul\":30845:30853   */\n      swap1\n      pop\n        /* \"#utility.yul\":30786:30859   */\n      swap1\n      jump\t// out\n        /* \"#utility.yul\":30865:31054   */\n    tag_292:\n        /* \"#utility.yul\":30942:30974   */\n      tag_556\n      tag_291\n      jump\t// in\n    tag_556:\n        /* \"#utility.yul\":30983:31048   */\n      tag_557\n        /* \"#utility.yul\":31041:31047   */\n      dup2\n        /* \"#utility.yul\":31033:31039   */\n      dup5\n        /* \"#utility.yul\":31027:31031   */\n      dup5\n        /* \"#utility.yul\":30983:31048   */\n      tag_290\n      jump\t// in\n    tag_557:\n        /* \"#utility.yul\":30918:31054   */\n      pop\n        /* \"#utility.yul\":30865:31054   */\n      pop\n      pop\n      jump\t// out\n        /* \"#utility.yul\":31060:31246   */\n    tag_293:\n        /* \"#utility.yul\":31120:31240   */\n    tag_559:\n        /* \"#utility.yul\":31137:31140   */\n      dup2\n        /* \"#utility.yul\":31130:31135   */\n      dup2\n        /* \"#utility.yul\":31127:31141   */\n      lt\n        /* \"#utility.yul\":31120:31240   */\n      iszero\n      tag_561\n      jumpi\n        /* \"#utility.yul\":31191:31230   */\n      tag_562\n        /* \"#utility.yul\":31228:31229   */\n      0x00\n        /* \"#utility.yul\":31221:31226   */\n      dup3\n        /* \"#utility.yul\":31191:31230   */\n      tag_292\n      jump\t// in\n    tag_562:\n        /* \"#utility.yul\":31164:31165   */\n      0x01\n        /* \"#utility.yul\":31157:31162   */\n      dup2\n        /* \"#utility.yul\":31153:31166   */\n      add\n        /* \"#utility.yul\":31144:31166   */\n      swap1\n      pop\n        /* \"#utility.yul\":31120:31240   */\n      jump(tag_559)\n    tag_561:\n        /* \"#utility.yul\":31060:31246   */\n      pop\n      pop\n      jump\t// out\n        /* \"#utility.yul\":31252:31795   */\n    tag_294:\n        /* \"#utility.yul\":31353:31355   */\n      0x1f\n        /* \"#utility.yul\":31348:31351   */\n      dup3\n        /* \"#utility.yul\":31345:31356   */\n      gt\n        /* \"#utility.yul\":31342:31788   */\n      iszero\n      tag_564\n      jumpi\n        /* \"#utility.yul\":31387:31425   */\n      tag_565\n        /* \"#utility.yul\":31419:31424   */\n      dup2\n        /* \"#utility.yul\":31387:31425   */\n      tag_283\n      jump\t// in\n    tag_565:\n        /* \"#utility.yul\":31471:31500   */\n      tag_566\n        /* \"#utility.yul\":31489:31499   */\n      dup5\n        /* \"#utility.yul\":31471:31500   */\n      tag_284\n      jump\t// in\n    tag_566:\n        /* \"#utility.yul\":31461:31469   */\n      dup2\n        /* \"#utility.yul\":31457:31501   */\n      add\n        /* \"#utility.yul\":31654:31656   */\n      0x20\n        /* \"#utility.yul\":31642:31652   */\n      dup6\n        /* \"#utility.yul\":31639:31657   */\n      lt\n        /* \"#utility.yul\":31636:31685   */\n      iszero\n      tag_567\n      jumpi\n        /* \"#utility.yul\":31675:31683   */\n      dup2\n        /* \"#utility.yul\":31660:31683   */\n      swap1\n      pop\n        /* \"#utility.yul\":31636:31685   */\n    tag_567:\n        /* \"#utility.yul\":31698:31778   */\n      tag_568\n        /* \"#utility.yul\":31754:31776   */\n      tag_569\n        /* \"#utility.yul\":31772:31775   */\n      dup6\n        /* \"#utility.yul\":31754:31776   */\n      tag_284\n      jump\t// in\n    tag_569:\n        /* \"#utility.yul\":31744:31752   */\n      dup4\n        /* \"#utility.yul\":31740:31777   */\n      add\n        /* \"#utility.yul\":31727:31738   */\n      dup3\n        /* \"#utility.yul\":31698:31778   */\n      tag_293\n      jump\t// in\n    tag_568:\n        /* \"#utility.yul\":31357:31788   */\n      pop\n      pop\n        /* \"#utility.yul\":31342:31788   */\n    tag_564:\n        /* \"#utility.yul\":31252:31795   */\n      pop\n      pop\n      pop\n      jump\t// out\n        /* \"#utility.yul\":31801:31918   */\n    tag_295:\n        /* \"#utility.yul\":31855:31863   */\n      0x00\n        /* \"#utility.yul\":31905:31910   */\n      dup3\n        /* \"#utility.yul\":31899:31903   */\n      dup3\n        /* \"#utility.yul\":31895:31911   */\n      shr\n        /* \"#utility.yul\":31874:31911   */\n      swap1\n      pop\n        /* \"#utility.yul\":31801:31918   */\n      swap3\n      swap2\n      pop\n      pop\n      jump\t// out\n        /* \"#utility.yul\":31924:32093   */\n    tag_296:\n        /* \"#utility.yul\":31968:31974   */\n      0x00\n        /* \"#utility.yul\":32001:32052   */\n      tag_572\n        /* \"#utility.yul\":32049:32050   */\n      0x00\n        /* \"#utility.yul\":32045:32051   */\n      not\n        /* \"#utility.yul\":32037:32042   */\n      dup5\n        /* \"#utility.yul\":32034:32035   */\n      0x08\n        /* \"#utility.yul\":32030:32043   */\n      mul\n        /* \"#utility.yul\":32001:32052   */\n      tag_295\n      jump\t// in\n    tag_572:\n        /* \"#utility.yul\":31997:32053   */\n      not\n        /* \"#utility.yul\":32082:32086   */\n      dup1\n        /* \"#utility.yul\":32076:32080   */\n      dup4\n        /* \"#utility.yul\":32072:32087   */\n      and\n        /* \"#utility.yul\":32062:32087   */\n      swap2\n      pop\n        /* \"#utility.yul\":31975:32093   */\n      pop\n        /* \"#utility.yul\":31924:32093   */\n      swap3\n      swap2\n      pop\n      pop\n      jump\t// out\n        /* \"#utility.yul\":32098:32393   */\n    tag_297:\n        /* \"#utility.yul\":32174:32178   */\n      0x00\n        /* \"#utility.yul\":32320:32349   */\n      tag_574\n        /* \"#utility.yul\":32345:32348   */\n      dup4\n        /* \"#utility.yul\":32339:32343   */\n      dup4\n        /* \"#utility.yul\":32320:32349   */\n      tag_296\n      jump\t// in\n    tag_574:\n        /* \"#utility.yul\":32312:32349   */\n      swap2\n      pop\n        /* \"#utility.yul\":32382:32385   */\n      dup3\n        /* \"#utility.yul\":32379:32380   */\n      0x02\n        /* \"#utility.yul\":32375:32386   */\n      mul\n        /* \"#utility.yul\":32369:32373   */\n      dup3\n        /* \"#utility.yul\":32366:32387   */\n      or\n        /* \"#utility.yul\":32358:32387   */\n      swap1\n      pop\n        /* \"#utility.yul\":32098:32393   */\n      swap3\n      swap2\n      pop\n      pop\n      jump\t// out\n        /* \"#utility.yul\":32398:33793   */\n    tag_190:\n        /* \"#utility.yul\":32515:32552   */\n      tag_576\n        /* \"#utility.yul\":32548:32551   */\n      dup3\n        /* \"#utility.yul\":32515:32552   */\n      tag_223\n      jump\t// in\n    tag_576:\n        /* \"#utility.yul\":32617:32635   */\n      0xffffffffffffffff\n        /* \"#utility.yul\":32609:32615   */\n      dup2\n        /* \"#utility.yul\":32606:32636   */\n      gt\n        /* \"#utility.yul\":32603:32659   */\n      iszero\n      tag_577\n      jumpi\n        /* \"#utility.yul\":32639:32657   */\n      tag_578\n      tag_282\n      jump\t// in\n    tag_578:\n        /* \"#utility.yul\":32603:32659   */\n    tag_577:\n        /* \"#utility.yul\":32683:32721   */\n      tag_579\n        /* \"#utility.yul\":32715:32719   */\n      dup3\n        /* \"#utility.yul\":32709:32720   */\n      sload\n        /* \"#utility.yul\":32683:32721   */\n      tag_109\n      jump\t// in\n    tag_579:\n        /* \"#utility.yul\":32768:32835   */\n      tag_580\n        /* \"#utility.yul\":32828:32834   */\n      dup3\n        /* \"#utility.yul\":32820:32826   */\n      dup3\n        /* \"#utility.yul\":32814:32818   */\n      dup6\n        /* \"#utility.yul\":32768:32835   */\n      tag_294\n      jump\t// in\n    tag_580:\n        /* \"#utility.yul\":32862:32863   */\n      0x00\n        /* \"#utility.yul\":32886:32890   */\n      0x20\n        /* \"#utility.yul\":32873:32890   */\n      swap1\n      pop\n        /* \"#utility.yul\":32918:32920   */\n      0x1f\n        /* \"#utility.yul\":32910:32916   */\n      dup4\n        /* \"#utility.yul\":32907:32921   */\n      gt\n        /* \"#utility.yul\":32935:32936   */\n      0x01\n        /* \"#utility.yul\":32930:33548   */\n      dup2\n      eq\n      tag_582\n      jumpi\n        /* \"#utility.yul\":33592:33593   */\n      0x00\n        /* \"#utility.yul\":33609:33615   */\n      dup5\n        /* \"#utility.yul\":33606:33683   */\n      iszero\n      tag_583\n      jumpi\n        /* \"#utility.yul\":33658:33667   */\n      dup3\n        /* \"#utility.yul\":33653:33656   */\n      dup8\n        /* \"#utility.yul\":33649:33668   */\n      add\n        /* \"#utility.yul\":33643:33669   */\n      mload\n        /* \"#utility.yul\":33634:33669   */\n      swap1\n      pop\n        /* \"#utility.yul\":33606:33683   */\n    tag_583:\n        /* \"#utility.yul\":33709:33776   */\n      tag_584\n        /* \"#utility.yul\":33769:33775   */\n      dup6\n        /* \"#utility.yul\":33762:33767   */\n      dup3\n        /* \"#utility.yul\":33709:33776   */\n      tag_297\n      jump\t// in\n    tag_584:\n        /* \"#utility.yul\":33703:33707   */\n      dup7\n        /* \"#utility.yul\":33696:33777   */\n      sstore\n        /* \"#utility.yul\":33565:33787   */\n      pop\n        /* \"#utility.yul\":32900:33787   */\n      jump(tag_581)\n        /* \"#utility.yul\":32930:33548   */\n    tag_582:\n        /* \"#utility.yul\":32982:32986   */\n      0x1f\n        /* \"#utility.yul\":32978:32987   */\n      not\n        /* \"#utility.yul\":32970:32976   */\n      dup5\n        /* \"#utility.yul\":32966:32988   */\n      and\n        /* \"#utility.yul\":33016:33053   */\n      tag_585\n        /* \"#utility.yul\":33048:33052   */\n      dup7\n        /* \"#utility.yul\":33016:33053   */\n      tag_283\n      jump\t// in\n    tag_585:\n        /* \"#utility.yul\":33075:33076   */\n      0x00\n        /* \"#utility.yul\":33089:33297   */\n    tag_586:\n        /* \"#utility.yul\":33103:33110   */\n      dup3\n        /* \"#utility.yul\":33100:33101   */\n      dup2\n        /* \"#utility.yul\":33097:33111   */\n      lt\n        /* \"#utility.yul\":33089:33297   */\n      iszero\n      tag_588\n      jumpi\n        /* \"#utility.yul\":33182:33191   */\n      dup5\n        /* \"#utility.yul\":33177:33180   */\n      dup10\n        /* \"#utility.yul\":33173:33192   */\n      add\n        /* \"#utility.yul\":33167:33193   */\n      mload\n        /* \"#utility.yul\":33159:33165   */\n      dup3\n        /* \"#utility.yul\":33152:33194   */\n      sstore\n        /* \"#utility.yul\":33233:33234   */\n      0x01\n        /* \"#utility.yul\":33225:33231   */\n      dup3\n        /* \"#utility.yul\":33221:33235   */\n      add\n        /* \"#utility.yul\":33211:33235   */\n      swap2\n      pop\n        /* \"#utility.yul\":33280:33282   */\n      0x20\n        /* \"#utility.yul\":33269:33278   */\n      dup6\n        /* \"#utility.yul\":33265:33283   */\n      add\n        /* \"#utility.yul\":33252:33283   */\n      swap5\n      pop\n        /* \"#utility.yul\":33126:33130   */\n      0x20\n        /* \"#utility.yul\":33123:33124   */\n      dup2\n        /* \"#utility.yul\":33119:33131   */\n      add\n        /* \"#utility.yul\":33114:33131   */\n      swap1\n      pop\n        /* \"#utility.yul\":33089:33297   */\n      jump(tag_586)\n    tag_588:\n        /* \"#utility.yul\":33325:33331   */\n      dup7\n        /* \"#utility.yul\":33316:33323   */\n      dup4\n        /* \"#utility.yul\":33313:33332   */\n      lt\n        /* \"#utility.yul\":33310:33489   */\n      iszero\n      tag_589\n      jumpi\n        /* \"#utility.yul\":33383:33392   */\n      dup5\n        /* \"#utility.yul\":33378:33381   */\n      dup10\n        /* \"#utility.yul\":33374:33393   */\n      add\n        /* \"#utility.yul\":33368:33394   */\n      mload\n        /* \"#utility.yul\":33426:33474   */\n      tag_590\n        /* \"#utility.yul\":33468:33472   */\n      0x1f\n        /* \"#utility.yul\":33460:33466   */\n      dup10\n        /* \"#utility.yul\":33456:33473   */\n      and\n        /* \"#utility.yul\":33445:33454   */\n      dup3\n        /* \"#utility.yul\":33426:33474   */\n      tag_296\n      jump\t// in\n    tag_590:\n        /* \"#utility.yul\":33418:33424   */\n      dup4\n        /* \"#utility.yul\":33411:33475   */\n      sstore\n        /* \"#utility.yul\":33333:33489   */\n      pop\n        /* \"#utility.yul\":33310:33489   */\n    tag_589:\n        /* \"#utility.yul\":33535:33536   */\n      0x01\n        /* \"#utility.yul\":33531:33532   */\n      0x02\n        /* \"#utility.yul\":33523:33529   */\n      dup9\n        /* \"#utility.yul\":33519:33533   */\n      mul\n        /* \"#utility.yul\":33515:33537   */\n      add\n        /* \"#utility.yul\":33509:33513   */\n      dup9\n        /* \"#utility.yul\":33502:33538   */\n      sstore\n        /* \"#utility.yul\":32937:33548   */\n      pop\n      pop\n      pop\n        /* \"#utility.yul\":32900:33787   */\n    tag_581:\n      pop\n        /* \"#utility.yul\":32490:33793   */\n      pop\n      pop\n      pop\n        /* \"#utility.yul\":32398:33793   */\n      pop\n      pop\n      jump\t// out\n        /* \"#utility.yul\":33823:34140   */\n    tag_298:\n        /* \"#utility.yul\":33921:33924   */\n      0x00\n        /* \"#utility.yul\":33942:34013   */\n      tag_592\n        /* \"#utility.yul\":34006:34012   */\n      dup4\n        /* \"#utility.yul\":34001:34004   */\n      dup6\n        /* \"#utility.yul\":33942:34013   */\n      tag_248\n      jump\t// in\n    tag_592:\n        /* \"#utility.yul\":33935:34013   */\n      swap4\n      pop\n        /* \"#utility.yul\":34023:34079   */\n      tag_593\n        /* \"#utility.yul\":34072:34078   */\n      dup4\n        /* \"#utility.yul\":34067:34070   */\n      dup6\n        /* \"#utility.yul\":34060:34065   */\n      dup5\n        /* \"#utility.yul\":34023:34079   */\n      tag_263\n      jump\t// in\n    tag_593:\n        /* \"#utility.yul\":34104:34133   */\n      tag_594\n        /* \"#utility.yul\":34126:34132   */\n      dup4\n        /* \"#utility.yul\":34104:34133   */\n      tag_226\n      jump\t// in\n    tag_594:\n        /* \"#utility.yul\":34099:34102   */\n      dup5\n        /* \"#utility.yul\":34095:34134   */\n      add\n        /* \"#utility.yul\":34088:34134   */\n      swap1\n      pop\n        /* \"#utility.yul\":33823:34140   */\n      swap4\n      swap3\n      pop\n      pop\n      pop\n      jump\t// out\n        /* \"#utility.yul\":34146:34921   */\n    tag_194:\n        /* \"#utility.yul\":34383:34387   */\n      0x00\n        /* \"#utility.yul\":34421:34424   */\n      0x80\n        /* \"#utility.yul\":34410:34419   */\n      dup3\n        /* \"#utility.yul\":34406:34425   */\n      add\n        /* \"#utility.yul\":34398:34425   */\n      swap1\n      pop\n        /* \"#utility.yul\":34471:34480   */\n      dup2\n        /* \"#utility.yul\":34465:34469   */\n      dup2\n        /* \"#utility.yul\":34461:34481   */\n      sub\n        /* \"#utility.yul\":34457:34458   */\n      0x00\n        /* \"#utility.yul\":34446:34455   */\n      dup4\n        /* \"#utility.yul\":34442:34459   */\n      add\n        /* \"#utility.yul\":34435:34482   */\n      mstore\n        /* \"#utility.yul\":34499:34587   */\n      tag_596\n        /* \"#utility.yul\":34582:34586   */\n      dup2\n        /* \"#utility.yul\":34573:34579   */\n      dup9\n        /* \"#utility.yul\":34565:34571   */\n      dup11\n        /* \"#utility.yul\":34499:34587   */\n      tag_298\n      jump\t// in\n    tag_596:\n        /* \"#utility.yul\":34491:34587   */\n      swap1\n      pop\n        /* \"#utility.yul\":34597:34669   */\n      tag_597\n        /* \"#utility.yul\":34665:34667   */\n      0x20\n        /* \"#utility.yul\":34654:34663   */\n      dup4\n        /* \"#utility.yul\":34650:34668   */\n      add\n        /* \"#utility.yul\":34641:34647   */\n      dup8\n        /* \"#utility.yul\":34597:34669   */\n      tag_246\n      jump\t// in\n    tag_597:\n        /* \"#utility.yul\":34716:34725   */\n      dup2\n        /* \"#utility.yul\":34710:34714   */\n      dup2\n        /* \"#utility.yul\":34706:34726   */\n      sub\n        /* \"#utility.yul\":34701:34703   */\n      0x40\n        /* \"#utility.yul\":34690:34699   */\n      dup4\n        /* \"#utility.yul\":34686:34704   */\n      add\n        /* \"#utility.yul\":34679:34727   */\n      mstore\n        /* \"#utility.yul\":34744:34832   */\n      tag_598\n        /* \"#utility.yul\":34827:34831   */\n      dup2\n        /* \"#utility.yul\":34818:34824   */\n      dup6\n        /* \"#utility.yul\":34810:34816   */\n      dup8\n        /* \"#utility.yul\":34744:34832   */\n      tag_298\n      jump\t// in\n    tag_598:\n        /* \"#utility.yul\":34736:34832   */\n      swap1\n      pop\n        /* \"#utility.yul\":34842:34914   */\n      tag_599\n        /* \"#utility.yul\":34910:34912   */\n      0x60\n        /* \"#utility.yul\":34899:34908   */\n      dup4\n        /* \"#utility.yul\":34895:34913   */\n      add\n        /* \"#utility.yul\":34886:34892   */\n      dup5\n        /* \"#utility.yul\":34842:34914   */\n      tag_243\n      jump\t// in\n    tag_599:\n        /* \"#utility.yul\":34146:34921   */\n      swap8\n      swap7\n      pop\n      pop\n      pop\n      pop\n      pop\n      pop\n      pop\n      jump\t// out\n        /* \"#utility.yul\":34927:35157   */\n    tag_299:\n        /* \"#utility.yul\":35067:35101   */\n      0x526f6c654163636573733a206163636f756e7420646f6573206e6f7420686176\n        /* \"#utility.yul\":35063:35064   */\n      0x00\n        /* \"#utility.yul\":35055:35061   */\n      dup3\n        /* \"#utility.yul\":35051:35065   */\n      add\n        /* \"#utility.yul\":35044:35102   */\n      mstore\n        /* \"#utility.yul\":35136:35149   */\n      0x65207468697320726f6c65000000000000000000000000000000000000000000\n        /* \"#utility.yul\":35131:35133   */\n      0x20\n        /* \"#utility.yul\":35123:35129   */\n      dup3\n        /* \"#utility.yul\":35119:35134   */\n      add\n        /* \"#utility.yul\":35112:35150   */\n      mstore\n        /* \"#utility.yul\":34927:35157   */\n      pop\n      jump\t// out\n        /* \"#utility.yul\":35163:35529   */\n    tag_300:\n        /* \"#utility.yul\":35305:35308   */\n      0x00\n        /* \"#utility.yul\":35326:35393   */\n      tag_602\n        /* \"#utility.yul\":35390:35392   */\n      0x2b\n        /* \"#utility.yul\":35385:35388   */\n      dup4\n        /* \"#utility.yul\":35326:35393   */\n      tag_248\n      jump\t// in\n    tag_602:\n        /* \"#utility.yul\":35319:35393   */\n      swap2\n      pop\n        /* \"#utility.yul\":35402:35495   */\n      tag_603\n        /* \"#utility.yul\":35491:35494   */\n      dup3\n        /* \"#utility.yul\":35402:35495   */\n      tag_299\n      jump\t// in\n    tag_603:\n        /* \"#utility.yul\":35520:35522   */\n      0x40\n        /* \"#utility.yul\":35515:35518   */\n      dup3\n        /* \"#utility.yul\":35511:35523   */\n      add\n        /* \"#utility.yul\":35504:35523   */\n      swap1\n      pop\n        /* \"#utility.yul\":35163:35529   */\n      swap2\n      swap1\n      pop\n      jump\t// out\n        /* \"#utility.yul\":35535:35954   */\n    tag_215:\n        /* \"#utility.yul\":35701:35705   */\n      0x00\n        /* \"#utility.yul\":35739:35741   */\n      0x20\n        /* \"#utility.yul\":35728:35737   */\n      dup3\n        /* \"#utility.yul\":35724:35742   */\n      add\n        /* \"#utility.yul\":35716:35742   */\n      swap1\n      pop\n        /* \"#utility.yul\":35788:35797   */\n      dup2\n        /* \"#utility.yul\":35782:35786   */\n      dup2\n        /* \"#utility.yul\":35778:35798   */\n      sub\n        /* \"#utility.yul\":35774:35775   */\n      0x00\n        /* \"#utility.yul\":35763:35772   */\n      dup4\n        /* \"#utility.yul\":35759:35776   */\n      add\n        /* \"#utility.yul\":35752:35799   */\n      mstore\n        /* \"#utility.yul\":35816:35947   */\n      tag_605\n        /* \"#utility.yul\":35942:35946   */\n      dup2\n        /* \"#utility.yul\":35816:35947   */\n      tag_300\n      jump\t// in\n    tag_605:\n        /* \"#utility.yul\":35808:35947   */\n      swap1\n      pop\n        /* \"#utility.yul\":35535:35954   */\n      swap2\n      swap1\n      pop\n      jump\t// out\n\n    auxdata: 0xa2646970667358221220ac2c851bbd966bac4912ab777df2b321f582a4bf2a90409462de6aff5c5a600d64736f6c634300081f0033\n}\n",
				"bytecode": {
					"linkReferences": {},
					"object": "608060405234801561000f575f5ffd5b5060015f5f7f1effbbff9c66c5e59634f24fe842750c60d18891155c32dd155fc2d661a4c86d81526020019081526020015f205f3373ffffffffffffffffffffffffffffffffffffffff1673ffffffffffffffffffffffffffffffffffffffff1681526020019081526020015f205f6101000a81548160ff0219169083151502179055503373ffffffffffffffffffffffffffffffffffffffff163373ffffffffffffffffffffffffffffffffffffffff167f1effbbff9c66c5e59634f24fe842750c60d18891155c32dd155fc2d661a4c86d7f2f8788117e7eff1d82e926ec794901d17c78024a50270940304540a733656f0d60405160405180910390a46128e38061011b5f395ff3fe608060405234801561000f575f5ffd5b5060043610610114575f3560e01c80637bf0fbde116100a05780639dd0c51b1161006f5780639dd0c51b146102df578063a217fddf1461030f578063d11a57ec1461032d578063d547741f1461034b578063dfbfb6c41461036757610114565b80637bf0fbde146102595780638bb9c5bf1461027757806391d14854146102935780639baa4b71146102c357610114565b80633b129a56116100e75780633b129a56146101b05780634245962b146101ce57806342f1e879146101ec57806356fb46361461020a5780636e1d616e1461023b57610114565b80630f53ce011461011857806318989def146101485780631b1aa49a146101645780632f2ff15d14610194575b5f5ffd5b610132600480360381019061012d9190611745565b610397565b60405161013f91906118ae565b60405180910390f35b610162600480360381019061015d9190611989565b610584565b005b61017e60048036038101906101799190611a3b565b6107c4565b60405161018b9190611a95565b60405180910390f35b6101ae60048036038101906101a99190611ad8565b6107ee565b005b6101b8610a6d565b6040516101c59190611b25565b60405180910390f35b6101d6610a91565b6040516101e39190611b25565b60405180910390f35b6101f4610ab5565b6040516102019190611b25565b60405180910390f35b610224600480360381019061021f9190611b3e565b610ad9565b604051610232929190611be5565b60405180910390f35b610243610d10565b6040516102509190611b25565b60405180910390f35b610261610d34565b60405161026e9190611b25565b60405180910390f35b610291600480360381019061028c9190611c13565b610d58565b005b6102ad60048036038101906102a89190611ad8565b610eaf565b6040516102ba9190611c3e565b60405180910390f35b6102dd60048036038101906102d89190611c57565b610f10565b005b6102f960048036038101906102f49190611cfa565b6112ae565b6040516103069190611e5a565b60405180910390f35b610317611468565b6040516103249190611b25565b60405180910390f35b61033561148c565b6040516103429190611b25565b60405180910390f35b61036560048036038101906103609190611ad8565b6114b0565b005b610381600480360381019061037c9190611cfa565b6116bf565b60405161038e9190611a95565b60405180910390f35b61039f6116dc565b60015f8481526020019081526020015f208054905082106103f5576040517f08c379a00000000000000000000000000000000000000000000000000000000081526004016103ec90611eea565b60405180910390fd5b60015f8481526020019081526020015f20828154811061041857610417611f08565b5b905f5260205f2090600502016040518060a00160405290815f8201805461043e90611f62565b80601f016020809104026020016040519081016040528092919081815260200182805461046a90611f62565b80156104b55780601f1061048c576101008083540402835291602001916104b5565b820191905f5260205f20905b81548152906001019060200180831161049857829003601f168201915b50505050508152602001600182015481526020016002820180546104d890611f62565b80601f016020809104026020016040519081016040528092919081815260200182805461050490611f62565b801561054f5780601f106105265761010080835404028352916020019161054f565b820191905f5260205f20905b81548152906001019060200180831161053257829003601f168201915b5050505050815260200160038201548152602001600482015f9054906101000a900460ff161515151581525050905092915050565b5f5f7f1effbbff9c66c5e59634f24fe842750c60d18891155c32dd155fc2d661a4c86d81526020019081526020015f205f3373ffffffffffffffffffffffffffffffffffffffff1673ffffffffffffffffffffffffffffffffffffffff1681526020019081526020015f205f9054906101000a900460ff1661063b576040517f08c379a000000000000000000000000000000000000000000000000000000000815260040161063290611fdc565b60405180910390fd5b5f5f90505b838390508110156107be575f5f8585848181106106605761065f611f08565b5b9050602002013581526020019081526020015f205f8373ffffffffffffffffffffffffffffffffffffffff1673ffffffffffffffffffffffffffffffffffffffff1681526020019081526020015f205f9054906101000a900460ff166107b15760015f5f8686858181106106d7576106d6611f08565b5b9050602002013581526020019081526020015f205f8473ffffffffffffffffffffffffffffffffffffffff1673ffffffffffffffffffffffffffffffffffffffff1681526020019081526020015f205f6101000a81548160ff0219169083151502179055503373ffffffffffffffffffffffffffffffffffffffff168273ffffffffffffffffffffffffffffffffffffffff1685858481811061077d5761077c611f08565b5b905060200201357f2f8788117e7eff1d82e926ec794901d17c78024a50270940304540a733656f0d60405160405180910390a45b8080600101915050610640565b50505050565b5f600283836040516107d7929190612036565b908152602001604051809103902054905092915050565b5f5f7f1effbbff9c66c5e59634f24fe842750c60d18891155c32dd155fc2d661a4c86d81526020019081526020015f205f3373ffffffffffffffffffffffffffffffffffffffff1673ffffffffffffffffffffffffffffffffffffffff1681526020019081526020015f205f9054906101000a900460ff166108a5576040517f08c379a000000000000000000000000000000000000000000000000000000000815260040161089c90611fdc565b60405180910390fd5b5f73ffffffffffffffffffffffffffffffffffffffff168173ffffffffffffffffffffffffffffffffffffffff1603610913576040517f08c379a000000000000000000000000000000000000000000000000000000000815260040161090a906120be565b60405180910390fd5b5f5f8381526020019081526020015f205f8273ffffffffffffffffffffffffffffffffffffffff1673ffffffffffffffffffffffffffffffffffffffff1681526020019081526020015f205f9054906101000a900460ff16156109ab576040517f08c379a00000000000000000000000000000000000000000000000000000000081526004016109a29061214c565b60405180910390fd5b60015f5f8481526020019081526020015f205f8373ffffffffffffffffffffffffffffffffffffffff1673ffffffffffffffffffffffffffffffffffffffff1681526020019081526020015f205f6101000a81548160ff0219169083151502179055503373ffffffffffffffffffffffffffffffffffffffff168173ffffffffffffffffffffffffffffffffffffffff16837f2f8788117e7eff1d82e926ec794901d17c78024a50270940304540a733656f0d60405160405180910390a45050565b7fc10c77be35aff266144ed64c26a1fa104bae2f284ae99ac4a34203454704a18581565b7f408a36151f841709116a4e8aca4e0202874f7f54687dcb863b1ea4672dc9d8cf81565b7fc2979137d1774e40fe2638d355bf7a7b092be4c67f242aad1655e1e27f9df9cc81565b5f606060015f8681526020019081526020015f20805490508410610b32576040517f08c379a0000000000000000000000000000000000000000000000000000000008152600401610b2990611eea565b60405180910390fd5b5f60015f8781526020019081526020015f208581548110610b5657610b55611f08565b5b905f5260205f2090600502016040518060a00160405290815f82018054610b7c90611f62565b80601f0160208091040260200160405190810160405280929190818152602001828054610ba890611f62565b8015610bf35780601f10610bca57610100808354040283529160200191610bf3565b820191905f5260205f20905b815481529060010190602001808311610bd657829003601f168201915b5050505050815260200160018201548152602001600282018054610c1690611f62565b80601f0160208091040260200160405190810160405280929190818152602001828054610c4290611f62565b8015610c8d5780601f10610c6457610100808354040283529160200191610c8d565b820191905f5260205f20905b815481529060010190602001808311610c7057829003601f168201915b5050505050815260200160038201548152602001600482015f9054906101000a900460ff1615151515815250509050838160200151149250805f01519150857f13ac87fcd784fd62588dd5d751090b3996bd31bd932f0987530b3bda226c5368858533604051610cff93929190612179565b60405180910390a250935093915050565b7f59a1c48e5837ad7a7f3dcedcbe129bf3249ec4fbf651fd4f5e2600ead39fe2f581565b7f566c814873eed56a69b28c40ab27cc2cb150d74068bae3e884ccd44f8de60f8a81565b5f5f8281526020019081526020015f205f3373ffffffffffffffffffffffffffffffffffffffff1673ffffffffffffffffffffffffffffffffffffffff1681526020019081526020015f205f9054906101000a900460ff16610def576040517f08c379a0000000000000000000000000000000000000000000000000000000008152600401610de69061221e565b60405180910390fd5b5f5f5f8381526020019081526020015f205f3373ffffffffffffffffffffffffffffffffffffffff1673ffffffffffffffffffffffffffffffffffffffff1681526020019081526020015f205f6101000a81548160ff0219169083151502179055503373ffffffffffffffffffffffffffffffffffffffff163373ffffffffffffffffffffffffffffffffffffffff16827ff6391f5c32d9c69d2a47ea670b442974b53935d1edc7fd64eb21e047a839171b60405160405180910390a450565b5f5f5f8481526020019081526020015f205f8373ffffffffffffffffffffffffffffffffffffffff1673ffffffffffffffffffffffffffffffffffffffff1681526020019081526020015f205f9054906101000a900460ff16905092915050565b7fc2979137d1774e40fe2638d355bf7a7b092be4c67f242aad1655e1e27f9df9cc5f5f8281526020019081526020015f205f3373ffffffffffffffffffffffffffffffffffffffff1673ffffffffffffffffffffffffffffffffffffffff1681526020019081526020015f205f9054906101000a900460ff16610fc8576040517f08c379a0000000000000000000000000000000000000000000000000000000008152600401610fbf906122ac565b60405180910390fd5b5f868690501161100d576040517f08c379a00000000000000000000000000000000000000000000000000000000081526004016110049061233a565b60405180910390fd5b5f5f1b8403611051576040517f08c379a0000000000000000000000000000000000000000000000000000000008152600401611048906123c8565b60405180910390fd5b5f8383905011611096576040517f08c379a000000000000000000000000000000000000000000000000000000000815260040161108d90612456565b60405180910390fd5b5f600287876040516110a9929190612036565b908152602001604051809103902054146110f8576040517f08c379a00000000000000000000000000000000000000000000000000000000081526004016110ef906124e4565b60405180910390fd5b60015f8881526020019081526020015f206040518060a0016040528088888080601f0160208091040260200160405190810160405280939291908181526020018383808284375f81840152601f19601f82011690508083019250505050505050815260200186815260200185858080601f0160208091040260200160405190810160405280939291908181526020018383808284375f81840152601f19601f82011690508083019250505050505050815260200142815260200160011515815250908060018154018082558091505060019003905f5260205f2090600502015f909190919091505f820151815f0190816111f291906126cf565b5060208201518160010155604082015181600201908161121291906126cf565b50606082015181600301556080820151816004015f6101000a81548160ff02191690831515021790555050508660028787604051611251929190612036565b908152602001604051809103902081905550867fd3e7a2dbe7458e141b9209e0c140b86bc210c7e7eb3cef382e9a80b4e2e6c57587878787874260405161129d969594939291906127ca565b60405180910390a250505050505050565b606060015f8381526020019081526020015f20805480602002602001604051908101604052809291908181526020015f905b8282101561145d578382905f5260205f2090600502016040518060a00160405290815f8201805461131090611f62565b80601f016020809104026020016040519081016040528092919081815260200182805461133c90611f62565b80156113875780601f1061135e57610100808354040283529160200191611387565b820191905f5260205f20905b81548152906001019060200180831161136a57829003601f168201915b50505050508152602001600182015481526020016002820180546113aa90611f62565b80601f01602080910402602001604051908101604052809291908181526020018280546113d690611f62565b80156114215780601f106113f857610100808354040283529160200191611421565b820191905f5260205f20905b81548152906001019060200180831161140457829003601f168201915b5050505050815260200160038201548152602001600482015f9054906101000a900460ff161515151581525050815260200190600101906112e0565b505050509050919050565b7f1effbbff9c66c5e59634f24fe842750c60d18891155c32dd155fc2d661a4c86d81565b7fe1dcbdb91df27212a29bc27177c840cf2f819ecf2187432e1fac86c2dd5dfca981565b5f5f7f1effbbff9c66c5e59634f24fe842750c60d18891155c32dd155fc2d661a4c86d81526020019081526020015f205f3373ffffffffffffffffffffffffffffffffffffffff1673ffffffffffffffffffffffffffffffffffffffff1681526020019081526020015f205f9054906101000a900460ff16611567576040517f08c379a000000000000000000000000000000000000000000000000000000000815260040161155e90611fdc565b60405180910390fd5b5f5f8381526020019081526020015f205f8273ffffffffffffffffffffffffffffffffffffffff1673ffffffffffffffffffffffffffffffffffffffff1681526020019081526020015f205f9054906101000a900460ff166115fe576040517f08c379a00000000000000000000000000000000000000000000000000000000081526004016115f59061288f565b60405180910390fd5b5f5f5f8481526020019081526020015f205f8373ffffffffffffffffffffffffffffffffffffffff1673ffffffffffffffffffffffffffffffffffffffff1681526020019081526020015f205f6101000a81548160ff0219169083151502179055503373ffffffffffffffffffffffffffffffffffffffff168173ffffffffffffffffffffffffffffffffffffffff16837ff6391f5c32d9c69d2a47ea670b442974b53935d1edc7fd64eb21e047a839171b60405160405180910390a45050565b5f60015f8381526020019081526020015f20805490509050919050565b6040518060a00160405280606081526020015f8152602001606081526020015f81526020015f151581525090565b5f5ffd5b5f5ffd5b5f819050919050565b61172481611712565b811461172e575f5ffd5b50565b5f8135905061173f8161171b565b92915050565b5f5f6040838503121561175b5761175a61170a565b5b5f61176885828601611731565b925050602061177985828601611731565b9150509250929050565b5f81519050919050565b5f82825260208201905092915050565b8281835e5f83830152505050565b5f601f19601f8301169050919050565b5f6117c582611783565b6117cf818561178d565b93506117df81856020860161179d565b6117e8816117ab565b840191505092915050565b5f819050919050565b611805816117f3565b82525050565b61181481611712565b82525050565b5f8115159050919050565b61182e8161181a565b82525050565b5f60a083015f8301518482035f86015261184e82826117bb565b915050602083015161186360208601826117fc565b506040830151848203604086015261187b82826117bb565b9150506060830151611890606086018261180b565b5060808301516118a36080860182611825565b508091505092915050565b5f6020820190508181035f8301526118c68184611834565b905092915050565b5f5ffd5b5f5ffd5b5f5ffd5b5f5f83601f8401126118ef576118ee6118ce565b5b8235905067ffffffffffffffff81111561190c5761190b6118d2565b5b602083019150836020820283011115611928576119276118d6565b5b9250929050565b5f73ffffffffffffffffffffffffffffffffffffffff82169050919050565b5f6119588261192f565b9050919050565b6119688161194e565b8114611972575f5ffd5b50565b5f813590506119838161195f565b92915050565b5f5f5f604084860312156119a05761199f61170a565b5b5f84013567ffffffffffffffff8111156119bd576119bc61170e565b5b6119c9868287016118da565b935093505060206119dc86828701611975565b9150509250925092565b5f5f83601f8401126119fb576119fa6118ce565b5b8235905067ffffffffffffffff811115611a1857611a176118d2565b5b602083019150836001820283011115611a3457611a336118d6565b5b9250929050565b5f5f60208385031215611a5157611a5061170a565b5b5f83013567ffffffffffffffff811115611a6e57611a6d61170e565b5b611a7a858286016119e6565b92509250509250929050565b611a8f81611712565b82525050565b5f602082019050611aa85f830184611a86565b92915050565b611ab7816117f3565b8114611ac1575f5ffd5b50565b5f81359050611ad281611aae565b92915050565b5f5f60408385031215611aee57611aed61170a565b5b5f611afb85828601611ac4565b9250506020611b0c85828601611975565b9150509250929050565b611b1f816117f3565b82525050565b5f602082019050611b385f830184611b16565b92915050565b5f5f5f60608486031215611b5557611b5461170a565b5b5f611b6286828701611731565b9350506020611b7386828701611731565b9250506040611b8486828701611ac4565b9150509250925092565b611b978161181a565b82525050565b5f82825260208201905092915050565b5f611bb782611783565b611bc18185611b9d565b9350611bd181856020860161179d565b611bda816117ab565b840191505092915050565b5f604082019050611bf85f830185611b8e565b8181036020830152611c0a8184611bad565b90509392505050565b5f60208284031215611c2857611c2761170a565b5b5f611c3584828501611ac4565b91505092915050565b5f602082019050611c515f830184611b8e565b92915050565b5f5f5f5f5f5f60808789031215611c7157611c7061170a565b5b5f611c7e89828a01611731565b965050602087013567ffffffffffffffff811115611c9f57611c9e61170e565b5b611cab89828a016119e6565b95509550506040611cbe89828a01611ac4565b935050606087013567ffffffffffffffff811115611cdf57611cde61170e565b5b611ceb89828a016119e6565b92509250509295509295509295565b5f60208284031215611d0f57611d0e61170a565b5b5f611d1c84828501611731565b91505092915050565b5f81519050919050565b5f82825260208201905092915050565b5f819050602082019050919050565b5f60a083015f8301518482035f860152611d6882826117bb565b9150506020830151611d7d60208601826117fc565b5060408301518482036040860152611d9582826117bb565b9150506060830151611daa606086018261180b565b506080830151611dbd6080860182611825565b508091505092915050565b5f611dd38383611d4e565b905092915050565b5f602082019050919050565b5f611df182611d25565b611dfb8185611d2f565b935083602082028501611e0d85611d3f565b805f5b85811015611e485784840389528151611e298582611dc8565b9450611e3483611ddb565b925060208a01995050600181019050611e10565b50829750879550505050505092915050565b5f6020820190508181035f830152611e728184611de7565b905092915050565b7f4950465356657269666965723a20646f63756d656e7420696e646578206f75745f8201527f206f6620626f756e647300000000000000000000000000000000000000000000602082015250565b5f611ed4602a83611b9d565b9150611edf82611e7a565b604082019050919050565b5f6020820190508181035f830152611f0181611ec8565b9050919050565b7f4e487b71000000000000000000000000000000000000000000000000000000005f52603260045260245ffd5b7f4e487b71000000000000000000000000000000000000000000000000000000005f52602260045260245ffd5b5f6002820490506001821680611f7957607f821691505b602082108103611f8c57611f8b611f35565b5b50919050565b7f526f6c654163636573733a2063616c6c6572206973206e6f742061646d696e005f82015250565b5f611fc6601f83611b9d565b9150611fd182611f92565b602082019050919050565b5f6020820190508181035f830152611ff381611fba565b9050919050565b5f81905092915050565b828183375f83830152505050565b5f61201d8385611ffa565b935061202a838584612004565b82840190509392505050565b5f612042828486612012565b91508190509392505050565b7f526f6c654163636573733a2063616e6e6f74206772616e7420726f6c6520746f5f8201527f207a65726f206164647265737300000000000000000000000000000000000000602082015250565b5f6120a8602d83611b9d565b91506120b38261204e565b604082019050919050565b5f6020820190508181035f8301526120d58161209c565b9050919050565b7f526f6c654163636573733a206163636f756e7420616c726561647920686173205f8201527f7468697320726f6c650000000000000000000000000000000000000000000000602082015250565b5f612136602983611b9d565b9150612141826120dc565b604082019050919050565b5f6020820190508181035f8301526121638161212a565b9050919050565b6121738161194e565b82525050565b5f60608201905061218c5f830186611b16565b6121996020830185611b8e565b6121a6604083018461216a565b949350505050565b7f526f6c654163636573733a2063616c6c657220646f6573206e6f7420686176655f8201527f207468697320726f6c6500000000000000000000000000000000000000000000602082015250565b5f612208602a83611b9d565b9150612213826121ae565b604082019050919050565b5f6020820190508181035f830152612235816121fc565b9050919050565b7f526f6c654163636573733a2063616c6c657220646f6573206e6f7420686176655f8201527f20726571756972656420726f6c65000000000000000000000000000000000000602082015250565b5f612296602e83611b9d565b91506122a18261223c565b604082019050919050565b5f6020820190508181035f8301526122c38161228a565b9050919050565b7f4950465356657269666965723a204349442063616e6e6f7420626520656d70745f8201527f7900000000000000000000000000000000000000000000000000000000000000602082015250565b5f612324602183611b9d565b915061232f826122ca565b604082019050919050565b5f6020820190508181035f83015261235181612318565b9050919050565b7f4950465356657269666965723a20686173682063616e6e6f74206265207a65725f8201527f6f00000000000000000000000000000000000000000000000000000000000000602082015250565b5f6123b2602183611b9d565b91506123bd82612358565b604082019050919050565b5f6020820190508181035f8301526123df816123a6565b9050919050565b7f4950465356657269666965723a20646f63547970652063616e6e6f74206265205f8201527f656d707479000000000000000000000000000000000000000000000000000000602082015250565b5f612440602583611b9d565b915061244b826123e6565b604082019050919050565b5f6020820190508181035f83015261246d81612434565b9050919050565b7f4950465356657269666965723a2043494420616c726561647920616e63686f725f8201527f6564000000000000000000000000000000000000000000000000000000000000602082015250565b5f6124ce602283611b9d565b91506124d982612474565b604082019050919050565b5f6020820190508181035f8301526124fb816124c2565b9050919050565b7f4e487b71000000000000000000000000000000000000000000000000000000005f52604160045260245ffd5b5f819050815f5260205f209050919050565b5f6020601f8301049050919050565b5f82821b905092915050565b5f6008830261258b7fffffffffffffffffffffffffffffffffffffffffffffffffffffffffffffffff82612550565b6125958683612550565b95508019841693508086168417925050509392505050565b5f819050919050565b5f6125d06125cb6125c684611712565b6125ad565b611712565b9050919050565b5f819050919050565b6125e9836125b6565b6125fd6125f5826125d7565b84845461255c565b825550505050565b5f5f905090565b612614612605565b61261f8184846125e0565b505050565b5b81811015612642576126375f8261260c565b600181019050612625565b5050565b601f821115612687576126588161252f565b61266184612541565b81016020851015612670578190505b61268461267c85612541565b830182612624565b50505b505050565b5f82821c905092915050565b5f6126a75f198460080261268c565b1980831691505092915050565b5f6126bf8383612698565b9150826002028217905092915050565b6126d882611783565b67ffffffffffffffff8111156126f1576126f0612502565b5b6126fb8254611f62565b612706828285612646565b5f60209050601f831160018114612737575f8415612725578287015190505b61272f85826126b4565b865550612796565b601f1984166127458661252f565b5f5b8281101561276c57848901518255600182019150602085019450602081019050612747565b868310156127895784890151612785601f891682612698565b8355505b6001600288020188555050505b505050505050565b5f6127a98385611b9d565b93506127b6838584612004565b6127bf836117ab565b840190509392505050565b5f6080820190508181035f8301526127e381888a61279e565b90506127f26020830187611b16565b818103604083015261280581858761279e565b90506128146060830184611a86565b979650505050505050565b7f526f6c654163636573733a206163636f756e7420646f6573206e6f74206861765f8201527f65207468697320726f6c65000000000000000000000000000000000000000000602082015250565b5f612879602b83611b9d565b91506128848261281f565b604082019050919050565b5f6020820190508181035f8301526128a68161286d565b905091905056fea2646970667358221220ac2c851bbd966bac4912ab777df2b321f582a4bf2a90409462de6aff5c5a600d64736f6c634300081f0033",
					"opcodes": "PUSH1 0x80 PUSH1 0x40 MSTORE CALLVALUE DUP1 ISZERO PUSH2 0xF JUMPI PUSH0 PUSH0 REVERT JUMPDEST POP PUSH1 0x1 PUSH0 PUSH0 PUSH32 0x1EFFBBFF9C66C5E59634F24FE842750C60D18891155C32DD155FC2D661A4C86D DUP2 MSTORE PUSH1 0x20 ADD SWAP1 DUP2 MSTORE PUSH1 0x20 ADD PUSH0 KECCAK256 PUSH0 CALLER PUSH20 0xFFFFFFFFFFFFFFFFFFFFFFFFFFFFFFFFFFFFFFFF AND PUSH20 0xFFFFFFFFFFFFFFFFFFFFFFFFFFFFFFFFFFFFFFFF AND DUP2 MSTORE PUSH1 0x20 ADD SWAP1 DUP2 MSTORE PUSH1 0x20 ADD PUSH0 KECCAK256 PUSH0 PUSH2 0x100 EXP DUP2 SLOAD DUP2 PUSH1 0xFF MUL NOT AND SWAP1 DUP4 ISZERO ISZERO MUL OR SWAP1 SSTORE POP CALLER PUSH20 0xFFFFFFFFFFFFFFFFFFFFFFFFFFFFFFFFFFFFFFFF AND CALLER PUSH20 0xFFFFFFFFFFFFFFFFFFFFFFFFFFFFFFFFFFFFFFFF AND PUSH32 0x1EFFBBFF9C66C5E59634F24FE842750C60D18891155C32DD155FC2D661A4C86D PUSH32 0x2F8788117E7EFF1D82E926EC794901D17C78024A50270940304540A733656F0D PUSH1 0x40 MLOAD PUSH1 0x40 MLOAD DUP1 SWAP2 SUB SWAP1 LOG4 PUSH2 0x28E3 DUP1 PUSH2 0x11B PUSH0 CODECOPY PUSH0 RETURN INVALID PUSH1 0x80 PUSH1 0x40 MSTORE CALLVALUE DUP1 ISZERO PUSH2 0xF JUMPI PUSH0 PUSH0 REVERT JUMPDEST POP PUSH1 0x4 CALLDATASIZE LT PUSH2 0x114 JUMPI PUSH0 CALLDATALOAD PUSH1 0xE0 SHR DUP1 PUSH4 0x7BF0FBDE GT PUSH2 0xA0 JUMPI DUP1 PUSH4 0x9DD0C51B GT PUSH2 0x6F JUMPI DUP1 PUSH4 0x9DD0C51B EQ PUSH2 0x2DF JUMPI DUP1 PUSH4 0xA217FDDF EQ PUSH2 0x30F JUMPI DUP1 PUSH4 0xD11A57EC EQ PUSH2 0x32D JUMPI DUP1 PUSH4 0xD547741F EQ PUSH2 0x34B JUMPI DUP1 PUSH4 0xDFBFB6C4 EQ PUSH2 0x367 JUMPI PUSH2 0x114 JUMP JUMPDEST DUP1 PUSH4 0x7BF0FBDE EQ PUSH2 0x259 JUMPI DUP1 PUSH4 0x8BB9C5BF EQ PUSH2 0x277 JUMPI DUP1 PUSH4 0x91D14854 EQ PUSH2 0x293 JUMPI DUP1 PUSH4 0x9BAA4B71 EQ PUSH2 0x2C3 JUMPI PUSH2 0x114 JUMP JUMPDEST DUP1 PUSH4 0x3B129A56 GT PUSH2 0xE7 JUMPI DUP1 PUSH4 0x3B129A56 EQ PUSH2 0x1B0 JUMPI DUP1 PUSH4 0x4245962B EQ PUSH2 0x1CE JUMPI DUP1 PUSH4 0x42F1E879 EQ PUSH2 0x1EC JUMPI DUP1 PUSH4 0x56FB4636 EQ PUSH2 0x20A JUMPI DUP1 PUSH4 0x6E1D616E EQ PUSH2 0x23B JUMPI PUSH2 0x114 JUMP JUMPDEST DUP1 PUSH4 0xF53CE01 EQ PUSH2 0x118 JUMPI DUP1 PUSH4 0x18989DEF EQ PUSH2 0x148 JUMPI DUP1 PUSH4 0x1B1AA49A EQ PUSH2 0x164 JUMPI DUP1 PUSH4 0x2F2FF15D EQ PUSH2 0x194 JUMPI JUMPDEST PUSH0 PUSH0 REVERT JUMPDEST PUSH2 0x132 PUSH1 0x4 DUP1 CALLDATASIZE SUB DUP2 ADD SWAP1 PUSH2 0x12D SWAP2 SWAP1 PUSH2 0x1745 JUMP JUMPDEST PUSH2 0x397 JUMP JUMPDEST PUSH1 0x40 MLOAD PUSH2 0x13F SWAP2 SWAP1 PUSH2 0x18AE JUMP JUMPDEST PUSH1 0x40 MLOAD DUP1 SWAP2 SUB SWAP1 RETURN JUMPDEST PUSH2 0x162 PUSH1 0x4 DUP1 CALLDATASIZE SUB DUP2 ADD SWAP1 PUSH2 0x15D SWAP2 SWAP1 PUSH2 0x1989 JUMP JUMPDEST PUSH2 0x584 JUMP JUMPDEST STOP JUMPDEST PUSH2 0x17E PUSH1 0x4 DUP1 CALLDATASIZE SUB DUP2 ADD SWAP1 PUSH2 0x179 SWAP2 SWAP1 PUSH2 0x1A3B JUMP JUMPDEST PUSH2 0x7C4 JUMP JUMPDEST PUSH1 0x40 MLOAD PUSH2 0x18B SWAP2 SWAP1 PUSH2 0x1A95 JUMP JUMPDEST PUSH1 0x40 MLOAD DUP1 SWAP2 SUB SWAP1 RETURN JUMPDEST PUSH2 0x1AE PUSH1 0x4 DUP1 CALLDATASIZE SUB DUP2 ADD SWAP1 PUSH2 0x1A9 SWAP2 SWAP1 PUSH2 0x1AD8 JUMP JUMPDEST PUSH2 0x7EE JUMP JUMPDEST STOP JUMPDEST PUSH2 0x1B8 PUSH2 0xA6D JUMP JUMPDEST PUSH1 0x40 MLOAD PUSH2 0x1C5 SWAP2 SWAP1 PUSH2 0x1B25 JUMP JUMPDEST PUSH1 0x40 MLOAD DUP1 SWAP2 SUB SWAP1 RETURN JUMPDEST PUSH2 0x1D6 PUSH2 0xA91 JUMP JUMPDEST PUSH1 0x40 MLOAD PUSH2 0x1E3 SWAP2 SWAP1 PUSH2 0x1B25 JUMP JUMPDEST PUSH1 0x40 MLOAD DUP1 SWAP2 SUB SWAP1 RETURN JUMPDEST PUSH2 0x1F4 PUSH2 0xAB5 JUMP JUMPDEST PUSH1 0x40 MLOAD PUSH2 0x201 SWAP2 SWAP1 PUSH2 0x1B25 JUMP JUMPDEST PUSH1 0x40 MLOAD DUP1 SWAP2 SUB SWAP1 RETURN JUMPDEST PUSH2 0x224 PUSH1 0x4 DUP1 CALLDATASIZE SUB DUP2 ADD SWAP1 PUSH2 0x21F SWAP2 SWAP1 PUSH2 0x1B3E JUMP JUMPDEST PUSH2 0xAD9 JUMP JUMPDEST PUSH1 0x40 MLOAD PUSH2 0x232 SWAP3 SWAP2 SWAP1 PUSH2 0x1BE5 JUMP JUMPDEST PUSH1 0x40 MLOAD DUP1 SWAP2 SUB SWAP1 RETURN JUMPDEST PUSH2 0x243 PUSH2 0xD10 JUMP JUMPDEST PUSH1 0x40 MLOAD PUSH2 0x250 SWAP2 SWAP1 PUSH2 0x1B25 JUMP JUMPDEST PUSH1 0x40 MLOAD DUP1 SWAP2 SUB SWAP1 RETURN JUMPDEST PUSH2 0x261 PUSH2 0xD34 JUMP JUMPDEST PUSH1 0x40 MLOAD PUSH2 0x26E SWAP2 SWAP1 PUSH2 0x1B25 JUMP JUMPDEST PUSH1 0x40 MLOAD DUP1 SWAP2 SUB SWAP1 RETURN JUMPDEST PUSH2 0x291 PUSH1 0x4 DUP1 CALLDATASIZE SUB DUP2 ADD SWAP1 PUSH2 0x28C SWAP2 SWAP1 PUSH2 0x1C13 JUMP JUMPDEST PUSH2 0xD58 JUMP JUMPDEST STOP JUMPDEST PUSH2 0x2AD PUSH1 0x4 DUP1 CALLDATASIZE SUB DUP2 ADD SWAP1 PUSH2 0x2A8 SWAP2 SWAP1 PUSH2 0x1AD8 JUMP JUMPDEST PUSH2 0xEAF JUMP JUMPDEST PUSH1 0x40 MLOAD PUSH2 0x2BA SWAP2 SWAP1 PUSH2 0x1C3E JUMP JUMPDEST PUSH1 0x40 MLOAD DUP1 SWAP2 SUB SWAP1 RETURN JUMPDEST PUSH2 0x2DD PUSH1 0x4 DUP1 CALLDATASIZE SUB DUP2 ADD SWAP1 PUSH2 0x2D8 SWAP2 SWAP1 PUSH2 0x1C57 JUMP JUMPDEST PUSH2 0xF10 JUMP JUMPDEST STOP JUMPDEST PUSH2 0x2F9 PUSH1 0x4 DUP1 CALLDATASIZE SUB DUP2 ADD SWAP1 PUSH2 0x2F4 SWAP2 SWAP1 PUSH2 0x1CFA JUMP JUMPDEST PUSH2 0x12AE JUMP JUMPDEST PUSH1 0x40 MLOAD PUSH2 0x306 SWAP2 SWAP1 PUSH2 0x1E5A JUMP JUMPDEST PUSH1 0x40 MLOAD DUP1 SWAP2 SUB SWAP1 RETURN JUMPDEST PUSH2 0x317 PUSH2 0x1468 JUMP JUMPDEST PUSH1 0x40 MLOAD PUSH2 0x324 SWAP2 SWAP1 PUSH2 0x1B25 JUMP JUMPDEST PUSH1 0x40 MLOAD DUP1 SWAP2 SUB SWAP1 RETURN JUMPDEST PUSH2 0x335 PUSH2 0x148C JUMP JUMPDEST PUSH1 0x40 MLOAD PUSH2 0x342 SWAP2 SWAP1 PUSH2 0x1B25 JUMP JUMPDEST PUSH1 0x40 MLOAD DUP1 SWAP2 SUB SWAP1 RETURN JUMPDEST PUSH2 0x365 PUSH1 0x4 DUP1 CALLDATASIZE SUB DUP2 ADD SWAP1 PUSH2 0x360 SWAP2 SWAP1 PUSH2 0x1AD8 JUMP JUMPDEST PUSH2 0x14B0 JUMP JUMPDEST STOP JUMPDEST PUSH2 0x381 PUSH1 0x4 DUP1 CALLDATASIZE SUB DUP2 ADD SWAP1 PUSH2 0x37C SWAP2 SWAP1 PUSH2 0x1CFA JUMP JUMPDEST PUSH2 0x16BF JUMP JUMPDEST PUSH1 0x40 MLOAD PUSH2 0x38E SWAP2 SWAP1 PUSH2 0x1A95 JUMP JUMPDEST PUSH1 0x40 MLOAD DUP1 SWAP2 SUB SWAP1 RETURN JUMPDEST PUSH2 0x39F PUSH2 0x16DC JUMP JUMPDEST PUSH1 0x1 PUSH0 DUP5 DUP2 MSTORE PUSH1 0x20 ADD SWAP1 DUP2 MSTORE PUSH1 0x20 ADD PUSH0 KECCAK256 DUP1 SLOAD SWAP1 POP DUP3 LT PUSH2 0x3F5 JUMPI PUSH1 0x40 MLOAD PUSH32 0x8C379A000000000000000000000000000000000000000000000000000000000 DUP2 MSTORE PUSH1 0x4 ADD PUSH2 0x3EC SWAP1 PUSH2 0x1EEA JUMP JUMPDEST PUSH1 0x40 MLOAD DUP1 SWAP2 SUB SWAP1 REVERT JUMPDEST PUSH1 0x1 PUSH0 DUP5 DUP2 MSTORE PUSH1 0x20 ADD SWAP1 DUP2 MSTORE PUSH1 0x20 ADD PUSH0 KECCAK256 DUP3 DUP2 SLOAD DUP2 LT PUSH2 0x418 JUMPI PUSH2 0x417 PUSH2 0x1F08 JUMP JUMPDEST JUMPDEST SWAP1 PUSH0 MSTORE PUSH1 0x20 PUSH0 KECCAK256 SWAP1 PUSH1 0x5 MUL ADD PUSH1 0x40 MLOAD DUP1 PUSH1 0xA0 ADD PUSH1 0x40 MSTORE SWAP1 DUP2 PUSH0 DUP3 ADD DUP1 SLOAD PUSH2 0x43E SWAP1 PUSH2 0x1F62 JUMP JUMPDEST DUP1 PUSH1 0x1F ADD PUSH1 0x20 DUP1 SWAP2 DIV MUL PUSH1 0x20 ADD PUSH1 0x40 MLOAD SWAP1 DUP2 ADD PUSH1 0x40 MSTORE DUP1 SWAP3 SWAP2 SWAP1 DUP2 DUP2 MSTORE PUSH1 0x20 ADD DUP3 DUP1 SLOAD PUSH2 0x46A SWAP1 PUSH2 0x1F62 JUMP JUMPDEST DUP1 ISZERO PUSH2 0x4B5 JUMPI DUP1 PUSH1 0x1F LT PUSH2 0x48C JUMPI PUSH2 0x100 DUP1 DUP4 SLOAD DIV MUL DUP4 MSTORE SWAP2 PUSH1 0x20 ADD SWAP2 PUSH2 0x4B5 JUMP JUMPDEST DUP3 ADD SWAP2 SWAP1 PUSH0 MSTORE PUSH1 0x20 PUSH0 KECCAK256 SWAP1 JUMPDEST DUP2 SLOAD DUP2 MSTORE SWAP1 PUSH1 0x1 ADD SWAP1 PUSH1 0x20 ADD DUP1 DUP4 GT PUSH2 0x498 JUMPI DUP3 SWAP1 SUB PUSH1 0x1F AND DUP3 ADD SWAP2 JUMPDEST POP POP POP POP POP DUP2 MSTORE PUSH1 0x20 ADD PUSH1 0x1 DUP3 ADD SLOAD DUP2 MSTORE PUSH1 0x20 ADD PUSH1 0x2 DUP3 ADD DUP1 SLOAD PUSH2 0x4D8 SWAP1 PUSH2 0x1F62 JUMP JUMPDEST DUP1 PUSH1 0x1F ADD PUSH1 0x20 DUP1 SWAP2 DIV MUL PUSH1 0x20 ADD PUSH1 0x40 MLOAD SWAP1 DUP2 ADD PUSH1 0x40 MSTORE DUP1 SWAP3 SWAP2 SWAP1 DUP2 DUP2 MSTORE PUSH1 0x20 ADD DUP3 DUP1 SLOAD PUSH2 0x504 SWAP1 PUSH2 0x1F62 JUMP JUMPDEST DUP1 ISZERO PUSH2 0x54F JUMPI DUP1 PUSH1 0x1F LT PUSH2 0x526 JUMPI PUSH2 0x100 DUP1 DUP4 SLOAD DIV MUL DUP4 MSTORE SWAP2 PUSH1 0x20 ADD SWAP2 PUSH2 0x54F JUMP JUMPDEST DUP3 ADD SWAP2 SWAP1 PUSH0 MSTORE PUSH1 0x20 PUSH0 KECCAK256 SWAP1 JUMPDEST DUP2 SLOAD DUP2 MSTORE SWAP1 PUSH1 0x1 ADD SWAP1 PUSH1 0x20 ADD DUP1 DUP4 GT PUSH2 0x532 JUMPI DUP3 SWAP1 SUB PUSH1 0x1F AND DUP3 ADD SWAP2 JUMPDEST POP POP POP POP POP DUP2 MSTORE PUSH1 0x20 ADD PUSH1 0x3 DUP3 ADD SLOAD DUP2 MSTORE PUSH1 0x20 ADD PUSH1 0x4 DUP3 ADD PUSH0 SWAP1 SLOAD SWAP1 PUSH2 0x100 EXP SWAP1 DIV PUSH1 0xFF AND ISZERO ISZERO ISZERO ISZERO DUP2 MSTORE POP POP SWAP1 POP SWAP3 SWAP2 POP POP JUMP JUMPDEST PUSH0 PUSH0 PUSH32 0x1EFFBBFF9C66C5E59634F24FE842750C60D18891155C32DD155FC2D661A4C86D DUP2 MSTORE PUSH1 0x20 ADD SWAP1 DUP2 MSTORE PUSH1 0x20 ADD PUSH0 KECCAK256 PUSH0 CALLER PUSH20 0xFFFFFFFFFFFFFFFFFFFFFFFFFFFFFFFFFFFFFFFF AND PUSH20 0xFFFFFFFFFFFFFFFFFFFFFFFFFFFFFFFFFFFFFFFF AND DUP2 MSTORE PUSH1 0x20 ADD SWAP1 DUP2 MSTORE PUSH1 0x20 ADD PUSH0 KECCAK256 PUSH0 SWAP1 SLOAD SWAP1 PUSH2 0x100 EXP SWAP1 DIV PUSH1 0xFF AND PUSH2 0x63B JUMPI PUSH1 0x40 MLOAD PUSH32 0x8C379A000000000000000000000000000000000000000000000000000000000 DUP2 MSTORE PUSH1 0x4 ADD PUSH2 0x632 SWAP1 PUSH2 0x1FDC JUMP JUMPDEST PUSH1 0x40 MLOAD DUP1 SWAP2 SUB SWAP1 REVERT JUMPDEST PUSH0 PUSH0 SWAP1 POP JUMPDEST DUP4 DUP4 SWAP1 POP DUP2 LT ISZERO PUSH2 0x7BE JUMPI PUSH0 PUSH0 DUP6 DUP6 DUP5 DUP2 DUP2 LT PUSH2 0x660 JUMPI PUSH2 0x65F PUSH2 0x1F08 JUMP JUMPDEST JUMPDEST SWAP1 POP PUSH1 0x20 MUL ADD CALLDATALOAD DUP2 MSTORE PUSH1 0x20 ADD SWAP1 DUP2 MSTORE PUSH1 0x20 ADD PUSH0 KECCAK256 PUSH0 DUP4 PUSH20 0xFFFFFFFFFFFFFFFFFFFFFFFFFFFFFFFFFFFFFFFF AND PUSH20 0xFFFFFFFFFFFFFFFFFFFFFFFFFFFFFFFFFFFFFFFF AND DUP2 MSTORE PUSH1 0x20 ADD SWAP1 DUP2 MSTORE PUSH1 0x20 ADD PUSH0 KECCAK256 PUSH0 SWAP1 SLOAD SWAP1 PUSH2 0x100 EXP SWAP1 DIV PUSH1 0xFF AND PUSH2 0x7B1 JUMPI PUSH1 0x1 PUSH0 PUSH0 DUP7 DUP7 DUP6 DUP2 DUP2 LT PUSH2 0x6D7 JUMPI PUSH2 0x6D6 PUSH2 0x1F08 JUMP JUMPDEST JUMPDEST SWAP1 POP PUSH1 0x20 MUL ADD CALLDATALOAD DUP2 MSTORE PUSH1 0x20 ADD SWAP1 DUP2 MSTORE PUSH1 0x20 ADD PUSH0 KECCAK256 PUSH0 DUP5 PUSH20 0xFFFFFFFFFFFFFFFFFFFFFFFFFFFFFFFFFFFFFFFF AND PUSH20 0xFFFFFFFFFFFFFFFFFFFFFFFFFFFFFFFFFFFFFFFF AND DUP2 MSTORE PUSH1 0x20 ADD SWAP1 DUP2 MSTORE PUSH1 0x20 ADD PUSH0 KECCAK256 PUSH0 PUSH2 0x100 EXP DUP2 SLOAD DUP2 PUSH1 0xFF MUL NOT AND SWAP1 DUP4 ISZERO ISZERO MUL OR SWAP1 SSTORE POP CALLER PUSH20 0xFFFFFFFFFFFFFFFFFFFFFFFFFFFFFFFFFFFFFFFF AND DUP3 PUSH20 0xFFFFFFFFFFFFFFFFFFFFFFFFFFFFFFFFFFFFFFFF AND DUP6 DUP6 DUP5 DUP2 DUP2 LT PUSH2 0x77D JUMPI PUSH2 0x77C PUSH2 0x1F08 JUMP JUMPDEST JUMPDEST SWAP1 POP PUSH1 0x20 MUL ADD CALLDATALOAD PUSH32 0x2F8788117E7EFF1D82E926EC794901D17C78024A50270940304540A733656F0D PUSH1 0x40 MLOAD PUSH1 0x40 MLOAD DUP1 SWAP2 SUB SWAP1 LOG4 JUMPDEST DUP1 DUP1 PUSH1 0x1 ADD SWAP2 POP POP PUSH2 0x640 JUMP JUMPDEST POP POP POP POP JUMP JUMPDEST PUSH0 PUSH1 0x2 DUP4 DUP4 PUSH1 0x40 MLOAD PUSH2 0x7D7 SWAP3 SWAP2 SWAP1 PUSH2 0x2036 JUMP JUMPDEST SWAP1 DUP2 MSTORE PUSH1 0x20 ADD PUSH1 0x40 MLOAD DUP1 SWAP2 SUB SWAP1 KECCAK256 SLOAD SWAP1 POP SWAP3 SWAP2 POP POP JUMP JUMPDEST PUSH0 PUSH0 PUSH32 0x1EFFBBFF9C66C5E59634F24FE842750C60D18891155C32DD155FC2D661A4C86D DUP2 MSTORE PUSH1 0x20 ADD SWAP1 DUP2 MSTORE PUSH1 0x20 ADD PUSH0 KECCAK256 PUSH0 CALLER PUSH20 0xFFFFFFFFFFFFFFFFFFFFFFFFFFFFFFFFFFFFFFFF AND PUSH20 0xFFFFFFFFFFFFFFFFFFFFFFFFFFFFFFFFFFFFFFFF AND DUP2 MSTORE PUSH1 0x20 ADD SWAP1 DUP2 MSTORE PUSH1 0x20 ADD PUSH0 KECCAK256 PUSH0 SWAP1 SLOAD SWAP1 PUSH2 0x100 EXP SWAP1 DIV PUSH1 0xFF AND PUSH2 0x8A5 JUMPI PUSH1 0x40 MLOAD PUSH32 0x8C379A000000000000000000000000000000000000000000000000000000000 DUP2 MSTORE PUSH1 0x4 ADD PUSH2 0x89C SWAP1 PUSH2 0x1FDC JUMP JUMPDEST PUSH1 0x40 MLOAD DUP1 SWAP2 SUB SWAP1 REVERT JUMPDEST PUSH0 PUSH20 0xFFFFFFFFFFFFFFFFFFFFFFFFFFFFFFFFFFFFFFFF AND DUP2 PUSH20 0xFFFFFFFFFFFFFFFFFFFFFFFFFFFFFFFFFFFFFFFF AND SUB PUSH2 0x913 JUMPI PUSH1 0x40 MLOAD PUSH32 0x8C379A000000000000000000000000000000000000000000000000000000000 DUP2 MSTORE PUSH1 0x4 ADD PUSH2 0x90A SWAP1 PUSH2 0x20BE JUMP JUMPDEST PUSH1 0x40 MLOAD DUP1 SWAP2 SUB SWAP1 REVERT JUMPDEST PUSH0 PUSH0 DUP4 DUP2 MSTORE PUSH1 0x20 ADD SWAP1 DUP2 MSTORE PUSH1 0x20 ADD PUSH0 KECCAK256 PUSH0 DUP3 PUSH20 0xFFFFFFFFFFFFFFFFFFFFFFFFFFFFFFFFFFFFFFFF AND PUSH20 0xFFFFFFFFFFFFFFFFFFFFFFFFFFFFFFFFFFFFFFFF AND DUP2 MSTORE PUSH1 0x20 ADD SWAP1 DUP2 MSTORE PUSH1 0x20 ADD PUSH0 KECCAK256 PUSH0 SWAP1 SLOAD SWAP1 PUSH2 0x100 EXP SWAP1 DIV PUSH1 0xFF AND ISZERO PUSH2 0x9AB JUMPI PUSH1 0x40 MLOAD PUSH32 0x8C379A000000000000000000000000000000000000000000000000000000000 DUP2 MSTORE PUSH1 0x4 ADD PUSH2 0x9A2 SWAP1 PUSH2 0x214C JUMP JUMPDEST PUSH1 0x40 MLOAD DUP1 SWAP2 SUB SWAP1 REVERT JUMPDEST PUSH1 0x1 PUSH0 PUSH0 DUP5 DUP2 MSTORE PUSH1 0x20 ADD SWAP1 DUP2 MSTORE PUSH1 0x20 ADD PUSH0 KECCAK256 PUSH0 DUP4 PUSH20 0xFFFFFFFFFFFFFFFFFFFFFFFFFFFFFFFFFFFFFFFF AND PUSH20 0xFFFFFFFFFFFFFFFFFFFFFFFFFFFFFFFFFFFFFFFF AND DUP2 MSTORE PUSH1 0x20 ADD SWAP1 DUP2 MSTORE PUSH1 0x20 ADD PUSH0 KECCAK256 PUSH0 PUSH2 0x100 EXP DUP2 SLOAD DUP2 PUSH1 0xFF MUL NOT AND SWAP1 DUP4 ISZERO ISZERO MUL OR SWAP1 SSTORE POP CALLER PUSH20 0xFFFFFFFFFFFFFFFFFFFFFFFFFFFFFFFFFFFFFFFF AND DUP2 PUSH20 0xFFFFFFFFFFFFFFFFFFFFFFFFFFFFFFFFFFFFFFFF AND DUP4 PUSH32 0x2F8788117E7EFF1D82E926EC794901D17C78024A50270940304540A733656F0D PUSH1 0x40 MLOAD PUSH1 0x40 MLOAD DUP1 SWAP2 SUB SWAP1 LOG4 POP POP JUMP JUMPDEST PUSH32 0xC10C77BE35AFF266144ED64C26A1FA104BAE2F284AE99AC4A34203454704A185 DUP2 JUMP JUMPDEST PUSH32 0x408A36151F841709116A4E8ACA4E0202874F7F54687DCB863B1EA4672DC9D8CF DUP2 JUMP JUMPDEST PUSH32 0xC2979137D1774E40FE2638D355BF7A7B092BE4C67F242AAD1655E1E27F9DF9CC DUP2 JUMP JUMPDEST PUSH0 PUSH1 0x60 PUSH1 0x1 PUSH0 DUP7 DUP2 MSTORE PUSH1 0x20 ADD SWAP1 DUP2 MSTORE PUSH1 0x20 ADD PUSH0 KECCAK256 DUP1 SLOAD SWAP1 POP DUP5 LT PUSH2 0xB32 JUMPI PUSH1 0x40 MLOAD PUSH32 0x8C379A000000000000000000000000000000000000000000000000000000000 DUP2 MSTORE PUSH1 0x4 ADD PUSH2 0xB29 SWAP1 PUSH2 0x1EEA JUMP JUMPDEST PUSH1 0x40 MLOAD DUP1 SWAP2 SUB SWAP1 REVERT JUMPDEST PUSH0 PUSH1 0x1 PUSH0 DUP8 DUP2 MSTORE PUSH1 0x20 ADD SWAP1 DUP2 MSTORE PUSH1 0x20 ADD PUSH0 KECCAK256 DUP6 DUP2 SLOAD DUP2 LT PUSH2 0xB56 JUMPI PUSH2 0xB55 PUSH2 0x1F08 JUMP JUMPDEST JUMPDEST SWAP1 PUSH0 MSTORE PUSH1 0x20 PUSH0 KECCAK256 SWAP1 PUSH1 0x5 MUL ADD PUSH1 0x40 MLOAD DUP1 PUSH1 0xA0 ADD PUSH1 0x40 MSTORE SWAP1 DUP2 PUSH0 DUP3 ADD DUP1 SLOAD PUSH2 0xB7C SWAP1 PUSH2 0x1F62 JUMP JUMPDEST DUP1 PUSH1 0x1F ADD PUSH1 0x20 DUP1 SWAP2 DIV MUL PUSH1 0x20 ADD PUSH1 0x40 MLOAD SWAP1 DUP2 ADD PUSH1 0x40 MSTORE DUP1 SWAP3 SWAP2 SWAP1 DUP2 DUP2 MSTORE PUSH1 0x20 ADD DUP3 DUP1 SLOAD PUSH2 0xBA8 SWAP1 PUSH2 0x1F62 JUMP JUMPDEST DUP1 ISZERO PUSH2 0xBF3 JUMPI DUP1 PUSH1 0x1F LT PUSH2 0xBCA JUMPI PUSH2 0x100 DUP1 DUP4 SLOAD DIV MUL DUP4 MSTORE SWAP2 PUSH1 0x20 ADD SWAP2 PUSH2 0xBF3 JUMP JUMPDEST DUP3 ADD SWAP2 SWAP1 PUSH0 MSTORE PUSH1 0x20 PUSH0 KECCAK256 SWAP1 JUMPDEST DUP2 SLOAD DUP2 MSTORE SWAP1 PUSH1 0x1 ADD SWAP1 PUSH1 0x20 ADD DUP1 DUP4 GT PUSH2 0xBD6 JUMPI DUP3 SWAP1 SUB PUSH1 0x1F AND DUP3 ADD SWAP2 JUMPDEST POP POP POP POP POP DUP2 MSTORE PUSH1 0x20 ADD PUSH1 0x1 DUP3 ADD SLOAD DUP2 MSTORE PUSH1 0x20 ADD PUSH1 0x2 DUP3 ADD DUP1 SLOAD PUSH2 0xC16 SWAP1 PUSH2 0x1F62 JUMP JUMPDEST DUP1 PUSH1 0x1F ADD PUSH1 0x20 DUP1 SWAP2 DIV MUL PUSH1 0x20 ADD PUSH1 0x40 MLOAD SWAP1 DUP2 ADD PUSH1 0x40 MSTORE DUP1 SWAP3 SWAP2 SWAP1 DUP2 DUP2 MSTORE PUSH1 0x20 ADD DUP3 DUP1 SLOAD PUSH2 0xC42 SWAP1 PUSH2 0x1F62 JUMP JUMPDEST DUP1 ISZERO PUSH2 0xC8D JUMPI DUP1 PUSH1 0x1F LT PUSH2 0xC64 JUMPI PUSH2 0x100 DUP1 DUP4 SLOAD DIV MUL DUP4 MSTORE SWAP2 PUSH1 0x20 ADD SWAP2 PUSH2 0xC8D JUMP JUMPDEST DUP3 ADD SWAP2 SWAP1 PUSH0 MSTORE PUSH1 0x20 PUSH0 KECCAK256 SWAP1 JUMPDEST DUP2 SLOAD DUP2 MSTORE SWAP1 PUSH1 0x1 ADD SWAP1 PUSH1 0x20 ADD DUP1 DUP4 GT PUSH2 0xC70 JUMPI DUP3 SWAP1 SUB PUSH1 0x1F AND DUP3 ADD SWAP2 JUMPDEST POP POP POP POP POP DUP2 MSTORE PUSH1 0x20 ADD PUSH1 0x3 DUP3 ADD SLOAD DUP2 MSTORE PUSH1 0x20 ADD PUSH1 0x4 DUP3 ADD PUSH0 SWAP1 SLOAD SWAP1 PUSH2 0x100 EXP SWAP1 DIV PUSH1 0xFF AND ISZERO ISZERO ISZERO ISZERO DUP2 MSTORE POP POP SWAP1 POP DUP4 DUP2 PUSH1 0x20 ADD MLOAD EQ SWAP3 POP DUP1 PUSH0 ADD MLOAD SWAP2 POP DUP6 PUSH32 0x13AC87FCD784FD62588DD5D751090B3996BD31BD932F0987530B3BDA226C5368 DUP6 DUP6 CALLER PUSH1 0x40 MLOAD PUSH2 0xCFF SWAP4 SWAP3 SWAP2 SWAP1 PUSH2 0x2179 JUMP JUMPDEST PUSH1 0x40 MLOAD DUP1 SWAP2 SUB SWAP1 LOG2 POP SWAP4 POP SWAP4 SWAP2 POP POP JUMP JUMPDEST PUSH32 0x59A1C48E5837AD7A7F3DCEDCBE129BF3249EC4FBF651FD4F5E2600EAD39FE2F5 DUP2 JUMP JUMPDEST PUSH32 0x566C814873EED56A69B28C40AB27CC2CB150D74068BAE3E884CCD44F8DE60F8A DUP2 JUMP JUMPDEST PUSH0 PUSH0 DUP3 DUP2 MSTORE PUSH1 0x20 ADD SWAP1 DUP2 MSTORE PUSH1 0x20 ADD PUSH0 KECCAK256 PUSH0 CALLER PUSH20 0xFFFFFFFFFFFFFFFFFFFFFFFFFFFFFFFFFFFFFFFF AND PUSH20 0xFFFFFFFFFFFFFFFFFFFFFFFFFFFFFFFFFFFFFFFF AND DUP2 MSTORE PUSH1 0x20 ADD SWAP1 DUP2 MSTORE PUSH1 0x20 ADD PUSH0 KECCAK256 PUSH0 SWAP1 SLOAD SWAP1 PUSH2 0x100 EXP SWAP1 DIV PUSH1 0xFF AND PUSH2 0xDEF JUMPI PUSH1 0x40 MLOAD PUSH32 0x8C379A000000000000000000000000000000000000000000000000000000000 DUP2 MSTORE PUSH1 0x4 ADD PUSH2 0xDE6 SWAP1 PUSH2 0x221E JUMP JUMPDEST PUSH1 0x40 MLOAD DUP1 SWAP2 SUB SWAP1 REVERT JUMPDEST PUSH0 PUSH0 PUSH0 DUP4 DUP2 MSTORE PUSH1 0x20 ADD SWAP1 DUP2 MSTORE PUSH1 0x20 ADD PUSH0 KECCAK256 PUSH0 CALLER PUSH20 0xFFFFFFFFFFFFFFFFFFFFFFFFFFFFFFFFFFFFFFFF AND PUSH20 0xFFFFFFFFFFFFFFFFFFFFFFFFFFFFFFFFFFFFFFFF AND DUP2 MSTORE PUSH1 0x20 ADD SWAP1 DUP2 MSTORE PUSH1 0x20 ADD PUSH0 KECCAK256 PUSH0 PUSH2 0x100 EXP DUP2 SLOAD DUP2 PUSH1 0xFF MUL NOT AND SWAP1 DUP4 ISZERO ISZERO MUL OR SWAP1 SSTORE POP CALLER PUSH20 0xFFFFFFFFFFFFFFFFFFFFFFFFFFFFFFFFFFFFFFFF AND CALLER PUSH20 0xFFFFFFFFFFFFFFFFFFFFFFFFFFFFFFFFFFFFFFFF AND DUP3 PUSH32 0xF6391F5C32D9C69D2A47EA670B442974B53935D1EDC7FD64EB21E047A839171B PUSH1 0x40 MLOAD PUSH1 0x40 MLOAD DUP1 SWAP2 SUB SWAP1 LOG4 POP JUMP JUMPDEST PUSH0 PUSH0 PUSH0 DUP5 DUP2 MSTORE PUSH1 0x20 ADD SWAP1 DUP2 MSTORE PUSH1 0x20 ADD PUSH0 KECCAK256 PUSH0 DUP4 PUSH20 0xFFFFFFFFFFFFFFFFFFFFFFFFFFFFFFFFFFFFFFFF AND PUSH20 0xFFFFFFFFFFFFFFFFFFFFFFFFFFFFFFFFFFFFFFFF AND DUP2 MSTORE PUSH1 0x20 ADD SWAP1 DUP2 MSTORE PUSH1 0x20 ADD PUSH0 KECCAK256 PUSH0 SWAP1 SLOAD SWAP1 PUSH2 0x100 EXP SWAP1 DIV PUSH1 0xFF AND SWAP1 POP SWAP3 SWAP2 POP POP JUMP JUMPDEST PUSH32 0xC2979137D1774E40FE2638D355BF7A7B092BE4C67F242AAD1655E1E27F9DF9CC PUSH0 PUSH0 DUP3 DUP2 MSTORE PUSH1 0x20 ADD SWAP1 DUP2 MSTORE PUSH1 0x20 ADD PUSH0 KECCAK256 PUSH0 CALLER PUSH20 0xFFFFFFFFFFFFFFFFFFFFFFFFFFFFFFFFFFFFFFFF AND PUSH20 0xFFFFFFFFFFFFFFFFFFFFFFFFFFFFFFFFFFFFFFFF AND DUP2 MSTORE PUSH1 0x20 ADD SWAP1 DUP2 MSTORE PUSH1 0x20 ADD PUSH0 KECCAK256 PUSH0 SWAP1 SLOAD SWAP1 PUSH2 0x100 EXP SWAP1 DIV PUSH1 0xFF AND PUSH2 0xFC8 JUMPI PUSH1 0x40 MLOAD PUSH32 0x8C379A000000000000000000000000000000000000000000000000000000000 DUP2 MSTORE PUSH1 0x4 ADD PUSH2 0xFBF SWAP1 PUSH2 0x22AC JUMP JUMPDEST PUSH1 0x40 MLOAD DUP1 SWAP2 SUB SWAP1 REVERT JUMPDEST PUSH0 DUP7 DUP7 SWAP1 POP GT PUSH2 0x100D JUMPI PUSH1 0x40 MLOAD PUSH32 0x8C379A000000000000000000000000000000000000000000000000000000000 DUP2 MSTORE PUSH1 0x4 ADD PUSH2 0x1004 SWAP1 PUSH2 0x233A JUMP JUMPDEST PUSH1 0x40 MLOAD DUP1 SWAP2 SUB SWAP1 REVERT JUMPDEST PUSH0 PUSH0 SHL DUP5 SUB PUSH2 0x1051 JUMPI PUSH1 0x40 MLOAD PUSH32 0x8C379A000000000000000000000000000000000000000000000000000000000 DUP2 MSTORE PUSH1 0x4 ADD PUSH2 0x1048 SWAP1 PUSH2 0x23C8 JUMP JUMPDEST PUSH1 0x40 MLOAD DUP1 SWAP2 SUB SWAP1 REVERT JUMPDEST PUSH0 DUP4 DUP4 SWAP1 POP GT PUSH2 0x1096 JUMPI PUSH1 0x40 MLOAD PUSH32 0x8C379A000000000000000000000000000000000000000000000000000000000 DUP2 MSTORE PUSH1 0x4 ADD PUSH2 0x108D SWAP1 PUSH2 0x2456 JUMP JUMPDEST PUSH1 0x40 MLOAD DUP1 SWAP2 SUB SWAP1 REVERT JUMPDEST PUSH0 PUSH1 0x2 DUP8 DUP8 PUSH1 0x40 MLOAD PUSH2 0x10A9 SWAP3 SWAP2 SWAP1 PUSH2 0x2036 JUMP JUMPDEST SWAP1 DUP2 MSTORE PUSH1 0x20 ADD PUSH1 0x40 MLOAD DUP1 SWAP2 SUB SWAP1 KECCAK256 SLOAD EQ PUSH2 0x10F8 JUMPI PUSH1 0x40 MLOAD PUSH32 0x8C379A000000000000000000000000000000000000000000000000000000000 DUP2 MSTORE PUSH1 0x4 ADD PUSH2 0x10EF SWAP1 PUSH2 0x24E4 JUMP JUMPDEST PUSH1 0x40 MLOAD DUP1 SWAP2 SUB SWAP1 REVERT JUMPDEST PUSH1 0x1 PUSH0 DUP9 DUP2 MSTORE PUSH1 0x20 ADD SWAP1 DUP2 MSTORE PUSH1 0x20 ADD PUSH0 KECCAK256 PUSH1 0x40 MLOAD DUP1 PUSH1 0xA0 ADD PUSH1 0x40 MSTORE DUP1 DUP9 DUP9 DUP1 DUP1 PUSH1 0x1F ADD PUSH1 0x20 DUP1 SWAP2 DIV MUL PUSH1 0x20 ADD PUSH1 0x40 MLOAD SWAP1 DUP2 ADD PUSH1 0x40 MSTORE DUP1 SWAP4 SWAP3 SWAP2 SWAP1 DUP2 DUP2 MSTORE PUSH1 0x20 ADD DUP4 DUP4 DUP1 DUP3 DUP5 CALLDATACOPY PUSH0 DUP2 DUP5 ADD MSTORE PUSH1 0x1F NOT PUSH1 0x1F DUP3 ADD AND SWAP1 POP DUP1 DUP4 ADD SWAP3 POP POP POP POP POP POP POP DUP2 MSTORE PUSH1 0x20 ADD DUP7 DUP2 MSTORE PUSH1 0x20 ADD DUP6 DUP6 DUP1 DUP1 PUSH1 0x1F ADD PUSH1 0x20 DUP1 SWAP2 DIV MUL PUSH1 0x20 ADD PUSH1 0x40 MLOAD SWAP1 DUP2 ADD PUSH1 0x40 MSTORE DUP1 SWAP4 SWAP3 SWAP2 SWAP1 DUP2 DUP2 MSTORE PUSH1 0x20 ADD DUP4 DUP4 DUP1 DUP3 DUP5 CALLDATACOPY PUSH0 DUP2 DUP5 ADD MSTORE PUSH1 0x1F NOT PUSH1 0x1F DUP3 ADD AND SWAP1 POP DUP1 DUP4 ADD SWAP3 POP POP POP POP POP POP POP DUP2 MSTORE PUSH1 0x20 ADD TIMESTAMP DUP2 MSTORE PUSH1 0x20 ADD PUSH1 0x1 ISZERO ISZERO DUP2 MSTORE POP SWAP1 DUP1 PUSH1 0x1 DUP2 SLOAD ADD DUP1 DUP3 SSTORE DUP1 SWAP2 POP POP PUSH1 0x1 SWAP1 SUB SWAP1 PUSH0 MSTORE PUSH1 0x20 PUSH0 KECCAK256 SWAP1 PUSH1 0x5 MUL ADD PUSH0 SWAP1 SWAP2 SWAP1 SWAP2 SWAP1 SWAP2 POP PUSH0 DUP3 ADD MLOAD DUP2 PUSH0 ADD SWAP1 DUP2 PUSH2 0x11F2 SWAP2 SWAP1 PUSH2 0x26CF JUMP JUMPDEST POP PUSH1 0x20 DUP3 ADD MLOAD DUP2 PUSH1 0x1 ADD SSTORE PUSH1 0x40 DUP3 ADD MLOAD DUP2 PUSH1 0x2 ADD SWAP1 DUP2 PUSH2 0x1212 SWAP2 SWAP1 PUSH2 0x26CF JUMP JUMPDEST POP PUSH1 0x60 DUP3 ADD MLOAD DUP2 PUSH1 0x3 ADD SSTORE PUSH1 0x80 DUP3 ADD MLOAD DUP2 PUSH1 0x4 ADD PUSH0 PUSH2 0x100 EXP DUP2 SLOAD DUP2 PUSH1 0xFF MUL NOT AND SWAP1 DUP4 ISZERO ISZERO MUL OR SWAP1 SSTORE POP POP POP DUP7 PUSH1 0x2 DUP8 DUP8 PUSH1 0x40 MLOAD PUSH2 0x1251 SWAP3 SWAP2 SWAP1 PUSH2 0x2036 JUMP JUMPDEST SWAP1 DUP2 MSTORE PUSH1 0x20 ADD PUSH1 0x40 MLOAD DUP1 SWAP2 SUB SWAP1 KECCAK256 DUP2 SWAP1 SSTORE POP DUP7 PUSH32 0xD3E7A2DBE7458E141B9209E0C140B86BC210C7E7EB3CEF382E9A80B4E2E6C575 DUP8 DUP8 DUP8 DUP8 DUP8 TIMESTAMP PUSH1 0x40 MLOAD PUSH2 0x129D SWAP7 SWAP6 SWAP5 SWAP4 SWAP3 SWAP2 SWAP1 PUSH2 0x27CA JUMP JUMPDEST PUSH1 0x40 MLOAD DUP1 SWAP2 SUB SWAP1 LOG2 POP POP POP POP POP POP POP JUMP JUMPDEST PUSH1 0x60 PUSH1 0x1 PUSH0 DUP4 DUP2 MSTORE PUSH1 0x20 ADD SWAP1 DUP2 MSTORE PUSH1 0x20 ADD PUSH0 KECCAK256 DUP1 SLOAD DUP1 PUSH1 0x20 MUL PUSH1 0x20 ADD PUSH1 0x40 MLOAD SWAP1 DUP2 ADD PUSH1 0x40 MSTORE DUP1 SWAP3 SWAP2 SWAP1 DUP2 DUP2 MSTORE PUSH1 0x20 ADD PUSH0 SWAP1 JUMPDEST DUP3 DUP3 LT ISZERO PUSH2 0x145D JUMPI DUP4 DUP3 SWAP1 PUSH0 MSTORE PUSH1 0x20 PUSH0 KECCAK256 SWAP1 PUSH1 0x5 MUL ADD PUSH1 0x40 MLOAD DUP1 PUSH1 0xA0 ADD PUSH1 0x40 MSTORE SWAP1 DUP2 PUSH0 DUP3 ADD DUP1 SLOAD PUSH2 0x1310 SWAP1 PUSH2 0x1F62 JUMP JUMPDEST DUP1 PUSH1 0x1F ADD PUSH1 0x20 DUP1 SWAP2 DIV MUL PUSH1 0x20 ADD PUSH1 0x40 MLOAD SWAP1 DUP2 ADD PUSH1 0x40 MSTORE DUP1 SWAP3 SWAP2 SWAP1 DUP2 DUP2 MSTORE PUSH1 0x20 ADD DUP3 DUP1 SLOAD PUSH2 0x133C SWAP1 PUSH2 0x1F62 JUMP JUMPDEST DUP1 ISZERO PUSH2 0x1387 JUMPI DUP1 PUSH1 0x1F LT PUSH2 0x135E JUMPI PUSH2 0x100 DUP1 DUP4 SLOAD DIV MUL DUP4 MSTORE SWAP2 PUSH1 0x20 ADD SWAP2 PUSH2 0x1387 JUMP JUMPDEST DUP3 ADD SWAP2 SWAP1 PUSH0 MSTORE PUSH1 0x20 PUSH0 KECCAK256 SWAP1 JUMPDEST DUP2 SLOAD DUP2 MSTORE SWAP1 PUSH1 0x1 ADD SWAP1 PUSH1 0x20 ADD DUP1 DUP4 GT PUSH2 0x136A JUMPI DUP3 SWAP1 SUB PUSH1 0x1F AND DUP3 ADD SWAP2 JUMPDEST POP POP POP POP POP DUP2 MSTORE PUSH1 0x20 ADD PUSH1 0x1 DUP3 ADD SLOAD DUP2 MSTORE PUSH1 0x20 ADD PUSH1 0x2 DUP3 ADD DUP1 SLOAD PUSH2 0x13AA SWAP1 PUSH2 0x1F62 JUMP JUMPDEST DUP1 PUSH1 0x1F ADD PUSH1 0x20 DUP1 SWAP2 DIV MUL PUSH1 0x20 ADD PUSH1 0x40 MLOAD SWAP1 DUP2 ADD PUSH1 0x40 MSTORE DUP1 SWAP3 SWAP2 SWAP1 DUP2 DUP2 MSTORE PUSH1 0x20 ADD DUP3 DUP1 SLOAD PUSH2 0x13D6 SWAP1 PUSH2 0x1F62 JUMP JUMPDEST DUP1 ISZERO PUSH2 0x1421 JUMPI DUP1 PUSH1 0x1F LT PUSH2 0x13F8 JUMPI PUSH2 0x100 DUP1 DUP4 SLOAD DIV MUL DUP4 MSTORE SWAP2 PUSH1 0x20 ADD SWAP2 PUSH2 0x1421 JUMP JUMPDEST DUP3 ADD SWAP2 SWAP1 PUSH0 MSTORE PUSH1 0x20 PUSH0 KECCAK256 SWAP1 JUMPDEST DUP2 SLOAD DUP2 MSTORE SWAP1 PUSH1 0x1 ADD SWAP1 PUSH1 0x20 ADD DUP1 DUP4 GT PUSH2 0x1404 JUMPI DUP3 SWAP1 SUB PUSH1 0x1F AND DUP3 ADD SWAP2 JUMPDEST POP POP POP POP POP DUP2 MSTORE PUSH1 0x20 ADD PUSH1 0x3 DUP3 ADD SLOAD DUP2 MSTORE PUSH1 0x20 ADD PUSH1 0x4 DUP3 ADD PUSH0 SWAP1 SLOAD SWAP1 PUSH2 0x100 EXP SWAP1 DIV PUSH1 0xFF AND ISZERO ISZERO ISZERO ISZERO DUP2 MSTORE POP POP DUP2 MSTORE PUSH1 0x20 ADD SWAP1 PUSH1 0x1 ADD SWAP1 PUSH2 0x12E0 JUMP JUMPDEST POP POP POP POP SWAP1 POP SWAP2 SWAP1 POP JUMP JUMPDEST PUSH32 0x1EFFBBFF9C66C5E59634F24FE842750C60D18891155C32DD155FC2D661A4C86D DUP2 JUMP JUMPDEST PUSH32 0xE1DCBDB91DF27212A29BC27177C840CF2F819ECF2187432E1FAC86C2DD5DFCA9 DUP2 JUMP JUMPDEST PUSH0 PUSH0 PUSH32 0x1EFFBBFF9C66C5E59634F24FE842750C60D18891155C32DD155FC2D661A4C86D DUP2 MSTORE PUSH1 0x20 ADD SWAP1 DUP2 MSTORE PUSH1 0x20 ADD PUSH0 KECCAK256 PUSH0 CALLER PUSH20 0xFFFFFFFFFFFFFFFFFFFFFFFFFFFFFFFFFFFFFFFF AND PUSH20 0xFFFFFFFFFFFFFFFFFFFFFFFFFFFFFFFFFFFFFFFF AND DUP2 MSTORE PUSH1 0x20 ADD SWAP1 DUP2 MSTORE PUSH1 0x20 ADD PUSH0 KECCAK256 PUSH0 SWAP1 SLOAD SWAP1 PUSH2 0x100 EXP SWAP1 DIV PUSH1 0xFF AND PUSH2 0x1567 JUMPI PUSH1 0x40 MLOAD PUSH32 0x8C379A000000000000000000000000000000000000000000000000000000000 DUP2 MSTORE PUSH1 0x4 ADD PUSH2 0x155E SWAP1 PUSH2 0x1FDC JUMP JUMPDEST PUSH1 0x40 MLOAD DUP1 SWAP2 SUB SWAP1 REVERT JUMPDEST PUSH0 PUSH0 DUP4 DUP2 MSTORE PUSH1 0x20 ADD SWAP1 DUP2 MSTORE PUSH1 0x20 ADD PUSH0 KECCAK256 PUSH0 DUP3 PUSH20 0xFFFFFFFFFFFFFFFFFFFFFFFFFFFFFFFFFFFFFFFF AND PUSH20 0xFFFFFFFFFFFFFFFFFFFFFFFFFFFFFFFFFFFFFFFF AND DUP2 MSTORE PUSH1 0x20 ADD SWAP1 DUP2 MSTORE PUSH1 0x20 ADD PUSH0 KECCAK256 PUSH0 SWAP1 SLOAD SWAP1 PUSH2 0x100 EXP SWAP1 DIV PUSH1 0xFF AND PUSH2 0x15FE JUMPI PUSH1 0x40 MLOAD PUSH32 0x8C379A000000000000000000000000000000000000000000000000000000000 DUP2 MSTORE PUSH1 0x4 ADD PUSH2 0x15F5 SWAP1 PUSH2 0x288F JUMP JUMPDEST PUSH1 0x40 MLOAD DUP1 SWAP2 SUB SWAP1 REVERT JUMPDEST PUSH0 PUSH0 PUSH0 DUP5 DUP2 MSTORE PUSH1 0x20 ADD SWAP1 DUP2 MSTORE PUSH1 0x20 ADD PUSH0 KECCAK256 PUSH0 DUP4 PUSH20 0xFFFFFFFFFFFFFFFFFFFFFFFFFFFFFFFFFFFFFFFF AND PUSH20 0xFFFFFFFFFFFFFFFFFFFFFFFFFFFFFFFFFFFFFFFF AND DUP2 MSTORE PUSH1 0x20 ADD SWAP1 DUP2 MSTORE PUSH1 0x20 ADD PUSH0 KECCAK256 PUSH0 PUSH2 0x100 EXP DUP2 SLOAD DUP2 PUSH1 0xFF MUL NOT AND SWAP1 DUP4 ISZERO ISZERO MUL OR SWAP1 SSTORE POP CALLER PUSH20 0xFFFFFFFFFFFFFFFFFFFFFFFFFFFFFFFFFFFFFFFF AND DUP2 PUSH20 0xFFFFFFFFFFFFFFFFFFFFFFFFFFFFFFFFFFFFFFFF AND DUP4 PUSH32 0xF6391F5C32D9C69D2A47EA670B442974B53935D1EDC7FD64EB21E047A839171B PUSH1 0x40 MLOAD PUSH1 0x40 MLOAD DUP1 SWAP2 SUB SWAP1 LOG4 POP POP JUMP JUMPDEST PUSH0 PUSH1 0x1 PUSH0 DUP4 DUP2 MSTORE PUSH1 0x20 ADD SWAP1 DUP2 MSTORE PUSH1 0x20 ADD PUSH0 KECCAK256 DUP1 SLOAD SWAP1 POP SWAP1 POP SWAP2 SWAP1 POP JUMP JUMPDEST PUSH1 0x40 MLOAD DUP1 PUSH1 0xA0 ADD PUSH1 0x40 MSTORE DUP1 PUSH1 0x60 DUP2 MSTORE PUSH1 0x20 ADD PUSH0 DUP2 MSTORE PUSH1 0x20 ADD PUSH1 0x60 DUP2 MSTORE PUSH1 0x20 ADD PUSH0 DUP2 MSTORE PUSH1 0x20 ADD PUSH0 ISZERO ISZERO DUP2 MSTORE POP SWAP1 JUMP JUMPDEST PUSH0 PUSH0 REVERT JUMPDEST PUSH0 PUSH0 REVERT JUMPDEST PUSH0 DUP2 SWAP1 POP SWAP2 SWAP1 POP JUMP JUMPDEST PUSH2 0x1724 DUP2 PUSH2 0x1712 JUMP JUMPDEST DUP2 EQ PUSH2 0x172E JUMPI PUSH0 PUSH0 REVERT JUMPDEST POP JUMP JUMPDEST PUSH0 DUP2 CALLDATALOAD SWAP1 POP PUSH2 0x173F DUP2 PUSH2 0x171B JUMP JUMPDEST SWAP3 SWAP2 POP POP JUMP JUMPDEST PUSH0 PUSH0 PUSH1 0x40 DUP4 DUP6 SUB SLT ISZERO PUSH2 0x175B JUMPI PUSH2 0x175A PUSH2 0x170A JUMP JUMPDEST JUMPDEST PUSH0 PUSH2 0x1768 DUP6 DUP3 DUP7 ADD PUSH2 0x1731 JUMP JUMPDEST SWAP3 POP POP PUSH1 0x20 PUSH2 0x1779 DUP6 DUP3 DUP7 ADD PUSH2 0x1731 JUMP JUMPDEST SWAP2 POP POP SWAP3 POP SWAP3 SWAP1 POP JUMP JUMPDEST PUSH0 DUP2 MLOAD SWAP1 POP SWAP2 SWAP1 POP JUMP JUMPDEST PUSH0 DUP3 DUP3 MSTORE PUSH1 0x20 DUP3 ADD SWAP1 POP SWAP3 SWAP2 POP POP JUMP JUMPDEST DUP3 DUP2 DUP4 MCOPY PUSH0 DUP4 DUP4 ADD MSTORE POP POP POP JUMP JUMPDEST PUSH0 PUSH1 0x1F NOT PUSH1 0x1F DUP4 ADD AND SWAP1 POP SWAP2 SWAP1 POP JUMP JUMPDEST PUSH0 PUSH2 0x17C5 DUP3 PUSH2 0x1783 JUMP JUMPDEST PUSH2 0x17CF DUP2 DUP6 PUSH2 0x178D JUMP JUMPDEST SWAP4 POP PUSH2 0x17DF DUP2 DUP6 PUSH1 0x20 DUP7 ADD PUSH2 0x179D JUMP JUMPDEST PUSH2 0x17E8 DUP2 PUSH2 0x17AB JUMP JUMPDEST DUP5 ADD SWAP2 POP POP SWAP3 SWAP2 POP POP JUMP JUMPDEST PUSH0 DUP2 SWAP1 POP SWAP2 SWAP1 POP JUMP JUMPDEST PUSH2 0x1805 DUP2 PUSH2 0x17F3 JUMP JUMPDEST DUP3 MSTORE POP POP JUMP JUMPDEST PUSH2 0x1814 DUP2 PUSH2 0x1712 JUMP JUMPDEST DUP3 MSTORE POP POP JUMP JUMPDEST PUSH0 DUP2 ISZERO ISZERO SWAP1 POP SWAP2 SWAP1 POP JUMP JUMPDEST PUSH2 0x182E DUP2 PUSH2 0x181A JUMP JUMPDEST DUP3 MSTORE POP POP JUMP JUMPDEST PUSH0 PUSH1 0xA0 DUP4 ADD PUSH0 DUP4 ADD MLOAD DUP5 DUP3 SUB PUSH0 DUP7 ADD MSTORE PUSH2 0x184E DUP3 DUP3 PUSH2 0x17BB JUMP JUMPDEST SWAP2 POP POP PUSH1 0x20 DUP4 ADD MLOAD PUSH2 0x1863 PUSH1 0x20 DUP7 ADD DUP3 PUSH2 0x17FC JUMP JUMPDEST POP PUSH1 0x40 DUP4 ADD MLOAD DUP5 DUP3 SUB PUSH1 0x40 DUP7 ADD MSTORE PUSH2 0x187B DUP3 DUP3 PUSH2 0x17BB JUMP JUMPDEST SWAP2 POP POP PUSH1 0x60 DUP4 ADD MLOAD PUSH2 0x1890 PUSH1 0x60 DUP7 ADD DUP3 PUSH2 0x180B JUMP JUMPDEST POP PUSH1 0x80 DUP4 ADD MLOAD PUSH2 0x18A3 PUSH1 0x80 DUP7 ADD DUP3 PUSH2 0x1825 JUMP JUMPDEST POP DUP1 SWAP2 POP POP SWAP3 SWAP2 POP POP JUMP JUMPDEST PUSH0 PUSH1 0x20 DUP3 ADD SWAP1 POP DUP2 DUP2 SUB PUSH0 DUP4 ADD MSTORE PUSH2 0x18C6 DUP2 DUP5 PUSH2 0x1834 JUMP JUMPDEST SWAP1 POP SWAP3 SWAP2 POP POP JUMP JUMPDEST PUSH0 PUSH0 REVERT JUMPDEST PUSH0 PUSH0 REVERT JUMPDEST PUSH0 PUSH0 REVERT JUMPDEST PUSH0 PUSH0 DUP4 PUSH1 0x1F DUP5 ADD SLT PUSH2 0x18EF JUMPI PUSH2 0x18EE PUSH2 0x18CE JUMP JUMPDEST JUMPDEST DUP3 CALLDATALOAD SWAP1 POP PUSH8 0xFFFFFFFFFFFFFFFF DUP2 GT ISZERO PUSH2 0x190C JUMPI PUSH2 0x190B PUSH2 0x18D2 JUMP JUMPDEST JUMPDEST PUSH1 0x20 DUP4 ADD SWAP2 POP DUP4 PUSH1 0x20 DUP3 MUL DUP4 ADD GT ISZERO PUSH2 0x1928 JUMPI PUSH2 0x1927 PUSH2 0x18D6 JUMP JUMPDEST JUMPDEST SWAP3 POP SWAP3 SWAP1 POP JUMP JUMPDEST PUSH0 PUSH20 0xFFFFFFFFFFFFFFFFFFFFFFFFFFFFFFFFFFFFFFFF DUP3 AND SWAP1 POP SWAP2 SWAP1 POP JUMP JUMPDEST PUSH0 PUSH2 0x1958 DUP3 PUSH2 0x192F JUMP JUMPDEST SWAP1 POP SWAP2 SWAP1 POP JUMP JUMPDEST PUSH2 0x1968 DUP2 PUSH2 0x194E JUMP JUMPDEST DUP2 EQ PUSH2 0x1972 JUMPI PUSH0 PUSH0 REVERT JUMPDEST POP JUMP JUMPDEST PUSH0 DUP2 CALLDATALOAD SWAP1 POP PUSH2 0x1983 DUP2 PUSH2 0x195F JUMP JUMPDEST SWAP3 SWAP2 POP POP JUMP JUMPDEST PUSH0 PUSH0 PUSH0 PUSH1 0x40 DUP5 DUP7 SUB SLT ISZERO PUSH2 0x19A0 JUMPI PUSH2 0x199F PUSH2 0x170A JUMP JUMPDEST JUMPDEST PUSH0 DUP5 ADD CALLDATALOAD PUSH8 0xFFFFFFFFFFFFFFFF DUP2 GT ISZERO PUSH2 0x19BD JUMPI PUSH2 0x19BC PUSH2 0x170E JUMP JUMPDEST JUMPDEST PUSH2 0x19C9 DUP7 DUP3 DUP8 ADD PUSH2 0x18DA JUMP JUMPDEST SWAP4 POP SWAP4 POP POP PUSH1 0x20 PUSH2 0x19DC DUP7 DUP3 DUP8 ADD PUSH2 0x1975 JUMP JUMPDEST SWAP2 POP POP SWAP3 POP SWAP3 POP SWAP3 JUMP JUMPDEST PUSH0 PUSH0 DUP4 PUSH1 0x1F DUP5 ADD SLT PUSH2 0x19FB JUMPI PUSH2 0x19FA PUSH2 0x18CE JUMP JUMPDEST JUMPDEST DUP3 CALLDATALOAD SWAP1 POP PUSH8 0xFFFFFFFFFFFFFFFF DUP2 GT ISZERO PUSH2 0x1A18 JUMPI PUSH2 0x1A17 PUSH2 0x18D2 JUMP JUMPDEST JUMPDEST PUSH1 0x20 DUP4 ADD SWAP2 POP DUP4 PUSH1 0x1 DUP3 MUL DUP4 ADD GT ISZERO PUSH2 0x1A34 JUMPI PUSH2 0x1A33 PUSH2 0x18D6 JUMP JUMPDEST JUMPDEST SWAP3 POP SWAP3 SWAP1 POP JUMP JUMPDEST PUSH0 PUSH0 PUSH1 0x20 DUP4 DUP6 SUB SLT ISZERO PUSH2 0x1A51 JUMPI PUSH2 0x1A50 PUSH2 0x170A JUMP JUMPDEST JUMPDEST PUSH0 DUP4 ADD CALLDATALOAD PUSH8 0xFFFFFFFFFFFFFFFF DUP2 GT ISZERO PUSH2 0x1A6E JUMPI PUSH2 0x1A6D PUSH2 0x170E JUMP JUMPDEST JUMPDEST PUSH2 0x1A7A DUP6 DUP3 DUP7 ADD PUSH2 0x19E6 JUMP JUMPDEST SWAP3 POP SWAP3 POP POP SWAP3 POP SWAP3 SWAP1 POP JUMP JUMPDEST PUSH2 0x1A8F DUP2 PUSH2 0x1712 JUMP JUMPDEST DUP3 MSTORE POP POP JUMP JUMPDEST PUSH0 PUSH1 0x20 DUP3 ADD SWAP1 POP PUSH2 0x1AA8 PUSH0 DUP4 ADD DUP5 PUSH2 0x1A86 JUMP JUMPDEST SWAP3 SWAP2 POP POP JUMP JUMPDEST PUSH2 0x1AB7 DUP2 PUSH2 0x17F3 JUMP JUMPDEST DUP2 EQ PUSH2 0x1AC1 JUMPI PUSH0 PUSH0 REVERT JUMPDEST POP JUMP JUMPDEST PUSH0 DUP2 CALLDATALOAD SWAP1 POP PUSH2 0x1AD2 DUP2 PUSH2 0x1AAE JUMP JUMPDEST SWAP3 SWAP2 POP POP JUMP JUMPDEST PUSH0 PUSH0 PUSH1 0x40 DUP4 DUP6 SUB SLT ISZERO PUSH2 0x1AEE JUMPI PUSH2 0x1AED PUSH2 0x170A JUMP JUMPDEST JUMPDEST PUSH0 PUSH2 0x1AFB DUP6 DUP3 DUP7 ADD PUSH2 0x1AC4 JUMP JUMPDEST SWAP3 POP POP PUSH1 0x20 PUSH2 0x1B0C DUP6 DUP3 DUP7 ADD PUSH2 0x1975 JUMP JUMPDEST SWAP2 POP POP SWAP3 POP SWAP3 SWAP1 POP JUMP JUMPDEST PUSH2 0x1B1F DUP2 PUSH2 0x17F3 JUMP JUMPDEST DUP3 MSTORE POP POP JUMP JUMPDEST PUSH0 PUSH1 0x20 DUP3 ADD SWAP1 POP PUSH2 0x1B38 PUSH0 DUP4 ADD DUP5 PUSH2 0x1B16 JUMP JUMPDEST SWAP3 SWAP2 POP POP JUMP JUMPDEST PUSH0 PUSH0 PUSH0 PUSH1 0x60 DUP5 DUP7 SUB SLT ISZERO PUSH2 0x1B55 JUMPI PUSH2 0x1B54 PUSH2 0x170A JUMP JUMPDEST JUMPDEST PUSH0 PUSH2 0x1B62 DUP7 DUP3 DUP8 ADD PUSH2 0x1731 JUMP JUMPDEST SWAP4 POP POP PUSH1 0x20 PUSH2 0x1B73 DUP7 DUP3 DUP8 ADD PUSH2 0x1731 JUMP JUMPDEST SWAP3 POP POP PUSH1 0x40 PUSH2 0x1B84 DUP7 DUP3 DUP8 ADD PUSH2 0x1AC4 JUMP JUMPDEST SWAP2 POP POP SWAP3 POP SWAP3 POP SWAP3 JUMP JUMPDEST PUSH2 0x1B97 DUP2 PUSH2 0x181A JUMP JUMPDEST DUP3 MSTORE POP POP JUMP JUMPDEST PUSH0 DUP3 DUP3 MSTORE PUSH1 0x20 DUP3 ADD SWAP1 POP SWAP3 SWAP2 POP POP JUMP JUMPDEST PUSH0 PUSH2 0x1BB7 DUP3 PUSH2 0x1783 JUMP JUMPDEST PUSH2 0x1BC1 DUP2 DUP6 PUSH2 0x1B9D JUMP JUMPDEST SWAP4 POP PUSH2 0x1BD1 DUP2 DUP6 PUSH1 0x20 DUP7 ADD PUSH2 0x179D JUMP JUMPDEST PUSH2 0x1BDA DUP2 PUSH2 0x17AB JUMP JUMPDEST DUP5 ADD SWAP2 POP POP SWAP3 SWAP2 POP POP JUMP JUMPDEST PUSH0 PUSH1 0x40 DUP3 ADD SWAP1 POP PUSH2 0x1BF8 PUSH0 DUP4 ADD DUP6 PUSH2 0x1B8E JUMP JUMPDEST DUP2 DUP2 SUB PUSH1 0x20 DUP4 ADD MSTORE PUSH2 0x1C0A DUP2 DUP5 PUSH2 0x1BAD JUMP JUMPDEST SWAP1 POP SWAP4 SWAP3 POP POP POP JUMP JUMPDEST PUSH0 PUSH1 0x20 DUP3 DUP5 SUB SLT ISZERO PUSH2 0x1C28 JUMPI PUSH2 0x1C27 PUSH2 0x170A JUMP JUMPDEST JUMPDEST PUSH0 PUSH2 0x1C35 DUP5 DUP3 DUP6 ADD PUSH2 0x1AC4 JUMP JUMPDEST SWAP2 POP POP SWAP3 SWAP2 POP POP JUMP JUMPDEST PUSH0 PUSH1 0x20 DUP3 ADD SWAP1 POP PUSH2 0x1C51 PUSH0 DUP4 ADD DUP5 PUSH2 0x1B8E JUMP JUMPDEST SWAP3 SWAP2 POP POP JUMP JUMPDEST PUSH0 PUSH0 PUSH0 PUSH0 PUSH0 PUSH0 PUSH1 0x80 DUP8 DUP10 SUB SLT ISZERO PUSH2 0x1C71 JUMPI PUSH2 0x1C70 PUSH2 0x170A JUMP JUMPDEST JUMPDEST PUSH0 PUSH2 0x1C7E DUP10 DUP3 DUP11 ADD PUSH2 0x1731 JUMP JUMPDEST SWAP7 POP POP PUSH1 0x20 DUP8 ADD CALLDATALOAD PUSH8 0xFFFFFFFFFFFFFFFF DUP2 GT ISZERO PUSH2 0x1C9F JUMPI PUSH2 0x1C9E PUSH2 0x170E JUMP JUMPDEST JUMPDEST PUSH2 0x1CAB DUP10 DUP3 DUP11 ADD PUSH2 0x19E6 JUMP JUMPDEST SWAP6 POP SWAP6 POP POP PUSH1 0x40 PUSH2 0x1CBE DUP10 DUP3 DUP11 ADD PUSH2 0x1AC4 JUMP JUMPDEST SWAP4 POP POP PUSH1 0x60 DUP8 ADD CALLDATALOAD PUSH8 0xFFFFFFFFFFFFFFFF DUP2 GT ISZERO PUSH2 0x1CDF JUMPI PUSH2 0x1CDE PUSH2 0x170E JUMP JUMPDEST JUMPDEST PUSH2 0x1CEB DUP10 DUP3 DUP11 ADD PUSH2 0x19E6 JUMP JUMPDEST SWAP3 POP SWAP3 POP POP SWAP3 SWAP6 POP SWAP3 SWAP6 POP SWAP3 SWAP6 JUMP JUMPDEST PUSH0 PUSH1 0x20 DUP3 DUP5 SUB SLT ISZERO PUSH2 0x1D0F JUMPI PUSH2 0x1D0E PUSH2 0x170A JUMP JUMPDEST JUMPDEST PUSH0 PUSH2 0x1D1C DUP5 DUP3 DUP6 ADD PUSH2 0x1731 JUMP JUMPDEST SWAP2 POP POP SWAP3 SWAP2 POP POP JUMP JUMPDEST PUSH0 DUP2 MLOAD SWAP1 POP SWAP2 SWAP1 POP JUMP JUMPDEST PUSH0 DUP3 DUP3 MSTORE PUSH1 0x20 DUP3 ADD SWAP1 POP SWAP3 SWAP2 POP POP JUMP JUMPDEST PUSH0 DUP2 SWAP1 POP PUSH1 0x20 DUP3 ADD SWAP1 POP SWAP2 SWAP1 POP JUMP JUMPDEST PUSH0 PUSH1 0xA0 DUP4 ADD PUSH0 DUP4 ADD MLOAD DUP5 DUP3 SUB PUSH0 DUP7 ADD MSTORE PUSH2 0x1D68 DUP3 DUP3 PUSH2 0x17BB JUMP JUMPDEST SWAP2 POP POP PUSH1 0x20 DUP4 ADD MLOAD PUSH2 0x1D7D PUSH1 0x20 DUP7 ADD DUP3 PUSH2 0x17FC JUMP JUMPDEST POP PUSH1 0x40 DUP4 ADD MLOAD DUP5 DUP3 SUB PUSH1 0x40 DUP7 ADD MSTORE PUSH2 0x1D95 DUP3 DUP3 PUSH2 0x17BB JUMP JUMPDEST SWAP2 POP POP PUSH1 0x60 DUP4 ADD MLOAD PUSH2 0x1DAA PUSH1 0x60 DUP7 ADD DUP3 PUSH2 0x180B JUMP JUMPDEST POP PUSH1 0x80 DUP4 ADD MLOAD PUSH2 0x1DBD PUSH1 0x80 DUP7 ADD DUP3 PUSH2 0x1825 JUMP JUMPDEST POP DUP1 SWAP2 POP POP SWAP3 SWAP2 POP POP JUMP JUMPDEST PUSH0 PUSH2 0x1DD3 DUP4 DUP4 PUSH2 0x1D4E JUMP JUMPDEST SWAP1 POP SWAP3 SWAP2 POP POP JUMP JUMPDEST PUSH0 PUSH1 0x20 DUP3 ADD SWAP1 POP SWAP2 SWAP1 POP JUMP JUMPDEST PUSH0 PUSH2 0x1DF1 DUP3 PUSH2 0x1D25 JUMP JUMPDEST PUSH2 0x1DFB DUP2 DUP6 PUSH2 0x1D2F JUMP JUMPDEST SWAP4 POP DUP4 PUSH1 0x20 DUP3 MUL DUP6 ADD PUSH2 0x1E0D DUP6 PUSH2 0x1D3F JUMP JUMPDEST DUP1 PUSH0 JUMPDEST DUP6 DUP2 LT ISZERO PUSH2 0x1E48 JUMPI DUP5 DUP5 SUB DUP10 MSTORE DUP2 MLOAD PUSH2 0x1E29 DUP6 DUP3 PUSH2 0x1DC8 JUMP JUMPDEST SWAP5 POP PUSH2 0x1E34 DUP4 PUSH2 0x1DDB JUMP JUMPDEST SWAP3 POP PUSH1 0x20 DUP11 ADD SWAP10 POP POP PUSH1 0x1 DUP2 ADD SWAP1 POP PUSH2 0x1E10 JUMP JUMPDEST POP DUP3 SWAP8 POP DUP8 SWAP6 POP POP POP POP POP POP SWAP3 SWAP2 POP POP JUMP JUMPDEST PUSH0 PUSH1 0x20 DUP3 ADD SWAP1 POP DUP2 DUP2 SUB PUSH0 DUP4 ADD MSTORE PUSH2 0x1E72 DUP2 DUP5 PUSH2 0x1DE7 JUMP JUMPDEST SWAP1 POP SWAP3 SWAP2 POP POP JUMP JUMPDEST PUSH32 0x4950465356657269666965723A20646F63756D656E7420696E646578206F7574 PUSH0 DUP3 ADD MSTORE PUSH32 0x206F6620626F756E647300000000000000000000000000000000000000000000 PUSH1 0x20 DUP3 ADD MSTORE POP JUMP JUMPDEST PUSH0 PUSH2 0x1ED4 PUSH1 0x2A DUP4 PUSH2 0x1B9D JUMP JUMPDEST SWAP2 POP PUSH2 0x1EDF DUP3 PUSH2 0x1E7A JUMP JUMPDEST PUSH1 0x40 DUP3 ADD SWAP1 POP SWAP2 SWAP1 POP JUMP JUMPDEST PUSH0 PUSH1 0x20 DUP3 ADD SWAP1 POP DUP2 DUP2 SUB PUSH0 DUP4 ADD MSTORE PUSH2 0x1F01 DUP2 PUSH2 0x1EC8 JUMP JUMPDEST SWAP1 POP SWAP2 SWAP1 POP JUMP JUMPDEST PUSH32 0x4E487B7100000000000000000000000000000000000000000000000000000000 PUSH0 MSTORE PUSH1 0x32 PUSH1 0x4 MSTORE PUSH1 0x24 PUSH0 REVERT JUMPDEST PUSH32 0x4E487B7100000000000000000000000000000000000000000000000000000000 PUSH0 MSTORE PUSH1 0x22 PUSH1 0x4 MSTORE PUSH1 0x24 PUSH0 REVERT JUMPDEST PUSH0 PUSH1 0x2 DUP3 DIV SWAP1 POP PUSH1 0x1 DUP3 AND DUP1 PUSH2 0x1F79 JUMPI PUSH1 0x7F DUP3 AND SWAP2 POP JUMPDEST PUSH1 0x20 DUP3 LT DUP2 SUB PUSH2 0x1F8C JUMPI PUSH2 0x1F8B PUSH2 0x1F35 JUMP JUMPDEST JUMPDEST POP SWAP2 SWAP1 POP JUMP JUMPDEST PUSH32 0x526F6C654163636573733A2063616C6C6572206973206E6F742061646D696E00 PUSH0 DUP3 ADD MSTORE POP JUMP JUMPDEST PUSH0 PUSH2 0x1FC6 PUSH1 0x1F DUP4 PUSH2 0x1B9D JUMP JUMPDEST SWAP2 POP PUSH2 0x1FD1 DUP3 PUSH2 0x1F92 JUMP JUMPDEST PUSH1 0x20 DUP3 ADD SWAP1 POP SWAP2 SWAP1 POP JUMP JUMPDEST PUSH0 PUSH1 0x20 DUP3 ADD SWAP1 POP DUP2 DUP2 SUB PUSH0 DUP4 ADD MSTORE PUSH2 0x1FF3 DUP2 PUSH2 0x1FBA JUMP JUMPDEST SWAP1 POP SWAP2 SWAP1 POP JUMP JUMPDEST PUSH0 DUP2 SWAP1 POP SWAP3 SWAP2 POP POP JUMP JUMPDEST DUP3 DUP2 DUP4 CALLDATACOPY PUSH0 DUP4 DUP4 ADD MSTORE POP POP POP JUMP JUMPDEST PUSH0 PUSH2 0x201D DUP4 DUP6 PUSH2 0x1FFA JUMP JUMPDEST SWAP4 POP PUSH2 0x202A DUP4 DUP6 DUP5 PUSH2 0x2004 JUMP JUMPDEST DUP3 DUP5 ADD SWAP1 POP SWAP4 SWAP3 POP POP POP JUMP JUMPDEST PUSH0 PUSH2 0x2042 DUP3 DUP5 DUP7 PUSH2 0x2012 JUMP JUMPDEST SWAP2 POP DUP2 SWAP1 POP SWAP4 SWAP3 POP POP POP JUMP JUMPDEST PUSH32 0x526F6C654163636573733A2063616E6E6F74206772616E7420726F6C6520746F PUSH0 DUP3 ADD MSTORE PUSH32 0x207A65726F206164647265737300000000000000000000000000000000000000 PUSH1 0x20 DUP3 ADD MSTORE POP JUMP JUMPDEST PUSH0 PUSH2 0x20A8 PUSH1 0x2D DUP4 PUSH2 0x1B9D JUMP JUMPDEST SWAP2 POP PUSH2 0x20B3 DUP3 PUSH2 0x204E JUMP JUMPDEST PUSH1 0x40 DUP3 ADD SWAP1 POP SWAP2 SWAP1 POP JUMP JUMPDEST PUSH0 PUSH1 0x20 DUP3 ADD SWAP1 POP DUP2 DUP2 SUB PUSH0 DUP4 ADD MSTORE PUSH2 0x20D5 DUP2 PUSH2 0x209C JUMP JUMPDEST SWAP1 POP SWAP2 SWAP1 POP JUMP JUMPDEST PUSH32 0x526F6C654163636573733A206163636F756E7420616C72656164792068617320 PUSH0 DUP3 ADD MSTORE PUSH32 0x7468697320726F6C650000000000000000000000000000000000000000000000 PUSH1 0x20 DUP3 ADD MSTORE POP JUMP JUMPDEST PUSH0 PUSH2 0x2136 PUSH1 0x29 DUP4 PUSH2 0x1B9D JUMP JUMPDEST SWAP2 POP PUSH2 0x2141 DUP3 PUSH2 0x20DC JUMP JUMPDEST PUSH1 0x40 DUP3 ADD SWAP1 POP SWAP2 SWAP1 POP JUMP JUMPDEST PUSH0 PUSH1 0x20 DUP3 ADD SWAP1 POP DUP2 DUP2 SUB PUSH0 DUP4 ADD MSTORE PUSH2 0x2163 DUP2 PUSH2 0x212A JUMP JUMPDEST SWAP1 POP SWAP2 SWAP1 POP JUMP JUMPDEST PUSH2 0x2173 DUP2 PUSH2 0x194E JUMP JUMPDEST DUP3 MSTORE POP POP JUMP JUMPDEST PUSH0 PUSH1 0x60 DUP3 ADD SWAP1 POP PUSH2 0x218C PUSH0 DUP4 ADD DUP7 PUSH2 0x1B16 JUMP JUMPDEST PUSH2 0x2199 PUSH1 0x20 DUP4 ADD DUP6 PUSH2 0x1B8E JUMP JUMPDEST PUSH2 0x21A6 PUSH1 0x40 DUP4 ADD DUP5 PUSH2 0x216A JUMP JUMPDEST SWAP5 SWAP4 POP POP POP POP JUMP JUMPDEST PUSH32 0x526F6C654163636573733A2063616C6C657220646F6573206E6F742068617665 PUSH0 DUP3 ADD MSTORE PUSH32 0x207468697320726F6C6500000000000000000000000000000000000000000000 PUSH1 0x20 DUP3 ADD MSTORE POP JUMP JUMPDEST PUSH0 PUSH2 0x2208 PUSH1 0x2A DUP4 PUSH2 0x1B9D JUMP JUMPDEST SWAP2 POP PUSH2 0x2213 DUP3 PUSH2 0x21AE JUMP JUMPDEST PUSH1 0x40 DUP3 ADD SWAP1 POP SWAP2 SWAP1 POP JUMP JUMPDEST PUSH0 PUSH1 0x20 DUP3 ADD SWAP1 POP DUP2 DUP2 SUB PUSH0 DUP4 ADD MSTORE PUSH2 0x2235 DUP2 PUSH2 0x21FC JUMP JUMPDEST SWAP1 POP SWAP2 SWAP1 POP JUMP JUMPDEST PUSH32 0x526F6C654163636573733A2063616C6C657220646F6573206E6F742068617665 PUSH0 DUP3 ADD MSTORE PUSH32 0x20726571756972656420726F6C65000000000000000000000000000000000000 PUSH1 0x20 DUP3 ADD MSTORE POP JUMP JUMPDEST PUSH0 PUSH2 0x2296 PUSH1 0x2E DUP4 PUSH2 0x1B9D JUMP JUMPDEST SWAP2 POP PUSH2 0x22A1 DUP3 PUSH2 0x223C JUMP JUMPDEST PUSH1 0x40 DUP3 ADD SWAP1 POP SWAP2 SWAP1 POP JUMP JUMPDEST PUSH0 PUSH1 0x20 DUP3 ADD SWAP1 POP DUP2 DUP2 SUB PUSH0 DUP4 ADD MSTORE PUSH2 0x22C3 DUP2 PUSH2 0x228A JUMP JUMPDEST SWAP1 POP SWAP2 SWAP1 POP JUMP JUMPDEST PUSH32 0x4950465356657269666965723A204349442063616E6E6F7420626520656D7074 PUSH0 DUP3 ADD MSTORE PUSH32 0x7900000000000000000000000000000000000000000000000000000000000000 PUSH1 0x20 DUP3 ADD MSTORE POP JUMP JUMPDEST PUSH0 PUSH2 0x2324 PUSH1 0x21 DUP4 PUSH2 0x1B9D JUMP JUMPDEST SWAP2 POP PUSH2 0x232F DUP3 PUSH2 0x22CA JUMP JUMPDEST PUSH1 0x40 DUP3 ADD SWAP1 POP SWAP2 SWAP1 POP JUMP JUMPDEST PUSH0 PUSH1 0x20 DUP3 ADD SWAP1 POP DUP2 DUP2 SUB PUSH0 DUP4 ADD MSTORE PUSH2 0x2351 DUP2 PUSH2 0x2318 JUMP JUMPDEST SWAP1 POP SWAP2 SWAP1 POP JUMP JUMPDEST PUSH32 0x4950465356657269666965723A20686173682063616E6E6F74206265207A6572 PUSH0 DUP3 ADD MSTORE PUSH32 0x6F00000000000000000000000000000000000000000000000000000000000000 PUSH1 0x20 DUP3 ADD MSTORE POP JUMP JUMPDEST PUSH0 PUSH2 0x23B2 PUSH1 0x21 DUP4 PUSH2 0x1B9D JUMP JUMPDEST SWAP2 POP PUSH2 0x23BD DUP3 PUSH2 0x2358 JUMP JUMPDEST PUSH1 0x40 DUP3 ADD SWAP1 POP SWAP2 SWAP1 POP JUMP JUMPDEST PUSH0 PUSH1 0x20 DUP3 ADD SWAP1 POP DUP2 DUP2 SUB PUSH0 DUP4 ADD MSTORE PUSH2 0x23DF DUP2 PUSH2 0x23A6 JUMP JUMPDEST SWAP1 POP SWAP2 SWAP1 POP JUMP JUMPDEST PUSH32 0x4950465356657269666965723A20646F63547970652063616E6E6F7420626520 PUSH0 DUP3 ADD MSTORE PUSH32 0x656D707479000000000000000000000000000000000000000000000000000000 PUSH1 0x20 DUP3 ADD MSTORE POP JUMP JUMPDEST PUSH0 PUSH2 0x2440 PUSH1 0x25 DUP4 PUSH2 0x1B9D JUMP JUMPDEST SWAP2 POP PUSH2 0x244B DUP3 PUSH2 0x23E6 JUMP JUMPDEST PUSH1 0x40 DUP3 ADD SWAP1 POP SWAP2 SWAP1 POP JUMP JUMPDEST PUSH0 PUSH1 0x20 DUP3 ADD SWAP1 POP DUP2 DUP2 SUB PUSH0 DUP4 ADD MSTORE PUSH2 0x246D DUP2 PUSH2 0x2434 JUMP JUMPDEST SWAP1 POP SWAP2 SWAP1 POP JUMP JUMPDEST PUSH32 0x4950465356657269666965723A2043494420616C726561647920616E63686F72 PUSH0 DUP3 ADD MSTORE PUSH32 0x6564000000000000000000000000000000000000000000000000000000000000 PUSH1 0x20 DUP3 ADD MSTORE POP JUMP JUMPDEST PUSH0 PUSH2 0x24CE PUSH1 0x22 DUP4 PUSH2 0x1B9D JUMP JUMPDEST SWAP2 POP PUSH2 0x24D9 DUP3 PUSH2 0x2474 JUMP JUMPDEST PUSH1 0x40 DUP3 ADD SWAP1 POP SWAP2 SWAP1 POP JUMP JUMPDEST PUSH0 PUSH1 0x20 DUP3 ADD SWAP1 POP DUP2 DUP2 SUB PUSH0 DUP4 ADD MSTORE PUSH2 0x24FB DUP2 PUSH2 0x24C2 JUMP JUMPDEST SWAP1 POP SWAP2 SWAP1 POP JUMP JUMPDEST PUSH32 0x4E487B7100000000000000000000000000000000000000000000000000000000 PUSH0 MSTORE PUSH1 0x41 PUSH1 0x4 MSTORE PUSH1 0x24 PUSH0 REVERT JUMPDEST PUSH0 DUP2 SWAP1 POP DUP2 PUSH0 MSTORE PUSH1 0x20 PUSH0 KECCAK256 SWAP1 POP SWAP2 SWAP1 POP JUMP JUMPDEST PUSH0 PUSH1 0x20 PUSH1 0x1F DUP4 ADD DIV SWAP1 POP SWAP2 SWAP1 POP JUMP JUMPDEST PUSH0 DUP3 DUP3 SHL SWAP1 POP SWAP3 SWAP2 POP POP JUMP JUMPDEST PUSH0 PUSH1 0x8 DUP4 MUL PUSH2 0x258B PUSH32 0xFFFFFFFFFFFFFFFFFFFFFFFFFFFFFFFFFFFFFFFFFFFFFFFFFFFFFFFFFFFFFFFF DUP3 PUSH2 0x2550 JUMP JUMPDEST PUSH2 0x2595 DUP7 DUP4 PUSH2 0x2550 JUMP JUMPDEST SWAP6 POP DUP1 NOT DUP5 AND SWAP4 POP DUP1 DUP7 AND DUP5 OR SWAP3 POP POP POP SWAP4 SWAP3 POP POP POP JUMP JUMPDEST PUSH0 DUP2 SWAP1 POP SWAP2 SWAP1 POP JUMP JUMPDEST PUSH0 PUSH2 0x25D0 PUSH2 0x25CB PUSH2 0x25C6 DUP5 PUSH2 0x1712 JUMP JUMPDEST PUSH2 0x25AD JUMP JUMPDEST PUSH2 0x1712 JUMP JUMPDEST SWAP1 POP SWAP2 SWAP1 POP JUMP JUMPDEST PUSH0 DUP2 SWAP1 POP SWAP2 SWAP1 POP JUMP JUMPDEST PUSH2 0x25E9 DUP4 PUSH2 0x25B6 JUMP JUMPDEST PUSH2 0x25FD PUSH2 0x25F5 DUP3 PUSH2 0x25D7 JUMP JUMPDEST DUP5 DUP5 SLOAD PUSH2 0x255C JUMP JUMPDEST DUP3 SSTORE POP POP POP POP JUMP JUMPDEST PUSH0 PUSH0 SWAP1 POP SWAP1 JUMP JUMPDEST PUSH2 0x2614 PUSH2 0x2605 JUMP JUMPDEST PUSH2 0x261F DUP2 DUP5 DUP5 PUSH2 0x25E0 JUMP JUMPDEST POP POP POP JUMP JUMPDEST JUMPDEST DUP2 DUP2 LT ISZERO PUSH2 0x2642 JUMPI PUSH2 0x2637 PUSH0 DUP3 PUSH2 0x260C JUMP JUMPDEST PUSH1 0x1 DUP2 ADD SWAP1 POP PUSH2 0x2625 JUMP JUMPDEST POP POP JUMP JUMPDEST PUSH1 0x1F DUP3 GT ISZERO PUSH2 0x2687 JUMPI PUSH2 0x2658 DUP2 PUSH2 0x252F JUMP JUMPDEST PUSH2 0x2661 DUP5 PUSH2 0x2541 JUMP JUMPDEST DUP2 ADD PUSH1 0x20 DUP6 LT ISZERO PUSH2 0x2670 JUMPI DUP2 SWAP1 POP JUMPDEST PUSH2 0x2684 PUSH2 0x267C DUP6 PUSH2 0x2541 JUMP JUMPDEST DUP4 ADD DUP3 PUSH2 0x2624 JUMP JUMPDEST POP POP JUMPDEST POP POP POP JUMP JUMPDEST PUSH0 DUP3 DUP3 SHR SWAP1 POP SWAP3 SWAP2 POP POP JUMP JUMPDEST PUSH0 PUSH2 0x26A7 PUSH0 NOT DUP5 PUSH1 0x8 MUL PUSH2 0x268C JUMP JUMPDEST NOT DUP1 DUP4 AND SWAP2 POP POP SWAP3 SWAP2 POP POP JUMP JUMPDEST PUSH0 PUSH2 0x26BF DUP4 DUP4 PUSH2 0x2698 JUMP JUMPDEST SWAP2 POP DUP3 PUSH1 0x2 MUL DUP3 OR SWAP1 POP SWAP3 SWAP2 POP POP JUMP JUMPDEST PUSH2 0x26D8 DUP3 PUSH2 0x1783 JUMP JUMPDEST PUSH8 0xFFFFFFFFFFFFFFFF DUP2 GT ISZERO PUSH2 0x26F1 JUMPI PUSH2 0x26F0 PUSH2 0x2502 JUMP JUMPDEST JUMPDEST PUSH2 0x26FB DUP3 SLOAD PUSH2 0x1F62 JUMP JUMPDEST PUSH2 0x2706 DUP3 DUP3 DUP6 PUSH2 0x2646 JUMP JUMPDEST PUSH0 PUSH1 0x20 SWAP1 POP PUSH1 0x1F DUP4 GT PUSH1 0x1 DUP2 EQ PUSH2 0x2737 JUMPI PUSH0 DUP5 ISZERO PUSH2 0x2725 JUMPI DUP3 DUP8 ADD MLOAD SWAP1 POP JUMPDEST PUSH2 0x272F DUP6 DUP3 PUSH2 0x26B4 JUMP JUMPDEST DUP7 SSTORE POP PUSH2 0x2796 JUMP JUMPDEST PUSH1 0x1F NOT DUP5 AND PUSH2 0x2745 DUP7 PUSH2 0x252F JUMP JUMPDEST PUSH0 JUMPDEST DUP3 DUP2 LT ISZERO PUSH2 0x276C JUMPI DUP5 DUP10 ADD MLOAD DUP3 SSTORE PUSH1 0x1 DUP3 ADD SWAP2 POP PUSH1 0x20 DUP6 ADD SWAP5 POP PUSH1 0x20 DUP2 ADD SWAP1 POP PUSH2 0x2747 JUMP JUMPDEST DUP7 DUP4 LT ISZERO PUSH2 0x2789 JUMPI DUP5 DUP10 ADD MLOAD PUSH2 0x2785 PUSH1 0x1F DUP10 AND DUP3 PUSH2 0x2698 JUMP JUMPDEST DUP4 SSTORE POP JUMPDEST PUSH1 0x1 PUSH1 0x2 DUP9 MUL ADD DUP9 SSTORE POP POP POP JUMPDEST POP POP POP POP POP POP JUMP JUMPDEST PUSH0 PUSH2 0x27A9 DUP4 DUP6 PUSH2 0x1B9D JUMP JUMPDEST SWAP4 POP PUSH2 0x27B6 DUP4 DUP6 DUP5 PUSH2 0x2004 JUMP JUMPDEST PUSH2 0x27BF DUP4 PUSH2 0x17AB JUMP JUMPDEST DUP5 ADD SWAP1 POP SWAP4 SWAP3 POP POP POP JUMP JUMPDEST PUSH0 PUSH1 0x80 DUP3 ADD SWAP1 POP DUP2 DUP2 SUB PUSH0 DUP4 ADD MSTORE PUSH2 0x27E3 DUP2 DUP9 DUP11 PUSH2 0x279E JUMP JUMPDEST SWAP1 POP PUSH2 0x27F2 PUSH1 0x20 DUP4 ADD DUP8 PUSH2 0x1B16 JUMP JUMPDEST DUP2 DUP2 SUB PUSH1 0x40 DUP4 ADD MSTORE PUSH2 0x2805 DUP2 DUP6 DUP8 PUSH2 0x279E JUMP JUMPDEST SWAP1 POP PUSH2 0x2814 PUSH1 0x60 DUP4 ADD DUP5 PUSH2 0x1A86 JUMP JUMPDEST SWAP8 SWAP7 POP POP POP POP POP POP POP JUMP JUMPDEST PUSH32 0x526F6C654163636573733A206163636F756E7420646F6573206E6F7420686176 PUSH0 DUP3 ADD MSTORE PUSH32 0x65207468697320726F6C65000000000000000000000000000000000000000000 PUSH1 0x20 DUP3 ADD MSTORE POP JUMP JUMPDEST PUSH0 PUSH2 0x2879 PUSH1 0x2B DUP4 PUSH2 0x1B9D JUMP JUMPDEST SWAP2 POP PUSH2 0x2884 DUP3 PUSH2 0x281F JUMP JUMPDEST PUSH1 0x40 DUP3 ADD SWAP1 POP SWAP2 SWAP1 POP JUMP JUMPDEST PUSH0 PUSH1 0x20 DUP3 ADD SWAP1 POP DUP2 DUP2 SUB PUSH0 DUP4 ADD MSTORE PUSH2 0x28A6 DUP2 PUSH2 0x286D JUMP JUMPDEST SWAP1 POP SWAP2 SWAP1 POP JUMP INVALID LOG2 PUSH5 0x6970667358 0x22 SLT KECCAK256 0xAC 0x2C DUP6 SHL 0xBD SWAP7 PUSH12 0xAC4912AB777DF2B321F582A4 0xBF 0x2A SWAP1 BLOCKHASH SWAP5 PUSH3 0xDE6AFF TLOAD GAS PUSH1 0xD PUSH5 0x736F6C6343 STOP ADDMOD 0x1F STOP CALLER "
				},
				"gasEstimates": {
					"creation": {
						"codeDepositCost": "2093400",
						"executionCost": "28576",
						"totalCost": "2121976"
					},
					"external": {
						"APPROVER_ROLE()": "370",
						"AUDITOR_ROLE()": "436",
						"DEFAULT_ADMIN_ROLE()": "369",
						"LOGGER_ROLE()": "348",
						"REGISTRY_ROLE()": "392",
						"REVIEWER_ROLE()": "348",
						"TREASURY_ROLE()": "391",
						"anchorDocument(uint256,string,bytes32,string)": "infinite",
						"documentCount(uint256)": "infinite",
						"getAppIdByCID(string)": "infinite",
						"getDocument(uint256,uint256)": "infinite",
						"getDocumentManifest(uint256)": "infinite",
						"grantMultipleRoles(bytes32[],address)": "infinite",
						"grantRole(bytes32,address)": "31726",
						"hasRole(bytes32,address)": "3182",
						"renounceRole(bytes32)": "29108",
						"revokeRole(bytes32,address)": "31686",
						"verifyDocument(uint256,uint256,bytes32)": "infinite"
					}
				},
				"methodIdentifiers": {
					"APPROVER_ROLE()": "4245962b",
					"AUDITOR_ROLE()": "6e1d616e",
					"DEFAULT_ADMIN_ROLE()": "a217fddf",
					"LOGGER_ROLE()": "7bf0fbde",
					"REGISTRY_ROLE()": "42f1e879",
					"REVIEWER_ROLE()": "3b129a56",
					"TREASURY_ROLE()": "d11a57ec",
					"anchorDocument(uint256,string,bytes32,string)": "9baa4b71",
					"documentCount(uint256)": "dfbfb6c4",
					"getAppIdByCID(string)": "1b1aa49a",
					"getDocument(uint256,uint256)": "0f53ce01",
					"getDocumentManifest(uint256)": "9dd0c51b",
					"grantMultipleRoles(bytes32[],address)": "18989def",
					"grantRole(bytes32,address)": "2f2ff15d",
					"hasRole(bytes32,address)": "91d14854",
					"renounceRole(bytes32)": "8bb9c5bf",
					"revokeRole(bytes32,address)": "d547741f",
					"verifyDocument(uint256,uint256,bytes32)": "56fb4636"
				}
			},
			"storageLayout": {
				"storage": [
					{
						"astId": 302,
						"contract": "IPFSVerifier.sol:IPFSVerifier",
						"label": "_roles",
						"offset": 0,
						"slot": "0",
						"type": "t_mapping(t_bytes32,t_mapping(t_address,t_bool))"
					},
					{
						"astId": 21,
						"contract": "IPFSVerifier.sol:IPFSVerifier",
						"label": "documents",
						"offset": 0,
						"slot": "1",
						"type": "t_mapping(t_uint256,t_array(t_struct(DocumentRecord)15_storage)dyn_storage)"
					},
					{
						"astId": 25,
						"contract": "IPFSVerifier.sol:IPFSVerifier",
						"label": "cidToAppId",
						"offset": 0,
						"slot": "2",
						"type": "t_mapping(t_string_memory_ptr,t_uint256)"
					}
				],
				"types": {
					"t_address": {
						"encoding": "inplace",
						"label": "address",
						"numberOfBytes": "20"
					},
					"t_array(t_struct(DocumentRecord)15_storage)dyn_storage": {
						"base": "t_struct(DocumentRecord)15_storage",
						"encoding": "dynamic_array",
						"label": "struct IPFSVerifier.DocumentRecord[]",
						"numberOfBytes": "32"
					},
					"t_bool": {
						"encoding": "inplace",
						"label": "bool",
						"numberOfBytes": "1"
					},
					"t_bytes32": {
						"encoding": "inplace",
						"label": "bytes32",
						"numberOfBytes": "32"
					},
					"t_mapping(t_address,t_bool)": {
						"encoding": "mapping",
						"key": "t_address",
						"label": "mapping(address => bool)",
						"numberOfBytes": "32",
						"value": "t_bool"
					},
					"t_mapping(t_bytes32,t_mapping(t_address,t_bool))": {
						"encoding": "mapping",
						"key": "t_bytes32",
						"label": "mapping(bytes32 => mapping(address => bool))",
						"numberOfBytes": "32",
						"value": "t_mapping(t_address,t_bool)"
					},
					"t_mapping(t_string_memory_ptr,t_uint256)": {
						"encoding": "mapping",
						"key": "t_string_memory_ptr",
						"label": "mapping(string => uint256)",
						"numberOfBytes": "32",
						"value": "t_uint256"
					},
					"t_mapping(t_uint256,t_array(t_struct(DocumentRecord)15_storage)dyn_storage)": {
						"encoding": "mapping",
						"key": "t_uint256",
						"label": "mapping(uint256 => struct IPFSVerifier.DocumentRecord[])",
						"numberOfBytes": "32",
						"value": "t_array(t_struct(DocumentRecord)15_storage)dyn_storage"
					},
					"t_string_memory_ptr": {
						"encoding": "bytes",
						"label": "string",
						"numberOfBytes": "32"
					},
					"t_string_storage": {
						"encoding": "bytes",
						"label": "string",
						"numberOfBytes": "32"
					},
					"t_struct(DocumentRecord)15_storage": {
						"encoding": "inplace",
						"label": "struct IPFSVerifier.DocumentRecord",
						"members": [
							{
								"astId": 6,
								"contract": "IPFSVerifier.sol:IPFSVerifier",
								"label": "ipfsCID",
								"offset": 0,
								"slot": "0",
								"type": "t_string_storage"
							},
							{
								"astId": 8,
								"contract": "IPFSVerifier.sol:IPFSVerifier",
								"label": "sha256Hash",
								"offset": 0,
								"slot": "1",
								"type": "t_bytes32"
							},
							{
								"astId": 10,
								"contract": "IPFSVerifier.sol:IPFSVerifier",
								"label": "docType",
								"offset": 0,
								"slot": "2",
								"type": "t_string_storage"
							},
							{
								"astId": 12,
								"contract": "IPFSVerifier.sol:IPFSVerifier",
								"label": "anchoredAt",
								"offset": 0,
								"slot": "3",
								"type": "t_uint256"
							},
							{
								"astId": 14,
								"contract": "IPFSVerifier.sol:IPFSVerifier",
								"label": "exists",
								"offset": 0,
								"slot": "4",
								"type": "t_bool"
							}
						],
						"numberOfBytes": "160"
					},
					"t_uint256": {
						"encoding": "inplace",
						"label": "uint256",
						"numberOfBytes": "32"
					}
				}
			},
			"userdoc": {
				"kind": "user",
				"methods": {
					"anchorDocument(uint256,string,bytes32,string)": {
						"notice": "Anchor an IPFS CID to a specific application on-chain"
					},
					"documentCount(uint256)": {
						"notice": "Get total documents submitted for an application"
					},
					"getAppIdByCID(string)": {
						"notice": "Find which application a CID belongs to (reverse lookup)"
					},
					"getDocument(uint256,uint256)": {
						"notice": "Get a specific document record"
					},
					"getDocumentManifest(uint256)": {
						"notice": "Get all document records for an application"
					},
					"grantMultipleRoles(bytes32[],address)": {
						"notice": "Convenience: grant multiple roles to one account (admin only)"
					},
					"grantRole(bytes32,address)": {
						"notice": "Grant a role to an account (admin only)"
					},
					"hasRole(bytes32,address)": {
						"notice": "Check if an account has a specific role"
					},
					"renounceRole(bytes32)": {
						"notice": "An account can voluntarily renounce their own role"
					},
					"revokeRole(bytes32,address)": {
						"notice": "Revoke a role from an account (admin only)"
					},
					"verifyDocument(uint256,uint256,bytes32)": {
						"notice": "Verify a document's integrity by comparing hash to stored hash"
					}
				},
				"version": 1
			}
		}
	}
}