{
	"SchemeConfig.sol": {
		"SchemeConfig": {
			"abi": [
				{
					"inputs": [],
					"stateMutability": "nonpayable",
					"type": "constructor"
				},
				{
					"anonymous": false,
					"inputs": [
						{
							"indexed": true,
							"internalType": "bytes32",
							"name": "role",
							"type": "bytes32"
						},
						{
							"indexed": true,
							"internalType": "address",
							"name": "account",
							"type": "address"
						},
						{
							"indexed": true,
							"internalType": "address",
							"name": "sender",
							"type": "address"
						}
					],
					"name": "RoleGranted",
					"type": "event"
				},
				{
					"anonymous": false,
					"inputs": [
						{
							"indexed": true,
							"internalType": "bytes32",
							"name": "role",
							"type": "bytes32"
						},
						{
							"indexed": true,
							"internalType": "address",
							"name": "account",
							"type": "address"
						},
						{
							"indexed": true,
							"internalType": "address",
							"name": "sender",
							"type": "address"
						}
					],
					"name": "RoleRevoked",
					"type": "event"
				},
				{
					"anonymous": false,
					"inputs": [
						{
							"indexed": true,
							"internalType": "uint256",
							"name": "schemeId",
							"type": "uint256"
						},
						{
							"indexed": false,
							"internalType": "string",
							"name": "name",
							"type": "string"
						},
						{
							"indexed": false,
							"internalType": "uint256",
							"name": "monthlyAmount",
							"type": "uint256"
						},
						{
							"indexed": false,
							"internalType": "address",
							"name": "by",
							"type": "address"
						}
					],
					"name": "SchemeAdded",
					"type": "event"
				},
				{
					"anonymous": false,
					"inputs": [
						{
							"indexed": true,
							"internalType": "uint256",
							"name": "schemeId",
							"type": "uint256"
						},
						{
							"indexed": false,
							"internalType": "bool",
							"name": "active",
							"type": "bool"
						},
						{
							"indexed": false,
							"internalType": "address",
							"name": "by",
							"type": "address"
						}
					],
					"name": "SchemeToggled",
					"type": "event"
				},
				{
					"anonymous": false,
					"inputs": [
						{
							"indexed": true,
							"internalType": "uint256",
							"name": "schemeId",
							"type": "uint256"
						},
						{
							"indexed": false,
							"internalType": "string",
							"name": "name",
							"type": "string"
						},
						{
							"indexed": false,
							"internalType": "address",
							"name": "by",
							"type": "address"
						}
					],
					"name": "SchemeUpdated",
					"type": "event"
				},
				{
					"inputs": [],
					"name": "APPROVER_ROLE",
					"outputs": [
						{
							"internalType": "bytes32",
							"name": "",
							"type": "bytes32"
						}
					],
					"stateMutability": "view",
					"type": "function"
				},
				{
					"inputs": [],
					"name": "AUDITOR_ROLE",
					"outputs": [
						{
							"internalType": "bytes32",
							"name": "",
							"type": "bytes32"
						}
					],
					"stateMutability": "view",
					"type": "function"
				},
				{
					"inputs": [],
					"name": "DEFAULT_ADMIN_ROLE",
					"outputs": [
						{
							"internalType": "bytes32",
							"name": "",
							"type": "bytes32"
						}
					],
					"stateMutability": "view",
					"type": "function"
				},
				{
					"inputs": [],
					"name": "LOGGER_ROLE",
					"outputs": [
						{
							"internalType": "bytes32",
							"name": "",
							"type": "bytes32"
						}
					],
					"stateMutability": "view",
					"type": "function"
				},
				{
					"inputs": [],
					"name": "REGISTRY_ROLE",
					"outputs": [
						{
							"internalType": "bytes32",
							"name": "",
							"type": "bytes32"
						}
					],
					"stateMutability": "view",
					"type": "function"
				},
				{
					"inputs": [],
					"name": "REVIEWER_ROLE",
					"outputs": [
						{
							"internalType": "bytes32",
							"name": "",
							"type": "bytes32"
						}
					],
					"stateMutability": "view",
					"type": "function"
				},
				{
					"inputs": [],
					"name": "TREASURY_ROLE",
					"outputs": [
						{
							"internalType": "bytes32",
							"name": "",
							"type": "bytes32"
						}
					],
					"stateMutability": "view",
					"type": "function"
				},
				{
					"inputs": [
						{
							"internalType": "string",
							"name": "name",
							"type": "string"
						},
						{
							"internalType": "uint256",
							"name": "monthlyAmount",
							"type": "uint256"
						},
						{
							"internalType": "uint256",
							"name": "minAge",
							"type": "uint256"
						},
						{
							"internalType": "uint256",
							"name": "maxAge",
							"type": "uint256"
						},
						{
							"internalType": "uint256",
							"name": "maxDays",
							"type": "uint256"
						}
					],
					"name": "addScheme",
					"outputs": [
						{
							"internalType": "uint256",
							"name": "schemeId",
							"type": "uint256"
						}
					],
					"stateMutability": "nonpayable",
					"type": "function"
				},
				{
					"inputs": [],
					"name": "getAllSchemeIds",
					"outputs": [
						{
							"internalType": "uint256[]",
							"name": "",
							"type": "uint256[]"
						}
					],
					"stateMutability": "view",
					"type": "function"
				},
				{
					"inputs": [
						{
							"internalType": "uint256",
							"name": "schemeId",
							"type": "uint256"
						}
					],
					"name": "getMonthlyAmount",
					"outputs": [
						{
							"internalType": "uint256",
							"name": "",
							"type": "uint256"
						}
					],
					"stateMutability": "view",
					"type": "function"
				},
				{
					"inputs": [
						{
							"internalType": "uint256",
							"name": "schemeId",
							"type": "uint256"
						}
					],
					"name": "getScheme",
					"outputs": [
						{
							"components": [
								{
									"internalType": "uint256",
									"name": "schemeId",
									"type": "uint256"
								},
								{
									"internalType": "string",
									"name": "name",
									"type": "string"
								},
								{
									"internalType": "uint256",
									"name": "monthlyAmount",
									"type": "uint256"
								},
								{
									"internalType": "uint256",
									"name": "minAgeLimit",
									"type": "uint256"
								},
								{
									"internalType": "uint256",
									"name": "maxAgeLimit",
									"type": "uint256"
								},
								{
									"internalType": "uint256",
									"name": "maxProcessingDays",
									"type": "uint256"
								},
								{
									"internalType": "bool",
									"name": "active",
									"type": "bool"
								},
								{
									"internalType": "uint256",
									"name": "createdAt",
									"type": "uint256"
								},
								{
									"internalType": "uint256",
									"name": "updatedAt",
									"type": "uint256"
								}
							],
							"internalType": "struct SchemeConfig.Scheme",
							"name": "",
							"type": "tuple"
						}
					],
					"stateMutability": "view",
					"type": "function"
				},
				{
					"inputs": [
						{
							"internalType": "bytes32[]",
							"name": "roles",
							"type": "bytes32[]"
						},
						{
							"internalType": "address",
							"name": "account",
							"type": "address"
						}
					],
					"name": "grantMultipleRoles",
					"outputs": [],
					"stateMutability": "nonpayable",
					"type": "function"
				},
				{
					"inputs": [
						{
							"internalType": "bytes32",
							"name": "role",
							"type": "bytes32"
						},
						{
							"internalType": "address",
							"name": "account",
							"type": "address"
						}
					],
					"name": "grantRole",
					"outputs": [],
					"stateMutability": "nonpayable",
					"type": "function"
				},
				{
					"inputs": [
						{
							"internalType": "bytes32",
							"name": "role",
							"type": "bytes32"
						},
						{
							"internalType": "address",
							"name": "account",
							"type": "address"
						}
					],
					"name": "hasRole",
					"outputs": [
						{
							"internalType": "bool",
							"name": "",
							"type": "bool"
						}
					],
					"stateMutability": "view",
					"type": "function"
				},
				{
					"inputs": [
						{
							"internalType": "uint256",
							"name": "schemeId",
							"type": "uint256"
						}
					],
					"name": "isSchemeActive",
					"outputs": [
						{
							"internalType": "bool",
							"name": "",
							"type": "bool"
						}
					],
					"stateMutability": "view",
					"type": "function"
				},
				{
					"inputs": [
						{
							"internalType": "bytes32",
							"name": "role",
							"type": "bytes32"
						}
					],
					"name": "renounceRole",
					"outputs": [],
					"stateMutability": "nonpayable",
					"type": "function"
				},
				{
					"inputs": [
						{
							"internalType": "bytes32",
							"name": "role",
							"type": "bytes32"
						},
						{
							"internalType": "address",
							"name": "account",
							"type": "address"
						}
					],
					"name": "revokeRole",
					"outputs": [],
					"stateMutability": "nonpayable",
					"type": "function"
				},
				{
					"inputs": [
						{
							"internalType": "uint256",
							"name": "",
							"type": "uint256"
						}
					],
					"name": "schemeIds",
					"outputs": [
						{
							"internalType": "uint256",
							"name": "",
							"type": "uint256"
						}
					],
					"stateMutability": "view",
					"type": "function"
				},
				{
					"inputs": [
						{
							"internalType": "uint256",
							"name": "schemeId",
							"type": "uint256"
						}
					],
					"name": "toggleScheme",
					"outputs": [],
					"stateMutability": "nonpayable",
					"type": "function"
				},
				{
					"inputs": [],
					"name": "totalSchemes",
					"outputs": [
						{
							"internalType": "uint256",
							"name": "",
							"type": "uint256"
						}
					],
					"stateMutability": "view",
					"type": "function"
				},
				{
					"inputs": [
						{
							"internalType": "uint256",
							"name": "schemeId",
							"type": "uint256"
						},
						{
							"internalType": "string",
							"name": "name",
							"type": "string"
						},
						{
							"internalType": "uint256",
							"name": "monthlyAmount",
							"type": "uint256"
						},
						{
							"internalType": "uint256",
							"name": "minAge",
							"type": "uint256"
						},
						{
							"internalType": "uint256",
							"name": "maxAge",
							"type": "uint256"
						},
						{
							"internalType": "uint256",
							"name": "maxDays",
							"type": "uint256"
						}
					],
					"name": "updateScheme",
					"outputs": [],
					"stateMutability": "nonpayable",
					"type": "function"
				}
			],
			"devdoc": {
				"kind": "dev",
				"methods": {},
				"version": 1
			},
			"evm": {
				"assembly": "    /* \"SchemeConfig.sol\":404:6479  contract SchemeConfig is RoleAccess {... */\n  mstore(0x40, 0x80)\n    /* \"SchemeConfig.sol\":1539:1540  1 */\n  0x01\n    /* \"SchemeConfig.sol\":1508:1540  uint256 private nextSchemeId = 1 */\n  0x03\n  sstore\n    /* \"SchemeConfig.sol\":2119:2510  constructor() {... */\n  callvalue\n  dup1\n  iszero\n  tag_1\n  jumpi\n  revert(0x00, 0x00)\ntag_1:\n  pop\n    /* \"RoleAccess.sol\":2003:2007  true */\n  0x01\n    /* \"RoleAccess.sol\":1962:1968  _roles */\n  0x00\n    /* \"RoleAccess.sol\":1962:1988  _roles[DEFAULT_ADMIN_ROLE] */\n  0x00\n    /* \"RoleAccess.sol\":610:641  keccak256(\"DEFAULT_ADMIN_ROLE\") */\n  0x1effbbff9c66c5e59634f24fe842750c60d18891155c32dd155fc2d661a4c86d\n    /* \"RoleAccess.sol\":1962:1988  _roles[DEFAULT_ADMIN_ROLE] */\n  dup2\n  mstore\n  0x20\n  add\n  swap1\n  dup2\n  mstore\n  0x20\n  add\n  0x00\n  keccak256\n    /* \"RoleAccess.sol\":1962:2000  _roles[DEFAULT_ADMIN_ROLE][msg.sender] */\n  0x00\n    /* \"RoleAccess.sol\":1989:1999  msg.sender */\n  caller\n    /* \"RoleAccess.sol\":1962:2000  _roles[DEFAULT_ADMIN_ROLE][msg.sender] */\n  0xffffffffffffffffffffffffffffffffffffffff\n  and\n  0xffffffffffffffffffffffffffffffffffffffff\n  and\n  dup2\n  mstore\n  0x20\n  add\n  swap1\n  dup2\n  mstore\n  0x20\n  add\n  0x00\n  keccak256\n  0x00\n    /* \"RoleAccess.sol\":1962:2007  _roles[DEFAULT_ADMIN_ROLE][msg.sender] = true */\n  0x0100\n  exp\n  dup2\n  sload\n  dup2\n  0xff\n  mul\n  not\n  and\n  swap1\n  dup4\n  iszero\n  iszero\n  mul\n  or\n  swap1\n  sstore\n  pop\n    /* \"RoleAccess.sol\":2066:2076  msg.sender */\n  caller\n    /* \"RoleAccess.sol\":2022:2077  RoleGranted(DEFAULT_ADMIN_ROLE, msg.sender, msg.sender) */\n  0xffffffffffffffffffffffffffffffffffffffff\n  and\n    /* \"RoleAccess.sol\":2054:2064  msg.sender */\n  caller\n    /* \"RoleAccess.sol\":2022:2077  RoleGranted(DEFAULT_ADMIN_ROLE, msg.sender, msg.sender) */\n  0xffffffffffffffffffffffffffffffffffffffff\n  and\n    /* \"RoleAccess.sol\":610:641  keccak256(\"DEFAULT_ADMIN_ROLE\") */\n  0x1effbbff9c66c5e59634f24fe842750c60d18891155c32dd155fc2d661a4c86d\n    /* \"RoleAccess.sol\":2022:2077  RoleGranted(DEFAULT_ADMIN_ROLE, msg.sender, msg.sender) */\n  0x2f8788117e7eff1d82e926ec794901d17c78024a50270940304540a733656f0d\n  mload(0x40)\n  mload(0x40)\n  dup1\n  swap2\n  sub\n  swap1\n  log4\n    /* \"SchemeConfig.sol\":2208:2503  _addScheme(... */\n  tag_6\n  mload(0x40)\n  dup1\n  0x60\n  add\n  0x40\n  mstore\n  dup1\n  0x34\n  dup2\n  mstore\n  0x20\n  add\n  data_214fe946adf8f31da490e32798f93eea50dddd4b71f0ec646ca8ea1361490e74\n  0x34\n  swap2\n  codecopy\n    /* \"SchemeConfig.sol\":2300:2309  300 ether */\n  0x1043561a8829300000\n    /* \"SchemeConfig.sol\":2380:2382  18 */\n  0x12\n    /* \"SchemeConfig.sol\":2419:2421  60 */\n  0x3c\n    /* \"SchemeConfig.sol\":2458:2460  20 */\n  0x14\n    /* \"SchemeConfig.sol\":2208:2218  _addScheme */\n  shl(0x20, tag_7)\n    /* \"SchemeConfig.sol\":2208:2503  _addScheme(... */\n  0x20\n  shr\n  jump\t// in\ntag_6:\n  pop\n    /* \"SchemeConfig.sol\":404:6479  contract SchemeConfig is RoleAccess {... */\n  jump(tag_8)\n    /* \"SchemeConfig.sol\":2678:3362  function _addScheme(... */\ntag_7:\n    /* \"SchemeConfig.sol\":2854:2861  uint256 */\n  0x00\n    /* \"SchemeConfig.sol\":2873:2884  uint256 sid */\n  0x00\n    /* \"SchemeConfig.sol\":2887:2899  nextSchemeId */\n  0x03\n  0x00\n    /* \"SchemeConfig.sol\":2887:2901  nextSchemeId++ */\n  dup2\n  sload\n  dup1\n  swap3\n  swap2\n  swap1\n  tag_10\n  swap1\n  tag_11\n  jump\t// in\ntag_10:\n  swap2\n  swap1\n  pop\n  sstore\n    /* \"SchemeConfig.sol\":2873:2901  uint256 sid = nextSchemeId++ */\n  swap1\n  pop\n    /* \"SchemeConfig.sol\":2926:3306  Scheme({... */\n  mload(0x40)\n  dup1\n  0x0120\n  add\n  0x40\n  mstore\n  dup1\n    /* \"SchemeConfig.sol\":2965:2968  sid */\n  dup3\n    /* \"SchemeConfig.sol\":2926:3306  Scheme({... */\n  dup2\n  mstore\n  0x20\n  add\n    /* \"SchemeConfig.sol\":3000:3004  name */\n  dup9\n    /* \"SchemeConfig.sol\":2926:3306  Scheme({... */\n  dup2\n  mstore\n  0x20\n  add\n    /* \"SchemeConfig.sol\":3036:3049  monthlyAmount */\n  dup8\n    /* \"SchemeConfig.sol\":2926:3306  Scheme({... */\n  dup2\n  mstore\n  0x20\n  add\n    /* \"SchemeConfig.sol\":3081:3087  minAge */\n  dup7\n    /* \"SchemeConfig.sol\":2926:3306  Scheme({... */\n  dup2\n  mstore\n  0x20\n  add\n    /* \"SchemeConfig.sol\":3119:3125  maxAge */\n  dup6\n    /* \"SchemeConfig.sol\":2926:3306  Scheme({... */\n  dup2\n  mstore\n  0x20\n  add\n    /* \"SchemeConfig.sol\":3158:3165  maxDays */\n  dup5\n    /* \"SchemeConfig.sol\":2926:3306  Scheme({... */\n  dup2\n  mstore\n  0x20\n  add\n    /* \"SchemeConfig.sol\":3197:3201  true */\n  0x01\n    /* \"SchemeConfig.sol\":2926:3306  Scheme({... */\n  iszero\n  iszero\n  dup2\n  mstore\n  0x20\n  add\n    /* \"SchemeConfig.sol\":3233:3248  block.timestamp */\n  timestamp\n    /* \"SchemeConfig.sol\":2926:3306  Scheme({... */\n  dup2\n  mstore\n  0x20\n  add\n    /* \"SchemeConfig.sol\":3280:3295  block.timestamp */\n  timestamp\n    /* \"SchemeConfig.sol\":2926:3306  Scheme({... */\n  dup2\n  mstore\n  pop\n    /* \"SchemeConfig.sol\":2911:2918  schemes */\n  0x01\n    /* \"SchemeConfig.sol\":2911:2923  schemes[sid] */\n  0x00\n    /* \"SchemeConfig.sol\":2919:2922  sid */\n  dup4\n    /* \"SchemeConfig.sol\":2911:2923  schemes[sid] */\n  dup2\n  mstore\n  0x20\n  add\n  swap1\n  dup2\n  mstore\n  0x20\n  add\n  0x00\n  keccak256\n    /* \"SchemeConfig.sol\":2911:3306  schemes[sid] = Scheme({... */\n  0x00\n  dup3\n  add\n  mload\n  dup2\n  0x00\n  add\n  sstore\n  0x20\n  dup3\n  add\n  mload\n  dup2\n  0x01\n  add\n  swap1\n  dup2\n  tag_12\n  swap2\n  swap1\n  tag_13\n  jump\t// in\ntag_12:\n  pop\n  0x40\n  dup3\n  add\n  mload\n  dup2\n  0x02\n  add\n  sstore\n  0x60\n  dup3\n  add\n  mload\n  dup2\n  0x03\n  add\n  sstore\n  0x80\n  dup3\n  add\n  mload\n  dup2\n  0x04\n  add\n  sstore\n  0xa0\n  dup3\n  add\n  mload\n  dup2\n  0x05\n  add\n  sstore\n  0xc0\n  dup3\n  add\n  mload\n  dup2\n  0x06\n  add\n  exp(0x0100, 0x00)\n  dup2\n  sload\n  dup2\n  0xff\n  mul\n  not\n  and\n  swap1\n  dup4\n  iszero\n  iszero\n  mul\n  or\n  swap1\n  sstore\n  pop\n  0xe0\n  dup3\n  add\n  mload\n  dup2\n  0x07\n  add\n  sstore\n  0x0100\n  dup3\n  add\n  mload\n  dup2\n  0x08\n  add\n  sstore\n  swap1\n  pop\n  pop\n    /* \"SchemeConfig.sol\":3316:3325  schemeIds */\n  0x02\n    /* \"SchemeConfig.sol\":3331:3334  sid */\n  dup2\n    /* \"SchemeConfig.sol\":3316:3335  schemeIds.push(sid) */\n  swap1\n  dup1\n  0x01\n  dup2\n  sload\n  add\n  dup1\n  dup3\n  sstore\n  dup1\n  swap2\n  pop\n  pop\n  0x01\n  swap1\n  sub\n  swap1\n  0x00\n  mstore\n  keccak256(0x00, 0x20)\n  add\n  0x00\n  swap1\n  swap2\n  swap1\n  swap2\n  swap1\n  swap2\n  pop\n  sstore\n    /* \"SchemeConfig.sol\":3352:3355  sid */\n  dup1\n    /* \"SchemeConfig.sol\":3345:3355  return sid */\n  swap2\n  pop\n  pop\n    /* \"SchemeConfig.sol\":2678:3362  function _addScheme(... */\n  swap6\n  swap5\n  pop\n  pop\n  pop\n  pop\n  pop\n  jump\t// out\n    /* \"#utility.yul\":7:187   */\ntag_15:\n    /* \"#utility.yul\":55:132   */\n  0x4e487b7100000000000000000000000000000000000000000000000000000000\n    /* \"#utility.yul\":52:53   */\n  0x00\n    /* \"#utility.yul\":45:133   */\n  mstore\n    /* \"#utility.yul\":152:156   */\n  0x11\n    /* \"#utility.yul\":149:150   */\n  0x04\n    /* \"#utility.yul\":142:157   */\n  mstore\n    /* \"#utility.yul\":176:180   */\n  0x24\n    /* \"#utility.yul\":173:174   */\n  0x00\n    /* \"#utility.yul\":166:181   */\n  revert\n    /* \"#utility.yul\":193:270   */\ntag_16:\n    /* \"#utility.yul\":230:237   */\n  0x00\n    /* \"#utility.yul\":259:264   */\n  dup2\n    /* \"#utility.yul\":248:264   */\n  swap1\n  pop\n    /* \"#utility.yul\":193:270   */\n  swap2\n  swap1\n  pop\n  jump\t// out\n    /* \"#utility.yul\":276:509   */\ntag_11:\n    /* \"#utility.yul\":315:318   */\n  0x00\n    /* \"#utility.yul\":338:362   */\n  tag_40\n    /* \"#utility.yul\":356:361   */\n  dup3\n    /* \"#utility.yul\":338:362   */\n  tag_16\n  jump\t// in\ntag_40:\n    /* \"#utility.yul\":329:362   */\n  swap2\n  pop\n    /* \"#utility.yul\":384:450   */\n  0xffffffffffffffffffffffffffffffffffffffffffffffffffffffffffffffff\n    /* \"#utility.yul\":377:382   */\n  dup3\n    /* \"#utility.yul\":374:451   */\n  sub\n    /* \"#utility.yul\":371:474   */\n  tag_41\n  jumpi\n    /* \"#utility.yul\":454:472   */\n  tag_42\n  tag_15\n  jump\t// in\ntag_42:\n    /* \"#utility.yul\":371:474   */\ntag_41:\n    /* \"#utility.yul\":501:502   */\n  0x01\n    /* \"#utility.yul\":494:499   */\n  dup3\n    /* \"#utility.yul\":490:503   */\n  add\n    /* \"#utility.yul\":483:503   */\n  swap1\n  pop\n    /* \"#utility.yul\":276:509   */\n  swap2\n  swap1\n  pop\n  jump\t// out\n    /* \"#utility.yul\":515:614   */\ntag_17:\n    /* \"#utility.yul\":567:573   */\n  0x00\n    /* \"#utility.yul\":601:606   */\n  dup2\n    /* \"#utility.yul\":595:607   */\n  mload\n    /* \"#utility.yul\":585:607   */\n  swap1\n  pop\n    /* \"#utility.yul\":515:614   */\n  swap2\n  swap1\n  pop\n  jump\t// out\n    /* \"#utility.yul\":620:800   */\ntag_18:\n    /* \"#utility.yul\":668:745   */\n  0x4e487b7100000000000000000000000000000000000000000000000000000000\n    /* \"#utility.yul\":665:666   */\n  0x00\n    /* \"#utility.yul\":658:746   */\n  mstore\n    /* \"#utility.yul\":765:769   */\n  0x41\n    /* \"#utility.yul\":762:763   */\n  0x04\n    /* \"#utility.yul\":755:770   */\n  mstore\n    /* \"#utility.yul\":789:793   */\n  0x24\n    /* \"#utility.yul\":786:787   */\n  0x00\n    /* \"#utility.yul\":779:794   */\n  revert\n    /* \"#utility.yul\":806:986   */\ntag_19:\n    /* \"#utility.yul\":854:931   */\n  0x4e487b7100000000000000000000000000000000000000000000000000000000\n    /* \"#utility.yul\":851:852   */\n  0x00\n    /* \"#utility.yul\":844:932   */\n  mstore\n    /* \"#utility.yul\":951:955   */\n  0x22\n    /* \"#utility.yul\":948:949   */\n  0x04\n    /* \"#utility.yul\":941:956   */\n  mstore\n    /* \"#utility.yul\":975:979   */\n  0x24\n    /* \"#utility.yul\":972:973   */\n  0x00\n    /* \"#utility.yul\":965:980   */\n  revert\n    /* \"#utility.yul\":992:1312   */\ntag_20:\n    /* \"#utility.yul\":1036:1042   */\n  0x00\n    /* \"#utility.yul\":1073:1074   */\n  0x02\n    /* \"#utility.yul\":1067:1071   */\n  dup3\n    /* \"#utility.yul\":1063:1075   */\n  div\n    /* \"#utility.yul\":1053:1075   */\n  swap1\n  pop\n    /* \"#utility.yul\":1120:1121   */\n  0x01\n    /* \"#utility.yul\":1114:1118   */\n  dup3\n    /* \"#utility.yul\":1110:1122   */\n  and\n    /* \"#utility.yul\":1141:1159   */\n  dup1\n    /* \"#utility.yul\":1131:1212   */\n  tag_47\n  jumpi\n    /* \"#utility.yul\":1197:1201   */\n  0x7f\n    /* \"#utility.yul\":1189:1195   */\n  dup3\n    /* \"#utility.yul\":1185:1202   */\n  and\n    /* \"#utility.yul\":1175:1202   */\n  swap2\n  pop\n    /* \"#utility.yul\":1131:1212   */\ntag_47:\n    /* \"#utility.yul\":1259:1261   */\n  0x20\n    /* \"#utility.yul\":1251:1257   */\n  dup3\n    /* \"#utility.yul\":1248:1262   */\n  lt\n    /* \"#utility.yul\":1228:1246   */\n  dup2\n    /* \"#utility.yul\":1225:1263   */\n  sub\n    /* \"#utility.yul\":1222:1306   */\n  tag_48\n  jumpi\n    /* \"#utility.yul\":1278:1296   */\n  tag_49\n  tag_19\n  jump\t// in\ntag_49:\n    /* \"#utility.yul\":1222:1306   */\ntag_48:\n    /* \"#utility.yul\":1043:1312   */\n  pop\n    /* \"#utility.yul\":992:1312   */\n  swap2\n  swap1\n  pop\n  jump\t// out\n    /* \"#utility.yul\":1318:1459   */\ntag_21:\n    /* \"#utility.yul\":1367:1371   */\n  0x00\n    /* \"#utility.yul\":1390:1393   */\n  dup2\n    /* \"#utility.yul\":1382:1393   */\n  swap1\n  pop\n    /* \"#utility.yul\":1413:1416   */\n  dup2\n    /* \"#utility.yul\":1410:1411   */\n  0x00\n    /* \"#utility.yul\":1403:1417   */\n  mstore\n    /* \"#utility.yul\":1447:1451   */\n  0x20\n    /* \"#utility.yul\":1444:1445   */\n  0x00\n    /* \"#utility.yul\":1434:1452   */\n  keccak256\n    /* \"#utility.yul\":1426:1452   */\n  swap1\n  pop\n    /* \"#utility.yul\":1318:1459   */\n  swap2\n  swap1\n  pop\n  jump\t// out\n    /* \"#utility.yul\":1465:1558   */\ntag_22:\n    /* \"#utility.yul\":1502:1508   */\n  0x00\n    /* \"#utility.yul\":1549:1551   */\n  0x20\n    /* \"#utility.yul\":1544:1546   */\n  0x1f\n    /* \"#utility.yul\":1537:1542   */\n  dup4\n    /* \"#utility.yul\":1533:1547   */\n  add\n    /* \"#utility.yul\":1529:1552   */\n  div\n    /* \"#utility.yul\":1519:1552   */\n  swap1\n  pop\n    /* \"#utility.yul\":1465:1558   */\n  swap2\n  swap1\n  pop\n  jump\t// out\n    /* \"#utility.yul\":1564:1671   */\ntag_23:\n    /* \"#utility.yul\":1608:1616   */\n  0x00\n    /* \"#utility.yul\":1658:1663   */\n  dup3\n    /* \"#utility.yul\":1652:1656   */\n  dup3\n    /* \"#utility.yul\":1648:1664   */\n  shl\n    /* \"#utility.yul\":1627:1664   */\n  swap1\n  pop\n    /* \"#utility.yul\":1564:1671   */\n  swap3\n  swap2\n  pop\n  pop\n  jump\t// out\n    /* \"#utility.yul\":1677:2070   */\ntag_24:\n    /* \"#utility.yul\":1746:1752   */\n  0x00\n    /* \"#utility.yul\":1796:1797   */\n  0x08\n    /* \"#utility.yul\":1784:1794   */\n  dup4\n    /* \"#utility.yul\":1780:1798   */\n  mul\n    /* \"#utility.yul\":1819:1916   */\n  tag_54\n    /* \"#utility.yul\":1849:1915   */\n  0xffffffffffffffffffffffffffffffffffffffffffffffffffffffffffffffff\n    /* \"#utility.yul\":1838:1847   */\n  dup3\n    /* \"#utility.yul\":1819:1916   */\n  tag_23\n  jump\t// in\ntag_54:\n    /* \"#utility.yul\":1937:1976   */\n  tag_55\n    /* \"#utility.yul\":1967:1975   */\n  dup7\n    /* \"#utility.yul\":1956:1965   */\n  dup4\n    /* \"#utility.yul\":1937:1976   */\n  tag_23\n  jump\t// in\ntag_55:\n    /* \"#utility.yul\":1925:1976   */\n  swap6\n  pop\n    /* \"#utility.yul\":2009:2013   */\n  dup1\n    /* \"#utility.yul\":2005:2014   */\n  not\n    /* \"#utility.yul\":1998:2003   */\n  dup5\n    /* \"#utility.yul\":1994:2015   */\n  and\n    /* \"#utility.yul\":1985:2015   */\n  swap4\n  pop\n    /* \"#utility.yul\":2058:2062   */\n  dup1\n    /* \"#utility.yul\":2048:2056   */\n  dup7\n    /* \"#utility.yul\":2044:2063   */\n  and\n    /* \"#utility.yul\":2037:2042   */\n  dup5\n    /* \"#utility.yul\":2034:2064   */\n  or\n    /* \"#utility.yul\":2024:2064   */\n  swap3\n  pop\n    /* \"#utility.yul\":1753:2070   */\n  pop\n  pop\n    /* \"#utility.yul\":1677:2070   */\n  swap4\n  swap3\n  pop\n  pop\n  pop\n  jump\t// out\n    /* \"#utility.yul\":2076:2136   */\ntag_25:\n    /* \"#utility.yul\":2104:2107   */\n  0x00\n    /* \"#utility.yul\":2125:2130   */\n  dup2\n    /* \"#utility.yul\":2118:2130   */\n  swap1\n  pop\n    /* \"#utility.yul\":2076:2136   */\n  swap2\n  swap1\n  pop\n  jump\t// out\n    /* \"#utility.yul\":2142:2284   */\ntag_26:\n    /* \"#utility.yul\":2192:2201   */\n  0x00\n    /* \"#utility.yul\":2225:2278   */\n  tag_58\n    /* \"#utility.yul\":2243:2277   */\n  tag_59\n    /* \"#utility.yul\":2252:2276   */\n  tag_60\n    /* \"#utility.yul\":2270:2275   */\n  dup5\n    /* \"#utility.yul\":2252:2276   */\n  tag_16\n  jump\t// in\ntag_60:\n    /* \"#utility.yul\":2243:2277   */\n  tag_25\n  jump\t// in\ntag_59:\n    /* \"#utility.yul\":2225:2278   */\n  tag_16\n  jump\t// in\ntag_58:\n    /* \"#utility.yul\":2212:2278   */\n  swap1\n  pop\n    /* \"#utility.yul\":2142:2284   */\n  swap2\n  swap1\n  pop\n  jump\t// out\n    /* \"#utility.yul\":2290:2365   */\ntag_27:\n    /* \"#utility.yul\":2333:2336   */\n  0x00\n    /* \"#utility.yul\":2354:2359   */\n  dup2\n    /* \"#utility.yul\":2347:2359   */\n  swap1\n  pop\n    /* \"#utility.yul\":2290:2365   */\n  swap2\n  swap1\n  pop\n  jump\t// out\n    /* \"#utility.yul\":2371:2640   */\ntag_28:\n    /* \"#utility.yul\":2481:2520   */\n  tag_63\n    /* \"#utility.yul\":2512:2519   */\n  dup4\n    /* \"#utility.yul\":2481:2520   */\n  tag_26\n  jump\t// in\ntag_63:\n    /* \"#utility.yul\":2542:2633   */\n  tag_64\n    /* \"#utility.yul\":2591:2632   */\n  tag_65\n    /* \"#utility.yul\":2615:2631   */\n  dup3\n    /* \"#utility.yul\":2591:2632   */\n  tag_27\n  jump\t// in\ntag_65:\n    /* \"#utility.yul\":2583:2589   */\n  dup5\n    /* \"#utility.yul\":2576:2580   */\n  dup5\n    /* \"#utility.yul\":2570:2581   */\n  sload\n    /* \"#utility.yul\":2542:2633   */\n  tag_24\n  jump\t// in\ntag_64:\n    /* \"#utility.yul\":2536:2540   */\n  dup3\n    /* \"#utility.yul\":2529:2634   */\n  sstore\n    /* \"#utility.yul\":2447:2640   */\n  pop\n    /* \"#utility.yul\":2371:2640   */\n  pop\n  pop\n  pop\n  jump\t// out\n    /* \"#utility.yul\":2646:2719   */\ntag_29:\n    /* \"#utility.yul\":2691:2694   */\n  0x00\n    /* \"#utility.yul\":2712:2713   */\n  0x00\n    /* \"#utility.yul\":2705:2713   */\n  swap1\n  pop\n    /* \"#utility.yul\":2646:2719   */\n  swap1\n  jump\t// out\n    /* \"#utility.yul\":2725:2914   */\ntag_30:\n    /* \"#utility.yul\":2802:2834   */\n  tag_68\n  tag_29\n  jump\t// in\ntag_68:\n    /* \"#utility.yul\":2843:2908   */\n  tag_69\n    /* \"#utility.yul\":2901:2907   */\n  dup2\n    /* \"#utility.yul\":2893:2899   */\n  dup5\n    /* \"#utility.yul\":2887:2891   */\n  dup5\n    /* \"#utility.yul\":2843:2908   */\n  tag_28\n  jump\t// in\ntag_69:\n    /* \"#utility.yul\":2778:2914   */\n  pop\n    /* \"#utility.yul\":2725:2914   */\n  pop\n  pop\n  jump\t// out\n    /* \"#utility.yul\":2920:3106   */\ntag_31:\n    /* \"#utility.yul\":2980:3100   */\ntag_71:\n    /* \"#utility.yul\":2997:3000   */\n  dup2\n    /* \"#utility.yul\":2990:2995   */\n  dup2\n    /* \"#utility.yul\":2987:3001   */\n  lt\n    /* \"#utility.yul\":2980:3100   */\n  iszero\n  tag_73\n  jumpi\n    /* \"#utility.yul\":3051:3090   */\n  tag_74\n    /* \"#utility.yul\":3088:3089   */\n  0x00\n    /* \"#utility.yul\":3081:3086   */\n  dup3\n    /* \"#utility.yul\":3051:3090   */\n  tag_30\n  jump\t// in\ntag_74:\n    /* \"#utility.yul\":3024:3025   */\n  0x01\n    /* \"#utility.yul\":3017:3022   */\n  dup2\n    /* \"#utility.yul\":3013:3026   */\n  add\n    /* \"#utility.yul\":3004:3026   */\n  swap1\n  pop\n    /* \"#utility.yul\":2980:3100   */\n  jump(tag_71)\ntag_73:\n    /* \"#utility.yul\":2920:3106   */\n  pop\n  pop\n  jump\t// out\n    /* \"#utility.yul\":3112:3655   */\ntag_32:\n    /* \"#utility.yul\":3213:3215   */\n  0x1f\n    /* \"#utility.yul\":3208:3211   */\n  dup3\n    /* \"#utility.yul\":3205:3216   */\n  gt\n    /* \"#utility.yul\":3202:3648   */\n  iszero\n  tag_76\n  jumpi\n    /* \"#utility.yul\":3247:3285   */\n  tag_77\n    /* \"#utility.yul\":3279:3284   */\n  dup2\n    /* \"#utility.yul\":3247:3285   */\n  tag_21\n  jump\t// in\ntag_77:\n    /* \"#utility.yul\":3331:3360   */\n  tag_78\n    /* \"#utility.yul\":3349:3359   */\n  dup5\n    /* \"#utility.yul\":3331:3360   */\n  tag_22\n  jump\t// in\ntag_78:\n    /* \"#utility.yul\":3321:3329   */\n  dup2\n    /* \"#utility.yul\":3317:3361   */\n  add\n    /* \"#utility.yul\":3514:3516   */\n  0x20\n    /* \"#utility.yul\":3502:3512   */\n  dup6\n    /* \"#utility.yul\":3499:3517   */\n  lt\n    /* \"#utility.yul\":3496:3545   */\n  iszero\n  tag_79\n  jumpi\n    /* \"#utility.yul\":3535:3543   */\n  dup2\n    /* \"#utility.yul\":3520:3543   */\n  swap1\n  pop\n    /* \"#utility.yul\":3496:3545   */\ntag_79:\n    /* \"#utility.yul\":3558:3638   */\n  tag_80\n    /* \"#utility.yul\":3614:3636   */\n  tag_81\n    /* \"#utility.yul\":3632:3635   */\n  dup6\n    /* \"#utility.yul\":3614:3636   */\n  tag_22\n  jump\t// in\ntag_81:\n    /* \"#utility.yul\":3604:3612   */\n  dup4\n    /* \"#utility.yul\":3600:3637   */\n  add\n    /* \"#utility.yul\":3587:3598   */\n  dup3\n    /* \"#utility.yul\":3558:3638   */\n  tag_31\n  jump\t// in\ntag_80:\n    /* \"#utility.yul\":3217:3648   */\n  pop\n  pop\n    /* \"#utility.yul\":3202:3648   */\ntag_76:\n    /* \"#utility.yul\":3112:3655   */\n  pop\n  pop\n  pop\n  jump\t// out\n    /* \"#utility.yul\":3661:3778   */\ntag_33:\n    /* \"#utility.yul\":3715:3723   */\n  0x00\n    /* \"#utility.yul\":3765:3770   */\n  dup3\n    /* \"#utility.yul\":3759:3763   */\n  dup3\n    /* \"#utility.yul\":3755:3771   */\n  shr\n    /* \"#utility.yul\":3734:3771   */\n  swap1\n  pop\n    /* \"#utility.yul\":3661:3778   */\n  swap3\n  swap2\n  pop\n  pop\n  jump\t// out\n    /* \"#utility.yul\":3784:3953   */\ntag_34:\n    /* \"#utility.yul\":3828:3834   */\n  0x00\n    /* \"#utility.yul\":3861:3912   */\n  tag_84\n    /* \"#utility.yul\":3909:3910   */\n  0x00\n    /* \"#utility.yul\":3905:3911   */\n  not\n    /* \"#utility.yul\":3897:3902   */\n  dup5\n    /* \"#utility.yul\":3894:3895   */\n  0x08\n    /* \"#utility.yul\":3890:3903   */\n  mul\n    /* \"#utility.yul\":3861:3912   */\n  tag_33\n  jump\t// in\ntag_84:\n    /* \"#utility.yul\":3857:3913   */\n  not\n    /* \"#utility.yul\":3942:3946   */\n  dup1\n    /* \"#utility.yul\":3936:3940   */\n  dup4\n    /* \"#utility.yul\":3932:3947   */\n  and\n    /* \"#utility.yul\":3922:3947   */\n  swap2\n  pop\n    /* \"#utility.yul\":3835:3953   */\n  pop\n    /* \"#utility.yul\":3784:3953   */\n  swap3\n  swap2\n  pop\n  pop\n  jump\t// out\n    /* \"#utility.yul\":3958:4253   */\ntag_35:\n    /* \"#utility.yul\":4034:4038   */\n  0x00\n    /* \"#utility.yul\":4180:4209   */\n  tag_86\n    /* \"#utility.yul\":4205:4208   */\n  dup4\n    /* \"#utility.yul\":4199:4203   */\n  dup4\n    /* \"#utility.yul\":4180:4209   */\n  tag_34\n  jump\t// in\ntag_86:\n    /* \"#utility.yul\":4172:4209   */\n  swap2\n  pop\n    /* \"#utility.yul\":4242:4245   */\n  dup3\n    /* \"#utility.yul\":4239:4240   */\n  0x02\n    /* \"#utility.yul\":4235:4246   */\n  mul\n    /* \"#utility.yul\":4229:4233   */\n  dup3\n    /* \"#utility.yul\":4226:4247   */\n  or\n    /* \"#utility.yul\":4218:4247   */\n  swap1\n  pop\n    /* \"#utility.yul\":3958:4253   */\n  swap3\n  swap2\n  pop\n  pop\n  jump\t// out\n    /* \"#utility.yul\":4258:5653   */\ntag_13:\n    /* \"#utility.yul\":4375:4412   */\n  tag_88\n    /* \"#utility.yul\":4408:4411   */\n  dup3\n    /* \"#utility.yul\":4375:4412   */\n  tag_17\n  jump\t// in\ntag_88:\n    /* \"#utility.yul\":4477:4495   */\n  0xffffffffffffffff\n    /* \"#utility.yul\":4469:4475   */\n  dup2\n    /* \"#utility.yul\":4466:4496   */\n  gt\n    /* \"#utility.yul\":4463:4519   */\n  iszero\n  tag_89\n  jumpi\n    /* \"#utility.yul\":4499:4517   */\n  tag_90\n  tag_18\n  jump\t// in\ntag_90:\n    /* \"#utility.yul\":4463:4519   */\ntag_89:\n    /* \"#utility.yul\":4543:4581   */\n  tag_91\n    /* \"#utility.yul\":4575:4579   */\n  dup3\n    /* \"#utility.yul\":4569:4580   */\n  sload\n    /* \"#utility.yul\":4543:4581   */\n  tag_20\n  jump\t// in\ntag_91:\n    /* \"#utility.yul\":4628:4695   */\n  tag_92\n    /* \"#utility.yul\":4688:4694   */\n  dup3\n    /* \"#utility.yul\":4680:4686   */\n  dup3\n    /* \"#utility.yul\":4674:4678   */\n  dup6\n    /* \"#utility.yul\":4628:4695   */\n  tag_32\n  jump\t// in\ntag_92:\n    /* \"#utility.yul\":4722:4723   */\n  0x00\n    /* \"#utility.yul\":4746:4750   */\n  0x20\n    /* \"#utility.yul\":4733:4750   */\n  swap1\n  pop\n    /* \"#utility.yul\":4778:4780   */\n  0x1f\n    /* \"#utility.yul\":4770:4776   */\n  dup4\n    /* \"#utility.yul\":4767:4781   */\n  gt\n    /* \"#utility.yul\":4795:4796   */\n  0x01\n    /* \"#utility.yul\":4790:5408   */\n  dup2\n  eq\n  tag_94\n  jumpi\n    /* \"#utility.yul\":5452:5453   */\n  0x00\n    /* \"#utility.yul\":5469:5475   */\n  dup5\n    /* \"#utility.yul\":5466:5543   */\n  iszero\n  tag_95\n  jumpi\n    /* \"#utility.yul\":5518:5527   */\n  dup3\n    /* \"#utility.yul\":5513:5516   */\n  dup8\n    /* \"#utility.yul\":5509:5528   */\n  add\n    /* \"#utility.yul\":5503:5529   */\n  mload\n    /* \"#utility.yul\":5494:5529   */\n  swap1\n  pop\n    /* \"#utility.yul\":5466:5543   */\ntag_95:\n    /* \"#utility.yul\":5569:5636   */\n  tag_96\n    /* \"#utility.yul\":5629:5635   */\n  dup6\n    /* \"#utility.yul\":5622:5627   */\n  dup3\n    /* \"#utility.yul\":5569:5636   */\n  tag_35\n  jump\t// in\ntag_96:\n    /* \"#utility.yul\":5563:5567   */\n  dup7\n    /* \"#utility.yul\":5556:5637   */\n  sstore\n    /* \"#utility.yul\":5425:5647   */\n  pop\n    /* \"#utility.yul\":4760:5647   */\n  jump(tag_93)\n    /* \"#utility.yul\":4790:5408   */\ntag_94:\n    /* \"#utility.yul\":4842:4846   */\n  0x1f\n    /* \"#utility.yul\":4838:4847   */\n  not\n    /* \"#utility.yul\":4830:4836   */\n  dup5\n    /* \"#utility.yul\":4826:4848   */\n  and\n    /* \"#utility.yul\":4876:4913   */\n  tag_97\n    /* \"#utility.yul\":4908:4912   */\n  dup7\n    /* \"#utility.yul\":4876:4913   */\n  tag_21\n  jump\t// in\ntag_97:\n    /* \"#utility.yul\":4935:4936   */\n  0x00\n    /* \"#utility.yul\":4949:5157   */\ntag_98:\n    /* \"#utility.yul\":4963:4970   */\n  dup3\n    /* \"#utility.yul\":4960:4961   */\n  dup2\n    /* \"#utility.yul\":4957:4971   */\n  lt\n    /* \"#utility.yul\":4949:5157   */\n  iszero\n  tag_100\n  jumpi\n    /* \"#utility.yul\":5042:5051   */\n  dup5\n    /* \"#utility.yul\":5037:5040   */\n  dup10\n    /* \"#utility.yul\":5033:5052   */\n  add\n    /* \"#utility.yul\":5027:5053   */\n  mload\n    /* \"#utility.yul\":5019:5025   */\n  dup3\n    /* \"#utility.yul\":5012:5054   */\n  sstore\n    /* \"#utility.yul\":5093:5094   */\n  0x01\n    /* \"#utility.yul\":5085:5091   */\n  dup3\n    /* \"#utility.yul\":5081:5095   */\n  add\n    /* \"#utility.yul\":5071:5095   */\n  swap2\n  pop\n    /* \"#utility.yul\":5140:5142   */\n  0x20\n    /* \"#utility.yul\":5129:5138   */\n  dup6\n    /* \"#utility.yul\":5125:5143   */\n  add\n    /* \"#utility.yul\":5112:5143   */\n  swap5\n  pop\n    /* \"#utility.yul\":4986:4990   */\n  0x20\n    /* \"#utility.yul\":4983:4984   */\n  dup2\n    /* \"#utility.yul\":4979:4991   */\n  add\n    /* \"#utility.yul\":4974:4991   */\n  swap1\n  pop\n    /* \"#utility.yul\":4949:5157   */\n  jump(tag_98)\ntag_100:\n    /* \"#utility.yul\":5185:5191   */\n  dup7\n    /* \"#utility.yul\":5176:5183   */\n  dup4\n    /* \"#utility.yul\":5173:5192   */\n  lt\n    /* \"#utility.yul\":5170:5349   */\n  iszero\n  tag_101\n  jumpi\n    /* \"#utility.yul\":5243:5252   */\n  dup5\n    /* \"#utility.yul\":5238:5241   */\n  dup10\n    /* \"#utility.yul\":5234:5253   */\n  add\n    /* \"#utility.yul\":5228:5254   */\n  mload\n    /* \"#utility.yul\":5286:5334   */\n  tag_102\n    /* \"#utility.yul\":5328:5332   */\n  0x1f\n    /* \"#utility.yul\":5320:5326   */\n  dup10\n    /* \"#utility.yul\":5316:5333   */\n  and\n    /* \"#utility.yul\":5305:5314   */\n  dup3\n    /* \"#utility.yul\":5286:5334   */\n  tag_34\n  jump\t// in\ntag_102:\n    /* \"#utility.yul\":5278:5284   */\n  dup4\n    /* \"#utility.yul\":5271:5335   */\n  sstore\n    /* \"#utility.yul\":5193:5349   */\n  pop\n    /* \"#utility.yul\":5170:5349   */\ntag_101:\n    /* \"#utility.yul\":5395:5396   */\n  0x01\n    /* \"#utility.yul\":5391:5392   */\n  0x02\n    /* \"#utility.yul\":5383:5389   */\n  dup9\n    /* \"#utility.yul\":5379:5393   */\n  mul\n    /* \"#utility.yul\":5375:5397   */\n  add\n    /* \"#utility.yul\":5369:5373   */\n  dup9\n    /* \"#utility.yul\":5362:5398   */\n  sstore\n    /* \"#utility.yul\":4797:5408   */\n  pop\n  pop\n  pop\n    /* \"#utility.yul\":4760:5647   */\ntag_93:\n  pop\n    /* \"#utility.yul\":4350:5653   */\n  pop\n  pop\n  pop\n    /* \"#utility.yul\":4258:5653   */\n  pop\n  pop\n  jump\t// out\n    /* \"SchemeConfig.sol\":404:6479  contract SchemeConfig is RoleAccess {... */\ntag_8:\n  dataSize(sub_0)\n  dup1\n  dataOffset(sub_0)\n  0x00\n  codecopy\n  0x00\n  return\nstop\ndata_214fe946adf8f31da490e32798f93eea50dddd4b71f0ec646ca8ea1361490e74 49474e575053202d20496e646972612047616e646869204e6174696f6e616c205769646f772050656e73696f6e20536368656d65\n\nsub_0: assembly {\n        /* \"SchemeConfig.sol\":404:6479  contract SchemeConfig is RoleAccess {... */\n      mstore(0x40, 0x80)\n      callvalue\n      dup1\n      iszero\n      tag_1\n      jumpi\n      revert(0x00, 0x00)\n    tag_1:\n      pop\n      jumpi(tag_2, lt(calldatasize, 0x04))\n      shr(0xe0, calldataload(0x00))\n      dup1\n      0x7bf0fbde\n      gt\n      tag_24\n      jumpi\n      dup1\n      0xa217fddf\n      gt\n      tag_25\n      jumpi\n      dup1\n      0xa217fddf\n      eq\n      tag_18\n      jumpi\n      dup1\n      0xcc9479d0\n      eq\n      tag_19\n      jumpi\n      dup1\n      0xd11a57ec\n      eq\n      tag_20\n      jumpi\n      dup1\n      0xd547741f\n      eq\n      tag_21\n      jumpi\n      dup1\n      0xe35bb0fc\n      eq\n      tag_22\n      jumpi\n      dup1\n      0xf522c60a\n      eq\n      tag_23\n      jumpi\n      jump(tag_2)\n    tag_25:\n      dup1\n      0x7bf0fbde\n      eq\n      tag_13\n      jumpi\n      dup1\n      0x8bb9c5bf\n      eq\n      tag_14\n      jumpi\n      dup1\n      0x91d14854\n      eq\n      tag_15\n      jumpi\n      dup1\n      0x9d400f10\n      eq\n      tag_16\n      jumpi\n      dup1\n      0xa12932d1\n      eq\n      tag_17\n      jumpi\n      jump(tag_2)\n    tag_24:\n      dup1\n      0x64fed6b8\n      gt\n      tag_26\n      jumpi\n      dup1\n      0x64fed6b8\n      eq\n      tag_8\n      jumpi\n      dup1\n      0x66f271da\n      eq\n      tag_9\n      jumpi\n      dup1\n      0x6d19f9ae\n      eq\n      tag_10\n      jumpi\n      dup1\n      0x6e07a438\n      eq\n      tag_11\n      jumpi\n      dup1\n      0x6e1d616e\n      eq\n      tag_12\n      jumpi\n      jump(tag_2)\n    tag_26:\n      dup1\n      0x18989def\n      eq\n      tag_3\n      jumpi\n      dup1\n      0x2f2ff15d\n      eq\n      tag_4\n      jumpi\n      dup1\n      0x3b129a56\n      eq\n      tag_5\n      jumpi\n      dup1\n      0x4245962b\n      eq\n      tag_6\n      jumpi\n      dup1\n      0x42f1e879\n      eq\n      tag_7\n      jumpi\n    tag_2:\n      revert(0x00, 0x00)\n        /* \"RoleAccess.sol\":3976:4311  function grantMultipleRoles(bytes32[] calldata roles, address account) external onlyAdmin {... */\n    tag_3:\n      tag_27\n      0x04\n      dup1\n      calldatasize\n      sub\n      dup2\n      add\n      swap1\n      tag_28\n      swap2\n      swap1\n      tag_29\n      jump\t// in\n    tag_28:\n      tag_30\n      jump\t// in\n    tag_27:\n      stop\n        /* \"RoleAccess.sol\":2917:3259  function grantRole(bytes32 role, address account) external onlyAdmin {... */\n    tag_4:\n      tag_31\n      0x04\n      dup1\n      calldatasize\n      sub\n      dup2\n      add\n      swap1\n      tag_32\n      swap2\n      swap1\n      tag_33\n      jump\t// in\n    tag_32:\n      tag_34\n      jump\t// in\n    tag_31:\n      stop\n        /* \"RoleAccess.sol\":647:719  bytes32 public constant REVIEWER_ROLE       = keccak256(\"REVIEWER_ROLE\") */\n    tag_5:\n      tag_35\n      tag_36\n      jump\t// in\n    tag_35:\n      mload(0x40)\n      tag_37\n      swap2\n      swap1\n      tag_38\n      jump\t// in\n    tag_37:\n      mload(0x40)\n      dup1\n      swap2\n      sub\n      swap1\n      return\n        /* \"RoleAccess.sol\":725:797  bytes32 public constant APPROVER_ROLE       = keccak256(\"APPROVER_ROLE\") */\n    tag_6:\n      tag_39\n      tag_40\n      jump\t// in\n    tag_39:\n      mload(0x40)\n      tag_41\n      swap2\n      swap1\n      tag_38\n      jump\t// in\n    tag_41:\n      mload(0x40)\n      dup1\n      swap2\n      sub\n      swap1\n      return\n        /* \"RoleAccess.sol\":1034:1106  bytes32 public constant REGISTRY_ROLE       = keccak256(\"REGISTRY_ROLE\") */\n    tag_7:\n      tag_42\n      tag_43\n      jump\t// in\n    tag_42:\n      mload(0x40)\n      tag_44\n      swap2\n      swap1\n      tag_38\n      jump\t// in\n    tag_44:\n      mload(0x40)\n      dup1\n      swap2\n      sub\n      swap1\n      return\n        /* \"SchemeConfig.sol\":6381:6477  function totalSchemes() external view returns (uint256) {... */\n    tag_8:\n      tag_45\n      tag_46\n      jump\t// in\n    tag_45:\n      mload(0x40)\n      tag_47\n      swap2\n      swap1\n      tag_48\n      jump\t// in\n    tag_47:\n      mload(0x40)\n      dup1\n      swap2\n      sub\n      swap1\n      return\n        /* \"SchemeConfig.sol\":4230:4880  function updateScheme(... */\n    tag_9:\n      tag_49\n      0x04\n      dup1\n      calldatasize\n      sub\n      dup2\n      add\n      swap1\n      tag_50\n      swap2\n      swap1\n      tag_51\n      jump\t// in\n    tag_50:\n      tag_52\n      jump\t// in\n    tag_49:\n      stop\n        /* \"SchemeConfig.sol\":4945:5300  function toggleScheme(uint256 schemeId) external onlyAdmin {... */\n    tag_10:\n      tag_53\n      0x04\n      dup1\n      calldatasize\n      sub\n      dup2\n      add\n      swap1\n      tag_54\n      swap2\n      swap1\n      tag_55\n      jump\t// in\n    tag_54:\n      tag_56\n      jump\t// in\n    tag_53:\n      stop\n        /* \"SchemeConfig.sol\":5951:6178  function getMonthlyAmount(uint256 schemeId) external view returns (uint256) {... */\n    tag_11:\n      tag_57\n      0x04\n      dup1\n      calldatasize\n      sub\n      dup2\n      add\n      swap1\n      tag_58\n      swap2\n      swap1\n      tag_55\n      jump\t// in\n    tag_58:\n      tag_59\n      jump\t// in\n    tag_57:\n      mload(0x40)\n      tag_60\n      swap2\n      swap1\n      tag_48\n      jump\t// in\n    tag_60:\n      mload(0x40)\n      dup1\n      swap2\n      sub\n      swap1\n      return\n        /* \"RoleAccess.sol\":881:952  bytes32 public constant AUDITOR_ROLE        = keccak256(\"AUDITOR_ROLE\") */\n    tag_12:\n      tag_61\n      tag_62\n      jump\t// in\n    tag_61:\n      mload(0x40)\n      tag_63\n      swap2\n      swap1\n      tag_38\n      jump\t// in\n    tag_63:\n      mload(0x40)\n      dup1\n      swap2\n      sub\n      swap1\n      return\n        /* \"RoleAccess.sol\":958:1028  bytes32 public constant LOGGER_ROLE         = keccak256(\"LOGGER_ROLE\") */\n    tag_13:\n      tag_64\n      tag_65\n      jump\t// in\n    tag_64:\n      mload(0x40)\n      tag_66\n      swap2\n      swap1\n      tag_38\n      jump\t// in\n    tag_66:\n      mload(0x40)\n      dup1\n      swap2\n      sub\n      swap1\n      return\n        /* \"RoleAccess.sol\":3653:3892  function renounceRole(bytes32 role) external {... */\n    tag_14:\n      tag_67\n      0x04\n      dup1\n      calldatasize\n      sub\n      dup2\n      add\n      swap1\n      tag_68\n      swap2\n      swap1\n      tag_69\n      jump\t// in\n    tag_68:\n      tag_70\n      jump\t// in\n    tag_67:\n      stop\n        /* \"RoleAccess.sol\":2735:2855  function hasRole(bytes32 role, address account) public view returns (bool) {... */\n    tag_15:\n      tag_71\n      0x04\n      dup1\n      calldatasize\n      sub\n      dup2\n      add\n      swap1\n      tag_72\n      swap2\n      swap1\n      tag_33\n      jump\t// in\n    tag_72:\n      tag_73\n      jump\t// in\n    tag_71:\n      mload(0x40)\n      tag_74\n      swap2\n      swap1\n      tag_75\n      jump\t// in\n    tag_74:\n      mload(0x40)\n      dup1\n      swap2\n      sub\n      swap1\n      return\n        /* \"SchemeConfig.sol\":6230:6331  function getAllSchemeIds() external view returns (uint256[] memory) {... */\n    tag_16:\n      tag_76\n      tag_77\n      jump\t// in\n    tag_76:\n      mload(0x40)\n      tag_78\n      swap2\n      swap1\n      tag_79\n      jump\t// in\n    tag_78:\n      mload(0x40)\n      dup1\n      swap2\n      sub\n      swap1\n      return\n        /* \"SchemeConfig.sol\":1476:1502  uint256[] public schemeIds */\n    tag_17:\n      tag_80\n      0x04\n      dup1\n      calldatasize\n      sub\n      dup2\n      add\n      swap1\n      tag_81\n      swap2\n      swap1\n      tag_55\n      jump\t// in\n    tag_81:\n      tag_82\n      jump\t// in\n    tag_80:\n      mload(0x40)\n      tag_83\n      swap2\n      swap1\n      tag_48\n      jump\t// in\n    tag_83:\n      mload(0x40)\n      dup1\n      swap2\n      sub\n      swap1\n      return\n        /* \"RoleAccess.sol\":564:641  bytes32 public constant DEFAULT_ADMIN_ROLE  = keccak256(\"DEFAULT_ADMIN_ROLE\") */\n    tag_18:\n      tag_84\n      tag_85\n      jump\t// in\n    tag_84:\n      mload(0x40)\n      tag_86\n      swap2\n      swap1\n      tag_38\n      jump\t// in\n    tag_86:\n      mload(0x40)\n      dup1\n      swap2\n      sub\n      swap1\n      return\n        /* \"SchemeConfig.sol\":3571:4170  function addScheme(... */\n    tag_19:\n      tag_87\n      0x04\n      dup1\n      calldatasize\n      sub\n      dup2\n      add\n      swap1\n      tag_88\n      swap2\n      swap1\n      tag_89\n      jump\t// in\n    tag_88:\n      tag_90\n      jump\t// in\n    tag_87:\n      mload(0x40)\n      tag_91\n      swap2\n      swap1\n      tag_48\n      jump\t// in\n    tag_91:\n      mload(0x40)\n      dup1\n      swap2\n      sub\n      swap1\n      return\n        /* \"RoleAccess.sol\":803:875  bytes32 public constant TREASURY_ROLE       = keccak256(\"TREASURY_ROLE\") */\n    tag_20:\n      tag_92\n      tag_93\n      jump\t// in\n    tag_92:\n      mload(0x40)\n      tag_94\n      swap2\n      swap1\n      tag_38\n      jump\t// in\n    tag_94:\n      mload(0x40)\n      dup1\n      swap2\n      sub\n      swap1\n      return\n        /* \"RoleAccess.sol\":3324:3580  function revokeRole(bytes32 role, address account) external onlyAdmin {... */\n    tag_21:\n      tag_95\n      0x04\n      dup1\n      calldatasize\n      sub\n      dup2\n      add\n      swap1\n      tag_96\n      swap2\n      swap1\n      tag_33\n      jump\t// in\n    tag_96:\n      tag_97\n      jump\t// in\n    tag_95:\n      stop\n        /* \"SchemeConfig.sol\":5497:5709  function getScheme(uint256 schemeId) external view returns (Scheme memory) {... */\n    tag_22:\n      tag_98\n      0x04\n      dup1\n      calldatasize\n      sub\n      dup2\n      add\n      swap1\n      tag_99\n      swap2\n      swap1\n      tag_55\n      jump\t// in\n    tag_99:\n      tag_100\n      jump\t// in\n    tag_98:\n      mload(0x40)\n      tag_101\n      swap2\n      swap1\n      tag_102\n      jump\t// in\n    tag_101:\n      mload(0x40)\n      dup1\n      swap2\n      sub\n      swap1\n      return\n        /* \"SchemeConfig.sol\":5770:5889  function isSchemeActive(uint256 schemeId) external view returns (bool) {... */\n    tag_23:\n      tag_103\n      0x04\n      dup1\n      calldatasize\n      sub\n      dup2\n      add\n      swap1\n      tag_104\n      swap2\n      swap1\n      tag_55\n      jump\t// in\n    tag_104:\n      tag_105\n      jump\t// in\n    tag_103:\n      mload(0x40)\n      tag_106\n      swap2\n      swap1\n      tag_75\n      jump\t// in\n    tag_106:\n      mload(0x40)\n      dup1\n      swap2\n      sub\n      swap1\n      return\n        /* \"RoleAccess.sol\":3976:4311  function grantMultipleRoles(bytes32[] calldata roles, address account) external onlyAdmin {... */\n    tag_30:\n        /* \"RoleAccess.sol\":2438:2444  _roles */\n      0x00\n        /* \"RoleAccess.sol\":2438:2464  _roles[DEFAULT_ADMIN_ROLE] */\n      0x00\n        /* \"RoleAccess.sol\":610:641  keccak256(\"DEFAULT_ADMIN_ROLE\") */\n      0x1effbbff9c66c5e59634f24fe842750c60d18891155c32dd155fc2d661a4c86d\n        /* \"RoleAccess.sol\":2438:2464  _roles[DEFAULT_ADMIN_ROLE] */\n      dup2\n      mstore\n      0x20\n      add\n      swap1\n      dup2\n      mstore\n      0x20\n      add\n      0x00\n      keccak256\n        /* \"RoleAccess.sol\":2438:2476  _roles[DEFAULT_ADMIN_ROLE][msg.sender] */\n      0x00\n        /* \"RoleAccess.sol\":2465:2475  msg.sender */\n      caller\n        /* \"RoleAccess.sol\":2438:2476  _roles[DEFAULT_ADMIN_ROLE][msg.sender] */\n      0xffffffffffffffffffffffffffffffffffffffff\n      and\n      0xffffffffffffffffffffffffffffffffffffffff\n      and\n      dup2\n      mstore\n      0x20\n      add\n      swap1\n      dup2\n      mstore\n      0x20\n      add\n      0x00\n      keccak256\n      0x00\n      swap1\n      sload\n      swap1\n      0x0100\n      exp\n      swap1\n      div\n      0xff\n      and\n        /* \"RoleAccess.sol\":2430:2512  require(_roles[DEFAULT_ADMIN_ROLE][msg.sender], \"RoleAccess: caller is not admin\") */\n      tag_108\n      jumpi\n      mload(0x40)\n      0x08c379a000000000000000000000000000000000000000000000000000000000\n      dup2\n      mstore\n      0x04\n      add\n      tag_109\n      swap1\n      tag_110\n      jump\t// in\n    tag_109:\n      mload(0x40)\n      dup1\n      swap2\n      sub\n      swap1\n      revert\n    tag_108:\n        /* \"RoleAccess.sol\":4081:4090  uint256 i */\n      0x00\n        /* \"RoleAccess.sol\":4093:4094  0 */\n      0x00\n        /* \"RoleAccess.sol\":4081:4094  uint256 i = 0 */\n      swap1\n      pop\n        /* \"RoleAccess.sol\":4076:4305  for (uint256 i = 0; i < roles.length; i++) {... */\n    tag_112:\n        /* \"RoleAccess.sol\":4100:4105  roles */\n      dup4\n      dup4\n        /* \"RoleAccess.sol\":4100:4112  roles.length */\n      swap1\n      pop\n        /* \"RoleAccess.sol\":4096:4097  i */\n      dup2\n        /* \"RoleAccess.sol\":4096:4112  i < roles.length */\n      lt\n        /* \"RoleAccess.sol\":4076:4305  for (uint256 i = 0; i < roles.length; i++) {... */\n      iszero\n      tag_113\n      jumpi\n        /* \"RoleAccess.sol\":4138:4144  _roles */\n      0x00\n        /* \"RoleAccess.sol\":4138:4154  _roles[roles[i]] */\n      0x00\n        /* \"RoleAccess.sol\":4145:4150  roles */\n      dup6\n      dup6\n        /* \"RoleAccess.sol\":4151:4152  i */\n      dup5\n        /* \"RoleAccess.sol\":4145:4153  roles[i] */\n      dup2\n      dup2\n      lt\n      tag_115\n      jumpi\n      tag_116\n      tag_117\n      jump\t// in\n    tag_116:\n    tag_115:\n      swap1\n      pop\n      0x20\n      mul\n      add\n      calldataload\n        /* \"RoleAccess.sol\":4138:4154  _roles[roles[i]] */\n      dup2\n      mstore\n      0x20\n      add\n      swap1\n      dup2\n      mstore\n      0x20\n      add\n      0x00\n      keccak256\n        /* \"RoleAccess.sol\":4138:4163  _roles[roles[i]][account] */\n      0x00\n        /* \"RoleAccess.sol\":4155:4162  account */\n      dup4\n        /* \"RoleAccess.sol\":4138:4163  _roles[roles[i]][account] */\n      0xffffffffffffffffffffffffffffffffffffffff\n      and\n      0xffffffffffffffffffffffffffffffffffffffff\n      and\n      dup2\n      mstore\n      0x20\n      add\n      swap1\n      dup2\n      mstore\n      0x20\n      add\n      0x00\n      keccak256\n      0x00\n      swap1\n      sload\n      swap1\n      0x0100\n      exp\n      swap1\n      div\n      0xff\n      and\n        /* \"RoleAccess.sol\":4133:4295  if (!_roles[roles[i]][account]) {... */\n      tag_118\n      jumpi\n        /* \"RoleAccess.sol\":4211:4215  true */\n      0x01\n        /* \"RoleAccess.sol\":4183:4189  _roles */\n      0x00\n        /* \"RoleAccess.sol\":4183:4199  _roles[roles[i]] */\n      0x00\n        /* \"RoleAccess.sol\":4190:4195  roles */\n      dup7\n      dup7\n        /* \"RoleAccess.sol\":4196:4197  i */\n      dup6\n        /* \"RoleAccess.sol\":4190:4198  roles[i] */\n      dup2\n      dup2\n      lt\n      tag_119\n      jumpi\n      tag_120\n      tag_117\n      jump\t// in\n    tag_120:\n    tag_119:\n      swap1\n      pop\n      0x20\n      mul\n      add\n      calldataload\n        /* \"RoleAccess.sol\":4183:4199  _roles[roles[i]] */\n      dup2\n      mstore\n      0x20\n      add\n      swap1\n      dup2\n      mstore\n      0x20\n      add\n      0x00\n      keccak256\n        /* \"RoleAccess.sol\":4183:4208  _roles[roles[i]][account] */\n      0x00\n        /* \"RoleAccess.sol\":4200:4207  account */\n      dup5\n        /* \"RoleAccess.sol\":4183:4208  _roles[roles[i]][account] */\n      0xffffffffffffffffffffffffffffffffffffffff\n      and\n      0xffffffffffffffffffffffffffffffffffffffff\n      and\n      dup2\n      mstore\n      0x20\n      add\n      swap1\n      dup2\n      mstore\n      0x20\n      add\n      0x00\n      keccak256\n      0x00\n        /* \"RoleAccess.sol\":4183:4215  _roles[roles[i]][account] = true */\n      0x0100\n      exp\n      dup2\n      sload\n      dup2\n      0xff\n      mul\n      not\n      and\n      swap1\n      dup4\n      iszero\n      iszero\n      mul\n      or\n      swap1\n      sstore\n      pop\n        /* \"RoleAccess.sol\":4269:4279  msg.sender */\n      caller\n        /* \"RoleAccess.sol\":4238:4280  RoleGranted(roles[i], account, msg.sender) */\n      0xffffffffffffffffffffffffffffffffffffffff\n      and\n        /* \"RoleAccess.sol\":4260:4267  account */\n      dup3\n        /* \"RoleAccess.sol\":4238:4280  RoleGranted(roles[i], account, msg.sender) */\n      0xffffffffffffffffffffffffffffffffffffffff\n      and\n        /* \"RoleAccess.sol\":4250:4255  roles */\n      dup6\n      dup6\n        /* \"RoleAccess.sol\":4256:4257  i */\n      dup5\n        /* \"RoleAccess.sol\":4250:4258  roles[i] */\n      dup2\n      dup2\n      lt\n      tag_121\n      jumpi\n      tag_122\n      tag_117\n      jump\t// in\n    tag_122:\n    tag_121:\n      swap1\n      pop\n      0x20\n      mul\n      add\n      calldataload\n        /* \"RoleAccess.sol\":4238:4280  RoleGranted(roles[i], account, msg.sender) */\n      0x2f8788117e7eff1d82e926ec794901d17c78024a50270940304540a733656f0d\n      mload(0x40)\n      mload(0x40)\n      dup1\n      swap2\n      sub\n      swap1\n      log4\n        /* \"RoleAccess.sol\":4133:4295  if (!_roles[roles[i]][account]) {... */\n    tag_118:\n        /* \"RoleAccess.sol\":4114:4117  i++ */\n      dup1\n      dup1\n      0x01\n      add\n      swap2\n      pop\n      pop\n        /* \"RoleAccess.sol\":4076:4305  for (uint256 i = 0; i < roles.length; i++) {... */\n      jump(tag_112)\n    tag_113:\n      pop\n        /* \"RoleAccess.sol\":3976:4311  function grantMultipleRoles(bytes32[] calldata roles, address account) external onlyAdmin {... */\n      pop\n      pop\n      pop\n      jump\t// out\n        /* \"RoleAccess.sol\":2917:3259  function grantRole(bytes32 role, address account) external onlyAdmin {... */\n    tag_34:\n        /* \"RoleAccess.sol\":2438:2444  _roles */\n      0x00\n        /* \"RoleAccess.sol\":2438:2464  _roles[DEFAULT_ADMIN_ROLE] */\n      0x00\n        /* \"RoleAccess.sol\":610:641  keccak256(\"DEFAULT_ADMIN_ROLE\") */\n      0x1effbbff9c66c5e59634f24fe842750c60d18891155c32dd155fc2d661a4c86d\n        /* \"RoleAccess.sol\":2438:2464  _roles[DEFAULT_ADMIN_ROLE] */\n      dup2\n      mstore\n      0x20\n      add\n      swap1\n      dup2\n      mstore\n      0x20\n      add\n      0x00\n      keccak256\n        /* \"RoleAccess.sol\":2438:2476  _roles[DEFAULT_ADMIN_ROLE][msg.sender] */\n      0x00\n        /* \"RoleAccess.sol\":2465:2475  msg.sender */\n      caller\n        /* \"RoleAccess.sol\":2438:2476  _roles[DEFAULT_ADMIN_ROLE][msg.sender] */\n      0xffffffffffffffffffffffffffffffffffffffff\n      and\n      0xffffffffffffffffffffffffffffffffffffffff\n      and\n      dup2\n      mstore\n      0x20\n      add\n      swap1\n      dup2\n      mstore\n      0x20\n      add\n      0x00\n      keccak256\n      0x00\n      swap1\n      sload\n      swap1\n      0x0100\n      exp\n      swap1\n      div\n      0xff\n      and\n        /* \"RoleAccess.sol\":2430:2512  require(_roles[DEFAULT_ADMIN_ROLE][msg.sender], \"RoleAccess: caller is not admin\") */\n      tag_124\n      jumpi\n      mload(0x40)\n      0x08c379a000000000000000000000000000000000000000000000000000000000\n      dup2\n      mstore\n      0x04\n      add\n      tag_125\n      swap1\n      tag_110\n      jump\t// in\n    tag_125:\n      mload(0x40)\n      dup1\n      swap2\n      sub\n      swap1\n      revert\n    tag_124:\n        /* \"RoleAccess.sol\":3023:3024  0 */\n      0x00\n        /* \"RoleAccess.sol\":3004:3025  account != address(0) */\n      0xffffffffffffffffffffffffffffffffffffffff\n      and\n        /* \"RoleAccess.sol\":3004:3011  account */\n      dup2\n        /* \"RoleAccess.sol\":3004:3025  account != address(0) */\n      0xffffffffffffffffffffffffffffffffffffffff\n      and\n      sub\n        /* \"RoleAccess.sol\":2996:3075  require(account != address(0), \"RoleAccess: cannot grant role to zero address\") */\n      tag_127\n      jumpi\n      mload(0x40)\n      0x08c379a000000000000000000000000000000000000000000000000000000000\n      dup2\n      mstore\n      0x04\n      add\n      tag_128\n      swap1\n      tag_129\n      jump\t// in\n    tag_128:\n      mload(0x40)\n      dup1\n      swap2\n      sub\n      swap1\n      revert\n    tag_127:\n        /* \"RoleAccess.sol\":3094:3100  _roles */\n      0x00\n        /* \"RoleAccess.sol\":3094:3106  _roles[role] */\n      0x00\n        /* \"RoleAccess.sol\":3101:3105  role */\n      dup4\n        /* \"RoleAccess.sol\":3094:3106  _roles[role] */\n      dup2\n      mstore\n      0x20\n      add\n      swap1\n      dup2\n      mstore\n      0x20\n      add\n      0x00\n      keccak256\n        /* \"RoleAccess.sol\":3094:3115  _roles[role][account] */\n      0x00\n        /* \"RoleAccess.sol\":3107:3114  account */\n      dup3\n        /* \"RoleAccess.sol\":3094:3115  _roles[role][account] */\n      0xffffffffffffffffffffffffffffffffffffffff\n      and\n      0xffffffffffffffffffffffffffffffffffffffff\n      and\n      dup2\n      mstore\n      0x20\n      add\n      swap1\n      dup2\n      mstore\n      0x20\n      add\n      0x00\n      keccak256\n      0x00\n      swap1\n      sload\n      swap1\n      0x0100\n      exp\n      swap1\n      div\n      0xff\n      and\n        /* \"RoleAccess.sol\":3093:3115  !_roles[role][account] */\n      iszero\n        /* \"RoleAccess.sol\":3085:3161  require(!_roles[role][account], \"RoleAccess: account already has this role\") */\n      tag_130\n      jumpi\n      mload(0x40)\n      0x08c379a000000000000000000000000000000000000000000000000000000000\n      dup2\n      mstore\n      0x04\n      add\n      tag_131\n      swap1\n      tag_132\n      jump\t// in\n    tag_131:\n      mload(0x40)\n      dup1\n      swap2\n      sub\n      swap1\n      revert\n    tag_130:\n        /* \"RoleAccess.sol\":3195:3199  true */\n      0x01\n        /* \"RoleAccess.sol\":3171:3177  _roles */\n      0x00\n        /* \"RoleAccess.sol\":3171:3183  _roles[role] */\n      0x00\n        /* \"RoleAccess.sol\":3178:3182  role */\n      dup5\n        /* \"RoleAccess.sol\":3171:3183  _roles[role] */\n      dup2\n      mstore\n      0x20\n      add\n      swap1\n      dup2\n      mstore\n      0x20\n      add\n      0x00\n      keccak256\n        /* \"RoleAccess.sol\":3171:3192  _roles[role][account] */\n      0x00\n        /* \"RoleAccess.sol\":3184:3191  account */\n      dup4\n        /* \"RoleAccess.sol\":3171:3192  _roles[role][account] */\n      0xffffffffffffffffffffffffffffffffffffffff\n      and\n      0xffffffffffffffffffffffffffffffffffffffff\n      and\n      dup2\n      mstore\n      0x20\n      add\n      swap1\n      dup2\n      mstore\n      0x20\n      add\n      0x00\n      keccak256\n      0x00\n        /* \"RoleAccess.sol\":3171:3199  _roles[role][account] = true */\n      0x0100\n      exp\n      dup2\n      sload\n      dup2\n      0xff\n      mul\n      not\n      and\n      swap1\n      dup4\n      iszero\n      iszero\n      mul\n      or\n      swap1\n      sstore\n      pop\n        /* \"RoleAccess.sol\":3241:3251  msg.sender */\n      caller\n        /* \"RoleAccess.sol\":3214:3252  RoleGranted(role, account, msg.sender) */\n      0xffffffffffffffffffffffffffffffffffffffff\n      and\n        /* \"RoleAccess.sol\":3232:3239  account */\n      dup2\n        /* \"RoleAccess.sol\":3214:3252  RoleGranted(role, account, msg.sender) */\n      0xffffffffffffffffffffffffffffffffffffffff\n      and\n        /* \"RoleAccess.sol\":3226:3230  role */\n      dup4\n        /* \"RoleAccess.sol\":3214:3252  RoleGranted(role, account, msg.sender) */\n      0x2f8788117e7eff1d82e926ec794901d17c78024a50270940304540a733656f0d\n      mload(0x40)\n      mload(0x40)\n      dup1\n      swap2\n      sub\n      swap1\n      log4\n        /* \"RoleAccess.sol\":2917:3259  function grantRole(bytes32 role, address account) external onlyAdmin {... */\n      pop\n      pop\n      jump\t// out\n        /* \"RoleAccess.sol\":647:719  bytes32 public constant REVIEWER_ROLE       = keccak256(\"REVIEWER_ROLE\") */\n    tag_36:\n        /* \"RoleAccess.sol\":693:719  keccak256(\"REVIEWER_ROLE\") */\n      0xc10c77be35aff266144ed64c26a1fa104bae2f284ae99ac4a34203454704a185\n        /* \"RoleAccess.sol\":647:719  bytes32 public constant REVIEWER_ROLE       = keccak256(\"REVIEWER_ROLE\") */\n      dup2\n      jump\t// out\n        /* \"RoleAccess.sol\":725:797  bytes32 public constant APPROVER_ROLE       = keccak256(\"APPROVER_ROLE\") */\n    tag_40:\n        /* \"RoleAccess.sol\":771:797  keccak256(\"APPROVER_ROLE\") */\n      0x408a36151f841709116a4e8aca4e0202874f7f54687dcb863b1ea4672dc9d8cf\n        /* \"RoleAccess.sol\":725:797  bytes32 public constant APPROVER_ROLE       = keccak256(\"APPROVER_ROLE\") */\n      dup2\n      jump\t// out\n        /* \"RoleAccess.sol\":1034:1106  bytes32 public constant REGISTRY_ROLE       = keccak256(\"REGISTRY_ROLE\") */\n    tag_43:\n        /* \"RoleAccess.sol\":1080:1106  keccak256(\"REGISTRY_ROLE\") */\n      0xc2979137d1774e40fe2638d355bf7a7b092be4c67f242aad1655e1e27f9df9cc\n        /* \"RoleAccess.sol\":1034:1106  bytes32 public constant REGISTRY_ROLE       = keccak256(\"REGISTRY_ROLE\") */\n      dup2\n      jump\t// out\n        /* \"SchemeConfig.sol\":6381:6477  function totalSchemes() external view returns (uint256) {... */\n    tag_46:\n        /* \"SchemeConfig.sol\":6428:6435  uint256 */\n      0x00\n        /* \"SchemeConfig.sol\":6454:6463  schemeIds */\n      0x02\n        /* \"SchemeConfig.sol\":6454:6470  schemeIds.length */\n      dup1\n      sload\n      swap1\n      pop\n        /* \"SchemeConfig.sol\":6447:6470  return schemeIds.length */\n      swap1\n      pop\n        /* \"SchemeConfig.sol\":6381:6477  function totalSchemes() external view returns (uint256) {... */\n      swap1\n      jump\t// out\n        /* \"SchemeConfig.sol\":4230:4880  function updateScheme(... */\n    tag_52:\n        /* \"RoleAccess.sol\":2438:2444  _roles */\n      0x00\n        /* \"RoleAccess.sol\":2438:2464  _roles[DEFAULT_ADMIN_ROLE] */\n      0x00\n        /* \"RoleAccess.sol\":610:641  keccak256(\"DEFAULT_ADMIN_ROLE\") */\n      0x1effbbff9c66c5e59634f24fe842750c60d18891155c32dd155fc2d661a4c86d\n        /* \"RoleAccess.sol\":2438:2464  _roles[DEFAULT_ADMIN_ROLE] */\n      dup2\n      mstore\n      0x20\n      add\n      swap1\n      dup2\n      mstore\n      0x20\n      add\n      0x00\n      keccak256\n        /* \"RoleAccess.sol\":2438:2476  _roles[DEFAULT_ADMIN_ROLE][msg.sender] */\n      0x00\n        /* \"RoleAccess.sol\":2465:2475  msg.sender */\n      caller\n        /* \"RoleAccess.sol\":2438:2476  _roles[DEFAULT_ADMIN_ROLE][msg.sender] */\n      0xffffffffffffffffffffffffffffffffffffffff\n      and\n      0xffffffffffffffffffffffffffffffffffffffff\n      and\n      dup2\n      mstore\n      0x20\n      add\n      swap1\n      dup2\n      mstore\n      0x20\n      add\n      0x00\n      keccak256\n      0x00\n      swap1\n      sload\n      swap1\n      0x0100\n      exp\n      swap1\n      div\n      0xff\n      and\n        /* \"RoleAccess.sol\":2430:2512  require(_roles[DEFAULT_ADMIN_ROLE][msg.sender], \"RoleAccess: caller is not admin\") */\n      tag_135\n      jumpi\n      mload(0x40)\n      0x08c379a000000000000000000000000000000000000000000000000000000000\n      dup2\n      mstore\n      0x04\n      add\n      tag_136\n      swap1\n      tag_110\n      jump\t// in\n    tag_136:\n      mload(0x40)\n      dup1\n      swap2\n      sub\n      swap1\n      revert\n    tag_135:\n        /* \"SchemeConfig.sol\":4485:4493  schemeId */\n      dup7\n        /* \"SchemeConfig.sol\":4455:4462  schemes */\n      0x01\n        /* \"SchemeConfig.sol\":4455:4472  schemes[schemeId] */\n      0x00\n        /* \"SchemeConfig.sol\":4463:4471  schemeId */\n      dup10\n        /* \"SchemeConfig.sol\":4455:4472  schemes[schemeId] */\n      dup2\n      mstore\n      0x20\n      add\n      swap1\n      dup2\n      mstore\n      0x20\n      add\n      0x00\n      keccak256\n        /* \"SchemeConfig.sol\":4455:4481  schemes[schemeId].schemeId */\n      0x00\n      add\n      sload\n        /* \"SchemeConfig.sol\":4455:4493  schemes[schemeId].schemeId == schemeId */\n      eq\n        /* \"SchemeConfig.sol\":4447:4533  require(schemes[schemeId].schemeId == schemeId, \"SchemeConfig: scheme does not exist\") */\n      tag_138\n      jumpi\n      mload(0x40)\n      0x08c379a000000000000000000000000000000000000000000000000000000000\n      dup2\n      mstore\n      0x04\n      add\n      tag_139\n      swap1\n      tag_140\n      jump\t// in\n    tag_139:\n      mload(0x40)\n      dup1\n      swap2\n      sub\n      swap1\n      revert\n    tag_138:\n        /* \"SchemeConfig.sol\":4543:4559  Scheme storage s */\n      0x00\n        /* \"SchemeConfig.sol\":4562:4569  schemes */\n      0x01\n        /* \"SchemeConfig.sol\":4562:4579  schemes[schemeId] */\n      0x00\n        /* \"SchemeConfig.sol\":4570:4578  schemeId */\n      dup10\n        /* \"SchemeConfig.sol\":4562:4579  schemes[schemeId] */\n      dup2\n      mstore\n      0x20\n      add\n      swap1\n      dup2\n      mstore\n      0x20\n      add\n      0x00\n      keccak256\n        /* \"SchemeConfig.sol\":4543:4579  Scheme storage s = schemes[schemeId] */\n      swap1\n      pop\n        /* \"SchemeConfig.sol\":4610:4614  name */\n      dup7\n      dup7\n        /* \"SchemeConfig.sol\":4589:4590  s */\n      dup3\n        /* \"SchemeConfig.sol\":4589:4595  s.name */\n      0x01\n      add\n        /* \"SchemeConfig.sol\":4589:4614  s.name             = name */\n      swap2\n      dup3\n      tag_141\n      swap3\n      swap2\n      swap1\n      tag_142\n      jump\t// in\n    tag_141:\n      pop\n        /* \"SchemeConfig.sol\":4645:4658  monthlyAmount */\n      dup5\n        /* \"SchemeConfig.sol\":4624:4625  s */\n      dup2\n        /* \"SchemeConfig.sol\":4624:4639  s.monthlyAmount */\n      0x02\n      add\n        /* \"SchemeConfig.sol\":4624:4658  s.monthlyAmount    = monthlyAmount */\n      dup2\n      swap1\n      sstore\n      pop\n        /* \"SchemeConfig.sol\":4689:4695  minAge */\n      dup4\n        /* \"SchemeConfig.sol\":4668:4669  s */\n      dup2\n        /* \"SchemeConfig.sol\":4668:4681  s.minAgeLimit */\n      0x03\n      add\n        /* \"SchemeConfig.sol\":4668:4695  s.minAgeLimit      = minAge */\n      dup2\n      swap1\n      sstore\n      pop\n        /* \"SchemeConfig.sol\":4726:4732  maxAge */\n      dup3\n        /* \"SchemeConfig.sol\":4705:4706  s */\n      dup2\n        /* \"SchemeConfig.sol\":4705:4718  s.maxAgeLimit */\n      0x04\n      add\n        /* \"SchemeConfig.sol\":4705:4732  s.maxAgeLimit      = maxAge */\n      dup2\n      swap1\n      sstore\n      pop\n        /* \"SchemeConfig.sol\":4764:4771  maxDays */\n      dup2\n        /* \"SchemeConfig.sol\":4742:4743  s */\n      dup2\n        /* \"SchemeConfig.sol\":4742:4761  s.maxProcessingDays */\n      0x05\n      add\n        /* \"SchemeConfig.sol\":4742:4771  s.maxProcessingDays = maxDays */\n      dup2\n      swap1\n      sstore\n      pop\n        /* \"SchemeConfig.sol\":4802:4817  block.timestamp */\n      timestamp\n        /* \"SchemeConfig.sol\":4781:4782  s */\n      dup2\n        /* \"SchemeConfig.sol\":4781:4792  s.updatedAt */\n      0x08\n      add\n        /* \"SchemeConfig.sol\":4781:4817  s.updatedAt        = block.timestamp */\n      dup2\n      swap1\n      sstore\n      pop\n        /* \"SchemeConfig.sol\":4846:4854  schemeId */\n      dup8\n        /* \"SchemeConfig.sol\":4832:4873  SchemeUpdated(schemeId, name, msg.sender) */\n      0x1050721e481acb6e546ac7bab9c37390f8a4ca9b8b4d38f64c3245270e1b3b96\n        /* \"SchemeConfig.sol\":4856:4860  name */\n      dup9\n      dup9\n        /* \"SchemeConfig.sol\":4862:4872  msg.sender */\n      caller\n        /* \"SchemeConfig.sol\":4832:4873  SchemeUpdated(schemeId, name, msg.sender) */\n      mload(0x40)\n      tag_143\n      swap4\n      swap3\n      swap2\n      swap1\n      tag_144\n      jump\t// in\n    tag_143:\n      mload(0x40)\n      dup1\n      swap2\n      sub\n      swap1\n      log2\n        /* \"SchemeConfig.sol\":4437:4880  {... */\n      pop\n        /* \"SchemeConfig.sol\":4230:4880  function updateScheme(... */\n      pop\n      pop\n      pop\n      pop\n      pop\n      pop\n      pop\n      jump\t// out\n        /* \"SchemeConfig.sol\":4945:5300  function toggleScheme(uint256 schemeId) external onlyAdmin {... */\n    tag_56:\n        /* \"RoleAccess.sol\":2438:2444  _roles */\n      0x00\n        /* \"RoleAccess.sol\":2438:2464  _roles[DEFAULT_ADMIN_ROLE] */\n      0x00\n        /* \"RoleAccess.sol\":610:641  keccak256(\"DEFAULT_ADMIN_ROLE\") */\n      0x1effbbff9c66c5e59634f24fe842750c60d18891155c32dd155fc2d661a4c86d\n        /* \"RoleAccess.sol\":2438:2464  _roles[DEFAULT_ADMIN_ROLE] */\n      dup2\n      mstore\n      0x20\n      add\n      swap1\n      dup2\n      mstore\n      0x20\n      add\n      0x00\n      keccak256\n        /* \"RoleAccess.sol\":2438:2476  _roles[DEFAULT_ADMIN_ROLE][msg.sender] */\n      0x00\n        /* \"RoleAccess.sol\":2465:2475  msg.sender */\n      caller\n        /* \"RoleAccess.sol\":2438:2476  _roles[DEFAULT_ADMIN_ROLE][msg.sender] */\n      0xffffffffffffffffffffffffffffffffffffffff\n      and\n      0xffffffffffffffffffffffffffffffffffffffff\n      and\n      dup2\n      mstore\n      0x20\n      add\n      swap1\n      dup2\n      mstore\n      0x20\n      add\n      0x00\n      keccak256\n      0x00\n      swap1\n      sload\n      swap1\n      0x0100\n      exp\n      swap1\n      div\n      0xff\n      and\n        /* \"RoleAccess.sol\":2430:2512  require(_roles[DEFAULT_ADMIN_ROLE][msg.sender], \"RoleAccess: caller is not admin\") */\n      tag_146\n      jumpi\n      mload(0x40)\n      0x08c379a000000000000000000000000000000000000000000000000000000000\n      dup2\n      mstore\n      0x04\n      add\n      tag_147\n      swap1\n      tag_110\n      jump\t// in\n    tag_147:\n      mload(0x40)\n      dup1\n      swap2\n      sub\n      swap1\n      revert\n    tag_146:\n        /* \"SchemeConfig.sol\":5052:5060  schemeId */\n      dup1\n        /* \"SchemeConfig.sol\":5022:5029  schemes */\n      0x01\n        /* \"SchemeConfig.sol\":5022:5039  schemes[schemeId] */\n      0x00\n        /* \"SchemeConfig.sol\":5030:5038  schemeId */\n      dup4\n        /* \"SchemeConfig.sol\":5022:5039  schemes[schemeId] */\n      dup2\n      mstore\n      0x20\n      add\n      swap1\n      dup2\n      mstore\n      0x20\n      add\n      0x00\n      keccak256\n        /* \"SchemeConfig.sol\":5022:5048  schemes[schemeId].schemeId */\n      0x00\n      add\n      sload\n        /* \"SchemeConfig.sol\":5022:5060  schemes[schemeId].schemeId == schemeId */\n      eq\n        /* \"SchemeConfig.sol\":5014:5100  require(schemes[schemeId].schemeId == schemeId, \"SchemeConfig: scheme does not exist\") */\n      tag_149\n      jumpi\n      mload(0x40)\n      0x08c379a000000000000000000000000000000000000000000000000000000000\n      dup2\n      mstore\n      0x04\n      add\n      tag_150\n      swap1\n      tag_140\n      jump\t// in\n    tag_150:\n      mload(0x40)\n      dup1\n      swap2\n      sub\n      swap1\n      revert\n    tag_149:\n        /* \"SchemeConfig.sol\":5138:5145  schemes */\n      0x01\n        /* \"SchemeConfig.sol\":5138:5155  schemes[schemeId] */\n      0x00\n        /* \"SchemeConfig.sol\":5146:5154  schemeId */\n      dup3\n        /* \"SchemeConfig.sol\":5138:5155  schemes[schemeId] */\n      dup2\n      mstore\n      0x20\n      add\n      swap1\n      dup2\n      mstore\n      0x20\n      add\n      0x00\n      keccak256\n        /* \"SchemeConfig.sol\":5138:5162  schemes[schemeId].active */\n      0x06\n      add\n      0x00\n      swap1\n      sload\n      swap1\n      0x0100\n      exp\n      swap1\n      div\n      0xff\n      and\n        /* \"SchemeConfig.sol\":5137:5162  !schemes[schemeId].active */\n      iszero\n        /* \"SchemeConfig.sol\":5110:5117  schemes */\n      0x01\n        /* \"SchemeConfig.sol\":5110:5127  schemes[schemeId] */\n      0x00\n        /* \"SchemeConfig.sol\":5118:5126  schemeId */\n      dup4\n        /* \"SchemeConfig.sol\":5110:5127  schemes[schemeId] */\n      dup2\n      mstore\n      0x20\n      add\n      swap1\n      dup2\n      mstore\n      0x20\n      add\n      0x00\n      keccak256\n        /* \"SchemeConfig.sol\":5110:5134  schemes[schemeId].active */\n      0x06\n      add\n      0x00\n        /* \"SchemeConfig.sol\":5110:5162  schemes[schemeId].active = !schemes[schemeId].active */\n      0x0100\n      exp\n      dup2\n      sload\n      dup2\n      0xff\n      mul\n      not\n      and\n      swap1\n      dup4\n      iszero\n      iszero\n      mul\n      or\n      swap1\n      sstore\n      pop\n        /* \"SchemeConfig.sol\":5202:5217  block.timestamp */\n      timestamp\n        /* \"SchemeConfig.sol\":5172:5179  schemes */\n      0x01\n        /* \"SchemeConfig.sol\":5172:5189  schemes[schemeId] */\n      0x00\n        /* \"SchemeConfig.sol\":5180:5188  schemeId */\n      dup4\n        /* \"SchemeConfig.sol\":5172:5189  schemes[schemeId] */\n      dup2\n      mstore\n      0x20\n      add\n      swap1\n      dup2\n      mstore\n      0x20\n      add\n      0x00\n      keccak256\n        /* \"SchemeConfig.sol\":5172:5199  schemes[schemeId].updatedAt */\n      0x08\n      add\n        /* \"SchemeConfig.sol\":5172:5217  schemes[schemeId].updatedAt = block.timestamp */\n      dup2\n      swap1\n      sstore\n      pop\n        /* \"SchemeConfig.sol\":5246:5254  schemeId */\n      dup1\n        /* \"SchemeConfig.sol\":5232:5293  SchemeToggled(schemeId, schemes[schemeId].active, msg.sender) */\n      0x7e05af65cea9ec1934cdc67c3444fdb5ff03b9e3613aab550afa6473a85052cb\n        /* \"SchemeConfig.sol\":5256:5263  schemes */\n      0x01\n        /* \"SchemeConfig.sol\":5256:5273  schemes[schemeId] */\n      0x00\n        /* \"SchemeConfig.sol\":5264:5272  schemeId */\n      dup5\n        /* \"SchemeConfig.sol\":5256:5273  schemes[schemeId] */\n      dup2\n      mstore\n      0x20\n      add\n      swap1\n      dup2\n      mstore\n      0x20\n      add\n      0x00\n      keccak256\n        /* \"SchemeConfig.sol\":5256:5280  schemes[schemeId].active */\n      0x06\n      add\n      0x00\n      swap1\n      sload\n      swap1\n      0x0100\n      exp\n      swap1\n      div\n      0xff\n      and\n        /* \"SchemeConfig.sol\":5282:5292  msg.sender */\n      caller\n        /* \"SchemeConfig.sol\":5232:5293  SchemeToggled(schemeId, schemes[schemeId].active, msg.sender) */\n      mload(0x40)\n      tag_151\n      swap3\n      swap2\n      swap1\n      tag_152\n      jump\t// in\n    tag_151:\n      mload(0x40)\n      dup1\n      swap2\n      sub\n      swap1\n      log2\n        /* \"SchemeConfig.sol\":4945:5300  function toggleScheme(uint256 schemeId) external onlyAdmin {... */\n      pop\n      jump\t// out\n        /* \"SchemeConfig.sol\":5951:6178  function getMonthlyAmount(uint256 schemeId) external view returns (uint256) {... */\n    tag_59:\n        /* \"SchemeConfig.sol\":6018:6025  uint256 */\n      0x00\n        /* \"SchemeConfig.sol\":6075:6083  schemeId */\n      dup2\n        /* \"SchemeConfig.sol\":6045:6052  schemes */\n      0x01\n        /* \"SchemeConfig.sol\":6045:6062  schemes[schemeId] */\n      0x00\n        /* \"SchemeConfig.sol\":6053:6061  schemeId */\n      dup5\n        /* \"SchemeConfig.sol\":6045:6062  schemes[schemeId] */\n      dup2\n      mstore\n      0x20\n      add\n      swap1\n      dup2\n      mstore\n      0x20\n      add\n      0x00\n      keccak256\n        /* \"SchemeConfig.sol\":6045:6071  schemes[schemeId].schemeId */\n      0x00\n      add\n      sload\n        /* \"SchemeConfig.sol\":6045:6083  schemes[schemeId].schemeId == schemeId */\n      eq\n        /* \"SchemeConfig.sol\":6037:6123  require(schemes[schemeId].schemeId == schemeId, \"SchemeConfig: scheme does not exist\") */\n      tag_154\n      jumpi\n      mload(0x40)\n      0x08c379a000000000000000000000000000000000000000000000000000000000\n      dup2\n      mstore\n      0x04\n      add\n      tag_155\n      swap1\n      tag_140\n      jump\t// in\n    tag_155:\n      mload(0x40)\n      dup1\n      swap2\n      sub\n      swap1\n      revert\n    tag_154:\n        /* \"SchemeConfig.sol\":6140:6147  schemes */\n      0x01\n        /* \"SchemeConfig.sol\":6140:6157  schemes[schemeId] */\n      0x00\n        /* \"SchemeConfig.sol\":6148:6156  schemeId */\n      dup4\n        /* \"SchemeConfig.sol\":6140:6157  schemes[schemeId] */\n      dup2\n      mstore\n      0x20\n      add\n      swap1\n      dup2\n      mstore\n      0x20\n      add\n      0x00\n      keccak256\n        /* \"SchemeConfig.sol\":6140:6171  schemes[schemeId].monthlyAmount */\n      0x02\n      add\n      sload\n        /* \"SchemeConfig.sol\":6133:6171  return schemes[schemeId].monthlyAmount */\n      swap1\n      pop\n        /* \"SchemeConfig.sol\":5951:6178  function getMonthlyAmount(uint256 schemeId) external view returns (uint256) {... */\n      swap2\n      swap1\n      pop\n      jump\t// out\n        /* \"RoleAccess.sol\":881:952  bytes32 public constant AUDITOR_ROLE        = keccak256(\"AUDITOR_ROLE\") */\n    tag_62:\n        /* \"RoleAccess.sol\":927:952  keccak256(\"AUDITOR_ROLE\") */\n      0x59a1c48e5837ad7a7f3dcedcbe129bf3249ec4fbf651fd4f5e2600ead39fe2f5\n        /* \"RoleAccess.sol\":881:952  bytes32 public constant AUDITOR_ROLE        = keccak256(\"AUDITOR_ROLE\") */\n      dup2\n      jump\t// out\n        /* \"RoleAccess.sol\":958:1028  bytes32 public constant LOGGER_ROLE         = keccak256(\"LOGGER_ROLE\") */\n    tag_65:\n        /* \"RoleAccess.sol\":1004:1028  keccak256(\"LOGGER_ROLE\") */\n      0x566c814873eed56a69b28c40ab27cc2cb150d74068bae3e884ccd44f8de60f8a\n        /* \"RoleAccess.sol\":958:1028  bytes32 public constant LOGGER_ROLE         = keccak256(\"LOGGER_ROLE\") */\n      dup2\n      jump\t// out\n        /* \"RoleAccess.sol\":3653:3892  function renounceRole(bytes32 role) external {... */\n    tag_70:\n        /* \"RoleAccess.sol\":3716:3722  _roles */\n      0x00\n        /* \"RoleAccess.sol\":3716:3728  _roles[role] */\n      0x00\n        /* \"RoleAccess.sol\":3723:3727  role */\n      dup3\n        /* \"RoleAccess.sol\":3716:3728  _roles[role] */\n      dup2\n      mstore\n      0x20\n      add\n      swap1\n      dup2\n      mstore\n      0x20\n      add\n      0x00\n      keccak256\n        /* \"RoleAccess.sol\":3716:3740  _roles[role][msg.sender] */\n      0x00\n        /* \"RoleAccess.sol\":3729:3739  msg.sender */\n      caller\n        /* \"RoleAccess.sol\":3716:3740  _roles[role][msg.sender] */\n      0xffffffffffffffffffffffffffffffffffffffff\n      and\n      0xffffffffffffffffffffffffffffffffffffffff\n      and\n      dup2\n      mstore\n      0x20\n      add\n      swap1\n      dup2\n      mstore\n      0x20\n      add\n      0x00\n      keccak256\n      0x00\n      swap1\n      sload\n      swap1\n      0x0100\n      exp\n      swap1\n      div\n      0xff\n      and\n        /* \"RoleAccess.sol\":3708:3787  require(_roles[role][msg.sender], \"RoleAccess: caller does not have this role\") */\n      tag_157\n      jumpi\n      mload(0x40)\n      0x08c379a000000000000000000000000000000000000000000000000000000000\n      dup2\n      mstore\n      0x04\n      add\n      tag_158\n      swap1\n      tag_159\n      jump\t// in\n    tag_158:\n      mload(0x40)\n      dup1\n      swap2\n      sub\n      swap1\n      revert\n    tag_157:\n        /* \"RoleAccess.sol\":3824:3829  false */\n      0x00\n        /* \"RoleAccess.sol\":3797:3803  _roles */\n      0x00\n        /* \"RoleAccess.sol\":3797:3809  _roles[role] */\n      0x00\n        /* \"RoleAccess.sol\":3804:3808  role */\n      dup4\n        /* \"RoleAccess.sol\":3797:3809  _roles[role] */\n      dup2\n      mstore\n      0x20\n      add\n      swap1\n      dup2\n      mstore\n      0x20\n      add\n      0x00\n      keccak256\n        /* \"RoleAccess.sol\":3797:3821  _roles[role][msg.sender] */\n      0x00\n        /* \"RoleAccess.sol\":3810:3820  msg.sender */\n      caller\n        /* \"RoleAccess.sol\":3797:3821  _roles[role][msg.sender] */\n      0xffffffffffffffffffffffffffffffffffffffff\n      and\n      0xffffffffffffffffffffffffffffffffffffffff\n      and\n      dup2\n      mstore\n      0x20\n      add\n      swap1\n      dup2\n      mstore\n      0x20\n      add\n      0x00\n      keccak256\n      0x00\n        /* \"RoleAccess.sol\":3797:3829  _roles[role][msg.sender] = false */\n      0x0100\n      exp\n      dup2\n      sload\n      dup2\n      0xff\n      mul\n      not\n      and\n      swap1\n      dup4\n      iszero\n      iszero\n      mul\n      or\n      swap1\n      sstore\n      pop\n        /* \"RoleAccess.sol\":3874:3884  msg.sender */\n      caller\n        /* \"RoleAccess.sol\":3844:3885  RoleRevoked(role, msg.sender, msg.sender) */\n      0xffffffffffffffffffffffffffffffffffffffff\n      and\n        /* \"RoleAccess.sol\":3862:3872  msg.sender */\n      caller\n        /* \"RoleAccess.sol\":3844:3885  RoleRevoked(role, msg.sender, msg.sender) */\n      0xffffffffffffffffffffffffffffffffffffffff\n      and\n        /* \"RoleAccess.sol\":3856:3860  role */\n      dup3\n        /* \"RoleAccess.sol\":3844:3885  RoleRevoked(role, msg.sender, msg.sender) */\n      0xf6391f5c32d9c69d2a47ea670b442974b53935d1edc7fd64eb21e047a839171b\n      mload(0x40)\n      mload(0x40)\n      dup1\n      swap2\n      sub\n      swap1\n      log4\n        /* \"RoleAccess.sol\":3653:3892  function renounceRole(bytes32 role) external {... */\n      pop\n      jump\t// out\n        /* \"RoleAccess.sol\":2735:2855  function hasRole(bytes32 role, address account) public view returns (bool) {... */\n    tag_73:\n        /* \"RoleAccess.sol\":2804:2808  bool */\n      0x00\n        /* \"RoleAccess.sol\":2827:2833  _roles */\n      0x00\n        /* \"RoleAccess.sol\":2827:2839  _roles[role] */\n      0x00\n        /* \"RoleAccess.sol\":2834:2838  role */\n      dup5\n        /* \"RoleAccess.sol\":2827:2839  _roles[role] */\n      dup2\n      mstore\n      0x20\n      add\n      swap1\n      dup2\n      mstore\n      0x20\n      add\n      0x00\n      keccak256\n        /* \"RoleAccess.sol\":2827:2848  _roles[role][account] */\n      0x00\n        /* \"RoleAccess.sol\":2840:2847  account */\n      dup4\n        /* \"RoleAccess.sol\":2827:2848  _roles[role][account] */\n      0xffffffffffffffffffffffffffffffffffffffff\n      and\n      0xffffffffffffffffffffffffffffffffffffffff\n      and\n      dup2\n      mstore\n      0x20\n      add\n      swap1\n      dup2\n      mstore\n      0x20\n      add\n      0x00\n      keccak256\n      0x00\n      swap1\n      sload\n      swap1\n      0x0100\n      exp\n      swap1\n      div\n      0xff\n      and\n        /* \"RoleAccess.sol\":2820:2848  return _roles[role][account] */\n      swap1\n      pop\n        /* \"RoleAccess.sol\":2735:2855  function hasRole(bytes32 role, address account) public view returns (bool) {... */\n      swap3\n      swap2\n      pop\n      pop\n      jump\t// out\n        /* \"SchemeConfig.sol\":6230:6331  function getAllSchemeIds() external view returns (uint256[] memory) {... */\n    tag_77:\n        /* \"SchemeConfig.sol\":6280:6296  uint256[] memory */\n      0x60\n        /* \"SchemeConfig.sol\":6315:6324  schemeIds */\n      0x02\n        /* \"SchemeConfig.sol\":6308:6324  return schemeIds */\n      dup1\n      sload\n      dup1\n      0x20\n      mul\n      0x20\n      add\n      mload(0x40)\n      swap1\n      dup2\n      add\n      0x40\n      mstore\n      dup1\n      swap3\n      swap2\n      swap1\n      dup2\n      dup2\n      mstore\n      0x20\n      add\n      dup3\n      dup1\n      sload\n      dup1\n      iszero\n      tag_162\n      jumpi\n      0x20\n      mul\n      dup3\n      add\n      swap2\n      swap1\n      0x00\n      mstore\n      keccak256(0x00, 0x20)\n      swap1\n    tag_163:\n      dup2\n      sload\n      dup2\n      mstore\n      0x20\n      add\n      swap1\n      0x01\n      add\n      swap1\n      dup1\n      dup4\n      gt\n      tag_163\n      jumpi\n    tag_162:\n      pop\n      pop\n      pop\n      pop\n      pop\n      swap1\n      pop\n        /* \"SchemeConfig.sol\":6230:6331  function getAllSchemeIds() external view returns (uint256[] memory) {... */\n      swap1\n      jump\t// out\n        /* \"SchemeConfig.sol\":1476:1502  uint256[] public schemeIds */\n    tag_82:\n      0x02\n      dup2\n      dup2\n      sload\n      dup2\n      lt\n      tag_164\n      jumpi\n      0x00\n      dup1\n      revert\n    tag_164:\n      swap1\n      0x00\n      mstore\n      keccak256(0x00, 0x20)\n      add\n      0x00\n      swap2\n      pop\n      swap1\n      pop\n      sload\n      dup2\n      jump\t// out\n        /* \"RoleAccess.sol\":564:641  bytes32 public constant DEFAULT_ADMIN_ROLE  = keccak256(\"DEFAULT_ADMIN_ROLE\") */\n    tag_85:\n        /* \"RoleAccess.sol\":610:641  keccak256(\"DEFAULT_ADMIN_ROLE\") */\n      0x1effbbff9c66c5e59634f24fe842750c60d18891155c32dd155fc2d661a4c86d\n        /* \"RoleAccess.sol\":564:641  bytes32 public constant DEFAULT_ADMIN_ROLE  = keccak256(\"DEFAULT_ADMIN_ROLE\") */\n      dup2\n      jump\t// out\n        /* \"SchemeConfig.sol\":3571:4170  function addScheme(... */\n    tag_90:\n        /* \"SchemeConfig.sol\":3758:3774  uint256 schemeId */\n      0x00\n        /* \"RoleAccess.sol\":2438:2444  _roles */\n      0x00\n        /* \"RoleAccess.sol\":2438:2464  _roles[DEFAULT_ADMIN_ROLE] */\n      0x00\n        /* \"RoleAccess.sol\":610:641  keccak256(\"DEFAULT_ADMIN_ROLE\") */\n      0x1effbbff9c66c5e59634f24fe842750c60d18891155c32dd155fc2d661a4c86d\n        /* \"RoleAccess.sol\":2438:2464  _roles[DEFAULT_ADMIN_ROLE] */\n      dup2\n      mstore\n      0x20\n      add\n      swap1\n      dup2\n      mstore\n      0x20\n      add\n      0x00\n      keccak256\n        /* \"RoleAccess.sol\":2438:2476  _roles[DEFAULT_ADMIN_ROLE][msg.sender] */\n      0x00\n        /* \"RoleAccess.sol\":2465:2475  msg.sender */\n      caller\n        /* \"RoleAccess.sol\":2438:2476  _roles[DEFAULT_ADMIN_ROLE][msg.sender] */\n      0xffffffffffffffffffffffffffffffffffffffff\n      and\n      0xffffffffffffffffffffffffffffffffffffffff\n      and\n      dup2\n      mstore\n      0x20\n      add\n      swap1\n      dup2\n      mstore\n      0x20\n      add\n      0x00\n      keccak256\n      0x00\n      swap1\n      sload\n      swap1\n      0x0100\n      exp\n      swap1\n      div\n      0xff\n      and\n        /* \"RoleAccess.sol\":2430:2512  require(_roles[DEFAULT_ADMIN_ROLE][msg.sender], \"RoleAccess: caller is not admin\") */\n      tag_167\n      jumpi\n      mload(0x40)\n      0x08c379a000000000000000000000000000000000000000000000000000000000\n      dup2\n      mstore\n      0x04\n      add\n      tag_168\n      swap1\n      tag_110\n      jump\t// in\n    tag_168:\n      mload(0x40)\n      dup1\n      swap2\n      sub\n      swap1\n      revert\n    tag_167:\n        /* \"SchemeConfig.sol\":3815:3816  0 */\n      0x00\n        /* \"SchemeConfig.sol\":3800:3804  name */\n      dup8\n      dup8\n        /* \"SchemeConfig.sol\":3794:3812  bytes(name).length */\n      swap1\n      pop\n        /* \"SchemeConfig.sol\":3794:3816  bytes(name).length > 0 */\n      gt\n        /* \"SchemeConfig.sol\":3786:3856  require(bytes(name).length > 0,  \"SchemeConfig: name cannot be empty\") */\n      tag_170\n      jumpi\n      mload(0x40)\n      0x08c379a000000000000000000000000000000000000000000000000000000000\n      dup2\n      mstore\n      0x04\n      add\n      tag_171\n      swap1\n      tag_172\n      jump\t// in\n    tag_171:\n      mload(0x40)\n      dup1\n      swap2\n      sub\n      swap1\n      revert\n    tag_170:\n        /* \"SchemeConfig.sol\":3890:3891  0 */\n      0x00\n        /* \"SchemeConfig.sol\":3874:3887  monthlyAmount */\n      dup6\n        /* \"SchemeConfig.sol\":3874:3891  monthlyAmount > 0 */\n      gt\n        /* \"SchemeConfig.sol\":3866:3934  require(monthlyAmount > 0,       \"SchemeConfig: amount must be > 0\") */\n      tag_173\n      jumpi\n      mload(0x40)\n      0x08c379a000000000000000000000000000000000000000000000000000000000\n      dup2\n      mstore\n      0x04\n      add\n      tag_174\n      swap1\n      tag_175\n      jump\t// in\n    tag_174:\n      mload(0x40)\n      dup1\n      swap2\n      sub\n      swap1\n      revert\n    tag_173:\n        /* \"SchemeConfig.sol\":3961:3967  maxAge */\n      dup3\n        /* \"SchemeConfig.sol\":3952:3958  minAge */\n      dup5\n        /* \"SchemeConfig.sol\":3952:3967  minAge < maxAge */\n      lt\n        /* \"SchemeConfig.sol\":3944:4017  require(minAge < maxAge,         \"SchemeConfig: minAge must be < maxAge\") */\n      tag_176\n      jumpi\n      mload(0x40)\n      0x08c379a000000000000000000000000000000000000000000000000000000000\n      dup2\n      mstore\n      0x04\n      add\n      tag_177\n      swap1\n      tag_178\n      jump\t// in\n    tag_177:\n      mload(0x40)\n      dup1\n      swap2\n      sub\n      swap1\n      revert\n    tag_176:\n        /* \"SchemeConfig.sol\":4038:4094  _addScheme(name, monthlyAmount, minAge, maxAge, maxDays) */\n      tag_179\n        /* \"SchemeConfig.sol\":4049:4053  name */\n      dup8\n      dup8\n        /* \"SchemeConfig.sol\":4038:4094  _addScheme(name, monthlyAmount, minAge, maxAge, maxDays) */\n      dup1\n      dup1\n      0x1f\n      add\n      0x20\n      dup1\n      swap2\n      div\n      mul\n      0x20\n      add\n      mload(0x40)\n      swap1\n      dup2\n      add\n      0x40\n      mstore\n      dup1\n      swap4\n      swap3\n      swap2\n      swap1\n      dup2\n      dup2\n      mstore\n      0x20\n      add\n      dup4\n      dup4\n      dup1\n      dup3\n      dup5\n      calldatacopy\n      0x00\n      dup2\n      dup5\n      add\n      mstore\n      not(0x1f)\n      0x1f\n      dup3\n      add\n      and\n      swap1\n      pop\n      dup1\n      dup4\n      add\n      swap3\n      pop\n      pop\n      pop\n      pop\n      pop\n      pop\n      pop\n        /* \"SchemeConfig.sol\":4055:4068  monthlyAmount */\n      dup7\n        /* \"SchemeConfig.sol\":4070:4076  minAge */\n      dup7\n        /* \"SchemeConfig.sol\":4078:4084  maxAge */\n      dup7\n        /* \"SchemeConfig.sol\":4086:4093  maxDays */\n      dup7\n        /* \"SchemeConfig.sol\":4038:4048  _addScheme */\n      tag_180\n        /* \"SchemeConfig.sol\":4038:4094  _addScheme(name, monthlyAmount, minAge, maxAge, maxDays) */\n      jump\t// in\n    tag_179:\n        /* \"SchemeConfig.sol\":4027:4094  schemeId = _addScheme(name, monthlyAmount, minAge, maxAge, maxDays) */\n      swap1\n      pop\n        /* \"SchemeConfig.sol\":4121:4129  schemeId */\n      dup1\n        /* \"SchemeConfig.sol\":4109:4163  SchemeAdded(schemeId, name, monthlyAmount, msg.sender) */\n      0x3343f88476fc251ded250f0f154e0b3465452a1bf564a6eebc83add26057eb77\n        /* \"SchemeConfig.sol\":4131:4135  name */\n      dup9\n      dup9\n        /* \"SchemeConfig.sol\":4137:4150  monthlyAmount */\n      dup9\n        /* \"SchemeConfig.sol\":4152:4162  msg.sender */\n      caller\n        /* \"SchemeConfig.sol\":4109:4163  SchemeAdded(schemeId, name, monthlyAmount, msg.sender) */\n      mload(0x40)\n      tag_181\n      swap5\n      swap4\n      swap3\n      swap2\n      swap1\n      tag_182\n      jump\t// in\n    tag_181:\n      mload(0x40)\n      dup1\n      swap2\n      sub\n      swap1\n      log2\n        /* \"SchemeConfig.sol\":3571:4170  function addScheme(... */\n      swap7\n      swap6\n      pop\n      pop\n      pop\n      pop\n      pop\n      pop\n      jump\t// out\n        /* \"RoleAccess.sol\":803:875  bytes32 public constant TREASURY_ROLE       = keccak256(\"TREASURY_ROLE\") */\n    tag_93:\n        /* \"RoleAccess.sol\":849:875  keccak256(\"TREASURY_ROLE\") */\n      0xe1dcbdb91df27212a29bc27177c840cf2f819ecf2187432e1fac86c2dd5dfca9\n        /* \"RoleAccess.sol\":803:875  bytes32 public constant TREASURY_ROLE       = keccak256(\"TREASURY_ROLE\") */\n      dup2\n      jump\t// out\n        /* \"RoleAccess.sol\":3324:3580  function revokeRole(bytes32 role, address account) external onlyAdmin {... */\n    tag_97:\n        /* \"RoleAccess.sol\":2438:2444  _roles */\n      0x00\n        /* \"RoleAccess.sol\":2438:2464  _roles[DEFAULT_ADMIN_ROLE] */\n      0x00\n        /* \"RoleAccess.sol\":610:641  keccak256(\"DEFAULT_ADMIN_ROLE\") */\n      0x1effbbff9c66c5e59634f24fe842750c60d18891155c32dd155fc2d661a4c86d\n        /* \"RoleAccess.sol\":2438:2464  _roles[DEFAULT_ADMIN_ROLE] */\n      dup2\n      mstore\n      0x20\n      add\n      swap1\n      dup2\n      mstore\n      0x20\n      add\n      0x00\n      keccak256\n        /* \"RoleAccess.sol\":2438:2476  _roles[DEFAULT_ADMIN_ROLE][msg.sender] */\n      0x00\n        /* \"RoleAccess.sol\":2465:2475  msg.sender */\n      caller\n        /* \"RoleAccess.sol\":2438:2476  _roles[DEFAULT_ADMIN_ROLE][msg.sender] */\n      0xffffffffffffffffffffffffffffffffffffffff\n      and\n      0xffffffffffffffffffffffffffffffffffffffff\n      and\n      dup2\n      mstore\n      0x20\n      add\n      swap1\n      dup2\n      mstore\n      0x20\n      add\n      0x00\n      keccak256\n      0x00\n      swap1\n      sload\n      swap1\n      0x0100\n      exp\n      swap1\n      div\n      0xff\n      and\n        /* \"RoleAccess.sol\":2430:2512  require(_roles[DEFAULT_ADMIN_ROLE][msg.sender], \"RoleAccess: caller is not admin\") */\n      tag_184\n      jumpi\n      mload(0x40)\n      0x08c379a000000000000000000000000000000000000000000000000000000000\n      dup2\n      mstore\n      0x04\n      add\n      tag_185\n      swap1\n      tag_110\n      jump\t// in\n    tag_185:\n      mload(0x40)\n      dup1\n      swap2\n      sub\n      swap1\n      revert\n    tag_184:\n        /* \"RoleAccess.sol\":3412:3418  _roles */\n      0x00\n        /* \"RoleAccess.sol\":3412:3424  _roles[role] */\n      0x00\n        /* \"RoleAccess.sol\":3419:3423  role */\n      dup4\n        /* \"RoleAccess.sol\":3412:3424  _roles[role] */\n      dup2\n      mstore\n      0x20\n      add\n      swap1\n      dup2\n      mstore\n      0x20\n      add\n      0x00\n      keccak256\n        /* \"RoleAccess.sol\":3412:3433  _roles[role][account] */\n      0x00\n        /* \"RoleAccess.sol\":3425:3432  account */\n      dup3\n        /* \"RoleAccess.sol\":3412:3433  _roles[role][account] */\n      0xffffffffffffffffffffffffffffffffffffffff\n      and\n      0xffffffffffffffffffffffffffffffffffffffff\n      and\n      dup2\n      mstore\n      0x20\n      add\n      swap1\n      dup2\n      mstore\n      0x20\n      add\n      0x00\n      keccak256\n      0x00\n      swap1\n      sload\n      swap1\n      0x0100\n      exp\n      swap1\n      div\n      0xff\n      and\n        /* \"RoleAccess.sol\":3404:3481  require(_roles[role][account], \"RoleAccess: account does not have this role\") */\n      tag_187\n      jumpi\n      mload(0x40)\n      0x08c379a000000000000000000000000000000000000000000000000000000000\n      dup2\n      mstore\n      0x04\n      add\n      tag_188\n      swap1\n      tag_189\n      jump\t// in\n    tag_188:\n      mload(0x40)\n      dup1\n      swap2\n      sub\n      swap1\n      revert\n    tag_187:\n        /* \"RoleAccess.sol\":3515:3520  false */\n      0x00\n        /* \"RoleAccess.sol\":3491:3497  _roles */\n      0x00\n        /* \"RoleAccess.sol\":3491:3503  _roles[role] */\n      0x00\n        /* \"RoleAccess.sol\":3498:3502  role */\n      dup5\n        /* \"RoleAccess.sol\":3491:3503  _roles[role] */\n      dup2\n      mstore\n      0x20\n      add\n      swap1\n      dup2\n      mstore\n      0x20\n      add\n      0x00\n      keccak256\n        /* \"RoleAccess.sol\":3491:3512  _roles[role][account] */\n      0x00\n        /* \"RoleAccess.sol\":3504:3511  account */\n      dup4\n        /* \"RoleAccess.sol\":3491:3512  _roles[role][account] */\n      0xffffffffffffffffffffffffffffffffffffffff\n      and\n      0xffffffffffffffffffffffffffffffffffffffff\n      and\n      dup2\n      mstore\n      0x20\n      add\n      swap1\n      dup2\n      mstore\n      0x20\n      add\n      0x00\n      keccak256\n      0x00\n        /* \"RoleAccess.sol\":3491:3520  _roles[role][account] = false */\n      0x0100\n      exp\n      dup2\n      sload\n      dup2\n      0xff\n      mul\n      not\n      and\n      swap1\n      dup4\n      iszero\n      iszero\n      mul\n      or\n      swap1\n      sstore\n      pop\n        /* \"RoleAccess.sol\":3562:3572  msg.sender */\n      caller\n        /* \"RoleAccess.sol\":3535:3573  RoleRevoked(role, account, msg.sender) */\n      0xffffffffffffffffffffffffffffffffffffffff\n      and\n        /* \"RoleAccess.sol\":3553:3560  account */\n      dup2\n        /* \"RoleAccess.sol\":3535:3573  RoleRevoked(role, account, msg.sender) */\n      0xffffffffffffffffffffffffffffffffffffffff\n      and\n        /* \"RoleAccess.sol\":3547:3551  role */\n      dup4\n        /* \"RoleAccess.sol\":3535:3573  RoleRevoked(role, account, msg.sender) */\n      0xf6391f5c32d9c69d2a47ea670b442974b53935d1edc7fd64eb21e047a839171b\n      mload(0x40)\n      mload(0x40)\n      dup1\n      swap2\n      sub\n      swap1\n      log4\n        /* \"RoleAccess.sol\":3324:3580  function revokeRole(bytes32 role, address account) external onlyAdmin {... */\n      pop\n      pop\n      jump\t// out\n        /* \"SchemeConfig.sol\":5497:5709  function getScheme(uint256 schemeId) external view returns (Scheme memory) {... */\n    tag_100:\n        /* \"SchemeConfig.sol\":5557:5570  Scheme memory */\n      tag_190\n      tag_191\n      jump\t// in\n    tag_190:\n        /* \"SchemeConfig.sol\":5620:5628  schemeId */\n      dup2\n        /* \"SchemeConfig.sol\":5590:5597  schemes */\n      0x01\n        /* \"SchemeConfig.sol\":5590:5607  schemes[schemeId] */\n      0x00\n        /* \"SchemeConfig.sol\":5598:5606  schemeId */\n      dup5\n        /* \"SchemeConfig.sol\":5590:5607  schemes[schemeId] */\n      dup2\n      mstore\n      0x20\n      add\n      swap1\n      dup2\n      mstore\n      0x20\n      add\n      0x00\n      keccak256\n        /* \"SchemeConfig.sol\":5590:5616  schemes[schemeId].schemeId */\n      0x00\n      add\n      sload\n        /* \"SchemeConfig.sol\":5590:5628  schemes[schemeId].schemeId == schemeId */\n      eq\n        /* \"SchemeConfig.sol\":5582:5668  require(schemes[schemeId].schemeId == schemeId, \"SchemeConfig: scheme does not exist\") */\n      tag_193\n      jumpi\n      mload(0x40)\n      0x08c379a000000000000000000000000000000000000000000000000000000000\n      dup2\n      mstore\n      0x04\n      add\n      tag_194\n      swap1\n      tag_140\n      jump\t// in\n    tag_194:\n      mload(0x40)\n      dup1\n      swap2\n      sub\n      swap1\n      revert\n    tag_193:\n        /* \"SchemeConfig.sol\":5685:5692  schemes */\n      0x01\n        /* \"SchemeConfig.sol\":5685:5702  schemes[schemeId] */\n      0x00\n        /* \"SchemeConfig.sol\":5693:5701  schemeId */\n      dup4\n        /* \"SchemeConfig.sol\":5685:5702  schemes[schemeId] */\n      dup2\n      mstore\n      0x20\n      add\n      swap1\n      dup2\n      mstore\n      0x20\n      add\n      0x00\n      keccak256\n        /* \"SchemeConfig.sol\":5678:5702  return schemes[schemeId] */\n      mload(0x40)\n      dup1\n      0x0120\n      add\n      0x40\n      mstore\n      swap1\n      dup2\n      0x00\n      dup3\n      add\n      sload\n      dup2\n      mstore\n      0x20\n      add\n      0x01\n      dup3\n      add\n      dup1\n      sload\n      tag_195\n      swap1\n      tag_196\n      jump\t// in\n    tag_195:\n      dup1\n      0x1f\n      add\n      0x20\n      dup1\n      swap2\n      div\n      mul\n      0x20\n      add\n      mload(0x40)\n      swap1\n      dup2\n      add\n      0x40\n      mstore\n      dup1\n      swap3\n      swap2\n      swap1\n      dup2\n      dup2\n      mstore\n      0x20\n      add\n      dup3\n      dup1\n      sload\n      tag_197\n      swap1\n      tag_196\n      jump\t// in\n    tag_197:\n      dup1\n      iszero\n      tag_198\n      jumpi\n      dup1\n      0x1f\n      lt\n      tag_199\n      jumpi\n      0x0100\n      dup1\n      dup4\n      sload\n      div\n      mul\n      dup4\n      mstore\n      swap2\n      0x20\n      add\n      swap2\n      jump(tag_198)\n    tag_199:\n      dup3\n      add\n      swap2\n      swap1\n      0x00\n      mstore\n      keccak256(0x00, 0x20)\n      swap1\n    tag_200:\n      dup2\n      sload\n      dup2\n      mstore\n      swap1\n      0x01\n      add\n      swap1\n      0x20\n      add\n      dup1\n      dup4\n      gt\n      tag_200\n      jumpi\n      dup3\n      swap1\n      sub\n      0x1f\n      and\n      dup3\n      add\n      swap2\n    tag_198:\n      pop\n      pop\n      pop\n      pop\n      pop\n      dup2\n      mstore\n      0x20\n      add\n      0x02\n      dup3\n      add\n      sload\n      dup2\n      mstore\n      0x20\n      add\n      0x03\n      dup3\n      add\n      sload\n      dup2\n      mstore\n      0x20\n      add\n      0x04\n      dup3\n      add\n      sload\n      dup2\n      mstore\n      0x20\n      add\n      0x05\n      dup3\n      add\n      sload\n      dup2\n      mstore\n      0x20\n      add\n      0x06\n      dup3\n      add\n      0x00\n      swap1\n      sload\n      swap1\n      0x0100\n      exp\n      swap1\n      div\n      0xff\n      and\n      iszero\n      iszero\n      iszero\n      iszero\n      dup2\n      mstore\n      0x20\n      add\n      0x07\n      dup3\n      add\n      sload\n      dup2\n      mstore\n      0x20\n      add\n      0x08\n      dup3\n      add\n      sload\n      dup2\n      mstore\n      pop\n      pop\n      swap1\n      pop\n        /* \"SchemeConfig.sol\":5497:5709  function getScheme(uint256 schemeId) external view returns (Scheme memory) {... */\n      swap2\n      swap1\n      pop\n      jump\t// out\n        /* \"SchemeConfig.sol\":5770:5889  function isSchemeActive(uint256 schemeId) external view returns (bool) {... */\n    tag_105:\n        /* \"SchemeConfig.sol\":5835:5839  bool */\n      0x00\n        /* \"SchemeConfig.sol\":5858:5865  schemes */\n      0x01\n        /* \"SchemeConfig.sol\":5858:5875  schemes[schemeId] */\n      0x00\n        /* \"SchemeConfig.sol\":5866:5874  schemeId */\n      dup4\n        /* \"SchemeConfig.sol\":5858:5875  schemes[schemeId] */\n      dup2\n      mstore\n      0x20\n      add\n      swap1\n      dup2\n      mstore\n      0x20\n      add\n      0x00\n      keccak256\n        /* \"SchemeConfig.sol\":5858:5882  schemes[schemeId].active */\n      0x06\n      add\n      0x00\n      swap1\n      sload\n      swap1\n      0x0100\n      exp\n      swap1\n      div\n      0xff\n      and\n        /* \"SchemeConfig.sol\":5851:5882  return schemes[schemeId].active */\n      swap1\n      pop\n        /* \"SchemeConfig.sol\":5770:5889  function isSchemeActive(uint256 schemeId) external view returns (bool) {... */\n      swap2\n      swap1\n      pop\n      jump\t// out\n        /* \"SchemeConfig.sol\":2678:3362  function _addScheme(... */\n    tag_180:\n        /* \"SchemeConfig.sol\":2854:2861  uint256 */\n      0x00\n        /* \"SchemeConfig.sol\":2873:2884  uint256 sid */\n      0x00\n        /* \"SchemeConfig.sol\":2887:2899  nextSchemeId */\n      0x03\n      0x00\n        /* \"SchemeConfig.sol\":2887:2901  nextSchemeId++ */\n      dup2\n      sload\n      dup1\n      swap3\n      swap2\n      swap1\n      tag_203\n      swap1\n      tag_204\n      jump\t// in\n    tag_203:\n      swap2\n      swap1\n      pop\n      sstore\n        /* \"SchemeConfig.sol\":2873:2901  uint256 sid = nextSchemeId++ */\n      swap1\n      pop\n        /* \"SchemeConfig.sol\":2926:3306  Scheme({... */\n      mload(0x40)\n      dup1\n      0x0120\n      add\n      0x40\n      mstore\n      dup1\n        /* \"SchemeConfig.sol\":2965:2968  sid */\n      dup3\n        /* \"SchemeConfig.sol\":2926:3306  Scheme({... */\n      dup2\n      mstore\n      0x20\n      add\n        /* \"SchemeConfig.sol\":3000:3004  name */\n      dup9\n        /* \"SchemeConfig.sol\":2926:3306  Scheme({... */\n      dup2\n      mstore\n      0x20\n      add\n        /* \"SchemeConfig.sol\":3036:3049  monthlyAmount */\n      dup8\n        /* \"SchemeConfig.sol\":2926:3306  Scheme({... */\n      dup2\n      mstore\n      0x20\n      add\n        /* \"SchemeConfig.sol\":3081:3087  minAge */\n      dup7\n        /* \"SchemeConfig.sol\":2926:3306  Scheme({... */\n      dup2\n      mstore\n      0x20\n      add\n        /* \"SchemeConfig.sol\":3119:3125  maxAge */\n      dup6\n        /* \"SchemeConfig.sol\":2926:3306  Scheme({... */\n      dup2\n      mstore\n      0x20\n      add\n        /* \"SchemeConfig.sol\":3158:3165  maxDays */\n      dup5\n        /* \"SchemeConfig.sol\":2926:3306  Scheme({... */\n      dup2\n      mstore\n      0x20\n      add\n        /* \"SchemeConfig.sol\":3197:3201  true */\n      0x01\n        /* \"SchemeConfig.sol\":2926:3306  Scheme({... */\n      iszero\n      iszero\n      dup2\n      mstore\n      0x20\n      add\n        /* \"SchemeConfig.sol\":3233:3248  block.timestamp */\n      timestamp\n        /* \"SchemeConfig.sol\":2926:3306  Scheme({... */\n      dup2\n      mstore\n      0x20\n      add\n        /* \"SchemeConfig.sol\":3280:3295  block.timestamp */\n      timestamp\n        /* \"SchemeConfig.sol\":2926:3306  Scheme({... */\n      dup2\n      mstore\n      pop\n        /* \"SchemeConfig.sol\":2911:2918  schemes */\n      0x01\n        /* \"SchemeConfig.sol\":2911:2923  schemes[sid] */\n      0x00\n        /* \"SchemeConfig.sol\":2919:2922  sid */\n      dup4\n        /* \"SchemeConfig.sol\":2911:2923  schemes[sid] */\n      dup2\n      mstore\n      0x20\n      add\n      swap1\n      dup2\n      mstore\n      0x20\n      add\n      0x00\n      keccak256\n        /* \"SchemeConfig.sol\":2911:3306  schemes[sid] = Scheme({... */\n      0x00\n      dup3\n      add\n      mload\n      dup2\n      0x00\n      add\n      sstore\n      0x20\n      dup3\n      add\n      mload\n      dup2\n      0x01\n      add\n      swap1\n      dup2\n      tag_205\n      swap2\n      swap1\n      tag_206\n      jump\t// in\n    tag_205:\n      pop\n      0x40\n      dup3\n      add\n      mload\n      dup2\n      0x02\n      add\n      sstore\n      0x60\n      dup3\n      add\n      mload\n      dup2\n      0x03\n      add\n      sstore\n      0x80\n      dup3\n      add\n      mload\n      dup2\n      0x04\n      add\n      sstore\n      0xa0\n      dup3\n      add\n      mload\n      dup2\n      0x05\n      add\n      sstore\n      0xc0\n      dup3\n      add\n      mload\n      dup2\n      0x06\n      add\n      exp(0x0100, 0x00)\n      dup2\n      sload\n      dup2\n      0xff\n      mul\n      not\n      and\n      swap1\n      dup4\n      iszero\n      iszero\n      mul\n      or\n      swap1\n      sstore\n      pop\n      0xe0\n      dup3\n      add\n      mload\n      dup2\n      0x07\n      add\n      sstore\n      0x0100\n      dup3\n      add\n      mload\n      dup2\n      0x08\n      add\n      sstore\n      swap1\n      pop\n      pop\n        /* \"SchemeConfig.sol\":3316:3325  schemeIds */\n      0x02\n        /* \"SchemeConfig.sol\":3331:3334  sid */\n      dup2\n        /* \"SchemeConfig.sol\":3316:3335  schemeIds.push(sid) */\n      swap1\n      dup1\n      0x01\n      dup2\n      sload\n      add\n      dup1\n      dup3\n      sstore\n      dup1\n      swap2\n      pop\n      pop\n      0x01\n      swap1\n      sub\n      swap1\n      0x00\n      mstore\n      keccak256(0x00, 0x20)\n      add\n      0x00\n      swap1\n      swap2\n      swap1\n      swap2\n      swap1\n      swap2\n      pop\n      sstore\n        /* \"SchemeConfig.sol\":3352:3355  sid */\n      dup1\n        /* \"SchemeConfig.sol\":3345:3355  return sid */\n      swap2\n      pop\n      pop\n        /* \"SchemeConfig.sol\":2678:3362  function _addScheme(... */\n      swap6\n      swap5\n      pop\n      pop\n      pop\n      pop\n      pop\n      jump\t// out\n    tag_191:\n      mload(0x40)\n      dup1\n      0x0120\n      add\n      0x40\n      mstore\n      dup1\n      0x00\n      dup2\n      mstore\n      0x20\n      add\n      0x60\n      dup2\n      mstore\n      0x20\n      add\n      0x00\n      dup2\n      mstore\n      0x20\n      add\n      0x00\n      dup2\n      mstore\n      0x20\n      add\n      0x00\n      dup2\n      mstore\n      0x20\n      add\n      0x00\n      dup2\n      mstore\n      0x20\n      add\n      iszero(iszero(0x00))\n      dup2\n      mstore\n      0x20\n      add\n      0x00\n      dup2\n      mstore\n      0x20\n      add\n      0x00\n      dup2\n      mstore\n      pop\n      swap1\n      jump\t// out\n        /* \"#utility.yul\":88:205   */\n    tag_209:\n        /* \"#utility.yul\":197:198   */\n      0x00\n        /* \"#utility.yul\":194:195   */\n      0x00\n        /* \"#utility.yul\":187:199   */\n      revert\n        /* \"#utility.yul\":211:328   */\n    tag_210:\n        /* \"#utility.yul\":320:321   */\n      0x00\n        /* \"#utility.yul\":317:318   */\n      0x00\n        /* \"#utility.yul\":310:322   */\n      revert\n        /* \"#utility.yul\":334:451   */\n    tag_211:\n        /* \"#utility.yul\":443:444   */\n      0x00\n        /* \"#utility.yul\":440:441   */\n      0x00\n        /* \"#utility.yul\":433:445   */\n      revert\n        /* \"#utility.yul\":457:574   */\n    tag_212:\n        /* \"#utility.yul\":566:567   */\n      0x00\n        /* \"#utility.yul\":563:564   */\n      0x00\n        /* \"#utility.yul\":556:568   */\n      revert\n        /* \"#utility.yul\":580:697   */\n    tag_213:\n        /* \"#utility.yul\":689:690   */\n      0x00\n        /* \"#utility.yul\":686:687   */\n      0x00\n        /* \"#utility.yul\":679:691   */\n      revert\n        /* \"#utility.yul\":720:1288   */\n    tag_214:\n        /* \"#utility.yul\":793:801   */\n      0x00\n        /* \"#utility.yul\":803:809   */\n      0x00\n        /* \"#utility.yul\":853:856   */\n      dup4\n        /* \"#utility.yul\":846:850   */\n      0x1f\n        /* \"#utility.yul\":838:844   */\n      dup5\n        /* \"#utility.yul\":834:851   */\n      add\n        /* \"#utility.yul\":830:857   */\n      slt\n        /* \"#utility.yul\":820:942   */\n      tag_293\n      jumpi\n        /* \"#utility.yul\":861:940   */\n      tag_294\n      tag_211\n      jump\t// in\n    tag_294:\n        /* \"#utility.yul\":820:942   */\n    tag_293:\n        /* \"#utility.yul\":974:980   */\n      dup3\n        /* \"#utility.yul\":961:981   */\n      calldataload\n        /* \"#utility.yul\":951:981   */\n      swap1\n      pop\n        /* \"#utility.yul\":1004:1022   */\n      0xffffffffffffffff\n        /* \"#utility.yul\":996:1002   */\n      dup2\n        /* \"#utility.yul\":993:1023   */\n      gt\n        /* \"#utility.yul\":990:1107   */\n      iszero\n      tag_295\n      jumpi\n        /* \"#utility.yul\":1026:1105   */\n      tag_296\n      tag_212\n      jump\t// in\n    tag_296:\n        /* \"#utility.yul\":990:1107   */\n    tag_295:\n        /* \"#utility.yul\":1140:1144   */\n      0x20\n        /* \"#utility.yul\":1132:1138   */\n      dup4\n        /* \"#utility.yul\":1128:1145   */\n      add\n        /* \"#utility.yul\":1116:1145   */\n      swap2\n      pop\n        /* \"#utility.yul\":1194:1197   */\n      dup4\n        /* \"#utility.yul\":1186:1190   */\n      0x20\n        /* \"#utility.yul\":1178:1184   */\n      dup3\n        /* \"#utility.yul\":1174:1191   */\n      mul\n        /* \"#utility.yul\":1164:1172   */\n      dup4\n        /* \"#utility.yul\":1160:1192   */\n      add\n        /* \"#utility.yul\":1157:1198   */\n      gt\n        /* \"#utility.yul\":1154:1282   */\n      iszero\n      tag_297\n      jumpi\n        /* \"#utility.yul\":1201:1280   */\n      tag_298\n      tag_213\n      jump\t// in\n    tag_298:\n        /* \"#utility.yul\":1154:1282   */\n    tag_297:\n        /* \"#utility.yul\":720:1288   */\n      swap3\n      pop\n      swap3\n      swap1\n      pop\n      jump\t// out\n        /* \"#utility.yul\":1294:1420   */\n    tag_215:\n        /* \"#utility.yul\":1331:1338   */\n      0x00\n        /* \"#utility.yul\":1371:1413   */\n      0xffffffffffffffffffffffffffffffffffffffff\n        /* \"#utility.yul\":1364:1369   */\n      dup3\n        /* \"#utility.yul\":1360:1414   */\n      and\n        /* \"#utility.yul\":1349:1414   */\n      swap1\n      pop\n        /* \"#utility.yul\":1294:1420   */\n      swap2\n      swap1\n      pop\n      jump\t// out\n        /* \"#utility.yul\":1426:1522   */\n    tag_216:\n        /* \"#utility.yul\":1463:1470   */\n      0x00\n        /* \"#utility.yul\":1492:1516   */\n      tag_301\n        /* \"#utility.yul\":1510:1515   */\n      dup3\n        /* \"#utility.yul\":1492:1516   */\n      tag_215\n      jump\t// in\n    tag_301:\n        /* \"#utility.yul\":1481:1516   */\n      swap1\n      pop\n        /* \"#utility.yul\":1426:1522   */\n      swap2\n      swap1\n      pop\n      jump\t// out\n        /* \"#utility.yul\":1528:1650   */\n    tag_217:\n        /* \"#utility.yul\":1601:1625   */\n      tag_303\n        /* \"#utility.yul\":1619:1624   */\n      dup2\n        /* \"#utility.yul\":1601:1625   */\n      tag_216\n      jump\t// in\n    tag_303:\n        /* \"#utility.yul\":1594:1599   */\n      dup2\n        /* \"#utility.yul\":1591:1626   */\n      eq\n        /* \"#utility.yul\":1581:1644   */\n      tag_304\n      jumpi\n        /* \"#utility.yul\":1640:1641   */\n      0x00\n        /* \"#utility.yul\":1637:1638   */\n      0x00\n        /* \"#utility.yul\":1630:1642   */\n      revert\n        /* \"#utility.yul\":1581:1644   */\n    tag_304:\n        /* \"#utility.yul\":1528:1650   */\n      pop\n      jump\t// out\n        /* \"#utility.yul\":1656:1795   */\n    tag_218:\n        /* \"#utility.yul\":1702:1707   */\n      0x00\n        /* \"#utility.yul\":1740:1746   */\n      dup2\n        /* \"#utility.yul\":1727:1747   */\n      calldataload\n        /* \"#utility.yul\":1718:1747   */\n      swap1\n      pop\n        /* \"#utility.yul\":1756:1789   */\n      tag_306\n        /* \"#utility.yul\":1783:1788   */\n      dup2\n        /* \"#utility.yul\":1756:1789   */\n      tag_217\n      jump\t// in\n    tag_306:\n        /* \"#utility.yul\":1656:1795   */\n      swap3\n      swap2\n      pop\n      pop\n      jump\t// out\n        /* \"#utility.yul\":1801:2505   */\n    tag_29:\n        /* \"#utility.yul\":1896:1902   */\n      0x00\n        /* \"#utility.yul\":1904:1910   */\n      0x00\n        /* \"#utility.yul\":1912:1918   */\n      0x00\n        /* \"#utility.yul\":1961:1963   */\n      0x40\n        /* \"#utility.yul\":1949:1958   */\n      dup5\n        /* \"#utility.yul\":1940:1947   */\n      dup7\n        /* \"#utility.yul\":1936:1959   */\n      sub\n        /* \"#utility.yul\":1932:1964   */\n      slt\n        /* \"#utility.yul\":1929:2048   */\n      iszero\n      tag_308\n      jumpi\n        /* \"#utility.yul\":1967:2046   */\n      tag_309\n      tag_209\n      jump\t// in\n    tag_309:\n        /* \"#utility.yul\":1929:2048   */\n    tag_308:\n        /* \"#utility.yul\":2115:2116   */\n      0x00\n        /* \"#utility.yul\":2104:2113   */\n      dup5\n        /* \"#utility.yul\":2100:2117   */\n      add\n        /* \"#utility.yul\":2087:2118   */\n      calldataload\n        /* \"#utility.yul\":2145:2163   */\n      0xffffffffffffffff\n        /* \"#utility.yul\":2137:2143   */\n      dup2\n        /* \"#utility.yul\":2134:2164   */\n      gt\n        /* \"#utility.yul\":2131:2248   */\n      iszero\n      tag_310\n      jumpi\n        /* \"#utility.yul\":2167:2246   */\n      tag_311\n      tag_210\n      jump\t// in\n    tag_311:\n        /* \"#utility.yul\":2131:2248   */\n    tag_310:\n        /* \"#utility.yul\":2280:2360   */\n      tag_312\n        /* \"#utility.yul\":2352:2359   */\n      dup7\n        /* \"#utility.yul\":2343:2349   */\n      dup3\n        /* \"#utility.yul\":2332:2341   */\n      dup8\n        /* \"#utility.yul\":2328:2350   */\n      add\n        /* \"#utility.yul\":2280:2360   */\n      tag_214\n      jump\t// in\n    tag_312:\n        /* \"#utility.yul\":2262:2360   */\n      swap4\n      pop\n      swap4\n      pop\n        /* \"#utility.yul\":2058:2370   */\n      pop\n        /* \"#utility.yul\":2409:2411   */\n      0x20\n        /* \"#utility.yul\":2435:2488   */\n      tag_313\n        /* \"#utility.yul\":2480:2487   */\n      dup7\n        /* \"#utility.yul\":2471:2477   */\n      dup3\n        /* \"#utility.yul\":2460:2469   */\n      dup8\n        /* \"#utility.yul\":2456:2478   */\n      add\n        /* \"#utility.yul\":2435:2488   */\n      tag_218\n      jump\t// in\n    tag_313:\n        /* \"#utility.yul\":2425:2488   */\n      swap2\n      pop\n        /* \"#utility.yul\":2380:2498   */\n      pop\n        /* \"#utility.yul\":1801:2505   */\n      swap3\n      pop\n      swap3\n      pop\n      swap3\n      jump\t// out\n        /* \"#utility.yul\":2511:2588   */\n    tag_219:\n        /* \"#utility.yul\":2548:2555   */\n      0x00\n        /* \"#utility.yul\":2577:2582   */\n      dup2\n        /* \"#utility.yul\":2566:2582   */\n      swap1\n      pop\n        /* \"#utility.yul\":2511:2588   */\n      swap2\n      swap1\n      pop\n      jump\t// out\n        /* \"#utility.yul\":2594:2716   */\n    tag_220:\n        /* \"#utility.yul\":2667:2691   */\n      tag_316\n        /* \"#utility.yul\":2685:2690   */\n      dup2\n        /* \"#utility.yul\":2667:2691   */\n      tag_219\n      jump\t// in\n    tag_316:\n        /* \"#utility.yul\":2660:2665   */\n      dup2\n        /* \"#utility.yul\":2657:2692   */\n      eq\n        /* \"#utility.yul\":2647:2710   */\n      tag_317\n      jumpi\n        /* \"#utility.yul\":2706:2707   */\n      0x00\n        /* \"#utility.yul\":2703:2704   */\n      0x00\n        /* \"#utility.yul\":2696:2708   */\n      revert\n        /* \"#utility.yul\":2647:2710   */\n    tag_317:\n        /* \"#utility.yul\":2594:2716   */\n      pop\n      jump\t// out\n        /* \"#utility.yul\":2722:2861   */\n    tag_221:\n        /* \"#utility.yul\":2768:2773   */\n      0x00\n        /* \"#utility.yul\":2806:2812   */\n      dup2\n        /* \"#utility.yul\":2793:2813   */\n      calldataload\n        /* \"#utility.yul\":2784:2813   */\n      swap1\n      pop\n        /* \"#utility.yul\":2822:2855   */\n      tag_319\n        /* \"#utility.yul\":2849:2854   */\n      dup2\n        /* \"#utility.yul\":2822:2855   */\n      tag_220\n      jump\t// in\n    tag_319:\n        /* \"#utility.yul\":2722:2861   */\n      swap3\n      swap2\n      pop\n      pop\n      jump\t// out\n        /* \"#utility.yul\":2867:3341   */\n    tag_33:\n        /* \"#utility.yul\":2935:2941   */\n      0x00\n        /* \"#utility.yul\":2943:2949   */\n      0x00\n        /* \"#utility.yul\":2992:2994   */\n      0x40\n        /* \"#utility.yul\":2980:2989   */\n      dup4\n        /* \"#utility.yul\":2971:2978   */\n      dup6\n        /* \"#utility.yul\":2967:2990   */\n      sub\n        /* \"#utility.yul\":2963:2995   */\n      slt\n        /* \"#utility.yul\":2960:3079   */\n      iszero\n      tag_321\n      jumpi\n        /* \"#utility.yul\":2998:3077   */\n      tag_322\n      tag_209\n      jump\t// in\n    tag_322:\n        /* \"#utility.yul\":2960:3079   */\n    tag_321:\n        /* \"#utility.yul\":3118:3119   */\n      0x00\n        /* \"#utility.yul\":3143:3196   */\n      tag_323\n        /* \"#utility.yul\":3188:3195   */\n      dup6\n        /* \"#utility.yul\":3179:3185   */\n      dup3\n        /* \"#utility.yul\":3168:3177   */\n      dup7\n        /* \"#utility.yul\":3164:3186   */\n      add\n        /* \"#utility.yul\":3143:3196   */\n      tag_221\n      jump\t// in\n    tag_323:\n        /* \"#utility.yul\":3133:3196   */\n      swap3\n      pop\n        /* \"#utility.yul\":3089:3206   */\n      pop\n        /* \"#utility.yul\":3245:3247   */\n      0x20\n        /* \"#utility.yul\":3271:3324   */\n      tag_324\n        /* \"#utility.yul\":3316:3323   */\n      dup6\n        /* \"#utility.yul\":3307:3313   */\n      dup3\n        /* \"#utility.yul\":3296:3305   */\n      dup7\n        /* \"#utility.yul\":3292:3314   */\n      add\n        /* \"#utility.yul\":3271:3324   */\n      tag_218\n      jump\t// in\n    tag_324:\n        /* \"#utility.yul\":3261:3324   */\n      swap2\n      pop\n        /* \"#utility.yul\":3216:3334   */\n      pop\n        /* \"#utility.yul\":2867:3341   */\n      swap3\n      pop\n      swap3\n      swap1\n      pop\n      jump\t// out\n        /* \"#utility.yul\":3347:3465   */\n    tag_222:\n        /* \"#utility.yul\":3434:3458   */\n      tag_326\n        /* \"#utility.yul\":3452:3457   */\n      dup2\n        /* \"#utility.yul\":3434:3458   */\n      tag_219\n      jump\t// in\n    tag_326:\n        /* \"#utility.yul\":3429:3432   */\n      dup3\n        /* \"#utility.yul\":3422:3459   */\n      mstore\n        /* \"#utility.yul\":3347:3465   */\n      pop\n      pop\n      jump\t// out\n        /* \"#utility.yul\":3471:3693   */\n    tag_38:\n        /* \"#utility.yul\":3564:3568   */\n      0x00\n        /* \"#utility.yul\":3602:3604   */\n      0x20\n        /* \"#utility.yul\":3591:3600   */\n      dup3\n        /* \"#utility.yul\":3587:3605   */\n      add\n        /* \"#utility.yul\":3579:3605   */\n      swap1\n      pop\n        /* \"#utility.yul\":3615:3686   */\n      tag_328\n        /* \"#utility.yul\":3683:3684   */\n      0x00\n        /* \"#utility.yul\":3672:3681   */\n      dup4\n        /* \"#utility.yul\":3668:3685   */\n      add\n        /* \"#utility.yul\":3659:3665   */\n      dup5\n        /* \"#utility.yul\":3615:3686   */\n      tag_222\n      jump\t// in\n    tag_328:\n        /* \"#utility.yul\":3471:3693   */\n      swap3\n      swap2\n      pop\n      pop\n      jump\t// out\n        /* \"#utility.yul\":3699:3776   */\n    tag_223:\n        /* \"#utility.yul\":3736:3743   */\n      0x00\n        /* \"#utility.yul\":3765:3770   */\n      dup2\n        /* \"#utility.yul\":3754:3770   */\n      swap1\n      pop\n        /* \"#utility.yul\":3699:3776   */\n      swap2\n      swap1\n      pop\n      jump\t// out\n        /* \"#utility.yul\":3782:3900   */\n    tag_224:\n        /* \"#utility.yul\":3869:3893   */\n      tag_331\n        /* \"#utility.yul\":3887:3892   */\n      dup2\n        /* \"#utility.yul\":3869:3893   */\n      tag_223\n      jump\t// in\n    tag_331:\n        /* \"#utility.yul\":3864:3867   */\n      dup3\n        /* \"#utility.yul\":3857:3894   */\n      mstore\n        /* \"#utility.yul\":3782:3900   */\n      pop\n      pop\n      jump\t// out\n        /* \"#utility.yul\":3906:4128   */\n    tag_48:\n        /* \"#utility.yul\":3999:4003   */\n      0x00\n        /* \"#utility.yul\":4037:4039   */\n      0x20\n        /* \"#utility.yul\":4026:4035   */\n      dup3\n        /* \"#utility.yul\":4022:4040   */\n      add\n        /* \"#utility.yul\":4014:4040   */\n      swap1\n      pop\n        /* \"#utility.yul\":4050:4121   */\n      tag_333\n        /* \"#utility.yul\":4118:4119   */\n      0x00\n        /* \"#utility.yul\":4107:4116   */\n      dup4\n        /* \"#utility.yul\":4103:4120   */\n      add\n        /* \"#utility.yul\":4094:4100   */\n      dup5\n        /* \"#utility.yul\":4050:4121   */\n      tag_224\n      jump\t// in\n    tag_333:\n        /* \"#utility.yul\":3906:4128   */\n      swap3\n      swap2\n      pop\n      pop\n      jump\t// out\n        /* \"#utility.yul\":4134:4256   */\n    tag_225:\n        /* \"#utility.yul\":4207:4231   */\n      tag_335\n        /* \"#utility.yul\":4225:4230   */\n      dup2\n        /* \"#utility.yul\":4207:4231   */\n      tag_223\n      jump\t// in\n    tag_335:\n        /* \"#utility.yul\":4200:4205   */\n      dup2\n        /* \"#utility.yul\":4197:4232   */\n      eq\n        /* \"#utility.yul\":4187:4250   */\n      tag_336\n      jumpi\n        /* \"#utility.yul\":4246:4247   */\n      0x00\n        /* \"#utility.yul\":4243:4244   */\n      0x00\n        /* \"#utility.yul\":4236:4248   */\n      revert\n        /* \"#utility.yul\":4187:4250   */\n    tag_336:\n        /* \"#utility.yul\":4134:4256   */\n      pop\n      jump\t// out\n        /* \"#utility.yul\":4262:4401   */\n    tag_226:\n        /* \"#utility.yul\":4308:4313   */\n      0x00\n        /* \"#utility.yul\":4346:4352   */\n      dup2\n        /* \"#utility.yul\":4333:4353   */\n      calldataload\n        /* \"#utility.yul\":4324:4353   */\n      swap1\n      pop\n        /* \"#utility.yul\":4362:4395   */\n      tag_338\n        /* \"#utility.yul\":4389:4394   */\n      dup2\n        /* \"#utility.yul\":4362:4395   */\n      tag_225\n      jump\t// in\n    tag_338:\n        /* \"#utility.yul\":4262:4401   */\n      swap3\n      swap2\n      pop\n      pop\n      jump\t// out\n        /* \"#utility.yul\":4421:4974   */\n    tag_227:\n        /* \"#utility.yul\":4479:4487   */\n      0x00\n        /* \"#utility.yul\":4489:4495   */\n      0x00\n        /* \"#utility.yul\":4539:4542   */\n      dup4\n        /* \"#utility.yul\":4532:4536   */\n      0x1f\n        /* \"#utility.yul\":4524:4530   */\n      dup5\n        /* \"#utility.yul\":4520:4537   */\n      add\n        /* \"#utility.yul\":4516:4543   */\n      slt\n        /* \"#utility.yul\":4506:4628   */\n      tag_340\n      jumpi\n        /* \"#utility.yul\":4547:4626   */\n      tag_341\n      tag_211\n      jump\t// in\n    tag_341:\n        /* \"#utility.yul\":4506:4628   */\n    tag_340:\n        /* \"#utility.yul\":4660:4666   */\n      dup3\n        /* \"#utility.yul\":4647:4667   */\n      calldataload\n        /* \"#utility.yul\":4637:4667   */\n      swap1\n      pop\n        /* \"#utility.yul\":4690:4708   */\n      0xffffffffffffffff\n        /* \"#utility.yul\":4682:4688   */\n      dup2\n        /* \"#utility.yul\":4679:4709   */\n      gt\n        /* \"#utility.yul\":4676:4793   */\n      iszero\n      tag_342\n      jumpi\n        /* \"#utility.yul\":4712:4791   */\n      tag_343\n      tag_212\n      jump\t// in\n    tag_343:\n        /* \"#utility.yul\":4676:4793   */\n    tag_342:\n        /* \"#utility.yul\":4826:4830   */\n      0x20\n        /* \"#utility.yul\":4818:4824   */\n      dup4\n        /* \"#utility.yul\":4814:4831   */\n      add\n        /* \"#utility.yul\":4802:4831   */\n      swap2\n      pop\n        /* \"#utility.yul\":4880:4883   */\n      dup4\n        /* \"#utility.yul\":4872:4876   */\n      0x01\n        /* \"#utility.yul\":4864:4870   */\n      dup3\n        /* \"#utility.yul\":4860:4877   */\n      mul\n        /* \"#utility.yul\":4850:4858   */\n      dup4\n        /* \"#utility.yul\":4846:4878   */\n      add\n        /* \"#utility.yul\":4843:4884   */\n      gt\n        /* \"#utility.yul\":4840:4968   */\n      iszero\n      tag_344\n      jumpi\n        /* \"#utility.yul\":4887:4966   */\n      tag_345\n      tag_213\n      jump\t// in\n    tag_345:\n        /* \"#utility.yul\":4840:4968   */\n    tag_344:\n        /* \"#utility.yul\":4421:4974   */\n      swap3\n      pop\n      swap3\n      swap1\n      pop\n      jump\t// out\n        /* \"#utility.yul\":4980:6237   */\n    tag_51:\n        /* \"#utility.yul\":5096:5102   */\n      0x00\n        /* \"#utility.yul\":5104:5110   */\n      0x00\n        /* \"#utility.yul\":5112:5118   */\n      0x00\n        /* \"#utility.yul\":5120:5126   */\n      0x00\n        /* \"#utility.yul\":5128:5134   */\n      0x00\n        /* \"#utility.yul\":5136:5142   */\n      0x00\n        /* \"#utility.yul\":5144:5150   */\n      0x00\n        /* \"#utility.yul\":5193:5196   */\n      0xc0\n        /* \"#utility.yul\":5181:5190   */\n      dup9\n        /* \"#utility.yul\":5172:5179   */\n      dup11\n        /* \"#utility.yul\":5168:5191   */\n      sub\n        /* \"#utility.yul\":5164:5197   */\n      slt\n        /* \"#utility.yul\":5161:5281   */\n      iszero\n      tag_347\n      jumpi\n        /* \"#utility.yul\":5200:5279   */\n      tag_348\n      tag_209\n      jump\t// in\n    tag_348:\n        /* \"#utility.yul\":5161:5281   */\n    tag_347:\n        /* \"#utility.yul\":5320:5321   */\n      0x00\n        /* \"#utility.yul\":5345:5398   */\n      tag_349\n        /* \"#utility.yul\":5390:5397   */\n      dup11\n        /* \"#utility.yul\":5381:5387   */\n      dup3\n        /* \"#utility.yul\":5370:5379   */\n      dup12\n        /* \"#utility.yul\":5366:5388   */\n      add\n        /* \"#utility.yul\":5345:5398   */\n      tag_226\n      jump\t// in\n    tag_349:\n        /* \"#utility.yul\":5335:5398   */\n      swap8\n      pop\n        /* \"#utility.yul\":5291:5408   */\n      pop\n        /* \"#utility.yul\":5475:5477   */\n      0x20\n        /* \"#utility.yul\":5464:5473   */\n      dup9\n        /* \"#utility.yul\":5460:5478   */\n      add\n        /* \"#utility.yul\":5447:5479   */\n      calldataload\n        /* \"#utility.yul\":5506:5524   */\n      0xffffffffffffffff\n        /* \"#utility.yul\":5498:5504   */\n      dup2\n        /* \"#utility.yul\":5495:5525   */\n      gt\n        /* \"#utility.yul\":5492:5609   */\n      iszero\n      tag_350\n      jumpi\n        /* \"#utility.yul\":5528:5607   */\n      tag_351\n      tag_210\n      jump\t// in\n    tag_351:\n        /* \"#utility.yul\":5492:5609   */\n    tag_350:\n        /* \"#utility.yul\":5641:5706   */\n      tag_352\n        /* \"#utility.yul\":5698:5705   */\n      dup11\n        /* \"#utility.yul\":5689:5695   */\n      dup3\n        /* \"#utility.yul\":5678:5687   */\n      dup12\n        /* \"#utility.yul\":5674:5696   */\n      add\n        /* \"#utility.yul\":5641:5706   */\n      tag_227\n      jump\t// in\n    tag_352:\n        /* \"#utility.yul\":5623:5706   */\n      swap7\n      pop\n      swap7\n      pop\n        /* \"#utility.yul\":5418:5716   */\n      pop\n        /* \"#utility.yul\":5755:5757   */\n      0x40\n        /* \"#utility.yul\":5781:5834   */\n      tag_353\n        /* \"#utility.yul\":5826:5833   */\n      dup11\n        /* \"#utility.yul\":5817:5823   */\n      dup3\n        /* \"#utility.yul\":5806:5815   */\n      dup12\n        /* \"#utility.yul\":5802:5824   */\n      add\n        /* \"#utility.yul\":5781:5834   */\n      tag_226\n      jump\t// in\n    tag_353:\n        /* \"#utility.yul\":5771:5834   */\n      swap5\n      pop\n        /* \"#utility.yul\":5726:5844   */\n      pop\n        /* \"#utility.yul\":5883:5885   */\n      0x60\n        /* \"#utility.yul\":5909:5962   */\n      tag_354\n        /* \"#utility.yul\":5954:5961   */\n      dup11\n        /* \"#utility.yul\":5945:5951   */\n      dup3\n        /* \"#utility.yul\":5934:5943   */\n      dup12\n        /* \"#utility.yul\":5930:5952   */\n      add\n        /* \"#utility.yul\":5909:5962   */\n      tag_226\n      jump\t// in\n    tag_354:\n        /* \"#utility.yul\":5899:5962   */\n      swap4\n      pop\n        /* \"#utility.yul\":5854:5972   */\n      pop\n        /* \"#utility.yul\":6011:6014   */\n      0x80\n        /* \"#utility.yul\":6038:6091   */\n      tag_355\n        /* \"#utility.yul\":6083:6090   */\n      dup11\n        /* \"#utility.yul\":6074:6080   */\n      dup3\n        /* \"#utility.yul\":6063:6072   */\n      dup12\n        /* \"#utility.yul\":6059:6081   */\n      add\n        /* \"#utility.yul\":6038:6091   */\n      tag_226\n      jump\t// in\n    tag_355:\n        /* \"#utility.yul\":6028:6091   */\n      swap3\n      pop\n        /* \"#utility.yul\":5982:6101   */\n      pop\n        /* \"#utility.yul\":6140:6143   */\n      0xa0\n        /* \"#utility.yul\":6167:6220   */\n      tag_356\n        /* \"#utility.yul\":6212:6219   */\n      dup11\n        /* \"#utility.yul\":6203:6209   */\n      dup3\n        /* \"#utility.yul\":6192:6201   */\n      dup12\n        /* \"#utility.yul\":6188:6210   */\n      add\n        /* \"#utility.yul\":6167:6220   */\n      tag_226\n      jump\t// in\n    tag_356:\n        /* \"#utility.yul\":6157:6220   */\n      swap2\n      pop\n        /* \"#utility.yul\":6111:6230   */\n      pop\n        /* \"#utility.yul\":4980:6237   */\n      swap3\n      swap6\n      swap9\n      swap2\n      swap5\n      swap8\n      pop\n      swap3\n      swap6\n      pop\n      jump\t// out\n        /* \"#utility.yul\":6243:6572   */\n    tag_55:\n        /* \"#utility.yul\":6302:6308   */\n      0x00\n        /* \"#utility.yul\":6351:6353   */\n      0x20\n        /* \"#utility.yul\":6339:6348   */\n      dup3\n        /* \"#utility.yul\":6330:6337   */\n      dup5\n        /* \"#utility.yul\":6326:6349   */\n      sub\n        /* \"#utility.yul\":6322:6354   */\n      slt\n        /* \"#utility.yul\":6319:6438   */\n      iszero\n      tag_358\n      jumpi\n        /* \"#utility.yul\":6357:6436   */\n      tag_359\n      tag_209\n      jump\t// in\n    tag_359:\n        /* \"#utility.yul\":6319:6438   */\n    tag_358:\n        /* \"#utility.yul\":6477:6478   */\n      0x00\n        /* \"#utility.yul\":6502:6555   */\n      tag_360\n        /* \"#utility.yul\":6547:6554   */\n      dup5\n        /* \"#utility.yul\":6538:6544   */\n      dup3\n        /* \"#utility.yul\":6527:6536   */\n      dup6\n        /* \"#utility.yul\":6523:6545   */\n      add\n        /* \"#utility.yul\":6502:6555   */\n      tag_226\n      jump\t// in\n    tag_360:\n        /* \"#utility.yul\":6492:6555   */\n      swap2\n      pop\n        /* \"#utility.yul\":6448:6565   */\n      pop\n        /* \"#utility.yul\":6243:6572   */\n      swap3\n      swap2\n      pop\n      pop\n      jump\t// out\n        /* \"#utility.yul\":6578:6907   */\n    tag_69:\n        /* \"#utility.yul\":6637:6643   */\n      0x00\n        /* \"#utility.yul\":6686:6688   */\n      0x20\n        /* \"#utility.yul\":6674:6683   */\n      dup3\n        /* \"#utility.yul\":6665:6672   */\n      dup5\n        /* \"#utility.yul\":6661:6684   */\n      sub\n        /* \"#utility.yul\":6657:6689   */\n      slt\n        /* \"#utility.yul\":6654:6773   */\n      iszero\n      tag_362\n      jumpi\n        /* \"#utility.yul\":6692:6771   */\n      tag_363\n      tag_209\n      jump\t// in\n    tag_363:\n        /* \"#utility.yul\":6654:6773   */\n    tag_362:\n        /* \"#utility.yul\":6812:6813   */\n      0x00\n        /* \"#utility.yul\":6837:6890   */\n      tag_364\n        /* \"#utility.yul\":6882:6889   */\n      dup5\n        /* \"#utility.yul\":6873:6879   */\n      dup3\n        /* \"#utility.yul\":6862:6871   */\n      dup6\n        /* \"#utility.yul\":6858:6880   */\n      add\n        /* \"#utility.yul\":6837:6890   */\n      tag_221\n      jump\t// in\n    tag_364:\n        /* \"#utility.yul\":6827:6890   */\n      swap2\n      pop\n        /* \"#utility.yul\":6783:6900   */\n      pop\n        /* \"#utility.yul\":6578:6907   */\n      swap3\n      swap2\n      pop\n      pop\n      jump\t// out\n        /* \"#utility.yul\":6913:7003   */\n    tag_228:\n        /* \"#utility.yul\":6947:6954   */\n      0x00\n        /* \"#utility.yul\":6990:6995   */\n      dup2\n        /* \"#utility.yul\":6983:6996   */\n      iszero\n        /* \"#utility.yul\":6976:6997   */\n      iszero\n        /* \"#utility.yul\":6965:6997   */\n      swap1\n      pop\n        /* \"#utility.yul\":6913:7003   */\n      swap2\n      swap1\n      pop\n      jump\t// out\n        /* \"#utility.yul\":7009:7118   */\n    tag_229:\n        /* \"#utility.yul\":7090:7111   */\n      tag_367\n        /* \"#utility.yul\":7105:7110   */\n      dup2\n        /* \"#utility.yul\":7090:7111   */\n      tag_228\n      jump\t// in\n    tag_367:\n        /* \"#utility.yul\":7085:7088   */\n      dup3\n        /* \"#utility.yul\":7078:7112   */\n      mstore\n        /* \"#utility.yul\":7009:7118   */\n      pop\n      pop\n      jump\t// out\n        /* \"#utility.yul\":7124:7334   */\n    tag_75:\n        /* \"#utility.yul\":7211:7215   */\n      0x00\n        /* \"#utility.yul\":7249:7251   */\n      0x20\n        /* \"#utility.yul\":7238:7247   */\n      dup3\n        /* \"#utility.yul\":7234:7252   */\n      add\n        /* \"#utility.yul\":7226:7252   */\n      swap1\n      pop\n        /* \"#utility.yul\":7262:7327   */\n      tag_369\n        /* \"#utility.yul\":7324:7325   */\n      0x00\n        /* \"#utility.yul\":7313:7322   */\n      dup4\n        /* \"#utility.yul\":7309:7326   */\n      add\n        /* \"#utility.yul\":7300:7306   */\n      dup5\n        /* \"#utility.yul\":7262:7327   */\n      tag_229\n      jump\t// in\n    tag_369:\n        /* \"#utility.yul\":7124:7334   */\n      swap3\n      swap2\n      pop\n      pop\n      jump\t// out\n        /* \"#utility.yul\":7340:7454   */\n    tag_230:\n        /* \"#utility.yul\":7407:7413   */\n      0x00\n        /* \"#utility.yul\":7441:7446   */\n      dup2\n        /* \"#utility.yul\":7435:7447   */\n      mload\n        /* \"#utility.yul\":7425:7447   */\n      swap1\n      pop\n        /* \"#utility.yul\":7340:7454   */\n      swap2\n      swap1\n      pop\n      jump\t// out\n        /* \"#utility.yul\":7460:7644   */\n    tag_231:\n        /* \"#utility.yul\":7559:7570   */\n      0x00\n        /* \"#utility.yul\":7593:7599   */\n      dup3\n        /* \"#utility.yul\":7588:7591   */\n      dup3\n        /* \"#utility.yul\":7581:7600   */\n      mstore\n        /* \"#utility.yul\":7633:7637   */\n      0x20\n        /* \"#utility.yul\":7628:7631   */\n      dup3\n        /* \"#utility.yul\":7624:7638   */\n      add\n        /* \"#utility.yul\":7609:7638   */\n      swap1\n      pop\n        /* \"#utility.yul\":7460:7644   */\n      swap3\n      swap2\n      pop\n      pop\n      jump\t// out\n        /* \"#utility.yul\":7650:7782   */\n    tag_232:\n        /* \"#utility.yul\":7717:7721   */\n      0x00\n        /* \"#utility.yul\":7740:7743   */\n      dup2\n        /* \"#utility.yul\":7732:7743   */\n      swap1\n      pop\n        /* \"#utility.yul\":7770:7774   */\n      0x20\n        /* \"#utility.yul\":7765:7768   */\n      dup3\n        /* \"#utility.yul\":7761:7775   */\n      add\n        /* \"#utility.yul\":7753:7775   */\n      swap1\n      pop\n        /* \"#utility.yul\":7650:7782   */\n      swap2\n      swap1\n      pop\n      jump\t// out\n        /* \"#utility.yul\":7788:7896   */\n    tag_233:\n        /* \"#utility.yul\":7865:7889   */\n      tag_374\n        /* \"#utility.yul\":7883:7888   */\n      dup2\n        /* \"#utility.yul\":7865:7889   */\n      tag_223\n      jump\t// in\n    tag_374:\n        /* \"#utility.yul\":7860:7863   */\n      dup3\n        /* \"#utility.yul\":7853:7890   */\n      mstore\n        /* \"#utility.yul\":7788:7896   */\n      pop\n      pop\n      jump\t// out\n        /* \"#utility.yul\":7902:8081   */\n    tag_234:\n        /* \"#utility.yul\":7971:7981   */\n      0x00\n        /* \"#utility.yul\":7992:8038   */\n      tag_376\n        /* \"#utility.yul\":8034:8037   */\n      dup4\n        /* \"#utility.yul\":8026:8032   */\n      dup4\n        /* \"#utility.yul\":7992:8038   */\n      tag_233\n      jump\t// in\n    tag_376:\n        /* \"#utility.yul\":8070:8074   */\n      0x20\n        /* \"#utility.yul\":8065:8068   */\n      dup4\n        /* \"#utility.yul\":8061:8075   */\n      add\n        /* \"#utility.yul\":8047:8075   */\n      swap1\n      pop\n        /* \"#utility.yul\":7902:8081   */\n      swap3\n      swap2\n      pop\n      pop\n      jump\t// out\n        /* \"#utility.yul\":8087:8200   */\n    tag_235:\n        /* \"#utility.yul\":8157:8161   */\n      0x00\n        /* \"#utility.yul\":8189:8193   */\n      0x20\n        /* \"#utility.yul\":8184:8187   */\n      dup3\n        /* \"#utility.yul\":8180:8194   */\n      add\n        /* \"#utility.yul\":8172:8194   */\n      swap1\n      pop\n        /* \"#utility.yul\":8087:8200   */\n      swap2\n      swap1\n      pop\n      jump\t// out\n        /* \"#utility.yul\":8236:8968   */\n    tag_236:\n        /* \"#utility.yul\":8355:8358   */\n      0x00\n        /* \"#utility.yul\":8384:8438   */\n      tag_379\n        /* \"#utility.yul\":8432:8437   */\n      dup3\n        /* \"#utility.yul\":8384:8438   */\n      tag_230\n      jump\t// in\n    tag_379:\n        /* \"#utility.yul\":8454:8540   */\n      tag_380\n        /* \"#utility.yul\":8533:8539   */\n      dup2\n        /* \"#utility.yul\":8528:8531   */\n      dup6\n        /* \"#utility.yul\":8454:8540   */\n      tag_231\n      jump\t// in\n    tag_380:\n        /* \"#utility.yul\":8447:8540   */\n      swap4\n      pop\n        /* \"#utility.yul\":8564:8620   */\n      tag_381\n        /* \"#utility.yul\":8614:8619   */\n      dup4\n        /* \"#utility.yul\":8564:8620   */\n      tag_232\n      jump\t// in\n    tag_381:\n        /* \"#utility.yul\":8643:8650   */\n      dup1\n        /* \"#utility.yul\":8674:8675   */\n      0x00\n        /* \"#utility.yul\":8659:8943   */\n    tag_382:\n        /* \"#utility.yul\":8684:8690   */\n      dup4\n        /* \"#utility.yul\":8681:8682   */\n      dup2\n        /* \"#utility.yul\":8678:8691   */\n      lt\n        /* \"#utility.yul\":8659:8943   */\n      iszero\n      tag_384\n      jumpi\n        /* \"#utility.yul\":8760:8766   */\n      dup2\n        /* \"#utility.yul\":8754:8767   */\n      mload\n        /* \"#utility.yul\":8787:8850   */\n      tag_385\n        /* \"#utility.yul\":8846:8849   */\n      dup9\n        /* \"#utility.yul\":8831:8844   */\n      dup3\n        /* \"#utility.yul\":8787:8850   */\n      tag_234\n      jump\t// in\n    tag_385:\n        /* \"#utility.yul\":8780:8850   */\n      swap8\n      pop\n        /* \"#utility.yul\":8873:8933   */\n      tag_386\n        /* \"#utility.yul\":8926:8932   */\n      dup4\n        /* \"#utility.yul\":8873:8933   */\n      tag_235\n      jump\t// in\n    tag_386:\n        /* \"#utility.yul\":8863:8933   */\n      swap3\n      pop\n        /* \"#utility.yul\":8719:8943   */\n      pop\n        /* \"#utility.yul\":8706:8707   */\n      0x01\n        /* \"#utility.yul\":8703:8704   */\n      dup2\n        /* \"#utility.yul\":8699:8708   */\n      add\n        /* \"#utility.yul\":8694:8708   */\n      swap1\n      pop\n        /* \"#utility.yul\":8659:8943   */\n      jump(tag_382)\n    tag_384:\n        /* \"#utility.yul\":8663:8677   */\n      pop\n        /* \"#utility.yul\":8959:8962   */\n      dup6\n        /* \"#utility.yul\":8952:8962   */\n      swap4\n      pop\n        /* \"#utility.yul\":8360:8968   */\n      pop\n      pop\n      pop\n        /* \"#utility.yul\":8236:8968   */\n      swap3\n      swap2\n      pop\n      pop\n      jump\t// out\n        /* \"#utility.yul\":8974:9347   */\n    tag_79:\n        /* \"#utility.yul\":9117:9121   */\n      0x00\n        /* \"#utility.yul\":9155:9157   */\n      0x20\n        /* \"#utility.yul\":9144:9153   */\n      dup3\n        /* \"#utility.yul\":9140:9158   */\n      add\n        /* \"#utility.yul\":9132:9158   */\n      swap1\n      pop\n        /* \"#utility.yul\":9204:9213   */\n      dup2\n        /* \"#utility.yul\":9198:9202   */\n      dup2\n        /* \"#utility.yul\":9194:9214   */\n      sub\n        /* \"#utility.yul\":9190:9191   */\n      0x00\n        /* \"#utility.yul\":9179:9188   */\n      dup4\n        /* \"#utility.yul\":9175:9192   */\n      add\n        /* \"#utility.yul\":9168:9215   */\n      mstore\n        /* \"#utility.yul\":9232:9340   */\n      tag_388\n        /* \"#utility.yul\":9335:9339   */\n      dup2\n        /* \"#utility.yul\":9326:9332   */\n      dup5\n        /* \"#utility.yul\":9232:9340   */\n      tag_236\n      jump\t// in\n    tag_388:\n        /* \"#utility.yul\":9224:9340   */\n      swap1\n      pop\n        /* \"#utility.yul\":8974:9347   */\n      swap3\n      swap2\n      pop\n      pop\n      jump\t// out\n        /* \"#utility.yul\":9353:10464   */\n    tag_89:\n        /* \"#utility.yul\":9460:9466   */\n      0x00\n        /* \"#utility.yul\":9468:9474   */\n      0x00\n        /* \"#utility.yul\":9476:9482   */\n      0x00\n        /* \"#utility.yul\":9484:9490   */\n      0x00\n        /* \"#utility.yul\":9492:9498   */\n      0x00\n        /* \"#utility.yul\":9500:9506   */\n      0x00\n        /* \"#utility.yul\":9549:9552   */\n      0xa0\n        /* \"#utility.yul\":9537:9546   */\n      dup8\n        /* \"#utility.yul\":9528:9535   */\n      dup10\n        /* \"#utility.yul\":9524:9547   */\n      sub\n        /* \"#utility.yul\":9520:9553   */\n      slt\n        /* \"#utility.yul\":9517:9637   */\n      iszero\n      tag_390\n      jumpi\n        /* \"#utility.yul\":9556:9635   */\n      tag_391\n      tag_209\n      jump\t// in\n    tag_391:\n        /* \"#utility.yul\":9517:9637   */\n    tag_390:\n        /* \"#utility.yul\":9704:9705   */\n      0x00\n        /* \"#utility.yul\":9693:9702   */\n      dup8\n        /* \"#utility.yul\":9689:9706   */\n      add\n        /* \"#utility.yul\":9676:9707   */\n      calldataload\n        /* \"#utility.yul\":9734:9752   */\n      0xffffffffffffffff\n        /* \"#utility.yul\":9726:9732   */\n      dup2\n        /* \"#utility.yul\":9723:9753   */\n      gt\n        /* \"#utility.yul\":9720:9837   */\n      iszero\n      tag_392\n      jumpi\n        /* \"#utility.yul\":9756:9835   */\n      tag_393\n      tag_210\n      jump\t// in\n    tag_393:\n        /* \"#utility.yul\":9720:9837   */\n    tag_392:\n        /* \"#utility.yul\":9869:9934   */\n      tag_394\n        /* \"#utility.yul\":9926:9933   */\n      dup10\n        /* \"#utility.yul\":9917:9923   */\n      dup3\n        /* \"#utility.yul\":9906:9915   */\n      dup11\n        /* \"#utility.yul\":9902:9924   */\n      add\n        /* \"#utility.yul\":9869:9934   */\n      tag_227\n      jump\t// in\n    tag_394:\n        /* \"#utility.yul\":9851:9934   */\n      swap7\n      pop\n      swap7\n      pop\n        /* \"#utility.yul\":9647:9944   */\n      pop\n        /* \"#utility.yul\":9983:9985   */\n      0x20\n        /* \"#utility.yul\":10009:10062   */\n      tag_395\n        /* \"#utility.yul\":10054:10061   */\n      dup10\n        /* \"#utility.yul\":10045:10051   */\n      dup3\n        /* \"#utility.yul\":10034:10043   */\n      dup11\n        /* \"#utility.yul\":10030:10052   */\n      add\n        /* \"#utility.yul\":10009:10062   */\n      tag_226\n      jump\t// in\n    tag_395:\n        /* \"#utility.yul\":9999:10062   */\n      swap5\n      pop\n        /* \"#utility.yul\":9954:10072   */\n      pop\n        /* \"#utility.yul\":10111:10113   */\n      0x40\n        /* \"#utility.yul\":10137:10190   */\n      tag_396\n        /* \"#utility.yul\":10182:10189   */\n      dup10\n        /* \"#utility.yul\":10173:10179   */\n      dup3\n        /* \"#utility.yul\":10162:10171   */\n      dup11\n        /* \"#utility.yul\":10158:10180   */\n      add\n        /* \"#utility.yul\":10137:10190   */\n      tag_226\n      jump\t// in\n    tag_396:\n        /* \"#utility.yul\":10127:10190   */\n      swap4\n      pop\n        /* \"#utility.yul\":10082:10200   */\n      pop\n        /* \"#utility.yul\":10239:10241   */\n      0x60\n        /* \"#utility.yul\":10265:10318   */\n      tag_397\n        /* \"#utility.yul\":10310:10317   */\n      dup10\n        /* \"#utility.yul\":10301:10307   */\n      dup3\n        /* \"#utility.yul\":10290:10299   */\n      dup11\n        /* \"#utility.yul\":10286:10308   */\n      add\n        /* \"#utility.yul\":10265:10318   */\n      tag_226\n      jump\t// in\n    tag_397:\n        /* \"#utility.yul\":10255:10318   */\n      swap3\n      pop\n        /* \"#utility.yul\":10210:10328   */\n      pop\n        /* \"#utility.yul\":10367:10370   */\n      0x80\n        /* \"#utility.yul\":10394:10447   */\n      tag_398\n        /* \"#utility.yul\":10439:10446   */\n      dup10\n        /* \"#utility.yul\":10430:10436   */\n      dup3\n        /* \"#utility.yul\":10419:10428   */\n      dup11\n        /* \"#utility.yul\":10415:10437   */\n      add\n        /* \"#utility.yul\":10394:10447   */\n      tag_226\n      jump\t// in\n    tag_398:\n        /* \"#utility.yul\":10384:10447   */\n      swap2\n      pop\n        /* \"#utility.yul\":10338:10457   */\n      pop\n        /* \"#utility.yul\":9353:10464   */\n      swap3\n      swap6\n      pop\n      swap3\n      swap6\n      pop\n      swap3\n      swap6\n      jump\t// out\n        /* \"#utility.yul\":10470:10569   */\n    tag_237:\n        /* \"#utility.yul\":10522:10528   */\n      0x00\n        /* \"#utility.yul\":10556:10561   */\n      dup2\n        /* \"#utility.yul\":10550:10562   */\n      mload\n        /* \"#utility.yul\":10540:10562   */\n      swap1\n      pop\n        /* \"#utility.yul\":10470:10569   */\n      swap2\n      swap1\n      pop\n      jump\t// out\n        /* \"#utility.yul\":10575:10734   */\n    tag_238:\n        /* \"#utility.yul\":10649:10660   */\n      0x00\n        /* \"#utility.yul\":10683:10689   */\n      dup3\n        /* \"#utility.yul\":10678:10681   */\n      dup3\n        /* \"#utility.yul\":10671:10690   */\n      mstore\n        /* \"#utility.yul\":10723:10727   */\n      0x20\n        /* \"#utility.yul\":10718:10721   */\n      dup3\n        /* \"#utility.yul\":10714:10728   */\n      add\n        /* \"#utility.yul\":10699:10728   */\n      swap1\n      pop\n        /* \"#utility.yul\":10575:10734   */\n      swap3\n      swap2\n      pop\n      pop\n      jump\t// out\n        /* \"#utility.yul\":10740:10879   */\n    tag_239:\n        /* \"#utility.yul\":10829:10835   */\n      dup3\n        /* \"#utility.yul\":10824:10827   */\n      dup2\n        /* \"#utility.yul\":10819:10822   */\n      dup4\n        /* \"#utility.yul\":10813:10836   */\n      mcopy\n        /* \"#utility.yul\":10870:10871   */\n      0x00\n        /* \"#utility.yul\":10861:10867   */\n      dup4\n        /* \"#utility.yul\":10856:10859   */\n      dup4\n        /* \"#utility.yul\":10852:10868   */\n      add\n        /* \"#utility.yul\":10845:10872   */\n      mstore\n        /* \"#utility.yul\":10740:10879   */\n      pop\n      pop\n      pop\n      jump\t// out\n        /* \"#utility.yul\":10885:10987   */\n    tag_240:\n        /* \"#utility.yul\":10926:10932   */\n      0x00\n        /* \"#utility.yul\":10977:10979   */\n      0x1f\n        /* \"#utility.yul\":10973:10980   */\n      not\n        /* \"#utility.yul\":10968:10970   */\n      0x1f\n        /* \"#utility.yul\":10961:10966   */\n      dup4\n        /* \"#utility.yul\":10957:10971   */\n      add\n        /* \"#utility.yul\":10953:10981   */\n      and\n        /* \"#utility.yul\":10943:10981   */\n      swap1\n      pop\n        /* \"#utility.yul\":10885:10987   */\n      swap2\n      swap1\n      pop\n      jump\t// out\n        /* \"#utility.yul\":10993:11350   */\n    tag_241:\n        /* \"#utility.yul\":11071:11074   */\n      0x00\n        /* \"#utility.yul\":11099:11138   */\n      tag_404\n        /* \"#utility.yul\":11132:11137   */\n      dup3\n        /* \"#utility.yul\":11099:11138   */\n      tag_237\n      jump\t// in\n    tag_404:\n        /* \"#utility.yul\":11154:11215   */\n      tag_405\n        /* \"#utility.yul\":11208:11214   */\n      dup2\n        /* \"#utility.yul\":11203:11206   */\n      dup6\n        /* \"#utility.yul\":11154:11215   */\n      tag_238\n      jump\t// in\n    tag_405:\n        /* \"#utility.yul\":11147:11215   */\n      swap4\n      pop\n        /* \"#utility.yul\":11224:11289   */\n      tag_406\n        /* \"#utility.yul\":11282:11288   */\n      dup2\n        /* \"#utility.yul\":11277:11280   */\n      dup6\n        /* \"#utility.yul\":11270:11274   */\n      0x20\n        /* \"#utility.yul\":11263:11268   */\n      dup7\n        /* \"#utility.yul\":11259:11275   */\n      add\n        /* \"#utility.yul\":11224:11289   */\n      tag_239\n      jump\t// in\n    tag_406:\n        /* \"#utility.yul\":11314:11343   */\n      tag_407\n        /* \"#utility.yul\":11336:11342   */\n      dup2\n        /* \"#utility.yul\":11314:11343   */\n      tag_240\n      jump\t// in\n    tag_407:\n        /* \"#utility.yul\":11309:11312   */\n      dup5\n        /* \"#utility.yul\":11305:11344   */\n      add\n        /* \"#utility.yul\":11298:11344   */\n      swap2\n      pop\n        /* \"#utility.yul\":11075:11350   */\n      pop\n        /* \"#utility.yul\":10993:11350   */\n      swap3\n      swap2\n      pop\n      pop\n      jump\t// out\n        /* \"#utility.yul\":11356:11455   */\n    tag_242:\n        /* \"#utility.yul\":11427:11448   */\n      tag_409\n        /* \"#utility.yul\":11442:11447   */\n      dup2\n        /* \"#utility.yul\":11427:11448   */\n      tag_228\n      jump\t// in\n    tag_409:\n        /* \"#utility.yul\":11422:11425   */\n      dup3\n        /* \"#utility.yul\":11415:11449   */\n      mstore\n        /* \"#utility.yul\":11356:11455   */\n      pop\n      pop\n      jump\t// out\n        /* \"#utility.yul\":11525:13397   */\n    tag_243:\n        /* \"#utility.yul\":11640:11643   */\n      0x00\n        /* \"#utility.yul\":11676:11682   */\n      0x0120\n        /* \"#utility.yul\":11671:11674   */\n      dup4\n        /* \"#utility.yul\":11667:11683   */\n      add\n        /* \"#utility.yul\":11769:11773   */\n      0x00\n        /* \"#utility.yul\":11762:11767   */\n      dup4\n        /* \"#utility.yul\":11758:11774   */\n      add\n        /* \"#utility.yul\":11752:11775   */\n      mload\n        /* \"#utility.yul\":11788:11851   */\n      tag_411\n        /* \"#utility.yul\":11845:11849   */\n      0x00\n        /* \"#utility.yul\":11840:11843   */\n      dup7\n        /* \"#utility.yul\":11836:11850   */\n      add\n        /* \"#utility.yul\":11822:11834   */\n      dup3\n        /* \"#utility.yul\":11788:11851   */\n      tag_233\n      jump\t// in\n    tag_411:\n        /* \"#utility.yul\":11693:11861   */\n      pop\n        /* \"#utility.yul\":11943:11947   */\n      0x20\n        /* \"#utility.yul\":11936:11941   */\n      dup4\n        /* \"#utility.yul\":11932:11948   */\n      add\n        /* \"#utility.yul\":11926:11949   */\n      mload\n        /* \"#utility.yul\":11996:11999   */\n      dup5\n        /* \"#utility.yul\":11990:11994   */\n      dup3\n        /* \"#utility.yul\":11986:12000   */\n      sub\n        /* \"#utility.yul\":11979:11983   */\n      0x20\n        /* \"#utility.yul\":11974:11977   */\n      dup7\n        /* \"#utility.yul\":11970:11984   */\n      add\n        /* \"#utility.yul\":11963:12001   */\n      mstore\n        /* \"#utility.yul\":12022:12095   */\n      tag_412\n        /* \"#utility.yul\":12090:12094   */\n      dup3\n        /* \"#utility.yul\":12076:12088   */\n      dup3\n        /* \"#utility.yul\":12022:12095   */\n      tag_241\n      jump\t// in\n    tag_412:\n        /* \"#utility.yul\":12014:12095   */\n      swap2\n      pop\n        /* \"#utility.yul\":11871:12106   */\n      pop\n        /* \"#utility.yul\":12197:12201   */\n      0x40\n        /* \"#utility.yul\":12190:12195   */\n      dup4\n        /* \"#utility.yul\":12186:12202   */\n      add\n        /* \"#utility.yul\":12180:12203   */\n      mload\n        /* \"#utility.yul\":12216:12279   */\n      tag_413\n        /* \"#utility.yul\":12273:12277   */\n      0x40\n        /* \"#utility.yul\":12268:12271   */\n      dup7\n        /* \"#utility.yul\":12264:12278   */\n      add\n        /* \"#utility.yul\":12250:12262   */\n      dup3\n        /* \"#utility.yul\":12216:12279   */\n      tag_233\n      jump\t// in\n    tag_413:\n        /* \"#utility.yul\":12116:12289   */\n      pop\n        /* \"#utility.yul\":12378:12382   */\n      0x60\n        /* \"#utility.yul\":12371:12376   */\n      dup4\n        /* \"#utility.yul\":12367:12383   */\n      add\n        /* \"#utility.yul\":12361:12384   */\n      mload\n        /* \"#utility.yul\":12397:12460   */\n      tag_414\n        /* \"#utility.yul\":12454:12458   */\n      0x60\n        /* \"#utility.yul\":12449:12452   */\n      dup7\n        /* \"#utility.yul\":12445:12459   */\n      add\n        /* \"#utility.yul\":12431:12443   */\n      dup3\n        /* \"#utility.yul\":12397:12460   */\n      tag_233\n      jump\t// in\n    tag_414:\n        /* \"#utility.yul\":12299:12470   */\n      pop\n        /* \"#utility.yul\":12559:12563   */\n      0x80\n        /* \"#utility.yul\":12552:12557   */\n      dup4\n        /* \"#utility.yul\":12548:12564   */\n      add\n        /* \"#utility.yul\":12542:12565   */\n      mload\n        /* \"#utility.yul\":12578:12641   */\n      tag_415\n        /* \"#utility.yul\":12635:12639   */\n      0x80\n        /* \"#utility.yul\":12630:12633   */\n      dup7\n        /* \"#utility.yul\":12626:12640   */\n      add\n        /* \"#utility.yul\":12612:12624   */\n      dup3\n        /* \"#utility.yul\":12578:12641   */\n      tag_233\n      jump\t// in\n    tag_415:\n        /* \"#utility.yul\":12480:12651   */\n      pop\n        /* \"#utility.yul\":12746:12750   */\n      0xa0\n        /* \"#utility.yul\":12739:12744   */\n      dup4\n        /* \"#utility.yul\":12735:12751   */\n      add\n        /* \"#utility.yul\":12729:12752   */\n      mload\n        /* \"#utility.yul\":12765:12828   */\n      tag_416\n        /* \"#utility.yul\":12822:12826   */\n      0xa0\n        /* \"#utility.yul\":12817:12820   */\n      dup7\n        /* \"#utility.yul\":12813:12827   */\n      add\n        /* \"#utility.yul\":12799:12811   */\n      dup3\n        /* \"#utility.yul\":12765:12828   */\n      tag_233\n      jump\t// in\n    tag_416:\n        /* \"#utility.yul\":12661:12838   */\n      pop\n        /* \"#utility.yul\":12922:12926   */\n      0xc0\n        /* \"#utility.yul\":12915:12920   */\n      dup4\n        /* \"#utility.yul\":12911:12927   */\n      add\n        /* \"#utility.yul\":12905:12928   */\n      mload\n        /* \"#utility.yul\":12941:12998   */\n      tag_417\n        /* \"#utility.yul\":12992:12996   */\n      0xc0\n        /* \"#utility.yul\":12987:12990   */\n      dup7\n        /* \"#utility.yul\":12983:12997   */\n      add\n        /* \"#utility.yul\":12969:12981   */\n      dup3\n        /* \"#utility.yul\":12941:12998   */\n      tag_242\n      jump\t// in\n    tag_417:\n        /* \"#utility.yul\":12848:13008   */\n      pop\n        /* \"#utility.yul\":13095:13099   */\n      0xe0\n        /* \"#utility.yul\":13088:13093   */\n      dup4\n        /* \"#utility.yul\":13084:13100   */\n      add\n        /* \"#utility.yul\":13078:13101   */\n      mload\n        /* \"#utility.yul\":13114:13177   */\n      tag_418\n        /* \"#utility.yul\":13171:13175   */\n      0xe0\n        /* \"#utility.yul\":13166:13169   */\n      dup7\n        /* \"#utility.yul\":13162:13176   */\n      add\n        /* \"#utility.yul\":13148:13160   */\n      dup3\n        /* \"#utility.yul\":13114:13177   */\n      tag_233\n      jump\t// in\n    tag_418:\n        /* \"#utility.yul\":13018:13187   */\n      pop\n        /* \"#utility.yul\":13274:13280   */\n      0x0100\n        /* \"#utility.yul\":13267:13272   */\n      dup4\n        /* \"#utility.yul\":13263:13281   */\n      add\n        /* \"#utility.yul\":13257:13282   */\n      mload\n        /* \"#utility.yul\":13295:13360   */\n      tag_419\n        /* \"#utility.yul\":13352:13358   */\n      0x0100\n        /* \"#utility.yul\":13347:13350   */\n      dup7\n        /* \"#utility.yul\":13343:13359   */\n      add\n        /* \"#utility.yul\":13329:13341   */\n      dup3\n        /* \"#utility.yul\":13295:13360   */\n      tag_233\n      jump\t// in\n    tag_419:\n        /* \"#utility.yul\":13197:13370   */\n      pop\n        /* \"#utility.yul\":13387:13391   */\n      dup1\n        /* \"#utility.yul\":13380:13391   */\n      swap2\n      pop\n        /* \"#utility.yul\":11645:13397   */\n      pop\n        /* \"#utility.yul\":11525:13397   */\n      swap3\n      swap2\n      pop\n      pop\n      jump\t// out\n        /* \"#utility.yul\":13403:13768   */\n    tag_102:\n        /* \"#utility.yul\":13542:13546   */\n      0x00\n        /* \"#utility.yul\":13580:13582   */\n      0x20\n        /* \"#utility.yul\":13569:13578   */\n      dup3\n        /* \"#utility.yul\":13565:13583   */\n      add\n        /* \"#utility.yul\":13557:13583   */\n      swap1\n      pop\n        /* \"#utility.yul\":13629:13638   */\n      dup2\n        /* \"#utility.yul\":13623:13627   */\n      dup2\n        /* \"#utility.yul\":13619:13639   */\n      sub\n        /* \"#utility.yul\":13615:13616   */\n      0x00\n        /* \"#utility.yul\":13604:13613   */\n      dup4\n        /* \"#utility.yul\":13600:13617   */\n      add\n        /* \"#utility.yul\":13593:13640   */\n      mstore\n        /* \"#utility.yul\":13657:13761   */\n      tag_421\n        /* \"#utility.yul\":13756:13760   */\n      dup2\n        /* \"#utility.yul\":13747:13753   */\n      dup5\n        /* \"#utility.yul\":13657:13761   */\n      tag_243\n      jump\t// in\n    tag_421:\n        /* \"#utility.yul\":13649:13761   */\n      swap1\n      pop\n        /* \"#utility.yul\":13403:13768   */\n      swap3\n      swap2\n      pop\n      pop\n      jump\t// out\n        /* \"#utility.yul\":13774:13943   */\n    tag_244:\n        /* \"#utility.yul\":13858:13869   */\n      0x00\n        /* \"#utility.yul\":13892:13898   */\n      dup3\n        /* \"#utility.yul\":13887:13890   */\n      dup3\n        /* \"#utility.yul\":13880:13899   */\n      mstore\n        /* \"#utility.yul\":13932:13936   */\n      0x20\n        /* \"#utility.yul\":13927:13930   */\n      dup3\n        /* \"#utility.yul\":13923:13937   */\n      add\n        /* \"#utility.yul\":13908:13937   */\n      swap1\n      pop\n        /* \"#utility.yul\":13774:13943   */\n      swap3\n      swap2\n      pop\n      pop\n      jump\t// out\n        /* \"#utility.yul\":13949:14130   */\n    tag_245:\n        /* \"#utility.yul\":14089:14122   */\n      0x526f6c654163636573733a2063616c6c6572206973206e6f742061646d696e00\n        /* \"#utility.yul\":14085:14086   */\n      0x00\n        /* \"#utility.yul\":14077:14083   */\n      dup3\n        /* \"#utility.yul\":14073:14087   */\n      add\n        /* \"#utility.yul\":14066:14123   */\n      mstore\n        /* \"#utility.yul\":13949:14130   */\n      pop\n      jump\t// out\n        /* \"#utility.yul\":14136:14502   */\n    tag_246:\n        /* \"#utility.yul\":14278:14281   */\n      0x00\n        /* \"#utility.yul\":14299:14366   */\n      tag_425\n        /* \"#utility.yul\":14363:14365   */\n      0x1f\n        /* \"#utility.yul\":14358:14361   */\n      dup4\n        /* \"#utility.yul\":14299:14366   */\n      tag_244\n      jump\t// in\n    tag_425:\n        /* \"#utility.yul\":14292:14366   */\n      swap2\n      pop\n        /* \"#utility.yul\":14375:14468   */\n      tag_426\n        /* \"#utility.yul\":14464:14467   */\n      dup3\n        /* \"#utility.yul\":14375:14468   */\n      tag_245\n      jump\t// in\n    tag_426:\n        /* \"#utility.yul\":14493:14495   */\n      0x20\n        /* \"#utility.yul\":14488:14491   */\n      dup3\n        /* \"#utility.yul\":14484:14496   */\n      add\n        /* \"#utility.yul\":14477:14496   */\n      swap1\n      pop\n        /* \"#utility.yul\":14136:14502   */\n      swap2\n      swap1\n      pop\n      jump\t// out\n        /* \"#utility.yul\":14508:14927   */\n    tag_110:\n        /* \"#utility.yul\":14674:14678   */\n      0x00\n        /* \"#utility.yul\":14712:14714   */\n      0x20\n        /* \"#utility.yul\":14701:14710   */\n      dup3\n        /* \"#utility.yul\":14697:14715   */\n      add\n        /* \"#utility.yul\":14689:14715   */\n      swap1\n      pop\n        /* \"#utility.yul\":14761:14770   */\n      dup2\n        /* \"#utility.yul\":14755:14759   */\n      dup2\n        /* \"#utility.yul\":14751:14771   */\n      sub\n        /* \"#utility.yul\":14747:14748   */\n      0x00\n        /* \"#utility.yul\":14736:14745   */\n      dup4\n        /* \"#utility.yul\":14732:14749   */\n      add\n        /* \"#utility.yul\":14725:14772   */\n      mstore\n        /* \"#utility.yul\":14789:14920   */\n      tag_428\n        /* \"#utility.yul\":14915:14919   */\n      dup2\n        /* \"#utility.yul\":14789:14920   */\n      tag_246\n      jump\t// in\n    tag_428:\n        /* \"#utility.yul\":14781:14920   */\n      swap1\n      pop\n        /* \"#utility.yul\":14508:14927   */\n      swap2\n      swap1\n      pop\n      jump\t// out\n        /* \"#utility.yul\":14933:15113   */\n    tag_117:\n        /* \"#utility.yul\":14981:15058   */\n      0x4e487b7100000000000000000000000000000000000000000000000000000000\n        /* \"#utility.yul\":14978:14979   */\n      0x00\n        /* \"#utility.yul\":14971:15059   */\n      mstore\n        /* \"#utility.yul\":15078:15082   */\n      0x32\n        /* \"#utility.yul\":15075:15076   */\n      0x04\n        /* \"#utility.yul\":15068:15083   */\n      mstore\n        /* \"#utility.yul\":15102:15106   */\n      0x24\n        /* \"#utility.yul\":15099:15100   */\n      0x00\n        /* \"#utility.yul\":15092:15107   */\n      revert\n        /* \"#utility.yul\":15119:15351   */\n    tag_247:\n        /* \"#utility.yul\":15259:15293   */\n      0x526f6c654163636573733a2063616e6e6f74206772616e7420726f6c6520746f\n        /* \"#utility.yul\":15255:15256   */\n      0x00\n        /* \"#utility.yul\":15247:15253   */\n      dup3\n        /* \"#utility.yul\":15243:15257   */\n      add\n        /* \"#utility.yul\":15236:15294   */\n      mstore\n        /* \"#utility.yul\":15328:15343   */\n      0x207a65726f206164647265737300000000000000000000000000000000000000\n        /* \"#utility.yul\":15323:15325   */\n      0x20\n        /* \"#utility.yul\":15315:15321   */\n      dup3\n        /* \"#utility.yul\":15311:15326   */\n      add\n        /* \"#utility.yul\":15304:15344   */\n      mstore\n        /* \"#utility.yul\":15119:15351   */\n      pop\n      jump\t// out\n        /* \"#utility.yul\":15357:15723   */\n    tag_248:\n        /* \"#utility.yul\":15499:15502   */\n      0x00\n        /* \"#utility.yul\":15520:15587   */\n      tag_432\n        /* \"#utility.yul\":15584:15586   */\n      0x2d\n        /* \"#utility.yul\":15579:15582   */\n      dup4\n        /* \"#utility.yul\":15520:15587   */\n      tag_244\n      jump\t// in\n    tag_432:\n        /* \"#utility.yul\":15513:15587   */\n      swap2\n      pop\n        /* \"#utility.yul\":15596:15689   */\n      tag_433\n        /* \"#utility.yul\":15685:15688   */\n      dup3\n        /* \"#utility.yul\":15596:15689   */\n      tag_247\n      jump\t// in\n    tag_433:\n        /* \"#utility.yul\":15714:15716   */\n      0x40\n        /* \"#utility.yul\":15709:15712   */\n      dup3\n        /* \"#utility.yul\":15705:15717   */\n      add\n        /* \"#utility.yul\":15698:15717   */\n      swap1\n      pop\n        /* \"#utility.yul\":15357:15723   */\n      swap2\n      swap1\n      pop\n      jump\t// out\n        /* \"#utility.yul\":15729:16148   */\n    tag_129:\n        /* \"#utility.yul\":15895:15899   */\n      0x00\n        /* \"#utility.yul\":15933:15935   */\n      0x20\n        /* \"#utility.yul\":15922:15931   */\n      dup3\n        /* \"#utility.yul\":15918:15936   */\n      add\n        /* \"#utility.yul\":15910:15936   */\n      swap1\n      pop\n        /* \"#utility.yul\":15982:15991   */\n      dup2\n        /* \"#utility.yul\":15976:15980   */\n      dup2\n        /* \"#utility.yul\":15972:15992   */\n      sub\n        /* \"#utility.yul\":15968:15969   */\n      0x00\n        /* \"#utility.yul\":15957:15966   */\n      dup4\n        /* \"#utility.yul\":15953:15970   */\n      add\n        /* \"#utility.yul\":15946:15993   */\n      mstore\n        /* \"#utility.yul\":16010:16141   */\n      tag_435\n        /* \"#utility.yul\":16136:16140   */\n      dup2\n        /* \"#utility.yul\":16010:16141   */\n      tag_248\n      jump\t// in\n    tag_435:\n        /* \"#utility.yul\":16002:16141   */\n      swap1\n      pop\n        /* \"#utility.yul\":15729:16148   */\n      swap2\n      swap1\n      pop\n      jump\t// out\n        /* \"#utility.yul\":16154:16382   */\n    tag_249:\n        /* \"#utility.yul\":16294:16328   */\n      0x526f6c654163636573733a206163636f756e7420616c72656164792068617320\n        /* \"#utility.yul\":16290:16291   */\n      0x00\n        /* \"#utility.yul\":16282:16288   */\n      dup3\n        /* \"#utility.yul\":16278:16292   */\n      add\n        /* \"#utility.yul\":16271:16329   */\n      mstore\n        /* \"#utility.yul\":16363:16374   */\n      0x7468697320726f6c650000000000000000000000000000000000000000000000\n        /* \"#utility.yul\":16358:16360   */\n      0x20\n        /* \"#utility.yul\":16350:16356   */\n      dup3\n        /* \"#utility.yul\":16346:16361   */\n      add\n        /* \"#utility.yul\":16339:16375   */\n      mstore\n        /* \"#utility.yul\":16154:16382   */\n      pop\n      jump\t// out\n        /* \"#utility.yul\":16388:16754   */\n    tag_250:\n        /* \"#utility.yul\":16530:16533   */\n      0x00\n        /* \"#utility.yul\":16551:16618   */\n      tag_438\n        /* \"#utility.yul\":16615:16617   */\n      0x29\n        /* \"#utility.yul\":16610:16613   */\n      dup4\n        /* \"#utility.yul\":16551:16618   */\n      tag_244\n      jump\t// in\n    tag_438:\n        /* \"#utility.yul\":16544:16618   */\n      swap2\n      pop\n        /* \"#utility.yul\":16627:16720   */\n      tag_439\n        /* \"#utility.yul\":16716:16719   */\n      dup3\n        /* \"#utility.yul\":16627:16720   */\n      tag_249\n      jump\t// in\n    tag_439:\n        /* \"#utility.yul\":16745:16747   */\n      0x40\n        /* \"#utility.yul\":16740:16743   */\n      dup3\n        /* \"#utility.yul\":16736:16748   */\n      add\n        /* \"#utility.yul\":16729:16748   */\n      swap1\n      pop\n        /* \"#utility.yul\":16388:16754   */\n      swap2\n      swap1\n      pop\n      jump\t// out\n        /* \"#utility.yul\":16760:17179   */\n    tag_132:\n        /* \"#utility.yul\":16926:16930   */\n      0x00\n        /* \"#utility.yul\":16964:16966   */\n      0x20\n        /* \"#utility.yul\":16953:16962   */\n      dup3\n        /* \"#utility.yul\":16949:16967   */\n      add\n        /* \"#utility.yul\":16941:16967   */\n      swap1\n      pop\n        /* \"#utility.yul\":17013:17022   */\n      dup2\n        /* \"#utility.yul\":17007:17011   */\n      dup2\n        /* \"#utility.yul\":17003:17023   */\n      sub\n        /* \"#utility.yul\":16999:17000   */\n      0x00\n        /* \"#utility.yul\":16988:16997   */\n      dup4\n        /* \"#utility.yul\":16984:17001   */\n      add\n        /* \"#utility.yul\":16977:17024   */\n      mstore\n        /* \"#utility.yul\":17041:17172   */\n      tag_441\n        /* \"#utility.yul\":17167:17171   */\n      dup2\n        /* \"#utility.yul\":17041:17172   */\n      tag_250\n      jump\t// in\n    tag_441:\n        /* \"#utility.yul\":17033:17172   */\n      swap1\n      pop\n        /* \"#utility.yul\":16760:17179   */\n      swap2\n      swap1\n      pop\n      jump\t// out\n        /* \"#utility.yul\":17185:17407   */\n    tag_251:\n        /* \"#utility.yul\":17325:17359   */\n      0x536368656d65436f6e6669673a20736368656d6520646f6573206e6f74206578\n        /* \"#utility.yul\":17321:17322   */\n      0x00\n        /* \"#utility.yul\":17313:17319   */\n      dup3\n        /* \"#utility.yul\":17309:17323   */\n      add\n        /* \"#utility.yul\":17302:17360   */\n      mstore\n        /* \"#utility.yul\":17394:17399   */\n      0x6973740000000000000000000000000000000000000000000000000000000000\n        /* \"#utility.yul\":17389:17391   */\n      0x20\n        /* \"#utility.yul\":17381:17387   */\n      dup3\n        /* \"#utility.yul\":17377:17392   */\n      add\n        /* \"#utility.yul\":17370:17400   */\n      mstore\n        /* \"#utility.yul\":17185:17407   */\n      pop\n      jump\t// out\n        /* \"#utility.yul\":17413:17779   */\n    tag_252:\n        /* \"#utility.yul\":17555:17558   */\n      0x00\n        /* \"#utility.yul\":17576:17643   */\n      tag_444\n        /* \"#utility.yul\":17640:17642   */\n      0x23\n        /* \"#utility.yul\":17635:17638   */\n      dup4\n        /* \"#utility.yul\":17576:17643   */\n      tag_244\n      jump\t// in\n    tag_444:\n        /* \"#utility.yul\":17569:17643   */\n      swap2\n      pop\n        /* \"#utility.yul\":17652:17745   */\n      tag_445\n        /* \"#utility.yul\":17741:17744   */\n      dup3\n        /* \"#utility.yul\":17652:17745   */\n      tag_251\n      jump\t// in\n    tag_445:\n        /* \"#utility.yul\":17770:17772   */\n      0x40\n        /* \"#utility.yul\":17765:17768   */\n      dup3\n        /* \"#utility.yul\":17761:17773   */\n      add\n        /* \"#utility.yul\":17754:17773   */\n      swap1\n      pop\n        /* \"#utility.yul\":17413:17779   */\n      swap2\n      swap1\n      pop\n      jump\t// out\n        /* \"#utility.yul\":17785:18204   */\n    tag_140:\n        /* \"#utility.yul\":17951:17955   */\n      0x00\n        /* \"#utility.yul\":17989:17991   */\n      0x20\n        /* \"#utility.yul\":17978:17987   */\n      dup3\n        /* \"#utility.yul\":17974:17992   */\n      add\n        /* \"#utility.yul\":17966:17992   */\n      swap1\n      pop\n        /* \"#utility.yul\":18038:18047   */\n      dup2\n        /* \"#utility.yul\":18032:18036   */\n      dup2\n        /* \"#utility.yul\":18028:18048   */\n      sub\n        /* \"#utility.yul\":18024:18025   */\n      0x00\n        /* \"#utility.yul\":18013:18022   */\n      dup4\n        /* \"#utility.yul\":18009:18026   */\n      add\n        /* \"#utility.yul\":18002:18049   */\n      mstore\n        /* \"#utility.yul\":18066:18197   */\n      tag_447\n        /* \"#utility.yul\":18192:18196   */\n      dup2\n        /* \"#utility.yul\":18066:18197   */\n      tag_252\n      jump\t// in\n    tag_447:\n        /* \"#utility.yul\":18058:18197   */\n      swap1\n      pop\n        /* \"#utility.yul\":17785:18204   */\n      swap2\n      swap1\n      pop\n      jump\t// out\n        /* \"#utility.yul\":18210:18307   */\n    tag_253:\n        /* \"#utility.yul\":18269:18275   */\n      0x00\n        /* \"#utility.yul\":18297:18300   */\n      dup3\n        /* \"#utility.yul\":18287:18300   */\n      swap1\n      pop\n        /* \"#utility.yul\":18210:18307   */\n      swap3\n      swap2\n      pop\n      pop\n      jump\t// out\n        /* \"#utility.yul\":18313:18493   */\n    tag_254:\n        /* \"#utility.yul\":18361:18438   */\n      0x4e487b7100000000000000000000000000000000000000000000000000000000\n        /* \"#utility.yul\":18358:18359   */\n      0x00\n        /* \"#utility.yul\":18351:18439   */\n      mstore\n        /* \"#utility.yul\":18458:18462   */\n      0x41\n        /* \"#utility.yul\":18455:18456   */\n      0x04\n        /* \"#utility.yul\":18448:18463   */\n      mstore\n        /* \"#utility.yul\":18482:18486   */\n      0x24\n        /* \"#utility.yul\":18479:18480   */\n      0x00\n        /* \"#utility.yul\":18472:18487   */\n      revert\n        /* \"#utility.yul\":18499:18679   */\n    tag_255:\n        /* \"#utility.yul\":18547:18624   */\n      0x4e487b7100000000000000000000000000000000000000000000000000000000\n        /* \"#utility.yul\":18544:18545   */\n      0x00\n        /* \"#utility.yul\":18537:18625   */\n      mstore\n        /* \"#utility.yul\":18644:18648   */\n      0x22\n        /* \"#utility.yul\":18641:18642   */\n      0x04\n        /* \"#utility.yul\":18634:18649   */\n      mstore\n        /* \"#utility.yul\":18668:18672   */\n      0x24\n        /* \"#utility.yul\":18665:18666   */\n      0x00\n        /* \"#utility.yul\":18658:18673   */\n      revert\n        /* \"#utility.yul\":18685:19005   */\n    tag_196:\n        /* \"#utility.yul\":18729:18735   */\n      0x00\n        /* \"#utility.yul\":18766:18767   */\n      0x02\n        /* \"#utility.yul\":18760:18764   */\n      dup3\n        /* \"#utility.yul\":18756:18768   */\n      div\n        /* \"#utility.yul\":18746:18768   */\n      swap1\n      pop\n        /* \"#utility.yul\":18813:18814   */\n      0x01\n        /* \"#utility.yul\":18807:18811   */\n      dup3\n        /* \"#utility.yul\":18803:18815   */\n      and\n        /* \"#utility.yul\":18834:18852   */\n      dup1\n        /* \"#utility.yul\":18824:18905   */\n      tag_452\n      jumpi\n        /* \"#utility.yul\":18890:18894   */\n      0x7f\n        /* \"#utility.yul\":18882:18888   */\n      dup3\n        /* \"#utility.yul\":18878:18895   */\n      and\n        /* \"#utility.yul\":18868:18895   */\n      swap2\n      pop\n        /* \"#utility.yul\":18824:18905   */\n    tag_452:\n        /* \"#utility.yul\":18952:18954   */\n      0x20\n        /* \"#utility.yul\":18944:18950   */\n      dup3\n        /* \"#utility.yul\":18941:18955   */\n      lt\n        /* \"#utility.yul\":18921:18939   */\n      dup2\n        /* \"#utility.yul\":18918:18956   */\n      sub\n        /* \"#utility.yul\":18915:18999   */\n      tag_453\n      jumpi\n        /* \"#utility.yul\":18971:18989   */\n      tag_454\n      tag_255\n      jump\t// in\n    tag_454:\n        /* \"#utility.yul\":18915:18999   */\n    tag_453:\n        /* \"#utility.yul\":18736:19005   */\n      pop\n        /* \"#utility.yul\":18685:19005   */\n      swap2\n      swap1\n      pop\n      jump\t// out\n        /* \"#utility.yul\":19011:19152   */\n    tag_256:\n        /* \"#utility.yul\":19060:19064   */\n      0x00\n        /* \"#utility.yul\":19083:19086   */\n      dup2\n        /* \"#utility.yul\":19075:19086   */\n      swap1\n      pop\n        /* \"#utility.yul\":19106:19109   */\n      dup2\n        /* \"#utility.yul\":19103:19104   */\n      0x00\n        /* \"#utility.yul\":19096:19110   */\n      mstore\n        /* \"#utility.yul\":19140:19144   */\n      0x20\n        /* \"#utility.yul\":19137:19138   */\n      0x00\n        /* \"#utility.yul\":19127:19145   */\n      keccak256\n        /* \"#utility.yul\":19119:19145   */\n      swap1\n      pop\n        /* \"#utility.yul\":19011:19152   */\n      swap2\n      swap1\n      pop\n      jump\t// out\n        /* \"#utility.yul\":19158:19251   */\n    tag_257:\n        /* \"#utility.yul\":19195:19201   */\n      0x00\n        /* \"#utility.yul\":19242:19244   */\n      0x20\n        /* \"#utility.yul\":19237:19239   */\n      0x1f\n        /* \"#utility.yul\":19230:19235   */\n      dup4\n        /* \"#utility.yul\":19226:19240   */\n      add\n        /* \"#utility.yul\":19222:19245   */\n      div\n        /* \"#utility.yul\":19212:19245   */\n      swap1\n      pop\n        /* \"#utility.yul\":19158:19251   */\n      swap2\n      swap1\n      pop\n      jump\t// out\n        /* \"#utility.yul\":19257:19364   */\n    tag_258:\n        /* \"#utility.yul\":19301:19309   */\n      0x00\n        /* \"#utility.yul\":19351:19356   */\n      dup3\n        /* \"#utility.yul\":19345:19349   */\n      dup3\n        /* \"#utility.yul\":19341:19357   */\n      shl\n        /* \"#utility.yul\":19320:19357   */\n      swap1\n      pop\n        /* \"#utility.yul\":19257:19364   */\n      swap3\n      swap2\n      pop\n      pop\n      jump\t// out\n        /* \"#utility.yul\":19370:19763   */\n    tag_259:\n        /* \"#utility.yul\":19439:19445   */\n      0x00\n        /* \"#utility.yul\":19489:19490   */\n      0x08\n        /* \"#utility.yul\":19477:19487   */\n      dup4\n        /* \"#utility.yul\":19473:19491   */\n      mul\n        /* \"#utility.yul\":19512:19609   */\n      tag_459\n        /* \"#utility.yul\":19542:19608   */\n      0xffffffffffffffffffffffffffffffffffffffffffffffffffffffffffffffff\n        /* \"#utility.yul\":19531:19540   */\n      dup3\n        /* \"#utility.yul\":19512:19609   */\n      tag_258\n      jump\t// in\n    tag_459:\n        /* \"#utility.yul\":19630:19669   */\n      tag_460\n        /* \"#utility.yul\":19660:19668   */\n      dup7\n        /* \"#utility.yul\":19649:19658   */\n      dup4\n        /* \"#utility.yul\":19630:19669   */\n      tag_258\n      jump\t// in\n    tag_460:\n        /* \"#utility.yul\":19618:19669   */\n      swap6\n      pop\n        /* \"#utility.yul\":19702:19706   */\n      dup1\n        /* \"#utility.yul\":19698:19707   */\n      not\n        /* \"#utility.yul\":19691:19696   */\n      dup5\n        /* \"#utility.yul\":19687:19708   */\n      and\n        /* \"#utility.yul\":19678:19708   */\n      swap4\n      pop\n        /* \"#utility.yul\":19751:19755   */\n      dup1\n        /* \"#utility.yul\":19741:19749   */\n      dup7\n        /* \"#utility.yul\":19737:19756   */\n      and\n        /* \"#utility.yul\":19730:19735   */\n      dup5\n        /* \"#utility.yul\":19727:19757   */\n      or\n        /* \"#utility.yul\":19717:19757   */\n      swap3\n      pop\n        /* \"#utility.yul\":19446:19763   */\n      pop\n      pop\n        /* \"#utility.yul\":19370:19763   */\n      swap4\n      swap3\n      pop\n      pop\n      pop\n      jump\t// out\n        /* \"#utility.yul\":19769:19829   */\n    tag_260:\n        /* \"#utility.yul\":19797:19800   */\n      0x00\n        /* \"#utility.yul\":19818:19823   */\n      dup2\n        /* \"#utility.yul\":19811:19823   */\n      swap1\n      pop\n        /* \"#utility.yul\":19769:19829   */\n      swap2\n      swap1\n      pop\n      jump\t// out\n        /* \"#utility.yul\":19835:19977   */\n    tag_261:\n        /* \"#utility.yul\":19885:19894   */\n      0x00\n        /* \"#utility.yul\":19918:19971   */\n      tag_463\n        /* \"#utility.yul\":19936:19970   */\n      tag_464\n        /* \"#utility.yul\":19945:19969   */\n      tag_465\n        /* \"#utility.yul\":19963:19968   */\n      dup5\n        /* \"#utility.yul\":19945:19969   */\n      tag_223\n      jump\t// in\n    tag_465:\n        /* \"#utility.yul\":19936:19970   */\n      tag_260\n      jump\t// in\n    tag_464:\n        /* \"#utility.yul\":19918:19971   */\n      tag_223\n      jump\t// in\n    tag_463:\n        /* \"#utility.yul\":19905:19971   */\n      swap1\n      pop\n        /* \"#utility.yul\":19835:19977   */\n      swap2\n      swap1\n      pop\n      jump\t// out\n        /* \"#utility.yul\":19983:20058   */\n    tag_262:\n        /* \"#utility.yul\":20026:20029   */\n      0x00\n        /* \"#utility.yul\":20047:20052   */\n      dup2\n        /* \"#utility.yul\":20040:20052   */\n      swap1\n      pop\n        /* \"#utility.yul\":19983:20058   */\n      swap2\n      swap1\n      pop\n      jump\t// out\n        /* \"#utility.yul\":20064:20333   */\n    tag_263:\n        /* \"#utility.yul\":20174:20213   */\n      tag_468\n        /* \"#utility.yul\":20205:20212   */\n      dup4\n        /* \"#utility.yul\":20174:20213   */\n      tag_261\n      jump\t// in\n    tag_468:\n        /* \"#utility.yul\":20235:20326   */\n      tag_469\n        /* \"#utility.yul\":20284:20325   */\n      tag_470\n        /* \"#utility.yul\":20308:20324   */\n      dup3\n        /* \"#utility.yul\":20284:20325   */\n      tag_262\n      jump\t// in\n    tag_470:\n        /* \"#utility.yul\":20276:20282   */\n      dup5\n        /* \"#utility.yul\":20269:20273   */\n      dup5\n        /* \"#utility.yul\":20263:20274   */\n      sload\n        /* \"#utility.yul\":20235:20326   */\n      tag_259\n      jump\t// in\n    tag_469:\n        /* \"#utility.yul\":20229:20233   */\n      dup3\n        /* \"#utility.yul\":20222:20327   */\n      sstore\n        /* \"#utility.yul\":20140:20333   */\n      pop\n        /* \"#utility.yul\":20064:20333   */\n      pop\n      pop\n      pop\n      jump\t// out\n        /* \"#utility.yul\":20339:20412   */\n    tag_264:\n        /* \"#utility.yul\":20384:20387   */\n      0x00\n        /* \"#utility.yul\":20405:20406   */\n      0x00\n        /* \"#utility.yul\":20398:20406   */\n      swap1\n      pop\n        /* \"#utility.yul\":20339:20412   */\n      swap1\n      jump\t// out\n        /* \"#utility.yul\":20418:20607   */\n    tag_265:\n        /* \"#utility.yul\":20495:20527   */\n      tag_473\n      tag_264\n      jump\t// in\n    tag_473:\n        /* \"#utility.yul\":20536:20601   */\n      tag_474\n        /* \"#utility.yul\":20594:20600   */\n      dup2\n        /* \"#utility.yul\":20586:20592   */\n      dup5\n        /* \"#utility.yul\":20580:20584   */\n      dup5\n        /* \"#utility.yul\":20536:20601   */\n      tag_263\n      jump\t// in\n    tag_474:\n        /* \"#utility.yul\":20471:20607   */\n      pop\n        /* \"#utility.yul\":20418:20607   */\n      pop\n      pop\n      jump\t// out\n        /* \"#utility.yul\":20613:20799   */\n    tag_266:\n        /* \"#utility.yul\":20673:20793   */\n    tag_476:\n        /* \"#utility.yul\":20690:20693   */\n      dup2\n        /* \"#utility.yul\":20683:20688   */\n      dup2\n        /* \"#utility.yul\":20680:20694   */\n      lt\n        /* \"#utility.yul\":20673:20793   */\n      iszero\n      tag_478\n      jumpi\n        /* \"#utility.yul\":20744:20783   */\n      tag_479\n        /* \"#utility.yul\":20781:20782   */\n      0x00\n        /* \"#utility.yul\":20774:20779   */\n      dup3\n        /* \"#utility.yul\":20744:20783   */\n      tag_265\n      jump\t// in\n    tag_479:\n        /* \"#utility.yul\":20717:20718   */\n      0x01\n        /* \"#utility.yul\":20710:20715   */\n      dup2\n        /* \"#utility.yul\":20706:20719   */\n      add\n        /* \"#utility.yul\":20697:20719   */\n      swap1\n      pop\n        /* \"#utility.yul\":20673:20793   */\n      jump(tag_476)\n    tag_478:\n        /* \"#utility.yul\":20613:20799   */\n      pop\n      pop\n      jump\t// out\n        /* \"#utility.yul\":20805:21348   */\n    tag_267:\n        /* \"#utility.yul\":20906:20908   */\n      0x1f\n        /* \"#utility.yul\":20901:20904   */\n      dup3\n        /* \"#utility.yul\":20898:20909   */\n      gt\n        /* \"#utility.yul\":20895:21341   */\n      iszero\n      tag_481\n      jumpi\n        /* \"#utility.yul\":20940:20978   */\n      tag_482\n        /* \"#utility.yul\":20972:20977   */\n      dup2\n        /* \"#utility.yul\":20940:20978   */\n      tag_256\n      jump\t// in\n    tag_482:\n        /* \"#utility.yul\":21024:21053   */\n      tag_483\n        /* \"#utility.yul\":21042:21052   */\n      dup5\n        /* \"#utility.yul\":21024:21053   */\n      tag_257\n      jump\t// in\n    tag_483:\n        /* \"#utility.yul\":21014:21022   */\n      dup2\n        /* \"#utility.yul\":21010:21054   */\n      add\n        /* \"#utility.yul\":21207:21209   */\n      0x20\n        /* \"#utility.yul\":21195:21205   */\n      dup6\n        /* \"#utility.yul\":21192:21210   */\n      lt\n        /* \"#utility.yul\":21189:21238   */\n      iszero\n      tag_484\n      jumpi\n        /* \"#utility.yul\":21228:21236   */\n      dup2\n        /* \"#utility.yul\":21213:21236   */\n      swap1\n      pop\n        /* \"#utility.yul\":21189:21238   */\n    tag_484:\n        /* \"#utility.yul\":21251:21331   */\n      tag_485\n        /* \"#utility.yul\":21307:21329   */\n      tag_486\n        /* \"#utility.yul\":21325:21328   */\n      dup6\n        /* \"#utility.yul\":21307:21329   */\n      tag_257\n      jump\t// in\n    tag_486:\n        /* \"#utility.yul\":21297:21305   */\n      dup4\n        /* \"#utility.yul\":21293:21330   */\n      add\n        /* \"#utility.yul\":21280:21291   */\n      dup3\n        /* \"#utility.yul\":21251:21331   */\n      tag_266\n      jump\t// in\n    tag_485:\n        /* \"#utility.yul\":20910:21341   */\n      pop\n      pop\n        /* \"#utility.yul\":20895:21341   */\n    tag_481:\n        /* \"#utility.yul\":20805:21348   */\n      pop\n      pop\n      pop\n      jump\t// out\n        /* \"#utility.yul\":21354:21471   */\n    tag_268:\n        /* \"#utility.yul\":21408:21416   */\n      0x00\n        /* \"#utility.yul\":21458:21463   */\n      dup3\n        /* \"#utility.yul\":21452:21456   */\n      dup3\n        /* \"#utility.yul\":21448:21464   */\n      shr\n        /* \"#utility.yul\":21427:21464   */\n      swap1\n      pop\n        /* \"#utility.yul\":21354:21471   */\n      swap3\n      swap2\n      pop\n      pop\n      jump\t// out\n        /* \"#utility.yul\":21477:21646   */\n    tag_269:\n        /* \"#utility.yul\":21521:21527   */\n      0x00\n        /* \"#utility.yul\":21554:21605   */\n      tag_489\n        /* \"#utility.yul\":21602:21603   */\n      0x00\n        /* \"#utility.yul\":21598:21604   */\n      not\n        /* \"#utility.yul\":21590:21595   */\n      dup5\n        /* \"#utility.yul\":21587:21588   */\n      0x08\n        /* \"#utility.yul\":21583:21596   */\n      mul\n        /* \"#utility.yul\":21554:21605   */\n      tag_268\n      jump\t// in\n    tag_489:\n        /* \"#utility.yul\":21550:21606   */\n      not\n        /* \"#utility.yul\":21635:21639   */\n      dup1\n        /* \"#utility.yul\":21629:21633   */\n      dup4\n        /* \"#utility.yul\":21625:21640   */\n      and\n        /* \"#utility.yul\":21615:21640   */\n      swap2\n      pop\n        /* \"#utility.yul\":21528:21646   */\n      pop\n        /* \"#utility.yul\":21477:21646   */\n      swap3\n      swap2\n      pop\n      pop\n      jump\t// out\n        /* \"#utility.yul\":21651:21946   */\n    tag_270:\n        /* \"#utility.yul\":21727:21731   */\n      0x00\n        /* \"#utility.yul\":21873:21902   */\n      tag_491\n        /* \"#utility.yul\":21898:21901   */\n      dup4\n        /* \"#utility.yul\":21892:21896   */\n      dup4\n        /* \"#utility.yul\":21873:21902   */\n      tag_269\n      jump\t// in\n    tag_491:\n        /* \"#utility.yul\":21865:21902   */\n      swap2\n      pop\n        /* \"#utility.yul\":21935:21938   */\n      dup3\n        /* \"#utility.yul\":21932:21933   */\n      0x02\n        /* \"#utility.yul\":21928:21939   */\n      mul\n        /* \"#utility.yul\":21922:21926   */\n      dup3\n        /* \"#utility.yul\":21919:21940   */\n      or\n        /* \"#utility.yul\":21911:21940   */\n      swap1\n      pop\n        /* \"#utility.yul\":21651:21946   */\n      swap3\n      swap2\n      pop\n      pop\n      jump\t// out\n        /* \"#utility.yul\":21951:23354   */\n    tag_142:\n        /* \"#utility.yul\":22075:22119   */\n      tag_493\n        /* \"#utility.yul\":22115:22118   */\n      dup4\n        /* \"#utility.yul\":22110:22113   */\n      dup4\n        /* \"#utility.yul\":22075:22119   */\n      tag_253\n      jump\t// in\n    tag_493:\n        /* \"#utility.yul\":22184:22202   */\n      0xffffffffffffffff\n        /* \"#utility.yul\":22176:22182   */\n      dup2\n        /* \"#utility.yul\":22173:22203   */\n      gt\n        /* \"#utility.yul\":22170:22226   */\n      iszero\n      tag_494\n      jumpi\n        /* \"#utility.yul\":22206:22224   */\n      tag_495\n      tag_254\n      jump\t// in\n    tag_495:\n        /* \"#utility.yul\":22170:22226   */\n    tag_494:\n        /* \"#utility.yul\":22250:22288   */\n      tag_496\n        /* \"#utility.yul\":22282:22286   */\n      dup3\n        /* \"#utility.yul\":22276:22287   */\n      sload\n        /* \"#utility.yul\":22250:22288   */\n      tag_196\n      jump\t// in\n    tag_496:\n        /* \"#utility.yul\":22335:22402   */\n      tag_497\n        /* \"#utility.yul\":22395:22401   */\n      dup3\n        /* \"#utility.yul\":22387:22393   */\n      dup3\n        /* \"#utility.yul\":22381:22385   */\n      dup6\n        /* \"#utility.yul\":22335:22402   */\n      tag_267\n      jump\t// in\n    tag_497:\n        /* \"#utility.yul\":22429:22430   */\n      0x00\n        /* \"#utility.yul\":22458:22460   */\n      0x1f\n        /* \"#utility.yul\":22450:22456   */\n      dup4\n        /* \"#utility.yul\":22447:22461   */\n      gt\n        /* \"#utility.yul\":22475:22476   */\n      0x01\n        /* \"#utility.yul\":22470:23102   */\n      dup2\n      eq\n      tag_499\n      jumpi\n        /* \"#utility.yul\":23146:23147   */\n      0x00\n        /* \"#utility.yul\":23163:23169   */\n      dup5\n        /* \"#utility.yul\":23160:23244   */\n      iszero\n      tag_500\n      jumpi\n        /* \"#utility.yul\":23219:23228   */\n      dup3\n        /* \"#utility.yul\":23214:23217   */\n      dup8\n        /* \"#utility.yul\":23210:23229   */\n      add\n        /* \"#utility.yul\":23197:23230   */\n      calldataload\n        /* \"#utility.yul\":23188:23230   */\n      swap1\n      pop\n        /* \"#utility.yul\":23160:23244   */\n    tag_500:\n        /* \"#utility.yul\":23270:23337   */\n      tag_501\n        /* \"#utility.yul\":23330:23336   */\n      dup6\n        /* \"#utility.yul\":23323:23328   */\n      dup3\n        /* \"#utility.yul\":23270:23337   */\n      tag_270\n      jump\t// in\n    tag_501:\n        /* \"#utility.yul\":23264:23268   */\n      dup7\n        /* \"#utility.yul\":23257:23338   */\n      sstore\n        /* \"#utility.yul\":23119:23348   */\n      pop\n        /* \"#utility.yul\":22440:23348   */\n      jump(tag_498)\n        /* \"#utility.yul\":22470:23102   */\n    tag_499:\n        /* \"#utility.yul\":22522:22526   */\n      0x1f\n        /* \"#utility.yul\":22518:22527   */\n      not\n        /* \"#utility.yul\":22510:22516   */\n      dup5\n        /* \"#utility.yul\":22506:22528   */\n      and\n        /* \"#utility.yul\":22556:22593   */\n      tag_502\n        /* \"#utility.yul\":22588:22592   */\n      dup7\n        /* \"#utility.yul\":22556:22593   */\n      tag_256\n      jump\t// in\n    tag_502:\n        /* \"#utility.yul\":22615:22616   */\n      0x00\n        /* \"#utility.yul\":22629:22844   */\n    tag_503:\n        /* \"#utility.yul\":22643:22650   */\n      dup3\n        /* \"#utility.yul\":22640:22641   */\n      dup2\n        /* \"#utility.yul\":22637:22651   */\n      lt\n        /* \"#utility.yul\":22629:22844   */\n      iszero\n      tag_505\n      jumpi\n        /* \"#utility.yul\":22729:22738   */\n      dup5\n        /* \"#utility.yul\":22724:22727   */\n      dup10\n        /* \"#utility.yul\":22720:22739   */\n      add\n        /* \"#utility.yul\":22707:22740   */\n      calldataload\n        /* \"#utility.yul\":22699:22705   */\n      dup3\n        /* \"#utility.yul\":22692:22741   */\n      sstore\n        /* \"#utility.yul\":22780:22781   */\n      0x01\n        /* \"#utility.yul\":22772:22778   */\n      dup3\n        /* \"#utility.yul\":22768:22782   */\n      add\n        /* \"#utility.yul\":22758:22782   */\n      swap2\n      pop\n        /* \"#utility.yul\":22827:22829   */\n      0x20\n        /* \"#utility.yul\":22816:22825   */\n      dup6\n        /* \"#utility.yul\":22812:22830   */\n      add\n        /* \"#utility.yul\":22799:22830   */\n      swap5\n      pop\n        /* \"#utility.yul\":22666:22670   */\n      0x20\n        /* \"#utility.yul\":22663:22664   */\n      dup2\n        /* \"#utility.yul\":22659:22671   */\n      add\n        /* \"#utility.yul\":22654:22671   */\n      swap1\n      pop\n        /* \"#utility.yul\":22629:22844   */\n      jump(tag_503)\n    tag_505:\n        /* \"#utility.yul\":22872:22878   */\n      dup7\n        /* \"#utility.yul\":22863:22870   */\n      dup4\n        /* \"#utility.yul\":22860:22879   */\n      lt\n        /* \"#utility.yul\":22857:23043   */\n      iszero\n      tag_506\n      jumpi\n        /* \"#utility.yul\":22937:22946   */\n      dup5\n        /* \"#utility.yul\":22932:22935   */\n      dup10\n        /* \"#utility.yul\":22928:22947   */\n      add\n        /* \"#utility.yul\":22915:22948   */\n      calldataload\n        /* \"#utility.yul\":22980:23028   */\n      tag_507\n        /* \"#utility.yul\":23022:23026   */\n      0x1f\n        /* \"#utility.yul\":23014:23020   */\n      dup10\n        /* \"#utility.yul\":23010:23027   */\n      and\n        /* \"#utility.yul\":22999:23008   */\n      dup3\n        /* \"#utility.yul\":22980:23028   */\n      tag_269\n      jump\t// in\n    tag_507:\n        /* \"#utility.yul\":22972:22978   */\n      dup4\n        /* \"#utility.yul\":22965:23029   */\n      sstore\n        /* \"#utility.yul\":22880:23043   */\n      pop\n        /* \"#utility.yul\":22857:23043   */\n    tag_506:\n        /* \"#utility.yul\":23089:23090   */\n      0x01\n        /* \"#utility.yul\":23085:23086   */\n      0x02\n        /* \"#utility.yul\":23077:23083   */\n      dup9\n        /* \"#utility.yul\":23073:23087   */\n      mul\n        /* \"#utility.yul\":23069:23091   */\n      add\n        /* \"#utility.yul\":23063:23067   */\n      dup9\n        /* \"#utility.yul\":23056:23092   */\n      sstore\n        /* \"#utility.yul\":22477:23102   */\n      pop\n      pop\n      pop\n        /* \"#utility.yul\":22440:23348   */\n    tag_498:\n      pop\n        /* \"#utility.yul\":22050:23354   */\n      pop\n      pop\n      pop\n        /* \"#utility.yul\":21951:23354   */\n      pop\n      pop\n      pop\n      jump\t// out\n        /* \"#utility.yul\":23360:23508   */\n    tag_271:\n        /* \"#utility.yul\":23458:23464   */\n      dup3\n        /* \"#utility.yul\":23453:23456   */\n      dup2\n        /* \"#utility.yul\":23448:23451   */\n      dup4\n        /* \"#utility.yul\":23435:23465   */\n      calldatacopy\n        /* \"#utility.yul\":23499:23500   */\n      0x00\n        /* \"#utility.yul\":23490:23496   */\n      dup4\n        /* \"#utility.yul\":23485:23488   */\n      dup4\n        /* \"#utility.yul\":23481:23497   */\n      add\n        /* \"#utility.yul\":23474:23501   */\n      mstore\n        /* \"#utility.yul\":23360:23508   */\n      pop\n      pop\n      pop\n      jump\t// out\n        /* \"#utility.yul\":23538:23855   */\n    tag_272:\n        /* \"#utility.yul\":23636:23639   */\n      0x00\n        /* \"#utility.yul\":23657:23728   */\n      tag_510\n        /* \"#utility.yul\":23721:23727   */\n      dup4\n        /* \"#utility.yul\":23716:23719   */\n      dup6\n        /* \"#utility.yul\":23657:23728   */\n      tag_244\n      jump\t// in\n    tag_510:\n        /* \"#utility.yul\":23650:23728   */\n      swap4\n      pop\n        /* \"#utility.yul\":23738:23794   */\n      tag_511\n        /* \"#utility.yul\":23787:23793   */\n      dup4\n        /* \"#utility.yul\":23782:23785   */\n      dup6\n        /* \"#utility.yul\":23775:23780   */\n      dup5\n        /* \"#utility.yul\":23738:23794   */\n      tag_271\n      jump\t// in\n    tag_511:\n        /* \"#utility.yul\":23819:23848   */\n      tag_512\n        /* \"#utility.yul\":23841:23847   */\n      dup4\n        /* \"#utility.yul\":23819:23848   */\n      tag_240\n      jump\t// in\n    tag_512:\n        /* \"#utility.yul\":23814:23817   */\n      dup5\n        /* \"#utility.yul\":23810:23849   */\n      add\n        /* \"#utility.yul\":23803:23849   */\n      swap1\n      pop\n        /* \"#utility.yul\":23538:23855   */\n      swap4\n      swap3\n      pop\n      pop\n      pop\n      jump\t// out\n        /* \"#utility.yul\":23861:23979   */\n    tag_273:\n        /* \"#utility.yul\":23948:23972   */\n      tag_514\n        /* \"#utility.yul\":23966:23971   */\n      dup2\n        /* \"#utility.yul\":23948:23972   */\n      tag_216\n      jump\t// in\n    tag_514:\n        /* \"#utility.yul\":23943:23946   */\n      dup3\n        /* \"#utility.yul\":23936:23973   */\n      mstore\n        /* \"#utility.yul\":23861:23979   */\n      pop\n      pop\n      jump\t// out\n        /* \"#utility.yul\":23985:24428   */\n    tag_144:\n        /* \"#utility.yul\":24136:24140   */\n      0x00\n        /* \"#utility.yul\":24174:24176   */\n      0x40\n        /* \"#utility.yul\":24163:24172   */\n      dup3\n        /* \"#utility.yul\":24159:24177   */\n      add\n        /* \"#utility.yul\":24151:24177   */\n      swap1\n      pop\n        /* \"#utility.yul\":24223:24232   */\n      dup2\n        /* \"#utility.yul\":24217:24221   */\n      dup2\n        /* \"#utility.yul\":24213:24233   */\n      sub\n        /* \"#utility.yul\":24209:24210   */\n      0x00\n        /* \"#utility.yul\":24198:24207   */\n      dup4\n        /* \"#utility.yul\":24194:24211   */\n      add\n        /* \"#utility.yul\":24187:24234   */\n      mstore\n        /* \"#utility.yul\":24251:24339   */\n      tag_516\n        /* \"#utility.yul\":24334:24338   */\n      dup2\n        /* \"#utility.yul\":24325:24331   */\n      dup6\n        /* \"#utility.yul\":24317:24323   */\n      dup8\n        /* \"#utility.yul\":24251:24339   */\n      tag_272\n      jump\t// in\n    tag_516:\n        /* \"#utility.yul\":24243:24339   */\n      swap1\n      pop\n        /* \"#utility.yul\":24349:24421   */\n      tag_517\n        /* \"#utility.yul\":24417:24419   */\n      0x20\n        /* \"#utility.yul\":24406:24415   */\n      dup4\n        /* \"#utility.yul\":24402:24420   */\n      add\n        /* \"#utility.yul\":24393:24399   */\n      dup5\n        /* \"#utility.yul\":24349:24421   */\n      tag_273\n      jump\t// in\n    tag_517:\n        /* \"#utility.yul\":23985:24428   */\n      swap5\n      swap4\n      pop\n      pop\n      pop\n      pop\n      jump\t// out\n        /* \"#utility.yul\":24434:24754   */\n    tag_152:\n        /* \"#utility.yul\":24549:24553   */\n      0x00\n        /* \"#utility.yul\":24587:24589   */\n      0x40\n        /* \"#utility.yul\":24576:24585   */\n      dup3\n        /* \"#utility.yul\":24572:24590   */\n      add\n        /* \"#utility.yul\":24564:24590   */\n      swap1\n      pop\n        /* \"#utility.yul\":24600:24665   */\n      tag_519\n        /* \"#utility.yul\":24662:24663   */\n      0x00\n        /* \"#utility.yul\":24651:24660   */\n      dup4\n        /* \"#utility.yul\":24647:24664   */\n      add\n        /* \"#utility.yul\":24638:24644   */\n      dup6\n        /* \"#utility.yul\":24600:24665   */\n      tag_229\n      jump\t// in\n    tag_519:\n        /* \"#utility.yul\":24675:24747   */\n      tag_520\n        /* \"#utility.yul\":24743:24745   */\n      0x20\n        /* \"#utility.yul\":24732:24741   */\n      dup4\n        /* \"#utility.yul\":24728:24746   */\n      add\n        /* \"#utility.yul\":24719:24725   */\n      dup5\n        /* \"#utility.yul\":24675:24747   */\n      tag_273\n      jump\t// in\n    tag_520:\n        /* \"#utility.yul\":24434:24754   */\n      swap4\n      swap3\n      pop\n      pop\n      pop\n      jump\t// out\n        /* \"#utility.yul\":24760:24989   */\n    tag_274:\n        /* \"#utility.yul\":24900:24934   */\n      0x526f6c654163636573733a2063616c6c657220646f6573206e6f742068617665\n        /* \"#utility.yul\":24896:24897   */\n      0x00\n        /* \"#utility.yul\":24888:24894   */\n      dup3\n        /* \"#utility.yul\":24884:24898   */\n      add\n        /* \"#utility.yul\":24877:24935   */\n      mstore\n        /* \"#utility.yul\":24969:24981   */\n      0x207468697320726f6c6500000000000000000000000000000000000000000000\n        /* \"#utility.yul\":24964:24966   */\n      0x20\n        /* \"#utility.yul\":24956:24962   */\n      dup3\n        /* \"#utility.yul\":24952:24967   */\n      add\n        /* \"#utility.yul\":24945:24982   */\n      mstore\n        /* \"#utility.yul\":24760:24989   */\n      pop\n      jump\t// out\n        /* \"#utility.yul\":24995:25361   */\n    tag_275:\n        /* \"#utility.yul\":25137:25140   */\n      0x00\n        /* \"#utility.yul\":25158:25225   */\n      tag_523\n        /* \"#utility.yul\":25222:25224   */\n      0x2a\n        /* \"#utility.yul\":25217:25220   */\n      dup4\n        /* \"#utility.yul\":25158:25225   */\n      tag_244\n      jump\t// in\n    tag_523:\n        /* \"#utility.yul\":25151:25225   */\n      swap2\n      pop\n        /* \"#utility.yul\":25234:25327   */\n      tag_524\n        /* \"#utility.yul\":25323:25326   */\n      dup3\n        /* \"#utility.yul\":25234:25327   */\n      tag_274\n      jump\t// in\n    tag_524:\n        /* \"#utility.yul\":25352:25354   */\n      0x40\n        /* \"#utility.yul\":25347:25350   */\n      dup3\n        /* \"#utility.yul\":25343:25355   */\n      add\n        /* \"#utility.yul\":25336:25355   */\n      swap1\n      pop\n        /* \"#utility.yul\":24995:25361   */\n      swap2\n      swap1\n      pop\n      jump\t// out\n        /* \"#utility.yul\":25367:25786   */\n    tag_159:\n        /* \"#utility.yul\":25533:25537   */\n      0x00\n        /* \"#utility.yul\":25571:25573   */\n      0x20\n        /* \"#utility.yul\":25560:25569   */\n      dup3\n        /* \"#utility.yul\":25556:25574   */\n      add\n        /* \"#utility.yul\":25548:25574   */\n      swap1\n      pop\n        /* \"#utility.yul\":25620:25629   */\n      dup2\n        /* \"#utility.yul\":25614:25618   */\n      dup2\n        /* \"#utility.yul\":25610:25630   */\n      sub\n        /* \"#utility.yul\":25606:25607   */\n      0x00\n        /* \"#utility.yul\":25595:25604   */\n      dup4\n        /* \"#utility.yul\":25591:25608   */\n      add\n        /* \"#utility.yul\":25584:25631   */\n      mstore\n        /* \"#utility.yul\":25648:25779   */\n      tag_526\n        /* \"#utility.yul\":25774:25778   */\n      dup2\n        /* \"#utility.yul\":25648:25779   */\n      tag_275\n      jump\t// in\n    tag_526:\n        /* \"#utility.yul\":25640:25779   */\n      swap1\n      pop\n        /* \"#utility.yul\":25367:25786   */\n      swap2\n      swap1\n      pop\n      jump\t// out\n        /* \"#utility.yul\":25792:26013   */\n    tag_276:\n        /* \"#utility.yul\":25932:25966   */\n      0x536368656d65436f6e6669673a206e616d652063616e6e6f7420626520656d70\n        /* \"#utility.yul\":25928:25929   */\n      0x00\n        /* \"#utility.yul\":25920:25926   */\n      dup3\n        /* \"#utility.yul\":25916:25930   */\n      add\n        /* \"#utility.yul\":25909:25967   */\n      mstore\n        /* \"#utility.yul\":26001:26005   */\n      0x7479000000000000000000000000000000000000000000000000000000000000\n        /* \"#utility.yul\":25996:25998   */\n      0x20\n        /* \"#utility.yul\":25988:25994   */\n      dup3\n        /* \"#utility.yul\":25984:25999   */\n      add\n        /* \"#utility.yul\":25977:26006   */\n      mstore\n        /* \"#utility.yul\":25792:26013   */\n      pop\n      jump\t// out\n        /* \"#utility.yul\":26019:26385   */\n    tag_277:\n        /* \"#utility.yul\":26161:26164   */\n      0x00\n        /* \"#utility.yul\":26182:26249   */\n      tag_529\n        /* \"#utility.yul\":26246:26248   */\n      0x22\n        /* \"#utility.yul\":26241:26244   */\n      dup4\n        /* \"#utility.yul\":26182:26249   */\n      tag_244\n      jump\t// in\n    tag_529:\n        /* \"#utility.yul\":26175:26249   */\n      swap2\n      pop\n        /* \"#utility.yul\":26258:26351   */\n      tag_530\n        /* \"#utility.yul\":26347:26350   */\n      dup3\n        /* \"#utility.yul\":26258:26351   */\n      tag_276\n      jump\t// in\n    tag_530:\n        /* \"#utility.yul\":26376:26378   */\n      0x40\n        /* \"#utility.yul\":26371:26374   */\n      dup3\n        /* \"#utility.yul\":26367:26379   */\n      add\n        /* \"#utility.yul\":26360:26379   */\n      swap1\n      pop\n        /* \"#utility.yul\":26019:26385   */\n      swap2\n      swap1\n      pop\n      jump\t// out\n        /* \"#utility.yul\":26391:26810   */\n    tag_172:\n        /* \"#utility.yul\":26557:26561   */\n      0x00\n        /* \"#utility.yul\":26595:26597   */\n      0x20\n        /* \"#utility.yul\":26584:26593   */\n      dup3\n        /* \"#utility.yul\":26580:26598   */\n      add\n        /* \"#utility.yul\":26572:26598   */\n      swap1\n      pop\n        /* \"#utility.yul\":26644:26653   */\n      dup2\n        /* \"#utility.yul\":26638:26642   */\n      dup2\n        /* \"#utility.yul\":26634:26654   */\n      sub\n        /* \"#utility.yul\":26630:26631   */\n      0x00\n        /* \"#utility.yul\":26619:26628   */\n      dup4\n        /* \"#utility.yul\":26615:26632   */\n      add\n        /* \"#utility.yul\":26608:26655   */\n      mstore\n        /* \"#utility.yul\":26672:26803   */\n      tag_532\n        /* \"#utility.yul\":26798:26802   */\n      dup2\n        /* \"#utility.yul\":26672:26803   */\n      tag_277\n      jump\t// in\n    tag_532:\n        /* \"#utility.yul\":26664:26803   */\n      swap1\n      pop\n        /* \"#utility.yul\":26391:26810   */\n      swap2\n      swap1\n      pop\n      jump\t// out\n        /* \"#utility.yul\":26816:26998   */\n    tag_278:\n        /* \"#utility.yul\":26956:26990   */\n      0x536368656d65436f6e6669673a20616d6f756e74206d757374206265203e2030\n        /* \"#utility.yul\":26952:26953   */\n      0x00\n        /* \"#utility.yul\":26944:26950   */\n      dup3\n        /* \"#utility.yul\":26940:26954   */\n      add\n        /* \"#utility.yul\":26933:26991   */\n      mstore\n        /* \"#utility.yul\":26816:26998   */\n      pop\n      jump\t// out\n        /* \"#utility.yul\":27004:27370   */\n    tag_279:\n        /* \"#utility.yul\":27146:27149   */\n      0x00\n        /* \"#utility.yul\":27167:27234   */\n      tag_535\n        /* \"#utility.yul\":27231:27233   */\n      0x20\n        /* \"#utility.yul\":27226:27229   */\n      dup4\n        /* \"#utility.yul\":27167:27234   */\n      tag_244\n      jump\t// in\n    tag_535:\n        /* \"#utility.yul\":27160:27234   */\n      swap2\n      pop\n        /* \"#utility.yul\":27243:27336   */\n      tag_536\n        /* \"#utility.yul\":27332:27335   */\n      dup3\n        /* \"#utility.yul\":27243:27336   */\n      tag_278\n      jump\t// in\n    tag_536:\n        /* \"#utility.yul\":27361:27363   */\n      0x20\n        /* \"#utility.yul\":27356:27359   */\n      dup3\n        /* \"#utility.yul\":27352:27364   */\n      add\n        /* \"#utility.yul\":27345:27364   */\n      swap1\n      pop\n        /* \"#utility.yul\":27004:27370   */\n      swap2\n      swap1\n      pop\n      jump\t// out\n        /* \"#utility.yul\":27376:27795   */\n    tag_175:\n        /* \"#utility.yul\":27542:27546   */\n      0x00\n        /* \"#utility.yul\":27580:27582   */\n      0x20\n        /* \"#utility.yul\":27569:27578   */\n      dup3\n        /* \"#utility.yul\":27565:27583   */\n      add\n        /* \"#utility.yul\":27557:27583   */\n      swap1\n      pop\n        /* \"#utility.yul\":27629:27638   */\n      dup2\n        /* \"#utility.yul\":27623:27627   */\n      dup2\n        /* \"#utility.yul\":27619:27639   */\n      sub\n        /* \"#utility.yul\":27615:27616   */\n      0x00\n        /* \"#utility.yul\":27604:27613   */\n      dup4\n        /* \"#utility.yul\":27600:27617   */\n      add\n        /* \"#utility.yul\":27593:27640   */\n      mstore\n        /* \"#utility.yul\":27657:27788   */\n      tag_538\n        /* \"#utility.yul\":27783:27787   */\n      dup2\n        /* \"#utility.yul\":27657:27788   */\n      tag_279\n      jump\t// in\n    tag_538:\n        /* \"#utility.yul\":27649:27788   */\n      swap1\n      pop\n        /* \"#utility.yul\":27376:27795   */\n      swap2\n      swap1\n      pop\n      jump\t// out\n        /* \"#utility.yul\":27801:28025   */\n    tag_280:\n        /* \"#utility.yul\":27941:27975   */\n      0x536368656d65436f6e6669673a206d696e416765206d757374206265203c206d\n        /* \"#utility.yul\":27937:27938   */\n      0x00\n        /* \"#utility.yul\":27929:27935   */\n      dup3\n        /* \"#utility.yul\":27925:27939   */\n      add\n        /* \"#utility.yul\":27918:27976   */\n      mstore\n        /* \"#utility.yul\":28010:28017   */\n      0x6178416765000000000000000000000000000000000000000000000000000000\n        /* \"#utility.yul\":28005:28007   */\n      0x20\n        /* \"#utility.yul\":27997:28003   */\n      dup3\n        /* \"#utility.yul\":27993:28008   */\n      add\n        /* \"#utility.yul\":27986:28018   */\n      mstore\n        /* \"#utility.yul\":27801:28025   */\n      pop\n      jump\t// out\n        /* \"#utility.yul\":28031:28397   */\n    tag_281:\n        /* \"#utility.yul\":28173:28176   */\n      0x00\n        /* \"#utility.yul\":28194:28261   */\n      tag_541\n        /* \"#utility.yul\":28258:28260   */\n      0x25\n        /* \"#utility.yul\":28253:28256   */\n      dup4\n        /* \"#utility.yul\":28194:28261   */\n      tag_244\n      jump\t// in\n    tag_541:\n        /* \"#utility.yul\":28187:28261   */\n      swap2\n      pop\n        /* \"#utility.yul\":28270:28363   */\n      tag_542\n        /* \"#utility.yul\":28359:28362   */\n      dup3\n        /* \"#utility.yul\":28270:28363   */\n      tag_280\n      jump\t// in\n    tag_542:\n        /* \"#utility.yul\":28388:28390   */\n      0x40\n        /* \"#utility.yul\":28383:28386   */\n      dup3\n        /* \"#utility.yul\":28379:28391   */\n      add\n        /* \"#utility.yul\":28372:28391   */\n      swap1\n      pop\n        /* \"#utility.yul\":28031:28397   */\n      swap2\n      swap1\n      pop\n      jump\t// out\n        /* \"#utility.yul\":28403:28822   */\n    tag_178:\n        /* \"#utility.yul\":28569:28573   */\n      0x00\n        /* \"#utility.yul\":28607:28609   */\n      0x20\n        /* \"#utility.yul\":28596:28605   */\n      dup3\n        /* \"#utility.yul\":28592:28610   */\n      add\n        /* \"#utility.yul\":28584:28610   */\n      swap1\n      pop\n        /* \"#utility.yul\":28656:28665   */\n      dup2\n        /* \"#utility.yul\":28650:28654   */\n      dup2\n        /* \"#utility.yul\":28646:28666   */\n      sub\n        /* \"#utility.yul\":28642:28643   */\n      0x00\n        /* \"#utility.yul\":28631:28640   */\n      dup4\n        /* \"#utility.yul\":28627:28644   */\n      add\n        /* \"#utility.yul\":28620:28667   */\n      mstore\n        /* \"#utility.yul\":28684:28815   */\n      tag_544\n        /* \"#utility.yul\":28810:28814   */\n      dup2\n        /* \"#utility.yul\":28684:28815   */\n      tag_281\n      jump\t// in\n    tag_544:\n        /* \"#utility.yul\":28676:28815   */\n      swap1\n      pop\n        /* \"#utility.yul\":28403:28822   */\n      swap2\n      swap1\n      pop\n      jump\t// out\n        /* \"#utility.yul\":28828:29381   */\n    tag_182:\n        /* \"#utility.yul\":29007:29011   */\n      0x00\n        /* \"#utility.yul\":29045:29047   */\n      0x60\n        /* \"#utility.yul\":29034:29043   */\n      dup3\n        /* \"#utility.yul\":29030:29048   */\n      add\n        /* \"#utility.yul\":29022:29048   */\n      swap1\n      pop\n        /* \"#utility.yul\":29094:29103   */\n      dup2\n        /* \"#utility.yul\":29088:29092   */\n      dup2\n        /* \"#utility.yul\":29084:29104   */\n      sub\n        /* \"#utility.yul\":29080:29081   */\n      0x00\n        /* \"#utility.yul\":29069:29078   */\n      dup4\n        /* \"#utility.yul\":29065:29082   */\n      add\n        /* \"#utility.yul\":29058:29105   */\n      mstore\n        /* \"#utility.yul\":29122:29210   */\n      tag_546\n        /* \"#utility.yul\":29205:29209   */\n      dup2\n        /* \"#utility.yul\":29196:29202   */\n      dup7\n        /* \"#utility.yul\":29188:29194   */\n      dup9\n        /* \"#utility.yul\":29122:29210   */\n      tag_272\n      jump\t// in\n    tag_546:\n        /* \"#utility.yul\":29114:29210   */\n      swap1\n      pop\n        /* \"#utility.yul\":29220:29292   */\n      tag_547\n        /* \"#utility.yul\":29288:29290   */\n      0x20\n        /* \"#utility.yul\":29277:29286   */\n      dup4\n        /* \"#utility.yul\":29273:29291   */\n      add\n        /* \"#utility.yul\":29264:29270   */\n      dup6\n        /* \"#utility.yul\":29220:29292   */\n      tag_224\n      jump\t// in\n    tag_547:\n        /* \"#utility.yul\":29302:29374   */\n      tag_548\n        /* \"#utility.yul\":29370:29372   */\n      0x40\n        /* \"#utility.yul\":29359:29368   */\n      dup4\n        /* \"#utility.yul\":29355:29373   */\n      add\n        /* \"#utility.yul\":29346:29352   */\n      dup5\n        /* \"#utility.yul\":29302:29374   */\n      tag_273\n      jump\t// in\n    tag_548:\n        /* \"#utility.yul\":28828:29381   */\n      swap6\n      swap5\n      pop\n      pop\n      pop\n      pop\n      pop\n      jump\t// out\n        /* \"#utility.yul\":29387:29617   */\n    tag_282:\n        /* \"#utility.yul\":29527:29561   */\n      0x526f6c654163636573733a206163636f756e7420646f6573206e6f7420686176\n        /* \"#utility.yul\":29523:29524   */\n      0x00\n        /* \"#utility.yul\":29515:29521   */\n      dup3\n        /* \"#utility.yul\":29511:29525   */\n      add\n        /* \"#utility.yul\":29504:29562   */\n      mstore\n        /* \"#utility.yul\":29596:29609   */\n      0x65207468697320726f6c65000000000000000000000000000000000000000000\n        /* \"#utility.yul\":29591:29593   */\n      0x20\n        /* \"#utility.yul\":29583:29589   */\n      dup3\n        /* \"#utility.yul\":29579:29594   */\n      add\n        /* \"#utility.yul\":29572:29610   */\n      mstore\n        /* \"#utility.yul\":29387:29617   */\n      pop\n      jump\t// out\n        /* \"#utility.yul\":29623:29989   */\n    tag_283:\n        /* \"#utility.yul\":29765:29768   */\n      0x00\n        /* \"#utility.yul\":29786:29853   */\n      tag_551\n        /* \"#utility.yul\":29850:29852   */\n      0x2b\n        /* \"#utility.yul\":29845:29848   */\n      dup4\n        /* \"#utility.yul\":29786:29853   */\n      tag_244\n      jump\t// in\n    tag_551:\n        /* \"#utility.yul\":29779:29853   */\n      swap2\n      pop\n        /* \"#utility.yul\":29862:29955   */\n      tag_552\n        /* \"#utility.yul\":29951:29954   */\n      dup3\n        /* \"#utility.yul\":29862:29955   */\n      tag_282\n      jump\t// in\n    tag_552:\n        /* \"#utility.yul\":29980:29982   */\n      0x40\n        /* \"#utility.yul\":29975:29978   */\n      dup3\n        /* \"#utility.yul\":29971:29983   */\n      add\n        /* \"#utility.yul\":29964:29983   */\n      swap1\n      pop\n        /* \"#utility.yul\":29623:29989   */\n      swap2\n      swap1\n      pop\n      jump\t// out\n        /* \"#utility.yul\":29995:30414   */\n    tag_189:\n        /* \"#utility.yul\":30161:30165   */\n      0x00\n        /* \"#utility.yul\":30199:30201   */\n      0x20\n        /* \"#utility.yul\":30188:30197   */\n      dup3\n        /* \"#utility.yul\":30184:30202   */\n      add\n        /* \"#utility.yul\":30176:30202   */\n      swap1\n      pop\n        /* \"#utility.yul\":30248:30257   */\n      dup2\n        /* \"#utility.yul\":30242:30246   */\n      dup2\n        /* \"#utility.yul\":30238:30258   */\n      sub\n        /* \"#utility.yul\":30234:30235   */\n      0x00\n        /* \"#utility.yul\":30223:30232   */\n      dup4\n        /* \"#utility.yul\":30219:30236   */\n      add\n        /* \"#utility.yul\":30212:30259   */\n      mstore\n        /* \"#utility.yul\":30276:30407   */\n      tag_554\n        /* \"#utility.yul\":30402:30406   */\n      dup2\n        /* \"#utility.yul\":30276:30407   */\n      tag_283\n      jump\t// in\n    tag_554:\n        /* \"#utility.yul\":30268:30407   */\n      swap1\n      pop\n        /* \"#utility.yul\":29995:30414   */\n      swap2\n      swap1\n      pop\n      jump\t// out\n        /* \"#utility.yul\":30420:30600   */\n    tag_284:\n        /* \"#utility.yul\":30468:30545   */\n      0x4e487b7100000000000000000000000000000000000000000000000000000000\n        /* \"#utility.yul\":30465:30466   */\n      0x00\n        /* \"#utility.yul\":30458:30546   */\n      mstore\n        /* \"#utility.yul\":30565:30569   */\n      0x11\n        /* \"#utility.yul\":30562:30563   */\n      0x04\n        /* \"#utility.yul\":30555:30570   */\n      mstore\n        /* \"#utility.yul\":30589:30593   */\n      0x24\n        /* \"#utility.yul\":30586:30587   */\n      0x00\n        /* \"#utility.yul\":30579:30594   */\n      revert\n        /* \"#utility.yul\":30606:30839   */\n    tag_204:\n        /* \"#utility.yul\":30645:30648   */\n      0x00\n        /* \"#utility.yul\":30668:30692   */\n      tag_557\n        /* \"#utility.yul\":30686:30691   */\n      dup3\n        /* \"#utility.yul\":30668:30692   */\n      tag_223\n      jump\t// in\n    tag_557:\n        /* \"#utility.yul\":30659:30692   */\n      swap2\n      pop\n        /* \"#utility.yul\":30714:30780   */\n      0xffffffffffffffffffffffffffffffffffffffffffffffffffffffffffffffff\n        /* \"#utility.yul\":30707:30712   */\n      dup3\n        /* \"#utility.yul\":30704:30781   */\n      sub\n        /* \"#utility.yul\":30701:30804   */\n      tag_558\n      jumpi\n        /* \"#utility.yul\":30784:30802   */\n      tag_559\n      tag_284\n      jump\t// in\n    tag_559:\n        /* \"#utility.yul\":30701:30804   */\n    tag_558:\n        /* \"#utility.yul\":30831:30832   */\n      0x01\n        /* \"#utility.yul\":30824:30829   */\n      dup3\n        /* \"#utility.yul\":30820:30833   */\n      add\n        /* \"#utility.yul\":30813:30833   */\n      swap1\n      pop\n        /* \"#utility.yul\":30606:30839   */\n      swap2\n      swap1\n      pop\n      jump\t// out\n        /* \"#utility.yul\":30845:32240   */\n    tag_206:\n        /* \"#utility.yul\":30962:30999   */\n      tag_561\n        /* \"#utility.yul\":30995:30998   */\n      dup3\n        /* \"#utility.yul\":30962:30999   */\n      tag_237\n      jump\t// in\n    tag_561:\n        /* \"#utility.yul\":31064:31082   */\n      0xffffffffffffffff\n        /* \"#utility.yul\":31056:31062   */\n      dup2\n        /* \"#utility.yul\":31053:31083   */\n      gt\n        /* \"#utility.yul\":31050:31106   */\n      iszero\n      tag_562\n      jumpi\n        /* \"#utility.yul\":31086:31104   */\n      tag_563\n      tag_254\n      jump\t// in\n    tag_563:\n        /* \"#utility.yul\":31050:31106   */\n    tag_562:\n        /* \"#utility.yul\":31130:31168   */\n      tag_564\n        /* \"#utility.yul\":31162:31166   */\n      dup3\n        /* \"#utility.yul\":31156:31167   */\n      sload\n        /* \"#utility.yul\":31130:31168   */\n      tag_196\n      jump\t// in\n    tag_564:\n        /* \"#utility.yul\":31215:31282   */\n      tag_565\n        /* \"#utility.yul\":31275:31281   */\n      dup3\n        /* \"#utility.yul\":31267:31273   */\n      dup3\n        /* \"#utility.yul\":31261:31265   */\n      dup6\n        /* \"#utility.yul\":31215:31282   */\n      tag_267\n      jump\t// in\n    tag_565:\n        /* \"#utility.yul\":31309:31310   */\n      0x00\n        /* \"#utility.yul\":31333:31337   */\n      0x20\n        /* \"#utility.yul\":31320:31337   */\n      swap1\n      pop\n        /* \"#utility.yul\":31365:31367   */\n      0x1f\n        /* \"#utility.yul\":31357:31363   */\n      dup4\n        /* \"#utility.yul\":31354:31368   */\n      gt\n        /* \"#utility.yul\":31382:31383   */\n      0x01\n        /* \"#utility.yul\":31377:31995   */\n      dup2\n      eq\n      tag_567\n      jumpi\n        /* \"#utility.yul\":32039:32040   */\n      0x00\n        /* \"#utility.yul\":32056:32062   */\n      dup5\n        /* \"#utility.yul\":32053:32130   */\n      iszero\n      tag_568\n      jumpi\n        /* \"#utility.yul\":32105:32114   */\n      dup3\n        /* \"#utility.yul\":32100:32103   */\n      dup8\n        /* \"#utility.yul\":32096:32115   */\n      add\n        /* \"#utility.yul\":32090:32116   */\n      mload\n        /* \"#utility.yul\":32081:32116   */\n      swap1\n      pop\n        /* \"#utility.yul\":32053:32130   */\n    tag_568:\n        /* \"#utility.yul\":32156:32223   */\n      tag_569\n        /* \"#utility.yul\":32216:32222   */\n      dup6\n        /* \"#utility.yul\":32209:32214   */\n      dup3\n        /* \"#utility.yul\":32156:32223   */\n      tag_270\n      jump\t// in\n    tag_569:\n        /* \"#utility.yul\":32150:32154   */\n      dup7\n        /* \"#utility.yul\":32143:32224   */\n      sstore\n        /* \"#utility.yul\":32012:32234   */\n      pop\n        /* \"#utility.yul\":31347:32234   */\n      jump(tag_566)\n        /* \"#utility.yul\":31377:31995   */\n    tag_567:\n        /* \"#utility.yul\":31429:31433   */\n      0x1f\n        /* \"#utility.yul\":31425:31434   */\n      not\n        /* \"#utility.yul\":31417:31423   */\n      dup5\n        /* \"#utility.yul\":31413:31435   */\n      and\n        /* \"#utility.yul\":31463:31500   */\n      tag_570\n        /* \"#utility.yul\":31495:31499   */\n      dup7\n        /* \"#utility.yul\":31463:31500   */\n      tag_256\n      jump\t// in\n    tag_570:\n        /* \"#utility.yul\":31522:31523   */\n      0x00\n        /* \"#utility.yul\":31536:31744   */\n    tag_571:\n        /* \"#utility.yul\":31550:31557   */\n      dup3\n        /* \"#utility.yul\":31547:31548   */\n      dup2\n        /* \"#utility.yul\":31544:31558   */\n      lt\n        /* \"#utility.yul\":31536:31744   */\n      iszero\n      tag_573\n      jumpi\n        /* \"#utility.yul\":31629:31638   */\n      dup5\n        /* \"#utility.yul\":31624:31627   */\n      dup10\n        /* \"#utility.yul\":31620:31639   */\n      add\n        /* \"#utility.yul\":31614:31640   */\n      mload\n        /* \"#utility.yul\":31606:31612   */\n      dup3\n        /* \"#utility.yul\":31599:31641   */\n      sstore\n        /* \"#utility.yul\":31680:31681   */\n      0x01\n        /* \"#utility.yul\":31672:31678   */\n      dup3\n        /* \"#utility.yul\":31668:31682   */\n      add\n        /* \"#utility.yul\":31658:31682   */\n      swap2\n      pop\n        /* \"#utility.yul\":31727:31729   */\n      0x20\n        /* \"#utility.yul\":31716:31725   */\n      dup6\n        /* \"#utility.yul\":31712:31730   */\n      add\n        /* \"#utility.yul\":31699:31730   */\n      swap5\n      pop\n        /* \"#utility.yul\":31573:31577   */\n      0x20\n        /* \"#utility.yul\":31570:31571   */\n      dup2\n        /* \"#utility.yul\":31566:31578   */\n      add\n        /* \"#utility.yul\":31561:31578   */\n      swap1\n      pop\n        /* \"#utility.yul\":31536:31744   */\n      jump(tag_571)\n    tag_573:\n        /* \"#utility.yul\":31772:31778   */\n      dup7\n        /* \"#utility.yul\":31763:31770   */\n      dup4\n        /* \"#utility.yul\":31760:31779   */\n      lt\n        /* \"#utility.yul\":31757:31936   */\n      iszero\n      tag_574\n      jumpi\n        /* \"#utility.yul\":31830:31839   */\n      dup5\n        /* \"#utility.yul\":31825:31828   */\n      dup10\n        /* \"#utility.yul\":31821:31840   */\n      add\n        /* \"#utility.yul\":31815:31841   */\n      mload\n        /* \"#utility.yul\":31873:31921   */\n      tag_575\n        /* \"#utility.yul\":31915:31919   */\n      0x1f\n        /* \"#utility.yul\":31907:31913   */\n      dup10\n        /* \"#utility.yul\":31903:31920   */\n      and\n        /* \"#utility.yul\":31892:31901   */\n      dup3\n        /* \"#utility.yul\":31873:31921   */\n      tag_269\n      jump\t// in\n    tag_575:\n        /* \"#utility.yul\":31865:31871   */\n      dup4\n        /* \"#utility.yul\":31858:31922   */\n      sstore\n        /* \"#utility.yul\":31780:31936   */\n      pop\n        /* \"#utility.yul\":31757:31936   */\n    tag_574:\n        /* \"#utility.yul\":31982:31983   */\n      0x01\n        /* \"#utility.yul\":31978:31979   */\n      0x02\n        /* \"#utility.yul\":31970:31976   */\n      dup9\n        /* \"#utility.yul\":31966:31980   */\n      mul\n        /* \"#utility.yul\":31962:31984   */\n      add\n        /* \"#utility.yul\":31956:31960   */\n      dup9\n        /* \"#utility.yul\":31949:31985   */\n      sstore\n        /* \"#utility.yul\":31384:31995   */\n      pop\n      pop\n      pop\n        /* \"#utility.yul\":31347:32234   */\n    tag_566:\n      pop\n        /* \"#utility.yul\":30937:32240   */\n      pop\n      pop\n      pop\n        /* \"#utility.yul\":30845:32240   */\n      pop\n      pop\n      jump\t// out\n\n    auxdata: 0xa264697066735822122090741de9fa48ba070340f4dfb11fe20c2a9705b4f6c82e70bf2c1f8ed7fe194564736f6c634300081f0033\n}\n",
				"bytecode": {
					"linkReferences": {},
					"object": "60806040526001600355348015610014575f5ffd5b5060015f5f7f1effbbff9c66c5e59634f24fe842750c60d18891155c32dd155fc2d661a4c86d81526020019081526020015f205f3373ffffffffffffffffffffffffffffffffffffffff1673ffffffffffffffffffffffffffffffffffffffff1681526020019081526020015f205f6101000a81548160ff0219169083151502179055503373ffffffffffffffffffffffffffffffffffffffff163373ffffffffffffffffffffffffffffffffffffffff167f1effbbff9c66c5e59634f24fe842750c60d18891155c32dd155fc2d661a4c86d7f2f8788117e7eff1d82e926ec794901d17c78024a50270940304540a733656f0d60405160405180910390a461014a604051806060016040528060348152602001612dbe60349139681043561a88293000006012603c601461015060201b60201c565b506105ee565b5f5f60035f815480929190610164906102a4565b9190505590506040518061012001604052808281526020018881526020018781526020018681526020018581526020018481526020016001151581526020014281526020014281525060015f8381526020019081526020015f205f820151815f015560208201518160010190816101db919061051f565b5060408201518160020155606082015181600301556080820151816004015560a0820151816005015560c0820151816006015f6101000a81548160ff02191690831515021790555060e082015181600701556101008201518160080155905050600281908060018154018082558091505060019003905f5260205f20015f90919091909150558091505095945050505050565b7f4e487b71000000000000000000000000000000000000000000000000000000005f52601160045260245ffd5b5f819050919050565b5f6102ae8261029b565b91507fffffffffffffffffffffffffffffffffffffffffffffffffffffffffffffffff82036102e0576102df61026e565b5b600182019050919050565b5f81519050919050565b7f4e487b71000000000000000000000000000000000000000000000000000000005f52604160045260245ffd5b7f4e487b71000000000000000000000000000000000000000000000000000000005f52602260045260245ffd5b5f600282049050600182168061036657607f821691505b60208210810361037957610378610322565b5b50919050565b5f819050815f5260205f209050919050565b5f6020601f8301049050919050565b5f82821b905092915050565b5f600883026103db7fffffffffffffffffffffffffffffffffffffffffffffffffffffffffffffffff826103a0565b6103e586836103a0565b95508019841693508086168417925050509392505050565b5f819050919050565b5f61042061041b6104168461029b565b6103fd565b61029b565b9050919050565b5f819050919050565b61043983610406565b61044d61044582610427565b8484546103ac565b825550505050565b5f5f905090565b610464610455565b61046f818484610430565b505050565b5b81811015610492576104875f8261045c565b600181019050610475565b5050565b601f8211156104d7576104a88161037f565b6104b184610391565b810160208510156104c0578190505b6104d46104cc85610391565b830182610474565b50505b505050565b5f82821c905092915050565b5f6104f75f19846008026104dc565b1980831691505092915050565b5f61050f83836104e8565b9150826002028217905092915050565b610528826102eb565b67ffffffffffffffff811115610541576105406102f5565b5b61054b825461034f565b610556828285610496565b5f60209050601f831160018114610587575f8415610575578287015190505b61057f8582610504565b8655506105e6565b601f1984166105958661037f565b5f5b828110156105bc57848901518255600182019150602085019450602081019050610597565b868310156105d957848901516105d5601f8916826104e8565b8355505b6001600288020188555050505b505050505050565b6127c3806105fb5f395ff3fe608060405234801561000f575f5ffd5b5060043610610135575f3560e01c80637bf0fbde116100b6578063a217fddf1161007a578063a217fddf14610327578063cc9479d014610345578063d11a57ec14610375578063d547741f14610393578063e35bb0fc146103af578063f522c60a146103df57610135565b80637bf0fbde1461026f5780638bb9c5bf1461028d57806391d14854146102a95780639d400f10146102d9578063a12932d1146102f757610135565b806364fed6b8116100fd57806364fed6b8146101cb57806366f271da146101e95780636d19f9ae146102055780636e07a438146102215780636e1d616e1461025157610135565b806318989def146101395780632f2ff15d146101555780633b129a56146101715780634245962b1461018f57806342f1e879146101ad575b5f5ffd5b610153600480360381019061014e91906117d5565b61040f565b005b61016f600480360381019061016a9190611865565b61064f565b005b6101796108ce565b60405161018691906118b2565b60405180910390f35b6101976108f2565b6040516101a491906118b2565b60405180910390f35b6101b5610916565b6040516101c291906118b2565b60405180910390f35b6101d361093a565b6040516101e091906118e3565b60405180910390f35b61020360048036038101906101fe919061197b565b610946565b005b61021f600480360381019061021a9190611a25565b610aed565b005b61023b60048036038101906102369190611a25565b610cbb565b60405161024891906118e3565b60405180910390f35b610259610d2d565b60405161026691906118b2565b60405180910390f35b610277610d51565b60405161028491906118b2565b60405180910390f35b6102a760048036038101906102a29190611a50565b610d75565b005b6102c360048036038101906102be9190611865565b610ecc565b6040516102d09190611a95565b60405180910390f35b6102e1610f2d565b6040516102ee9190611b65565b60405180910390f35b610311600480360381019061030c9190611a25565b610f83565b60405161031e91906118e3565b60405180910390f35b61032f610fa3565b60405161033c91906118b2565b60405180910390f35b61035f600480360381019061035a9190611b85565b610fc7565b60405161036c91906118e3565b60405180910390f35b61037d6111e2565b60405161038a91906118b2565b60405180910390f35b6103ad60048036038101906103a89190611865565b611206565b005b6103c960048036038101906103c49190611a25565b611415565b6040516103d69190611d5c565b60405180910390f35b6103f960048036038101906103f49190611a25565b611585565b6040516104069190611a95565b60405180910390f35b5f5f7f1effbbff9c66c5e59634f24fe842750c60d18891155c32dd155fc2d661a4c86d81526020019081526020015f205f3373ffffffffffffffffffffffffffffffffffffffff1673ffffffffffffffffffffffffffffffffffffffff1681526020019081526020015f205f9054906101000a900460ff166104c6576040517f08c379a00000000000000000000000000000000000000000000000000000000081526004016104bd90611dd6565b60405180910390fd5b5f5f90505b83839050811015610649575f5f8585848181106104eb576104ea611df4565b5b9050602002013581526020019081526020015f205f8373ffffffffffffffffffffffffffffffffffffffff1673ffffffffffffffffffffffffffffffffffffffff1681526020019081526020015f205f9054906101000a900460ff1661063c5760015f5f86868581811061056257610561611df4565b5b9050602002013581526020019081526020015f205f8473ffffffffffffffffffffffffffffffffffffffff1673ffffffffffffffffffffffffffffffffffffffff1681526020019081526020015f205f6101000a81548160ff0219169083151502179055503373ffffffffffffffffffffffffffffffffffffffff168273ffffffffffffffffffffffffffffffffffffffff1685858481811061060857610607611df4565b5b905060200201357f2f8788117e7eff1d82e926ec794901d17c78024a50270940304540a733656f0d60405160405180910390a45b80806001019150506104cb565b50505050565b5f5f7f1effbbff9c66c5e59634f24fe842750c60d18891155c32dd155fc2d661a4c86d81526020019081526020015f205f3373ffffffffffffffffffffffffffffffffffffffff1673ffffffffffffffffffffffffffffffffffffffff1681526020019081526020015f205f9054906101000a900460ff16610706576040517f08c379a00000000000000000000000000000000000000000000000000000000081526004016106fd90611dd6565b60405180910390fd5b5f73ffffffffffffffffffffffffffffffffffffffff168173ffffffffffffffffffffffffffffffffffffffff1603610774576040517f08c379a000000000000000000000000000000000000000000000000000000000815260040161076b90611e91565b60405180910390fd5b5f5f8381526020019081526020015f205f8273ffffffffffffffffffffffffffffffffffffffff1673ffffffffffffffffffffffffffffffffffffffff1681526020019081526020015f205f9054906101000a900460ff161561080c576040517f08c379a000000000000000000000000000000000000000000000000000000000815260040161080390611f1f565b60405180910390fd5b60015f5f8481526020019081526020015f205f8373ffffffffffffffffffffffffffffffffffffffff1673ffffffffffffffffffffffffffffffffffffffff1681526020019081526020015f205f6101000a81548160ff0219169083151502179055503373ffffffffffffffffffffffffffffffffffffffff168173ffffffffffffffffffffffffffffffffffffffff16837f2f8788117e7eff1d82e926ec794901d17c78024a50270940304540a733656f0d60405160405180910390a45050565b7fc10c77be35aff266144ed64c26a1fa104bae2f284ae99ac4a34203454704a18581565b7f408a36151f841709116a4e8aca4e0202874f7f54687dcb863b1ea4672dc9d8cf81565b7fc2979137d1774e40fe2638d355bf7a7b092be4c67f242aad1655e1e27f9df9cc81565b5f600280549050905090565b5f5f7f1effbbff9c66c5e59634f24fe842750c60d18891155c32dd155fc2d661a4c86d81526020019081526020015f205f3373ffffffffffffffffffffffffffffffffffffffff1673ffffffffffffffffffffffffffffffffffffffff1681526020019081526020015f205f9054906101000a900460ff166109fd576040517f08c379a00000000000000000000000000000000000000000000000000000000081526004016109f490611dd6565b60405180910390fd5b8660015f8981526020019081526020015f205f015414610a52576040517f08c379a0000000000000000000000000000000000000000000000000000000008152600401610a4990611fad565b60405180910390fd5b5f60015f8981526020019081526020015f2090508686826001019182610a799291906121ff565b50848160020181905550838160030181905550828160040181905550818160050181905550428160080181905550877f1050721e481acb6e546ac7bab9c37390f8a4ca9b8b4d38f64c3245270e1b3b96888833604051610adb93929190612315565b60405180910390a25050505050505050565b5f5f7f1effbbff9c66c5e59634f24fe842750c60d18891155c32dd155fc2d661a4c86d81526020019081526020015f205f3373ffffffffffffffffffffffffffffffffffffffff1673ffffffffffffffffffffffffffffffffffffffff1681526020019081526020015f205f9054906101000a900460ff16610ba4576040517f08c379a0000000000000000000000000000000000000000000000000000000008152600401610b9b90611dd6565b60405180910390fd5b8060015f8381526020019081526020015f205f015414610bf9576040517f08c379a0000000000000000000000000000000000000000000000000000000008152600401610bf090611fad565b60405180910390fd5b60015f8281526020019081526020015f206006015f9054906101000a900460ff161560015f8381526020019081526020015f206006015f6101000a81548160ff0219169083151502179055504260015f8381526020019081526020015f2060080181905550807f7e05af65cea9ec1934cdc67c3444fdb5ff03b9e3613aab550afa6473a85052cb60015f8481526020019081526020015f206006015f9054906101000a900460ff1633604051610cb0929190612345565b60405180910390a250565b5f8160015f8481526020019081526020015f205f015414610d11576040517f08c379a0000000000000000000000000000000000000000000000000000000008152600401610d0890611fad565b60405180910390fd5b60015f8381526020019081526020015f20600201549050919050565b7f59a1c48e5837ad7a7f3dcedcbe129bf3249ec4fbf651fd4f5e2600ead39fe2f581565b7f566c814873eed56a69b28c40ab27cc2cb150d74068bae3e884ccd44f8de60f8a81565b5f5f8281526020019081526020015f205f3373ffffffffffffffffffffffffffffffffffffffff1673ffffffffffffffffffffffffffffffffffffffff1681526020019081526020015f205f9054906101000a900460ff16610e0c576040517f08c379a0000000000000000000000000000000000000000000000000000000008152600401610e03906123dc565b60405180910390fd5b5f5f5f8381526020019081526020015f205f3373ffffffffffffffffffffffffffffffffffffffff1673ffffffffffffffffffffffffffffffffffffffff1681526020019081526020015f205f6101000a81548160ff0219169083151502179055503373ffffffffffffffffffffffffffffffffffffffff163373ffffffffffffffffffffffffffffffffffffffff16827ff6391f5c32d9c69d2a47ea670b442974b53935d1edc7fd64eb21e047a839171b60405160405180910390a450565b5f5f5f8481526020019081526020015f205f8373ffffffffffffffffffffffffffffffffffffffff1673ffffffffffffffffffffffffffffffffffffffff1681526020019081526020015f205f9054906101000a900460ff16905092915050565b60606002805480602002602001604051908101604052809291908181526020018280548015610f7957602002820191905f5260205f20905b815481526020019060010190808311610f65575b5050505050905090565b60028181548110610f92575f80fd5b905f5260205f20015f915090505481565b7f1effbbff9c66c5e59634f24fe842750c60d18891155c32dd155fc2d661a4c86d81565b5f5f5f7f1effbbff9c66c5e59634f24fe842750c60d18891155c32dd155fc2d661a4c86d81526020019081526020015f205f3373ffffffffffffffffffffffffffffffffffffffff1673ffffffffffffffffffffffffffffffffffffffff1681526020019081526020015f205f9054906101000a900460ff1661107f576040517f08c379a000000000000000000000000000000000000000000000000000000000815260040161107690611dd6565b60405180910390fd5b5f87879050116110c4576040517f08c379a00000000000000000000000000000000000000000000000000000000081526004016110bb9061246a565b60405180910390fd5b5f8511611106576040517f08c379a00000000000000000000000000000000000000000000000000000000081526004016110fd906124d2565b60405180910390fd5b828410611148576040517f08c379a000000000000000000000000000000000000000000000000000000000815260040161113f90612560565b60405180910390fd5b61119887878080601f0160208091040260200160405190810160405280939291908181526020018383808284375f81840152601f19601f82011690508083019250505050505050868686866115ae565b9050807f3343f88476fc251ded250f0f154e0b3465452a1bf564a6eebc83add26057eb77888888336040516111d0949392919061257e565b60405180910390a29695505050505050565b7fe1dcbdb91df27212a29bc27177c840cf2f819ecf2187432e1fac86c2dd5dfca981565b5f5f7f1effbbff9c66c5e59634f24fe842750c60d18891155c32dd155fc2d661a4c86d81526020019081526020015f205f3373ffffffffffffffffffffffffffffffffffffffff1673ffffffffffffffffffffffffffffffffffffffff1681526020019081526020015f205f9054906101000a900460ff166112bd576040517f08c379a00000000000000000000000000000000000000000000000000000000081526004016112b490611dd6565b60405180910390fd5b5f5f8381526020019081526020015f205f8273ffffffffffffffffffffffffffffffffffffffff1673ffffffffffffffffffffffffffffffffffffffff1681526020019081526020015f205f9054906101000a900460ff16611354576040517f08c379a000000000000000000000000000000000000000000000000000000000815260040161134b9061262c565b60405180910390fd5b5f5f5f8481526020019081526020015f205f8373ffffffffffffffffffffffffffffffffffffffff1673ffffffffffffffffffffffffffffffffffffffff1681526020019081526020015f205f6101000a81548160ff0219169083151502179055503373ffffffffffffffffffffffffffffffffffffffff168173ffffffffffffffffffffffffffffffffffffffff16837ff6391f5c32d9c69d2a47ea670b442974b53935d1edc7fd64eb21e047a839171b60405160405180910390a45050565b61141d6116cc565b8160015f8481526020019081526020015f205f015414611472576040517f08c379a000000000000000000000000000000000000000000000000000000000815260040161146990611fad565b60405180910390fd5b60015f8381526020019081526020015f20604051806101200160405290815f82015481526020016001820180546114a89061202f565b80601f01602080910402602001604051908101604052809291908181526020018280546114d49061202f565b801561151f5780601f106114f65761010080835404028352916020019161151f565b820191905f5260205f20905b81548152906001019060200180831161150257829003601f168201915b5050505050815260200160028201548152602001600382015481526020016004820154815260200160058201548152602001600682015f9054906101000a900460ff16151515158152602001600782015481526020016008820154815250509050919050565b5f60015f8381526020019081526020015f206006015f9054906101000a900460ff169050919050565b5f5f60035f8154809291906115c290612677565b9190505590506040518061012001604052808281526020018881526020018781526020018681526020018581526020018481526020016001151581526020014281526020014281525060015f8381526020019081526020015f205f820151815f0155602082015181600101908161163991906126be565b5060408201518160020155606082015181600301556080820151816004015560a0820151816005015560c0820151816006015f6101000a81548160ff02191690831515021790555060e082015181600701556101008201518160080155905050600281908060018154018082558091505060019003905f5260205f20015f90919091909150558091505095945050505050565b6040518061012001604052805f8152602001606081526020015f81526020015f81526020015f81526020015f81526020015f151581526020015f81526020015f81525090565b5f5ffd5b5f5ffd5b5f5ffd5b5f5ffd5b5f5ffd5b5f5f83601f84011261173b5761173a61171a565b5b8235905067ffffffffffffffff8111156117585761175761171e565b5b60208301915083602082028301111561177457611773611722565b5b9250929050565b5f73ffffffffffffffffffffffffffffffffffffffff82169050919050565b5f6117a48261177b565b9050919050565b6117b48161179a565b81146117be575f5ffd5b50565b5f813590506117cf816117ab565b92915050565b5f5f5f604084860312156117ec576117eb611712565b5b5f84013567ffffffffffffffff81111561180957611808611716565b5b61181586828701611726565b93509350506020611828868287016117c1565b9150509250925092565b5f819050919050565b61184481611832565b811461184e575f5ffd5b50565b5f8135905061185f8161183b565b92915050565b5f5f6040838503121561187b5761187a611712565b5b5f61188885828601611851565b9250506020611899858286016117c1565b9150509250929050565b6118ac81611832565b82525050565b5f6020820190506118c55f8301846118a3565b92915050565b5f819050919050565b6118dd816118cb565b82525050565b5f6020820190506118f65f8301846118d4565b92915050565b611905816118cb565b811461190f575f5ffd5b50565b5f81359050611920816118fc565b92915050565b5f5f83601f84011261193b5761193a61171a565b5b8235905067ffffffffffffffff8111156119585761195761171e565b5b60208301915083600182028301111561197457611973611722565b5b9250929050565b5f5f5f5f5f5f5f60c0888a03121561199657611995611712565b5b5f6119a38a828b01611912565b975050602088013567ffffffffffffffff8111156119c4576119c3611716565b5b6119d08a828b01611926565b965096505060406119e38a828b01611912565b94505060606119f48a828b01611912565b9350506080611a058a828b01611912565b92505060a0611a168a828b01611912565b91505092959891949750929550565b5f60208284031215611a3a57611a39611712565b5b5f611a4784828501611912565b91505092915050565b5f60208284031215611a6557611a64611712565b5b5f611a7284828501611851565b91505092915050565b5f8115159050919050565b611a8f81611a7b565b82525050565b5f602082019050611aa85f830184611a86565b92915050565b5f81519050919050565b5f82825260208201905092915050565b5f819050602082019050919050565b611ae0816118cb565b82525050565b5f611af18383611ad7565b60208301905092915050565b5f602082019050919050565b5f611b1382611aae565b611b1d8185611ab8565b9350611b2883611ac8565b805f5b83811015611b58578151611b3f8882611ae6565b9750611b4a83611afd565b925050600181019050611b2b565b5085935050505092915050565b5f6020820190508181035f830152611b7d8184611b09565b905092915050565b5f5f5f5f5f5f60a08789031215611b9f57611b9e611712565b5b5f87013567ffffffffffffffff811115611bbc57611bbb611716565b5b611bc889828a01611926565b96509650506020611bdb89828a01611912565b9450506040611bec89828a01611912565b9350506060611bfd89828a01611912565b9250506080611c0e89828a01611912565b9150509295509295509295565b5f81519050919050565b5f82825260208201905092915050565b8281835e5f83830152505050565b5f601f19601f8301169050919050565b5f611c5d82611c1b565b611c678185611c25565b9350611c77818560208601611c35565b611c8081611c43565b840191505092915050565b611c9481611a7b565b82525050565b5f61012083015f830151611cb05f860182611ad7565b5060208301518482036020860152611cc88282611c53565b9150506040830151611cdd6040860182611ad7565b506060830151611cf06060860182611ad7565b506080830151611d036080860182611ad7565b5060a0830151611d1660a0860182611ad7565b5060c0830151611d2960c0860182611c8b565b5060e0830151611d3c60e0860182611ad7565b50610100830151611d51610100860182611ad7565b508091505092915050565b5f6020820190508181035f830152611d748184611c9a565b905092915050565b5f82825260208201905092915050565b7f526f6c654163636573733a2063616c6c6572206973206e6f742061646d696e005f82015250565b5f611dc0601f83611d7c565b9150611dcb82611d8c565b602082019050919050565b5f6020820190508181035f830152611ded81611db4565b9050919050565b7f4e487b71000000000000000000000000000000000000000000000000000000005f52603260045260245ffd5b7f526f6c654163636573733a2063616e6e6f74206772616e7420726f6c6520746f5f8201527f207a65726f206164647265737300000000000000000000000000000000000000602082015250565b5f611e7b602d83611d7c565b9150611e8682611e21565b604082019050919050565b5f6020820190508181035f830152611ea881611e6f565b9050919050565b7f526f6c654163636573733a206163636f756e7420616c726561647920686173205f8201527f7468697320726f6c650000000000000000000000000000000000000000000000602082015250565b5f611f09602983611d7c565b9150611f1482611eaf565b604082019050919050565b5f6020820190508181035f830152611f3681611efd565b9050919050565b7f536368656d65436f6e6669673a20736368656d6520646f6573206e6f742065785f8201527f6973740000000000000000000000000000000000000000000000000000000000602082015250565b5f611f97602383611d7c565b9150611fa282611f3d565b604082019050919050565b5f6020820190508181035f830152611fc481611f8b565b9050919050565b5f82905092915050565b7f4e487b71000000000000000000000000000000000000000000000000000000005f52604160045260245ffd5b7f4e487b71000000000000000000000000000000000000000000000000000000005f52602260045260245ffd5b5f600282049050600182168061204657607f821691505b60208210810361205957612058612002565b5b50919050565b5f819050815f5260205f209050919050565b5f6020601f8301049050919050565b5f82821b905092915050565b5f600883026120bb7fffffffffffffffffffffffffffffffffffffffffffffffffffffffffffffffff82612080565b6120c58683612080565b95508019841693508086168417925050509392505050565b5f819050919050565b5f6121006120fb6120f6846118cb565b6120dd565b6118cb565b9050919050565b5f819050919050565b612119836120e6565b61212d61212582612107565b84845461208c565b825550505050565b5f5f905090565b612144612135565b61214f818484612110565b505050565b5b81811015612172576121675f8261213c565b600181019050612155565b5050565b601f8211156121b7576121888161205f565b61219184612071565b810160208510156121a0578190505b6121b46121ac85612071565b830182612154565b50505b505050565b5f82821c905092915050565b5f6121d75f19846008026121bc565b1980831691505092915050565b5f6121ef83836121c8565b9150826002028217905092915050565b6122098383611fcb565b67ffffffffffffffff81111561222257612221611fd5565b5b61222c825461202f565b612237828285612176565b5f601f831160018114612264575f8415612252578287013590505b61225c85826121e4565b8655506122c3565b601f1984166122728661205f565b5f5b8281101561229957848901358255600182019150602085019450602081019050612274565b868310156122b657848901356122b2601f8916826121c8565b8355505b6001600288020188555050505b50505050505050565b828183375f83830152505050565b5f6122e58385611d7c565b93506122f28385846122cc565b6122fb83611c43565b840190509392505050565b61230f8161179a565b82525050565b5f6040820190508181035f83015261232e8185876122da565b905061233d6020830184612306565b949350505050565b5f6040820190506123585f830185611a86565b6123656020830184612306565b9392505050565b7f526f6c654163636573733a2063616c6c657220646f6573206e6f7420686176655f8201527f207468697320726f6c6500000000000000000000000000000000000000000000602082015250565b5f6123c6602a83611d7c565b91506123d18261236c565b604082019050919050565b5f6020820190508181035f8301526123f3816123ba565b9050919050565b7f536368656d65436f6e6669673a206e616d652063616e6e6f7420626520656d705f8201527f7479000000000000000000000000000000000000000000000000000000000000602082015250565b5f612454602283611d7c565b915061245f826123fa565b604082019050919050565b5f6020820190508181035f83015261248181612448565b9050919050565b7f536368656d65436f6e6669673a20616d6f756e74206d757374206265203e20305f82015250565b5f6124bc602083611d7c565b91506124c782612488565b602082019050919050565b5f6020820190508181035f8301526124e9816124b0565b9050919050565b7f536368656d65436f6e6669673a206d696e416765206d757374206265203c206d5f8201527f6178416765000000000000000000000000000000000000000000000000000000602082015250565b5f61254a602583611d7c565b9150612555826124f0565b604082019050919050565b5f6020820190508181035f8301526125778161253e565b9050919050565b5f6060820190508181035f8301526125978186886122da565b90506125a660208301856118d4565b6125b36040830184612306565b95945050505050565b7f526f6c654163636573733a206163636f756e7420646f6573206e6f74206861765f8201527f65207468697320726f6c65000000000000000000000000000000000000000000602082015250565b5f612616602b83611d7c565b9150612621826125bc565b604082019050919050565b5f6020820190508181035f8301526126438161260a565b9050919050565b7f4e487b71000000000000000000000000000000000000000000000000000000005f52601160045260245ffd5b5f612681826118cb565b91507fffffffffffffffffffffffffffffffffffffffffffffffffffffffffffffffff82036126b3576126b261264a565b5b600182019050919050565b6126c782611c1b565b67ffffffffffffffff8111156126e0576126df611fd5565b5b6126ea825461202f565b6126f5828285612176565b5f60209050601f831160018114612726575f8415612714578287015190505b61271e85826121e4565b865550612785565b601f1984166127348661205f565b5f5b8281101561275b57848901518255600182019150602085019450602081019050612736565b868310156127785784890151612774601f8916826121c8565b8355505b6001600288020188555050505b50505050505056fea264697066735822122090741de9fa48ba070340f4dfb11fe20c2a9705b4f6c82e70bf2c1f8ed7fe194564736f6c634300081f003349474e575053202d20496e646972612047616e646869204e6174696f6e616c205769646f772050656e73696f6e20536368656d65",
					"opcodes": "PUSH1 0x80 PUSH1 0x40 MSTORE PUSH1 0x1 PUSH1 0x3 SSTORE CALLVALUE DUP1 ISZERO PUSH2 0x14 JUMPI PUSH0 PUSH0 REVERT JUMPDEST POP PUSH1 0x1 PUSH0 PUSH0 PUSH32 0x1EFFBBFF9C66C5E59634F24FE842750C60D18891155C32DD155FC2D661A4C86D DUP2 MSTORE PUSH1 0x20 ADD SWAP1 DUP2 MSTORE PUSH1 0x20 ADD PUSH0 KECCAK256 PUSH0 CALLER PUSH20 0xFFFFFFFFFFFFFFFFFFFFFFFFFFFFFFFFFFFFFFFF AND PUSH20 0xFFFFFFFFFFFFFFFFFFFFFFFFFFFFFFFFFFFFFFFF AND DUP2 MSTORE PUSH1 0x20 ADD SWAP1 DUP2 MSTORE PUSH1 0x20 ADD PUSH0 KECCAK256 PUSH0 PUSH2 0x100 EXP DUP2 SLOAD DUP2 PUSH1 0xFF MUL NOT AND SWAP1 DUP4 ISZERO ISZERO MUL OR SWAP1 SSTORE POP CALLER PUSH20 0xFFFFFFFFFFFFFFFFFFFFFFFFFFFFFFFFFFFFFFFF AND CALLER PUSH20 0xFFFFFFFFFFFFFFFFFFFFFFFFFFFFFFFFFFFFFFFF AND PUSH32 0x1EFFBBFF9C66C5E59634F24FE842750C60D18891155C32DD155FC2D661A4C86D PUSH32 0x2F8788117E7EFF1D82E926EC794901D17C78024A50270940304540A733656F0D PUSH1 0x40 MLOAD PUSH1 0x40 MLOAD DUP1 SWAP2 SUB SWAP1 LOG4 PUSH2 0x14A PUSH1 0x40 MLOAD DUP1 PUSH1 0x60 ADD PUSH1 0x40 MSTORE DUP1 PUSH1 0x34 DUP2 MSTORE PUSH1 0x20 ADD PUSH2 0x2DBE PUSH1 0x34 SWAP2 CODECOPY PUSH9 0x1043561A8829300000 PUSH1 0x12 PUSH1 0x3C PUSH1 0x14 PUSH2 0x150 PUSH1 0x20 SHL PUSH1 0x20 SHR JUMP JUMPDEST POP PUSH2 0x5EE JUMP JUMPDEST PUSH0 PUSH0 PUSH1 0x3 PUSH0 DUP2 SLOAD DUP1 SWAP3 SWAP2 SWAP1 PUSH2 0x164 SWAP1 PUSH2 0x2A4 JUMP JUMPDEST SWAP2 SWAP1 POP SSTORE SWAP1 POP PUSH1 0x40 MLOAD DUP1 PUSH2 0x120 ADD PUSH1 0x40 MSTORE DUP1 DUP3 DUP2 MSTORE PUSH1 0x20 ADD DUP9 DUP2 MSTORE PUSH1 0x20 ADD DUP8 DUP2 MSTORE PUSH1 0x20 ADD DUP7 DUP2 MSTORE PUSH1 0x20 ADD DUP6 DUP2 MSTORE PUSH1 0x20 ADD DUP5 DUP2 MSTORE PUSH1 0x20 ADD PUSH1 0x1 ISZERO ISZERO DUP2 MSTORE PUSH1 0x20 ADD TIMESTAMP DUP2 MSTORE PUSH1 0x20 ADD TIMESTAMP DUP2 MSTORE POP PUSH1 0x1 PUSH0 DUP4 DUP2 MSTORE PUSH1 0x20 ADD SWAP1 DUP2 MSTORE PUSH1 0x20 ADD PUSH0 KECCAK256 PUSH0 DUP3 ADD MLOAD DUP2 PUSH0 ADD SSTORE PUSH1 0x20 DUP3 ADD MLOAD DUP2 PUSH1 0x1 ADD SWAP1 DUP2 PUSH2 0x1DB SWAP2 SWAP1 PUSH2 0x51F JUMP JUMPDEST POP PUSH1 0x40 DUP3 ADD MLOAD DUP2 PUSH1 0x2 ADD SSTORE PUSH1 0x60 DUP3 ADD MLOAD DUP2 PUSH1 0x3 ADD SSTORE PUSH1 0x80 DUP3 ADD MLOAD DUP2 PUSH1 0x4 ADD SSTORE PUSH1 0xA0 DUP3 ADD MLOAD DUP2 PUSH1 0x5 ADD SSTORE PUSH1 0xC0 DUP3 ADD MLOAD DUP2 PUSH1 0x6 ADD PUSH0 PUSH2 0x100 EXP DUP2 SLOAD DUP2 PUSH1 0xFF MUL NOT AND SWAP1 DUP4 ISZERO ISZERO MUL OR SWAP1 SSTORE POP PUSH1 0xE0 DUP3 ADD MLOAD DUP2 PUSH1 0x7 ADD SSTORE PUSH2 0x100 DUP3 ADD MLOAD DUP2 PUSH1 0x8 ADD SSTORE SWAP1 POP POP PUSH1 0x2 DUP2 SWAP1 DUP1 PUSH1 0x1 DUP2 SLOAD ADD DUP1 DUP3 SSTORE DUP1 SWAP2 POP POP PUSH1 0x1 SWAP1 SUB SWAP1 PUSH0 MSTORE PUSH1 0x20 PUSH0 KECCAK256 ADD PUSH0 SWAP1 SWAP2 SWAP1 SWAP2 SWAP1 SWAP2 POP SSTORE DUP1 SWAP2 POP POP SWAP6 SWAP5 POP POP POP POP POP JUMP JUMPDEST PUSH32 0x4E487B7100000000000000000000000000000000000000000000000000000000 PUSH0 MSTORE PUSH1 0x11 PUSH1 0x4 MSTORE PUSH1 0x24 PUSH0 REVERT JUMPDEST PUSH0 DUP2 SWAP1 POP SWAP2 SWAP1 POP JUMP JUMPDEST PUSH0 PUSH2 0x2AE DUP3 PUSH2 0x29B JUMP JUMPDEST SWAP2 POP PUSH32 0xFFFFFFFFFFFFFFFFFFFFFFFFFFFFFFFFFFFFFFFFFFFFFFFFFFFFFFFFFFFFFFFF DUP3 SUB PUSH2 0x2E0 JUMPI PUSH2 0x2DF PUSH2 0x26E JUMP JUMPDEST JUMPDEST PUSH1 0x1 DUP3 ADD SWAP1 POP SWAP2 SWAP1 POP JUMP JUMPDEST PUSH0 DUP2 MLOAD SWAP1 POP SWAP2 SWAP1 POP JUMP JUMPDEST PUSH32 0x4E487B7100000000000000000000000000000000000000000000000000000000 PUSH0 MSTORE PUSH1 0x41 PUSH1 0x4 MSTORE PUSH1 0x24 PUSH0 REVERT JUMPDEST PUSH32 0x4E487B7100000000000000000000000000000000000000000000000000000000 PUSH0 MSTORE PUSH1 0x22 PUSH1 0x4 MSTORE PUSH1 0x24 PUSH0 REVERT JUMPDEST PUSH0 PUSH1 0x2 DUP3 DIV SWAP1 POP PUSH1 0x1 DUP3 AND DUP1 PUSH2 0x366 JUMPI PUSH1 0x7F DUP3 AND SWAP2 POP JUMPDEST PUSH1 0x20 DUP3 LT DUP2 SUB PUSH2 0x379 JUMPI PUSH2 0x378 PUSH2 0x322 JUMP JUMPDEST JUMPDEST POP SWAP2 SWAP1 POP JUMP JUMPDEST PUSH0 DUP2 SWAP1 POP DUP2 PUSH0 MSTORE PUSH1 0x20 PUSH0 KECCAK256 SWAP1 POP SWAP2 SWAP1 POP JUMP JUMPDEST PUSH0 PUSH1 0x20 PUSH1 0x1F DUP4 ADD DIV SWAP1 POP SWAP2 SWAP1 POP JUMP JUMPDEST PUSH0 DUP3 DUP3 SHL SWAP1 POP SWAP3 SWAP2 POP POP JUMP JUMPDEST PUSH0 PUSH1 0x8 DUP4 MUL PUSH2 0x3DB PUSH32 0xFFFFFFFFFFFFFFFFFFFFFFFFFFFFFFFFFFFFFFFFFFFFFFFFFFFFFFFFFFFFFFFF DUP3 PUSH2 0x3A0 JUMP JUMPDEST PUSH2 0x3E5 DUP7 DUP4 PUSH2 0x3A0 JUMP JUMPDEST SWAP6 POP DUP1 NOT DUP5 AND SWAP4 POP DUP1 DUP7 AND DUP5 OR SWAP3 POP POP POP SWAP4 SWAP3 POP POP POP JUMP JUMPDEST PUSH0 DUP2 SWAP1 POP SWAP2 SWAP1 POP JUMP JUMPDEST PUSH0 PUSH2 0x420 PUSH2 0x41B PUSH2 0x416 DUP5 PUSH2 0x29B JUMP JUMPDEST PUSH2 0x3FD JUMP JUMPDEST PUSH2 0x29B JUMP JUMPDEST SWAP1 POP SWAP2 SWAP1 POP JUMP JUMPDEST PUSH0 DUP2 SWAP1 POP SWAP2 SWAP1 POP JUMP JUMPDEST PUSH2 0x439 DUP4 PUSH2 0x406 JUMP JUMPDEST PUSH2 0x44D PUSH2 0x445 DUP3 PUSH2 0x427 JUMP JUMPDEST DUP5 DUP5 SLOAD PUSH2 0x3AC JUMP JUMPDEST DUP3 SSTORE POP POP POP POP JUMP JUMPDEST PUSH0 PUSH0 SWAP1 POP SWAP1 JUMP JUMPDEST PUSH2 0x464 PUSH2 0x455 JUMP JUMPDEST PUSH2 0x46F DUP2 DUP5 DUP5 PUSH2 0x430 JUMP JUMPDEST POP POP POP JUMP JUMPDEST JUMPDEST DUP2 DUP2 LT ISZERO PUSH2 0x492 JUMPI PUSH2 0x487 PUSH0 DUP3 PUSH2 0x45C JUMP JUMPDEST PUSH1 0x1 DUP2 ADD SWAP1 POP PUSH2 0x475 JUMP JUMPDEST POP POP JUMP JUMPDEST PUSH1 0x1F DUP3 GT ISZERO PUSH2 0x4D7 JUMPI PUSH2 0x4A8 DUP2 PUSH2 0x37F JUMP JUMPDEST PUSH2 0x4B1 DUP5 PUSH2 0x391 JUMP JUMPDEST DUP2 ADD PUSH1 0x20 DUP6 LT ISZERO PUSH2 0x4C0 JUMPI DUP2 SWAP1 POP JUMPDEST PUSH2 0x4D4 PUSH2 0x4CC DUP6 PUSH2 0x391 JUMP JUMPDEST DUP4 ADD DUP3 PUSH2 0x474 JUMP JUMPDEST POP POP JUMPDEST POP POP POP JUMP JUMPDEST PUSH0 DUP3 DUP3 SHR SWAP1 POP SWAP3 SWAP2 POP POP JUMP JUMPDEST PUSH0 PUSH2 0x4F7 PUSH0 NOT DUP5 PUSH1 0x8 MUL PUSH2 0x4DC JUMP JUMPDEST NOT DUP1 DUP4 AND SWAP2 POP POP SWAP3 SWAP2 POP POP JUMP JUMPDEST PUSH0 PUSH2 0x50F DUP4 DUP4 PUSH2 0x4E8 JUMP JUMPDEST SWAP2 POP DUP3 PUSH1 0x2 MUL DUP3 OR SWAP1 POP SWAP3 SWAP2 POP POP JUMP JUMPDEST PUSH2 0x528 DUP3 PUSH2 0x2EB JUMP JUMPDEST PUSH8 0xFFFFFFFFFFFFFFFF DUP2 GT ISZERO PUSH2 0x541 JUMPI PUSH2 0x540 PUSH2 0x2F5 JUMP JUMPDEST JUMPDEST PUSH2 0x54B DUP3 SLOAD PUSH2 0x34F JUMP JUMPDEST PUSH2 0x556 DUP3 DUP3 DUP6 PUSH2 0x496 JUMP JUMPDEST PUSH0 PUSH1 0x20 SWAP1 POP PUSH1 0x1F DUP4 GT PUSH1 0x1 DUP2 EQ PUSH2 0x587 JUMPI PUSH0 DUP5 ISZERO PUSH2 0x575 JUMPI DUP3 DUP8 ADD MLOAD SWAP1 POP JUMPDEST PUSH2 0x57F DUP6 DUP3 PUSH2 0x504 JUMP JUMPDEST DUP7 SSTORE POP PUSH2 0x5E6 JUMP JUMPDEST PUSH1 0x1F NOT DUP5 AND PUSH2 0x595 DUP7 PUSH2 0x37F JUMP JUMPDEST PUSH0 JUMPDEST DUP3 DUP2 LT ISZERO PUSH2 0x5BC JUMPI DUP5 DUP10 ADD MLOAD DUP3 SSTORE PUSH1 0x1 DUP3 ADD SWAP2 POP PUSH1 0x20 DUP6 ADD SWAP5 POP PUSH1 0x20 DUP2 ADD SWAP1 POP PUSH2 0x597 JUMP JUMPDEST DUP7 DUP4 LT ISZERO PUSH2 0x5D9 JUMPI DUP5 DUP10 ADD MLOAD PUSH2 0x5D5 PUSH1 0x1F DUP10 AND DUP3 PUSH2 0x4E8 JUMP JUMPDEST DUP4 SSTORE POP JUMPDEST PUSH1 0x1 PUSH1 0x2 DUP9 MUL ADD DUP9 SSTORE POP POP POP JUMPDEST POP POP POP POP POP POP JUMP JUMPDEST PUSH2 0x27C3 DUP1 PUSH2 0x5FB PUSH0 CODECOPY PUSH0 RETURN INVALID PUSH1 0x80 PUSH1 0x40 MSTORE CALLVALUE DUP1 ISZERO PUSH2 0xF JUMPI PUSH0 PUSH0 REVERT JUMPDEST POP PUSH1 0x4 CALLDATASIZE LT PUSH2 0x135 JUMPI PUSH0 CALLDATALOAD PUSH1 0xE0 SHR DUP1 PUSH4 0x7BF0FBDE GT PUSH2 0xB6 JUMPI DUP1 PUSH4 0xA217FDDF GT PUSH2 0x7A JUMPI DUP1 PUSH4 0xA217FDDF EQ PUSH2 0x327 JUMPI DUP1 PUSH4 0xCC9479D0 EQ PUSH2 0x345 JUMPI DUP1 PUSH4 0xD11A57EC EQ PUSH2 0x375 JUMPI DUP1 PUSH4 0xD547741F EQ PUSH2 0x393 JUMPI DUP1 PUSH4 0xE35BB0FC EQ PUSH2 0x3AF JUMPI DUP1 PUSH4 0xF522C60A EQ PUSH2 0x3DF JUMPI PUSH2 0x135 JUMP JUMPDEST DUP1 PUSH4 0x7BF0FBDE EQ PUSH2 0x26F JUMPI DUP1 PUSH4 0x8BB9C5BF EQ PUSH2 0x28D JUMPI DUP1 PUSH4 0x91D14854 EQ PUSH2 0x2A9 JUMPI DUP1 PUSH4 0x9D400F10 EQ PUSH2 0x2D9 JUMPI DUP1 PUSH4 0xA12932D1 EQ PUSH2 0x2F7 JUMPI PUSH2 0x135 JUMP JUMPDEST DUP1 PUSH4 0x64FED6B8 GT PUSH2 0xFD JUMPI DUP1 PUSH4 0x64FED6B8 EQ PUSH2 0x1CB JUMPI DUP1 PUSH4 0x66F271DA EQ PUSH2 0x1E9 JUMPI DUP1 PUSH4 0x6D19F9AE EQ PUSH2 0x205 JUMPI DUP1 PUSH4 0x6E07A438 EQ PUSH2 0x221 JUMPI DUP1 PUSH4 0x6E1D616E EQ PUSH2 0x251 JUMPI PUSH2 0x135 JUMP JUMPDEST DUP1 PUSH4 0x18989DEF EQ PUSH2 0x139 JUMPI DUP1 PUSH4 0x2F2FF15D EQ PUSH2 0x155 JUMPI DUP1 PUSH4 0x3B129A56 EQ PUSH2 0x171 JUMPI DUP1 PUSH4 0x4245962B EQ PUSH2 0x18F JUMPI DUP1 PUSH4 0x42F1E879 EQ PUSH2 0x1AD JUMPI JUMPDEST PUSH0 PUSH0 REVERT JUMPDEST PUSH2 0x153 PUSH1 0x4 DUP1 CALLDATASIZE SUB DUP2 ADD SWAP1 PUSH2 0x14E SWAP2 SWAP1 PUSH2 0x17D5 JUMP JUMPDEST PUSH2 0x40F JUMP JUMPDEST STOP JUMPDEST PUSH2 0x16F PUSH1 0x4 DUP1 CALLDATASIZE SUB DUP2 ADD SWAP1 PUSH2 0x16A SWAP2 SWAP1 PUSH2 0x1865 JUMP JUMPDEST PUSH2 0x64F JUMP JUMPDEST STOP JUMPDEST PUSH2 0x179 PUSH2 0x8CE JUMP JUMPDEST PUSH1 0x40 MLOAD PUSH2 0x186 SWAP2 SWAP1 PUSH2 0x18B2 JUMP JUMPDEST PUSH1 0x40 MLOAD DUP1 SWAP2 SUB SWAP1 RETURN JUMPDEST PUSH2 0x197 PUSH2 0x8F2 JUMP JUMPDEST PUSH1 0x40 MLOAD PUSH2 0x1A4 SWAP2 SWAP1 PUSH2 0x18B2 JUMP JUMPDEST PUSH1 0x40 MLOAD DUP1 SWAP2 SUB SWAP1 RETURN JUMPDEST PUSH2 0x1B5 PUSH2 0x916 JUMP JUMPDEST PUSH1 0x40 MLOAD PUSH2 0x1C2 SWAP2 SWAP1 PUSH2 0x18B2 JUMP JUMPDEST PUSH1 0x40 MLOAD DUP1 SWAP2 SUB SWAP1 RETURN JUMPDEST PUSH2 0x1D3 PUSH2 0x93A JUMP JUMPDEST PUSH1 0x40 MLOAD PUSH2 0x1E0 SWAP2 SWAP1 PUSH2 0x18E3 JUMP JUMPDEST PUSH1 0x40 MLOAD DUP1 SWAP2 SUB SWAP1 RETURN JUMPDEST PUSH2 0x203 PUSH1 0x4 DUP1 CALLDATASIZE SUB DUP2 ADD SWAP1 PUSH2 0x1FE SWAP2 SWAP1 PUSH2 0x197B JUMP JUMPDEST PUSH2 0x946 JUMP JUMPDEST STOP JUMPDEST PUSH2 0x21F PUSH1 0x4 DUP1 CALLDATASIZE SUB DUP2 ADD SWAP1 PUSH2 0x21A SWAP2 SWAP1 PUSH2 0x1A25 JUMP JUMPDEST PUSH2 0xAED JUMP JUMPDEST STOP JUMPDEST PUSH2 0x23B PUSH1 0x4 DUP1 CALLDATASIZE SUB DUP2 ADD SWAP1 PUSH2 0x236 SWAP2 SWAP1 PUSH2 0x1A25 JUMP JUMPDEST PUSH2 0xCBB JUMP JUMPDEST PUSH1 0x40 MLOAD PUSH2 0x248 SWAP2 SWAP1 PUSH2 0x18E3 JUMP JUMPDEST PUSH1 0x40 MLOAD DUP1 SWAP2 SUB SWAP1 RETURN JUMPDEST PUSH2 0x259 PUSH2 0xD2D JUMP JUMPDEST PUSH1 0x40 MLOAD PUSH2 0x266 SWAP2 SWAP1 PUSH2 0x18B2 JUMP JUMPDEST PUSH1 0x40 MLOAD DUP1 SWAP2 SUB SWAP1 RETURN JUMPDEST PUSH2 0x277 PUSH2 0xD51 JUMP JUMPDEST PUSH1 0x40 MLOAD PUSH2 0x284 SWAP2 SWAP1 PUSH2 0x18B2 JUMP JUMPDEST PUSH1 0x40 MLOAD DUP1 SWAP2 SUB SWAP1 RETURN JUMPDEST PUSH2 0x2A7 PUSH1 0x4 DUP1 CALLDATASIZE SUB DUP2 ADD SWAP1 PUSH2 0x2A2 SWAP2 SWAP1 PUSH2 0x1A50 JUMP JUMPDEST PUSH2 0xD75 JUMP JUMPDEST STOP JUMPDEST PUSH2 0x2C3 PUSH1 0x4 DUP1 CALLDATASIZE SUB DUP2 ADD SWAP1 PUSH2 0x2BE SWAP2 SWAP1 PUSH2 0x1865 JUMP JUMPDEST PUSH2 0xECC JUMP JUMPDEST PUSH1 0x40 MLOAD PUSH2 0x2D0 SWAP2 SWAP1 PUSH2 0x1A95 JUMP JUMPDEST PUSH1 0x40 MLOAD DUP1 SWAP2 SUB SWAP1 RETURN JUMPDEST PUSH2 0x2E1 PUSH2 0xF2D JUMP JUMPDEST PUSH1 0x40 MLOAD PUSH2 0x2EE SWAP2 SWAP1 PUSH2 0x1B65 JUMP JUMPDEST PUSH1 0x40 MLOAD DUP1 SWAP2 SUB SWAP1 RETURN JUMPDEST PUSH2 0x311 PUSH1 0x4 DUP1 CALLDATASIZE SUB DUP2 ADD SWAP1 PUSH2 0x30C SWAP2 SWAP1 PUSH2 0x1A25 JUMP JUMPDEST PUSH2 0xF83 JUMP JUMPDEST PUSH1 0x40 MLOAD PUSH2 0x31E SWAP2 SWAP1 PUSH2 0x18E3 JUMP JUMPDEST PUSH1 0x40 MLOAD DUP1 SWAP2 SUB SWAP1 RETURN JUMPDEST PUSH2 0x32F PUSH2 0xFA3 JUMP JUMPDEST PUSH1 0x40 MLOAD PUSH2 0x33C SWAP2 SWAP1 PUSH2 0x18B2 JUMP JUMPDEST PUSH1 0x40 MLOAD DUP1 SWAP2 SUB SWAP1 RETURN JUMPDEST PUSH2 0x35F PUSH1 0x4 DUP1 CALLDATASIZE SUB DUP2 ADD SWAP1 PUSH2 0x35A SWAP2 SWAP1 PUSH2 0x1B85 JUMP JUMPDEST PUSH2 0xFC7 JUMP JUMPDEST PUSH1 0x40 MLOAD PUSH2 0x36C SWAP2 SWAP1 PUSH2 0x18E3 JUMP JUMPDEST PUSH1 0x40 MLOAD DUP1 SWAP2 SUB SWAP1 RETURN JUMPDEST PUSH2 0x37D PUSH2 0x11E2 JUMP JUMPDEST PUSH1 0x40 MLOAD PUSH2 0x38A SWAP2 SWAP1 PUSH2 0x18B2 JUMP JUMPDEST PUSH1 0x40 MLOAD DUP1 SWAP2 SUB SWAP1 RETURN JUMPDEST PUSH2 0x3AD PUSH1 0x4 DUP1 CALLDATASIZE SUB DUP2 ADD SWAP1 PUSH2 0x3A8 SWAP2 SWAP1 PUSH2 0x1865 JUMP JUMPDEST PUSH2 0x1206 JUMP JUMPDEST STOP JUMPDEST PUSH2 0x3C9 PUSH1 0x4 DUP1 CALLDATASIZE SUB DUP2 ADD SWAP1 PUSH2 0x3C4 SWAP2 SWAP1 PUSH2 0x1A25 JUMP JUMPDEST PUSH2 0x1415 JUMP JUMPDEST PUSH1 0x40 MLOAD PUSH2 0x3D6 SWAP2 SWAP1 PUSH2 0x1D5C JUMP JUMPDEST PUSH1 0x40 MLOAD DUP1 SWAP2 SUB SWAP1 RETURN JUMPDEST PUSH2 0x3F9 PUSH1 0x4 DUP1 CALLDATASIZE SUB DUP2 ADD SWAP1 PUSH2 0x3F4 SWAP2 SWAP1 PUSH2 0x1A25 JUMP JUMPDEST PUSH2 0x1585 JUMP JUMPDEST PUSH1 0x40 MLOAD PUSH2 0x406 SWAP2 SWAP1 PUSH2 0x1A95 JUMP JUMPDEST PUSH1 0x40 MLOAD DUP1 SWAP2 SUB SWAP1 RETURN JUMPDEST PUSH0 PUSH0 PUSH32 0x1EFFBBFF9C66C5E59634F24FE842750C60D18891155C32DD155FC2D661A4C86D DUP2 MSTORE PUSH1 0x20 ADD SWAP1 DUP2 MSTORE PUSH1 0x20 ADD PUSH0 KECCAK256 PUSH0 CALLER PUSH20 0xFFFFFFFFFFFFFFFFFFFFFFFFFFFFFFFFFFFFFFFF AND PUSH20 0xFFFFFFFFFFFFFFFFFFFFFFFFFFFFFFFFFFFFFFFF AND DUP2 MSTORE PUSH1 0x20 ADD SWAP1 DUP2 MSTORE PUSH1 0x20 ADD PUSH0 KECCAK256 PUSH0 SWAP1 SLOAD SWAP1 PUSH2 0x100 EXP SWAP1 DIV PUSH1 0xFF AND PUSH2 0x4C6 JUMPI PUSH1 0x40 MLOAD PUSH32 0x8C379A000000000000000000000000000000000000000000000000000000000 DUP2 MSTORE PUSH1 0x4 ADD PUSH2 0x4BD SWAP1 PUSH2 0x1DD6 JUMP JUMPDEST PUSH1 0x40 MLOAD DUP1 SWAP2 SUB SWAP1 REVERT JUMPDEST PUSH0 PUSH0 SWAP1 POP JUMPDEST DUP4 DUP4 SWAP1 POP DUP2 LT ISZERO PUSH2 0x649 JUMPI PUSH0 PUSH0 DUP6 DUP6 DUP5 DUP2 DUP2 LT PUSH2 0x4EB JUMPI PUSH2 0x4EA PUSH2 0x1DF4 JUMP JUMPDEST JUMPDEST SWAP1 POP PUSH1 0x20 MUL ADD CALLDATALOAD DUP2 MSTORE PUSH1 0x20 ADD SWAP1 DUP2 MSTORE PUSH1 0x20 ADD PUSH0 KECCAK256 PUSH0 DUP4 PUSH20 0xFFFFFFFFFFFFFFFFFFFFFFFFFFFFFFFFFFFFFFFF AND PUSH20 0xFFFFFFFFFFFFFFFFFFFFFFFFFFFFFFFFFFFFFFFF AND DUP2 MSTORE PUSH1 0x20 ADD SWAP1 DUP2 MSTORE PUSH1 0x20 ADD PUSH0 KECCAK256 PUSH0 SWAP1 SLOAD SWAP1 PUSH2 0x100 EXP SWAP1 DIV PUSH1 0xFF AND PUSH2 0x63C JUMPI PUSH1 0x1 PUSH0 PUSH0 DUP7 DUP7 DUP6 DUP2 DUP2 LT PUSH2 0x562 JUMPI PUSH2 0x561 PUSH2 0x1DF4 JUMP JUMPDEST JUMPDEST SWAP1 POP PUSH1 0x20 MUL ADD CALLDATALOAD DUP2 MSTORE PUSH1 0x20 ADD SWAP1 DUP2 MSTORE PUSH1 0x20 ADD PUSH0 KECCAK256 PUSH0 DUP5 PUSH20 0xFFFFFFFFFFFFFFFFFFFFFFFFFFFFFFFFFFFFFFFF AND PUSH20 0xFFFFFFFFFFFFFFFFFFFFFFFFFFFFFFFFFFFFFFFF AND DUP2 MSTORE PUSH1 0x20 ADD SWAP1 DUP2 MSTORE PUSH1 0x20 ADD PUSH0 KECCAK256 PUSH0 PUSH2 0x100 EXP DUP2 SLOAD DUP2 PUSH1 0xFF MUL NOT AND SWAP1 DUP4 ISZERO ISZERO MUL OR SWAP1 SSTORE POP CALLER PUSH20 0xFFFFFFFFFFFFFFFFFFFFFFFFFFFFFFFFFFFFFFFF AND DUP3 PUSH20 0xFFFFFFFFFFFFFFFFFFFFFFFFFFFFFFFFFFFFFFFF AND DUP6 DUP6 DUP5 DUP2 DUP2 LT PUSH2 0x608 JUMPI PUSH2 0x607 PUSH2 0x1DF4 JUMP JUMPDEST JUMPDEST SWAP1 POP PUSH1 0x20 MUL ADD CALLDATALOAD PUSH32 0x2F8788117E7EFF1D82E926EC794901D17C78024A50270940304540A733656F0D PUSH1 0x40 MLOAD PUSH1 0x40 MLOAD DUP1 SWAP2 SUB SWAP1 LOG4 JUMPDEST DUP1 DUP1 PUSH1 0x1 ADD SWAP2 POP POP PUSH2 0x4CB JUMP JUMPDEST POP POP POP POP JUMP JUMPDEST PUSH0 PUSH0 PUSH32 0x1EFFBBFF9C66C5E59634F24FE842750C60D18891155C32DD155FC2D661A4C86D DUP2 MSTORE PUSH1 0x20 ADD SWAP1 DUP2 MSTORE PUSH1 0x20 ADD PUSH0 KECCAK256 PUSH0 CALLER PUSH20 0xFFFFFFFFFFFFFFFFFFFFFFFFFFFFFFFFFFFFFFFF AND PUSH20 0xFFFFFFFFFFFFFFFFFFFFFFFFFFFFFFFFFFFFFFFF AND DUP2 MSTORE PUSH1 0x20 ADD SWAP1 DUP2 MSTORE PUSH1 0x20 ADD PUSH0 KECCAK256 PUSH0 SWAP1 SLOAD SWAP1 PUSH2 0x100 EXP SWAP1 DIV PUSH1 0xFF AND PUSH2 0x706 JUMPI PUSH1 0x40 MLOAD PUSH32 0x8C379A000000000000000000000000000000000000000000000000000000000 DUP2 MSTORE PUSH1 0x4 ADD PUSH2 0x6FD SWAP1 PUSH2 0x1DD6 JUMP JUMPDEST PUSH1 0x40 MLOAD DUP1 SWAP2 SUB SWAP1 REVERT JUMPDEST PUSH0 PUSH20 0xFFFFFFFFFFFFFFFFFFFFFFFFFFFFFFFFFFFFFFFF AND DUP2 PUSH20 0xFFFFFFFFFFFFFFFFFFFFFFFFFFFFFFFFFFFFFFFF AND SUB PUSH2 0x774 JUMPI PUSH1 0x40 MLOAD PUSH32 0x8C379A000000000000000000000000000000000000000000000000000000000 DUP2 MSTORE PUSH1 0x4 ADD PUSH2 0x76B SWAP1 PUSH2 0x1E91 JUMP JUMPDEST PUSH1 0x40 MLOAD DUP1 SWAP2 SUB SWAP1 REVERT JUMPDEST PUSH0 PUSH0 DUP4 DUP2 MSTORE PUSH1 0x20 ADD SWAP1 DUP2 MSTORE PUSH1 0x20 ADD PUSH0 KECCAK256 PUSH0 DUP3 PUSH20 0xFFFFFFFFFFFFFFFFFFFFFFFFFFFFFFFFFFFFFFFF AND PUSH20 0xFFFFFFFFFFFFFFFFFFFFFFFFFFFFFFFFFFFFFFFF AND DUP2 MSTORE PUSH1 0x20 ADD SWAP1 DUP2 MSTORE PUSH1 0x20 ADD PUSH0 KECCAK256 PUSH0 SWAP1 SLOAD SWAP1 PUSH2 0x100 EXP SWAP1 DIV PUSH1 0xFF AND ISZERO PUSH2 0x80C JUMPI PUSH1 0x40 MLOAD PUSH32 0x8C379A000000000000000000000000000000000000000000000000000000000 DUP2 MSTORE PUSH1 0x4 ADD PUSH2 0x803 SWAP1 PUSH2 0x1F1F JUMP JUMPDEST PUSH1 0x40 MLOAD DUP1 SWAP2 SUB SWAP1 REVERT JUMPDEST PUSH1 0x1 PUSH0 PUSH0 DUP5 DUP2 MSTORE PUSH1 0x20 ADD SWAP1 DUP2 MSTORE PUSH1 0x20 ADD PUSH0 KECCAK256 PUSH0 DUP4 PUSH20 0xFFFFFFFFFFFFFFFFFFFFFFFFFFFFFFFFFFFFFFFF AND PUSH20 0xFFFFFFFFFFFFFFFFFFFFFFFFFFFFFFFFFFFFFFFF AND DUP2 MSTORE PUSH1 0x20 ADD SWAP1 DUP2 MSTORE PUSH1 0x20 ADD PUSH0 KECCAK256 PUSH0 PUSH2 0x100 EXP DUP2 SLOAD DUP2 PUSH1 0xFF MUL NOT AND SWAP1 DUP4 ISZERO ISZERO MUL OR SWAP1 SSTORE POP CALLER PUSH20 0xFFFFFFFFFFFFFFFFFFFFFFFFFFFFFFFFFFFFFFFF AND DUP2 PUSH20 0xFFFFFFFFFFFFFFFFFFFFFFFFFFFFFFFFFFFFFFFF AND DUP4 PUSH32 0x2F8788117E7EFF1D82E926EC794901D17C78024A50270940304540A733656F0D PUSH1 0x40 MLOAD PUSH1 0x40 MLOAD DUP1 SWAP2 SUB SWAP1 LOG4 POP POP JUMP JUMPDEST PUSH32 0xC10C77BE35AFF266144ED64C26A1FA104BAE2F284AE99AC4A34203454704A185 DUP2 JUMP JUMPDEST PUSH32 0x408A36151F841709116A4E8ACA4E0202874F7F54687DCB863B1EA4672DC9D8CF DUP2 JUMP JUMPDEST PUSH32 0xC2979137D1774E40FE2638D355BF7A7B092BE4C67F242AAD1655E1E27F9DF9CC DUP2 JUMP JUMPDEST PUSH0 PUSH1 0x2 DUP1 SLOAD SWAP1 POP SWAP1 POP SWAP1 JUMP JUMPDEST PUSH0 PUSH0 PUSH32 0x1EFFBBFF9C66C5E59634F24FE842750C60D18891155C32DD155FC2D661A4C86D DUP2 MSTORE PUSH1 0x20 ADD SWAP1 DUP2 MSTORE PUSH1 0x20 ADD PUSH0 KECCAK256 PUSH0 CALLER PUSH20 0xFFFFFFFFFFFFFFFFFFFFFFFFFFFFFFFFFFFFFFFF AND PUSH20 0xFFFFFFFFFFFFFFFFFFFFFFFFFFFFFFFFFFFFFFFF AND DUP2 MSTORE PUSH1 0x20 ADD SWAP1 DUP2 MSTORE PUSH1 0x20 ADD PUSH0 KECCAK256 PUSH0 SWAP1 SLOAD SWAP1 PUSH2 0x100 EXP SWAP1 DIV PUSH1 0xFF AND PUSH2 0x9FD JUMPI PUSH1 0x40 MLOAD PUSH32 0x8C379A000000000000000000000000000000000000000000000000000000000 DUP2 MSTORE PUSH1 0x4 ADD PUSH2 0x9F4 SWAP1 PUSH2 0x1DD6 JUMP JUMPDEST PUSH1 0x40 MLOAD DUP1 SWAP2 SUB SWAP1 REVERT JUMPDEST DUP7 PUSH1 0x1 PUSH0 DUP10 DUP2 MSTORE PUSH1 0x20 ADD SWAP1 DUP2 MSTORE PUSH1 0x20 ADD PUSH0 KECCAK256 PUSH0 ADD SLOAD EQ PUSH2 0xA52 JUMPI PUSH1 0x40 MLOAD PUSH32 0x8C379A000000000000000000000000000000000000000000000000000000000 DUP2 MSTORE PUSH1 0x4 ADD PUSH2 0xA49 SWAP1 PUSH2 0x1FAD JUMP JUMPDEST PUSH1 0x40 MLOAD DUP1 SWAP2 SUB SWAP1 REVERT JUMPDEST PUSH0 PUSH1 0x1 PUSH0 DUP10 DUP2 MSTORE PUSH1 0x20 ADD SWAP1 DUP2 MSTORE PUSH1 0x20 ADD PUSH0 KECCAK256 SWAP1 POP DUP7 DUP7 DUP3 PUSH1 0x1 ADD SWAP2 DUP3 PUSH2 0xA79 SWAP3 SWAP2 SWAP1 PUSH2 0x21FF JUMP JUMPDEST POP DUP5 DUP2 PUSH1 0x2 ADD DUP2 SWAP1 SSTORE POP DUP4 DUP2 PUSH1 0x3 ADD DUP2 SWAP1 SSTORE POP DUP3 DUP2 PUSH1 0x4 ADD DUP2 SWAP1 SSTORE POP DUP2 DUP2 PUSH1 0x5 ADD DUP2 SWAP1 SSTORE POP TIMESTAMP DUP2 PUSH1 0x8 ADD DUP2 SWAP1 SSTORE POP DUP8 PUSH32 0x1050721E481ACB6E546AC7BAB9C37390F8A4CA9B8B4D38F64C3245270E1B3B96 DUP9 DUP9 CALLER PUSH1 0x40 MLOAD PUSH2 0xADB SWAP4 SWAP3 SWAP2 SWAP1 PUSH2 0x2315 JUMP JUMPDEST PUSH1 0x40 MLOAD DUP1 SWAP2 SUB SWAP1 LOG2 POP POP POP POP POP POP POP POP JUMP JUMPDEST PUSH0 PUSH0 PUSH32 0x1EFFBBFF9C66C5E59634F24FE842750C60D18891155C32DD155FC2D661A4C86D DUP2 MSTORE PUSH1 0x20 ADD SWAP1 DUP2 MSTORE PUSH1 0x20 ADD PUSH0 KECCAK256 PUSH0 CALLER PUSH20 0xFFFFFFFFFFFFFFFFFFFFFFFFFFFFFFFFFFFFFFFF AND PUSH20 0xFFFFFFFFFFFFFFFFFFFFFFFFFFFFFFFFFFFFFFFF AND DUP2 MSTORE PUSH1 0x20 ADD SWAP1 DUP2 MSTORE PUSH1 0x20 ADD PUSH0 KECCAK256 PUSH0 SWAP1 SLOAD SWAP1 PUSH2 0x100 EXP SWAP1 DIV PUSH1 0xFF AND PUSH2 0xBA4 JUMPI PUSH1 0x40 MLOAD PUSH32 0x8C379A000000000000000000000000000000000000000000000000000000000 DUP2 MSTORE PUSH1 0x4 ADD PUSH2 0xB9B SWAP1 PUSH2 0x1DD6 JUMP JUMPDEST PUSH1 0x40 MLOAD DUP1 SWAP2 SUB SWAP1 REVERT JUMPDEST DUP1 PUSH1 0x1 PUSH0 DUP4 DUP2 MSTORE PUSH1 0x20 ADD SWAP1 DUP2 MSTORE PUSH1 0x20 ADD PUSH0 KECCAK256 PUSH0 ADD SLOAD EQ PUSH2 0xBF9 JUMPI PUSH1 0x40 MLOAD PUSH32 0x8C379A000000000000000000000000000000000000000000000000000000000 DUP2 MSTORE PUSH1 0x4 ADD PUSH2 0xBF0 SWAP1 PUSH2 0x1FAD JUMP JUMPDEST PUSH1 0x40 MLOAD DUP1 SWAP2 SUB SWAP1 REVERT JUMPDEST PUSH1 0x1 PUSH0 DUP3 DUP2 MSTORE PUSH1 0x20 ADD SWAP1 DUP2 MSTORE PUSH1 0x20 ADD PUSH0 KECCAK256 PUSH1 0x6 ADD PUSH0 SWAP1 SLOAD SWAP1 PUSH2 0x100 EXP SWAP1 DIV PUSH1 0xFF AND ISZERO PUSH1 0x1 PUSH0 DUP4 DUP2 MSTORE PUSH1 0x20 ADD SWAP1 DUP2 MSTORE PUSH1 0x20 ADD PUSH0 KECCAK256 PUSH1 0x6 ADD PUSH0 PUSH2 0x100 EXP DUP2 SLOAD DUP2 PUSH1 0xFF MUL NOT AND SWAP1 DUP4 ISZERO ISZERO MUL OR SWAP1 SSTORE POP TIMESTAMP PUSH1 0x1 PUSH0 DUP4 DUP2 MSTORE PUSH1 0x20 ADD SWAP1 DUP2 MSTORE PUSH1 0x20 ADD PUSH0 KECCAK256 PUSH1 0x8 ADD DUP2 SWAP1 SSTORE POP DUP1 PUSH32 0x7E05AF65CEA9EC1934CDC67C3444FDB5FF03B9E3613AAB550AFA6473A85052CB PUSH1 0x1 PUSH0 DUP5 DUP2 MSTORE PUSH1 0x20 ADD SWAP1 DUP2 MSTORE PUSH1 0x20 ADD PUSH0 KECCAK256 PUSH1 0x6 ADD PUSH0 SWAP1 SLOAD SWAP1 PUSH2 0x100 EXP SWAP1 DIV PUSH1 0xFF AND CALLER PUSH1 0x40 MLOAD PUSH2 0xCB0 SWAP3 SWAP2 SWAP1 PUSH2 0x2345 JUMP JUMPDEST PUSH1 0x40 MLOAD DUP1 SWAP2 SUB SWAP1 LOG2 POP JUMP JUMPDEST PUSH0 DUP2 PUSH1 0x1 PUSH0 DUP5 DUP2 MSTORE PUSH1 0x20 ADD SWAP1 DUP2 MSTORE PUSH1 0x20 ADD PUSH0 KECCAK256 PUSH0 ADD SLOAD EQ PUSH2 0xD11 JUMPI PUSH1 0x40 MLOAD PUSH32 0x8C379A000000000000000000000000000000000000000000000000000000000 DUP2 MSTORE PUSH1 0x4 ADD PUSH2 0xD08 SWAP1 PUSH2 0x1FAD JUMP JUMPDEST PUSH1 0x40 MLOAD DUP1 SWAP2 SUB SWAP1 REVERT JUMPDEST PUSH1 0x1 PUSH0 DUP4 DUP2 MSTORE PUSH1 0x20 ADD SWAP1 DUP2 MSTORE PUSH1 0x20 ADD PUSH0 KECCAK256 PUSH1 0x2 ADD SLOAD SWAP1 POP SWAP2 SWAP1 POP JUMP JUMPDEST PUSH32 0x59A1C48E5837AD7A7F3DCEDCBE129BF3249EC4FBF651FD4F5E2600EAD39FE2F5 DUP2 JUMP JUMPDEST PUSH32 0x566C814873EED56A69B28C40AB27CC2CB150D74068BAE3E884CCD44F8DE60F8A DUP2 JUMP JUMPDEST PUSH0 PUSH0 DUP3 DUP2 MSTORE PUSH1 0x20 ADD SWAP1 DUP2 MSTORE PUSH1 0x20 ADD PUSH0 KECCAK256 PUSH0 CALLER PUSH20 0xFFFFFFFFFFFFFFFFFFFFFFFFFFFFFFFFFFFFFFFF AND PUSH20 0xFFFFFFFFFFFFFFFFFFFFFFFFFFFFFFFFFFFFFFFF AND DUP2 MSTORE PUSH1 0x20 ADD SWAP1 DUP2 MSTORE PUSH1 0x20 ADD PUSH0 KECCAK256 PUSH0 SWAP1 SLOAD SWAP1 PUSH2 0x100 EXP SWAP1 DIV PUSH1 0xFF AND PUSH2 0xE0C JUMPI PUSH1 0x40 MLOAD PUSH32 0x8C379A000000000000000000000000000000000000000000000000000000000 DUP2 MSTORE PUSH1 0x4 ADD PUSH2 0xE03 SWAP1 PUSH2 0x23DC JUMP JUMPDEST PUSH1 0x40 MLOAD DUP1 SWAP2 SUB SWAP1 REVERT JUMPDEST PUSH0 PUSH0 PUSH0 DUP4 DUP2 MSTORE PUSH1 0x20 ADD SWAP1 DUP2 MSTORE PUSH1 0x20 ADD PUSH0 KECCAK256 PUSH0 CALLER PUSH20 0xFFFFFFFFFFFFFFFFFFFFFFFFFFFFFFFFFFFFFFFF AND PUSH20 0xFFFFFFFFFFFFFFFFFFFFFFFFFFFFFFFFFFFFFFFF AND DUP2 MSTORE PUSH1 0x20 ADD SWAP1 DUP2 MSTORE PUSH1 0x20 ADD PUSH0 KECCAK256 PUSH0 PUSH2 0x100 EXP DUP2 SLOAD DUP2 PUSH1 0xFF MUL NOT AND SWAP1 DUP4 ISZERO ISZERO MUL OR SWAP1 SSTORE POP CALLER PUSH20 0xFFFFFFFFFFFFFFFFFFFFFFFFFFFFFFFFFFFFFFFF AND CALLER PUSH20 0xFFFFFFFFFFFFFFFFFFFFFFFFFFFFFFFFFFFFFFFF AND DUP3 PUSH32 0xF6391F5C32D9C69D2A47EA670B442974B53935D1EDC7FD64EB21E047A839171B PUSH1 0x40 MLOAD PUSH1 0x40 MLOAD DUP1 SWAP2 SUB SWAP1 LOG4 POP JUMP JUMPDEST PUSH0 PUSH0 PUSH0 DUP5 DUP2 MSTORE PUSH1 0x20 ADD SWAP1 DUP2 MSTORE PUSH1 0x20 ADD PUSH0 KECCAK256 PUSH0 DUP4 PUSH20 0xFFFFFFFFFFFFFFFFFFFFFFFFFFFFFFFFFFFFFFFF AND PUSH20 0xFFFFFFFFFFFFFFFFFFFFFFFFFFFFFFFFFFFFFFFF AND DUP2 MSTORE PUSH1 0x20 ADD SWAP1 DUP2 MSTORE PUSH1 0x20 ADD PUSH0 KECCAK256 PUSH0 SWAP1 SLOAD SWAP1 PUSH2 0x100 EXP SWAP1 DIV PUSH1 0xFF AND SWAP1 POP SWAP3 SWAP2 POP POP JUMP JUMPDEST PUSH1 0x60 PUSH1 0x2 DUP1 SLOAD DUP1 PUSH1 0x20 MUL PUSH1 0x20 ADD PUSH1 0x40 MLOAD SWAP1 DUP2 ADD PUSH1 0x40 MSTORE DUP1 SWAP3 SWAP2 SWAP1 DUP2 DUP2 MSTORE PUSH1 0x20 ADD DUP3 DUP1 SLOAD DUP1 ISZERO PUSH2 0xF79 JUMPI PUSH1 0x20 MUL DUP3 ADD SWAP2 SWAP1 PUSH0 MSTORE PUSH1 0x20 PUSH0 KECCAK256 SWAP1 JUMPDEST DUP2 SLOAD DUP2 MSTORE PUSH1 0x20 ADD SWAP1 PUSH1 0x1 ADD SWAP1 DUP1 DUP4 GT PUSH2 0xF65 JUMPI JUMPDEST POP POP POP POP POP SWAP1 POP SWAP1 JUMP JUMPDEST PUSH1 0x2 DUP2 DUP2 SLOAD DUP2 LT PUSH2 0xF92 JUMPI PUSH0 DUP1 REVERT JUMPDEST SWAP1 PUSH0 MSTORE PUSH1 0x20 PUSH0 KECCAK256 ADD PUSH0 SWAP2 POP SWAP1 POP SLOAD DUP2 JUMP JUMPDEST PUSH32 0x1EFFBBFF9C66C5E59634F24FE842750C60D18891155C32DD155FC2D661A4C86D DUP2 JUMP JUMPDEST PUSH0 PUSH0 PUSH0 PUSH32 0x1EFFBBFF9C66C5E59634F24FE842750C60D18891155C32DD155FC2D661A4C86D DUP2 MSTORE PUSH1 0x20 ADD SWAP1 DUP2 MSTORE PUSH1 0x20 ADD PUSH0 KECCAK256 PUSH0 CALLER PUSH20 0xFFFFFFFFFFFFFFFFFFFFFFFFFFFFFFFFFFFFFFFF AND PUSH20 0xFFFFFFFFFFFFFFFFFFFFFFFFFFFFFFFFFFFFFFFF AND DUP2 MSTORE PUSH1 0x20 ADD SWAP1 DUP2 MSTORE PUSH1 0x20 ADD PUSH0 KECCAK256 PUSH0 SWAP1 SLOAD SWAP1 PUSH2 0x100 EXP SWAP1 DIV PUSH1 0xFF AND PUSH2 0x107F JUMPI PUSH1 0x40 MLOAD PUSH32 0x8C379A000000000000000000000000000000000000000000000000000000000 DUP2 MSTORE PUSH1 0x4 ADD PUSH2 0x1076 SWAP1 PUSH2 0x1DD6 JUMP JUMPDEST PUSH1 0x40 MLOAD DUP1 SWAP2 SUB SWAP1 REVERT JUMPDEST PUSH0 DUP8 DUP8 SWAP1 POP GT PUSH2 0x10C4 JUMPI PUSH1 0x40 MLOAD PUSH32 0x8C379A000000000000000000000000000000000000000000000000000000000 DUP2 MSTORE PUSH1 0x4 ADD PUSH2 0x10BB SWAP1 PUSH2 0x246A JUMP JUMPDEST PUSH1 0x40 MLOAD DUP1 SWAP2 SUB SWAP1 REVERT JUMPDEST PUSH0 DUP6 GT PUSH2 0x1106 JUMPI PUSH1 0x40 MLOAD PUSH32 0x8C379A000000000000000000000000000000000000000000000000000000000 DUP2 MSTORE PUSH1 0x4 ADD PUSH2 0x10FD SWAP1 PUSH2 0x24D2 JUMP JUMPDEST PUSH1 0x40 MLOAD DUP1 SWAP2 SUB SWAP1 REVERT JUMPDEST DUP3 DUP5 LT PUSH2 0x1148 JUMPI PUSH1 0x40 MLOAD PUSH32 0x8C379A000000000000000000000000000000000000000000000000000000000 DUP2 MSTORE PUSH1 0x4 ADD PUSH2 0x113F SWAP1 PUSH2 0x2560 JUMP JUMPDEST PUSH1 0x40 MLOAD DUP1 SWAP2 SUB SWAP1 REVERT JUMPDEST PUSH2 0x1198 DUP8 DUP8 DUP1 DUP1 PUSH1 0x1F ADD PUSH1 0x20 DUP1 SWAP2 DIV MUL PUSH1 0x20 ADD PUSH1 0x40 MLOAD SWAP1 DUP2 ADD PUSH1 0x40 MSTORE DUP1 SWAP4 SWAP3 SWAP2 SWAP1 DUP2 DUP2 MSTORE PUSH1 0x20 ADD DUP4 DUP4 DUP1 DUP3 DUP5 CALLDATACOPY PUSH0 DUP2 DUP5 ADD MSTORE PUSH1 0x1F NOT PUSH1 0x1F DUP3 ADD AND SWAP1 POP DUP1 DUP4 ADD SWAP3 POP POP POP POP POP POP POP DUP7 DUP7 DUP7 DUP7 PUSH2 0x15AE JUMP JUMPDEST SWAP1 POP DUP1 PUSH32 0x3343F88476FC251DED250F0F154E0B3465452A1BF564A6EEBC83ADD26057EB77 DUP9 DUP9 DUP9 CALLER PUSH1 0x40 MLOAD PUSH2 0x11D0 SWAP5 SWAP4 SWAP3 SWAP2 SWAP1 PUSH2 0x257E JUMP JUMPDEST PUSH1 0x40 MLOAD DUP1 SWAP2 SUB SWAP1 LOG2 SWAP7 SWAP6 POP POP POP POP POP POP JUMP JUMPDEST PUSH32 0xE1DCBDB91DF27212A29BC27177C840CF2F819ECF2187432E1FAC86C2DD5DFCA9 DUP2 JUMP JUMPDEST PUSH0 PUSH0 PUSH32 0x1EFFBBFF9C66C5E59634F24FE842750C60D18891155C32DD155FC2D661A4C86D DUP2 MSTORE PUSH1 0x20 ADD SWAP1 DUP2 MSTORE PUSH1 0x20 ADD PUSH0 KECCAK256 PUSH0 CALLER PUSH20 0xFFFFFFFFFFFFFFFFFFFFFFFFFFFFFFFFFFFFFFFF AND PUSH20 0xFFFFFFFFFFFFFFFFFFFFFFFFFFFFFFFFFFFFFFFF AND DUP2 MSTORE PUSH1 0x20 ADD SWAP1 DUP2 MSTORE PUSH1 0x20 ADD PUSH0 KECCAK256 PUSH0 SWAP1 SLOAD SWAP1 PUSH2 0x100 EXP SWAP1 DIV PUSH1 0xFF AND PUSH2 0x12BD JUMPI PUSH1 0x40 MLOAD PUSH32 0x8C379A000000000000000000000000000000000000000000000000000000000 DUP2 MSTORE PUSH1 0x4 ADD PUSH2 0x12B4 SWAP1 PUSH2 0x1DD6 JUMP JUMPDEST PUSH1 0x40 MLOAD DUP1 SWAP2 SUB SWAP1 REVERT JUMPDEST PUSH0 PUSH0 DUP4 DUP2 MSTORE PUSH1 0x20 ADD SWAP1 DUP2 MSTORE PUSH1 0x20 ADD PUSH0 KECCAK256 PUSH0 DUP3 PUSH20 0xFFFFFFFFFFFFFFFFFFFFFFFFFFFFFFFFFFFFFFFF AND PUSH20 0xFFFFFFFFFFFFFFFFFFFFFFFFFFFFFFFFFFFFFFFF AND DUP2 MSTORE PUSH1 0x20 ADD SWAP1 DUP2 MSTORE PUSH1 0x20 ADD PUSH0 KECCAK256 PUSH0 SWAP1 SLOAD SWAP1 PUSH2 0x100 EXP SWAP1 DIV PUSH1 0xFF AND PUSH2 0x1354 JUMPI PUSH1 0x40 MLOAD PUSH32 0x8C379A000000000000000000000000000000000000000000000000000000000 DUP2 MSTORE PUSH1 0x4 ADD PUSH2 0x134B SWAP1 PUSH2 0x262C JUMP JUMPDEST PUSH1 0x40 MLOAD DUP1 SWAP2 SUB SWAP1 REVERT JUMPDEST PUSH0 PUSH0 PUSH0 DUP5 DUP2 MSTORE PUSH1 0x20 ADD SWAP1 DUP2 MSTORE PUSH1 0x20 ADD PUSH0 KECCAK256 PUSH0 DUP4 PUSH20 0xFFFFFFFFFFFFFFFFFFFFFFFFFFFFFFFFFFFFFFFF AND PUSH20 0xFFFFFFFFFFFFFFFFFFFFFFFFFFFFFFFFFFFFFFFF AND DUP2 MSTORE PUSH1 0x20 ADD SWAP1 DUP2 MSTORE PUSH1 0x20 ADD PUSH0 KECCAK256 PUSH0 PUSH2 0x100 EXP DUP2 SLOAD DUP2 PUSH1 0xFF MUL NOT AND SWAP1 DUP4 ISZERO ISZERO MUL OR SWAP1 SSTORE POP CALLER PUSH20 0xFFFFFFFFFFFFFFFFFFFFFFFFFFFFFFFFFFFFFFFF AND DUP2 PUSH20 0xFFFFFFFFFFFFFFFFFFFFFFFFFFFFFFFFFFFFFFFF AND DUP4 PUSH32 0xF6391F5C32D9C69D2A47EA670B442974B53935D1EDC7FD64EB21E047A839171B PUSH1 0x40 MLOAD PUSH1 0x40 MLOAD DUP1 SWAP2 SUB SWAP1 LOG4 POP POP JUMP JUMPDEST PUSH2 0x141D PUSH2 0x16CC JUMP JUMPDEST DUP2 PUSH1 0x1 PUSH0 DUP5 DUP2 MSTORE PUSH1 0x20 ADD SWAP1 DUP2 MSTORE PUSH1 0x20 ADD PUSH0 KECCAK256 PUSH0 ADD SLOAD EQ PUSH2 0x1472 JUMPI PUSH1 0x40 MLOAD PUSH32 0x8C379A000000000000000000000000000000000000000000000000000000000 DUP2 MSTORE PUSH1 0x4 ADD PUSH2 0x1469 SWAP1 PUSH2 0x1FAD JUMP JUMPDEST PUSH1 0x40 MLOAD DUP1 SWAP2 SUB SWAP1 REVERT JUMPDEST PUSH1 0x1 PUSH0 DUP4 DUP2 MSTORE PUSH1 0x20 ADD SWAP1 DUP2 MSTORE PUSH1 0x20 ADD PUSH0 KECCAK256 PUSH1 0x40 MLOAD DUP1 PUSH2 0x120 ADD PUSH1 0x40 MSTORE SWAP1 DUP2 PUSH0 DUP3 ADD SLOAD DUP2 MSTORE PUSH1 0x20 ADD PUSH1 0x1 DUP3 ADD DUP1 SLOAD PUSH2 0x14A8 SWAP1 PUSH2 0x202F JUMP JUMPDEST DUP1 PUSH1 0x1F ADD PUSH1 0x20 DUP1 SWAP2 DIV MUL PUSH1 0x20 ADD PUSH1 0x40 MLOAD SWAP1 DUP2 ADD PUSH1 0x40 MSTORE DUP1 SWAP3 SWAP2 SWAP1 DUP2 DUP2 MSTORE PUSH1 0x20 ADD DUP3 DUP1 SLOAD PUSH2 0x14D4 SWAP1 PUSH2 0x202F JUMP JUMPDEST DUP1 ISZERO PUSH2 0x151F JUMPI DUP1 PUSH1 0x1F LT PUSH2 0x14F6 JUMPI PUSH2 0x100 DUP1 DUP4 SLOAD DIV MUL DUP4 MSTORE SWAP2 PUSH1 0x20 ADD SWAP2 PUSH2 0x151F JUMP JUMPDEST DUP3 ADD SWAP2 SWAP1 PUSH0 MSTORE PUSH1 0x20 PUSH0 KECCAK256 SWAP1 JUMPDEST DUP2 SLOAD DUP2 MSTORE SWAP1 PUSH1 0x1 ADD SWAP1 PUSH1 0x20 ADD DUP1 DUP4 GT PUSH2 0x1502 JUMPI DUP3 SWAP1 SUB PUSH1 0x1F AND DUP3 ADD SWAP2 JUMPDEST POP POP POP POP POP DUP2 MSTORE PUSH1 0x20 ADD PUSH1 0x2 DUP3 ADD SLOAD DUP2 MSTORE PUSH1 0x20 ADD PUSH1 0x3 DUP3 ADD SLOAD DUP2 MSTORE PUSH1 0x20 ADD PUSH1 0x4 DUP3 ADD SLOAD DUP2 MSTORE PUSH1 0x20 ADD PUSH1 0x5 DUP3 ADD SLOAD DUP2 MSTORE PUSH1 0x20 ADD PUSH1 0x6 DUP3 ADD PUSH0 SWAP1 SLOAD SWAP1 PUSH2 0x100 EXP SWAP1 DIV PUSH1 0xFF AND ISZERO ISZERO ISZERO ISZERO DUP2 MSTORE PUSH1 0x20 ADD PUSH1 0x7 DUP3 ADD SLOAD DUP2 MSTORE PUSH1 0x20 ADD PUSH1 0x8 DUP3 ADD SLOAD DUP2 MSTORE POP POP SWAP1 POP SWAP2 SWAP1 POP JUMP JUMPDEST PUSH0 PUSH1 0x1 PUSH0 DUP4 DUP2 MSTORE PUSH1 0x20 ADD SWAP1 DUP2 MSTORE PUSH1 0x20 ADD PUSH0 KECCAK256 PUSH1 0x6 ADD PUSH0 SWAP1 SLOAD SWAP1 PUSH2 0x100 EXP SWAP1 DIV PUSH1 0xFF AND SWAP1 POP SWAP2 SWAP1 POP JUMP JUMPDEST PUSH0 PUSH0 PUSH1 0x3 PUSH0 DUP2 SLOAD DUP1 SWAP3 SWAP2 SWAP1 PUSH2 0x15C2 SWAP1 PUSH2 0x2677 JUMP JUMPDEST SWAP2 SWAP1 POP SSTORE SWAP1 POP PUSH1 0x40 MLOAD DUP1 PUSH2 0x120 ADD PUSH1 0x40 MSTORE DUP1 DUP3 DUP2 MSTORE PUSH1 0x20 ADD DUP9 DUP2 MSTORE PUSH1 0x20 ADD DUP8 DUP2 MSTORE PUSH1 0x20 ADD DUP7 DUP2 MSTORE PUSH1 0x20 ADD DUP6 DUP2 MSTORE PUSH1 0x20 ADD DUP5 DUP2 MSTORE PUSH1 0x20 ADD PUSH1 0x1 ISZERO ISZERO DUP2 MSTORE PUSH1 0x20 ADD TIMESTAMP DUP2 MSTORE PUSH1 0x20 ADD TIMESTAMP DUP2 MSTORE POP PUSH1 0x1 PUSH0 DUP4 DUP2 MSTORE PUSH1 0x20 ADD SWAP1 DUP2 MSTORE PUSH1 0x20 ADD PUSH0 KECCAK256 PUSH0 DUP3 ADD MLOAD DUP2 PUSH0 ADD SSTORE PUSH1 0x20 DUP3 ADD MLOAD DUP2 PUSH1 0x1 ADD SWAP1 DUP2 PUSH2 0x1639 SWAP2 SWAP1 PUSH2 0x26BE JUMP JUMPDEST POP PUSH1 0x40 DUP3 ADD MLOAD DUP2 PUSH1 0x2 ADD SSTORE PUSH1 0x60 DUP3 ADD MLOAD DUP2 PUSH1 0x3 ADD SSTORE PUSH1 0x80 DUP3 ADD MLOAD DUP2 PUSH1 0x4 ADD SSTORE PUSH1 0xA0 DUP3 ADD MLOAD DUP2 PUSH1 0x5 ADD SSTORE PUSH1 0xC0 DUP3 ADD MLOAD DUP2 PUSH1 0x6 ADD PUSH0 PUSH2 0x100 EXP DUP2 SLOAD DUP2 PUSH1 0xFF MUL NOT AND SWAP1 DUP4 ISZERO ISZERO MUL OR SWAP1 SSTORE POP PUSH1 0xE0 DUP3 ADD MLOAD DUP2 PUSH1 0x7 ADD SSTORE PUSH2 0x100 DUP3 ADD MLOAD DUP2 PUSH1 0x8 ADD SSTORE SWAP1 POP POP PUSH1 0x2 DUP2 SWAP1 DUP1 PUSH1 0x1 DUP2 SLOAD ADD DUP1 DUP3 SSTORE DUP1 SWAP2 POP POP PUSH1 0x1 SWAP1 SUB SWAP1 PUSH0 MSTORE PUSH1 0x20 PUSH0 KECCAK256 ADD PUSH0 SWAP1 SWAP2 SWAP1 SWAP2 SWAP1 SWAP2 POP SSTORE DUP1 SWAP2 POP POP SWAP6 SWAP5 POP POP POP POP POP JUMP JUMPDEST PUSH1 0x40 MLOAD DUP1 PUSH2 0x120 ADD PUSH1 0x40 MSTORE DUP1 PUSH0 DUP2 MSTORE PUSH1 0x20 ADD PUSH1 0x60 DUP2 MSTORE PUSH1 0x20 ADD PUSH0 DUP2 MSTORE PUSH1 0x20 ADD PUSH0 DUP2 MSTORE PUSH1 0x20 ADD PUSH0 DUP2 MSTORE PUSH1 0x20 ADD PUSH0 DUP2 MSTORE PUSH1 0x20 ADD PUSH0 ISZERO ISZERO DUP2 MSTORE PUSH1 0x20 ADD PUSH0 DUP2 MSTORE PUSH1 0x20 ADD PUSH0 DUP2 MSTORE POP SWAP1 JUMP JUMPDEST PUSH0 PUSH0 REVERT JUMPDEST PUSH0 PUSH0 REVERT JUMPDEST PUSH0 PUSH0 REVERT JUMPDEST PUSH0 PUSH0 REVERT JUMPDEST PUSH0 PUSH0 REVERT JUMPDEST PUSH0 PUSH0 DUP4 PUSH1 0x1F DUP5 ADD SLT PUSH2 0x173B JUMPI PUSH2 0x173A PUSH2 0x171A JUMP JUMPDEST JUMPDEST DUP3 CALLDATALOAD SWAP1 POP PUSH8 0xFFFFFFFFFFFFFFFF DUP2 GT ISZERO PUSH2 0x1758 JUMPI PUSH2 0x1757 PUSH2 0x171E JUMP JUMPDEST JUMPDEST PUSH1 0x20 DUP4 ADD SWAP2 POP DUP4 PUSH1 0x20 DUP3 MUL DUP4 ADD GT ISZERO PUSH2 0x1774 JUMPI PUSH2 0x1773 PUSH2 0x1722 JUMP JUMPDEST JUMPDEST SWAP3 POP SWAP3 SWAP1 POP JUMP JUMPDEST PUSH0 PUSH20 0xFFFFFFFFFFFFFFFFFFFFFFFFFFFFFFFFFFFFFFFF DUP3 AND SWAP1 POP SWAP2 SWAP1 POP JUMP JUMPDEST PUSH0 PUSH2 0x17A4 DUP3 PUSH2 0x177B JUMP JUMPDEST SWAP1 POP SWAP2 SWAP1 POP JUMP JUMPDEST PUSH2 0x17B4 DUP2 PUSH2 0x179A JUMP JUMPDEST DUP2 EQ PUSH2 0x17BE JUMPI PUSH0 PUSH0 REVERT JUMPDEST POP JUMP JUMPDEST PUSH0 DUP2 CALLDATALOAD SWAP1 POP PUSH2 0x17CF DUP2 PUSH2 0x17AB JUMP JUMPDEST SWAP3 SWAP2 POP POP JUMP JUMPDEST PUSH0 PUSH0 PUSH0 PUSH1 0x40 DUP5 DUP7 SUB SLT ISZERO PUSH2 0x17EC JUMPI PUSH2 0x17EB PUSH2 0x1712 JUMP JUMPDEST JUMPDEST PUSH0 DUP5 ADD CALLDATALOAD PUSH8 0xFFFFFFFFFFFFFFFF DUP2 GT ISZERO PUSH2 0x1809 JUMPI PUSH2 0x1808 PUSH2 0x1716 JUMP JUMPDEST JUMPDEST PUSH2 0x1815 DUP7 DUP3 DUP8 ADD PUSH2 0x1726 JUMP JUMPDEST SWAP4 POP SWAP4 POP POP PUSH1 0x20 PUSH2 0x1828 DUP7 DUP3 DUP8 ADD PUSH2 0x17C1 JUMP JUMPDEST SWAP2 POP POP SWAP3 POP SWAP3 POP SWAP3 JUMP JUMPDEST PUSH0 DUP2 SWAP1 POP SWAP2 SWAP1 POP JUMP JUMPDEST PUSH2 0x1844 DUP2 PUSH2 0x1832 JUMP JUMPDEST DUP2 EQ PUSH2 0x184E JUMPI PUSH0 PUSH0 REVERT JUMPDEST POP JUMP JUMPDEST PUSH0 DUP2 CALLDATALOAD SWAP1 POP PUSH2 0x185F DUP2 PUSH2 0x183B JUMP JUMPDEST SWAP3 SWAP2 POP POP JUMP JUMPDEST PUSH0 PUSH0 PUSH1 0x40 DUP4 DUP6 SUB SLT ISZERO PUSH2 0x187B JUMPI PUSH2 0x187A PUSH2 0x1712 JUMP JUMPDEST JUMPDEST PUSH0 PUSH2 0x1888 DUP6 DUP3 DUP7 ADD PUSH2 0x1851 JUMP JUMPDEST SWAP3 POP POP PUSH1 0x20 PUSH2 0x1899 DUP6 DUP3 DUP7 ADD PUSH2 0x17C1 JUMP JUMPDEST SWAP2 POP POP SWAP3 POP SWAP3 SWAP1 POP JUMP JUMPDEST PUSH2 0x18AC DUP2 PUSH2 0x1832 JUMP JUMPDEST DUP3 MSTORE POP POP JUMP JUMPDEST PUSH0 PUSH1 0x20 DUP3 ADD SWAP1 POP PUSH2 0x18C5 PUSH0 DUP4 ADD DUP5 PUSH2 0x18A3 JUMP JUMPDEST SWAP3 SWAP2 POP POP JUMP JUMPDEST PUSH0 DUP2 SWAP1 POP SWAP2 SWAP1 POP JUMP JUMPDEST PUSH2 0x18DD DUP2 PUSH2 0x18CB JUMP JUMPDEST DUP3 MSTORE POP POP JUMP JUMPDEST PUSH0 PUSH1 0x20 DUP3 ADD SWAP1 POP PUSH2 0x18F6 PUSH0 DUP4 ADD DUP5 PUSH2 0x18D4 JUMP JUMPDEST SWAP3 SWAP2 POP POP JUMP JUMPDEST PUSH2 0x1905 DUP2 PUSH2 0x18CB JUMP JUMPDEST DUP2 EQ PUSH2 0x190F JUMPI PUSH0 PUSH0 REVERT JUMPDEST POP JUMP JUMPDEST PUSH0 DUP2 CALLDATALOAD SWAP1 POP PUSH2 0x1920 DUP2 PUSH2 0x18FC JUMP JUMPDEST SWAP3 SWAP2 POP POP JUMP JUMPDEST PUSH0 PUSH0 DUP4 PUSH1 0x1F DUP5 ADD SLT PUSH2 0x193B JUMPI PUSH2 0x193A PUSH2 0x171A JUMP JUMPDEST JUMPDEST DUP3 CALLDATALOAD SWAP1 POP PUSH8 0xFFFFFFFFFFFFFFFF DUP2 GT ISZERO PUSH2 0x1958 JUMPI PUSH2 0x1957 PUSH2 0x171E JUMP JUMPDEST JUMPDEST PUSH1 0x20 DUP4 ADD SWAP2 POP DUP4 PUSH1 0x1 DUP3 MUL DUP4 ADD GT ISZERO PUSH2 0x1974 JUMPI PUSH2 0x1973 PUSH2 0x1722 JUMP JUMPDEST JUMPDEST SWAP3 POP SWAP3 SWAP1 POP JUMP JUMPDEST PUSH0 PUSH0 PUSH0 PUSH0 PUSH0 PUSH0 PUSH0 PUSH1 0xC0 DUP9 DUP11 SUB SLT ISZERO PUSH2 0x1996 JUMPI PUSH2 0x1995 PUSH2 0x1712 JUMP JUMPDEST JUMPDEST PUSH0 PUSH2 0x19A3 DUP11 DUP3 DUP12 ADD PUSH2 0x1912 JUMP JUMPDEST SWAP8 POP POP PUSH1 0x20 DUP9 ADD CALLDATALOAD PUSH8 0xFFFFFFFFFFFFFFFF DUP2 GT ISZERO PUSH2 0x19C4 JUMPI PUSH2 0x19C3 PUSH2 0x1716 JUMP JUMPDEST JUMPDEST PUSH2 0x19D0 DUP11 DUP3 DUP12 ADD PUSH2 0x1926 JUMP JUMPDEST SWAP7 POP SWAP7 POP POP PUSH1 0x40 PUSH2 0x19E3 DUP11 DUP3 DUP12 ADD PUSH2 0x1912 JUMP JUMPDEST SWAP5 POP POP PUSH1 0x60 PUSH2 0x19F4 DUP11 DUP3 DUP12 ADD PUSH2 0x1912 JUMP JUMPDEST SWAP4 POP POP PUSH1 0x80 PUSH2 0x1A05 DUP11 DUP3 DUP12 ADD PUSH2 0x1912 JUMP JUMPDEST SWAP3 POP POP PUSH1 0xA0 PUSH2 0x1A16 DUP11 DUP3 DUP12 ADD PUSH2 0x1912 JUMP JUMPDEST SWAP2 POP POP SWAP3 SWAP6 SWAP9 SWAP2 SWAP5 SWAP8 POP SWAP3 SWAP6 POP JUMP JUMPDEST PUSH0 PUSH1 0x20 DUP3 DUP5 SUB SLT ISZERO PUSH2 0x1A3A JUMPI PUSH2 0x1A39 PUSH2 0x1712 JUMP JUMPDEST JUMPDEST PUSH0 PUSH2 0x1A47 DUP5 DUP3 DUP6 ADD PUSH2 0x1912 JUMP JUMPDEST SWAP2 POP POP SWAP3 SWAP2 POP POP JUMP JUMPDEST PUSH0 PUSH1 0x20 DUP3 DUP5 SUB SLT ISZERO PUSH2 0x1A65 JUMPI PUSH2 0x1A64 PUSH2 0x1712 JUMP JUMPDEST JUMPDEST PUSH0 PUSH2 0x1A72 DUP5 DUP3 DUP6 ADD PUSH2 0x1851 JUMP JUMPDEST SWAP2 POP POP SWAP3 SWAP2 POP POP JUMP JUMPDEST PUSH0 DUP2 ISZERO ISZERO SWAP1 POP SWAP2 SWAP1 POP JUMP JUMPDEST PUSH2 0x1A8F DUP2 PUSH2 0x1A7B JUMP JUMPDEST DUP3 MSTORE POP POP JUMP JUMPDEST PUSH0 PUSH1 0x20 DUP3 ADD SWAP1 POP PUSH2 0x1AA8 PUSH0 DUP4 ADD DUP5 PUSH2 0x1A86 JUMP JUMPDEST SWAP3 SWAP2 POP POP JUMP JUMPDEST PUSH0 DUP2 MLOAD SWAP1 POP SWAP2 SWAP1 POP JUMP JUMPDEST PUSH0 DUP3 DUP3 MSTORE PUSH1 0x20 DUP3 ADD SWAP1 POP SWAP3 SWAP2 POP POP JUMP JUMPDEST PUSH0 DUP2 SWAP1 POP PUSH1 0x20 DUP3 ADD SWAP1 POP SWAP2 SWAP1 POP JUMP JUMPDEST PUSH2 0x1AE0 DUP2 PUSH2 0x18CB JUMP JUMPDEST DUP3 MSTORE POP POP JUMP JUMPDEST PUSH0 PUSH2 0x1AF1 DUP4 DUP4 PUSH2 0x1AD7 JUMP JUMPDEST PUSH1 0x20 DUP4 ADD SWAP1 POP SWAP3 SWAP2 POP POP JUMP JUMPDEST PUSH0 PUSH1 0x20 DUP3 ADD SWAP1 POP SWAP2 SWAP1 POP JUMP JUMPDEST PUSH0 PUSH2 0x1B13 DUP3 PUSH2 0x1AAE JUMP JUMPDEST PUSH2 0x1B1D DUP2 DUP6 PUSH2 0x1AB8 JUMP JUMPDEST SWAP4 POP PUSH2 0x1B28 DUP4 PUSH2 0x1AC8 JUMP JUMPDEST DUP1 PUSH0 JUMPDEST DUP4 DUP2 LT ISZERO PUSH2 0x1B58 JUMPI DUP2 MLOAD PUSH2 0x1B3F DUP9 DUP3 PUSH2 0x1AE6 JUMP JUMPDEST SWAP8 POP PUSH2 0x1B4A DUP4 PUSH2 0x1AFD JUMP JUMPDEST SWAP3 POP POP PUSH1 0x1 DUP2 ADD SWAP1 POP PUSH2 0x1B2B JUMP JUMPDEST POP DUP6 SWAP4 POP POP POP POP SWAP3 SWAP2 POP POP JUMP JUMPDEST PUSH0 PUSH1 0x20 DUP3 ADD SWAP1 POP DUP2 DUP2 SUB PUSH0 DUP4 ADD MSTORE PUSH2 0x1B7D DUP2 DUP5 PUSH2 0x1B09 JUMP JUMPDEST SWAP1 POP SWAP3 SWAP2 POP POP JUMP JUMPDEST PUSH0 PUSH0 PUSH0 PUSH0 PUSH0 PUSH0 PUSH1 0xA0 DUP8 DUP10 SUB SLT ISZERO PUSH2 0x1B9F JUMPI PUSH2 0x1B9E PUSH2 0x1712 JUMP JUMPDEST JUMPDEST PUSH0 DUP8 ADD CALLDATALOAD PUSH8 0xFFFFFFFFFFFFFFFF DUP2 GT ISZERO PUSH2 0x1BBC JUMPI PUSH2 0x1BBB PUSH2 0x1716 JUMP JUMPDEST JUMPDEST PUSH2 0x1BC8 DUP10 DUP3 DUP11 ADD PUSH2 0x1926 JUMP JUMPDEST SWAP7 POP SWAP7 POP POP PUSH1 0x20 PUSH2 0x1BDB DUP10 DUP3 DUP11 ADD PUSH2 0x1912 JUMP JUMPDEST SWAP5 POP POP PUSH1 0x40 PUSH2 0x1BEC DUP10 DUP3 DUP11 ADD PUSH2 0x1912 JUMP JUMPDEST SWAP4 POP POP PUSH1 0x60 PUSH2 0x1BFD DUP10 DUP3 DUP11 ADD PUSH2 0x1912 JUMP JUMPDEST SWAP3 POP POP PUSH1 0x80 PUSH2 0x1C0E DUP10 DUP3 DUP11 ADD PUSH2 0x1912 JUMP JUMPDEST SWAP2 POP POP SWAP3 SWAP6 POP SWAP3 SWAP6 POP SWAP3 SWAP6 JUMP JUMPDEST PUSH0 DUP2 MLOAD SWAP1 POP SWAP2 SWAP1 POP JUMP JUMPDEST PUSH0 DUP3 DUP3 MSTORE PUSH1 0x20 DUP3 ADD SWAP1 POP SWAP3 SWAP2 POP POP JUMP JUMPDEST DUP3 DUP2 DUP4 MCOPY PUSH0 DUP4 DUP4 ADD MSTORE POP POP POP JUMP JUMPDEST PUSH0 PUSH1 0x1F NOT PUSH1 0x1F DUP4 ADD AND SWAP1 POP SWAP2 SWAP1 POP JUMP JUMPDEST PUSH0 PUSH2 0x1C5D DUP3 PUSH2 0x1C1B JUMP JUMPDEST PUSH2 0x1C67 DUP2 DUP6 PUSH2 0x1C25 JUMP JUMPDEST SWAP4 POP PUSH2 0x1C77 DUP2 DUP6 PUSH1 0x20 DUP7 ADD PUSH2 0x1C35 JUMP JUMPDEST PUSH2 0x1C80 DUP2 PUSH2 0x1C43 JUMP JUMPDEST DUP5 ADD SWAP2 POP POP SWAP3 SWAP2 POP POP JUMP JUMPDEST PUSH2 0x1C94 DUP2 PUSH2 0x1A7B JUMP JUMPDEST DUP3 MSTORE POP POP JUMP JUMPDEST PUSH0 PUSH2 0x120 DUP4 ADD PUSH0 DUP4 ADD MLOAD PUSH2 0x1CB0 PUSH0 DUP7 ADD DUP3 PUSH2 0x1AD7 JUMP JUMPDEST POP PUSH1 0x20 DUP4 ADD MLOAD DUP5 DUP3 SUB PUSH1 0x20 DUP7 ADD MSTORE PUSH2 0x1CC8 DUP3 DUP3 PUSH2 0x1C53 JUMP JUMPDEST SWAP2 POP POP PUSH1 0x40 DUP4 ADD MLOAD PUSH2 0x1CDD PUSH1 0x40 DUP7 ADD DUP3 PUSH2 0x1AD7 JUMP JUMPDEST POP PUSH1 0x60 DUP4 ADD MLOAD PUSH2 0x1CF0 PUSH1 0x60 DUP7 ADD DUP3 PUSH2 0x1AD7 JUMP JUMPDEST POP PUSH1 0x80 DUP4 ADD MLOAD PUSH2 0x1D03 PUSH1 0x80 DUP7 ADD DUP3 PUSH2 0x1AD7 JUMP JUMPDEST POP PUSH1 0xA0 DUP4 ADD MLOAD PUSH2 0x1D16 PUSH1 0xA0 DUP7 ADD DUP3 PUSH2 0x1AD7 JUMP JUMPDEST POP PUSH1 0xC0 DUP4 ADD MLOAD PUSH2 0x1D29 PUSH1 0xC0 DUP7 ADD DUP3 PUSH2 0x1C8B JUMP JUMPDEST POP PUSH1 0xE0 DUP4 ADD MLOAD PUSH2 0x1D3C PUSH1 0xE0 DUP7 ADD DUP3 PUSH2 0x1AD7 JUMP JUMPDEST POP PUSH2 0x100 DUP4 ADD MLOAD PUSH2 0x1D51 PUSH2 0x100 DUP7 ADD DUP3 PUSH2 0x1AD7 JUMP JUMPDEST POP DUP1 SWAP2 POP POP SWAP3 SWAP2 POP POP JUMP JUMPDEST PUSH0 PUSH1 0x20 DUP3 ADD SWAP1 POP DUP2 DUP2 SUB PUSH0 DUP4 ADD MSTORE PUSH2 0x1D74 DUP2 DUP5 PUSH2 0x1C9A JUMP JUMPDEST SWAP1 POP SWAP3 SWAP2 POP POP JUMP JUMPDEST PUSH0 DUP3 DUP3 MSTORE PUSH1 0x20 DUP3 ADD SWAP1 POP SWAP3 SWAP2 POP POP JUMP JUMPDEST PUSH32 0x526F6C654163636573733A2063616C6C6572206973206E6F742061646D696E00 PUSH0 DUP3 ADD MSTORE POP JUMP JUMPDEST PUSH0 PUSH2 0x1DC0 PUSH1 0x1F DUP4 PUSH2 0x1D7C JUMP JUMPDEST SWAP2 POP PUSH2 0x1DCB DUP3 PUSH2 0x1D8C JUMP JUMPDEST PUSH1 0x20 DUP3 ADD SWAP1 POP SWAP2 SWAP1 POP JUMP JUMPDEST PUSH0 PUSH1 0x20 DUP3 ADD SWAP1 POP DUP2 DUP2 SUB PUSH0 DUP4 ADD MSTORE PUSH2 0x1DED DUP2 PUSH2 0x1DB4 JUMP JUMPDEST SWAP1 POP SWAP2 SWAP1 POP JUMP JUMPDEST PUSH32 0x4E487B7100000000000000000000000000000000000000000000000000000000 PUSH0 MSTORE PUSH1 0x32 PUSH1 0x4 MSTORE PUSH1 0x24 PUSH0 REVERT JUMPDEST PUSH32 0x526F6C654163636573733A2063616E6E6F74206772616E7420726F6C6520746F PUSH0 DUP3 ADD MSTORE PUSH32 0x207A65726F206164647265737300000000000000000000000000000000000000 PUSH1 0x20 DUP3 ADD MSTORE POP JUMP JUMPDEST PUSH0 PUSH2 0x1E7B PUSH1 0x2D DUP4 PUSH2 0x1D7C JUMP JUMPDEST SWAP2 POP PUSH2 0x1E86 DUP3 PUSH2 0x1E21 JUMP JUMPDEST PUSH1 0x40 DUP3 ADD SWAP1 POP SWAP2 SWAP1 POP JUMP JUMPDEST PUSH0 PUSH1 0x20 DUP3 ADD SWAP1 POP DUP2 DUP2 SUB PUSH0 DUP4 ADD MSTORE PUSH2 0x1EA8 DUP2 PUSH2 0x1E6F JUMP JUMPDEST SWAP1 POP SWAP2 SWAP1 POP JUMP JUMPDEST PUSH32 0x526F6C654163636573733A206163636F756E7420616C72656164792068617320 PUSH0 DUP3 ADD MSTORE PUSH32 0x7468697320726F6C650000000000000000000000000000000000000000000000 PUSH1 0x20 DUP3 ADD MSTORE POP JUMP JUMPDEST PUSH0 PUSH2 0x1F09 PUSH1 0x29 DUP4 PUSH2 0x1D7C JUMP JUMPDEST SWAP2 POP PUSH2 0x1F14 DUP3 PUSH2 0x1EAF JUMP JUMPDEST PUSH1 0x40 DUP3 ADD SWAP1 POP SWAP2 SWAP1 POP JUMP JUMPDEST PUSH0 PUSH1 0x20 DUP3 ADD SWAP1 POP DUP2 DUP2 SUB PUSH0 DUP4 ADD MSTORE PUSH2 0x1F36 DUP2 PUSH2 0x1EFD JUMP JUMPDEST SWAP1 POP SWAP2 SWAP1 POP JUMP JUMPDEST PUSH32 0x536368656D65436F6E6669673A20736368656D6520646F6573206E6F74206578 PUSH0 DUP3 ADD MSTORE PUSH32 0x6973740000000000000000000000000000000000000000000000000000000000 PUSH1 0x20 DUP3 ADD MSTORE POP JUMP JUMPDEST PUSH0 PUSH2 0x1F97 PUSH1 0x23 DUP4 PUSH2 0x1D7C JUMP JUMPDEST SWAP2 POP PUSH2 0x1FA2 DUP3 PUSH2 0x1F3D JUMP JUMPDEST PUSH1 0x40 DUP3 ADD SWAP1 POP SWAP2 SWAP1 POP JUMP JUMPDEST PUSH0 PUSH1 0x20 DUP3 ADD SWAP1 POP DUP2 DUP2 SUB PUSH0 DUP4 ADD MSTORE PUSH2 0x1FC4 DUP2 PUSH2 0x1F8B JUMP JUMPDEST SWAP1 POP SWAP2 SWAP1 POP JUMP JUMPDEST PUSH0 DUP3 SWAP1 POP SWAP3 SWAP2 POP POP JUMP JUMPDEST PUSH32 0x4E487B7100000000000000000000000000000000000000000000000000000000 PUSH0 MSTORE PUSH1 0x41 PUSH1 0x4 MSTORE PUSH1 0x24 PUSH0 REVERT JUMPDEST PUSH32 0x4E487B7100000000000000000000000000000000000000000000000000000000 PUSH0 MSTORE PUSH1 0x22 PUSH1 0x4 MSTORE PUSH1 0x24 PUSH0 REVERT JUMPDEST PUSH0 PUSH1 0x2 DUP3 DIV SWAP1 POP PUSH1 0x1 DUP3 AND DUP1 PUSH2 0x2046 JUMPI PUSH1 0x7F DUP3 AND SWAP2 POP JUMPDEST PUSH1 0x20 DUP3 LT DUP2 SUB PUSH2 0x2059 JUMPI PUSH2 0x2058 PUSH2 0x2002 JUMP JUMPDEST JUMPDEST POP SWAP2 SWAP1 POP JUMP JUMPDEST PUSH0 DUP2 SWAP1 POP DUP2 PUSH0 MSTORE PUSH1 0x20 PUSH0 KECCAK256 SWAP1 POP SWAP2 SWAP1 POP JUMP JUMPDEST PUSH0 PUSH1 0x20 PUSH1 0x1F DUP4 ADD DIV SWAP1 POP SWAP2 SWAP1 POP JUMP JUMPDEST PUSH0 DUP3 DUP3 SHL SWAP1 POP SWAP3 SWAP2 POP POP JUMP JUMPDEST PUSH0 PUSH1 0x8 DUP4 MUL PUSH2 0x20BB PUSH32 0xFFFFFFFFFFFFFFFFFFFFFFFFFFFFFFFFFFFFFFFFFFFFFFFFFFFFFFFFFFFFFFFF DUP3 PUSH2 0x2080 JUMP JUMPDEST PUSH2 0x20C5 DUP7 DUP4 PUSH2 0x2080 JUMP JUMPDEST SWAP6 POP DUP1 NOT DUP5 AND SWAP4 POP DUP1 DUP7 AND DUP5 OR SWAP3 POP POP POP SWAP4 SWAP3 POP POP POP JUMP JUMPDEST PUSH0 DUP2 SWAP1 POP SWAP2 SWAP1 POP JUMP JUMPDEST PUSH0 PUSH2 0x2100 PUSH2 0x20FB PUSH2 0x20F6 DUP5 PUSH2 0x18CB JUMP JUMPDEST PUSH2 0x20DD JUMP JUMPDEST PUSH2 0x18CB JUMP JUMPDEST SWAP1 POP SWAP2 SWAP1 POP JUMP JUMPDEST PUSH0 DUP2 SWAP1 POP SWAP2 SWAP1 POP JUMP JUMPDEST PUSH2 0x2119 DUP4 PUSH2 0x20E6 JUMP JUMPDEST PUSH2 0x212D PUSH2 0x2125 DUP3 PUSH2 0x2107 JUMP JUMPDEST DUP5 DUP5 SLOAD PUSH2 0x208C JUMP JUMPDEST DUP3 SSTORE POP POP POP POP JUMP JUMPDEST PUSH0 PUSH0 SWAP1 POP SWAP1 JUMP JUMPDEST PUSH2 0x2144 PUSH2 0x2135 JUMP JUMPDEST PUSH2 0x214F DUP2 DUP5 DUP5 PUSH2 0x2110 JUMP JUMPDEST POP POP POP JUMP JUMPDEST JUMPDEST DUP2 DUP2 LT ISZERO PUSH2 0x2172 JUMPI PUSH2 0x2167 PUSH0 DUP3 PUSH2 0x213C JUMP JUMPDEST PUSH1 0x1 DUP2 ADD SWAP1 POP PUSH2 0x2155 JUMP JUMPDEST POP POP JUMP JUMPDEST PUSH1 0x1F DUP3 GT ISZERO PUSH2 0x21B7 JUMPI PUSH2 0x2188 DUP2 PUSH2 0x205F JUMP JUMPDEST PUSH2 0x2191 DUP5 PUSH2 0x2071 JUMP JUMPDEST DUP2 ADD PUSH1 0x20 DUP6 LT ISZERO PUSH2 0x21A0 JUMPI DUP2 SWAP1 POP JUMPDEST PUSH2 0x21B4 PUSH2 0x21AC DUP6 PUSH2 0x2071 JUMP JUMPDEST DUP4 ADD DUP3 PUSH2 0x2154 JUMP JUMPDEST POP POP JUMPDEST POP POP POP JUMP JUMPDEST PUSH0 DUP3 DUP3 SHR SWAP1 POP SWAP3 SWAP2 POP POP JUMP JUMPDEST PUSH0 PUSH2 0x21D7 PUSH0 NOT DUP5 PUSH1 0x8 MUL PUSH2 0x21BC JUMP JUMPDEST NOT DUP1 DUP4 AND SWAP2 POP POP SWAP3 SWAP2 POP POP JUMP JUMPDEST PUSH0 PUSH2 0x21EF DUP4 DUP4 PUSH2 0x21C8 JUMP JUMPDEST SWAP2 POP DUP3 PUSH1 0x2 MUL DUP3 OR SWAP1 POP SWAP3 SWAP2 POP POP JUMP JUMPDEST PUSH2 0x2209 DUP4 DUP4 PUSH2 0x1FCB JUMP JUMPDEST PUSH8 0xFFFFFFFFFFFFFFFF DUP2 GT ISZERO PUSH2 0x2222 JUMPI PUSH2 0x2221 PUSH2 0x1FD5 JUMP JUMPDEST JUMPDEST PUSH2 0x222C DUP3 SLOAD PUSH2 0x202F JUMP JUMPDEST PUSH2 0x2237 DUP3 DUP3 DUP6 PUSH2 0x2176 JUMP JUMPDEST PUSH0 PUSH1 0x1F DUP4 GT PUSH1 0x1 DUP2 EQ PUSH2 0x2264 JUMPI PUSH0 DUP5 ISZERO PUSH2 0x2252 JUMPI DUP3 DUP8 ADD CALLDATALOAD SWAP1 POP JUMPDEST PUSH2 0x225C DUP6 DUP3 PUSH2 0x21E4 JUMP JUMPDEST DUP7 SSTORE POP PUSH2 0x22C3 JUMP JUMPDEST PUSH1 0x1F NOT DUP5 AND PUSH2 0x2272 DUP7 PUSH2 0x205F JUMP JUMPDEST PUSH0 JUMPDEST DUP3 DUP2 LT ISZERO PUSH2 0x2299 JUMPI DUP5 DUP10 ADD CALLDATALOAD DUP3 SSTORE PUSH1 0x1 DUP3 ADD SWAP2 POP PUSH1 0x20 DUP6 ADD SWAP5 POP PUSH1 0x20 DUP2 ADD SWAP1 POP PUSH2 0x2274 JUMP JUMPDEST DUP7 DUP4 LT ISZERO PUSH2 0x22B6 JUMPI DUP5 DUP10 ADD CALLDATALOAD PUSH2 0x22B2 PUSH1 0x1F DUP10 AND DUP3 PUSH2 0x21C8 JUMP JUMPDEST DUP4 SSTORE POP JUMPDEST PUSH1 0x1 PUSH1 0x2 DUP9 MUL ADD DUP9 SSTORE POP POP POP JUMPDEST POP POP POP POP POP POP POP JUMP JUMPDEST DUP3 DUP2 DUP4 CALLDATACOPY PUSH0 DUP4 DUP4 ADD MSTORE POP POP POP JUMP JUMPDEST PUSH0 PUSH2 0x22E5 DUP4 DUP6 PUSH2 0x1D7C JUMP JUMPDEST SWAP4 POP PUSH2 0x22F2 DUP4 DUP6 DUP5 PUSH2 0x22CC JUMP JUMPDEST PUSH2 0x22FB DUP4 PUSH2 0x1C43 JUMP JUMPDEST DUP5 ADD SWAP1 POP SWAP4 SWAP3 POP POP POP JUMP JUMPDEST PUSH2 0x230F DUP2 PUSH2 0x179A JUMP JUMPDEST DUP3 MSTORE POP POP JUMP JUMPDEST PUSH0 PUSH1 0x40 DUP3 ADD SWAP1 POP DUP2 DUP2 SUB PUSH0 DUP4 ADD MSTORE PUSH2 0x232E DUP2 DUP6 DUP8 PUSH2 0x22DA JUMP JUMPDEST SWAP1 POP PUSH2 0x233D PUSH1 0x20 DUP4 ADD DUP5 PUSH2 0x2306 JUMP JUMPDEST SWAP5 SWAP4 POP POP POP POP JUMP JUMPDEST PUSH0 PUSH1 0x40 DUP3 ADD SWAP1 POP PUSH2 0x2358 PUSH0 DUP4 ADD DUP6 PUSH2 0x1A86 JUMP JUMPDEST PUSH2 0x2365 PUSH1 0x20 DUP4 ADD DUP5 PUSH2 0x2306 JUMP JUMPDEST SWAP4 SWAP3 POP POP POP JUMP JUMPDEST PUSH32 0x526F6C654163636573733A2063616C6C657220646F6573206E6F742068617665 PUSH0 DUP3 ADD MSTORE PUSH32 0x207468697320726F6C6500000000000000000000000000000000000000000000 PUSH1 0x20 DUP3 ADD MSTORE POP JUMP JUMPDEST PUSH0 PUSH2 0x23C6 PUSH1 0x2A DUP4 PUSH2 0x1D7C JUMP JUMPDEST SWAP2 POP PUSH2 0x23D1 DUP3 PUSH2 0x236C JUMP JUMPDEST PUSH1 0x40 DUP3 ADD SWAP1 POP SWAP2 SWAP1 POP JUMP JUMPDEST PUSH0 PUSH1 0x20 DUP3 ADD SWAP1 POP DUP2 DUP2 SUB PUSH0 DUP4 ADD MSTORE PUSH2 0x23F3 DUP2 PUSH2 0x23BA JUMP JUMPDEST SWAP1 POP SWAP2 SWAP1 POP JUMP JUMPDEST PUSH32 0x536368656D65436F6E6669673A206E616D652063616E6E6F7420626520656D70 PUSH0 DUP3 ADD MSTORE PUSH32 0x7479000000000000000000000000000000000000000000000000000000000000 PUSH1 0x20 DUP3 ADD MSTORE POP JUMP JUMPDEST PUSH0 PUSH2 0x2454 PUSH1 0x22 DUP4 PUSH2 0x1D7C JUMP JUMPDEST SWAP2 POP PUSH2 0x245F DUP3 PUSH2 0x23FA JUMP JUMPDEST PUSH1 0x40 DUP3 ADD SWAP1 POP SWAP2 SWAP1 POP JUMP JUMPDEST PUSH0 PUSH1 0x20 DUP3 ADD SWAP1 POP DUP2 DUP2 SUB PUSH0 DUP4 ADD MSTORE PUSH2 0x2481 DUP2 PUSH2 0x2448 JUMP JUMPDEST SWAP1 POP SWAP2 SWAP1 POP JUMP JUMPDEST PUSH32 0x536368656D65436F6E6669673A20616D6F756E74206D757374206265203E2030 PUSH0 DUP3 ADD MSTORE POP JUMP JUMPDEST PUSH0 PUSH2 0x24BC PUSH1 0x20 DUP4 PUSH2 0x1D7C JUMP JUMPDEST SWAP2 POP PUSH2 0x24C7 DUP3 PUSH2 0x2488 JUMP JUMPDEST PUSH1 0x20 DUP3 ADD SWAP1 POP SWAP2 SWAP1 POP JUMP JUMPDEST PUSH0 PUSH1 0x20 DUP3 ADD SWAP1 POP DUP2 DUP2 SUB PUSH0 DUP4 ADD MSTORE PUSH2 0x24E9 DUP2 PUSH2 0x24B0 JUMP JUMPDEST SWAP1 POP SWAP2 SWAP1 POP JUMP JUMPDEST PUSH32 0x536368656D65436F6E6669673A206D696E416765206D757374206265203C206D PUSH0 DUP3 ADD MSTORE PUSH32 0x6178416765000000000000000000000000000000000000000000000000000000 PUSH1 0x20 DUP3 ADD MSTORE POP JUMP JUMPDEST PUSH0 PUSH2 0x254A PUSH1 0x25 DUP4 PUSH2 0x1D7C JUMP JUMPDEST SWAP2 POP PUSH2 0x2555 DUP3 PUSH2 0x24F0 JUMP JUMPDEST PUSH1 0x40 DUP3 ADD SWAP1 POP SWAP2 SWAP1 POP JUMP JUMPDEST PUSH0 PUSH1 0x20 DUP3 ADD SWAP1 POP DUP2 DUP2 SUB PUSH0 DUP4 ADD MSTORE PUSH2 0x2577 DUP2 PUSH2 0x253E JUMP JUMPDEST SWAP1 POP SWAP2 SWAP1 POP JUMP JUMPDEST PUSH0 PUSH1 0x60 DUP3 ADD SWAP1 POP DUP2 DUP2 SUB PUSH0 DUP4 ADD MSTORE PUSH2 0x2597 DUP2 DUP7 DUP9 PUSH2 0x22DA JUMP JUMPDEST SWAP1 POP PUSH2 0x25A6 PUSH1 0x20 DUP4 ADD DUP6 PUSH2 0x18D4 JUMP JUMPDEST PUSH2 0x25B3 PUSH1 0x40 DUP4 ADD DUP5 PUSH2 0x2306 JUMP JUMPDEST SWAP6 SWAP5 POP POP POP POP POP JUMP JUMPDEST PUSH32 0x526F6C654163636573733A206163636F756E7420646F6573206E6F7420686176 PUSH0 DUP3 ADD MSTORE PUSH32 0x65207468697320726F6C65000000000000000000000000000000000000000000 PUSH1 0x20 DUP3 ADD MSTORE POP JUMP JUMPDEST PUSH0 PUSH2 0x2616 PUSH1 0x2B DUP4 PUSH2 0x1D7C JUMP JUMPDEST SWAP2 POP PUSH2 0x2621 DUP3 PUSH2 0x25BC JUMP JUMPDEST PUSH1 0x40 DUP3 ADD SWAP1 POP SWAP2 SWAP1 POP JUMP JUMPDEST PUSH0 PUSH1 0x20 DUP3 ADD SWAP1 POP DUP2 DUP2 SUB PUSH0 DUP4 ADD MSTORE PUSH2 0x2643 DUP2 PUSH2 0x260A JUMP JUMPDEST SWAP1 POP SWAP2 SWAP1 POP JUMP JUMPDEST PUSH32 0x4E487B7100000000000000000000000000000000000000000000000000000000 PUSH0 MSTORE PUSH1 0x11 PUSH1 0x4 MSTORE PUSH1 0x24 PUSH0 REVERT JUMPDEST PUSH0 PUSH2 0x2681 DUP3 PUSH2 0x18CB JUMP JUMPDEST SWAP2 POP PUSH32 0xFFFFFFFFFFFFFFFFFFFFFFFFFFFFFFFFFFFFFFFFFFFFFFFFFFFFFFFFFFFFFFFF DUP3 SUB PUSH2 0x26B3 JUMPI PUSH2 0x26B2 PUSH2 0x264A JUMP JUMPDEST JUMPDEST PUSH1 0x1 DUP3 ADD SWAP1 POP SWAP2 SWAP1 POP JUMP JUMPDEST PUSH2 0x26C7 DUP3 PUSH2 0x1C1B JUMP JUMPDEST PUSH8 0xFFFFFFFFFFFFFFFF DUP2 GT ISZERO PUSH2 0x26E0 JUMPI PUSH2 0x26DF PUSH2 0x1FD5 JUMP JUMPDEST JUMPDEST PUSH2 0x26EA DUP3 SLOAD PUSH2 0x202F JUMP JUMPDEST PUSH2 0x26F5 DUP3 DUP3 DUP6 PUSH2 0x2176 JUMP JUMPDEST PUSH0 PUSH1 0x20 SWAP1 POP PUSH1 0x1F DUP4 GT PUSH1 0x1 DUP2 EQ PUSH2 0x2726 JUMPI PUSH0 DUP5 ISZERO PUSH2 0x2714 JUMPI DUP3 DUP8 ADD MLOAD SWAP1 POP JUMPDEST PUSH2 0x271E DUP6 DUP3 PUSH2 0x21E4 JUMP JUMPDEST DUP7 SSTORE POP PUSH2 0x2785 JUMP JUMPDEST PUSH1 0x1F NOT DUP5 AND PUSH2 0x2734 DUP7 PUSH2 0x205F JUMP JUMPDEST PUSH0 JUMPDEST DUP3 DUP2 LT ISZERO PUSH2 0x275B JUMPI DUP5 DUP10 ADD MLOAD DUP3 SSTORE PUSH1 0x1 DUP3 ADD SWAP2 POP PUSH1 0x20 DUP6 ADD SWAP5 POP PUSH1 0x20 DUP2 ADD SWAP1 POP PUSH2 0x2736 JUMP JUMPDEST DUP7 DUP4 LT ISZERO PUSH2 0x2778 JUMPI DUP5 DUP10 ADD MLOAD PUSH2 0x2774 PUSH1 0x1F DUP10 AND DUP3 PUSH2 0x21C8 JUMP JUMPDEST DUP4 SSTORE POP JUMPDEST PUSH1 0x1 PUSH1 0x2 DUP9 MUL ADD DUP9 SSTORE POP POP POP JUMPDEST POP POP POP POP POP POP JUMP INVALID LOG2 PUSH5 0x6970667358 0x22 SLT KECCAK256 SWAP1 PUSH21 0x1DE9FA48BA070340F4DFB11FE20C2A9705B4F6C82E PUSH17 0xBF2C1F8ED7FE194564736F6C634300081F STOP CALLER BLOBHASH SELFBALANCE 0x4E JUMPI POP MSTORE8 KECCAK256 0x2D KECCAK256 BLOBHASH PUSH15 0x646972612047616E646869204E6174 PUSH10 0x6F6E616C205769646F77 KECCAK256 POP PUSH6 0x6E73696F6E20 MSTORE8 PUSH4 0x68656D65 "
				},
				"gasEstimates": {
					"creation": {
						"codeDepositCost": "2035800",
						"executionCost": "infinite",
						"totalCost": "infinite"
					},
					"external": {
						"APPROVER_ROLE()": "415",
						"AUDITOR_ROLE()": "436",
						"DEFAULT_ADMIN_ROLE()": "347",
						"LOGGER_ROLE()": "348",
						"REGISTRY_ROLE()": "437",
						"REVIEWER_ROLE()": "393",
						"TREASURY_ROLE()": "391",
						"addScheme(string,uint256,uint256,uint256,uint256)": "infinite",
						"getAllSchemeIds()": "infinite",
						"getMonthlyAmount(uint256)": "infinite",
						"getScheme(uint256)": "infinite",
						"grantMultipleRoles(bytes32[],address)": "infinite",
						"grantRole(bytes32,address)": "31682",
						"hasRole(bytes32,address)": "3182",
						"isSchemeActive(uint256)": "2948",
						"renounceRole(bytes32)": "29108",
						"revokeRole(bytes32,address)": "31686",
						"schemeIds(uint256)": "infinite",
						"toggleScheme(uint256)": "57943",
						"totalSchemes()": "2463",
						"updateScheme(uint256,string,uint256,uint256,uint256,uint256)": "infinite"
					},
					"internal": {
						"_addScheme(string memory,uint256,uint256,uint256,uint256)": "infinite"
					}
				},
				"methodIdentifiers": {
					"APPROVER_ROLE()": "4245962b",
					"AUDITOR_ROLE()": "6e1d616e",
					"DEFAULT_ADMIN_ROLE()": "a217fddf",
					"LOGGER_ROLE()": "7bf0fbde",
					"REGISTRY_ROLE()": "42f1e879",
					"REVIEWER_ROLE()": "3b129a56",
					"TREASURY_ROLE()": "d11a57ec",
					"addScheme(string,uint256,uint256,uint256,uint256)": "cc9479d0",
					"getAllSchemeIds()": "9d400f10",
					"getMonthlyAmount(uint256)": "6e07a438",
					"getScheme(uint256)": "e35bb0fc",
					"grantMultipleRoles(bytes32[],address)": "18989def",
					"grantRole(bytes32,address)": "2f2ff15d",
					"hasRole(bytes32,address)": "91d14854",
					"isSchemeActive(uint256)": "f522c60a",
					"renounceRole(bytes32)": "8bb9c5bf",
					"revokeRole(bytes32,address)": "d547741f",
					"schemeIds(uint256)": "a12932d1",
					"toggleScheme(uint256)": "6d19f9ae",
					"totalSchemes()": "64fed6b8",
					"updateScheme(uint256,string,uint256,uint256,uint256,uint256)": "66f271da"
				}
			},
			"storageLayout": {
				"storage": [
					{
						"astId": 42,
						"contract": "SchemeConfig.sol:SchemeConfig",
						"label": "_roles",
						"offset": 0,
						"slot": "0",
						"type": "t_mapping(t_bytes32,t_mapping(t_address,t_bool))"
					},
					{
						"astId": 325,
						"contract": "SchemeConfig.sol:SchemeConfig",
						"label": "schemes",
						"offset": 0,
						"slot": "1",
						"type": "t_mapping(t_uint256,t_struct(Scheme)320_storage)"
					},
					{
						"astId": 328,
						"contract": "SchemeConfig.sol:SchemeConfig",
						"label": "schemeIds",
						"offset": 0,
						"slot": "2",
						"type": "t_array(t_uint256)dyn_storage"
					},
					{
						"astId": 331,
						"contract": "SchemeConfig.sol:SchemeConfig",
						"label": "nextSchemeId",
						"offset": 0,
						"slot": "3",
						"type": "t_uint256"
					}
				],
				"types": {
					"t_address": {
						"encoding": "inplace",
						"label": "address",
						"numberOfBytes": "20"
					},
					"t_array(t_uint256)dyn_storage": {
						"base": "t_uint256",
						"encoding": "dynamic_array",
						"label": "uint256[]",
						"numberOfBytes": "32"
					},
					"t_bool": {
						"encoding": "inplace",
						"label": "bool",
						"numberOfBytes": "1"
					},
					"t_bytes32": {
						"encoding": "inplace",
						"label": "bytes32",
						"numberOfBytes": "32"
					},
					"t_mapping(t_address,t_bool)": {
						"encoding": "mapping",
						"key": "t_address",
						"label": "mapping(address => bool)",
						"numberOfBytes": "32",
						"value": "t_bool"
					},
					"t_mapping(t_bytes32,t_mapping(t_address,t_bool))": {
						"encoding": "mapping",
						"key": "t_bytes32",
						"label": "mapping(bytes32 => mapping(address => bool))",
						"numberOfBytes": "32",
						"value": "t_mapping(t_address,t_bool)"
					},
					"t_mapping(t_uint256,t_struct(Scheme)320_storage)": {
						"encoding": "mapping",
						"key": "t_uint256",
						"label": "mapping(uint256 => struct SchemeConfig.Scheme)",
						"numberOfBytes": "32",
						"value": "t_struct(Scheme)320_storage"
					},
					"t_string_storage": {
						"encoding": "bytes",
						"label": "string",
						"numberOfBytes": "32"
					},
					"t_struct(Scheme)320_storage": {
						"encoding": "inplace",
						"label": "struct SchemeConfig.Scheme",
						"members": [
							{
								"astId": 303,
								"contract": "SchemeConfig.sol:SchemeConfig",
								"label": "schemeId",
								"offset": 0,
								"slot": "0",
								"type": "t_uint256"
							},
							{
								"astId": 305,
								"contract": "SchemeConfig.sol:SchemeConfig",
								"label": "name",
								"offset": 0,
								"slot": "1",
								"type": "t_string_storage"
							},
							{
								"astId": 307,
								"contract": "SchemeConfig.sol:SchemeConfig",
								"label": "monthlyAmount",
								"offset": 0,
								"slot": "2",
								"type": "t_uint256"
							},
							{
								"astId": 309,
								"contract": "SchemeConfig.sol:SchemeConfig",
								"label": "minAgeLimit",
								"offset": 0,
								"slot": "3",
								"type": "t_uint256"
							},
							{
								"astId": 311,
								"contract": "SchemeConfig.sol:SchemeConfig",
								"label": "maxAgeLimit",
								"offset": 0,
								"slot": "4",
								"type": "t_uint256"
							},
							{
								"astId": 313,
								"contract": "SchemeConfig.sol:SchemeConfig",
								"label": "maxProcessingDays",
								"offset": 0,
								"slot": "5",
								"type": "t_uint256"
							},
							{
								"astId": 315,
								"contract": "SchemeConfig.sol:SchemeConfig",
								"label": "active",
								"offset": 0,
								"slot": "6",
								"type": "t_bool"
							},
							{
								"astId": 317,
								"contract": "SchemeConfig.sol:SchemeConfig",
								"label": "createdAt",
								"offset": 0,
								"slot": "7",
								"type": "t_uint256"
							},
							{
								"astId": 319,
								"contract": "SchemeConfig.sol:SchemeConfig",
								"label": "updatedAt",
								"offset": 0,
								"slot": "8",
								"type": "t_uint256"
							}
						],
						"numberOfBytes": "288"
					},
					"t_uint256": {
						"encoding": "inplace",
						"label": "uint256",
						"numberOfBytes": "32"
					}
				}
			},
			"userdoc": {
				"kind": "user",
				"methods": {
					"addScheme(string,uint256,uint256,uint256,uint256)": {
						"notice": "Add a new pension scheme (admin only)"
					},
					"getAllSchemeIds()": {
						"notice": "Get all registered scheme IDs"
					},
					"getMonthlyAmount(uint256)": {
						"notice": "Get monthly pension amount for a scheme"
					},
					"getScheme(uint256)": {
						"notice": "Get full scheme details"
					},
					"grantMultipleRoles(bytes32[],address)": {
						"notice": "Convenience: grant multiple roles to one account (admin only)"
					},
					"grantRole(bytes32,address)": {
						"notice": "Grant a role to an account (admin only)"
					},
					"hasRole(bytes32,address)": {
						"notice": "Check if an account has a specific role"
					},
					"isSchemeActive(uint256)": {
						"notice": "Check if a scheme exists and is active"
					},
					"renounceRole(bytes32)": {
						"notice": "An account can voluntarily renounce their own role"
					},
					"revokeRole(bytes32,address)": {
						"notice": "Revoke a role from an account (admin only)"
					},
					"toggleScheme(uint256)": {
						"notice": "Toggle scheme active/inactive (admin only)"
					},
					"totalSchemes()": {
						"notice": "Get total number of schemes"
					},
					"updateScheme(uint256,string,uint256,uint256,uint256,uint256)": {
						"notice": "Update scheme parameters (admin only)"
					}
				},
				"version": 1
			}
		}
	}
}