{
	"AuditLog.sol": {
		"AuditLog": {
			"abi": [
				{
					"anonymous": false,
					"inputs": [
						{
							"indexed": true,
							"internalType": "uint256",
							"name": "applicationId",
							"type": "uint256"
						},
						{
							"indexed": true,
							"internalType": "address",
							"name": "actor",
							"type": "address"
						},
						{
							"indexed": false,
							"internalType": "enum AuditLog.ActionType",
							"name": "action",
							"type": "uint8"
						},
						{
							"indexed": false,
							"internalType": "string",
							"name": "details",
							"type": "string"
						},
						{
							"indexed": false,
							"internalType": "uint256",
							"name": "timestamp",
							"type": "uint256"
						},
						{
							"indexed": false,
							"internalType": "uint256",
							"name": "blockNumber",
							"type": "uint256"
						}
					],
					"name": "AuditEventLogged",
					"type": "event"
				},
				{
					"anonymous": false,
					"inputs": [
						{
							"indexed": true,
							"internalType": "bytes32",
							"name": "role",
							"type": "bytes32"
						},
						{
							"indexed": true,
							"internalType": "address",
							"name": "account",
							"type": "address"
						},
						{
							"indexed": true,
							"internalType": "address",
							"name": "sender",
							"type": "address"
						}
					],
					"name": "RoleGranted",
					"type": "event"
				},
				{
					"anonymous": false,
					"inputs": [
						{
							"indexed": true,
							"internalType": "bytes32",
							"name": "role",
							"type": "bytes32"
						},
						{
							"indexed": true,
							"internalType": "address",
							"name": "account",
							"type": "address"
						},
						{
							"indexed": true,
							"internalType": "address",
							"name": "sender",
							"type": "address"
						}
					],
					"name": "RoleRevoked",
					"type": "event"
				},
				{
					"inputs": [],
					"name": "APPROVER_ROLE",
					"outputs": [
						{
							"internalType": "bytes32",
							"name": "",
							"type": "bytes32"
						}
					],
					"stateMutability": "view",
					"type": "function"
				},
				{
					"inputs": [],
					"name": "AUDITOR_ROLE",
					"outputs": [
						{
							"internalType": "bytes32",
							"name": "",
							"type": "bytes32"
						}
					],
					"stateMutability": "view",
					"type": "function"
				},
				{
					"inputs": [],
					"name": "DEFAULT_ADMIN_ROLE",
					"outputs": [
						{
							"internalType": "bytes32",
							"name": "",
							"type": "bytes32"
						}
					],
					"stateMutability": "view",
					"type": "function"
				},
				{
					"inputs": [],
					"name": "LOGGER_ROLE",
					"outputs": [
						{
							"internalType": "bytes32",
							"name": "",
							"type": "bytes32"
						}
					],
					"stateMutability": "view",
					"type": "function"
				},
				{
					"inputs": [],
					"name": "REGISTRY_ROLE",
					"outputs": [
						{
							"internalType": "bytes32",
							"name": "",
							"type": "bytes32"
						}
					],
					"stateMutability": "view",
					"type": "function"
				},
				{
					"inputs": [],
					"name": "REVIEWER_ROLE",
					"outputs": [
						{
							"internalType": "bytes32",
							"name": "",
							"type": "bytes32"
						}
					],
					"stateMutability": "view",
					"type": "function"
				},
				{
					"inputs": [],
					"name": "TREASURY_ROLE",
					"outputs": [
						{
							"internalType": "bytes32",
							"name": "",
							"type": "bytes32"
						}
					],
					"stateMutability": "view",
					"type": "function"
				},
				{
					"inputs": [
						{
							"internalType": "uint256",
							"name": "applicationId",
							"type": "uint256"
						}
					],
					"name": "getAuditTrail",
					"outputs": [
						{
							"components": [
								{
									"internalType": "uint256",
									"name": "applicationId",
									"type": "uint256"
								},
								{
									"internalType": "address",
									"name": "actor",
									"type": "address"
								},
								{
									"internalType": "enum AuditLog.ActionType",
									"name": "action",
									"type": "uint8"
								},
								{
									"internalType": "string",
									"name": "details",
									"type": "string"
								},
								{
									"internalType": "uint256",
									"name": "timestamp",
									"type": "uint256"
								},
								{
									"internalType": "uint256",
									"name": "blockNumber",
									"type": "uint256"
								}
							],
							"internalType": "struct AuditLog.AuditEntry[]",
							"name": "",
							"type": "tuple[]"
						}
					],
					"stateMutability": "view",
					"type": "function"
				},
				{
					"inputs": [
						{
							"internalType": "uint256",
							"name": "applicationId",
							"type": "uint256"
						},
						{
							"internalType": "uint256",
							"name": "entryIndex",
							"type": "uint256"
						}
					],
					"name": "getEntry",
					"outputs": [
						{
							"components": [
								{
									"internalType": "uint256",
									"name": "applicationId",
									"type": "uint256"
								},
								{
									"internalType": "address",
									"name": "actor",
									"type": "address"
								},
								{
									"internalType": "enum AuditLog.ActionType",
									"name": "action",
									"type": "uint8"
								},
								{
									"internalType": "string",
									"name": "details",
									"type": "string"
								},
								{
									"internalType": "uint256",
									"name": "timestamp",
									"type": "uint256"
								},
								{
									"internalType": "uint256",
									"name": "blockNumber",
									"type": "uint256"
								}
							],
							"internalType": "struct AuditLog.AuditEntry",
							"name": "",
							"type": "tuple"
						}
					],
					"stateMutability": "view",
					"type": "function"
				},
				{
					"inputs": [
						{
							"internalType": "uint256",
							"name": "applicationId",
							"type": "uint256"
						}
					],
					"name": "getEntryCount",
					"outputs": [
						{
							"internalType": "uint256",
							"name": "",
							"type": "uint256"
						}
					],
					"stateMutability": "view",
					"type": "function"
				},
				{
					"inputs": [
						{
							"internalType": "uint256",
							"name": "from",
							"type": "uint256"
						},
						{
							"internalType": "uint256",
							"name": "count",
							"type": "uint256"
						}
					],
					"name": "getGlobalLog",
					"outputs": [
						{
							"components": [
								{
									"internalType": "uint256",
									"name": "applicationId",
									"type": "uint256"
								},
								{
									"internalType": "address",
									"name": "actor",
									"type": "address"
								},
								{
									"internalType": "enum AuditLog.ActionType",
									"name": "action",
									"type": "uint8"
								},
								{
									"internalType": "string",
									"name": "details",
									"type": "string"
								},
								{
									"internalType": "uint256",
									"name": "timestamp",
									"type": "uint256"
								},
								{
									"internalType": "uint256",
									"name": "blockNumber",
									"type": "uint256"
								}
							],
							"internalType": "struct AuditLog.AuditEntry[]",
							"name": "result",
							"type": "tuple[]"
						}
					],
					"stateMutability": "view",
					"type": "function"
				},
				{
					"inputs": [],
					"name": "globalLogCount",
					"outputs": [
						{
							"internalType": "uint256",
							"name": "",
							"type": "uint256"
						}
					],
					"stateMutability": "view",
					"type": "function"
				},
				{
					"inputs": [
						{
							"internalType": "bytes32[]",
							"name": "roles",
							"type": "bytes32[]"
						},
						{
							"internalType": "address",
							"name": "account",
							"type": "address"
						}
					],
					"name": "grantMultipleRoles",
					"outputs": [],
					"stateMutability": "nonpayable",
					"type": "function"
				},
				{
					"inputs": [
						{
							"internalType": "bytes32",
							"name": "role",
							"type": "bytes32"
						},
						{
							"internalType": "address",
							"name": "account",
							"type": "address"
						}
					],
					"name": "grantRole",
					"outputs": [],
					"stateMutability": "nonpayable",
					"type": "function"
				},
				{
					"inputs": [
						{
							"internalType": "bytes32",
							"name": "role",
							"type": "bytes32"
						},
						{
							"internalType": "address",
							"name": "account",
							"type": "address"
						}
					],
					"name": "hasRole",
					"outputs": [
						{
							"internalType": "bool",
							"name": "",
							"type": "bool"
						}
					],
					"stateMutability": "view",
					"type": "function"
				},
				{
					"inputs": [
						{
							"internalType": "uint256",
							"name": "applicationId",
							"type": "uint256"
						},
						{
							"internalType": "address",
							"name": "actor",
							"type": "address"
						},
						{
							"internalType": "enum AuditLog.ActionType",
							"name": "action",
							"type": "uint8"
						},
						{
							"internalType": "string",
							"name": "details",
							"type": "string"
						}
					],
					"name": "logEvent",
					"outputs": [],
					"stateMutability": "nonpayable",
					"type": "function"
				},
				{
					"inputs": [
						{
							"internalType": "bytes32",
							"name": "role",
							"type": "bytes32"
						}
					],
					"name": "renounceRole",
					"outputs": [],
					"stateMutability": "nonpayable",
					"type": "function"
				},
				{
					"inputs": [
						{
							"internalType": "bytes32",
							"name": "role",
							"type": "bytes32"
						},
						{
							"internalType": "address",
							"name": "account",
							"type": "address"
						}
					],
					"name": "revokeRole",
					"outputs": [],
					"stateMutability": "nonpayable",
					"type": "function"
				},
				{
					"inputs": [
						{
							"internalType": "uint256",
							"name": "applicationId",
							"type": "uint256"
						},
						{
							"internalType": "uint256",
							"name": "entryIndex",
							"type": "uint256"
						},
						{
							"internalType": "address",
							"name": "expectedActor",
							"type": "address"
						},
						{
							"internalType": "enum AuditLog.ActionType",
							"name": "expectedAction",
							"type": "uint8"
						}
					],
					"name": "verifyEntry",
					"outputs": [
						{
							"internalType": "bool",
							"name": "isValid",
							"type": "bool"
						}
					],
					"stateMutability": "view",
					"type": "function"
				}
			],
			"devdoc": {
				"kind": "dev",
				"methods": {
					"logEvent(uint256,address,uint8,string)": {
						"params": {
							"action": "The action type enum value",
							"actor": "The wallet address of the actor",
							"applicationId": "The application this event belongs to",
							"details": "Human-readable description or rejection reason"
						}
					},
					"verifyEntry(uint256,uint256,address,uint8)": {
						"details": "Useful for citizens verifying a specific decision"
					}
				},
				"version": 1
			},
			"evm": {
				"assembly": "    /* \"AuditLog.sol\":456:6122  contract AuditLog is RoleAccess {... */\n  mstore(0x40, 0x80)\n  callvalue\n  dup1\n  iszero\n  tag_1\n  jumpi\n  revert(0x00, 0x00)\ntag_1:\n  pop\n    /* \"RoleAccess.sol\":2003:2007  true */\n  0x01\n    /* \"RoleAccess.sol\":1962:1968  _roles */\n  0x00\n    /* \"RoleAccess.sol\":1962:1988  _roles[DEFAULT_ADMIN_ROLE] */\n  0x00\n    /* \"RoleAccess.sol\":610:641  keccak256(\"DEFAULT_ADMIN_ROLE\") */\n  0x1effbbff9c66c5e59634f24fe842750c60d18891155c32dd155fc2d661a4c86d\n    /* \"RoleAccess.sol\":1962:1988  _roles[DEFAULT_ADMIN_ROLE] */\n  dup2\n  mstore\n  0x20\n  add\n  swap1\n  dup2\n  mstore\n  0x20\n  add\n  0x00\n  keccak256\n    /* \"RoleAccess.sol\":1962:2000  _roles[DEFAULT_ADMIN_ROLE][msg.sender] */\n  0x00\n    /* \"RoleAccess.sol\":1989:1999  msg.sender */\n  caller\n    /* \"RoleAccess.sol\":1962:2000  _roles[DEFAULT_ADMIN_ROLE][msg.sender] */\n  0xffffffffffffffffffffffffffffffffffffffff\n  and\n  0xffffffffffffffffffffffffffffffffffffffff\n  and\n  dup2\n  mstore\n  0x20\n  add\n  swap1\n  dup2\n  mstore\n  0x20\n  add\n  0x00\n  keccak256\n  0x00\n    /* \"RoleAccess.sol\":1962:2007  _roles[DEFAULT_ADMIN_ROLE][msg.sender] = true */\n  0x0100\n  exp\n  dup2\n  sload\n  dup2\n  0xff\n  mul\n  not\n  and\n  swap1\n  dup4\n  iszero\n  iszero\n  mul\n  or\n  swap1\n  sstore\n  pop\n    /* \"RoleAccess.sol\":2066:2076  msg.sender */\n  caller\n    /* \"RoleAccess.sol\":2022:2077  RoleGranted(DEFAULT_ADMIN_ROLE, msg.sender, msg.sender) */\n  0xffffffffffffffffffffffffffffffffffffffff\n  and\n    /* \"RoleAccess.sol\":2054:2064  msg.sender */\n  caller\n    /* \"RoleAccess.sol\":2022:2077  RoleGranted(DEFAULT_ADMIN_ROLE, msg.sender, msg.sender) */\n  0xffffffffffffffffffffffffffffffffffffffff\n  and\n    /* \"RoleAccess.sol\":610:641  keccak256(\"DEFAULT_ADMIN_ROLE\") */\n  0x1effbbff9c66c5e59634f24fe842750c60d18891155c32dd155fc2d661a4c86d\n    /* \"RoleAccess.sol\":2022:2077  RoleGranted(DEFAULT_ADMIN_ROLE, msg.sender, msg.sender) */\n  0x2f8788117e7eff1d82e926ec794901d17c78024a50270940304540a733656f0d\n  mload(0x40)\n  mload(0x40)\n  dup1\n  swap2\n  sub\n  swap1\n  log4\n    /* \"AuditLog.sol\":456:6122  contract AuditLog is RoleAccess {... */\n  dataSize(sub_0)\n  dup1\n  dataOffset(sub_0)\n  0x00\n  codecopy\n  0x00\n  return\nstop\n\nsub_0: assembly {\n        /* \"AuditLog.sol\":456:6122  contract AuditLog is RoleAccess {... */\n      mstore(0x40, 0x80)\n      callvalue\n      dup1\n      iszero\n      tag_1\n      jumpi\n      revert(0x00, 0x00)\n    tag_1:\n      pop\n      jumpi(tag_2, lt(calldatasize, 0x04))\n      shr(0xe0, calldataload(0x00))\n      dup1\n      0x8bb9c5bf\n      gt\n      tag_22\n      jumpi\n      dup1\n      0xb7386862\n      gt\n      tag_23\n      jumpi\n      dup1\n      0xb7386862\n      eq\n      tag_17\n      jumpi\n      dup1\n      0xc231fa46\n      eq\n      tag_18\n      jumpi\n      dup1\n      0xd11a57ec\n      eq\n      tag_19\n      jumpi\n      dup1\n      0xd547741f\n      eq\n      tag_20\n      jumpi\n      dup1\n      0xde7eb189\n      eq\n      tag_21\n      jumpi\n      jump(tag_2)\n    tag_23:\n      dup1\n      0x8bb9c5bf\n      eq\n      tag_12\n      jumpi\n      dup1\n      0x8c4d6e0f\n      eq\n      tag_13\n      jumpi\n      dup1\n      0x91d14854\n      eq\n      tag_14\n      jumpi\n      dup1\n      0x98ba676d\n      eq\n      tag_15\n      jumpi\n      dup1\n      0xa217fddf\n      eq\n      tag_16\n      jumpi\n      jump(tag_2)\n    tag_22:\n      dup1\n      0x3b129a56\n      gt\n      tag_24\n      jumpi\n      dup1\n      0x3b129a56\n      eq\n      tag_7\n      jumpi\n      dup1\n      0x4245962b\n      eq\n      tag_8\n      jumpi\n      dup1\n      0x42f1e879\n      eq\n      tag_9\n      jumpi\n      dup1\n      0x6e1d616e\n      eq\n      tag_10\n      jumpi\n      dup1\n      0x7bf0fbde\n      eq\n      tag_11\n      jumpi\n      jump(tag_2)\n    tag_24:\n      dup1\n      0x01eddb4a\n      eq\n      tag_3\n      jumpi\n      dup1\n      0x0c4bc2e4\n      eq\n      tag_4\n      jumpi\n      dup1\n      0x18989def\n      eq\n      tag_5\n      jumpi\n      dup1\n      0x2f2ff15d\n      eq\n      tag_6\n      jumpi\n    tag_2:\n      revert(0x00, 0x00)\n        /* \"AuditLog.sol\":5706:6120  function verifyEntry(... */\n    tag_3:\n      tag_25\n      0x04\n      dup1\n      calldatasize\n      sub\n      dup2\n      add\n      swap1\n      tag_26\n      swap2\n      swap1\n      tag_27\n      jump\t// in\n    tag_26:\n      tag_28\n      jump\t// in\n    tag_25:\n      mload(0x40)\n      tag_29\n      swap2\n      swap1\n      tag_30\n      jump\t// in\n    tag_29:\n      mload(0x40)\n      dup1\n      swap2\n      sub\n      swap1\n      return\n        /* \"AuditLog.sol\":4943:5041  function globalLogCount() external view returns (uint256) {... */\n    tag_4:\n      tag_31\n      tag_32\n      jump\t// in\n    tag_31:\n      mload(0x40)\n      tag_33\n      swap2\n      swap1\n      tag_34\n      jump\t// in\n    tag_33:\n      mload(0x40)\n      dup1\n      swap2\n      sub\n      swap1\n      return\n        /* \"RoleAccess.sol\":3976:4311  function grantMultipleRoles(bytes32[] calldata roles, address account) external onlyAdmin {... */\n    tag_5:\n      tag_35\n      0x04\n      dup1\n      calldatasize\n      sub\n      dup2\n      add\n      swap1\n      tag_36\n      swap2\n      swap1\n      tag_37\n      jump\t// in\n    tag_36:\n      tag_38\n      jump\t// in\n    tag_35:\n      stop\n        /* \"RoleAccess.sol\":2917:3259  function grantRole(bytes32 role, address account) external onlyAdmin {... */\n    tag_6:\n      tag_39\n      0x04\n      dup1\n      calldatasize\n      sub\n      dup2\n      add\n      swap1\n      tag_40\n      swap2\n      swap1\n      tag_41\n      jump\t// in\n    tag_40:\n      tag_42\n      jump\t// in\n    tag_39:\n      stop\n        /* \"RoleAccess.sol\":647:719  bytes32 public constant REVIEWER_ROLE       = keccak256(\"REVIEWER_ROLE\") */\n    tag_7:\n      tag_43\n      tag_44\n      jump\t// in\n    tag_43:\n      mload(0x40)\n      tag_45\n      swap2\n      swap1\n      tag_46\n      jump\t// in\n    tag_45:\n      mload(0x40)\n      dup1\n      swap2\n      sub\n      swap1\n      return\n        /* \"RoleAccess.sol\":725:797  bytes32 public constant APPROVER_ROLE       = keccak256(\"APPROVER_ROLE\") */\n    tag_8:\n      tag_47\n      tag_48\n      jump\t// in\n    tag_47:\n      mload(0x40)\n      tag_49\n      swap2\n      swap1\n      tag_46\n      jump\t// in\n    tag_49:\n      mload(0x40)\n      dup1\n      swap2\n      sub\n      swap1\n      return\n        /* \"RoleAccess.sol\":1034:1106  bytes32 public constant REGISTRY_ROLE       = keccak256(\"REGISTRY_ROLE\") */\n    tag_9:\n      tag_50\n      tag_51\n      jump\t// in\n    tag_50:\n      mload(0x40)\n      tag_52\n      swap2\n      swap1\n      tag_46\n      jump\t// in\n    tag_52:\n      mload(0x40)\n      dup1\n      swap2\n      sub\n      swap1\n      return\n        /* \"RoleAccess.sol\":881:952  bytes32 public constant AUDITOR_ROLE        = keccak256(\"AUDITOR_ROLE\") */\n    tag_10:\n      tag_53\n      tag_54\n      jump\t// in\n    tag_53:\n      mload(0x40)\n      tag_55\n      swap2\n      swap1\n      tag_46\n      jump\t// in\n    tag_55:\n      mload(0x40)\n      dup1\n      swap2\n      sub\n      swap1\n      return\n        /* \"RoleAccess.sol\":958:1028  bytes32 public constant LOGGER_ROLE         = keccak256(\"LOGGER_ROLE\") */\n    tag_11:\n      tag_56\n      tag_57\n      jump\t// in\n    tag_56:\n      mload(0x40)\n      tag_58\n      swap2\n      swap1\n      tag_46\n      jump\t// in\n    tag_58:\n      mload(0x40)\n      dup1\n      swap2\n      sub\n      swap1\n      return\n        /* \"RoleAccess.sol\":3653:3892  function renounceRole(bytes32 role) external {... */\n    tag_12:\n      tag_59\n      0x04\n      dup1\n      calldatasize\n      sub\n      dup2\n      add\n      swap1\n      tag_60\n      swap2\n      swap1\n      tag_61\n      jump\t// in\n    tag_60:\n      tag_62\n      jump\t// in\n    tag_59:\n      stop\n        /* \"AuditLog.sol\":4744:4879  function getEntryCount(uint256 applicationId) external view returns (uint256) {... */\n    tag_13:\n      tag_63\n      0x04\n      dup1\n      calldatasize\n      sub\n      dup2\n      add\n      swap1\n      tag_64\n      swap2\n      swap1\n      tag_65\n      jump\t// in\n    tag_64:\n      tag_66\n      jump\t// in\n    tag_63:\n      mload(0x40)\n      tag_67\n      swap2\n      swap1\n      tag_34\n      jump\t// in\n    tag_67:\n      mload(0x40)\n      dup1\n      swap2\n      sub\n      swap1\n      return\n        /* \"RoleAccess.sol\":2735:2855  function hasRole(bytes32 role, address account) public view returns (bool) {... */\n    tag_14:\n      tag_68\n      0x04\n      dup1\n      calldatasize\n      sub\n      dup2\n      add\n      swap1\n      tag_69\n      swap2\n      swap1\n      tag_41\n      jump\t// in\n    tag_69:\n      tag_70\n      jump\t// in\n    tag_68:\n      mload(0x40)\n      tag_71\n      swap2\n      swap1\n      tag_30\n      jump\t// in\n    tag_71:\n      mload(0x40)\n      dup1\n      swap2\n      sub\n      swap1\n      return\n        /* \"AuditLog.sol\":4354:4669  function getEntry(uint256 applicationId, uint256 entryIndex)... */\n    tag_15:\n      tag_72\n      0x04\n      dup1\n      calldatasize\n      sub\n      dup2\n      add\n      swap1\n      tag_73\n      swap2\n      swap1\n      tag_74\n      jump\t// in\n    tag_73:\n      tag_75\n      jump\t// in\n    tag_72:\n      mload(0x40)\n      tag_76\n      swap2\n      swap1\n      tag_77\n      jump\t// in\n    tag_76:\n      mload(0x40)\n      dup1\n      swap2\n      sub\n      swap1\n      return\n        /* \"RoleAccess.sol\":564:641  bytes32 public constant DEFAULT_ADMIN_ROLE  = keccak256(\"DEFAULT_ADMIN_ROLE\") */\n    tag_16:\n      tag_78\n      tag_79\n      jump\t// in\n    tag_78:\n      mload(0x40)\n      tag_80\n      swap2\n      swap1\n      tag_46\n      jump\t// in\n    tag_80:\n      mload(0x40)\n      dup1\n      swap2\n      sub\n      swap1\n      return\n        /* \"AuditLog.sol\":5119:5565  function getGlobalLog(uint256 from, uint256 count)... */\n    tag_17:\n      tag_81\n      0x04\n      dup1\n      calldatasize\n      sub\n      dup2\n      add\n      swap1\n      tag_82\n      swap2\n      swap1\n      tag_74\n      jump\t// in\n    tag_82:\n      tag_83\n      jump\t// in\n    tag_81:\n      mload(0x40)\n      tag_84\n      swap2\n      swap1\n      tag_85\n      jump\t// in\n    tag_84:\n      mload(0x40)\n      dup1\n      swap2\n      sub\n      swap1\n      return\n        /* \"AuditLog.sol\":4134:4286  function getAuditTrail(uint256 applicationId)... */\n    tag_18:\n      tag_86\n      0x04\n      dup1\n      calldatasize\n      sub\n      dup2\n      add\n      swap1\n      tag_87\n      swap2\n      swap1\n      tag_65\n      jump\t// in\n    tag_87:\n      tag_88\n      jump\t// in\n    tag_86:\n      mload(0x40)\n      tag_89\n      swap2\n      swap1\n      tag_85\n      jump\t// in\n    tag_89:\n      mload(0x40)\n      dup1\n      swap2\n      sub\n      swap1\n      return\n        /* \"RoleAccess.sol\":803:875  bytes32 public constant TREASURY_ROLE       = keccak256(\"TREASURY_ROLE\") */\n    tag_19:\n      tag_90\n      tag_91\n      jump\t// in\n    tag_90:\n      mload(0x40)\n      tag_92\n      swap2\n      swap1\n      tag_46\n      jump\t// in\n    tag_92:\n      mload(0x40)\n      dup1\n      swap2\n      sub\n      swap1\n      return\n        /* \"RoleAccess.sol\":3324:3580  function revokeRole(bytes32 role, address account) external onlyAdmin {... */\n    tag_20:\n      tag_93\n      0x04\n      dup1\n      calldatasize\n      sub\n      dup2\n      add\n      swap1\n      tag_94\n      swap2\n      swap1\n      tag_41\n      jump\t// in\n    tag_94:\n      tag_95\n      jump\t// in\n    tag_93:\n      stop\n        /* \"AuditLog.sol\":3011:3950  function logEvent(... */\n    tag_21:\n      tag_96\n      0x04\n      dup1\n      calldatasize\n      sub\n      dup2\n      add\n      swap1\n      tag_97\n      swap2\n      swap1\n      tag_98\n      jump\t// in\n    tag_97:\n      tag_99\n      jump\t// in\n    tag_96:\n      stop\n        /* \"AuditLog.sol\":5706:6120  function verifyEntry(... */\n    tag_28:\n        /* \"AuditLog.sol\":5881:5893  bool isValid */\n      0x00\n        /* \"AuditLog.sol\":5923:5934  auditTrails */\n      0x01\n        /* \"AuditLog.sol\":5923:5949  auditTrails[applicationId] */\n      0x00\n        /* \"AuditLog.sol\":5935:5948  applicationId */\n      dup7\n        /* \"AuditLog.sol\":5923:5949  auditTrails[applicationId] */\n      dup2\n      mstore\n      0x20\n      add\n      swap1\n      dup2\n      mstore\n      0x20\n      add\n      0x00\n      keccak256\n        /* \"AuditLog.sol\":5923:5956  auditTrails[applicationId].length */\n      dup1\n      sload\n      swap1\n      pop\n        /* \"AuditLog.sol\":5909:5919  entryIndex */\n      dup5\n        /* \"AuditLog.sol\":5909:5956  entryIndex >= auditTrails[applicationId].length */\n      lt\n        /* \"AuditLog.sol\":5905:5970  if (entryIndex >= auditTrails[applicationId].length) return false */\n      tag_101\n      jumpi\n        /* \"AuditLog.sol\":5965:5970  false */\n      0x00\n        /* \"AuditLog.sol\":5958:5970  return false */\n      swap1\n      pop\n      jump(tag_100)\n        /* \"AuditLog.sol\":5905:5970  if (entryIndex >= auditTrails[applicationId].length) return false */\n    tag_101:\n        /* \"AuditLog.sol\":5980:5999  AuditEntry memory e */\n      0x00\n        /* \"AuditLog.sol\":6002:6013  auditTrails */\n      0x01\n        /* \"AuditLog.sol\":6002:6028  auditTrails[applicationId] */\n      0x00\n        /* \"AuditLog.sol\":6014:6027  applicationId */\n      dup8\n        /* \"AuditLog.sol\":6002:6028  auditTrails[applicationId] */\n      dup2\n      mstore\n      0x20\n      add\n      swap1\n      dup2\n      mstore\n      0x20\n      add\n      0x00\n      keccak256\n        /* \"AuditLog.sol\":6029:6039  entryIndex */\n      dup6\n        /* \"AuditLog.sol\":6002:6040  auditTrails[applicationId][entryIndex] */\n      dup2\n      sload\n      dup2\n      lt\n      tag_102\n      jumpi\n      tag_103\n      tag_104\n      jump\t// in\n    tag_103:\n    tag_102:\n      swap1\n      0x00\n      mstore\n      keccak256(0x00, 0x20)\n      swap1\n      0x05\n      mul\n      add\n        /* \"AuditLog.sol\":5980:6040  AuditEntry memory e = auditTrails[applicationId][entryIndex] */\n      mload(0x40)\n      dup1\n      0xc0\n      add\n      0x40\n      mstore\n      swap1\n      dup2\n      0x00\n      dup3\n      add\n      sload\n      dup2\n      mstore\n      0x20\n      add\n      0x01\n      dup3\n      add\n      0x00\n      swap1\n      sload\n      swap1\n      0x0100\n      exp\n      swap1\n      div\n      0xffffffffffffffffffffffffffffffffffffffff\n      and\n      0xffffffffffffffffffffffffffffffffffffffff\n      and\n      0xffffffffffffffffffffffffffffffffffffffff\n      and\n      dup2\n      mstore\n      0x20\n      add\n      0x01\n      dup3\n      add\n      0x14\n      swap1\n      sload\n      swap1\n      0x0100\n      exp\n      swap1\n      div\n      0xff\n      and\n      0x06\n      dup2\n      gt\n      iszero\n      tag_106\n      jumpi\n      tag_107\n      tag_108\n      jump\t// in\n    tag_107:\n    tag_106:\n      0x06\n      dup2\n      gt\n      iszero\n      tag_109\n      jumpi\n      tag_110\n      tag_108\n      jump\t// in\n    tag_110:\n    tag_109:\n      dup2\n      mstore\n      0x20\n      add\n      0x02\n      dup3\n      add\n      dup1\n      sload\n      tag_111\n      swap1\n      tag_112\n      jump\t// in\n    tag_111:\n      dup1\n      0x1f\n      add\n      0x20\n      dup1\n      swap2\n      div\n      mul\n      0x20\n      add\n      mload(0x40)\n      swap1\n      dup2\n      add\n      0x40\n      mstore\n      dup1\n      swap3\n      swap2\n      swap1\n      dup2\n      dup2\n      mstore\n      0x20\n      add\n      dup3\n      dup1\n      sload\n      tag_113\n      swap1\n      tag_112\n      jump\t// in\n    tag_113:\n      dup1\n      iszero\n      tag_114\n      jumpi\n      dup1\n      0x1f\n      lt\n      tag_115\n      jumpi\n      0x0100\n      dup1\n      dup4\n      sload\n      div\n      mul\n      dup4\n      mstore\n      swap2\n      0x20\n      add\n      swap2\n      jump(tag_114)\n    tag_115:\n      dup3\n      add\n      swap2\n      swap1\n      0x00\n      mstore\n      keccak256(0x00, 0x20)\n      swap1\n    tag_116:\n      dup2\n      sload\n      dup2\n      mstore\n      swap1\n      0x01\n      add\n      swap1\n      0x20\n      add\n      dup1\n      dup4\n      gt\n      tag_116\n      jumpi\n      dup3\n      swap1\n      sub\n      0x1f\n      and\n      dup3\n      add\n      swap2\n    tag_114:\n      pop\n      pop\n      pop\n      pop\n      pop\n      dup2\n      mstore\n      0x20\n      add\n      0x03\n      dup3\n      add\n      sload\n      dup2\n      mstore\n      0x20\n      add\n      0x04\n      dup3\n      add\n      sload\n      dup2\n      mstore\n      pop\n      pop\n      swap1\n      pop\n        /* \"AuditLog.sol\":6069:6082  expectedActor */\n      dup4\n        /* \"AuditLog.sol\":6058:6082  e.actor == expectedActor */\n      0xffffffffffffffffffffffffffffffffffffffff\n      and\n        /* \"AuditLog.sol\":6058:6059  e */\n      dup2\n        /* \"AuditLog.sol\":6058:6065  e.actor */\n      0x20\n      add\n      mload\n        /* \"AuditLog.sol\":6058:6082  e.actor == expectedActor */\n      0xffffffffffffffffffffffffffffffffffffffff\n      and\n      eq\n        /* \"AuditLog.sol\":6058:6112  e.actor == expectedActor && e.action == expectedAction */\n      dup1\n      iszero\n      tag_117\n      jumpi\n      pop\n        /* \"AuditLog.sol\":6098:6112  expectedAction */\n      dup3\n        /* \"AuditLog.sol\":6086:6112  e.action == expectedAction */\n      0x06\n      dup2\n      gt\n      iszero\n      tag_118\n      jumpi\n      tag_119\n      tag_108\n      jump\t// in\n    tag_119:\n    tag_118:\n        /* \"AuditLog.sol\":6086:6087  e */\n      dup2\n        /* \"AuditLog.sol\":6086:6094  e.action */\n      0x40\n      add\n      mload\n        /* \"AuditLog.sol\":6086:6112  e.action == expectedAction */\n      0x06\n      dup2\n      gt\n      iszero\n      tag_120\n      jumpi\n      tag_121\n      tag_108\n      jump\t// in\n    tag_121:\n    tag_120:\n      eq\n        /* \"AuditLog.sol\":6058:6112  e.actor == expectedActor && e.action == expectedAction */\n    tag_117:\n        /* \"AuditLog.sol\":6050:6113  return (e.actor == expectedActor && e.action == expectedAction) */\n      swap2\n      pop\n      pop\n        /* \"AuditLog.sol\":5706:6120  function verifyEntry(... */\n    tag_100:\n      swap5\n      swap4\n      pop\n      pop\n      pop\n      pop\n      jump\t// out\n        /* \"AuditLog.sol\":4943:5041  function globalLogCount() external view returns (uint256) {... */\n    tag_32:\n        /* \"AuditLog.sol\":4992:4999  uint256 */\n      0x00\n        /* \"AuditLog.sol\":5018:5027  globalLog */\n      0x02\n        /* \"AuditLog.sol\":5018:5034  globalLog.length */\n      dup1\n      sload\n      swap1\n      pop\n        /* \"AuditLog.sol\":5011:5034  return globalLog.length */\n      swap1\n      pop\n        /* \"AuditLog.sol\":4943:5041  function globalLogCount() external view returns (uint256) {... */\n      swap1\n      jump\t// out\n        /* \"RoleAccess.sol\":3976:4311  function grantMultipleRoles(bytes32[] calldata roles, address account) external onlyAdmin {... */\n    tag_38:\n        /* \"RoleAccess.sol\":2438:2444  _roles */\n      0x00\n        /* \"RoleAccess.sol\":2438:2464  _roles[DEFAULT_ADMIN_ROLE] */\n      0x00\n        /* \"RoleAccess.sol\":610:641  keccak256(\"DEFAULT_ADMIN_ROLE\") */\n      0x1effbbff9c66c5e59634f24fe842750c60d18891155c32dd155fc2d661a4c86d\n        /* \"RoleAccess.sol\":2438:2464  _roles[DEFAULT_ADMIN_ROLE] */\n      dup2\n      mstore\n      0x20\n      add\n      swap1\n      dup2\n      mstore\n      0x20\n      add\n      0x00\n      keccak256\n        /* \"RoleAccess.sol\":2438:2476  _roles[DEFAULT_ADMIN_ROLE][msg.sender] */\n      0x00\n        /* \"RoleAccess.sol\":2465:2475  msg.sender */\n      caller\n        /* \"RoleAccess.sol\":2438:2476  _roles[DEFAULT_ADMIN_ROLE][msg.sender] */\n      0xffffffffffffffffffffffffffffffffffffffff\n      and\n      0xffffffffffffffffffffffffffffffffffffffff\n      and\n      dup2\n      mstore\n      0x20\n      add\n      swap1\n      dup2\n      mstore\n      0x20\n      add\n      0x00\n      keccak256\n      0x00\n      swap1\n      sload\n      swap1\n      0x0100\n      exp\n      swap1\n      div\n      0xff\n      and\n        /* \"RoleAccess.sol\":2430:2512  require(_roles[DEFAULT_ADMIN_ROLE][msg.sender], \"RoleAccess: caller is not admin\") */\n      tag_124\n      jumpi\n      mload(0x40)\n      0x08c379a000000000000000000000000000000000000000000000000000000000\n      dup2\n      mstore\n      0x04\n      add\n      tag_125\n      swap1\n      tag_126\n      jump\t// in\n    tag_125:\n      mload(0x40)\n      dup1\n      swap2\n      sub\n      swap1\n      revert\n    tag_124:\n        /* \"RoleAccess.sol\":4081:4090  uint256 i */\n      0x00\n        /* \"RoleAccess.sol\":4093:4094  0 */\n      0x00\n        /* \"RoleAccess.sol\":4081:4094  uint256 i = 0 */\n      swap1\n      pop\n        /* \"RoleAccess.sol\":4076:4305  for (uint256 i = 0; i < roles.length; i++) {... */\n    tag_128:\n        /* \"RoleAccess.sol\":4100:4105  roles */\n      dup4\n      dup4\n        /* \"RoleAccess.sol\":4100:4112  roles.length */\n      swap1\n      pop\n        /* \"RoleAccess.sol\":4096:4097  i */\n      dup2\n        /* \"RoleAccess.sol\":4096:4112  i < roles.length */\n      lt\n        /* \"RoleAccess.sol\":4076:4305  for (uint256 i = 0; i < roles.length; i++) {... */\n      iszero\n      tag_129\n      jumpi\n        /* \"RoleAccess.sol\":4138:4144  _roles */\n      0x00\n        /* \"RoleAccess.sol\":4138:4154  _roles[roles[i]] */\n      0x00\n        /* \"RoleAccess.sol\":4145:4150  roles */\n      dup6\n      dup6\n        /* \"RoleAccess.sol\":4151:4152  i */\n      dup5\n        /* \"RoleAccess.sol\":4145:4153  roles[i] */\n      dup2\n      dup2\n      lt\n      tag_131\n      jumpi\n      tag_132\n      tag_104\n      jump\t// in\n    tag_132:\n    tag_131:\n      swap1\n      pop\n      0x20\n      mul\n      add\n      calldataload\n        /* \"RoleAccess.sol\":4138:4154  _roles[roles[i]] */\n      dup2\n      mstore\n      0x20\n      add\n      swap1\n      dup2\n      mstore\n      0x20\n      add\n      0x00\n      keccak256\n        /* \"RoleAccess.sol\":4138:4163  _roles[roles[i]][account] */\n      0x00\n        /* \"RoleAccess.sol\":4155:4162  account */\n      dup4\n        /* \"RoleAccess.sol\":4138:4163  _roles[roles[i]][account] */\n      0xffffffffffffffffffffffffffffffffffffffff\n      and\n      0xffffffffffffffffffffffffffffffffffffffff\n      and\n      dup2\n      mstore\n      0x20\n      add\n      swap1\n      dup2\n      mstore\n      0x20\n      add\n      0x00\n      keccak256\n      0x00\n      swap1\n      sload\n      swap1\n      0x0100\n      exp\n      swap1\n      div\n      0xff\n      and\n        /* \"RoleAccess.sol\":4133:4295  if (!_roles[roles[i]][account]) {... */\n      tag_133\n      jumpi\n        /* \"RoleAccess.sol\":4211:4215  true */\n      0x01\n        /* \"RoleAccess.sol\":4183:4189  _roles */\n      0x00\n        /* \"RoleAccess.sol\":4183:4199  _roles[roles[i]] */\n      0x00\n        /* \"RoleAccess.sol\":4190:4195  roles */\n      dup7\n      dup7\n        /* \"RoleAccess.sol\":4196:4197  i */\n      dup6\n        /* \"RoleAccess.sol\":4190:4198  roles[i] */\n      dup2\n      dup2\n      lt\n      tag_134\n      jumpi\n      tag_135\n      tag_104\n      jump\t// in\n    tag_135:\n    tag_134:\n      swap1\n      pop\n      0x20\n      mul\n      add\n      calldataload\n        /* \"RoleAccess.sol\":4183:4199  _roles[roles[i]] */\n      dup2\n      mstore\n      0x20\n      add\n      swap1\n      dup2\n      mstore\n      0x20\n      add\n      0x00\n      keccak256\n        /* \"RoleAccess.sol\":4183:4208  _roles[roles[i]][account] */\n      0x00\n        /* \"RoleAccess.sol\":4200:4207  account */\n      dup5\n        /* \"RoleAccess.sol\":4183:4208  _roles[roles[i]][account] */\n      0xffffffffffffffffffffffffffffffffffffffff\n      and\n      0xffffffffffffffffffffffffffffffffffffffff\n      and\n      dup2\n      mstore\n      0x20\n      add\n      swap1\n      dup2\n      mstore\n      0x20\n      add\n      0x00\n      keccak256\n      0x00\n        /* \"RoleAccess.sol\":4183:4215  _roles[roles[i]][account] = true */\n      0x0100\n      exp\n      dup2\n      sload\n      dup2\n      0xff\n      mul\n      not\n      and\n      swap1\n      dup4\n      iszero\n      iszero\n      mul\n      or\n      swap1\n      sstore\n      pop\n        /* \"RoleAccess.sol\":4269:4279  msg.sender */\n      caller\n        /* \"RoleAccess.sol\":4238:4280  RoleGranted(roles[i], account, msg.sender) */\n      0xffffffffffffffffffffffffffffffffffffffff\n      and\n        /* \"RoleAccess.sol\":4260:4267  account */\n      dup3\n        /* \"RoleAccess.sol\":4238:4280  RoleGranted(roles[i], account, msg.sender) */\n      0xffffffffffffffffffffffffffffffffffffffff\n      and\n        /* \"RoleAccess.sol\":4250:4255  roles */\n      dup6\n      dup6\n        /* \"RoleAccess.sol\":4256:4257  i */\n      dup5\n        /* \"RoleAccess.sol\":4250:4258  roles[i] */\n      dup2\n      dup2\n      lt\n      tag_136\n      jumpi\n      tag_137\n      tag_104\n      jump\t// in\n    tag_137:\n    tag_136:\n      swap1\n      pop\n      0x20\n      mul\n      add\n      calldataload\n        /* \"RoleAccess.sol\":4238:4280  RoleGranted(roles[i], account, msg.sender) */\n      0x2f8788117e7eff1d82e926ec794901d17c78024a50270940304540a733656f0d\n      mload(0x40)\n      mload(0x40)\n      dup1\n      swap2\n      sub\n      swap1\n      log4\n        /* \"RoleAccess.sol\":4133:4295  if (!_roles[roles[i]][account]) {... */\n    tag_133:\n        /* \"RoleAccess.sol\":4114:4117  i++ */\n      dup1\n      dup1\n      0x01\n      add\n      swap2\n      pop\n      pop\n        /* \"RoleAccess.sol\":4076:4305  for (uint256 i = 0; i < roles.length; i++) {... */\n      jump(tag_128)\n    tag_129:\n      pop\n        /* \"RoleAccess.sol\":3976:4311  function grantMultipleRoles(bytes32[] calldata roles, address account) external onlyAdmin {... */\n      pop\n      pop\n      pop\n      jump\t// out\n        /* \"RoleAccess.sol\":2917:3259  function grantRole(bytes32 role, address account) external onlyAdmin {... */\n    tag_42:\n        /* \"RoleAccess.sol\":2438:2444  _roles */\n      0x00\n        /* \"RoleAccess.sol\":2438:2464  _roles[DEFAULT_ADMIN_ROLE] */\n      0x00\n        /* \"RoleAccess.sol\":610:641  keccak256(\"DEFAULT_ADMIN_ROLE\") */\n      0x1effbbff9c66c5e59634f24fe842750c60d18891155c32dd155fc2d661a4c86d\n        /* \"RoleAccess.sol\":2438:2464  _roles[DEFAULT_ADMIN_ROLE] */\n      dup2\n      mstore\n      0x20\n      add\n      swap1\n      dup2\n      mstore\n      0x20\n      add\n      0x00\n      keccak256\n        /* \"RoleAccess.sol\":2438:2476  _roles[DEFAULT_ADMIN_ROLE][msg.sender] */\n      0x00\n        /* \"RoleAccess.sol\":2465:2475  msg.sender */\n      caller\n        /* \"RoleAccess.sol\":2438:2476  _roles[DEFAULT_ADMIN_ROLE][msg.sender] */\n      0xffffffffffffffffffffffffffffffffffffffff\n      and\n      0xffffffffffffffffffffffffffffffffffffffff\n      and\n      dup2\n      mstore\n      0x20\n      add\n      swap1\n      dup2\n      mstore\n      0x20\n      add\n      0x00\n      keccak256\n      0x00\n      swap1\n      sload\n      swap1\n      0x0100\n      exp\n      swap1\n      div\n      0xff\n      and\n        /* \"RoleAccess.sol\":2430:2512  require(_roles[DEFAULT_ADMIN_ROLE][msg.sender], \"RoleAccess: caller is not admin\") */\n      tag_139\n      jumpi\n      mload(0x40)\n      0x08c379a000000000000000000000000000000000000000000000000000000000\n      dup2\n      mstore\n      0x04\n      add\n      tag_140\n      swap1\n      tag_126\n      jump\t// in\n    tag_140:\n      mload(0x40)\n      dup1\n      swap2\n      sub\n      swap1\n      revert\n    tag_139:\n        /* \"RoleAccess.sol\":3023:3024  0 */\n      0x00\n        /* \"RoleAccess.sol\":3004:3025  account != address(0) */\n      0xffffffffffffffffffffffffffffffffffffffff\n      and\n        /* \"RoleAccess.sol\":3004:3011  account */\n      dup2\n        /* \"RoleAccess.sol\":3004:3025  account != address(0) */\n      0xffffffffffffffffffffffffffffffffffffffff\n      and\n      sub\n        /* \"RoleAccess.sol\":2996:3075  require(account != address(0), \"RoleAccess: cannot grant role to zero address\") */\n      tag_142\n      jumpi\n      mload(0x40)\n      0x08c379a000000000000000000000000000000000000000000000000000000000\n      dup2\n      mstore\n      0x04\n      add\n      tag_143\n      swap1\n      tag_144\n      jump\t// in\n    tag_143:\n      mload(0x40)\n      dup1\n      swap2\n      sub\n      swap1\n      revert\n    tag_142:\n        /* \"RoleAccess.sol\":3094:3100  _roles */\n      0x00\n        /* \"RoleAccess.sol\":3094:3106  _roles[role] */\n      0x00\n        /* \"RoleAccess.sol\":3101:3105  role */\n      dup4\n        /* \"RoleAccess.sol\":3094:3106  _roles[role] */\n      dup2\n      mstore\n      0x20\n      add\n      swap1\n      dup2\n      mstore\n      0x20\n      add\n      0x00\n      keccak256\n        /* \"RoleAccess.sol\":3094:3115  _roles[role][account] */\n      0x00\n        /* \"RoleAccess.sol\":3107:3114  account */\n      dup3\n        /* \"RoleAccess.sol\":3094:3115  _roles[role][account] */\n      0xffffffffffffffffffffffffffffffffffffffff\n      and\n      0xffffffffffffffffffffffffffffffffffffffff\n      and\n      dup2\n      mstore\n      0x20\n      add\n      swap1\n      dup2\n      mstore\n      0x20\n      add\n      0x00\n      keccak256\n      0x00\n      swap1\n      sload\n      swap1\n      0x0100\n      exp\n      swap1\n      div\n      0xff\n      and\n        /* \"RoleAccess.sol\":3093:3115  !_roles[role][account] */\n      iszero\n        /* \"RoleAccess.sol\":3085:3161  require(!_roles[role][account], \"RoleAccess: account already has this role\") */\n      tag_145\n      jumpi\n      mload(0x40)\n      0x08c379a000000000000000000000000000000000000000000000000000000000\n      dup2\n      mstore\n      0x04\n      add\n      tag_146\n      swap1\n      tag_147\n      jump\t// in\n    tag_146:\n      mload(0x40)\n      dup1\n      swap2\n      sub\n      swap1\n      revert\n    tag_145:\n        /* \"RoleAccess.sol\":3195:3199  true */\n      0x01\n        /* \"RoleAccess.sol\":3171:3177  _roles */\n      0x00\n        /* \"RoleAccess.sol\":3171:3183  _roles[role] */\n      0x00\n        /* \"RoleAccess.sol\":3178:3182  role */\n      dup5\n        /* \"RoleAccess.sol\":3171:3183  _roles[role] */\n      dup2\n      mstore\n      0x20\n      add\n      swap1\n      dup2\n      mstore\n      0x20\n      add\n      0x00\n      keccak256\n        /* \"RoleAccess.sol\":3171:3192  _roles[role][account] */\n      0x00\n        /* \"RoleAccess.sol\":3184:3191  account */\n      dup4\n        /* \"RoleAccess.sol\":3171:3192  _roles[role][account] */\n      0xffffffffffffffffffffffffffffffffffffffff\n      and\n      0xffffffffffffffffffffffffffffffffffffffff\n      and\n      dup2\n      mstore\n      0x20\n      add\n      swap1\n      dup2\n      mstore\n      0x20\n      add\n      0x00\n      keccak256\n      0x00\n        /* \"RoleAccess.sol\":3171:3199  _roles[role][account] = true */\n      0x0100\n      exp\n      dup2\n      sload\n      dup2\n      0xff\n      mul\n      not\n      and\n      swap1\n      dup4\n      iszero\n      iszero\n      mul\n      or\n      swap1\n      sstore\n      pop\n        /* \"RoleAccess.sol\":3241:3251  msg.sender */\n      caller\n        /* \"RoleAccess.sol\":3214:3252  RoleGranted(role, account, msg.sender) */\n      0xffffffffffffffffffffffffffffffffffffffff\n      and\n        /* \"RoleAccess.sol\":3232:3239  account */\n      dup2\n        /* \"RoleAccess.sol\":3214:3252  RoleGranted(role, account, msg.sender) */\n      0xffffffffffffffffffffffffffffffffffffffff\n      and\n        /* \"RoleAccess.sol\":3226:3230  role */\n      dup4\n        /* \"RoleAccess.sol\":3214:3252  RoleGranted(role, account, msg.sender) */\n      0x2f8788117e7eff1d82e926ec794901d17c78024a50270940304540a733656f0d\n      mload(0x40)\n      mload(0x40)\n      dup1\n      swap2\n      sub\n      swap1\n      log4\n        /* \"RoleAccess.sol\":2917:3259  function grantRole(bytes32 role, address account) external onlyAdmin {... */\n      pop\n      pop\n      jump\t// out\n        /* \"RoleAccess.sol\":647:719  bytes32 public constant REVIEWER_ROLE       = keccak256(\"REVIEWER_ROLE\") */\n    tag_44:\n        /* \"RoleAccess.sol\":693:719  keccak256(\"REVIEWER_ROLE\") */\n      0xc10c77be35aff266144ed64c26a1fa104bae2f284ae99ac4a34203454704a185\n        /* \"RoleAccess.sol\":647:719  bytes32 public constant REVIEWER_ROLE       = keccak256(\"REVIEWER_ROLE\") */\n      dup2\n      jump\t// out\n        /* \"RoleAccess.sol\":725:797  bytes32 public constant APPROVER_ROLE       = keccak256(\"APPROVER_ROLE\") */\n    tag_48:\n        /* \"RoleAccess.sol\":771:797  keccak256(\"APPROVER_ROLE\") */\n      0x408a36151f841709116a4e8aca4e0202874f7f54687dcb863b1ea4672dc9d8cf\n        /* \"RoleAccess.sol\":725:797  bytes32 public constant APPROVER_ROLE       = keccak256(\"APPROVER_ROLE\") */\n      dup2\n      jump\t// out\n        /* \"RoleAccess.sol\":1034:1106  bytes32 public constant REGISTRY_ROLE       = keccak256(\"REGISTRY_ROLE\") */\n    tag_51:\n        /* \"RoleAccess.sol\":1080:1106  keccak256(\"REGISTRY_ROLE\") */\n      0xc2979137d1774e40fe2638d355bf7a7b092be4c67f242aad1655e1e27f9df9cc\n        /* \"RoleAccess.sol\":1034:1106  bytes32 public constant REGISTRY_ROLE       = keccak256(\"REGISTRY_ROLE\") */\n      dup2\n      jump\t// out\n        /* \"RoleAccess.sol\":881:952  bytes32 public constant AUDITOR_ROLE        = keccak256(\"AUDITOR_ROLE\") */\n    tag_54:\n        /* \"RoleAccess.sol\":927:952  keccak256(\"AUDITOR_ROLE\") */\n      0x59a1c48e5837ad7a7f3dcedcbe129bf3249ec4fbf651fd4f5e2600ead39fe2f5\n        /* \"RoleAccess.sol\":881:952  bytes32 public constant AUDITOR_ROLE        = keccak256(\"AUDITOR_ROLE\") */\n      dup2\n      jump\t// out\n        /* \"RoleAccess.sol\":958:1028  bytes32 public constant LOGGER_ROLE         = keccak256(\"LOGGER_ROLE\") */\n    tag_57:\n        /* \"RoleAccess.sol\":1004:1028  keccak256(\"LOGGER_ROLE\") */\n      0x566c814873eed56a69b28c40ab27cc2cb150d74068bae3e884ccd44f8de60f8a\n        /* \"RoleAccess.sol\":958:1028  bytes32 public constant LOGGER_ROLE         = keccak256(\"LOGGER_ROLE\") */\n      dup2\n      jump\t// out\n        /* \"RoleAccess.sol\":3653:3892  function renounceRole(bytes32 role) external {... */\n    tag_62:\n        /* \"RoleAccess.sol\":3716:3722  _roles */\n      0x00\n        /* \"RoleAccess.sol\":3716:3728  _roles[role] */\n      0x00\n        /* \"RoleAccess.sol\":3723:3727  role */\n      dup3\n        /* \"RoleAccess.sol\":3716:3728  _roles[role] */\n      dup2\n      mstore\n      0x20\n      add\n      swap1\n      dup2\n      mstore\n      0x20\n      add\n      0x00\n      keccak256\n        /* \"RoleAccess.sol\":3716:3740  _roles[role][msg.sender] */\n      0x00\n        /* \"RoleAccess.sol\":3729:3739  msg.sender */\n      caller\n        /* \"RoleAccess.sol\":3716:3740  _roles[role][msg.sender] */\n      0xffffffffffffffffffffffffffffffffffffffff\n      and\n      0xffffffffffffffffffffffffffffffffffffffff\n      and\n      dup2\n      mstore\n      0x20\n      add\n      swap1\n      dup2\n      mstore\n      0x20\n      add\n      0x00\n      keccak256\n      0x00\n      swap1\n      sload\n      swap1\n      0x0100\n      exp\n      swap1\n      div\n      0xff\n      and\n        /* \"RoleAccess.sol\":3708:3787  require(_roles[role][msg.sender], \"RoleAccess: caller does not have this role\") */\n      tag_149\n      jumpi\n      mload(0x40)\n      0x08c379a000000000000000000000000000000000000000000000000000000000\n      dup2\n      mstore\n      0x04\n      add\n      tag_150\n      swap1\n      tag_151\n      jump\t// in\n    tag_150:\n      mload(0x40)\n      dup1\n      swap2\n      sub\n      swap1\n      revert\n    tag_149:\n        /* \"RoleAccess.sol\":3824:3829  false */\n      0x00\n        /* \"RoleAccess.sol\":3797:3803  _roles */\n      0x00\n        /* \"RoleAccess.sol\":3797:3809  _roles[role] */\n      0x00\n        /* \"RoleAccess.sol\":3804:3808  role */\n      dup4\n        /* \"RoleAccess.sol\":3797:3809  _roles[role] */\n      dup2\n      mstore\n      0x20\n      add\n      swap1\n      dup2\n      mstore\n      0x20\n      add\n      0x00\n      keccak256\n        /* \"RoleAccess.sol\":3797:3821  _roles[role][msg.sender] */\n      0x00\n        /* \"RoleAccess.sol\":3810:3820  msg.sender */\n      caller\n        /* \"RoleAccess.sol\":3797:3821  _roles[role][msg.sender] */\n      0xffffffffffffffffffffffffffffffffffffffff\n      and\n      0xffffffffffffffffffffffffffffffffffffffff\n      and\n      dup2\n      mstore\n      0x20\n      add\n      swap1\n      dup2\n      mstore\n      0x20\n      add\n      0x00\n      keccak256\n      0x00\n        /* \"RoleAccess.sol\":3797:3829  _roles[role][msg.sender] = false */\n      0x0100\n      exp\n      dup2\n      sload\n      dup2\n      0xff\n      mul\n      not\n      and\n      swap1\n      dup4\n      iszero\n      iszero\n      mul\n      or\n      swap1\n      sstore\n      pop\n        /* \"RoleAccess.sol\":3874:3884  msg.sender */\n      caller\n        /* \"RoleAccess.sol\":3844:3885  RoleRevoked(role, msg.sender, msg.sender) */\n      0xffffffffffffffffffffffffffffffffffffffff\n      and\n        /* \"RoleAccess.sol\":3862:3872  msg.sender */\n      caller\n        /* \"RoleAccess.sol\":3844:3885  RoleRevoked(role, msg.sender, msg.sender) */\n      0xffffffffffffffffffffffffffffffffffffffff\n      and\n        /* \"RoleAccess.sol\":3856:3860  role */\n      dup3\n        /* \"RoleAccess.sol\":3844:3885  RoleRevoked(role, msg.sender, msg.sender) */\n      0xf6391f5c32d9c69d2a47ea670b442974b53935d1edc7fd64eb21e047a839171b\n      mload(0x40)\n      mload(0x40)\n      dup1\n      swap2\n      sub\n      swap1\n      log4\n        /* \"RoleAccess.sol\":3653:3892  function renounceRole(bytes32 role) external {... */\n      pop\n      jump\t// out\n        /* \"AuditLog.sol\":4744:4879  function getEntryCount(uint256 applicationId) external view returns (uint256) {... */\n    tag_66:\n        /* \"AuditLog.sol\":4813:4820  uint256 */\n      0x00\n        /* \"AuditLog.sol\":4839:4850  auditTrails */\n      0x01\n        /* \"AuditLog.sol\":4839:4865  auditTrails[applicationId] */\n      0x00\n        /* \"AuditLog.sol\":4851:4864  applicationId */\n      dup4\n        /* \"AuditLog.sol\":4839:4865  auditTrails[applicationId] */\n      dup2\n      mstore\n      0x20\n      add\n      swap1\n      dup2\n      mstore\n      0x20\n      add\n      0x00\n      keccak256\n        /* \"AuditLog.sol\":4839:4872  auditTrails[applicationId].length */\n      dup1\n      sload\n      swap1\n      pop\n        /* \"AuditLog.sol\":4832:4872  return auditTrails[applicationId].length */\n      swap1\n      pop\n        /* \"AuditLog.sol\":4744:4879  function getEntryCount(uint256 applicationId) external view returns (uint256) {... */\n      swap2\n      swap1\n      pop\n      jump\t// out\n        /* \"RoleAccess.sol\":2735:2855  function hasRole(bytes32 role, address account) public view returns (bool) {... */\n    tag_70:\n        /* \"RoleAccess.sol\":2804:2808  bool */\n      0x00\n        /* \"RoleAccess.sol\":2827:2833  _roles */\n      0x00\n        /* \"RoleAccess.sol\":2827:2839  _roles[role] */\n      0x00\n        /* \"RoleAccess.sol\":2834:2838  role */\n      dup5\n        /* \"RoleAccess.sol\":2827:2839  _roles[role] */\n      dup2\n      mstore\n      0x20\n      add\n      swap1\n      dup2\n      mstore\n      0x20\n      add\n      0x00\n      keccak256\n        /* \"RoleAccess.sol\":2827:2848  _roles[role][account] */\n      0x00\n        /* \"RoleAccess.sol\":2840:2847  account */\n      dup4\n        /* \"RoleAccess.sol\":2827:2848  _roles[role][account] */\n      0xffffffffffffffffffffffffffffffffffffffff\n      and\n      0xffffffffffffffffffffffffffffffffffffffff\n      and\n      dup2\n      mstore\n      0x20\n      add\n      swap1\n      dup2\n      mstore\n      0x20\n      add\n      0x00\n      keccak256\n      0x00\n      swap1\n      sload\n      swap1\n      0x0100\n      exp\n      swap1\n      div\n      0xff\n      and\n        /* \"RoleAccess.sol\":2820:2848  return _roles[role][account] */\n      swap1\n      pop\n        /* \"RoleAccess.sol\":2735:2855  function hasRole(bytes32 role, address account) public view returns (bool) {... */\n      swap3\n      swap2\n      pop\n      pop\n      jump\t// out\n        /* \"AuditLog.sol\":4354:4669  function getEntry(uint256 applicationId, uint256 entryIndex)... */\n    tag_75:\n        /* \"AuditLog.sol\":4446:4463  AuditEntry memory */\n      tag_154\n      tag_155\n      jump\t// in\n    tag_154:\n        /* \"AuditLog.sol\":4513:4524  auditTrails */\n      0x01\n        /* \"AuditLog.sol\":4513:4539  auditTrails[applicationId] */\n      0x00\n        /* \"AuditLog.sol\":4525:4538  applicationId */\n      dup5\n        /* \"AuditLog.sol\":4513:4539  auditTrails[applicationId] */\n      dup2\n      mstore\n      0x20\n      add\n      swap1\n      dup2\n      mstore\n      0x20\n      add\n      0x00\n      keccak256\n        /* \"AuditLog.sol\":4513:4546  auditTrails[applicationId].length */\n      dup1\n      sload\n      swap1\n      pop\n        /* \"AuditLog.sol\":4500:4510  entryIndex */\n      dup3\n        /* \"AuditLog.sol\":4500:4546  entryIndex < auditTrails[applicationId].length */\n      lt\n        /* \"AuditLog.sol\":4479:4607  require(... */\n      tag_157\n      jumpi\n      mload(0x40)\n      0x08c379a000000000000000000000000000000000000000000000000000000000\n      dup2\n      mstore\n      0x04\n      add\n      tag_158\n      swap1\n      tag_159\n      jump\t// in\n    tag_158:\n      mload(0x40)\n      dup1\n      swap2\n      sub\n      swap1\n      revert\n    tag_157:\n        /* \"AuditLog.sol\":4624:4635  auditTrails */\n      0x01\n        /* \"AuditLog.sol\":4624:4650  auditTrails[applicationId] */\n      0x00\n        /* \"AuditLog.sol\":4636:4649  applicationId */\n      dup5\n        /* \"AuditLog.sol\":4624:4650  auditTrails[applicationId] */\n      dup2\n      mstore\n      0x20\n      add\n      swap1\n      dup2\n      mstore\n      0x20\n      add\n      0x00\n      keccak256\n        /* \"AuditLog.sol\":4651:4661  entryIndex */\n      dup3\n        /* \"AuditLog.sol\":4624:4662  auditTrails[applicationId][entryIndex] */\n      dup2\n      sload\n      dup2\n      lt\n      tag_160\n      jumpi\n      tag_161\n      tag_104\n      jump\t// in\n    tag_161:\n    tag_160:\n      swap1\n      0x00\n      mstore\n      keccak256(0x00, 0x20)\n      swap1\n      0x05\n      mul\n      add\n        /* \"AuditLog.sol\":4617:4662  return auditTrails[applicationId][entryIndex] */\n      mload(0x40)\n      dup1\n      0xc0\n      add\n      0x40\n      mstore\n      swap1\n      dup2\n      0x00\n      dup3\n      add\n      sload\n      dup2\n      mstore\n      0x20\n      add\n      0x01\n      dup3\n      add\n      0x00\n      swap1\n      sload\n      swap1\n      0x0100\n      exp\n      swap1\n      div\n      0xffffffffffffffffffffffffffffffffffffffff\n      and\n      0xffffffffffffffffffffffffffffffffffffffff\n      and\n      0xffffffffffffffffffffffffffffffffffffffff\n      and\n      dup2\n      mstore\n      0x20\n      add\n      0x01\n      dup3\n      add\n      0x14\n      swap1\n      sload\n      swap1\n      0x0100\n      exp\n      swap1\n      div\n      0xff\n      and\n      0x06\n      dup2\n      gt\n      iszero\n      tag_163\n      jumpi\n      tag_164\n      tag_108\n      jump\t// in\n    tag_164:\n    tag_163:\n      0x06\n      dup2\n      gt\n      iszero\n      tag_165\n      jumpi\n      tag_166\n      tag_108\n      jump\t// in\n    tag_166:\n    tag_165:\n      dup2\n      mstore\n      0x20\n      add\n      0x02\n      dup3\n      add\n      dup1\n      sload\n      tag_167\n      swap1\n      tag_112\n      jump\t// in\n    tag_167:\n      dup1\n      0x1f\n      add\n      0x20\n      dup1\n      swap2\n      div\n      mul\n      0x20\n      add\n      mload(0x40)\n      swap1\n      dup2\n      add\n      0x40\n      mstore\n      dup1\n      swap3\n      swap2\n      swap1\n      dup2\n      dup2\n      mstore\n      0x20\n      add\n      dup3\n      dup1\n      sload\n      tag_168\n      swap1\n      tag_112\n      jump\t// in\n    tag_168:\n      dup1\n      iszero\n      tag_169\n      jumpi\n      dup1\n      0x1f\n      lt\n      tag_170\n      jumpi\n      0x0100\n      dup1\n      dup4\n      sload\n      div\n      mul\n      dup4\n      mstore\n      swap2\n      0x20\n      add\n      swap2\n      jump(tag_169)\n    tag_170:\n      dup3\n      add\n      swap2\n      swap1\n      0x00\n      mstore\n      keccak256(0x00, 0x20)\n      swap1\n    tag_171:\n      dup2\n      sload\n      dup2\n      mstore\n      swap1\n      0x01\n      add\n      swap1\n      0x20\n      add\n      dup1\n      dup4\n      gt\n      tag_171\n      jumpi\n      dup3\n      swap1\n      sub\n      0x1f\n      and\n      dup3\n      add\n      swap2\n    tag_169:\n      pop\n      pop\n      pop\n      pop\n      pop\n      dup2\n      mstore\n      0x20\n      add\n      0x03\n      dup3\n      add\n      sload\n      dup2\n      mstore\n      0x20\n      add\n      0x04\n      dup3\n      add\n      sload\n      dup2\n      mstore\n      pop\n      pop\n      swap1\n      pop\n        /* \"AuditLog.sol\":4354:4669  function getEntry(uint256 applicationId, uint256 entryIndex)... */\n      swap3\n      swap2\n      pop\n      pop\n      jump\t// out\n        /* \"RoleAccess.sol\":564:641  bytes32 public constant DEFAULT_ADMIN_ROLE  = keccak256(\"DEFAULT_ADMIN_ROLE\") */\n    tag_79:\n        /* \"RoleAccess.sol\":610:641  keccak256(\"DEFAULT_ADMIN_ROLE\") */\n      0x1effbbff9c66c5e59634f24fe842750c60d18891155c32dd155fc2d661a4c86d\n        /* \"RoleAccess.sol\":564:641  bytes32 public constant DEFAULT_ADMIN_ROLE  = keccak256(\"DEFAULT_ADMIN_ROLE\") */\n      dup2\n      jump\t// out\n        /* \"AuditLog.sol\":5119:5565  function getGlobalLog(uint256 from, uint256 count)... */\n    tag_83:\n        /* \"AuditLog.sol\":5201:5227  AuditEntry[] memory result */\n      0x60\n        /* \"AuditLog.sol\":5258:5267  globalLog */\n      0x02\n        /* \"AuditLog.sol\":5258:5274  globalLog.length */\n      dup1\n      sload\n      swap1\n      pop\n        /* \"AuditLog.sol\":5251:5255  from */\n      dup4\n        /* \"AuditLog.sol\":5251:5274  from < globalLog.length */\n      lt\n        /* \"AuditLog.sol\":5243:5313  require(from < globalLog.length, \"AuditLog: from index out of bounds\") */\n      tag_173\n      jumpi\n      mload(0x40)\n      0x08c379a000000000000000000000000000000000000000000000000000000000\n      dup2\n      mstore\n      0x04\n      add\n      tag_174\n      swap1\n      tag_175\n      jump\t// in\n    tag_174:\n      mload(0x40)\n      dup1\n      swap2\n      sub\n      swap1\n      revert\n    tag_173:\n        /* \"AuditLog.sol\":5323:5334  uint256 end */\n      0x00\n        /* \"AuditLog.sol\":5344:5349  count */\n      dup3\n        /* \"AuditLog.sol\":5337:5341  from */\n      dup5\n        /* \"AuditLog.sol\":5337:5349  from + count */\n      tag_176\n      swap2\n      swap1\n      tag_177\n      jump\t// in\n    tag_176:\n        /* \"AuditLog.sol\":5323:5349  uint256 end = from + count */\n      swap1\n      pop\n        /* \"AuditLog.sol\":5369:5378  globalLog */\n      0x02\n        /* \"AuditLog.sol\":5369:5385  globalLog.length */\n      dup1\n      sload\n      swap1\n      pop\n        /* \"AuditLog.sol\":5363:5366  end */\n      dup2\n        /* \"AuditLog.sol\":5363:5385  end > globalLog.length */\n      gt\n        /* \"AuditLog.sol\":5359:5409  if (end > globalLog.length) end = globalLog.length */\n      iszero\n      tag_178\n      jumpi\n        /* \"AuditLog.sol\":5393:5402  globalLog */\n      0x02\n        /* \"AuditLog.sol\":5393:5409  globalLog.length */\n      dup1\n      sload\n      swap1\n      pop\n        /* \"AuditLog.sol\":5387:5409  end = globalLog.length */\n      swap1\n      pop\n        /* \"AuditLog.sol\":5359:5409  if (end > globalLog.length) end = globalLog.length */\n    tag_178:\n        /* \"AuditLog.sol\":5451:5455  from */\n      dup4\n        /* \"AuditLog.sol\":5445:5448  end */\n      dup2\n        /* \"AuditLog.sol\":5445:5455  end - from */\n      tag_179\n      swap2\n      swap1\n      tag_180\n      jump\t// in\n    tag_179:\n        /* \"AuditLog.sol\":5428:5456  new AuditEntry[](end - from) */\n      0xffffffffffffffff\n      dup2\n      gt\n      iszero\n      tag_181\n      jumpi\n      tag_182\n      tag_183\n      jump\t// in\n    tag_182:\n    tag_181:\n      mload(0x40)\n      swap1\n      dup1\n      dup3\n      mstore\n      dup1\n      0x20\n      mul\n      0x20\n      add\n      dup3\n      add\n      0x40\n      mstore\n      dup1\n      iszero\n      tag_184\n      jumpi\n      dup2\n      0x20\n      add\n    tag_185:\n      tag_186\n      tag_155\n      jump\t// in\n    tag_186:\n      dup2\n      mstore\n      0x20\n      add\n      swap1\n      0x01\n      swap1\n      sub\n      swap1\n      dup2\n      tag_185\n      jumpi\n      swap1\n      pop\n    tag_184:\n      pop\n        /* \"AuditLog.sol\":5419:5456  result = new AuditEntry[](end - from) */\n      swap2\n      pop\n        /* \"AuditLog.sol\":5471:5480  uint256 i */\n      0x00\n        /* \"AuditLog.sol\":5483:5487  from */\n      dup5\n        /* \"AuditLog.sol\":5471:5487  uint256 i = from */\n      swap1\n      pop\n        /* \"AuditLog.sol\":5466:5559  for (uint256 i = from; i < end; i++) {... */\n    tag_187:\n        /* \"AuditLog.sol\":5493:5496  end */\n      dup2\n        /* \"AuditLog.sol\":5489:5490  i */\n      dup2\n        /* \"AuditLog.sol\":5489:5496  i < end */\n      lt\n        /* \"AuditLog.sol\":5466:5559  for (uint256 i = from; i < end; i++) {... */\n      iszero\n      tag_188\n      jumpi\n        /* \"AuditLog.sol\":5536:5545  globalLog */\n      0x02\n        /* \"AuditLog.sol\":5546:5547  i */\n      dup2\n        /* \"AuditLog.sol\":5536:5548  globalLog[i] */\n      dup2\n      sload\n      dup2\n      lt\n      tag_190\n      jumpi\n      tag_191\n      tag_104\n      jump\t// in\n    tag_191:\n    tag_190:\n      swap1\n      0x00\n      mstore\n      keccak256(0x00, 0x20)\n      swap1\n      0x05\n      mul\n      add\n        /* \"AuditLog.sol\":5517:5548  result[i - from] = globalLog[i] */\n      mload(0x40)\n      dup1\n      0xc0\n      add\n      0x40\n      mstore\n      swap1\n      dup2\n      0x00\n      dup3\n      add\n      sload\n      dup2\n      mstore\n      0x20\n      add\n      0x01\n      dup3\n      add\n      0x00\n      swap1\n      sload\n      swap1\n      0x0100\n      exp\n      swap1\n      div\n      0xffffffffffffffffffffffffffffffffffffffff\n      and\n      0xffffffffffffffffffffffffffffffffffffffff\n      and\n      0xffffffffffffffffffffffffffffffffffffffff\n      and\n      dup2\n      mstore\n      0x20\n      add\n      0x01\n      dup3\n      add\n      0x14\n      swap1\n      sload\n      swap1\n      0x0100\n      exp\n      swap1\n      div\n      0xff\n      and\n      0x06\n      dup2\n      gt\n      iszero\n      tag_193\n      jumpi\n      tag_194\n      tag_108\n      jump\t// in\n    tag_194:\n    tag_193:\n      0x06\n      dup2\n      gt\n      iszero\n      tag_195\n      jumpi\n      tag_196\n      tag_108\n      jump\t// in\n    tag_196:\n    tag_195:\n      dup2\n      mstore\n      0x20\n      add\n      0x02\n      dup3\n      add\n      dup1\n      sload\n      tag_197\n      swap1\n      tag_112\n      jump\t// in\n    tag_197:\n      dup1\n      0x1f\n      add\n      0x20\n      dup1\n      swap2\n      div\n      mul\n      0x20\n      add\n      mload(0x40)\n      swap1\n      dup2\n      add\n      0x40\n      mstore\n      dup1\n      swap3\n      swap2\n      swap1\n      dup2\n      dup2\n      mstore\n      0x20\n      add\n      dup3\n      dup1\n      sload\n      tag_198\n      swap1\n      tag_112\n      jump\t// in\n    tag_198:\n      dup1\n      iszero\n      tag_199\n      jumpi\n      dup1\n      0x1f\n      lt\n      tag_200\n      jumpi\n      0x0100\n      dup1\n      dup4\n      sload\n      div\n      mul\n      dup4\n      mstore\n      swap2\n      0x20\n      add\n      swap2\n      jump(tag_199)\n    tag_200:\n      dup3\n      add\n      swap2\n      swap1\n      0x00\n      mstore\n      keccak256(0x00, 0x20)\n      swap1\n    tag_201:\n      dup2\n      sload\n      dup2\n      mstore\n      swap1\n      0x01\n      add\n      swap1\n      0x20\n      add\n      dup1\n      dup4\n      gt\n      tag_201\n      jumpi\n      dup3\n      swap1\n      sub\n      0x1f\n      and\n      dup3\n      add\n      swap2\n    tag_199:\n      pop\n      pop\n      pop\n      pop\n      pop\n      dup2\n      mstore\n      0x20\n      add\n      0x03\n      dup3\n      add\n      sload\n      dup2\n      mstore\n      0x20\n      add\n      0x04\n      dup3\n      add\n      sload\n      dup2\n      mstore\n      pop\n      pop\n        /* \"AuditLog.sol\":5517:5523  result */\n      dup4\n        /* \"AuditLog.sol\":5528:5532  from */\n      dup7\n        /* \"AuditLog.sol\":5524:5525  i */\n      dup4\n        /* \"AuditLog.sol\":5524:5532  i - from */\n      tag_202\n      swap2\n      swap1\n      tag_180\n      jump\t// in\n    tag_202:\n        /* \"AuditLog.sol\":5517:5533  result[i - from] */\n      dup2\n      mload\n      dup2\n      lt\n      tag_203\n      jumpi\n      tag_204\n      tag_104\n      jump\t// in\n    tag_204:\n    tag_203:\n      0x20\n      mul\n      0x20\n      add\n      add\n        /* \"AuditLog.sol\":5517:5548  result[i - from] = globalLog[i] */\n      dup2\n      swap1\n      mstore\n      pop\n        /* \"AuditLog.sol\":5498:5501  i++ */\n      dup1\n      dup1\n      0x01\n      add\n      swap2\n      pop\n      pop\n        /* \"AuditLog.sol\":5466:5559  for (uint256 i = from; i < end; i++) {... */\n      jump(tag_187)\n    tag_188:\n      pop\n        /* \"AuditLog.sol\":5233:5565  {... */\n      pop\n        /* \"AuditLog.sol\":5119:5565  function getGlobalLog(uint256 from, uint256 count)... */\n      swap3\n      swap2\n      pop\n      pop\n      jump\t// out\n        /* \"AuditLog.sol\":4134:4286  function getAuditTrail(uint256 applicationId)... */\n    tag_88:\n        /* \"AuditLog.sol\":4211:4230  AuditEntry[] memory */\n      0x60\n        /* \"AuditLog.sol\":4253:4264  auditTrails */\n      0x01\n        /* \"AuditLog.sol\":4253:4279  auditTrails[applicationId] */\n      0x00\n        /* \"AuditLog.sol\":4265:4278  applicationId */\n      dup4\n        /* \"AuditLog.sol\":4253:4279  auditTrails[applicationId] */\n      dup2\n      mstore\n      0x20\n      add\n      swap1\n      dup2\n      mstore\n      0x20\n      add\n      0x00\n      keccak256\n        /* \"AuditLog.sol\":4246:4279  return auditTrails[applicationId] */\n      dup1\n      sload\n      dup1\n      0x20\n      mul\n      0x20\n      add\n      mload(0x40)\n      swap1\n      dup2\n      add\n      0x40\n      mstore\n      dup1\n      swap3\n      swap2\n      swap1\n      dup2\n      dup2\n      mstore\n      0x20\n      add\n      0x00\n      swap1\n    tag_206:\n      dup3\n      dup3\n      lt\n      iszero\n      tag_207\n      jumpi\n      dup4\n      dup3\n      swap1\n      0x00\n      mstore\n      keccak256(0x00, 0x20)\n      swap1\n      0x05\n      mul\n      add\n      mload(0x40)\n      dup1\n      0xc0\n      add\n      0x40\n      mstore\n      swap1\n      dup2\n      0x00\n      dup3\n      add\n      sload\n      dup2\n      mstore\n      0x20\n      add\n      0x01\n      dup3\n      add\n      0x00\n      swap1\n      sload\n      swap1\n      0x0100\n      exp\n      swap1\n      div\n      0xffffffffffffffffffffffffffffffffffffffff\n      and\n      0xffffffffffffffffffffffffffffffffffffffff\n      and\n      0xffffffffffffffffffffffffffffffffffffffff\n      and\n      dup2\n      mstore\n      0x20\n      add\n      0x01\n      dup3\n      add\n      0x14\n      swap1\n      sload\n      swap1\n      0x0100\n      exp\n      swap1\n      div\n      0xff\n      and\n      0x06\n      dup2\n      gt\n      iszero\n      tag_209\n      jumpi\n      tag_210\n      tag_108\n      jump\t// in\n    tag_210:\n    tag_209:\n      0x06\n      dup2\n      gt\n      iszero\n      tag_211\n      jumpi\n      tag_212\n      tag_108\n      jump\t// in\n    tag_212:\n    tag_211:\n      dup2\n      mstore\n      0x20\n      add\n      0x02\n      dup3\n      add\n      dup1\n      sload\n      tag_213\n      swap1\n      tag_112\n      jump\t// in\n    tag_213:\n      dup1\n      0x1f\n      add\n      0x20\n      dup1\n      swap2\n      div\n      mul\n      0x20\n      add\n      mload(0x40)\n      swap1\n      dup2\n      add\n      0x40\n      mstore\n      dup1\n      swap3\n      swap2\n      swap1\n      dup2\n      dup2\n      mstore\n      0x20\n      add\n      dup3\n      dup1\n      sload\n      tag_214\n      swap1\n      tag_112\n      jump\t// in\n    tag_214:\n      dup1\n      iszero\n      tag_215\n      jumpi\n      dup1\n      0x1f\n      lt\n      tag_216\n      jumpi\n      0x0100\n      dup1\n      dup4\n      sload\n      div\n      mul\n      dup4\n      mstore\n      swap2\n      0x20\n      add\n      swap2\n      jump(tag_215)\n    tag_216:\n      dup3\n      add\n      swap2\n      swap1\n      0x00\n      mstore\n      keccak256(0x00, 0x20)\n      swap1\n    tag_217:\n      dup2\n      sload\n      dup2\n      mstore\n      swap1\n      0x01\n      add\n      swap1\n      0x20\n      add\n      dup1\n      dup4\n      gt\n      tag_217\n      jumpi\n      dup3\n      swap1\n      sub\n      0x1f\n      and\n      dup3\n      add\n      swap2\n    tag_215:\n      pop\n      pop\n      pop\n      pop\n      pop\n      dup2\n      mstore\n      0x20\n      add\n      0x03\n      dup3\n      add\n      sload\n      dup2\n      mstore\n      0x20\n      add\n      0x04\n      dup3\n      add\n      sload\n      dup2\n      mstore\n      pop\n      pop\n      dup2\n      mstore\n      0x20\n      add\n      swap1\n      0x01\n      add\n      swap1\n      jump(tag_206)\n    tag_207:\n      pop\n      pop\n      pop\n      pop\n      swap1\n      pop\n        /* \"AuditLog.sol\":4134:4286  function getAuditTrail(uint256 applicationId)... */\n      swap2\n      swap1\n      pop\n      jump\t// out\n        /* \"RoleAccess.sol\":803:875  bytes32 public constant TREASURY_ROLE       = keccak256(\"TREASURY_ROLE\") */\n    tag_91:\n        /* \"RoleAccess.sol\":849:875  keccak256(\"TREASURY_ROLE\") */\n      0xe1dcbdb91df27212a29bc27177c840cf2f819ecf2187432e1fac86c2dd5dfca9\n        /* \"RoleAccess.sol\":803:875  bytes32 public constant TREASURY_ROLE       = keccak256(\"TREASURY_ROLE\") */\n      dup2\n      jump\t// out\n        /* \"RoleAccess.sol\":3324:3580  function revokeRole(bytes32 role, address account) external onlyAdmin {... */\n    tag_95:\n        /* \"RoleAccess.sol\":2438:2444  _roles */\n      0x00\n        /* \"RoleAccess.sol\":2438:2464  _roles[DEFAULT_ADMIN_ROLE] */\n      0x00\n        /* \"RoleAccess.sol\":610:641  keccak256(\"DEFAULT_ADMIN_ROLE\") */\n      0x1effbbff9c66c5e59634f24fe842750c60d18891155c32dd155fc2d661a4c86d\n        /* \"RoleAccess.sol\":2438:2464  _roles[DEFAULT_ADMIN_ROLE] */\n      dup2\n      mstore\n      0x20\n      add\n      swap1\n      dup2\n      mstore\n      0x20\n      add\n      0x00\n      keccak256\n        /* \"RoleAccess.sol\":2438:2476  _roles[DEFAULT_ADMIN_ROLE][msg.sender] */\n      0x00\n        /* \"RoleAccess.sol\":2465:2475  msg.sender */\n      caller\n        /* \"RoleAccess.sol\":2438:2476  _roles[DEFAULT_ADMIN_ROLE][msg.sender] */\n      0xffffffffffffffffffffffffffffffffffffffff\n      and\n      0xffffffffffffffffffffffffffffffffffffffff\n      and\n      dup2\n      mstore\n      0x20\n      add\n      swap1\n      dup2\n      mstore\n      0x20\n      add\n      0x00\n      keccak256\n      0x00\n      swap1\n      sload\n      swap1\n      0x0100\n      exp\n      swap1\n      div\n      0xff\n      and\n        /* \"RoleAccess.sol\":2430:2512  require(_roles[DEFAULT_ADMIN_ROLE][msg.sender], \"RoleAccess: caller is not admin\") */\n      tag_219\n      jumpi\n      mload(0x40)\n      0x08c379a000000000000000000000000000000000000000000000000000000000\n      dup2\n      mstore\n      0x04\n      add\n      tag_220\n      swap1\n      tag_126\n      jump\t// in\n    tag_220:\n      mload(0x40)\n      dup1\n      swap2\n      sub\n      swap1\n      revert\n    tag_219:\n        /* \"RoleAccess.sol\":3412:3418  _roles */\n      0x00\n        /* \"RoleAccess.sol\":3412:3424  _roles[role] */\n      0x00\n        /* \"RoleAccess.sol\":3419:3423  role */\n      dup4\n        /* \"RoleAccess.sol\":3412:3424  _roles[role] */\n      dup2\n      mstore\n      0x20\n      add\n      swap1\n      dup2\n      mstore\n      0x20\n      add\n      0x00\n      keccak256\n        /* \"RoleAccess.sol\":3412:3433  _roles[role][account] */\n      0x00\n        /* \"RoleAccess.sol\":3425:3432  account */\n      dup3\n        /* \"RoleAccess.sol\":3412:3433  _roles[role][account] */\n      0xffffffffffffffffffffffffffffffffffffffff\n      and\n      0xffffffffffffffffffffffffffffffffffffffff\n      and\n      dup2\n      mstore\n      0x20\n      add\n      swap1\n      dup2\n      mstore\n      0x20\n      add\n      0x00\n      keccak256\n      0x00\n      swap1\n      sload\n      swap1\n      0x0100\n      exp\n      swap1\n      div\n      0xff\n      and\n        /* \"RoleAccess.sol\":3404:3481  require(_roles[role][account], \"RoleAccess: account does not have this role\") */\n      tag_222\n      jumpi\n      mload(0x40)\n      0x08c379a000000000000000000000000000000000000000000000000000000000\n      dup2\n      mstore\n      0x04\n      add\n      tag_223\n      swap1\n      tag_224\n      jump\t// in\n    tag_223:\n      mload(0x40)\n      dup1\n      swap2\n      sub\n      swap1\n      revert\n    tag_222:\n        /* \"RoleAccess.sol\":3515:3520  false */\n      0x00\n        /* \"RoleAccess.sol\":3491:3497  _roles */\n      0x00\n        /* \"RoleAccess.sol\":3491:3503  _roles[role] */\n      0x00\n        /* \"RoleAccess.sol\":3498:3502  role */\n      dup5\n        /* \"RoleAccess.sol\":3491:3503  _roles[role] */\n      dup2\n      mstore\n      0x20\n      add\n      swap1\n      dup2\n      mstore\n      0x20\n      add\n      0x00\n      keccak256\n        /* \"RoleAccess.sol\":3491:3512  _roles[role][account] */\n      0x00\n        /* \"RoleAccess.sol\":3504:3511  account */\n      dup4\n        /* \"RoleAccess.sol\":3491:3512  _roles[role][account] */\n      0xffffffffffffffffffffffffffffffffffffffff\n      and\n      0xffffffffffffffffffffffffffffffffffffffff\n      and\n      dup2\n      mstore\n      0x20\n      add\n      swap1\n      dup2\n      mstore\n      0x20\n      add\n      0x00\n      keccak256\n      0x00\n        /* \"RoleAccess.sol\":3491:3520  _roles[role][account] = false */\n      0x0100\n      exp\n      dup2\n      sload\n      dup2\n      0xff\n      mul\n      not\n      and\n      swap1\n      dup4\n      iszero\n      iszero\n      mul\n      or\n      swap1\n      sstore\n      pop\n        /* \"RoleAccess.sol\":3562:3572  msg.sender */\n      caller\n        /* \"RoleAccess.sol\":3535:3573  RoleRevoked(role, account, msg.sender) */\n      0xffffffffffffffffffffffffffffffffffffffff\n      and\n        /* \"RoleAccess.sol\":3553:3560  account */\n      dup2\n        /* \"RoleAccess.sol\":3535:3573  RoleRevoked(role, account, msg.sender) */\n      0xffffffffffffffffffffffffffffffffffffffff\n      and\n        /* \"RoleAccess.sol\":3547:3551  role */\n      dup4\n        /* \"RoleAccess.sol\":3535:3573  RoleRevoked(role, account, msg.sender) */\n      0xf6391f5c32d9c69d2a47ea670b442974b53935d1edc7fd64eb21e047a839171b\n      mload(0x40)\n      mload(0x40)\n      dup1\n      swap2\n      sub\n      swap1\n      log4\n        /* \"RoleAccess.sol\":3324:3580  function revokeRole(bytes32 role, address account) external onlyAdmin {... */\n      pop\n      pop\n      jump\t// out\n        /* \"AuditLog.sol\":3011:3950  function logEvent(... */\n    tag_99:\n        /* \"RoleAccess.sol\":1004:1028  keccak256(\"LOGGER_ROLE\") */\n      0x566c814873eed56a69b28c40ab27cc2cb150d74068bae3e884ccd44f8de60f8a\n        /* \"RoleAccess.sol\":2300:2306  _roles */\n      0x00\n        /* \"RoleAccess.sol\":2300:2312  _roles[role] */\n      0x00\n        /* \"RoleAccess.sol\":2307:2311  role */\n      dup3\n        /* \"RoleAccess.sol\":2300:2312  _roles[role] */\n      dup2\n      mstore\n      0x20\n      add\n      swap1\n      dup2\n      mstore\n      0x20\n      add\n      0x00\n      keccak256\n        /* \"RoleAccess.sol\":2300:2324  _roles[role][msg.sender] */\n      0x00\n        /* \"RoleAccess.sol\":2313:2323  msg.sender */\n      caller\n        /* \"RoleAccess.sol\":2300:2324  _roles[role][msg.sender] */\n      0xffffffffffffffffffffffffffffffffffffffff\n      and\n      0xffffffffffffffffffffffffffffffffffffffff\n      and\n      dup2\n      mstore\n      0x20\n      add\n      swap1\n      dup2\n      mstore\n      0x20\n      add\n      0x00\n      keccak256\n      0x00\n      swap1\n      sload\n      swap1\n      0x0100\n      exp\n      swap1\n      div\n      0xff\n      and\n        /* \"RoleAccess.sol\":2292:2375  require(_roles[role][msg.sender], \"RoleAccess: caller does not have required role\") */\n      tag_226\n      jumpi\n      mload(0x40)\n      0x08c379a000000000000000000000000000000000000000000000000000000000\n      dup2\n      mstore\n      0x04\n      add\n      tag_227\n      swap1\n      tag_228\n      jump\t// in\n    tag_227:\n      mload(0x40)\n      dup1\n      swap2\n      sub\n      swap1\n      revert\n    tag_226:\n        /* \"AuditLog.sol\":3263:3282  ActionType.REJECTED */\n      0x03\n        /* \"AuditLog.sol\":3253:3282  action == ActionType.REJECTED */\n      0x06\n      dup2\n      gt\n      iszero\n      tag_230\n      jumpi\n      tag_231\n      tag_108\n      jump\t// in\n    tag_231:\n    tag_230:\n        /* \"AuditLog.sol\":3253:3259  action */\n      dup5\n        /* \"AuditLog.sol\":3253:3282  action == ActionType.REJECTED */\n      0x06\n      dup2\n      gt\n      iszero\n      tag_232\n      jumpi\n      tag_233\n      tag_108\n      jump\t// in\n    tag_233:\n    tag_232:\n      sub\n        /* \"AuditLog.sol\":3249:3389  if (action == ActionType.REJECTED) {... */\n      tag_234\n      jumpi\n        /* \"AuditLog.sol\":3330:3331  0 */\n      0x00\n        /* \"AuditLog.sol\":3312:3319  details */\n      dup4\n      dup4\n        /* \"AuditLog.sol\":3306:3327  bytes(details).length */\n      swap1\n      pop\n        /* \"AuditLog.sol\":3306:3331  bytes(details).length > 0 */\n      gt\n        /* \"AuditLog.sol\":3298:3378  require(bytes(details).length > 0, \"AuditLog: rejection reason cannot be empty\") */\n      tag_235\n      jumpi\n      mload(0x40)\n      0x08c379a000000000000000000000000000000000000000000000000000000000\n      dup2\n      mstore\n      0x04\n      add\n      tag_236\n      swap1\n      tag_237\n      jump\t// in\n    tag_236:\n      mload(0x40)\n      dup1\n      swap2\n      sub\n      swap1\n      revert\n    tag_235:\n        /* \"AuditLog.sol\":3249:3389  if (action == ActionType.REJECTED) {... */\n    tag_234:\n        /* \"AuditLog.sol\":3399:3422  AuditEntry memory entry */\n      0x00\n        /* \"AuditLog.sol\":3425:3679  AuditEntry({... */\n      mload(0x40)\n      dup1\n      0xc0\n      add\n      0x40\n      mstore\n      dup1\n        /* \"AuditLog.sol\":3465:3478  applicationId */\n      dup9\n        /* \"AuditLog.sol\":3425:3679  AuditEntry({... */\n      dup2\n      mstore\n      0x20\n      add\n        /* \"AuditLog.sol\":3507:3512  actor */\n      dup8\n        /* \"AuditLog.sol\":3425:3679  AuditEntry({... */\n      0xffffffffffffffffffffffffffffffffffffffff\n      and\n      dup2\n      mstore\n      0x20\n      add\n        /* \"AuditLog.sol\":3541:3547  action */\n      dup7\n        /* \"AuditLog.sol\":3425:3679  AuditEntry({... */\n      0x06\n      dup2\n      gt\n      iszero\n      tag_238\n      jumpi\n      tag_239\n      tag_108\n      jump\t// in\n    tag_239:\n    tag_238:\n      dup2\n      mstore\n      0x20\n      add\n        /* \"AuditLog.sol\":3576:3583  details */\n      dup6\n      dup6\n        /* \"AuditLog.sol\":3425:3679  AuditEntry({... */\n      dup1\n      dup1\n      0x1f\n      add\n      0x20\n      dup1\n      swap2\n      div\n      mul\n      0x20\n      add\n      mload(0x40)\n      swap1\n      dup2\n      add\n      0x40\n      mstore\n      dup1\n      swap4\n      swap3\n      swap2\n      swap1\n      dup2\n      dup2\n      mstore\n      0x20\n      add\n      dup4\n      dup4\n      dup1\n      dup3\n      dup5\n      calldatacopy\n      0x00\n      dup2\n      dup5\n      add\n      mstore\n      not(0x1f)\n      0x1f\n      dup3\n      add\n      and\n      swap1\n      pop\n      dup1\n      dup4\n      add\n      swap3\n      pop\n      pop\n      pop\n      pop\n      pop\n      pop\n      pop\n      dup2\n      mstore\n      0x20\n      add\n        /* \"AuditLog.sol\":3612:3627  block.timestamp */\n      timestamp\n        /* \"AuditLog.sol\":3425:3679  AuditEntry({... */\n      dup2\n      mstore\n      0x20\n      add\n        /* \"AuditLog.sol\":3656:3668  block.number */\n      number\n        /* \"AuditLog.sol\":3425:3679  AuditEntry({... */\n      dup2\n      mstore\n      pop\n        /* \"AuditLog.sol\":3399:3679  AuditEntry memory entry = AuditEntry({... */\n      swap1\n      pop\n        /* \"AuditLog.sol\":3690:3701  auditTrails */\n      0x01\n        /* \"AuditLog.sol\":3690:3716  auditTrails[applicationId] */\n      0x00\n        /* \"AuditLog.sol\":3702:3715  applicationId */\n      dup9\n        /* \"AuditLog.sol\":3690:3716  auditTrails[applicationId] */\n      dup2\n      mstore\n      0x20\n      add\n      swap1\n      dup2\n      mstore\n      0x20\n      add\n      0x00\n      keccak256\n        /* \"AuditLog.sol\":3722:3727  entry */\n      dup2\n        /* \"AuditLog.sol\":3690:3728  auditTrails[applicationId].push(entry) */\n      swap1\n      dup1\n      0x01\n      dup2\n      sload\n      add\n      dup1\n      dup3\n      sstore\n      dup1\n      swap2\n      pop\n      pop\n      0x01\n      swap1\n      sub\n      swap1\n      0x00\n      mstore\n      keccak256(0x00, 0x20)\n      swap1\n      0x05\n      mul\n      add\n      0x00\n      swap1\n      swap2\n      swap1\n      swap2\n      swap1\n      swap2\n      pop\n      0x00\n      dup3\n      add\n      mload\n      dup2\n      0x00\n      add\n      sstore\n      0x20\n      dup3\n      add\n      mload\n      dup2\n      0x01\n      add\n      exp(0x0100, 0x00)\n      dup2\n      sload\n      dup2\n      0xffffffffffffffffffffffffffffffffffffffff\n      mul\n      not\n      and\n      swap1\n      dup4\n      0xffffffffffffffffffffffffffffffffffffffff\n      and\n      mul\n      or\n      swap1\n      sstore\n      pop\n      0x40\n      dup3\n      add\n      mload\n      dup2\n      0x01\n      add\n      exp(0x0100, 0x14)\n      dup2\n      sload\n      dup2\n      0xff\n      mul\n      not\n      and\n      swap1\n      dup4\n      0x06\n      dup2\n      gt\n      iszero\n      tag_241\n      jumpi\n      tag_242\n      tag_108\n      jump\t// in\n    tag_242:\n    tag_241:\n      mul\n      or\n      swap1\n      sstore\n      pop\n      0x60\n      dup3\n      add\n      mload\n      dup2\n      0x02\n      add\n      swap1\n      dup2\n      tag_243\n      swap2\n      swap1\n      tag_244\n      jump\t// in\n    tag_243:\n      pop\n      0x80\n      dup3\n      add\n      mload\n      dup2\n      0x03\n      add\n      sstore\n      0xa0\n      dup3\n      add\n      mload\n      dup2\n      0x04\n      add\n      sstore\n      pop\n      pop\n        /* \"AuditLog.sol\":3738:3747  globalLog */\n      0x02\n        /* \"AuditLog.sol\":3753:3758  entry */\n      dup2\n        /* \"AuditLog.sol\":3738:3759  globalLog.push(entry) */\n      swap1\n      dup1\n      0x01\n      dup2\n      sload\n      add\n      dup1\n      dup3\n      sstore\n      dup1\n      swap2\n      pop\n      pop\n      0x01\n      swap1\n      sub\n      swap1\n      0x00\n      mstore\n      keccak256(0x00, 0x20)\n      swap1\n      0x05\n      mul\n      add\n      0x00\n      swap1\n      swap2\n      swap1\n      swap2\n      swap1\n      swap2\n      pop\n      0x00\n      dup3\n      add\n      mload\n      dup2\n      0x00\n      add\n      sstore\n      0x20\n      dup3\n      add\n      mload\n      dup2\n      0x01\n      add\n      exp(0x0100, 0x00)\n      dup2\n      sload\n      dup2\n      0xffffffffffffffffffffffffffffffffffffffff\n      mul\n      not\n      and\n      swap1\n      dup4\n      0xffffffffffffffffffffffffffffffffffffffff\n      and\n      mul\n      or\n      swap1\n      sstore\n      pop\n      0x40\n      dup3\n      add\n      mload\n      dup2\n      0x01\n      add\n      exp(0x0100, 0x14)\n      dup2\n      sload\n      dup2\n      0xff\n      mul\n      not\n      and\n      swap1\n      dup4\n      0x06\n      dup2\n      gt\n      iszero\n      tag_246\n      jumpi\n      tag_247\n      tag_108\n      jump\t// in\n    tag_247:\n    tag_246:\n      mul\n      or\n      swap1\n      sstore\n      pop\n      0x60\n      dup3\n      add\n      mload\n      dup2\n      0x02\n      add\n      swap1\n      dup2\n      tag_248\n      swap2\n      swap1\n      tag_244\n      jump\t// in\n    tag_248:\n      pop\n      0x80\n      dup3\n      add\n      mload\n      dup2\n      0x03\n      add\n      sstore\n      0xa0\n      dup3\n      add\n      mload\n      dup2\n      0x04\n      add\n      sstore\n      pop\n      pop\n        /* \"AuditLog.sol\":3832:3837  actor */\n      dup6\n        /* \"AuditLog.sol\":3775:3943  AuditEventLogged(... */\n      0xffffffffffffffffffffffffffffffffffffffff\n      and\n        /* \"AuditLog.sol\":3805:3818  applicationId */\n      dup8\n        /* \"AuditLog.sol\":3775:3943  AuditEventLogged(... */\n      0x9f56068d55f366cf8b974ea35757ec1b49652bf4d550f14847f2b6aebc00ea53\n        /* \"AuditLog.sol\":3851:3857  action */\n      dup8\n        /* \"AuditLog.sol\":3871:3878  details */\n      dup8\n      dup8\n        /* \"AuditLog.sol\":3892:3907  block.timestamp */\n      timestamp\n        /* \"AuditLog.sol\":3921:3933  block.number */\n      number\n        /* \"AuditLog.sol\":3775:3943  AuditEventLogged(... */\n      mload(0x40)\n      tag_249\n      swap6\n      swap5\n      swap4\n      swap3\n      swap2\n      swap1\n      tag_250\n      jump\t// in\n    tag_249:\n      mload(0x40)\n      dup1\n      swap2\n      sub\n      swap1\n      log3\n        /* \"AuditLog.sol\":3186:3950  {... */\n      pop\n        /* \"AuditLog.sol\":3011:3950  function logEvent(... */\n      pop\n      pop\n      pop\n      pop\n      pop\n      pop\n      jump\t// out\n    tag_155:\n      mload(0x40)\n      dup1\n      0xc0\n      add\n      0x40\n      mstore\n      dup1\n      0x00\n      dup2\n      mstore\n      0x20\n      add\n      and(0xffffffffffffffffffffffffffffffffffffffff, 0x00)\n      dup2\n      mstore\n      0x20\n      add\n      0x00\n      0x06\n      dup2\n      gt\n      iszero\n      tag_251\n      jumpi\n      tag_252\n      tag_108\n      jump\t// in\n    tag_252:\n    tag_251:\n      dup2\n      mstore\n      0x20\n      add\n      0x60\n      dup2\n      mstore\n      0x20\n      add\n      0x00\n      dup2\n      mstore\n      0x20\n      add\n      0x00\n      dup2\n      mstore\n      pop\n      swap1\n      jump\t// out\n        /* \"#utility.yul\":88:205   */\n    tag_254:\n        /* \"#utility.yul\":197:198   */\n      0x00\n        /* \"#utility.yul\":194:195   */\n      0x00\n        /* \"#utility.yul\":187:199   */\n      revert\n        /* \"#utility.yul\":211:328   */\n    tag_255:\n        /* \"#utility.yul\":320:321   */\n      0x00\n        /* \"#utility.yul\":317:318   */\n      0x00\n        /* \"#utility.yul\":310:322   */\n      revert\n        /* \"#utility.yul\":334:411   */\n    tag_256:\n        /* \"#utility.yul\":371:378   */\n      0x00\n        /* \"#utility.yul\":400:405   */\n      dup2\n        /* \"#utility.yul\":389:405   */\n      swap1\n      pop\n        /* \"#utility.yul\":334:411   */\n      swap2\n      swap1\n      pop\n      jump\t// out\n        /* \"#utility.yul\":417:539   */\n    tag_257:\n        /* \"#utility.yul\":490:514   */\n      tag_341\n        /* \"#utility.yul\":508:513   */\n      dup2\n        /* \"#utility.yul\":490:514   */\n      tag_256\n      jump\t// in\n    tag_341:\n        /* \"#utility.yul\":483:488   */\n      dup2\n        /* \"#utility.yul\":480:515   */\n      eq\n        /* \"#utility.yul\":470:533   */\n      tag_342\n      jumpi\n        /* \"#utility.yul\":529:530   */\n      0x00\n        /* \"#utility.yul\":526:527   */\n      0x00\n        /* \"#utility.yul\":519:531   */\n      revert\n        /* \"#utility.yul\":470:533   */\n    tag_342:\n        /* \"#utility.yul\":417:539   */\n      pop\n      jump\t// out\n        /* \"#utility.yul\":545:684   */\n    tag_258:\n        /* \"#utility.yul\":591:596   */\n      0x00\n        /* \"#utility.yul\":629:635   */\n      dup2\n        /* \"#utility.yul\":616:636   */\n      calldataload\n        /* \"#utility.yul\":607:636   */\n      swap1\n      pop\n        /* \"#utility.yul\":645:678   */\n      tag_344\n        /* \"#utility.yul\":672:677   */\n      dup2\n        /* \"#utility.yul\":645:678   */\n      tag_257\n      jump\t// in\n    tag_344:\n        /* \"#utility.yul\":545:684   */\n      swap3\n      swap2\n      pop\n      pop\n      jump\t// out\n        /* \"#utility.yul\":690:816   */\n    tag_259:\n        /* \"#utility.yul\":727:734   */\n      0x00\n        /* \"#utility.yul\":767:809   */\n      0xffffffffffffffffffffffffffffffffffffffff\n        /* \"#utility.yul\":760:765   */\n      dup3\n        /* \"#utility.yul\":756:810   */\n      and\n        /* \"#utility.yul\":745:810   */\n      swap1\n      pop\n        /* \"#utility.yul\":690:816   */\n      swap2\n      swap1\n      pop\n      jump\t// out\n        /* \"#utility.yul\":822:918   */\n    tag_260:\n        /* \"#utility.yul\":859:866   */\n      0x00\n        /* \"#utility.yul\":888:912   */\n      tag_347\n        /* \"#utility.yul\":906:911   */\n      dup3\n        /* \"#utility.yul\":888:912   */\n      tag_259\n      jump\t// in\n    tag_347:\n        /* \"#utility.yul\":877:912   */\n      swap1\n      pop\n        /* \"#utility.yul\":822:918   */\n      swap2\n      swap1\n      pop\n      jump\t// out\n        /* \"#utility.yul\":924:1046   */\n    tag_261:\n        /* \"#utility.yul\":997:1021   */\n      tag_349\n        /* \"#utility.yul\":1015:1020   */\n      dup2\n        /* \"#utility.yul\":997:1021   */\n      tag_260\n      jump\t// in\n    tag_349:\n        /* \"#utility.yul\":990:995   */\n      dup2\n        /* \"#utility.yul\":987:1022   */\n      eq\n        /* \"#utility.yul\":977:1040   */\n      tag_350\n      jumpi\n        /* \"#utility.yul\":1036:1037   */\n      0x00\n        /* \"#utility.yul\":1033:1034   */\n      0x00\n        /* \"#utility.yul\":1026:1038   */\n      revert\n        /* \"#utility.yul\":977:1040   */\n    tag_350:\n        /* \"#utility.yul\":924:1046   */\n      pop\n      jump\t// out\n        /* \"#utility.yul\":1052:1191   */\n    tag_262:\n        /* \"#utility.yul\":1098:1103   */\n      0x00\n        /* \"#utility.yul\":1136:1142   */\n      dup2\n        /* \"#utility.yul\":1123:1143   */\n      calldataload\n        /* \"#utility.yul\":1114:1143   */\n      swap1\n      pop\n        /* \"#utility.yul\":1152:1185   */\n      tag_352\n        /* \"#utility.yul\":1179:1184   */\n      dup2\n        /* \"#utility.yul\":1152:1185   */\n      tag_261\n      jump\t// in\n    tag_352:\n        /* \"#utility.yul\":1052:1191   */\n      swap3\n      swap2\n      pop\n      pop\n      jump\t// out\n        /* \"#utility.yul\":1197:1309   */\n    tag_263:\n        /* \"#utility.yul\":1283:1284   */\n      0x07\n        /* \"#utility.yul\":1276:1281   */\n      dup2\n        /* \"#utility.yul\":1273:1285   */\n      lt\n        /* \"#utility.yul\":1263:1303   */\n      tag_354\n      jumpi\n        /* \"#utility.yul\":1299:1300   */\n      0x00\n        /* \"#utility.yul\":1296:1297   */\n      0x00\n        /* \"#utility.yul\":1289:1301   */\n      revert\n        /* \"#utility.yul\":1263:1303   */\n    tag_354:\n        /* \"#utility.yul\":1197:1309   */\n      pop\n      jump\t// out\n        /* \"#utility.yul\":1315:1480   */\n    tag_264:\n        /* \"#utility.yul\":1374:1379   */\n      0x00\n        /* \"#utility.yul\":1412:1418   */\n      dup2\n        /* \"#utility.yul\":1399:1419   */\n      calldataload\n        /* \"#utility.yul\":1390:1419   */\n      swap1\n      pop\n        /* \"#utility.yul\":1428:1474   */\n      tag_356\n        /* \"#utility.yul\":1468:1473   */\n      dup2\n        /* \"#utility.yul\":1428:1474   */\n      tag_263\n      jump\t// in\n    tag_356:\n        /* \"#utility.yul\":1315:1480   */\n      swap3\n      swap2\n      pop\n      pop\n      jump\t// out\n        /* \"#utility.yul\":1486:2277   */\n    tag_27:\n        /* \"#utility.yul\":1585:1591   */\n      0x00\n        /* \"#utility.yul\":1593:1599   */\n      0x00\n        /* \"#utility.yul\":1601:1607   */\n      0x00\n        /* \"#utility.yul\":1609:1615   */\n      0x00\n        /* \"#utility.yul\":1658:1661   */\n      0x80\n        /* \"#utility.yul\":1646:1655   */\n      dup6\n        /* \"#utility.yul\":1637:1644   */\n      dup8\n        /* \"#utility.yul\":1633:1656   */\n      sub\n        /* \"#utility.yul\":1629:1662   */\n      slt\n        /* \"#utility.yul\":1626:1746   */\n      iszero\n      tag_358\n      jumpi\n        /* \"#utility.yul\":1665:1744   */\n      tag_359\n      tag_254\n      jump\t// in\n    tag_359:\n        /* \"#utility.yul\":1626:1746   */\n    tag_358:\n        /* \"#utility.yul\":1785:1786   */\n      0x00\n        /* \"#utility.yul\":1810:1863   */\n      tag_360\n        /* \"#utility.yul\":1855:1862   */\n      dup8\n        /* \"#utility.yul\":1846:1852   */\n      dup3\n        /* \"#utility.yul\":1835:1844   */\n      dup9\n        /* \"#utility.yul\":1831:1853   */\n      add\n        /* \"#utility.yul\":1810:1863   */\n      tag_258\n      jump\t// in\n    tag_360:\n        /* \"#utility.yul\":1800:1863   */\n      swap5\n      pop\n        /* \"#utility.yul\":1756:1873   */\n      pop\n        /* \"#utility.yul\":1912:1914   */\n      0x20\n        /* \"#utility.yul\":1938:1991   */\n      tag_361\n        /* \"#utility.yul\":1983:1990   */\n      dup8\n        /* \"#utility.yul\":1974:1980   */\n      dup3\n        /* \"#utility.yul\":1963:1972   */\n      dup9\n        /* \"#utility.yul\":1959:1981   */\n      add\n        /* \"#utility.yul\":1938:1991   */\n      tag_258\n      jump\t// in\n    tag_361:\n        /* \"#utility.yul\":1928:1991   */\n      swap4\n      pop\n        /* \"#utility.yul\":1883:2001   */\n      pop\n        /* \"#utility.yul\":2040:2042   */\n      0x40\n        /* \"#utility.yul\":2066:2119   */\n      tag_362\n        /* \"#utility.yul\":2111:2118   */\n      dup8\n        /* \"#utility.yul\":2102:2108   */\n      dup3\n        /* \"#utility.yul\":2091:2100   */\n      dup9\n        /* \"#utility.yul\":2087:2109   */\n      add\n        /* \"#utility.yul\":2066:2119   */\n      tag_262\n      jump\t// in\n    tag_362:\n        /* \"#utility.yul\":2056:2119   */\n      swap3\n      pop\n        /* \"#utility.yul\":2011:2129   */\n      pop\n        /* \"#utility.yul\":2168:2170   */\n      0x60\n        /* \"#utility.yul\":2194:2260   */\n      tag_363\n        /* \"#utility.yul\":2252:2259   */\n      dup8\n        /* \"#utility.yul\":2243:2249   */\n      dup3\n        /* \"#utility.yul\":2232:2241   */\n      dup9\n        /* \"#utility.yul\":2228:2250   */\n      add\n        /* \"#utility.yul\":2194:2260   */\n      tag_264\n      jump\t// in\n    tag_363:\n        /* \"#utility.yul\":2184:2260   */\n      swap2\n      pop\n        /* \"#utility.yul\":2139:2270   */\n      pop\n        /* \"#utility.yul\":1486:2277   */\n      swap3\n      swap6\n      swap2\n      swap5\n      pop\n      swap3\n      pop\n      jump\t// out\n        /* \"#utility.yul\":2283:2373   */\n    tag_265:\n        /* \"#utility.yul\":2317:2324   */\n      0x00\n        /* \"#utility.yul\":2360:2365   */\n      dup2\n        /* \"#utility.yul\":2353:2366   */\n      iszero\n        /* \"#utility.yul\":2346:2367   */\n      iszero\n        /* \"#utility.yul\":2335:2367   */\n      swap1\n      pop\n        /* \"#utility.yul\":2283:2373   */\n      swap2\n      swap1\n      pop\n      jump\t// out\n        /* \"#utility.yul\":2379:2488   */\n    tag_266:\n        /* \"#utility.yul\":2460:2481   */\n      tag_366\n        /* \"#utility.yul\":2475:2480   */\n      dup2\n        /* \"#utility.yul\":2460:2481   */\n      tag_265\n      jump\t// in\n    tag_366:\n        /* \"#utility.yul\":2455:2458   */\n      dup3\n        /* \"#utility.yul\":2448:2482   */\n      mstore\n        /* \"#utility.yul\":2379:2488   */\n      pop\n      pop\n      jump\t// out\n        /* \"#utility.yul\":2494:2704   */\n    tag_30:\n        /* \"#utility.yul\":2581:2585   */\n      0x00\n        /* \"#utility.yul\":2619:2621   */\n      0x20\n        /* \"#utility.yul\":2608:2617   */\n      dup3\n        /* \"#utility.yul\":2604:2622   */\n      add\n        /* \"#utility.yul\":2596:2622   */\n      swap1\n      pop\n        /* \"#utility.yul\":2632:2697   */\n      tag_368\n        /* \"#utility.yul\":2694:2695   */\n      0x00\n        /* \"#utility.yul\":2683:2692   */\n      dup4\n        /* \"#utility.yul\":2679:2696   */\n      add\n        /* \"#utility.yul\":2670:2676   */\n      dup5\n        /* \"#utility.yul\":2632:2697   */\n      tag_266\n      jump\t// in\n    tag_368:\n        /* \"#utility.yul\":2494:2704   */\n      swap3\n      swap2\n      pop\n      pop\n      jump\t// out\n        /* \"#utility.yul\":2710:2828   */\n    tag_267:\n        /* \"#utility.yul\":2797:2821   */\n      tag_370\n        /* \"#utility.yul\":2815:2820   */\n      dup2\n        /* \"#utility.yul\":2797:2821   */\n      tag_256\n      jump\t// in\n    tag_370:\n        /* \"#utility.yul\":2792:2795   */\n      dup3\n        /* \"#utility.yul\":2785:2822   */\n      mstore\n        /* \"#utility.yul\":2710:2828   */\n      pop\n      pop\n      jump\t// out\n        /* \"#utility.yul\":2834:3056   */\n    tag_34:\n        /* \"#utility.yul\":2927:2931   */\n      0x00\n        /* \"#utility.yul\":2965:2967   */\n      0x20\n        /* \"#utility.yul\":2954:2963   */\n      dup3\n        /* \"#utility.yul\":2950:2968   */\n      add\n        /* \"#utility.yul\":2942:2968   */\n      swap1\n      pop\n        /* \"#utility.yul\":2978:3049   */\n      tag_372\n        /* \"#utility.yul\":3046:3047   */\n      0x00\n        /* \"#utility.yul\":3035:3044   */\n      dup4\n        /* \"#utility.yul\":3031:3048   */\n      add\n        /* \"#utility.yul\":3022:3028   */\n      dup5\n        /* \"#utility.yul\":2978:3049   */\n      tag_267\n      jump\t// in\n    tag_372:\n        /* \"#utility.yul\":2834:3056   */\n      swap3\n      swap2\n      pop\n      pop\n      jump\t// out\n        /* \"#utility.yul\":3062:3179   */\n    tag_268:\n        /* \"#utility.yul\":3171:3172   */\n      0x00\n        /* \"#utility.yul\":3168:3169   */\n      0x00\n        /* \"#utility.yul\":3161:3173   */\n      revert\n        /* \"#utility.yul\":3185:3302   */\n    tag_269:\n        /* \"#utility.yul\":3294:3295   */\n      0x00\n        /* \"#utility.yul\":3291:3292   */\n      0x00\n        /* \"#utility.yul\":3284:3296   */\n      revert\n        /* \"#utility.yul\":3308:3425   */\n    tag_270:\n        /* \"#utility.yul\":3417:3418   */\n      0x00\n        /* \"#utility.yul\":3414:3415   */\n      0x00\n        /* \"#utility.yul\":3407:3419   */\n      revert\n        /* \"#utility.yul\":3448:4016   */\n    tag_271:\n        /* \"#utility.yul\":3521:3529   */\n      0x00\n        /* \"#utility.yul\":3531:3537   */\n      0x00\n        /* \"#utility.yul\":3581:3584   */\n      dup4\n        /* \"#utility.yul\":3574:3578   */\n      0x1f\n        /* \"#utility.yul\":3566:3572   */\n      dup5\n        /* \"#utility.yul\":3562:3579   */\n      add\n        /* \"#utility.yul\":3558:3585   */\n      slt\n        /* \"#utility.yul\":3548:3670   */\n      tag_377\n      jumpi\n        /* \"#utility.yul\":3589:3668   */\n      tag_378\n      tag_268\n      jump\t// in\n    tag_378:\n        /* \"#utility.yul\":3548:3670   */\n    tag_377:\n        /* \"#utility.yul\":3702:3708   */\n      dup3\n        /* \"#utility.yul\":3689:3709   */\n      calldataload\n        /* \"#utility.yul\":3679:3709   */\n      swap1\n      pop\n        /* \"#utility.yul\":3732:3750   */\n      0xffffffffffffffff\n        /* \"#utility.yul\":3724:3730   */\n      dup2\n        /* \"#utility.yul\":3721:3751   */\n      gt\n        /* \"#utility.yul\":3718:3835   */\n      iszero\n      tag_379\n      jumpi\n        /* \"#utility.yul\":3754:3833   */\n      tag_380\n      tag_269\n      jump\t// in\n    tag_380:\n        /* \"#utility.yul\":3718:3835   */\n    tag_379:\n        /* \"#utility.yul\":3868:3872   */\n      0x20\n        /* \"#utility.yul\":3860:3866   */\n      dup4\n        /* \"#utility.yul\":3856:3873   */\n      add\n        /* \"#utility.yul\":3844:3873   */\n      swap2\n      pop\n        /* \"#utility.yul\":3922:3925   */\n      dup4\n        /* \"#utility.yul\":3914:3918   */\n      0x20\n        /* \"#utility.yul\":3906:3912   */\n      dup3\n        /* \"#utility.yul\":3902:3919   */\n      mul\n        /* \"#utility.yul\":3892:3900   */\n      dup4\n        /* \"#utility.yul\":3888:3920   */\n      add\n        /* \"#utility.yul\":3885:3926   */\n      gt\n        /* \"#utility.yul\":3882:4010   */\n      iszero\n      tag_381\n      jumpi\n        /* \"#utility.yul\":3929:4008   */\n      tag_382\n      tag_270\n      jump\t// in\n    tag_382:\n        /* \"#utility.yul\":3882:4010   */\n    tag_381:\n        /* \"#utility.yul\":3448:4016   */\n      swap3\n      pop\n      swap3\n      swap1\n      pop\n      jump\t// out\n        /* \"#utility.yul\":4022:4726   */\n    tag_37:\n        /* \"#utility.yul\":4117:4123   */\n      0x00\n        /* \"#utility.yul\":4125:4131   */\n      0x00\n        /* \"#utility.yul\":4133:4139   */\n      0x00\n        /* \"#utility.yul\":4182:4184   */\n      0x40\n        /* \"#utility.yul\":4170:4179   */\n      dup5\n        /* \"#utility.yul\":4161:4168   */\n      dup7\n        /* \"#utility.yul\":4157:4180   */\n      sub\n        /* \"#utility.yul\":4153:4185   */\n      slt\n        /* \"#utility.yul\":4150:4269   */\n      iszero\n      tag_384\n      jumpi\n        /* \"#utility.yul\":4188:4267   */\n      tag_385\n      tag_254\n      jump\t// in\n    tag_385:\n        /* \"#utility.yul\":4150:4269   */\n    tag_384:\n        /* \"#utility.yul\":4336:4337   */\n      0x00\n        /* \"#utility.yul\":4325:4334   */\n      dup5\n        /* \"#utility.yul\":4321:4338   */\n      add\n        /* \"#utility.yul\":4308:4339   */\n      calldataload\n        /* \"#utility.yul\":4366:4384   */\n      0xffffffffffffffff\n        /* \"#utility.yul\":4358:4364   */\n      dup2\n        /* \"#utility.yul\":4355:4385   */\n      gt\n        /* \"#utility.yul\":4352:4469   */\n      iszero\n      tag_386\n      jumpi\n        /* \"#utility.yul\":4388:4467   */\n      tag_387\n      tag_255\n      jump\t// in\n    tag_387:\n        /* \"#utility.yul\":4352:4469   */\n    tag_386:\n        /* \"#utility.yul\":4501:4581   */\n      tag_388\n        /* \"#utility.yul\":4573:4580   */\n      dup7\n        /* \"#utility.yul\":4564:4570   */\n      dup3\n        /* \"#utility.yul\":4553:4562   */\n      dup8\n        /* \"#utility.yul\":4549:4571   */\n      add\n        /* \"#utility.yul\":4501:4581   */\n      tag_271\n      jump\t// in\n    tag_388:\n        /* \"#utility.yul\":4483:4581   */\n      swap4\n      pop\n      swap4\n      pop\n        /* \"#utility.yul\":4279:4591   */\n      pop\n        /* \"#utility.yul\":4630:4632   */\n      0x20\n        /* \"#utility.yul\":4656:4709   */\n      tag_389\n        /* \"#utility.yul\":4701:4708   */\n      dup7\n        /* \"#utility.yul\":4692:4698   */\n      dup3\n        /* \"#utility.yul\":4681:4690   */\n      dup8\n        /* \"#utility.yul\":4677:4699   */\n      add\n        /* \"#utility.yul\":4656:4709   */\n      tag_262\n      jump\t// in\n    tag_389:\n        /* \"#utility.yul\":4646:4709   */\n      swap2\n      pop\n        /* \"#utility.yul\":4601:4719   */\n      pop\n        /* \"#utility.yul\":4022:4726   */\n      swap3\n      pop\n      swap3\n      pop\n      swap3\n      jump\t// out\n        /* \"#utility.yul\":4732:4809   */\n    tag_272:\n        /* \"#utility.yul\":4769:4776   */\n      0x00\n        /* \"#utility.yul\":4798:4803   */\n      dup2\n        /* \"#utility.yul\":4787:4803   */\n      swap1\n      pop\n        /* \"#utility.yul\":4732:4809   */\n      swap2\n      swap1\n      pop\n      jump\t// out\n        /* \"#utility.yul\":4815:4937   */\n    tag_273:\n        /* \"#utility.yul\":4888:4912   */\n      tag_392\n        /* \"#utility.yul\":4906:4911   */\n      dup2\n        /* \"#utility.yul\":4888:4912   */\n      tag_272\n      jump\t// in\n    tag_392:\n        /* \"#utility.yul\":4881:4886   */\n      dup2\n        /* \"#utility.yul\":4878:4913   */\n      eq\n        /* \"#utility.yul\":4868:4931   */\n      tag_393\n      jumpi\n        /* \"#utility.yul\":4927:4928   */\n      0x00\n        /* \"#utility.yul\":4924:4925   */\n      0x00\n        /* \"#utility.yul\":4917:4929   */\n      revert\n        /* \"#utility.yul\":4868:4931   */\n    tag_393:\n        /* \"#utility.yul\":4815:4937   */\n      pop\n      jump\t// out\n        /* \"#utility.yul\":4943:5082   */\n    tag_274:\n        /* \"#utility.yul\":4989:4994   */\n      0x00\n        /* \"#utility.yul\":5027:5033   */\n      dup2\n        /* \"#utility.yul\":5014:5034   */\n      calldataload\n        /* \"#utility.yul\":5005:5034   */\n      swap1\n      pop\n        /* \"#utility.yul\":5043:5076   */\n      tag_395\n        /* \"#utility.yul\":5070:5075   */\n      dup2\n        /* \"#utility.yul\":5043:5076   */\n      tag_273\n      jump\t// in\n    tag_395:\n        /* \"#utility.yul\":4943:5082   */\n      swap3\n      swap2\n      pop\n      pop\n      jump\t// out\n        /* \"#utility.yul\":5088:5562   */\n    tag_41:\n        /* \"#utility.yul\":5156:5162   */\n      0x00\n        /* \"#utility.yul\":5164:5170   */\n      0x00\n        /* \"#utility.yul\":5213:5215   */\n      0x40\n        /* \"#utility.yul\":5201:5210   */\n      dup4\n        /* \"#utility.yul\":5192:5199   */\n      dup6\n        /* \"#utility.yul\":5188:5211   */\n      sub\n        /* \"#utility.yul\":5184:5216   */\n      slt\n        /* \"#utility.yul\":5181:5300   */\n      iszero\n      tag_397\n      jumpi\n        /* \"#utility.yul\":5219:5298   */\n      tag_398\n      tag_254\n      jump\t// in\n    tag_398:\n        /* \"#utility.yul\":5181:5300   */\n    tag_397:\n        /* \"#utility.yul\":5339:5340   */\n      0x00\n        /* \"#utility.yul\":5364:5417   */\n      tag_399\n        /* \"#utility.yul\":5409:5416   */\n      dup6\n        /* \"#utility.yul\":5400:5406   */\n      dup3\n        /* \"#utility.yul\":5389:5398   */\n      dup7\n        /* \"#utility.yul\":5385:5407   */\n      add\n        /* \"#utility.yul\":5364:5417   */\n      tag_274\n      jump\t// in\n    tag_399:\n        /* \"#utility.yul\":5354:5417   */\n      swap3\n      pop\n        /* \"#utility.yul\":5310:5427   */\n      pop\n        /* \"#utility.yul\":5466:5468   */\n      0x20\n        /* \"#utility.yul\":5492:5545   */\n      tag_400\n        /* \"#utility.yul\":5537:5544   */\n      dup6\n        /* \"#utility.yul\":5528:5534   */\n      dup3\n        /* \"#utility.yul\":5517:5526   */\n      dup7\n        /* \"#utility.yul\":5513:5535   */\n      add\n        /* \"#utility.yul\":5492:5545   */\n      tag_262\n      jump\t// in\n    tag_400:\n        /* \"#utility.yul\":5482:5545   */\n      swap2\n      pop\n        /* \"#utility.yul\":5437:5555   */\n      pop\n        /* \"#utility.yul\":5088:5562   */\n      swap3\n      pop\n      swap3\n      swap1\n      pop\n      jump\t// out\n        /* \"#utility.yul\":5568:5686   */\n    tag_275:\n        /* \"#utility.yul\":5655:5679   */\n      tag_402\n        /* \"#utility.yul\":5673:5678   */\n      dup2\n        /* \"#utility.yul\":5655:5679   */\n      tag_272\n      jump\t// in\n    tag_402:\n        /* \"#utility.yul\":5650:5653   */\n      dup3\n        /* \"#utility.yul\":5643:5680   */\n      mstore\n        /* \"#utility.yul\":5568:5686   */\n      pop\n      pop\n      jump\t// out\n        /* \"#utility.yul\":5692:5914   */\n    tag_46:\n        /* \"#utility.yul\":5785:5789   */\n      0x00\n        /* \"#utility.yul\":5823:5825   */\n      0x20\n        /* \"#utility.yul\":5812:5821   */\n      dup3\n        /* \"#utility.yul\":5808:5826   */\n      add\n        /* \"#utility.yul\":5800:5826   */\n      swap1\n      pop\n        /* \"#utility.yul\":5836:5907   */\n      tag_404\n        /* \"#utility.yul\":5904:5905   */\n      0x00\n        /* \"#utility.yul\":5893:5902   */\n      dup4\n        /* \"#utility.yul\":5889:5906   */\n      add\n        /* \"#utility.yul\":5880:5886   */\n      dup5\n        /* \"#utility.yul\":5836:5907   */\n      tag_275\n      jump\t// in\n    tag_404:\n        /* \"#utility.yul\":5692:5914   */\n      swap3\n      swap2\n      pop\n      pop\n      jump\t// out\n        /* \"#utility.yul\":5920:6249   */\n    tag_61:\n        /* \"#utility.yul\":5979:5985   */\n      0x00\n        /* \"#utility.yul\":6028:6030   */\n      0x20\n        /* \"#utility.yul\":6016:6025   */\n      dup3\n        /* \"#utility.yul\":6007:6014   */\n      dup5\n        /* \"#utility.yul\":6003:6026   */\n      sub\n        /* \"#utility.yul\":5999:6031   */\n      slt\n        /* \"#utility.yul\":5996:6115   */\n      iszero\n      tag_406\n      jumpi\n        /* \"#utility.yul\":6034:6113   */\n      tag_407\n      tag_254\n      jump\t// in\n    tag_407:\n        /* \"#utility.yul\":5996:6115   */\n    tag_406:\n        /* \"#utility.yul\":6154:6155   */\n      0x00\n        /* \"#utility.yul\":6179:6232   */\n      tag_408\n        /* \"#utility.yul\":6224:6231   */\n      dup5\n        /* \"#utility.yul\":6215:6221   */\n      dup3\n        /* \"#utility.yul\":6204:6213   */\n      dup6\n        /* \"#utility.yul\":6200:6222   */\n      add\n        /* \"#utility.yul\":6179:6232   */\n      tag_274\n      jump\t// in\n    tag_408:\n        /* \"#utility.yul\":6169:6232   */\n      swap2\n      pop\n        /* \"#utility.yul\":6125:6242   */\n      pop\n        /* \"#utility.yul\":5920:6249   */\n      swap3\n      swap2\n      pop\n      pop\n      jump\t// out\n        /* \"#utility.yul\":6255:6584   */\n    tag_65:\n        /* \"#utility.yul\":6314:6320   */\n      0x00\n        /* \"#utility.yul\":6363:6365   */\n      0x20\n        /* \"#utility.yul\":6351:6360   */\n      dup3\n        /* \"#utility.yul\":6342:6349   */\n      dup5\n        /* \"#utility.yul\":6338:6361   */\n      sub\n        /* \"#utility.yul\":6334:6366   */\n      slt\n        /* \"#utility.yul\":6331:6450   */\n      iszero\n      tag_410\n      jumpi\n        /* \"#utility.yul\":6369:6448   */\n      tag_411\n      tag_254\n      jump\t// in\n    tag_411:\n        /* \"#utility.yul\":6331:6450   */\n    tag_410:\n        /* \"#utility.yul\":6489:6490   */\n      0x00\n        /* \"#utility.yul\":6514:6567   */\n      tag_412\n        /* \"#utility.yul\":6559:6566   */\n      dup5\n        /* \"#utility.yul\":6550:6556   */\n      dup3\n        /* \"#utility.yul\":6539:6548   */\n      dup6\n        /* \"#utility.yul\":6535:6557   */\n      add\n        /* \"#utility.yul\":6514:6567   */\n      tag_258\n      jump\t// in\n    tag_412:\n        /* \"#utility.yul\":6504:6567   */\n      swap2\n      pop\n        /* \"#utility.yul\":6460:6577   */\n      pop\n        /* \"#utility.yul\":6255:6584   */\n      swap3\n      swap2\n      pop\n      pop\n      jump\t// out\n        /* \"#utility.yul\":6590:7064   */\n    tag_74:\n        /* \"#utility.yul\":6658:6664   */\n      0x00\n        /* \"#utility.yul\":6666:6672   */\n      0x00\n        /* \"#utility.yul\":6715:6717   */\n      0x40\n        /* \"#utility.yul\":6703:6712   */\n      dup4\n        /* \"#utility.yul\":6694:6701   */\n      dup6\n        /* \"#utility.yul\":6690:6713   */\n      sub\n        /* \"#utility.yul\":6686:6718   */\n      slt\n        /* \"#utility.yul\":6683:6802   */\n      iszero\n      tag_414\n      jumpi\n        /* \"#utility.yul\":6721:6800   */\n      tag_415\n      tag_254\n      jump\t// in\n    tag_415:\n        /* \"#utility.yul\":6683:6802   */\n    tag_414:\n        /* \"#utility.yul\":6841:6842   */\n      0x00\n        /* \"#utility.yul\":6866:6919   */\n      tag_416\n        /* \"#utility.yul\":6911:6918   */\n      dup6\n        /* \"#utility.yul\":6902:6908   */\n      dup3\n        /* \"#utility.yul\":6891:6900   */\n      dup7\n        /* \"#utility.yul\":6887:6909   */\n      add\n        /* \"#utility.yul\":6866:6919   */\n      tag_258\n      jump\t// in\n    tag_416:\n        /* \"#utility.yul\":6856:6919   */\n      swap3\n      pop\n        /* \"#utility.yul\":6812:6929   */\n      pop\n        /* \"#utility.yul\":6968:6970   */\n      0x20\n        /* \"#utility.yul\":6994:7047   */\n      tag_417\n        /* \"#utility.yul\":7039:7046   */\n      dup6\n        /* \"#utility.yul\":7030:7036   */\n      dup3\n        /* \"#utility.yul\":7019:7028   */\n      dup7\n        /* \"#utility.yul\":7015:7037   */\n      add\n        /* \"#utility.yul\":6994:7047   */\n      tag_258\n      jump\t// in\n    tag_417:\n        /* \"#utility.yul\":6984:7047   */\n      swap2\n      pop\n        /* \"#utility.yul\":6939:7057   */\n      pop\n        /* \"#utility.yul\":6590:7064   */\n      swap3\n      pop\n      swap3\n      swap1\n      pop\n      jump\t// out\n        /* \"#utility.yul\":7070:7178   */\n    tag_276:\n        /* \"#utility.yul\":7147:7171   */\n      tag_419\n        /* \"#utility.yul\":7165:7170   */\n      dup2\n        /* \"#utility.yul\":7147:7171   */\n      tag_256\n      jump\t// in\n    tag_419:\n        /* \"#utility.yul\":7142:7145   */\n      dup3\n        /* \"#utility.yul\":7135:7172   */\n      mstore\n        /* \"#utility.yul\":7070:7178   */\n      pop\n      pop\n      jump\t// out\n        /* \"#utility.yul\":7184:7292   */\n    tag_277:\n        /* \"#utility.yul\":7261:7285   */\n      tag_421\n        /* \"#utility.yul\":7279:7284   */\n      dup2\n        /* \"#utility.yul\":7261:7285   */\n      tag_260\n      jump\t// in\n    tag_421:\n        /* \"#utility.yul\":7256:7259   */\n      dup3\n        /* \"#utility.yul\":7249:7286   */\n      mstore\n        /* \"#utility.yul\":7184:7292   */\n      pop\n      pop\n      jump\t// out\n        /* \"#utility.yul\":7298:7478   */\n    tag_108:\n        /* \"#utility.yul\":7346:7423   */\n      0x4e487b7100000000000000000000000000000000000000000000000000000000\n        /* \"#utility.yul\":7343:7344   */\n      0x00\n        /* \"#utility.yul\":7336:7424   */\n      mstore\n        /* \"#utility.yul\":7443:7447   */\n      0x21\n        /* \"#utility.yul\":7440:7441   */\n      0x04\n        /* \"#utility.yul\":7433:7448   */\n      mstore\n        /* \"#utility.yul\":7467:7471   */\n      0x24\n        /* \"#utility.yul\":7464:7465   */\n      0x00\n        /* \"#utility.yul\":7457:7472   */\n      revert\n        /* \"#utility.yul\":7484:7602   */\n    tag_278:\n        /* \"#utility.yul\":7570:7571   */\n      0x07\n        /* \"#utility.yul\":7563:7568   */\n      dup2\n        /* \"#utility.yul\":7560:7572   */\n      lt\n        /* \"#utility.yul\":7550:7596   */\n      tag_424\n      jumpi\n        /* \"#utility.yul\":7576:7594   */\n      tag_425\n      tag_108\n      jump\t// in\n    tag_425:\n        /* \"#utility.yul\":7550:7596   */\n    tag_424:\n        /* \"#utility.yul\":7484:7602   */\n      pop\n      jump\t// out\n        /* \"#utility.yul\":7608:7745   */\n    tag_279:\n        /* \"#utility.yul\":7658:7665   */\n      0x00\n        /* \"#utility.yul\":7687:7692   */\n      dup2\n        /* \"#utility.yul\":7676:7692   */\n      swap1\n      pop\n        /* \"#utility.yul\":7693:7739   */\n      tag_427\n        /* \"#utility.yul\":7733:7738   */\n      dup3\n        /* \"#utility.yul\":7693:7739   */\n      tag_278\n      jump\t// in\n    tag_427:\n        /* \"#utility.yul\":7608:7745   */\n      swap2\n      swap1\n      pop\n      jump\t// out\n        /* \"#utility.yul\":7751:7888   */\n    tag_280:\n        /* \"#utility.yul\":7812:7821   */\n      0x00\n        /* \"#utility.yul\":7845:7882   */\n      tag_429\n        /* \"#utility.yul\":7876:7881   */\n      dup3\n        /* \"#utility.yul\":7845:7882   */\n      tag_279\n      jump\t// in\n    tag_429:\n        /* \"#utility.yul\":7832:7882   */\n      swap1\n      pop\n        /* \"#utility.yul\":7751:7888   */\n      swap2\n      swap1\n      pop\n      jump\t// out\n        /* \"#utility.yul\":7894:8037   */\n    tag_281:\n        /* \"#utility.yul\":7982:8030   */\n      tag_431\n        /* \"#utility.yul\":8024:8029   */\n      dup2\n        /* \"#utility.yul\":7982:8030   */\n      tag_280\n      jump\t// in\n    tag_431:\n        /* \"#utility.yul\":7977:7980   */\n      dup3\n        /* \"#utility.yul\":7970:8031   */\n      mstore\n        /* \"#utility.yul\":7894:8037   */\n      pop\n      pop\n      jump\t// out\n        /* \"#utility.yul\":8043:8142   */\n    tag_282:\n        /* \"#utility.yul\":8095:8101   */\n      0x00\n        /* \"#utility.yul\":8129:8134   */\n      dup2\n        /* \"#utility.yul\":8123:8135   */\n      mload\n        /* \"#utility.yul\":8113:8135   */\n      swap1\n      pop\n        /* \"#utility.yul\":8043:8142   */\n      swap2\n      swap1\n      pop\n      jump\t// out\n        /* \"#utility.yul\":8148:8307   */\n    tag_283:\n        /* \"#utility.yul\":8222:8233   */\n      0x00\n        /* \"#utility.yul\":8256:8262   */\n      dup3\n        /* \"#utility.yul\":8251:8254   */\n      dup3\n        /* \"#utility.yul\":8244:8263   */\n      mstore\n        /* \"#utility.yul\":8296:8300   */\n      0x20\n        /* \"#utility.yul\":8291:8294   */\n      dup3\n        /* \"#utility.yul\":8287:8301   */\n      add\n        /* \"#utility.yul\":8272:8301   */\n      swap1\n      pop\n        /* \"#utility.yul\":8148:8307   */\n      swap3\n      swap2\n      pop\n      pop\n      jump\t// out\n        /* \"#utility.yul\":8313:8452   */\n    tag_284:\n        /* \"#utility.yul\":8402:8408   */\n      dup3\n        /* \"#utility.yul\":8397:8400   */\n      dup2\n        /* \"#utility.yul\":8392:8395   */\n      dup4\n        /* \"#utility.yul\":8386:8409   */\n      mcopy\n        /* \"#utility.yul\":8443:8444   */\n      0x00\n        /* \"#utility.yul\":8434:8440   */\n      dup4\n        /* \"#utility.yul\":8429:8432   */\n      dup4\n        /* \"#utility.yul\":8425:8441   */\n      add\n        /* \"#utility.yul\":8418:8445   */\n      mstore\n        /* \"#utility.yul\":8313:8452   */\n      pop\n      pop\n      pop\n      jump\t// out\n        /* \"#utility.yul\":8458:8560   */\n    tag_285:\n        /* \"#utility.yul\":8499:8505   */\n      0x00\n        /* \"#utility.yul\":8550:8552   */\n      0x1f\n        /* \"#utility.yul\":8546:8553   */\n      not\n        /* \"#utility.yul\":8541:8543   */\n      0x1f\n        /* \"#utility.yul\":8534:8539   */\n      dup4\n        /* \"#utility.yul\":8530:8544   */\n      add\n        /* \"#utility.yul\":8526:8554   */\n      and\n        /* \"#utility.yul\":8516:8554   */\n      swap1\n      pop\n        /* \"#utility.yul\":8458:8560   */\n      swap2\n      swap1\n      pop\n      jump\t// out\n        /* \"#utility.yul\":8566:8923   */\n    tag_286:\n        /* \"#utility.yul\":8644:8647   */\n      0x00\n        /* \"#utility.yul\":8672:8711   */\n      tag_437\n        /* \"#utility.yul\":8705:8710   */\n      dup3\n        /* \"#utility.yul\":8672:8711   */\n      tag_282\n      jump\t// in\n    tag_437:\n        /* \"#utility.yul\":8727:8788   */\n      tag_438\n        /* \"#utility.yul\":8781:8787   */\n      dup2\n        /* \"#utility.yul\":8776:8779   */\n      dup6\n        /* \"#utility.yul\":8727:8788   */\n      tag_283\n      jump\t// in\n    tag_438:\n        /* \"#utility.yul\":8720:8788   */\n      swap4\n      pop\n        /* \"#utility.yul\":8797:8862   */\n      tag_439\n        /* \"#utility.yul\":8855:8861   */\n      dup2\n        /* \"#utility.yul\":8850:8853   */\n      dup6\n        /* \"#utility.yul\":8843:8847   */\n      0x20\n        /* \"#utility.yul\":8836:8841   */\n      dup7\n        /* \"#utility.yul\":8832:8848   */\n      add\n        /* \"#utility.yul\":8797:8862   */\n      tag_284\n      jump\t// in\n    tag_439:\n        /* \"#utility.yul\":8887:8916   */\n      tag_440\n        /* \"#utility.yul\":8909:8915   */\n      dup2\n        /* \"#utility.yul\":8887:8916   */\n      tag_285\n      jump\t// in\n    tag_440:\n        /* \"#utility.yul\":8882:8885   */\n      dup5\n        /* \"#utility.yul\":8878:8917   */\n      add\n        /* \"#utility.yul\":8871:8917   */\n      swap2\n      pop\n        /* \"#utility.yul\":8648:8923   */\n      pop\n        /* \"#utility.yul\":8566:8923   */\n      swap3\n      swap2\n      pop\n      pop\n      jump\t// out\n        /* \"#utility.yul\":8993:10335   */\n    tag_287:\n        /* \"#utility.yul\":9114:9117   */\n      0x00\n        /* \"#utility.yul\":9150:9154   */\n      0xc0\n        /* \"#utility.yul\":9145:9148   */\n      dup4\n        /* \"#utility.yul\":9141:9155   */\n      add\n        /* \"#utility.yul\":9246:9250   */\n      0x00\n        /* \"#utility.yul\":9239:9244   */\n      dup4\n        /* \"#utility.yul\":9235:9251   */\n      add\n        /* \"#utility.yul\":9229:9252   */\n      mload\n        /* \"#utility.yul\":9265:9328   */\n      tag_442\n        /* \"#utility.yul\":9322:9326   */\n      0x00\n        /* \"#utility.yul\":9317:9320   */\n      dup7\n        /* \"#utility.yul\":9313:9327   */\n      add\n        /* \"#utility.yul\":9299:9311   */\n      dup3\n        /* \"#utility.yul\":9265:9328   */\n      tag_276\n      jump\t// in\n    tag_442:\n        /* \"#utility.yul\":9165:9338   */\n      pop\n        /* \"#utility.yul\":9421:9425   */\n      0x20\n        /* \"#utility.yul\":9414:9419   */\n      dup4\n        /* \"#utility.yul\":9410:9426   */\n      add\n        /* \"#utility.yul\":9404:9427   */\n      mload\n        /* \"#utility.yul\":9440:9503   */\n      tag_443\n        /* \"#utility.yul\":9497:9501   */\n      0x20\n        /* \"#utility.yul\":9492:9495   */\n      dup7\n        /* \"#utility.yul\":9488:9502   */\n      add\n        /* \"#utility.yul\":9474:9486   */\n      dup3\n        /* \"#utility.yul\":9440:9503   */\n      tag_277\n      jump\t// in\n    tag_443:\n        /* \"#utility.yul\":9348:9513   */\n      pop\n        /* \"#utility.yul\":9597:9601   */\n      0x40\n        /* \"#utility.yul\":9590:9595   */\n      dup4\n        /* \"#utility.yul\":9586:9602   */\n      add\n        /* \"#utility.yul\":9580:9603   */\n      mload\n        /* \"#utility.yul\":9616:9690   */\n      tag_444\n        /* \"#utility.yul\":9684:9688   */\n      0x40\n        /* \"#utility.yul\":9679:9682   */\n      dup7\n        /* \"#utility.yul\":9675:9689   */\n      add\n        /* \"#utility.yul\":9661:9673   */\n      dup3\n        /* \"#utility.yul\":9616:9690   */\n      tag_281\n      jump\t// in\n    tag_444:\n        /* \"#utility.yul\":9523:9700   */\n      pop\n        /* \"#utility.yul\":9785:9789   */\n      0x60\n        /* \"#utility.yul\":9778:9783   */\n      dup4\n        /* \"#utility.yul\":9774:9790   */\n      add\n        /* \"#utility.yul\":9768:9791   */\n      mload\n        /* \"#utility.yul\":9838:9841   */\n      dup5\n        /* \"#utility.yul\":9832:9836   */\n      dup3\n        /* \"#utility.yul\":9828:9842   */\n      sub\n        /* \"#utility.yul\":9821:9825   */\n      0x60\n        /* \"#utility.yul\":9816:9819   */\n      dup7\n        /* \"#utility.yul\":9812:9826   */\n      add\n        /* \"#utility.yul\":9805:9843   */\n      mstore\n        /* \"#utility.yul\":9864:9937   */\n      tag_445\n        /* \"#utility.yul\":9932:9936   */\n      dup3\n        /* \"#utility.yul\":9918:9930   */\n      dup3\n        /* \"#utility.yul\":9864:9937   */\n      tag_286\n      jump\t// in\n    tag_445:\n        /* \"#utility.yul\":9856:9937   */\n      swap2\n      pop\n        /* \"#utility.yul\":9710:9948   */\n      pop\n        /* \"#utility.yul\":10035:10039   */\n      0x80\n        /* \"#utility.yul\":10028:10033   */\n      dup4\n        /* \"#utility.yul\":10024:10040   */\n      add\n        /* \"#utility.yul\":10018:10041   */\n      mload\n        /* \"#utility.yul\":10054:10117   */\n      tag_446\n        /* \"#utility.yul\":10111:10115   */\n      0x80\n        /* \"#utility.yul\":10106:10109   */\n      dup7\n        /* \"#utility.yul\":10102:10116   */\n      add\n        /* \"#utility.yul\":10088:10100   */\n      dup3\n        /* \"#utility.yul\":10054:10117   */\n      tag_276\n      jump\t// in\n    tag_446:\n        /* \"#utility.yul\":9958:10127   */\n      pop\n        /* \"#utility.yul\":10216:10220   */\n      0xa0\n        /* \"#utility.yul\":10209:10214   */\n      dup4\n        /* \"#utility.yul\":10205:10221   */\n      add\n        /* \"#utility.yul\":10199:10222   */\n      mload\n        /* \"#utility.yul\":10235:10298   */\n      tag_447\n        /* \"#utility.yul\":10292:10296   */\n      0xa0\n        /* \"#utility.yul\":10287:10290   */\n      dup7\n        /* \"#utility.yul\":10283:10297   */\n      add\n        /* \"#utility.yul\":10269:10281   */\n      dup3\n        /* \"#utility.yul\":10235:10298   */\n      tag_276\n      jump\t// in\n    tag_447:\n        /* \"#utility.yul\":10137:10308   */\n      pop\n        /* \"#utility.yul\":10325:10329   */\n      dup1\n        /* \"#utility.yul\":10318:10329   */\n      swap2\n      pop\n        /* \"#utility.yul\":9119:10335   */\n      pop\n        /* \"#utility.yul\":8993:10335   */\n      swap3\n      swap2\n      pop\n      pop\n      jump\t// out\n        /* \"#utility.yul\":10341:10718   */\n    tag_77:\n        /* \"#utility.yul\":10486:10490   */\n      0x00\n        /* \"#utility.yul\":10524:10526   */\n      0x20\n        /* \"#utility.yul\":10513:10522   */\n      dup3\n        /* \"#utility.yul\":10509:10527   */\n      add\n        /* \"#utility.yul\":10501:10527   */\n      swap1\n      pop\n        /* \"#utility.yul\":10573:10582   */\n      dup2\n        /* \"#utility.yul\":10567:10571   */\n      dup2\n        /* \"#utility.yul\":10563:10583   */\n      sub\n        /* \"#utility.yul\":10559:10560   */\n      0x00\n        /* \"#utility.yul\":10548:10557   */\n      dup4\n        /* \"#utility.yul\":10544:10561   */\n      add\n        /* \"#utility.yul\":10537:10584   */\n      mstore\n        /* \"#utility.yul\":10601:10711   */\n      tag_449\n        /* \"#utility.yul\":10706:10710   */\n      dup2\n        /* \"#utility.yul\":10697:10703   */\n      dup5\n        /* \"#utility.yul\":10601:10711   */\n      tag_287\n      jump\t// in\n    tag_449:\n        /* \"#utility.yul\":10593:10711   */\n      swap1\n      pop\n        /* \"#utility.yul\":10341:10718   */\n      swap3\n      swap2\n      pop\n      pop\n      jump\t// out\n        /* \"#utility.yul\":10724:10864   */\n    tag_288:\n        /* \"#utility.yul\":10817:10823   */\n      0x00\n        /* \"#utility.yul\":10851:10856   */\n      dup2\n        /* \"#utility.yul\":10845:10857   */\n      mload\n        /* \"#utility.yul\":10835:10857   */\n      swap1\n      pop\n        /* \"#utility.yul\":10724:10864   */\n      swap2\n      swap1\n      pop\n      jump\t// out\n        /* \"#utility.yul\":10870:11080   */\n    tag_289:\n        /* \"#utility.yul\":10995:11006   */\n      0x00\n        /* \"#utility.yul\":11029:11035   */\n      dup3\n        /* \"#utility.yul\":11024:11027   */\n      dup3\n        /* \"#utility.yul\":11017:11036   */\n      mstore\n        /* \"#utility.yul\":11069:11073   */\n      0x20\n        /* \"#utility.yul\":11064:11067   */\n      dup3\n        /* \"#utility.yul\":11060:11074   */\n      add\n        /* \"#utility.yul\":11045:11074   */\n      swap1\n      pop\n        /* \"#utility.yul\":10870:11080   */\n      swap3\n      swap2\n      pop\n      pop\n      jump\t// out\n        /* \"#utility.yul\":11086:11244   */\n    tag_290:\n        /* \"#utility.yul\":11179:11183   */\n      0x00\n        /* \"#utility.yul\":11202:11205   */\n      dup2\n        /* \"#utility.yul\":11194:11205   */\n      swap1\n      pop\n        /* \"#utility.yul\":11232:11236   */\n      0x20\n        /* \"#utility.yul\":11227:11230   */\n      dup3\n        /* \"#utility.yul\":11223:11237   */\n      add\n        /* \"#utility.yul\":11215:11237   */\n      swap1\n      pop\n        /* \"#utility.yul\":11086:11244   */\n      swap2\n      swap1\n      pop\n      jump\t// out\n        /* \"#utility.yul\":11314:12646   */\n    tag_291:\n        /* \"#utility.yul\":11425:11428   */\n      0x00\n        /* \"#utility.yul\":11461:11465   */\n      0xc0\n        /* \"#utility.yul\":11456:11459   */\n      dup4\n        /* \"#utility.yul\":11452:11466   */\n      add\n        /* \"#utility.yul\":11557:11561   */\n      0x00\n        /* \"#utility.yul\":11550:11555   */\n      dup4\n        /* \"#utility.yul\":11546:11562   */\n      add\n        /* \"#utility.yul\":11540:11563   */\n      mload\n        /* \"#utility.yul\":11576:11639   */\n      tag_454\n        /* \"#utility.yul\":11633:11637   */\n      0x00\n        /* \"#utility.yul\":11628:11631   */\n      dup7\n        /* \"#utility.yul\":11624:11638   */\n      add\n        /* \"#utility.yul\":11610:11622   */\n      dup3\n        /* \"#utility.yul\":11576:11639   */\n      tag_276\n      jump\t// in\n    tag_454:\n        /* \"#utility.yul\":11476:11649   */\n      pop\n        /* \"#utility.yul\":11732:11736   */\n      0x20\n        /* \"#utility.yul\":11725:11730   */\n      dup4\n        /* \"#utility.yul\":11721:11737   */\n      add\n        /* \"#utility.yul\":11715:11738   */\n      mload\n        /* \"#utility.yul\":11751:11814   */\n      tag_455\n        /* \"#utility.yul\":11808:11812   */\n      0x20\n        /* \"#utility.yul\":11803:11806   */\n      dup7\n        /* \"#utility.yul\":11799:11813   */\n      add\n        /* \"#utility.yul\":11785:11797   */\n      dup3\n        /* \"#utility.yul\":11751:11814   */\n      tag_277\n      jump\t// in\n    tag_455:\n        /* \"#utility.yul\":11659:11824   */\n      pop\n        /* \"#utility.yul\":11908:11912   */\n      0x40\n        /* \"#utility.yul\":11901:11906   */\n      dup4\n        /* \"#utility.yul\":11897:11913   */\n      add\n        /* \"#utility.yul\":11891:11914   */\n      mload\n        /* \"#utility.yul\":11927:12001   */\n      tag_456\n        /* \"#utility.yul\":11995:11999   */\n      0x40\n        /* \"#utility.yul\":11990:11993   */\n      dup7\n        /* \"#utility.yul\":11986:12000   */\n      add\n        /* \"#utility.yul\":11972:11984   */\n      dup3\n        /* \"#utility.yul\":11927:12001   */\n      tag_281\n      jump\t// in\n    tag_456:\n        /* \"#utility.yul\":11834:12011   */\n      pop\n        /* \"#utility.yul\":12096:12100   */\n      0x60\n        /* \"#utility.yul\":12089:12094   */\n      dup4\n        /* \"#utility.yul\":12085:12101   */\n      add\n        /* \"#utility.yul\":12079:12102   */\n      mload\n        /* \"#utility.yul\":12149:12152   */\n      dup5\n        /* \"#utility.yul\":12143:12147   */\n      dup3\n        /* \"#utility.yul\":12139:12153   */\n      sub\n        /* \"#utility.yul\":12132:12136   */\n      0x60\n        /* \"#utility.yul\":12127:12130   */\n      dup7\n        /* \"#utility.yul\":12123:12137   */\n      add\n        /* \"#utility.yul\":12116:12154   */\n      mstore\n        /* \"#utility.yul\":12175:12248   */\n      tag_457\n        /* \"#utility.yul\":12243:12247   */\n      dup3\n        /* \"#utility.yul\":12229:12241   */\n      dup3\n        /* \"#utility.yul\":12175:12248   */\n      tag_286\n      jump\t// in\n    tag_457:\n        /* \"#utility.yul\":12167:12248   */\n      swap2\n      pop\n        /* \"#utility.yul\":12021:12259   */\n      pop\n        /* \"#utility.yul\":12346:12350   */\n      0x80\n        /* \"#utility.yul\":12339:12344   */\n      dup4\n        /* \"#utility.yul\":12335:12351   */\n      add\n        /* \"#utility.yul\":12329:12352   */\n      mload\n        /* \"#utility.yul\":12365:12428   */\n      tag_458\n        /* \"#utility.yul\":12422:12426   */\n      0x80\n        /* \"#utility.yul\":12417:12420   */\n      dup7\n        /* \"#utility.yul\":12413:12427   */\n      add\n        /* \"#utility.yul\":12399:12411   */\n      dup3\n        /* \"#utility.yul\":12365:12428   */\n      tag_276\n      jump\t// in\n    tag_458:\n        /* \"#utility.yul\":12269:12438   */\n      pop\n        /* \"#utility.yul\":12527:12531   */\n      0xa0\n        /* \"#utility.yul\":12520:12525   */\n      dup4\n        /* \"#utility.yul\":12516:12532   */\n      add\n        /* \"#utility.yul\":12510:12533   */\n      mload\n        /* \"#utility.yul\":12546:12609   */\n      tag_459\n        /* \"#utility.yul\":12603:12607   */\n      0xa0\n        /* \"#utility.yul\":12598:12601   */\n      dup7\n        /* \"#utility.yul\":12594:12608   */\n      add\n        /* \"#utility.yul\":12580:12592   */\n      dup3\n        /* \"#utility.yul\":12546:12609   */\n      tag_276\n      jump\t// in\n    tag_459:\n        /* \"#utility.yul\":12448:12619   */\n      pop\n        /* \"#utility.yul\":12636:12640   */\n      dup1\n        /* \"#utility.yul\":12629:12640   */\n      swap2\n      pop\n        /* \"#utility.yul\":11430:12646   */\n      pop\n        /* \"#utility.yul\":11314:12646   */\n      swap3\n      swap2\n      pop\n      pop\n      jump\t// out\n        /* \"#utility.yul\":12652:12912   */\n    tag_292:\n        /* \"#utility.yul\":12773:12783   */\n      0x00\n        /* \"#utility.yul\":12808:12906   */\n      tag_461\n        /* \"#utility.yul\":12902:12905   */\n      dup4\n        /* \"#utility.yul\":12894:12900   */\n      dup4\n        /* \"#utility.yul\":12808:12906   */\n      tag_291\n      jump\t// in\n    tag_461:\n        /* \"#utility.yul\":12794:12906   */\n      swap1\n      pop\n        /* \"#utility.yul\":12652:12912   */\n      swap3\n      swap2\n      pop\n      pop\n      jump\t// out\n        /* \"#utility.yul\":12918:13057   */\n    tag_293:\n        /* \"#utility.yul\":13014:13018   */\n      0x00\n        /* \"#utility.yul\":13046:13050   */\n      0x20\n        /* \"#utility.yul\":13041:13044   */\n      dup3\n        /* \"#utility.yul\":13037:13051   */\n      add\n        /* \"#utility.yul\":13029:13051   */\n      swap1\n      pop\n        /* \"#utility.yul\":12918:13057   */\n      swap2\n      swap1\n      pop\n      jump\t// out\n        /* \"#utility.yul\":13131:14250   */\n    tag_294:\n        /* \"#utility.yul\":13302:13305   */\n      0x00\n        /* \"#utility.yul\":13331:13411   */\n      tag_464\n        /* \"#utility.yul\":13405:13410   */\n      dup3\n        /* \"#utility.yul\":13331:13411   */\n      tag_288\n      jump\t// in\n    tag_464:\n        /* \"#utility.yul\":13427:13539   */\n      tag_465\n        /* \"#utility.yul\":13532:13538   */\n      dup2\n        /* \"#utility.yul\":13527:13530   */\n      dup6\n        /* \"#utility.yul\":13427:13539   */\n      tag_289\n      jump\t// in\n    tag_465:\n        /* \"#utility.yul\":13420:13539   */\n      swap4\n      pop\n        /* \"#utility.yul\":13565:13568   */\n      dup4\n        /* \"#utility.yul\":13610:13614   */\n      0x20\n        /* \"#utility.yul\":13602:13608   */\n      dup3\n        /* \"#utility.yul\":13598:13615   */\n      mul\n        /* \"#utility.yul\":13593:13596   */\n      dup6\n        /* \"#utility.yul\":13589:13616   */\n      add\n        /* \"#utility.yul\":13640:13722   */\n      tag_466\n        /* \"#utility.yul\":13716:13721   */\n      dup6\n        /* \"#utility.yul\":13640:13722   */\n      tag_290\n      jump\t// in\n    tag_466:\n        /* \"#utility.yul\":13745:13752   */\n      dup1\n        /* \"#utility.yul\":13776:13777   */\n      0x00\n        /* \"#utility.yul\":13761:14205   */\n    tag_467:\n        /* \"#utility.yul\":13786:13792   */\n      dup6\n        /* \"#utility.yul\":13783:13784   */\n      dup2\n        /* \"#utility.yul\":13780:13793   */\n      lt\n        /* \"#utility.yul\":13761:14205   */\n      iszero\n      tag_469\n      jumpi\n        /* \"#utility.yul\":13857:13866   */\n      dup5\n        /* \"#utility.yul\":13851:13855   */\n      dup5\n        /* \"#utility.yul\":13847:13867   */\n      sub\n        /* \"#utility.yul\":13842:13845   */\n      dup10\n        /* \"#utility.yul\":13835:13868   */\n      mstore\n        /* \"#utility.yul\":13908:13914   */\n      dup2\n        /* \"#utility.yul\":13902:13915   */\n      mload\n        /* \"#utility.yul\":13936:14052   */\n      tag_470\n        /* \"#utility.yul\":14047:14051   */\n      dup6\n        /* \"#utility.yul\":14032:14045   */\n      dup3\n        /* \"#utility.yul\":13936:14052   */\n      tag_292\n      jump\t// in\n    tag_470:\n        /* \"#utility.yul\":13928:14052   */\n      swap5\n      pop\n        /* \"#utility.yul\":14075:14161   */\n      tag_471\n        /* \"#utility.yul\":14154:14160   */\n      dup4\n        /* \"#utility.yul\":14075:14161   */\n      tag_293\n      jump\t// in\n    tag_471:\n        /* \"#utility.yul\":14065:14161   */\n      swap3\n      pop\n        /* \"#utility.yul\":14190:14194   */\n      0x20\n        /* \"#utility.yul\":14185:14188   */\n      dup11\n        /* \"#utility.yul\":14181:14195   */\n      add\n        /* \"#utility.yul\":14174:14195   */\n      swap10\n      pop\n        /* \"#utility.yul\":13821:14205   */\n      pop\n        /* \"#utility.yul\":13808:13809   */\n      0x01\n        /* \"#utility.yul\":13805:13806   */\n      dup2\n        /* \"#utility.yul\":13801:13810   */\n      add\n        /* \"#utility.yul\":13796:13810   */\n      swap1\n      pop\n        /* \"#utility.yul\":13761:14205   */\n      jump(tag_467)\n    tag_469:\n        /* \"#utility.yul\":13765:13779   */\n      pop\n        /* \"#utility.yul\":14221:14225   */\n      dup3\n        /* \"#utility.yul\":14214:14225   */\n      swap8\n      pop\n        /* \"#utility.yul\":14241:14244   */\n      dup8\n        /* \"#utility.yul\":14234:14244   */\n      swap6\n      pop\n        /* \"#utility.yul\":13307:14250   */\n      pop\n      pop\n      pop\n      pop\n      pop\n        /* \"#utility.yul\":13131:14250   */\n      swap3\n      swap2\n      pop\n      pop\n      jump\t// out\n        /* \"#utility.yul\":14256:14733   */\n    tag_85:\n        /* \"#utility.yul\":14451:14455   */\n      0x00\n        /* \"#utility.yul\":14489:14491   */\n      0x20\n        /* \"#utility.yul\":14478:14487   */\n      dup3\n        /* \"#utility.yul\":14474:14492   */\n      add\n        /* \"#utility.yul\":14466:14492   */\n      swap1\n      pop\n        /* \"#utility.yul\":14538:14547   */\n      dup2\n        /* \"#utility.yul\":14532:14536   */\n      dup2\n        /* \"#utility.yul\":14528:14548   */\n      sub\n        /* \"#utility.yul\":14524:14525   */\n      0x00\n        /* \"#utility.yul\":14513:14522   */\n      dup4\n        /* \"#utility.yul\":14509:14526   */\n      add\n        /* \"#utility.yul\":14502:14549   */\n      mstore\n        /* \"#utility.yul\":14566:14726   */\n      tag_473\n        /* \"#utility.yul\":14721:14725   */\n      dup2\n        /* \"#utility.yul\":14712:14718   */\n      dup5\n        /* \"#utility.yul\":14566:14726   */\n      tag_294\n      jump\t// in\n    tag_473:\n        /* \"#utility.yul\":14558:14726   */\n      swap1\n      pop\n        /* \"#utility.yul\":14256:14733   */\n      swap3\n      swap2\n      pop\n      pop\n      jump\t// out\n        /* \"#utility.yul\":14753:15306   */\n    tag_295:\n        /* \"#utility.yul\":14811:14819   */\n      0x00\n        /* \"#utility.yul\":14821:14827   */\n      0x00\n        /* \"#utility.yul\":14871:14874   */\n      dup4\n        /* \"#utility.yul\":14864:14868   */\n      0x1f\n        /* \"#utility.yul\":14856:14862   */\n      dup5\n        /* \"#utility.yul\":14852:14869   */\n      add\n        /* \"#utility.yul\":14848:14875   */\n      slt\n        /* \"#utility.yul\":14838:14960   */\n      tag_475\n      jumpi\n        /* \"#utility.yul\":14879:14958   */\n      tag_476\n      tag_268\n      jump\t// in\n    tag_476:\n        /* \"#utility.yul\":14838:14960   */\n    tag_475:\n        /* \"#utility.yul\":14992:14998   */\n      dup3\n        /* \"#utility.yul\":14979:14999   */\n      calldataload\n        /* \"#utility.yul\":14969:14999   */\n      swap1\n      pop\n        /* \"#utility.yul\":15022:15040   */\n      0xffffffffffffffff\n        /* \"#utility.yul\":15014:15020   */\n      dup2\n        /* \"#utility.yul\":15011:15041   */\n      gt\n        /* \"#utility.yul\":15008:15125   */\n      iszero\n      tag_477\n      jumpi\n        /* \"#utility.yul\":15044:15123   */\n      tag_478\n      tag_269\n      jump\t// in\n    tag_478:\n        /* \"#utility.yul\":15008:15125   */\n    tag_477:\n        /* \"#utility.yul\":15158:15162   */\n      0x20\n        /* \"#utility.yul\":15150:15156   */\n      dup4\n        /* \"#utility.yul\":15146:15163   */\n      add\n        /* \"#utility.yul\":15134:15163   */\n      swap2\n      pop\n        /* \"#utility.yul\":15212:15215   */\n      dup4\n        /* \"#utility.yul\":15204:15208   */\n      0x01\n        /* \"#utility.yul\":15196:15202   */\n      dup3\n        /* \"#utility.yul\":15192:15209   */\n      mul\n        /* \"#utility.yul\":15182:15190   */\n      dup4\n        /* \"#utility.yul\":15178:15210   */\n      add\n        /* \"#utility.yul\":15175:15216   */\n      gt\n        /* \"#utility.yul\":15172:15300   */\n      iszero\n      tag_479\n      jumpi\n        /* \"#utility.yul\":15219:15298   */\n      tag_480\n      tag_270\n      jump\t// in\n    tag_480:\n        /* \"#utility.yul\":15172:15300   */\n    tag_479:\n        /* \"#utility.yul\":14753:15306   */\n      swap3\n      pop\n      swap3\n      swap1\n      pop\n      jump\t// out\n        /* \"#utility.yul\":15312:16303   */\n    tag_98:\n        /* \"#utility.yul\":15423:15429   */\n      0x00\n        /* \"#utility.yul\":15431:15437   */\n      0x00\n        /* \"#utility.yul\":15439:15445   */\n      0x00\n        /* \"#utility.yul\":15447:15453   */\n      0x00\n        /* \"#utility.yul\":15455:15461   */\n      0x00\n        /* \"#utility.yul\":15504:15507   */\n      0x80\n        /* \"#utility.yul\":15492:15501   */\n      dup7\n        /* \"#utility.yul\":15483:15490   */\n      dup9\n        /* \"#utility.yul\":15479:15502   */\n      sub\n        /* \"#utility.yul\":15475:15508   */\n      slt\n        /* \"#utility.yul\":15472:15592   */\n      iszero\n      tag_482\n      jumpi\n        /* \"#utility.yul\":15511:15590   */\n      tag_483\n      tag_254\n      jump\t// in\n    tag_483:\n        /* \"#utility.yul\":15472:15592   */\n    tag_482:\n        /* \"#utility.yul\":15631:15632   */\n      0x00\n        /* \"#utility.yul\":15656:15709   */\n      tag_484\n        /* \"#utility.yul\":15701:15708   */\n      dup9\n        /* \"#utility.yul\":15692:15698   */\n      dup3\n        /* \"#utility.yul\":15681:15690   */\n      dup10\n        /* \"#utility.yul\":15677:15699   */\n      add\n        /* \"#utility.yul\":15656:15709   */\n      tag_258\n      jump\t// in\n    tag_484:\n        /* \"#utility.yul\":15646:15709   */\n      swap6\n      pop\n        /* \"#utility.yul\":15602:15719   */\n      pop\n        /* \"#utility.yul\":15758:15760   */\n      0x20\n        /* \"#utility.yul\":15784:15837   */\n      tag_485\n        /* \"#utility.yul\":15829:15836   */\n      dup9\n        /* \"#utility.yul\":15820:15826   */\n      dup3\n        /* \"#utility.yul\":15809:15818   */\n      dup10\n        /* \"#utility.yul\":15805:15827   */\n      add\n        /* \"#utility.yul\":15784:15837   */\n      tag_262\n      jump\t// in\n    tag_485:\n        /* \"#utility.yul\":15774:15837   */\n      swap5\n      pop\n        /* \"#utility.yul\":15729:15847   */\n      pop\n        /* \"#utility.yul\":15886:15888   */\n      0x40\n        /* \"#utility.yul\":15912:15978   */\n      tag_486\n        /* \"#utility.yul\":15970:15977   */\n      dup9\n        /* \"#utility.yul\":15961:15967   */\n      dup3\n        /* \"#utility.yul\":15950:15959   */\n      dup10\n        /* \"#utility.yul\":15946:15968   */\n      add\n        /* \"#utility.yul\":15912:15978   */\n      tag_264\n      jump\t// in\n    tag_486:\n        /* \"#utility.yul\":15902:15978   */\n      swap4\n      pop\n        /* \"#utility.yul\":15857:15988   */\n      pop\n        /* \"#utility.yul\":16055:16057   */\n      0x60\n        /* \"#utility.yul\":16044:16053   */\n      dup7\n        /* \"#utility.yul\":16040:16058   */\n      add\n        /* \"#utility.yul\":16027:16059   */\n      calldataload\n        /* \"#utility.yul\":16086:16104   */\n      0xffffffffffffffff\n        /* \"#utility.yul\":16078:16084   */\n      dup2\n        /* \"#utility.yul\":16075:16105   */\n      gt\n        /* \"#utility.yul\":16072:16189   */\n      iszero\n      tag_487\n      jumpi\n        /* \"#utility.yul\":16108:16187   */\n      tag_488\n      tag_255\n      jump\t// in\n    tag_488:\n        /* \"#utility.yul\":16072:16189   */\n    tag_487:\n        /* \"#utility.yul\":16221:16286   */\n      tag_489\n        /* \"#utility.yul\":16278:16285   */\n      dup9\n        /* \"#utility.yul\":16269:16275   */\n      dup3\n        /* \"#utility.yul\":16258:16267   */\n      dup10\n        /* \"#utility.yul\":16254:16276   */\n      add\n        /* \"#utility.yul\":16221:16286   */\n      tag_295\n      jump\t// in\n    tag_489:\n        /* \"#utility.yul\":16203:16286   */\n      swap3\n      pop\n      swap3\n      pop\n        /* \"#utility.yul\":15998:16296   */\n      pop\n        /* \"#utility.yul\":15312:16303   */\n      swap3\n      swap6\n      pop\n      swap3\n      swap6\n      swap1\n      swap4\n      pop\n      jump\t// out\n        /* \"#utility.yul\":16309:16489   */\n    tag_104:\n        /* \"#utility.yul\":16357:16434   */\n      0x4e487b7100000000000000000000000000000000000000000000000000000000\n        /* \"#utility.yul\":16354:16355   */\n      0x00\n        /* \"#utility.yul\":16347:16435   */\n      mstore\n        /* \"#utility.yul\":16454:16458   */\n      0x32\n        /* \"#utility.yul\":16451:16452   */\n      0x04\n        /* \"#utility.yul\":16444:16459   */\n      mstore\n        /* \"#utility.yul\":16478:16482   */\n      0x24\n        /* \"#utility.yul\":16475:16476   */\n      0x00\n        /* \"#utility.yul\":16468:16483   */\n      revert\n        /* \"#utility.yul\":16495:16675   */\n    tag_296:\n        /* \"#utility.yul\":16543:16620   */\n      0x4e487b7100000000000000000000000000000000000000000000000000000000\n        /* \"#utility.yul\":16540:16541   */\n      0x00\n        /* \"#utility.yul\":16533:16621   */\n      mstore\n        /* \"#utility.yul\":16640:16644   */\n      0x22\n        /* \"#utility.yul\":16637:16638   */\n      0x04\n        /* \"#utility.yul\":16630:16645   */\n      mstore\n        /* \"#utility.yul\":16664:16668   */\n      0x24\n        /* \"#utility.yul\":16661:16662   */\n      0x00\n        /* \"#utility.yul\":16654:16669   */\n      revert\n        /* \"#utility.yul\":16681:17001   */\n    tag_112:\n        /* \"#utility.yul\":16725:16731   */\n      0x00\n        /* \"#utility.yul\":16762:16763   */\n      0x02\n        /* \"#utility.yul\":16756:16760   */\n      dup3\n        /* \"#utility.yul\":16752:16764   */\n      div\n        /* \"#utility.yul\":16742:16764   */\n      swap1\n      pop\n        /* \"#utility.yul\":16809:16810   */\n      0x01\n        /* \"#utility.yul\":16803:16807   */\n      dup3\n        /* \"#utility.yul\":16799:16811   */\n      and\n        /* \"#utility.yul\":16830:16848   */\n      dup1\n        /* \"#utility.yul\":16820:16901   */\n      tag_493\n      jumpi\n        /* \"#utility.yul\":16886:16890   */\n      0x7f\n        /* \"#utility.yul\":16878:16884   */\n      dup3\n        /* \"#utility.yul\":16874:16891   */\n      and\n        /* \"#utility.yul\":16864:16891   */\n      swap2\n      pop\n        /* \"#utility.yul\":16820:16901   */\n    tag_493:\n        /* \"#utility.yul\":16948:16950   */\n      0x20\n        /* \"#utility.yul\":16940:16946   */\n      dup3\n        /* \"#utility.yul\":16937:16951   */\n      lt\n        /* \"#utility.yul\":16917:16935   */\n      dup2\n        /* \"#utility.yul\":16914:16952   */\n      sub\n        /* \"#utility.yul\":16911:16995   */\n      tag_494\n      jumpi\n        /* \"#utility.yul\":16967:16985   */\n      tag_495\n      tag_296\n      jump\t// in\n    tag_495:\n        /* \"#utility.yul\":16911:16995   */\n    tag_494:\n        /* \"#utility.yul\":16732:17001   */\n      pop\n        /* \"#utility.yul\":16681:17001   */\n      swap2\n      swap1\n      pop\n      jump\t// out\n        /* \"#utility.yul\":17007:17176   */\n    tag_297:\n        /* \"#utility.yul\":17091:17102   */\n      0x00\n        /* \"#utility.yul\":17125:17131   */\n      dup3\n        /* \"#utility.yul\":17120:17123   */\n      dup3\n        /* \"#utility.yul\":17113:17132   */\n      mstore\n        /* \"#utility.yul\":17165:17169   */\n      0x20\n        /* \"#utility.yul\":17160:17163   */\n      dup3\n        /* \"#utility.yul\":17156:17170   */\n      add\n        /* \"#utility.yul\":17141:17170   */\n      swap1\n      pop\n        /* \"#utility.yul\":17007:17176   */\n      swap3\n      swap2\n      pop\n      pop\n      jump\t// out\n        /* \"#utility.yul\":17182:17363   */\n    tag_298:\n        /* \"#utility.yul\":17322:17355   */\n      0x526f6c654163636573733a2063616c6c6572206973206e6f742061646d696e00\n        /* \"#utility.yul\":17318:17319   */\n      0x00\n        /* \"#utility.yul\":17310:17316   */\n      dup3\n        /* \"#utility.yul\":17306:17320   */\n      add\n        /* \"#utility.yul\":17299:17356   */\n      mstore\n        /* \"#utility.yul\":17182:17363   */\n      pop\n      jump\t// out\n        /* \"#utility.yul\":17369:17735   */\n    tag_299:\n        /* \"#utility.yul\":17511:17514   */\n      0x00\n        /* \"#utility.yul\":17532:17599   */\n      tag_499\n        /* \"#utility.yul\":17596:17598   */\n      0x1f\n        /* \"#utility.yul\":17591:17594   */\n      dup4\n        /* \"#utility.yul\":17532:17599   */\n      tag_297\n      jump\t// in\n    tag_499:\n        /* \"#utility.yul\":17525:17599   */\n      swap2\n      pop\n        /* \"#utility.yul\":17608:17701   */\n      tag_500\n        /* \"#utility.yul\":17697:17700   */\n      dup3\n        /* \"#utility.yul\":17608:17701   */\n      tag_298\n      jump\t// in\n    tag_500:\n        /* \"#utility.yul\":17726:17728   */\n      0x20\n        /* \"#utility.yul\":17721:17724   */\n      dup3\n        /* \"#utility.yul\":17717:17729   */\n      add\n        /* \"#utility.yul\":17710:17729   */\n      swap1\n      pop\n        /* \"#utility.yul\":17369:17735   */\n      swap2\n      swap1\n      pop\n      jump\t// out\n        /* \"#utility.yul\":17741:18160   */\n    tag_126:\n        /* \"#utility.yul\":17907:17911   */\n      0x00\n        /* \"#utility.yul\":17945:17947   */\n      0x20\n        /* \"#utility.yul\":17934:17943   */\n      dup3\n        /* \"#utility.yul\":17930:17948   */\n      add\n        /* \"#utility.yul\":17922:17948   */\n      swap1\n      pop\n        /* \"#utility.yul\":17994:18003   */\n      dup2\n        /* \"#utility.yul\":17988:17992   */\n      dup2\n        /* \"#utility.yul\":17984:18004   */\n      sub\n        /* \"#utility.yul\":17980:17981   */\n      0x00\n        /* \"#utility.yul\":17969:17978   */\n      dup4\n        /* \"#utility.yul\":17965:17982   */\n      add\n        /* \"#utility.yul\":17958:18005   */\n      mstore\n        /* \"#utility.yul\":18022:18153   */\n      tag_502\n        /* \"#utility.yul\":18148:18152   */\n      dup2\n        /* \"#utility.yul\":18022:18153   */\n      tag_299\n      jump\t// in\n    tag_502:\n        /* \"#utility.yul\":18014:18153   */\n      swap1\n      pop\n        /* \"#utility.yul\":17741:18160   */\n      swap2\n      swap1\n      pop\n      jump\t// out\n        /* \"#utility.yul\":18166:18398   */\n    tag_300:\n        /* \"#utility.yul\":18306:18340   */\n      0x526f6c654163636573733a2063616e6e6f74206772616e7420726f6c6520746f\n        /* \"#utility.yul\":18302:18303   */\n      0x00\n        /* \"#utility.yul\":18294:18300   */\n      dup3\n        /* \"#utility.yul\":18290:18304   */\n      add\n        /* \"#utility.yul\":18283:18341   */\n      mstore\n        /* \"#utility.yul\":18375:18390   */\n      0x207a65726f206164647265737300000000000000000000000000000000000000\n        /* \"#utility.yul\":18370:18372   */\n      0x20\n        /* \"#utility.yul\":18362:18368   */\n      dup3\n        /* \"#utility.yul\":18358:18373   */\n      add\n        /* \"#utility.yul\":18351:18391   */\n      mstore\n        /* \"#utility.yul\":18166:18398   */\n      pop\n      jump\t// out\n        /* \"#utility.yul\":18404:18770   */\n    tag_301:\n        /* \"#utility.yul\":18546:18549   */\n      0x00\n        /* \"#utility.yul\":18567:18634   */\n      tag_505\n        /* \"#utility.yul\":18631:18633   */\n      0x2d\n        /* \"#utility.yul\":18626:18629   */\n      dup4\n        /* \"#utility.yul\":18567:18634   */\n      tag_297\n      jump\t// in\n    tag_505:\n        /* \"#utility.yul\":18560:18634   */\n      swap2\n      pop\n        /* \"#utility.yul\":18643:18736   */\n      tag_506\n        /* \"#utility.yul\":18732:18735   */\n      dup3\n        /* \"#utility.yul\":18643:18736   */\n      tag_300\n      jump\t// in\n    tag_506:\n        /* \"#utility.yul\":18761:18763   */\n      0x40\n        /* \"#utility.yul\":18756:18759   */\n      dup3\n        /* \"#utility.yul\":18752:18764   */\n      add\n        /* \"#utility.yul\":18745:18764   */\n      swap1\n      pop\n        /* \"#utility.yul\":18404:18770   */\n      swap2\n      swap1\n      pop\n      jump\t// out\n        /* \"#utility.yul\":18776:19195   */\n    tag_144:\n        /* \"#utility.yul\":18942:18946   */\n      0x00\n        /* \"#utility.yul\":18980:18982   */\n      0x20\n        /* \"#utility.yul\":18969:18978   */\n      dup3\n        /* \"#utility.yul\":18965:18983   */\n      add\n        /* \"#utility.yul\":18957:18983   */\n      swap1\n      pop\n        /* \"#utility.yul\":19029:19038   */\n      dup2\n        /* \"#utility.yul\":19023:19027   */\n      dup2\n        /* \"#utility.yul\":19019:19039   */\n      sub\n        /* \"#utility.yul\":19015:19016   */\n      0x00\n        /* \"#utility.yul\":19004:19013   */\n      dup4\n        /* \"#utility.yul\":19000:19017   */\n      add\n        /* \"#utility.yul\":18993:19040   */\n      mstore\n        /* \"#utility.yul\":19057:19188   */\n      tag_508\n        /* \"#utility.yul\":19183:19187   */\n      dup2\n        /* \"#utility.yul\":19057:19188   */\n      tag_301\n      jump\t// in\n    tag_508:\n        /* \"#utility.yul\":19049:19188   */\n      swap1\n      pop\n        /* \"#utility.yul\":18776:19195   */\n      swap2\n      swap1\n      pop\n      jump\t// out\n        /* \"#utility.yul\":19201:19429   */\n    tag_302:\n        /* \"#utility.yul\":19341:19375   */\n      0x526f6c654163636573733a206163636f756e7420616c72656164792068617320\n        /* \"#utility.yul\":19337:19338   */\n      0x00\n        /* \"#utility.yul\":19329:19335   */\n      dup3\n        /* \"#utility.yul\":19325:19339   */\n      add\n        /* \"#utility.yul\":19318:19376   */\n      mstore\n        /* \"#utility.yul\":19410:19421   */\n      0x7468697320726f6c650000000000000000000000000000000000000000000000\n        /* \"#utility.yul\":19405:19407   */\n      0x20\n        /* \"#utility.yul\":19397:19403   */\n      dup3\n        /* \"#utility.yul\":19393:19408   */\n      add\n        /* \"#utility.yul\":19386:19422   */\n      mstore\n        /* \"#utility.yul\":19201:19429   */\n      pop\n      jump\t// out\n        /* \"#utility.yul\":19435:19801   */\n    tag_303:\n        /* \"#utility.yul\":19577:19580   */\n      0x00\n        /* \"#utility.yul\":19598:19665   */\n      tag_511\n        /* \"#utility.yul\":19662:19664   */\n      0x29\n        /* \"#utility.yul\":19657:19660   */\n      dup4\n        /* \"#utility.yul\":19598:19665   */\n      tag_297\n      jump\t// in\n    tag_511:\n        /* \"#utility.yul\":19591:19665   */\n      swap2\n      pop\n        /* \"#utility.yul\":19674:19767   */\n      tag_512\n        /* \"#utility.yul\":19763:19766   */\n      dup3\n        /* \"#utility.yul\":19674:19767   */\n      tag_302\n      jump\t// in\n    tag_512:\n        /* \"#utility.yul\":19792:19794   */\n      0x40\n        /* \"#utility.yul\":19787:19790   */\n      dup3\n        /* \"#utility.yul\":19783:19795   */\n      add\n        /* \"#utility.yul\":19776:19795   */\n      swap1\n      pop\n        /* \"#utility.yul\":19435:19801   */\n      swap2\n      swap1\n      pop\n      jump\t// out\n        /* \"#utility.yul\":19807:20226   */\n    tag_147:\n        /* \"#utility.yul\":19973:19977   */\n      0x00\n        /* \"#utility.yul\":20011:20013   */\n      0x20\n        /* \"#utility.yul\":20000:20009   */\n      dup3\n        /* \"#utility.yul\":19996:20014   */\n      add\n        /* \"#utility.yul\":19988:20014   */\n      swap1\n      pop\n        /* \"#utility.yul\":20060:20069   */\n      dup2\n        /* \"#utility.yul\":20054:20058   */\n      dup2\n        /* \"#utility.yul\":20050:20070   */\n      sub\n        /* \"#utility.yul\":20046:20047   */\n      0x00\n        /* \"#utility.yul\":20035:20044   */\n      dup4\n        /* \"#utility.yul\":20031:20048   */\n      add\n        /* \"#utility.yul\":20024:20071   */\n      mstore\n        /* \"#utility.yul\":20088:20219   */\n      tag_514\n        /* \"#utility.yul\":20214:20218   */\n      dup2\n        /* \"#utility.yul\":20088:20219   */\n      tag_303\n      jump\t// in\n    tag_514:\n        /* \"#utility.yul\":20080:20219   */\n      swap1\n      pop\n        /* \"#utility.yul\":19807:20226   */\n      swap2\n      swap1\n      pop\n      jump\t// out\n        /* \"#utility.yul\":20232:20461   */\n    tag_304:\n        /* \"#utility.yul\":20372:20406   */\n      0x526f6c654163636573733a2063616c6c657220646f6573206e6f742068617665\n        /* \"#utility.yul\":20368:20369   */\n      0x00\n        /* \"#utility.yul\":20360:20366   */\n      dup3\n        /* \"#utility.yul\":20356:20370   */\n      add\n        /* \"#utility.yul\":20349:20407   */\n      mstore\n        /* \"#utility.yul\":20441:20453   */\n      0x207468697320726f6c6500000000000000000000000000000000000000000000\n        /* \"#utility.yul\":20436:20438   */\n      0x20\n        /* \"#utility.yul\":20428:20434   */\n      dup3\n        /* \"#utility.yul\":20424:20439   */\n      add\n        /* \"#utility.yul\":20417:20454   */\n      mstore\n        /* \"#utility.yul\":20232:20461   */\n      pop\n      jump\t// out\n        /* \"#utility.yul\":20467:20833   */\n    tag_305:\n        /* \"#utility.yul\":20609:20612   */\n      0x00\n        /* \"#utility.yul\":20630:20697   */\n      tag_517\n        /* \"#utility.yul\":20694:20696   */\n      0x2a\n        /* \"#utility.yul\":20689:20692   */\n      dup4\n        /* \"#utility.yul\":20630:20697   */\n      tag_297\n      jump\t// in\n    tag_517:\n        /* \"#utility.yul\":20623:20697   */\n      swap2\n      pop\n        /* \"#utility.yul\":20706:20799   */\n      tag_518\n        /* \"#utility.yul\":20795:20798   */\n      dup3\n        /* \"#utility.yul\":20706:20799   */\n      tag_304\n      jump\t// in\n    tag_518:\n        /* \"#utility.yul\":20824:20826   */\n      0x40\n        /* \"#utility.yul\":20819:20822   */\n      dup3\n        /* \"#utility.yul\":20815:20827   */\n      add\n        /* \"#utility.yul\":20808:20827   */\n      swap1\n      pop\n        /* \"#utility.yul\":20467:20833   */\n      swap2\n      swap1\n      pop\n      jump\t// out\n        /* \"#utility.yul\":20839:21258   */\n    tag_151:\n        /* \"#utility.yul\":21005:21009   */\n      0x00\n        /* \"#utility.yul\":21043:21045   */\n      0x20\n        /* \"#utility.yul\":21032:21041   */\n      dup3\n        /* \"#utility.yul\":21028:21046   */\n      add\n        /* \"#utility.yul\":21020:21046   */\n      swap1\n      pop\n        /* \"#utility.yul\":21092:21101   */\n      dup2\n        /* \"#utility.yul\":21086:21090   */\n      dup2\n        /* \"#utility.yul\":21082:21102   */\n      sub\n        /* \"#utility.yul\":21078:21079   */\n      0x00\n        /* \"#utility.yul\":21067:21076   */\n      dup4\n        /* \"#utility.yul\":21063:21080   */\n      add\n        /* \"#utility.yul\":21056:21103   */\n      mstore\n        /* \"#utility.yul\":21120:21251   */\n      tag_520\n        /* \"#utility.yul\":21246:21250   */\n      dup2\n        /* \"#utility.yul\":21120:21251   */\n      tag_305\n      jump\t// in\n    tag_520:\n        /* \"#utility.yul\":21112:21251   */\n      swap1\n      pop\n        /* \"#utility.yul\":20839:21258   */\n      swap2\n      swap1\n      pop\n      jump\t// out\n        /* \"#utility.yul\":21264:21486   */\n    tag_306:\n        /* \"#utility.yul\":21404:21438   */\n      0x41756469744c6f673a20656e74727920696e646578206f7574206f6620626f75\n        /* \"#utility.yul\":21400:21401   */\n      0x00\n        /* \"#utility.yul\":21392:21398   */\n      dup3\n        /* \"#utility.yul\":21388:21402   */\n      add\n        /* \"#utility.yul\":21381:21439   */\n      mstore\n        /* \"#utility.yul\":21473:21478   */\n      0x6e64730000000000000000000000000000000000000000000000000000000000\n        /* \"#utility.yul\":21468:21470   */\n      0x20\n        /* \"#utility.yul\":21460:21466   */\n      dup3\n        /* \"#utility.yul\":21456:21471   */\n      add\n        /* \"#utility.yul\":21449:21479   */\n      mstore\n        /* \"#utility.yul\":21264:21486   */\n      pop\n      jump\t// out\n        /* \"#utility.yul\":21492:21858   */\n    tag_307:\n        /* \"#utility.yul\":21634:21637   */\n      0x00\n        /* \"#utility.yul\":21655:21722   */\n      tag_523\n        /* \"#utility.yul\":21719:21721   */\n      0x23\n        /* \"#utility.yul\":21714:21717   */\n      dup4\n        /* \"#utility.yul\":21655:21722   */\n      tag_297\n      jump\t// in\n    tag_523:\n        /* \"#utility.yul\":21648:21722   */\n      swap2\n      pop\n        /* \"#utility.yul\":21731:21824   */\n      tag_524\n        /* \"#utility.yul\":21820:21823   */\n      dup3\n        /* \"#utility.yul\":21731:21824   */\n      tag_306\n      jump\t// in\n    tag_524:\n        /* \"#utility.yul\":21849:21851   */\n      0x40\n        /* \"#utility.yul\":21844:21847   */\n      dup3\n        /* \"#utility.yul\":21840:21852   */\n      add\n        /* \"#utility.yul\":21833:21852   */\n      swap1\n      pop\n        /* \"#utility.yul\":21492:21858   */\n      swap2\n      swap1\n      pop\n      jump\t// out\n        /* \"#utility.yul\":21864:22283   */\n    tag_159:\n        /* \"#utility.yul\":22030:22034   */\n      0x00\n        /* \"#utility.yul\":22068:22070   */\n      0x20\n        /* \"#utility.yul\":22057:22066   */\n      dup3\n        /* \"#utility.yul\":22053:22071   */\n      add\n        /* \"#utility.yul\":22045:22071   */\n      swap1\n      pop\n        /* \"#utility.yul\":22117:22126   */\n      dup2\n        /* \"#utility.yul\":22111:22115   */\n      dup2\n        /* \"#utility.yul\":22107:22127   */\n      sub\n        /* \"#utility.yul\":22103:22104   */\n      0x00\n        /* \"#utility.yul\":22092:22101   */\n      dup4\n        /* \"#utility.yul\":22088:22105   */\n      add\n        /* \"#utility.yul\":22081:22128   */\n      mstore\n        /* \"#utility.yul\":22145:22276   */\n      tag_526\n        /* \"#utility.yul\":22271:22275   */\n      dup2\n        /* \"#utility.yul\":22145:22276   */\n      tag_307\n      jump\t// in\n    tag_526:\n        /* \"#utility.yul\":22137:22276   */\n      swap1\n      pop\n        /* \"#utility.yul\":21864:22283   */\n      swap2\n      swap1\n      pop\n      jump\t// out\n        /* \"#utility.yul\":22289:22510   */\n    tag_308:\n        /* \"#utility.yul\":22429:22463   */\n      0x41756469744c6f673a2066726f6d20696e646578206f7574206f6620626f756e\n        /* \"#utility.yul\":22425:22426   */\n      0x00\n        /* \"#utility.yul\":22417:22423   */\n      dup3\n        /* \"#utility.yul\":22413:22427   */\n      add\n        /* \"#utility.yul\":22406:22464   */\n      mstore\n        /* \"#utility.yul\":22498:22502   */\n      0x6473000000000000000000000000000000000000000000000000000000000000\n        /* \"#utility.yul\":22493:22495   */\n      0x20\n        /* \"#utility.yul\":22485:22491   */\n      dup3\n        /* \"#utility.yul\":22481:22496   */\n      add\n        /* \"#utility.yul\":22474:22503   */\n      mstore\n        /* \"#utility.yul\":22289:22510   */\n      pop\n      jump\t// out\n        /* \"#utility.yul\":22516:22882   */\n    tag_309:\n        /* \"#utility.yul\":22658:22661   */\n      0x00\n        /* \"#utility.yul\":22679:22746   */\n      tag_529\n        /* \"#utility.yul\":22743:22745   */\n      0x22\n        /* \"#utility.yul\":22738:22741   */\n      dup4\n        /* \"#utility.yul\":22679:22746   */\n      tag_297\n      jump\t// in\n    tag_529:\n        /* \"#utility.yul\":22672:22746   */\n      swap2\n      pop\n        /* \"#utility.yul\":22755:22848   */\n      tag_530\n        /* \"#utility.yul\":22844:22847   */\n      dup3\n        /* \"#utility.yul\":22755:22848   */\n      tag_308\n      jump\t// in\n    tag_530:\n        /* \"#utility.yul\":22873:22875   */\n      0x40\n        /* \"#utility.yul\":22868:22871   */\n      dup3\n        /* \"#utility.yul\":22864:22876   */\n      add\n        /* \"#utility.yul\":22857:22876   */\n      swap1\n      pop\n        /* \"#utility.yul\":22516:22882   */\n      swap2\n      swap1\n      pop\n      jump\t// out\n        /* \"#utility.yul\":22888:23307   */\n    tag_175:\n        /* \"#utility.yul\":23054:23058   */\n      0x00\n        /* \"#utility.yul\":23092:23094   */\n      0x20\n        /* \"#utility.yul\":23081:23090   */\n      dup3\n        /* \"#utility.yul\":23077:23095   */\n      add\n        /* \"#utility.yul\":23069:23095   */\n      swap1\n      pop\n        /* \"#utility.yul\":23141:23150   */\n      dup2\n        /* \"#utility.yul\":23135:23139   */\n      dup2\n        /* \"#utility.yul\":23131:23151   */\n      sub\n        /* \"#utility.yul\":23127:23128   */\n      0x00\n        /* \"#utility.yul\":23116:23125   */\n      dup4\n        /* \"#utility.yul\":23112:23129   */\n      add\n        /* \"#utility.yul\":23105:23152   */\n      mstore\n        /* \"#utility.yul\":23169:23300   */\n      tag_532\n        /* \"#utility.yul\":23295:23299   */\n      dup2\n        /* \"#utility.yul\":23169:23300   */\n      tag_309\n      jump\t// in\n    tag_532:\n        /* \"#utility.yul\":23161:23300   */\n      swap1\n      pop\n        /* \"#utility.yul\":22888:23307   */\n      swap2\n      swap1\n      pop\n      jump\t// out\n        /* \"#utility.yul\":23313:23493   */\n    tag_310:\n        /* \"#utility.yul\":23361:23438   */\n      0x4e487b7100000000000000000000000000000000000000000000000000000000\n        /* \"#utility.yul\":23358:23359   */\n      0x00\n        /* \"#utility.yul\":23351:23439   */\n      mstore\n        /* \"#utility.yul\":23458:23462   */\n      0x11\n        /* \"#utility.yul\":23455:23456   */\n      0x04\n        /* \"#utility.yul\":23448:23463   */\n      mstore\n        /* \"#utility.yul\":23482:23486   */\n      0x24\n        /* \"#utility.yul\":23479:23480   */\n      0x00\n        /* \"#utility.yul\":23472:23487   */\n      revert\n        /* \"#utility.yul\":23499:23690   */\n    tag_177:\n        /* \"#utility.yul\":23539:23542   */\n      0x00\n        /* \"#utility.yul\":23558:23578   */\n      tag_535\n        /* \"#utility.yul\":23576:23577   */\n      dup3\n        /* \"#utility.yul\":23558:23578   */\n      tag_256\n      jump\t// in\n    tag_535:\n        /* \"#utility.yul\":23553:23578   */\n      swap2\n      pop\n        /* \"#utility.yul\":23592:23612   */\n      tag_536\n        /* \"#utility.yul\":23610:23611   */\n      dup4\n        /* \"#utility.yul\":23592:23612   */\n      tag_256\n      jump\t// in\n    tag_536:\n        /* \"#utility.yul\":23587:23612   */\n      swap3\n      pop\n        /* \"#utility.yul\":23635:23636   */\n      dup3\n        /* \"#utility.yul\":23632:23633   */\n      dup3\n        /* \"#utility.yul\":23628:23637   */\n      add\n        /* \"#utility.yul\":23621:23637   */\n      swap1\n      pop\n        /* \"#utility.yul\":23656:23659   */\n      dup1\n        /* \"#utility.yul\":23653:23654   */\n      dup3\n        /* \"#utility.yul\":23650:23660   */\n      gt\n        /* \"#utility.yul\":23647:23683   */\n      iszero\n      tag_537\n      jumpi\n        /* \"#utility.yul\":23663:23681   */\n      tag_538\n      tag_310\n      jump\t// in\n    tag_538:\n        /* \"#utility.yul\":23647:23683   */\n    tag_537:\n        /* \"#utility.yul\":23499:23690   */\n      swap3\n      swap2\n      pop\n      pop\n      jump\t// out\n        /* \"#utility.yul\":23696:23890   */\n    tag_180:\n        /* \"#utility.yul\":23736:23740   */\n      0x00\n        /* \"#utility.yul\":23756:23776   */\n      tag_540\n        /* \"#utility.yul\":23774:23775   */\n      dup3\n        /* \"#utility.yul\":23756:23776   */\n      tag_256\n      jump\t// in\n    tag_540:\n        /* \"#utility.yul\":23751:23776   */\n      swap2\n      pop\n        /* \"#utility.yul\":23790:23810   */\n      tag_541\n        /* \"#utility.yul\":23808:23809   */\n      dup4\n        /* \"#utility.yul\":23790:23810   */\n      tag_256\n      jump\t// in\n    tag_541:\n        /* \"#utility.yul\":23785:23810   */\n      swap3\n      pop\n        /* \"#utility.yul\":23834:23835   */\n      dup3\n        /* \"#utility.yul\":23831:23832   */\n      dup3\n        /* \"#utility.yul\":23827:23836   */\n      sub\n        /* \"#utility.yul\":23819:23836   */\n      swap1\n      pop\n        /* \"#utility.yul\":23858:23859   */\n      dup2\n        /* \"#utility.yul\":23852:23856   */\n      dup2\n        /* \"#utility.yul\":23849:23860   */\n      gt\n        /* \"#utility.yul\":23846:23883   */\n      iszero\n      tag_542\n      jumpi\n        /* \"#utility.yul\":23863:23881   */\n      tag_543\n      tag_310\n      jump\t// in\n    tag_543:\n        /* \"#utility.yul\":23846:23883   */\n    tag_542:\n        /* \"#utility.yul\":23696:23890   */\n      swap3\n      swap2\n      pop\n      pop\n      jump\t// out\n        /* \"#utility.yul\":23896:24076   */\n    tag_183:\n        /* \"#utility.yul\":23944:24021   */\n      0x4e487b7100000000000000000000000000000000000000000000000000000000\n        /* \"#utility.yul\":23941:23942   */\n      0x00\n        /* \"#utility.yul\":23934:24022   */\n      mstore\n        /* \"#utility.yul\":24041:24045   */\n      0x41\n        /* \"#utility.yul\":24038:24039   */\n      0x04\n        /* \"#utility.yul\":24031:24046   */\n      mstore\n        /* \"#utility.yul\":24065:24069   */\n      0x24\n        /* \"#utility.yul\":24062:24063   */\n      0x00\n        /* \"#utility.yul\":24055:24070   */\n      revert\n        /* \"#utility.yul\":24082:24312   */\n    tag_311:\n        /* \"#utility.yul\":24222:24256   */\n      0x526f6c654163636573733a206163636f756e7420646f6573206e6f7420686176\n        /* \"#utility.yul\":24218:24219   */\n      0x00\n        /* \"#utility.yul\":24210:24216   */\n      dup3\n        /* \"#utility.yul\":24206:24220   */\n      add\n        /* \"#utility.yul\":24199:24257   */\n      mstore\n        /* \"#utility.yul\":24291:24304   */\n      0x65207468697320726f6c65000000000000000000000000000000000000000000\n        /* \"#utility.yul\":24286:24288   */\n      0x20\n        /* \"#utility.yul\":24278:24284   */\n      dup3\n        /* \"#utility.yul\":24274:24289   */\n      add\n        /* \"#utility.yul\":24267:24305   */\n      mstore\n        /* \"#utility.yul\":24082:24312   */\n      pop\n      jump\t// out\n        /* \"#utility.yul\":24318:24684   */\n    tag_312:\n        /* \"#utility.yul\":24460:24463   */\n      0x00\n        /* \"#utility.yul\":24481:24548   */\n      tag_547\n        /* \"#utility.yul\":24545:24547   */\n      0x2b\n        /* \"#utility.yul\":24540:24543   */\n      dup4\n        /* \"#utility.yul\":24481:24548   */\n      tag_297\n      jump\t// in\n    tag_547:\n        /* \"#utility.yul\":24474:24548   */\n      swap2\n      pop\n        /* \"#utility.yul\":24557:24650   */\n      tag_548\n        /* \"#utility.yul\":24646:24649   */\n      dup3\n        /* \"#utility.yul\":24557:24650   */\n      tag_311\n      jump\t// in\n    tag_548:\n        /* \"#utility.yul\":24675:24677   */\n      0x40\n        /* \"#utility.yul\":24670:24673   */\n      dup3\n        /* \"#utility.yul\":24666:24678   */\n      add\n        /* \"#utility.yul\":24659:24678   */\n      swap1\n      pop\n        /* \"#utility.yul\":24318:24684   */\n      swap2\n      swap1\n      pop\n      jump\t// out\n        /* \"#utility.yul\":24690:25109   */\n    tag_224:\n        /* \"#utility.yul\":24856:24860   */\n      0x00\n        /* \"#utility.yul\":24894:24896   */\n      0x20\n        /* \"#utility.yul\":24883:24892   */\n      dup3\n        /* \"#utility.yul\":24879:24897   */\n      add\n        /* \"#utility.yul\":24871:24897   */\n      swap1\n      pop\n        /* \"#utility.yul\":24943:24952   */\n      dup2\n        /* \"#utility.yul\":24937:24941   */\n      dup2\n        /* \"#utility.yul\":24933:24953   */\n      sub\n        /* \"#utility.yul\":24929:24930   */\n      0x00\n        /* \"#utility.yul\":24918:24927   */\n      dup4\n        /* \"#utility.yul\":24914:24931   */\n      add\n        /* \"#utility.yul\":24907:24954   */\n      mstore\n        /* \"#utility.yul\":24971:25102   */\n      tag_550\n        /* \"#utility.yul\":25097:25101   */\n      dup2\n        /* \"#utility.yul\":24971:25102   */\n      tag_312\n      jump\t// in\n    tag_550:\n        /* \"#utility.yul\":24963:25102   */\n      swap1\n      pop\n        /* \"#utility.yul\":24690:25109   */\n      swap2\n      swap1\n      pop\n      jump\t// out\n        /* \"#utility.yul\":25115:25348   */\n    tag_313:\n        /* \"#utility.yul\":25255:25289   */\n      0x526f6c654163636573733a2063616c6c657220646f6573206e6f742068617665\n        /* \"#utility.yul\":25251:25252   */\n      0x00\n        /* \"#utility.yul\":25243:25249   */\n      dup3\n        /* \"#utility.yul\":25239:25253   */\n      add\n        /* \"#utility.yul\":25232:25290   */\n      mstore\n        /* \"#utility.yul\":25324:25340   */\n      0x20726571756972656420726f6c65000000000000000000000000000000000000\n        /* \"#utility.yul\":25319:25321   */\n      0x20\n        /* \"#utility.yul\":25311:25317   */\n      dup3\n        /* \"#utility.yul\":25307:25322   */\n      add\n        /* \"#utility.yul\":25300:25341   */\n      mstore\n        /* \"#utility.yul\":25115:25348   */\n      pop\n      jump\t// out\n        /* \"#utility.yul\":25354:25720   */\n    tag_314:\n        /* \"#utility.yul\":25496:25499   */\n      0x00\n        /* \"#utility.yul\":25517:25584   */\n      tag_553\n        /* \"#utility.yul\":25581:25583   */\n      0x2e\n        /* \"#utility.yul\":25576:25579   */\n      dup4\n        /* \"#utility.yul\":25517:25584   */\n      tag_297\n      jump\t// in\n    tag_553:\n        /* \"#utility.yul\":25510:25584   */\n      swap2\n      pop\n        /* \"#utility.yul\":25593:25686   */\n      tag_554\n        /* \"#utility.yul\":25682:25685   */\n      dup3\n        /* \"#utility.yul\":25593:25686   */\n      tag_313\n      jump\t// in\n    tag_554:\n        /* \"#utility.yul\":25711:25713   */\n      0x40\n        /* \"#utility.yul\":25706:25709   */\n      dup3\n        /* \"#utility.yul\":25702:25714   */\n      add\n        /* \"#utility.yul\":25695:25714   */\n      swap1\n      pop\n        /* \"#utility.yul\":25354:25720   */\n      swap2\n      swap1\n      pop\n      jump\t// out\n        /* \"#utility.yul\":25726:26145   */\n    tag_228:\n        /* \"#utility.yul\":25892:25896   */\n      0x00\n        /* \"#utility.yul\":25930:25932   */\n      0x20\n        /* \"#utility.yul\":25919:25928   */\n      dup3\n        /* \"#utility.yul\":25915:25933   */\n      add\n        /* \"#utility.yul\":25907:25933   */\n      swap1\n      pop\n        /* \"#utility.yul\":25979:25988   */\n      dup2\n        /* \"#utility.yul\":25973:25977   */\n      dup2\n        /* \"#utility.yul\":25969:25989   */\n      sub\n        /* \"#utility.yul\":25965:25966   */\n      0x00\n        /* \"#utility.yul\":25954:25963   */\n      dup4\n        /* \"#utility.yul\":25950:25967   */\n      add\n        /* \"#utility.yul\":25943:25990   */\n      mstore\n        /* \"#utility.yul\":26007:26138   */\n      tag_556\n        /* \"#utility.yul\":26133:26137   */\n      dup2\n        /* \"#utility.yul\":26007:26138   */\n      tag_314\n      jump\t// in\n    tag_556:\n        /* \"#utility.yul\":25999:26138   */\n      swap1\n      pop\n        /* \"#utility.yul\":25726:26145   */\n      swap2\n      swap1\n      pop\n      jump\t// out\n        /* \"#utility.yul\":26151:26380   */\n    tag_315:\n        /* \"#utility.yul\":26291:26325   */\n      0x41756469744c6f673a2072656a656374696f6e20726561736f6e2063616e6e6f\n        /* \"#utility.yul\":26287:26288   */\n      0x00\n        /* \"#utility.yul\":26279:26285   */\n      dup3\n        /* \"#utility.yul\":26275:26289   */\n      add\n        /* \"#utility.yul\":26268:26326   */\n      mstore\n        /* \"#utility.yul\":26360:26372   */\n      0x7420626520656d70747900000000000000000000000000000000000000000000\n        /* \"#utility.yul\":26355:26357   */\n      0x20\n        /* \"#utility.yul\":26347:26353   */\n      dup3\n        /* \"#utility.yul\":26343:26358   */\n      add\n        /* \"#utility.yul\":26336:26373   */\n      mstore\n        /* \"#utility.yul\":26151:26380   */\n      pop\n      jump\t// out\n        /* \"#utility.yul\":26386:26752   */\n    tag_316:\n        /* \"#utility.yul\":26528:26531   */\n      0x00\n        /* \"#utility.yul\":26549:26616   */\n      tag_559\n        /* \"#utility.yul\":26613:26615   */\n      0x2a\n        /* \"#utility.yul\":26608:26611   */\n      dup4\n        /* \"#utility.yul\":26549:26616   */\n      tag_297\n      jump\t// in\n    tag_559:\n        /* \"#utility.yul\":26542:26616   */\n      swap2\n      pop\n        /* \"#utility.yul\":26625:26718   */\n      tag_560\n        /* \"#utility.yul\":26714:26717   */\n      dup3\n        /* \"#utility.yul\":26625:26718   */\n      tag_315\n      jump\t// in\n    tag_560:\n        /* \"#utility.yul\":26743:26745   */\n      0x40\n        /* \"#utility.yul\":26738:26741   */\n      dup3\n        /* \"#utility.yul\":26734:26746   */\n      add\n        /* \"#utility.yul\":26727:26746   */\n      swap1\n      pop\n        /* \"#utility.yul\":26386:26752   */\n      swap2\n      swap1\n      pop\n      jump\t// out\n        /* \"#utility.yul\":26758:27177   */\n    tag_237:\n        /* \"#utility.yul\":26924:26928   */\n      0x00\n        /* \"#utility.yul\":26962:26964   */\n      0x20\n        /* \"#utility.yul\":26951:26960   */\n      dup3\n        /* \"#utility.yul\":26947:26965   */\n      add\n        /* \"#utility.yul\":26939:26965   */\n      swap1\n      pop\n        /* \"#utility.yul\":27011:27020   */\n      dup2\n        /* \"#utility.yul\":27005:27009   */\n      dup2\n        /* \"#utility.yul\":27001:27021   */\n      sub\n        /* \"#utility.yul\":26997:26998   */\n      0x00\n        /* \"#utility.yul\":26986:26995   */\n      dup4\n        /* \"#utility.yul\":26982:26999   */\n      add\n        /* \"#utility.yul\":26975:27022   */\n      mstore\n        /* \"#utility.yul\":27039:27170   */\n      tag_562\n        /* \"#utility.yul\":27165:27169   */\n      dup2\n        /* \"#utility.yul\":27039:27170   */\n      tag_316\n      jump\t// in\n    tag_562:\n        /* \"#utility.yul\":27031:27170   */\n      swap1\n      pop\n        /* \"#utility.yul\":26758:27177   */\n      swap2\n      swap1\n      pop\n      jump\t// out\n        /* \"#utility.yul\":27183:27324   */\n    tag_317:\n        /* \"#utility.yul\":27232:27236   */\n      0x00\n        /* \"#utility.yul\":27255:27258   */\n      dup2\n        /* \"#utility.yul\":27247:27258   */\n      swap1\n      pop\n        /* \"#utility.yul\":27278:27281   */\n      dup2\n        /* \"#utility.yul\":27275:27276   */\n      0x00\n        /* \"#utility.yul\":27268:27282   */\n      mstore\n        /* \"#utility.yul\":27312:27316   */\n      0x20\n        /* \"#utility.yul\":27309:27310   */\n      0x00\n        /* \"#utility.yul\":27299:27317   */\n      keccak256\n        /* \"#utility.yul\":27291:27317   */\n      swap1\n      pop\n        /* \"#utility.yul\":27183:27324   */\n      swap2\n      swap1\n      pop\n      jump\t// out\n        /* \"#utility.yul\":27330:27423   */\n    tag_318:\n        /* \"#utility.yul\":27367:27373   */\n      0x00\n        /* \"#utility.yul\":27414:27416   */\n      0x20\n        /* \"#utility.yul\":27409:27411   */\n      0x1f\n        /* \"#utility.yul\":27402:27407   */\n      dup4\n        /* \"#utility.yul\":27398:27412   */\n      add\n        /* \"#utility.yul\":27394:27417   */\n      div\n        /* \"#utility.yul\":27384:27417   */\n      swap1\n      pop\n        /* \"#utility.yul\":27330:27423   */\n      swap2\n      swap1\n      pop\n      jump\t// out\n        /* \"#utility.yul\":27429:27536   */\n    tag_319:\n        /* \"#utility.yul\":27473:27481   */\n      0x00\n        /* \"#utility.yul\":27523:27528   */\n      dup3\n        /* \"#utility.yul\":27517:27521   */\n      dup3\n        /* \"#utility.yul\":27513:27529   */\n      shl\n        /* \"#utility.yul\":27492:27529   */\n      swap1\n      pop\n        /* \"#utility.yul\":27429:27536   */\n      swap3\n      swap2\n      pop\n      pop\n      jump\t// out\n        /* \"#utility.yul\":27542:27935   */\n    tag_320:\n        /* \"#utility.yul\":27611:27617   */\n      0x00\n        /* \"#utility.yul\":27661:27662   */\n      0x08\n        /* \"#utility.yul\":27649:27659   */\n      dup4\n        /* \"#utility.yul\":27645:27663   */\n      mul\n        /* \"#utility.yul\":27684:27781   */\n      tag_567\n        /* \"#utility.yul\":27714:27780   */\n      0xffffffffffffffffffffffffffffffffffffffffffffffffffffffffffffffff\n        /* \"#utility.yul\":27703:27712   */\n      dup3\n        /* \"#utility.yul\":27684:27781   */\n      tag_319\n      jump\t// in\n    tag_567:\n        /* \"#utility.yul\":27802:27841   */\n      tag_568\n        /* \"#utility.yul\":27832:27840   */\n      dup7\n        /* \"#utility.yul\":27821:27830   */\n      dup4\n        /* \"#utility.yul\":27802:27841   */\n      tag_319\n      jump\t// in\n    tag_568:\n        /* \"#utility.yul\":27790:27841   */\n      swap6\n      pop\n        /* \"#utility.yul\":27874:27878   */\n      dup1\n        /* \"#utility.yul\":27870:27879   */\n      not\n        /* \"#utility.yul\":27863:27868   */\n      dup5\n        /* \"#utility.yul\":27859:27880   */\n      and\n        /* \"#utility.yul\":27850:27880   */\n      swap4\n      pop\n        /* \"#utility.yul\":27923:27927   */\n      dup1\n        /* \"#utility.yul\":27913:27921   */\n      dup7\n        /* \"#utility.yul\":27909:27928   */\n      and\n        /* \"#utility.yul\":27902:27907   */\n      dup5\n        /* \"#utility.yul\":27899:27929   */\n      or\n        /* \"#utility.yul\":27889:27929   */\n      swap3\n      pop\n        /* \"#utility.yul\":27618:27935   */\n      pop\n      pop\n        /* \"#utility.yul\":27542:27935   */\n      swap4\n      swap3\n      pop\n      pop\n      pop\n      jump\t// out\n        /* \"#utility.yul\":27941:28001   */\n    tag_321:\n        /* \"#utility.yul\":27969:27972   */\n      0x00\n        /* \"#utility.yul\":27990:27995   */\n      dup2\n        /* \"#utility.yul\":27983:27995   */\n      swap1\n      pop\n        /* \"#utility.yul\":27941:28001   */\n      swap2\n      swap1\n      pop\n      jump\t// out\n        /* \"#utility.yul\":28007:28149   */\n    tag_322:\n        /* \"#utility.yul\":28057:28066   */\n      0x00\n        /* \"#utility.yul\":28090:28143   */\n      tag_571\n        /* \"#utility.yul\":28108:28142   */\n      tag_572\n        /* \"#utility.yul\":28117:28141   */\n      tag_573\n        /* \"#utility.yul\":28135:28140   */\n      dup5\n        /* \"#utility.yul\":28117:28141   */\n      tag_256\n      jump\t// in\n    tag_573:\n        /* \"#utility.yul\":28108:28142   */\n      tag_321\n      jump\t// in\n    tag_572:\n        /* \"#utility.yul\":28090:28143   */\n      tag_256\n      jump\t// in\n    tag_571:\n        /* \"#utility.yul\":28077:28143   */\n      swap1\n      pop\n        /* \"#utility.yul\":28007:28149   */\n      swap2\n      swap1\n      pop\n      jump\t// out\n        /* \"#utility.yul\":28155:28230   */\n    tag_323:\n        /* \"#utility.yul\":28198:28201   */\n      0x00\n        /* \"#utility.yul\":28219:28224   */\n      dup2\n        /* \"#utility.yul\":28212:28224   */\n      swap1\n      pop\n        /* \"#utility.yul\":28155:28230   */\n      swap2\n      swap1\n      pop\n      jump\t// out\n        /* \"#utility.yul\":28236:28505   */\n    tag_324:\n        /* \"#utility.yul\":28346:28385   */\n      tag_576\n        /* \"#utility.yul\":28377:28384   */\n      dup4\n        /* \"#utility.yul\":28346:28385   */\n      tag_322\n      jump\t// in\n    tag_576:\n        /* \"#utility.yul\":28407:28498   */\n      tag_577\n        /* \"#utility.yul\":28456:28497   */\n      tag_578\n        /* \"#utility.yul\":28480:28496   */\n      dup3\n        /* \"#utility.yul\":28456:28497   */\n      tag_323\n      jump\t// in\n    tag_578:\n        /* \"#utility.yul\":28448:28454   */\n      dup5\n        /* \"#utility.yul\":28441:28445   */\n      dup5\n        /* \"#utility.yul\":28435:28446   */\n      sload\n        /* \"#utility.yul\":28407:28498   */\n      tag_320\n      jump\t// in\n    tag_577:\n        /* \"#utility.yul\":28401:28405   */\n      dup3\n        /* \"#utility.yul\":28394:28499   */\n      sstore\n        /* \"#utility.yul\":28312:28505   */\n      pop\n        /* \"#utility.yul\":28236:28505   */\n      pop\n      pop\n      pop\n      jump\t// out\n        /* \"#utility.yul\":28511:28584   */\n    tag_325:\n        /* \"#utility.yul\":28556:28559   */\n      0x00\n        /* \"#utility.yul\":28577:28578   */\n      0x00\n        /* \"#utility.yul\":28570:28578   */\n      swap1\n      pop\n        /* \"#utility.yul\":28511:28584   */\n      swap1\n      jump\t// out\n        /* \"#utility.yul\":28590:28779   */\n    tag_326:\n        /* \"#utility.yul\":28667:28699   */\n      tag_581\n      tag_325\n      jump\t// in\n    tag_581:\n        /* \"#utility.yul\":28708:28773   */\n      tag_582\n        /* \"#utility.yul\":28766:28772   */\n      dup2\n        /* \"#utility.yul\":28758:28764   */\n      dup5\n        /* \"#utility.yul\":28752:28756   */\n      dup5\n        /* \"#utility.yul\":28708:28773   */\n      tag_324\n      jump\t// in\n    tag_582:\n        /* \"#utility.yul\":28643:28779   */\n      pop\n        /* \"#utility.yul\":28590:28779   */\n      pop\n      pop\n      jump\t// out\n        /* \"#utility.yul\":28785:28971   */\n    tag_327:\n        /* \"#utility.yul\":28845:28965   */\n    tag_584:\n        /* \"#utility.yul\":28862:28865   */\n      dup2\n        /* \"#utility.yul\":28855:28860   */\n      dup2\n        /* \"#utility.yul\":28852:28866   */\n      lt\n        /* \"#utility.yul\":28845:28965   */\n      iszero\n      tag_586\n      jumpi\n        /* \"#utility.yul\":28916:28955   */\n      tag_587\n        /* \"#utility.yul\":28953:28954   */\n      0x00\n        /* \"#utility.yul\":28946:28951   */\n      dup3\n        /* \"#utility.yul\":28916:28955   */\n      tag_326\n      jump\t// in\n    tag_587:\n        /* \"#utility.yul\":28889:28890   */\n      0x01\n        /* \"#utility.yul\":28882:28887   */\n      dup2\n        /* \"#utility.yul\":28878:28891   */\n      add\n        /* \"#utility.yul\":28869:28891   */\n      swap1\n      pop\n        /* \"#utility.yul\":28845:28965   */\n      jump(tag_584)\n    tag_586:\n        /* \"#utility.yul\":28785:28971   */\n      pop\n      pop\n      jump\t// out\n        /* \"#utility.yul\":28977:29520   */\n    tag_328:\n        /* \"#utility.yul\":29078:29080   */\n      0x1f\n        /* \"#utility.yul\":29073:29076   */\n      dup3\n        /* \"#utility.yul\":29070:29081   */\n      gt\n        /* \"#utility.yul\":29067:29513   */\n      iszero\n      tag_589\n      jumpi\n        /* \"#utility.yul\":29112:29150   */\n      tag_590\n        /* \"#utility.yul\":29144:29149   */\n      dup2\n        /* \"#utility.yul\":29112:29150   */\n      tag_317\n      jump\t// in\n    tag_590:\n        /* \"#utility.yul\":29196:29225   */\n      tag_591\n        /* \"#utility.yul\":29214:29224   */\n      dup5\n        /* \"#utility.yul\":29196:29225   */\n      tag_318\n      jump\t// in\n    tag_591:\n        /* \"#utility.yul\":29186:29194   */\n      dup2\n        /* \"#utility.yul\":29182:29226   */\n      add\n        /* \"#utility.yul\":29379:29381   */\n      0x20\n        /* \"#utility.yul\":29367:29377   */\n      dup6\n        /* \"#utility.yul\":29364:29382   */\n      lt\n        /* \"#utility.yul\":29361:29410   */\n      iszero\n      tag_592\n      jumpi\n        /* \"#utility.yul\":29400:29408   */\n      dup2\n        /* \"#utility.yul\":29385:29408   */\n      swap1\n      pop\n        /* \"#utility.yul\":29361:29410   */\n    tag_592:\n        /* \"#utility.yul\":29423:29503   */\n      tag_593\n        /* \"#utility.yul\":29479:29501   */\n      tag_594\n        /* \"#utility.yul\":29497:29500   */\n      dup6\n        /* \"#utility.yul\":29479:29501   */\n      tag_318\n      jump\t// in\n    tag_594:\n        /* \"#utility.yul\":29469:29477   */\n      dup4\n        /* \"#utility.yul\":29465:29502   */\n      add\n        /* \"#utility.yul\":29452:29463   */\n      dup3\n        /* \"#utility.yul\":29423:29503   */\n      tag_327\n      jump\t// in\n    tag_593:\n        /* \"#utility.yul\":29082:29513   */\n      pop\n      pop\n        /* \"#utility.yul\":29067:29513   */\n    tag_589:\n        /* \"#utility.yul\":28977:29520   */\n      pop\n      pop\n      pop\n      jump\t// out\n        /* \"#utility.yul\":29526:29643   */\n    tag_329:\n        /* \"#utility.yul\":29580:29588   */\n      0x00\n        /* \"#utility.yul\":29630:29635   */\n      dup3\n        /* \"#utility.yul\":29624:29628   */\n      dup3\n        /* \"#utility.yul\":29620:29636   */\n      shr\n        /* \"#utility.yul\":29599:29636   */\n      swap1\n      pop\n        /* \"#utility.yul\":29526:29643   */\n      swap3\n      swap2\n      pop\n      pop\n      jump\t// out\n        /* \"#utility.yul\":29649:29818   */\n    tag_330:\n        /* \"#utility.yul\":29693:29699   */\n      0x00\n        /* \"#utility.yul\":29726:29777   */\n      tag_597\n        /* \"#utility.yul\":29774:29775   */\n      0x00\n        /* \"#utility.yul\":29770:29776   */\n      not\n        /* \"#utility.yul\":29762:29767   */\n      dup5\n        /* \"#utility.yul\":29759:29760   */\n      0x08\n        /* \"#utility.yul\":29755:29768   */\n      mul\n        /* \"#utility.yul\":29726:29777   */\n      tag_329\n      jump\t// in\n    tag_597:\n        /* \"#utility.yul\":29722:29778   */\n      not\n        /* \"#utility.yul\":29807:29811   */\n      dup1\n        /* \"#utility.yul\":29801:29805   */\n      dup4\n        /* \"#utility.yul\":29797:29812   */\n      and\n        /* \"#utility.yul\":29787:29812   */\n      swap2\n      pop\n        /* \"#utility.yul\":29700:29818   */\n      pop\n        /* \"#utility.yul\":29649:29818   */\n      swap3\n      swap2\n      pop\n      pop\n      jump\t// out\n        /* \"#utility.yul\":29823:30118   */\n    tag_331:\n        /* \"#utility.yul\":29899:29903   */\n      0x00\n        /* \"#utility.yul\":30045:30074   */\n      tag_599\n        /* \"#utility.yul\":30070:30073   */\n      dup4\n        /* \"#utility.yul\":30064:30068   */\n      dup4\n        /* \"#utility.yul\":30045:30074   */\n      tag_330\n      jump\t// in\n    tag_599:\n        /* \"#utility.yul\":30037:30074   */\n      swap2\n      pop\n        /* \"#utility.yul\":30107:30110   */\n      dup3\n        /* \"#utility.yul\":30104:30105   */\n      0x02\n        /* \"#utility.yul\":30100:30111   */\n      mul\n        /* \"#utility.yul\":30094:30098   */\n      dup3\n        /* \"#utility.yul\":30091:30112   */\n      or\n        /* \"#utility.yul\":30083:30112   */\n      swap1\n      pop\n        /* \"#utility.yul\":29823:30118   */\n      swap3\n      swap2\n      pop\n      pop\n      jump\t// out\n        /* \"#utility.yul\":30123:31518   */\n    tag_244:\n        /* \"#utility.yul\":30240:30277   */\n      tag_601\n        /* \"#utility.yul\":30273:30276   */\n      dup3\n        /* \"#utility.yul\":30240:30277   */\n      tag_282\n      jump\t// in\n    tag_601:\n        /* \"#utility.yul\":30342:30360   */\n      0xffffffffffffffff\n        /* \"#utility.yul\":30334:30340   */\n      dup2\n        /* \"#utility.yul\":30331:30361   */\n      gt\n        /* \"#utility.yul\":30328:30384   */\n      iszero\n      tag_602\n      jumpi\n        /* \"#utility.yul\":30364:30382   */\n      tag_603\n      tag_183\n      jump\t// in\n    tag_603:\n        /* \"#utility.yul\":30328:30384   */\n    tag_602:\n        /* \"#utility.yul\":30408:30446   */\n      tag_604\n        /* \"#utility.yul\":30440:30444   */\n      dup3\n        /* \"#utility.yul\":30434:30445   */\n      sload\n        /* \"#utility.yul\":30408:30446   */\n      tag_112\n      jump\t// in\n    tag_604:\n        /* \"#utility.yul\":30493:30560   */\n      tag_605\n        /* \"#utility.yul\":30553:30559   */\n      dup3\n        /* \"#utility.yul\":30545:30551   */\n      dup3\n        /* \"#utility.yul\":30539:30543   */\n      dup6\n        /* \"#utility.yul\":30493:30560   */\n      tag_328\n      jump\t// in\n    tag_605:\n        /* \"#utility.yul\":30587:30588   */\n      0x00\n        /* \"#utility.yul\":30611:30615   */\n      0x20\n        /* \"#utility.yul\":30598:30615   */\n      swap1\n      pop\n        /* \"#utility.yul\":30643:30645   */\n      0x1f\n        /* \"#utility.yul\":30635:30641   */\n      dup4\n        /* \"#utility.yul\":30632:30646   */\n      gt\n        /* \"#utility.yul\":30660:30661   */\n      0x01\n        /* \"#utility.yul\":30655:31273   */\n      dup2\n      eq\n      tag_607\n      jumpi\n        /* \"#utility.yul\":31317:31318   */\n      0x00\n        /* \"#utility.yul\":31334:31340   */\n      dup5\n        /* \"#utility.yul\":31331:31408   */\n      iszero\n      tag_608\n      jumpi\n        /* \"#utility.yul\":31383:31392   */\n      dup3\n        /* \"#utility.yul\":31378:31381   */\n      dup8\n        /* \"#utility.yul\":31374:31393   */\n      add\n        /* \"#utility.yul\":31368:31394   */\n      mload\n        /* \"#utility.yul\":31359:31394   */\n      swap1\n      pop\n        /* \"#utility.yul\":31331:31408   */\n    tag_608:\n        /* \"#utility.yul\":31434:31501   */\n      tag_609\n        /* \"#utility.yul\":31494:31500   */\n      dup6\n        /* \"#utility.yul\":31487:31492   */\n      dup3\n        /* \"#utility.yul\":31434:31501   */\n      tag_331\n      jump\t// in\n    tag_609:\n        /* \"#utility.yul\":31428:31432   */\n      dup7\n        /* \"#utility.yul\":31421:31502   */\n      sstore\n        /* \"#utility.yul\":31290:31512   */\n      pop\n        /* \"#utility.yul\":30625:31512   */\n      jump(tag_606)\n        /* \"#utility.yul\":30655:31273   */\n    tag_607:\n        /* \"#utility.yul\":30707:30711   */\n      0x1f\n        /* \"#utility.yul\":30703:30712   */\n      not\n        /* \"#utility.yul\":30695:30701   */\n      dup5\n        /* \"#utility.yul\":30691:30713   */\n      and\n        /* \"#utility.yul\":30741:30778   */\n      tag_610\n        /* \"#utility.yul\":30773:30777   */\n      dup7\n        /* \"#utility.yul\":30741:30778   */\n      tag_317\n      jump\t// in\n    tag_610:\n        /* \"#utility.yul\":30800:30801   */\n      0x00\n        /* \"#utility.yul\":30814:31022   */\n    tag_611:\n        /* \"#utility.yul\":30828:30835   */\n      dup3\n        /* \"#utility.yul\":30825:30826   */\n      dup2\n        /* \"#utility.yul\":30822:30836   */\n      lt\n        /* \"#utility.yul\":30814:31022   */\n      iszero\n      tag_613\n      jumpi\n        /* \"#utility.yul\":30907:30916   */\n      dup5\n        /* \"#utility.yul\":30902:30905   */\n      dup10\n        /* \"#utility.yul\":30898:30917   */\n      add\n        /* \"#utility.yul\":30892:30918   */\n      mload\n        /* \"#utility.yul\":30884:30890   */\n      dup3\n        /* \"#utility.yul\":30877:30919   */\n      sstore\n        /* \"#utility.yul\":30958:30959   */\n      0x01\n        /* \"#utility.yul\":30950:30956   */\n      dup3\n        /* \"#utility.yul\":30946:30960   */\n      add\n        /* \"#utility.yul\":30936:30960   */\n      swap2\n      pop\n        /* \"#utility.yul\":31005:31007   */\n      0x20\n        /* \"#utility.yul\":30994:31003   */\n      dup6\n        /* \"#utility.yul\":30990:31008   */\n      add\n        /* \"#utility.yul\":30977:31008   */\n      swap5\n      pop\n        /* \"#utility.yul\":30851:30855   */\n      0x20\n        /* \"#utility.yul\":30848:30849   */\n      dup2\n        /* \"#utility.yul\":30844:30856   */\n      add\n        /* \"#utility.yul\":30839:30856   */\n      swap1\n      pop\n        /* \"#utility.yul\":30814:31022   */\n      jump(tag_611)\n    tag_613:\n        /* \"#utility.yul\":31050:31056   */\n      dup7\n        /* \"#utility.yul\":31041:31048   */\n      dup4\n        /* \"#utility.yul\":31038:31057   */\n      lt\n        /* \"#utility.yul\":31035:31214   */\n      iszero\n      tag_614\n      jumpi\n        /* \"#utility.yul\":31108:31117   */\n      dup5\n        /* \"#utility.yul\":31103:31106   */\n      dup10\n        /* \"#utility.yul\":31099:31118   */\n      add\n        /* \"#utility.yul\":31093:31119   */\n      mload\n        /* \"#utility.yul\":31151:31199   */\n      tag_615\n        /* \"#utility.yul\":31193:31197   */\n      0x1f\n        /* \"#utility.yul\":31185:31191   */\n      dup10\n        /* \"#utility.yul\":31181:31198   */\n      and\n        /* \"#utility.yul\":31170:31179   */\n      dup3\n        /* \"#utility.yul\":31151:31199   */\n      tag_330\n      jump\t// in\n    tag_615:\n        /* \"#utility.yul\":31143:31149   */\n      dup4\n        /* \"#utility.yul\":31136:31200   */\n      sstore\n        /* \"#utility.yul\":31058:31214   */\n      pop\n        /* \"#utility.yul\":31035:31214   */\n    tag_614:\n        /* \"#utility.yul\":31260:31261   */\n      0x01\n        /* \"#utility.yul\":31256:31257   */\n      0x02\n        /* \"#utility.yul\":31248:31254   */\n      dup9\n        /* \"#utility.yul\":31244:31258   */\n      mul\n        /* \"#utility.yul\":31240:31262   */\n      add\n        /* \"#utility.yul\":31234:31238   */\n      dup9\n        /* \"#utility.yul\":31227:31263   */\n      sstore\n        /* \"#utility.yul\":30662:31273   */\n      pop\n      pop\n      pop\n        /* \"#utility.yul\":30625:31512   */\n    tag_606:\n      pop\n        /* \"#utility.yul\":30215:31518   */\n      pop\n      pop\n      pop\n        /* \"#utility.yul\":30123:31518   */\n      pop\n      pop\n      jump\t// out\n        /* \"#utility.yul\":31524:31677   */\n    tag_332:\n        /* \"#utility.yul\":31622:31670   */\n      tag_617\n        /* \"#utility.yul\":31664:31669   */\n      dup2\n        /* \"#utility.yul\":31622:31670   */\n      tag_280\n      jump\t// in\n    tag_617:\n        /* \"#utility.yul\":31617:31620   */\n      dup3\n        /* \"#utility.yul\":31610:31671   */\n      mstore\n        /* \"#utility.yul\":31524:31677   */\n      pop\n      pop\n      jump\t// out\n        /* \"#utility.yul\":31683:31831   */\n    tag_333:\n        /* \"#utility.yul\":31781:31787   */\n      dup3\n        /* \"#utility.yul\":31776:31779   */\n      dup2\n        /* \"#utility.yul\":31771:31774   */\n      dup4\n        /* \"#utility.yul\":31758:31788   */\n      calldatacopy\n        /* \"#utility.yul\":31822:31823   */\n      0x00\n        /* \"#utility.yul\":31813:31819   */\n      dup4\n        /* \"#utility.yul\":31808:31811   */\n      dup4\n        /* \"#utility.yul\":31804:31820   */\n      add\n        /* \"#utility.yul\":31797:31824   */\n      mstore\n        /* \"#utility.yul\":31683:31831   */\n      pop\n      pop\n      pop\n      jump\t// out\n        /* \"#utility.yul\":31861:32178   */\n    tag_334:\n        /* \"#utility.yul\":31959:31962   */\n      0x00\n        /* \"#utility.yul\":31980:32051   */\n      tag_620\n        /* \"#utility.yul\":32044:32050   */\n      dup4\n        /* \"#utility.yul\":32039:32042   */\n      dup6\n        /* \"#utility.yul\":31980:32051   */\n      tag_297\n      jump\t// in\n    tag_620:\n        /* \"#utility.yul\":31973:32051   */\n      swap4\n      pop\n        /* \"#utility.yul\":32061:32117   */\n      tag_621\n        /* \"#utility.yul\":32110:32116   */\n      dup4\n        /* \"#utility.yul\":32105:32108   */\n      dup6\n        /* \"#utility.yul\":32098:32103   */\n      dup5\n        /* \"#utility.yul\":32061:32117   */\n      tag_333\n      jump\t// in\n    tag_621:\n        /* \"#utility.yul\":32142:32171   */\n      tag_622\n        /* \"#utility.yul\":32164:32170   */\n      dup4\n        /* \"#utility.yul\":32142:32171   */\n      tag_285\n      jump\t// in\n    tag_622:\n        /* \"#utility.yul\":32137:32140   */\n      dup5\n        /* \"#utility.yul\":32133:32172   */\n      add\n        /* \"#utility.yul\":32126:32172   */\n      swap1\n      pop\n        /* \"#utility.yul\":31861:32178   */\n      swap4\n      swap3\n      pop\n      pop\n      pop\n      jump\t// out\n        /* \"#utility.yul\":32184:32870   */\n    tag_250:\n        /* \"#utility.yul\":32402:32406   */\n      0x00\n        /* \"#utility.yul\":32440:32443   */\n      0x80\n        /* \"#utility.yul\":32429:32438   */\n      dup3\n        /* \"#utility.yul\":32425:32444   */\n      add\n        /* \"#utility.yul\":32417:32444   */\n      swap1\n      pop\n        /* \"#utility.yul\":32454:32536   */\n      tag_624\n        /* \"#utility.yul\":32533:32534   */\n      0x00\n        /* \"#utility.yul\":32522:32531   */\n      dup4\n        /* \"#utility.yul\":32518:32535   */\n      add\n        /* \"#utility.yul\":32509:32515   */\n      dup9\n        /* \"#utility.yul\":32454:32536   */\n      tag_332\n      jump\t// in\n    tag_624:\n        /* \"#utility.yul\":32583:32592   */\n      dup2\n        /* \"#utility.yul\":32577:32581   */\n      dup2\n        /* \"#utility.yul\":32573:32593   */\n      sub\n        /* \"#utility.yul\":32568:32570   */\n      0x20\n        /* \"#utility.yul\":32557:32566   */\n      dup4\n        /* \"#utility.yul\":32553:32571   */\n      add\n        /* \"#utility.yul\":32546:32594   */\n      mstore\n        /* \"#utility.yul\":32611:32699   */\n      tag_625\n        /* \"#utility.yul\":32694:32698   */\n      dup2\n        /* \"#utility.yul\":32685:32691   */\n      dup7\n        /* \"#utility.yul\":32677:32683   */\n      dup9\n        /* \"#utility.yul\":32611:32699   */\n      tag_334\n      jump\t// in\n    tag_625:\n        /* \"#utility.yul\":32603:32699   */\n      swap1\n      pop\n        /* \"#utility.yul\":32709:32781   */\n      tag_626\n        /* \"#utility.yul\":32777:32779   */\n      0x40\n        /* \"#utility.yul\":32766:32775   */\n      dup4\n        /* \"#utility.yul\":32762:32780   */\n      add\n        /* \"#utility.yul\":32753:32759   */\n      dup6\n        /* \"#utility.yul\":32709:32781   */\n      tag_267\n      jump\t// in\n    tag_626:\n        /* \"#utility.yul\":32791:32863   */\n      tag_627\n        /* \"#utility.yul\":32859:32861   */\n      0x60\n        /* \"#utility.yul\":32848:32857   */\n      dup4\n        /* \"#utility.yul\":32844:32862   */\n      add\n        /* \"#utility.yul\":32835:32841   */\n      dup5\n        /* \"#utility.yul\":32791:32863   */\n      tag_267\n      jump\t// in\n    tag_627:\n        /* \"#utility.yul\":32184:32870   */\n      swap7\n      swap6\n      pop\n      pop\n      pop\n      pop\n      pop\n      pop\n      jump\t// out\n\n    auxdata: 0xa2646970667358221220173191b99ae6463ddfff35e56f0d21f5cf1f547d5aa0ac6e34770a3d4f0eb53c64736f6c634300081f0033\n}\n",
				"bytecode": {
					"linkReferences": {},
					"object": "608060405234801561000f575f5ffd5b5060015f5f7f1effbbff9c66c5e59634f24fe842750c60d18891155c32dd155fc2d661a4c86d81526020019081526020015f205f3373ffffffffffffffffffffffffffffffffffffffff1673ffffffffffffffffffffffffffffffffffffffff1681526020019081526020015f205f6101000a81548160ff0219169083151502179055503373ffffffffffffffffffffffffffffffffffffffff163373ffffffffffffffffffffffffffffffffffffffff167f1effbbff9c66c5e59634f24fe842750c60d18891155c32dd155fc2d661a4c86d7f2f8788117e7eff1d82e926ec794901d17c78024a50270940304540a733656f0d60405160405180910390a4612a658061011b5f395ff3fe608060405234801561000f575f5ffd5b506004361061011f575f3560e01c80638bb9c5bf116100ab578063b73868621161006f578063b738686214610309578063c231fa4614610339578063d11a57ec14610369578063d547741f14610387578063de7eb189146103a35761011f565b80638bb9c5bf1461023f5780638c4d6e0f1461025b57806391d148541461028b57806398ba676d146102bb578063a217fddf146102eb5761011f565b80633b129a56116100f25780633b129a56146101a95780634245962b146101c757806342f1e879146101e55780636e1d616e146102035780637bf0fbde146102215761011f565b806301eddb4a146101235780630c4bc2e41461015357806318989def146101715780632f2ff15d1461018d575b5f5ffd5b61013d60048036038101906101389190611a6e565b6103bf565b60405161014a9190611aec565b60405180910390f35b61015b6105cf565b6040516101689190611b14565b60405180910390f35b61018b60048036038101906101869190611b8e565b6105db565b005b6101a760048036038101906101a29190611c1e565b61081b565b005b6101b1610a9a565b6040516101be9190611c6b565b60405180910390f35b6101cf610abe565b6040516101dc9190611c6b565b60405180910390f35b6101ed610ae2565b6040516101fa9190611c6b565b60405180910390f35b61020b610b06565b6040516102189190611c6b565b60405180910390f35b610229610b2a565b6040516102369190611c6b565b60405180910390f35b61025960048036038101906102549190611c84565b610b4e565b005b61027560048036038101906102709190611caf565b610ca5565b6040516102829190611b14565b60405180910390f35b6102a560048036038101906102a09190611c1e565b610cc2565b6040516102b29190611aec565b60405180910390f35b6102d560048036038101906102d09190611cda565b610d23565b6040516102e29190611e9f565b60405180910390f35b6102f3610f00565b6040516103009190611c6b565b60405180910390f35b610323600480360381019061031e9190611cda565b610f24565b6040516103309190612000565b60405180910390f35b610353600480360381019061034e9190611caf565b6111a6565b6040516103609190612000565b60405180910390f35b610371611350565b60405161037e9190611c6b565b60405180910390f35b6103a1600480360381019061039c9190611c1e565b611374565b005b6103bd60048036038101906103b89190612075565b611583565b005b5f60015f8681526020019081526020015f208054905084106103e3575f90506105c7565b5f60015f8781526020019081526020015f208581548110610407576104066120f9565b5b905f5260205f2090600502016040518060c00160405290815f8201548152602001600182015f9054906101000a900473ffffffffffffffffffffffffffffffffffffffff1673ffffffffffffffffffffffffffffffffffffffff1673ffffffffffffffffffffffffffffffffffffffff1681526020016001820160149054906101000a900460ff1660068111156104a1576104a0611d36565b5b60068111156104b3576104b2611d36565b5b81526020016002820180546104c790612153565b80601f01602080910402602001604051908101604052809291908181526020018280546104f390612153565b801561053e5780601f106105155761010080835404028352916020019161053e565b820191905f5260205f20905b81548152906001019060200180831161052157829003601f168201915b505050505081526020016003820154815260200160048201548152505090508373ffffffffffffffffffffffffffffffffffffffff16816020015173ffffffffffffffffffffffffffffffffffffffff161480156105c357508260068111156105aa576105a9611d36565b5b816040015160068111156105c1576105c0611d36565b5b145b9150505b949350505050565b5f600280549050905090565b5f5f7f1effbbff9c66c5e59634f24fe842750c60d18891155c32dd155fc2d661a4c86d81526020019081526020015f205f3373ffffffffffffffffffffffffffffffffffffffff1673ffffffffffffffffffffffffffffffffffffffff1681526020019081526020015f205f9054906101000a900460ff16610692576040517f08c379a0000000000000000000000000000000000000000000000000000000008152600401610689906121dd565b60405180910390fd5b5f5f90505b83839050811015610815575f5f8585848181106106b7576106b66120f9565b5b9050602002013581526020019081526020015f205f8373ffffffffffffffffffffffffffffffffffffffff1673ffffffffffffffffffffffffffffffffffffffff1681526020019081526020015f205f9054906101000a900460ff166108085760015f5f86868581811061072e5761072d6120f9565b5b9050602002013581526020019081526020015f205f8473ffffffffffffffffffffffffffffffffffffffff1673ffffffffffffffffffffffffffffffffffffffff1681526020019081526020015f205f6101000a81548160ff0219169083151502179055503373ffffffffffffffffffffffffffffffffffffffff168273ffffffffffffffffffffffffffffffffffffffff168585848181106107d4576107d36120f9565b5b905060200201357f2f8788117e7eff1d82e926ec794901d17c78024a50270940304540a733656f0d60405160405180910390a45b8080600101915050610697565b50505050565b5f5f7f1effbbff9c66c5e59634f24fe842750c60d18891155c32dd155fc2d661a4c86d81526020019081526020015f205f3373ffffffffffffffffffffffffffffffffffffffff1673ffffffffffffffffffffffffffffffffffffffff1681526020019081526020015f205f9054906101000a900460ff166108d2576040517f08c379a00000000000000000000000000000000000000000000000000000000081526004016108c9906121dd565b60405180910390fd5b5f73ffffffffffffffffffffffffffffffffffffffff168173ffffffffffffffffffffffffffffffffffffffff1603610940576040517f08c379a00000000000000000000000000000000000000000000000000000000081526004016109379061226b565b60405180910390fd5b5f5f8381526020019081526020015f205f8273ffffffffffffffffffffffffffffffffffffffff1673ffffffffffffffffffffffffffffffffffffffff1681526020019081526020015f205f9054906101000a900460ff16156109d8576040517f08c379a00000000000000000000000000000000000000000000000000000000081526004016109cf906122f9565b60405180910390fd5b60015f5f8481526020019081526020015f205f8373ffffffffffffffffffffffffffffffffffffffff1673ffffffffffffffffffffffffffffffffffffffff1681526020019081526020015f205f6101000a81548160ff0219169083151502179055503373ffffffffffffffffffffffffffffffffffffffff168173ffffffffffffffffffffffffffffffffffffffff16837f2f8788117e7eff1d82e926ec794901d17c78024a50270940304540a733656f0d60405160405180910390a45050565b7fc10c77be35aff266144ed64c26a1fa104bae2f284ae99ac4a34203454704a18581565b7f408a36151f841709116a4e8aca4e0202874f7f54687dcb863b1ea4672dc9d8cf81565b7fc2979137d1774e40fe2638d355bf7a7b092be4c67f242aad1655e1e27f9df9cc81565b7f59a1c48e5837ad7a7f3dcedcbe129bf3249ec4fbf651fd4f5e2600ead39fe2f581565b7f566c814873eed56a69b28c40ab27cc2cb150d74068bae3e884ccd44f8de60f8a81565b5f5f8281526020019081526020015f205f3373ffffffffffffffffffffffffffffffffffffffff1673ffffffffffffffffffffffffffffffffffffffff1681526020019081526020015f205f9054906101000a900460ff16610be5576040517f08c379a0000000000000000000000000000000000000000000000000000000008152600401610bdc90612387565b60405180910390fd5b5f5f5f8381526020019081526020015f205f3373ffffffffffffffffffffffffffffffffffffffff1673ffffffffffffffffffffffffffffffffffffffff1681526020019081526020015f205f6101000a81548160ff0219169083151502179055503373ffffffffffffffffffffffffffffffffffffffff163373ffffffffffffffffffffffffffffffffffffffff16827ff6391f5c32d9c69d2a47ea670b442974b53935d1edc7fd64eb21e047a839171b60405160405180910390a450565b5f60015f8381526020019081526020015f20805490509050919050565b5f5f5f8481526020019081526020015f205f8373ffffffffffffffffffffffffffffffffffffffff1673ffffffffffffffffffffffffffffffffffffffff1681526020019081526020015f205f9054906101000a900460ff16905092915050565b610d2b61195d565b60015f8481526020019081526020015f20805490508210610d81576040517f08c379a0000000000000000000000000000000000000000000000000000000008152600401610d7890612415565b60405180910390fd5b60015f8481526020019081526020015f208281548110610da457610da36120f9565b5b905f5260205f2090600502016040518060c00160405290815f8201548152602001600182015f9054906101000a900473ffffffffffffffffffffffffffffffffffffffff1673ffffffffffffffffffffffffffffffffffffffff1673ffffffffffffffffffffffffffffffffffffffff1681526020016001820160149054906101000a900460ff166006811115610e3e57610e3d611d36565b5b6006811115610e5057610e4f611d36565b5b8152602001600282018054610e6490612153565b80601f0160208091040260200160405190810160405280929190818152602001828054610e9090612153565b8015610edb5780601f10610eb257610100808354040283529160200191610edb565b820191905f5260205f20905b815481529060010190602001808311610ebe57829003601f168201915b5050505050815260200160038201548152602001600482015481525050905092915050565b7f1effbbff9c66c5e59634f24fe842750c60d18891155c32dd155fc2d661a4c86d81565b60606002805490508310610f6d576040517f08c379a0000000000000000000000000000000000000000000000000000000008152600401610f64906124a3565b60405180910390fd5b5f8284610f7a91906124ee565b9050600280549050811115610f925760028054905090505b8381610f9e9190612521565b67ffffffffffffffff811115610fb757610fb6612554565b5b604051908082528060200260200182016040528015610ff057816020015b610fdd61195d565b815260200190600190039081610fd55790505b5091505f8490505b8181101561119e5760028181548110611014576110136120f9565b5b905f5260205f2090600502016040518060c00160405290815f8201548152602001600182015f9054906101000a900473ffffffffffffffffffffffffffffffffffffffff1673ffffffffffffffffffffffffffffffffffffffff1673ffffffffffffffffffffffffffffffffffffffff1681526020016001820160149054906101000a900460ff1660068111156110ae576110ad611d36565b5b60068111156110c0576110bf611d36565b5b81526020016002820180546110d490612153565b80601f016020809104026020016040519081016040528092919081815260200182805461110090612153565b801561114b5780601f106111225761010080835404028352916020019161114b565b820191905f5260205f20905b81548152906001019060200180831161112e57829003601f168201915b50505050508152602001600382015481526020016004820154815250508386836111759190612521565b81518110611186576111856120f9565b5b60200260200101819052508080600101915050610ff8565b505092915050565b606060015f8381526020019081526020015f20805480602002602001604051908101604052809291908181526020015f905b82821015611345578382905f5260205f2090600502016040518060c00160405290815f8201548152602001600182015f9054906101000a900473ffffffffffffffffffffffffffffffffffffffff1673ffffffffffffffffffffffffffffffffffffffff1673ffffffffffffffffffffffffffffffffffffffff1681526020016001820160149054906101000a900460ff16600681111561127c5761127b611d36565b5b600681111561128e5761128d611d36565b5b81526020016002820180546112a290612153565b80601f01602080910402602001604051908101604052809291908181526020018280546112ce90612153565b80156113195780601f106112f057610100808354040283529160200191611319565b820191905f5260205f20905b8154815290600101906020018083116112fc57829003601f168201915b5050505050815260200160038201548152602001600482015481525050815260200190600101906111d8565b505050509050919050565b7fe1dcbdb91df27212a29bc27177c840cf2f819ecf2187432e1fac86c2dd5dfca981565b5f5f7f1effbbff9c66c5e59634f24fe842750c60d18891155c32dd155fc2d661a4c86d81526020019081526020015f205f3373ffffffffffffffffffffffffffffffffffffffff1673ffffffffffffffffffffffffffffffffffffffff1681526020019081526020015f205f9054906101000a900460ff1661142b576040517f08c379a0000000000000000000000000000000000000000000000000000000008152600401611422906121dd565b60405180910390fd5b5f5f8381526020019081526020015f205f8273ffffffffffffffffffffffffffffffffffffffff1673ffffffffffffffffffffffffffffffffffffffff1681526020019081526020015f205f9054906101000a900460ff166114c2576040517f08c379a00000000000000000000000000000000000000000000000000000000081526004016114b9906125f1565b60405180910390fd5b5f5f5f8481526020019081526020015f205f8373ffffffffffffffffffffffffffffffffffffffff1673ffffffffffffffffffffffffffffffffffffffff1681526020019081526020015f205f6101000a81548160ff0219169083151502179055503373ffffffffffffffffffffffffffffffffffffffff168173ffffffffffffffffffffffffffffffffffffffff16837ff6391f5c32d9c69d2a47ea670b442974b53935d1edc7fd64eb21e047a839171b60405160405180910390a45050565b7f566c814873eed56a69b28c40ab27cc2cb150d74068bae3e884ccd44f8de60f8a5f5f8281526020019081526020015f205f3373ffffffffffffffffffffffffffffffffffffffff1673ffffffffffffffffffffffffffffffffffffffff1681526020019081526020015f205f9054906101000a900460ff1661163b576040517f08c379a00000000000000000000000000000000000000000000000000000000081526004016116329061267f565b60405180910390fd5b6003600681111561164f5761164e611d36565b5b84600681111561166257611661611d36565b5b036116ad575f83839050116116ac576040517f08c379a00000000000000000000000000000000000000000000000000000000081526004016116a39061270d565b60405180910390fd5b5b5f6040518060c001604052808881526020018773ffffffffffffffffffffffffffffffffffffffff1681526020018660068111156116ee576116ed611d36565b5b815260200185858080601f0160208091040260200160405190810160405280939291908181526020018383808284375f81840152601f19601f82011690508083019250505050505050815260200142815260200143815250905060015f8881526020019081526020015f2081908060018154018082558091505060019003905f5260205f2090600502015f909190919091505f820151815f01556020820151816001015f6101000a81548173ffffffffffffffffffffffffffffffffffffffff021916908373ffffffffffffffffffffffffffffffffffffffff16021790555060408201518160010160146101000a81548160ff021916908360068111156117f9576117f8611d36565b5b0217905550606082015181600201908161181391906128cb565b506080820151816003015560a082015181600401555050600281908060018154018082558091505060019003905f5260205f2090600502015f909190919091505f820151815f01556020820151816001015f6101000a81548173ffffffffffffffffffffffffffffffffffffffff021916908373ffffffffffffffffffffffffffffffffffffffff16021790555060408201518160010160146101000a81548160ff021916908360068111156118cc576118cb611d36565b5b021790555060608201518160020190816118e691906128cb565b506080820151816003015560a0820151816004015550508573ffffffffffffffffffffffffffffffffffffffff16877f9f56068d55f366cf8b974ea35757ec1b49652bf4d550f14847f2b6aebc00ea53878787424360405161194c9594939291906129e3565b60405180910390a350505050505050565b6040518060c001604052805f81526020015f73ffffffffffffffffffffffffffffffffffffffff1681526020015f600681111561199d5761199c611d36565b5b8152602001606081526020015f81526020015f81525090565b5f5ffd5b5f5ffd5b5f819050919050565b6119d0816119be565b81146119da575f5ffd5b50565b5f813590506119eb816119c7565b92915050565b5f73ffffffffffffffffffffffffffffffffffffffff82169050919050565b5f611a1a826119f1565b9050919050565b611a2a81611a10565b8114611a34575f5ffd5b50565b5f81359050611a4581611a21565b92915050565b60078110611a57575f5ffd5b50565b5f81359050611a6881611a4b565b92915050565b5f5f5f5f60808587031215611a8657611a856119b6565b5b5f611a93878288016119dd565b9450506020611aa4878288016119dd565b9350506040611ab587828801611a37565b9250506060611ac687828801611a5a565b91505092959194509250565b5f8115159050919050565b611ae681611ad2565b82525050565b5f602082019050611aff5f830184611add565b92915050565b611b0e816119be565b82525050565b5f602082019050611b275f830184611b05565b92915050565b5f5ffd5b5f5ffd5b5f5ffd5b5f5f83601f840112611b4e57611b4d611b2d565b5b8235905067ffffffffffffffff811115611b6b57611b6a611b31565b5b602083019150836020820283011115611b8757611b86611b35565b5b9250929050565b5f5f5f60408486031215611ba557611ba46119b6565b5b5f84013567ffffffffffffffff811115611bc257611bc16119ba565b5b611bce86828701611b39565b93509350506020611be186828701611a37565b9150509250925092565b5f819050919050565b611bfd81611beb565b8114611c07575f5ffd5b50565b5f81359050611c1881611bf4565b92915050565b5f5f60408385031215611c3457611c336119b6565b5b5f611c4185828601611c0a565b9250506020611c5285828601611a37565b9150509250929050565b611c6581611beb565b82525050565b5f602082019050611c7e5f830184611c5c565b92915050565b5f60208284031215611c9957611c986119b6565b5b5f611ca684828501611c0a565b91505092915050565b5f60208284031215611cc457611cc36119b6565b5b5f611cd1848285016119dd565b91505092915050565b5f5f60408385031215611cf057611cef6119b6565b5b5f611cfd858286016119dd565b9250506020611d0e858286016119dd565b9150509250929050565b611d21816119be565b82525050565b611d3081611a10565b82525050565b7f4e487b71000000000000000000000000000000000000000000000000000000005f52602160045260245ffd5b60078110611d7457611d73611d36565b5b50565b5f819050611d8482611d63565b919050565b5f611d9382611d77565b9050919050565b611da381611d89565b82525050565b5f81519050919050565b5f82825260208201905092915050565b8281835e5f83830152505050565b5f601f19601f8301169050919050565b5f611deb82611da9565b611df58185611db3565b9350611e05818560208601611dc3565b611e0e81611dd1565b840191505092915050565b5f60c083015f830151611e2e5f860182611d18565b506020830151611e416020860182611d27565b506040830151611e546040860182611d9a565b5060608301518482036060860152611e6c8282611de1565b9150506080830151611e816080860182611d18565b5060a0830151611e9460a0860182611d18565b508091505092915050565b5f6020820190508181035f830152611eb78184611e19565b905092915050565b5f81519050919050565b5f82825260208201905092915050565b5f819050602082019050919050565b5f60c083015f830151611efd5f860182611d18565b506020830151611f106020860182611d27565b506040830151611f236040860182611d9a565b5060608301518482036060860152611f3b8282611de1565b9150506080830151611f506080860182611d18565b5060a0830151611f6360a0860182611d18565b508091505092915050565b5f611f798383611ee8565b905092915050565b5f602082019050919050565b5f611f9782611ebf565b611fa18185611ec9565b935083602082028501611fb385611ed9565b805f5b85811015611fee5784840389528151611fcf8582611f6e565b9450611fda83611f81565b925060208a01995050600181019050611fb6565b50829750879550505050505092915050565b5f6020820190508181035f8301526120188184611f8d565b905092915050565b5f5f83601f84011261203557612034611b2d565b5b8235905067ffffffffffffffff81111561205257612051611b31565b5b60208301915083600182028301111561206e5761206d611b35565b5b9250929050565b5f5f5f5f5f6080868803121561208e5761208d6119b6565b5b5f61209b888289016119dd565b95505060206120ac88828901611a37565b94505060406120bd88828901611a5a565b935050606086013567ffffffffffffffff8111156120de576120dd6119ba565b5b6120ea88828901612020565b92509250509295509295909350565b7f4e487b71000000000000000000000000000000000000000000000000000000005f52603260045260245ffd5b7f4e487b71000000000000000000000000000000000000000000000000000000005f52602260045260245ffd5b5f600282049050600182168061216a57607f821691505b60208210810361217d5761217c612126565b5b50919050565b5f82825260208201905092915050565b7f526f6c654163636573733a2063616c6c6572206973206e6f742061646d696e005f82015250565b5f6121c7601f83612183565b91506121d282612193565b602082019050919050565b5f6020820190508181035f8301526121f4816121bb565b9050919050565b7f526f6c654163636573733a2063616e6e6f74206772616e7420726f6c6520746f5f8201527f207a65726f206164647265737300000000000000000000000000000000000000602082015250565b5f612255602d83612183565b9150612260826121fb565b604082019050919050565b5f6020820190508181035f83015261228281612249565b9050919050565b7f526f6c654163636573733a206163636f756e7420616c726561647920686173205f8201527f7468697320726f6c650000000000000000000000000000000000000000000000602082015250565b5f6122e3602983612183565b91506122ee82612289565b604082019050919050565b5f6020820190508181035f830152612310816122d7565b9050919050565b7f526f6c654163636573733a2063616c6c657220646f6573206e6f7420686176655f8201527f207468697320726f6c6500000000000000000000000000000000000000000000602082015250565b5f612371602a83612183565b915061237c82612317565b604082019050919050565b5f6020820190508181035f83015261239e81612365565b9050919050565b7f41756469744c6f673a20656e74727920696e646578206f7574206f6620626f755f8201527f6e64730000000000000000000000000000000000000000000000000000000000602082015250565b5f6123ff602383612183565b915061240a826123a5565b604082019050919050565b5f6020820190508181035f83015261242c816123f3565b9050919050565b7f41756469744c6f673a2066726f6d20696e646578206f7574206f6620626f756e5f8201527f6473000000000000000000000000000000000000000000000000000000000000602082015250565b5f61248d602283612183565b915061249882612433565b604082019050919050565b5f6020820190508181035f8301526124ba81612481565b9050919050565b7f4e487b71000000000000000000000000000000000000000000000000000000005f52601160045260245ffd5b5f6124f8826119be565b9150612503836119be565b925082820190508082111561251b5761251a6124c1565b5b92915050565b5f61252b826119be565b9150612536836119be565b925082820390508181111561254e5761254d6124c1565b5b92915050565b7f4e487b71000000000000000000000000000000000000000000000000000000005f52604160045260245ffd5b7f526f6c654163636573733a206163636f756e7420646f6573206e6f74206861765f8201527f65207468697320726f6c65000000000000000000000000000000000000000000602082015250565b5f6125db602b83612183565b91506125e682612581565b604082019050919050565b5f6020820190508181035f830152612608816125cf565b9050919050565b7f526f6c654163636573733a2063616c6c657220646f6573206e6f7420686176655f8201527f20726571756972656420726f6c65000000000000000000000000000000000000602082015250565b5f612669602e83612183565b91506126748261260f565b604082019050919050565b5f6020820190508181035f8301526126968161265d565b9050919050565b7f41756469744c6f673a2072656a656374696f6e20726561736f6e2063616e6e6f5f8201527f7420626520656d70747900000000000000000000000000000000000000000000602082015250565b5f6126f7602a83612183565b91506127028261269d565b604082019050919050565b5f6020820190508181035f830152612724816126eb565b9050919050565b5f819050815f5260205f209050919050565b5f6020601f8301049050919050565b5f82821b905092915050565b5f600883026127877fffffffffffffffffffffffffffffffffffffffffffffffffffffffffffffffff8261274c565b612791868361274c565b95508019841693508086168417925050509392505050565b5f819050919050565b5f6127cc6127c76127c2846119be565b6127a9565b6119be565b9050919050565b5f819050919050565b6127e5836127b2565b6127f96127f1826127d3565b848454612758565b825550505050565b5f5f905090565b612810612801565b61281b8184846127dc565b505050565b5b8181101561283e576128335f82612808565b600181019050612821565b5050565b601f821115612883576128548161272b565b61285d8461273d565b8101602085101561286c578190505b6128806128788561273d565b830182612820565b50505b505050565b5f82821c905092915050565b5f6128a35f1984600802612888565b1980831691505092915050565b5f6128bb8383612894565b9150826002028217905092915050565b6128d482611da9565b67ffffffffffffffff8111156128ed576128ec612554565b5b6128f78254612153565b612902828285612842565b5f60209050601f831160018114612933575f8415612921578287015190505b61292b85826128b0565b865550612992565b601f1984166129418661272b565b5f5b8281101561296857848901518255600182019150602085019450602081019050612943565b868310156129855784890151612981601f891682612894565b8355505b6001600288020188555050505b505050505050565b6129a381611d89565b82525050565b828183375f83830152505050565b5f6129c28385612183565b93506129cf8385846129a9565b6129d883611dd1565b840190509392505050565b5f6080820190506129f65f83018861299a565b8181036020830152612a098186886129b7565b9050612a186040830185611b05565b612a256060830184611b05565b969550505050505056fea2646970667358221220173191b99ae6463ddfff35e56f0d21f5cf1f547d5aa0ac6e34770a3d4f0eb53c64736f6c634300081f0033",
					"opcodes": "PUSH1 0x80 PUSH1 0x40 MSTORE CALLVALUE DUP1 ISZERO PUSH2 0xF JUMPI PUSH0 PUSH0 REVERT JUMPDEST POP PUSH1 0x1 PUSH0 PUSH0 PUSH32 0x1EFFBBFF9C66C5E59634F24FE842750C60D18891155C32DD155FC2D661A4C86D DUP2 MSTORE PUSH1 0x20 ADD SWAP1 DUP2 MSTORE PUSH1 0x20 ADD PUSH0 KECCAK256 PUSH0 CALLER PUSH20 0xFFFFFFFFFFFFFFFFFFFFFFFFFFFFFFFFFFFFFFFF AND PUSH20 0xFFFFFFFFFFFFFFFFFFFFFFFFFFFFFFFFFFFFFFFF AND DUP2 MSTORE PUSH1 0x20 ADD SWAP1 DUP2 MSTORE PUSH1 0x20 ADD PUSH0 KECCAK256 PUSH0 PUSH2 0x100 EXP DUP2 SLOAD DUP2 PUSH1 0xFF MUL NOT AND SWAP1 DUP4 ISZERO ISZERO MUL OR SWAP1 SSTORE POP CALLER PUSH20 0xFFFFFFFFFFFFFFFFFFFFFFFFFFFFFFFFFFFFFFFF AND CALLER PUSH20 0xFFFFFFFFFFFFFFFFFFFFFFFFFFFFFFFFFFFFFFFF AND PUSH32 0x1EFFBBFF9C66C5E59634F24FE842750C60D18891155C32DD155FC2D661A4C86D PUSH32 0x2F8788117E7EFF1D82E926EC794901D17C78024A50270940304540A733656F0D PUSH1 0x40 MLOAD PUSH1 0x40 MLOAD DUP1 SWAP2 SUB SWAP1 LOG4 PUSH2 0x2A65 DUP1 PUSH2 0x11B PUSH0 CODECOPY PUSH0 RETURN INVALID PUSH1 0x80 PUSH1 0x40 MSTORE CALLVALUE DUP1 ISZERO PUSH2 0xF JUMPI PUSH0 PUSH0 REVERT JUMPDEST POP PUSH1 0x4 CALLDATASIZE LT PUSH2 0x11F JUMPI PUSH0 CALLDATALOAD PUSH1 0xE0 SHR DUP1 PUSH4 0x8BB9C5BF GT PUSH2 0xAB JUMPI DUP1 PUSH4 0xB7386862 GT PUSH2 0x6F JUMPI DUP1 PUSH4 0xB7386862 EQ PUSH2 0x309 JUMPI DUP1 PUSH4 0xC231FA46 EQ PUSH2 0x339 JUMPI DUP1 PUSH4 0xD11A57EC EQ PUSH2 0x369 JUMPI DUP1 PUSH4 0xD547741F EQ PUSH2 0x387 JUMPI DUP1 PUSH4 0xDE7EB189 EQ PUSH2 0x3A3 JUMPI PUSH2 0x11F JUMP JUMPDEST DUP1 PUSH4 0x8BB9C5BF EQ PUSH2 0x23F JUMPI DUP1 PUSH4 0x8C4D6E0F EQ PUSH2 0x25B JUMPI DUP1 PUSH4 0x91D14854 EQ PUSH2 0x28B JUMPI DUP1 PUSH4 0x98BA676D EQ PUSH2 0x2BB JUMPI DUP1 PUSH4 0xA217FDDF EQ PUSH2 0x2EB JUMPI PUSH2 0x11F JUMP JUMPDEST DUP1 PUSH4 0x3B129A56 GT PUSH2 0xF2 JUMPI DUP1 PUSH4 0x3B129A56 EQ PUSH2 0x1A9 JUMPI DUP1 PUSH4 0x4245962B EQ PUSH2 0x1C7 JUMPI DUP1 PUSH4 0x42F1E879 EQ PUSH2 0x1E5 JUMPI DUP1 PUSH4 0x6E1D616E EQ PUSH2 0x203 JUMPI DUP1 PUSH4 0x7BF0FBDE EQ PUSH2 0x221 JUMPI PUSH2 0x11F JUMP JUMPDEST DUP1 PUSH4 0x1EDDB4A EQ PUSH2 0x123 JUMPI DUP1 PUSH4 0xC4BC2E4 EQ PUSH2 0x153 JUMPI DUP1 PUSH4 0x18989DEF EQ PUSH2 0x171 JUMPI DUP1 PUSH4 0x2F2FF15D EQ PUSH2 0x18D JUMPI JUMPDEST PUSH0 PUSH0 REVERT JUMPDEST PUSH2 0x13D PUSH1 0x4 DUP1 CALLDATASIZE SUB DUP2 ADD SWAP1 PUSH2 0x138 SWAP2 SWAP1 PUSH2 0x1A6E JUMP JUMPDEST PUSH2 0x3BF JUMP JUMPDEST PUSH1 0x40 MLOAD PUSH2 0x14A SWAP2 SWAP1 PUSH2 0x1AEC JUMP JUMPDEST PUSH1 0x40 MLOAD DUP1 SWAP2 SUB SWAP1 RETURN JUMPDEST PUSH2 0x15B PUSH2 0x5CF JUMP JUMPDEST PUSH1 0x40 MLOAD PUSH2 0x168 SWAP2 SWAP1 PUSH2 0x1B14 JUMP JUMPDEST PUSH1 0x40 MLOAD DUP1 SWAP2 SUB SWAP1 RETURN JUMPDEST PUSH2 0x18B PUSH1 0x4 DUP1 CALLDATASIZE SUB DUP2 ADD SWAP1 PUSH2 0x186 SWAP2 SWAP1 PUSH2 0x1B8E JUMP JUMPDEST PUSH2 0x5DB JUMP JUMPDEST STOP JUMPDEST PUSH2 0x1A7 PUSH1 0x4 DUP1 CALLDATASIZE SUB DUP2 ADD SWAP1 PUSH2 0x1A2 SWAP2 SWAP1 PUSH2 0x1C1E JUMP JUMPDEST PUSH2 0x81B JUMP JUMPDEST STOP JUMPDEST PUSH2 0x1B1 PUSH2 0xA9A JUMP JUMPDEST PUSH1 0x40 MLOAD PUSH2 0x1BE SWAP2 SWAP1 PUSH2 0x1C6B JUMP JUMPDEST PUSH1 0x40 MLOAD DUP1 SWAP2 SUB SWAP1 RETURN JUMPDEST PUSH2 0x1CF PUSH2 0xABE JUMP JUMPDEST PUSH1 0x40 MLOAD PUSH2 0x1DC SWAP2 SWAP1 PUSH2 0x1C6B JUMP JUMPDEST PUSH1 0x40 MLOAD DUP1 SWAP2 SUB SWAP1 RETURN JUMPDEST PUSH2 0x1ED PUSH2 0xAE2 JUMP JUMPDEST PUSH1 0x40 MLOAD PUSH2 0x1FA SWAP2 SWAP1 PUSH2 0x1C6B JUMP JUMPDEST PUSH1 0x40 MLOAD DUP1 SWAP2 SUB SWAP1 RETURN JUMPDEST PUSH2 0x20B PUSH2 0xB06 JUMP JUMPDEST PUSH1 0x40 MLOAD PUSH2 0x218 SWAP2 SWAP1 PUSH2 0x1C6B JUMP JUMPDEST PUSH1 0x40 MLOAD DUP1 SWAP2 SUB SWAP1 RETURN JUMPDEST PUSH2 0x229 PUSH2 0xB2A JUMP JUMPDEST PUSH1 0x40 MLOAD PUSH2 0x236 SWAP2 SWAP1 PUSH2 0x1C6B JUMP JUMPDEST PUSH1 0x40 MLOAD DUP1 SWAP2 SUB SWAP1 RETURN JUMPDEST PUSH2 0x259 PUSH1 0x4 DUP1 CALLDATASIZE SUB DUP2 ADD SWAP1 PUSH2 0x254 SWAP2 SWAP1 PUSH2 0x1C84 JUMP JUMPDEST PUSH2 0xB4E JUMP JUMPDEST STOP JUMPDEST PUSH2 0x275 PUSH1 0x4 DUP1 CALLDATASIZE SUB DUP2 ADD SWAP1 PUSH2 0x270 SWAP2 SWAP1 PUSH2 0x1CAF JUMP JUMPDEST PUSH2 0xCA5 JUMP JUMPDEST PUSH1 0x40 MLOAD PUSH2 0x282 SWAP2 SWAP1 PUSH2 0x1B14 JUMP JUMPDEST PUSH1 0x40 MLOAD DUP1 SWAP2 SUB SWAP1 RETURN JUMPDEST PUSH2 0x2A5 PUSH1 0x4 DUP1 CALLDATASIZE SUB DUP2 ADD SWAP1 PUSH2 0x2A0 SWAP2 SWAP1 PUSH2 0x1C1E JUMP JUMPDEST PUSH2 0xCC2 JUMP JUMPDEST PUSH1 0x40 MLOAD PUSH2 0x2B2 SWAP2 SWAP1 PUSH2 0x1AEC JUMP JUMPDEST PUSH1 0x40 MLOAD DUP1 SWAP2 SUB SWAP1 RETURN JUMPDEST PUSH2 0x2D5 PUSH1 0x4 DUP1 CALLDATASIZE SUB DUP2 ADD SWAP1 PUSH2 0x2D0 SWAP2 SWAP1 PUSH2 0x1CDA JUMP JUMPDEST PUSH2 0xD23 JUMP JUMPDEST PUSH1 0x40 MLOAD PUSH2 0x2E2 SWAP2 SWAP1 PUSH2 0x1E9F JUMP JUMPDEST PUSH1 0x40 MLOAD DUP1 SWAP2 SUB SWAP1 RETURN JUMPDEST PUSH2 0x2F3 PUSH2 0xF00 JUMP JUMPDEST PUSH1 0x40 MLOAD PUSH2 0x300 SWAP2 SWAP1 PUSH2 0x1C6B JUMP JUMPDEST PUSH1 0x40 MLOAD DUP1 SWAP2 SUB SWAP1 RETURN JUMPDEST PUSH2 0x323 PUSH1 0x4 DUP1 CALLDATASIZE SUB DUP2 ADD SWAP1 PUSH2 0x31E SWAP2 SWAP1 PUSH2 0x1CDA JUMP JUMPDEST PUSH2 0xF24 JUMP JUMPDEST PUSH1 0x40 MLOAD PUSH2 0x330 SWAP2 SWAP1 PUSH2 0x2000 JUMP JUMPDEST PUSH1 0x40 MLOAD DUP1 SWAP2 SUB SWAP1 RETURN JUMPDEST PUSH2 0x353 PUSH1 0x4 DUP1 CALLDATASIZE SUB DUP2 ADD SWAP1 PUSH2 0x34E SWAP2 SWAP1 PUSH2 0x1CAF JUMP JUMPDEST PUSH2 0x11A6 JUMP JUMPDEST PUSH1 0x40 MLOAD PUSH2 0x360 SWAP2 SWAP1 PUSH2 0x2000 JUMP JUMPDEST PUSH1 0x40 MLOAD DUP1 SWAP2 SUB SWAP1 RETURN JUMPDEST PUSH2 0x371 PUSH2 0x1350 JUMP JUMPDEST PUSH1 0x40 MLOAD PUSH2 0x37E SWAP2 SWAP1 PUSH2 0x1C6B JUMP JUMPDEST PUSH1 0x40 MLOAD DUP1 SWAP2 SUB SWAP1 RETURN JUMPDEST PUSH2 0x3A1 PUSH1 0x4 DUP1 CALLDATASIZE SUB DUP2 ADD SWAP1 PUSH2 0x39C SWAP2 SWAP1 PUSH2 0x1C1E JUMP JUMPDEST PUSH2 0x1374 JUMP JUMPDEST STOP JUMPDEST PUSH2 0x3BD PUSH1 0x4 DUP1 CALLDATASIZE SUB DUP2 ADD SWAP1 PUSH2 0x3B8 SWAP2 SWAP1 PUSH2 0x2075 JUMP JUMPDEST PUSH2 0x1583 JUMP JUMPDEST STOP JUMPDEST PUSH0 PUSH1 0x1 PUSH0 DUP7 DUP2 MSTORE PUSH1 0x20 ADD SWAP1 DUP2 MSTORE PUSH1 0x20 ADD PUSH0 KECCAK256 DUP1 SLOAD SWAP1 POP DUP5 LT PUSH2 0x3E3 JUMPI PUSH0 SWAP1 POP PUSH2 0x5C7 JUMP JUMPDEST PUSH0 PUSH1 0x1 PUSH0 DUP8 DUP2 MSTORE PUSH1 0x20 ADD SWAP1 DUP2 MSTORE PUSH1 0x20 ADD PUSH0 KECCAK256 DUP6 DUP2 SLOAD DUP2 LT PUSH2 0x407 JUMPI PUSH2 0x406 PUSH2 0x20F9 JUMP JUMPDEST JUMPDEST SWAP1 PUSH0 MSTORE PUSH1 0x20 PUSH0 KECCAK256 SWAP1 PUSH1 0x5 MUL ADD PUSH1 0x40 MLOAD DUP1 PUSH1 0xC0 ADD PUSH1 0x40 MSTORE SWAP1 DUP2 PUSH0 DUP3 ADD SLOAD DUP2 MSTORE PUSH1 0x20 ADD PUSH1 0x1 DUP3 ADD PUSH0 SWAP1 SLOAD SWAP1 PUSH2 0x100 EXP SWAP1 DIV PUSH20 0xFFFFFFFFFFFFFFFFFFFFFFFFFFFFFFFFFFFFFFFF AND PUSH20 0xFFFFFFFFFFFFFFFFFFFFFFFFFFFFFFFFFFFFFFFF AND PUSH20 0xFFFFFFFFFFFFFFFFFFFFFFFFFFFFFFFFFFFFFFFF AND DUP2 MSTORE PUSH1 0x20 ADD PUSH1 0x1 DUP3 ADD PUSH1 0x14 SWAP1 SLOAD SWAP1 PUSH2 0x100 EXP SWAP1 DIV PUSH1 0xFF AND PUSH1 0x6 DUP2 GT ISZERO PUSH2 0x4A1 JUMPI PUSH2 0x4A0 PUSH2 0x1D36 JUMP JUMPDEST JUMPDEST PUSH1 0x6 DUP2 GT ISZERO PUSH2 0x4B3 JUMPI PUSH2 0x4B2 PUSH2 0x1D36 JUMP JUMPDEST JUMPDEST DUP2 MSTORE PUSH1 0x20 ADD PUSH1 0x2 DUP3 ADD DUP1 SLOAD PUSH2 0x4C7 SWAP1 PUSH2 0x2153 JUMP JUMPDEST DUP1 PUSH1 0x1F ADD PUSH1 0x20 DUP1 SWAP2 DIV MUL PUSH1 0x20 ADD PUSH1 0x40 MLOAD SWAP1 DUP2 ADD PUSH1 0x40 MSTORE DUP1 SWAP3 SWAP2 SWAP1 DUP2 DUP2 MSTORE PUSH1 0x20 ADD DUP3 DUP1 SLOAD PUSH2 0x4F3 SWAP1 PUSH2 0x2153 JUMP JUMPDEST DUP1 ISZERO PUSH2 0x53E JUMPI DUP1 PUSH1 0x1F LT PUSH2 0x515 JUMPI PUSH2 0x100 DUP1 DUP4 SLOAD DIV MUL DUP4 MSTORE SWAP2 PUSH1 0x20 ADD SWAP2 PUSH2 0x53E JUMP JUMPDEST DUP3 ADD SWAP2 SWAP1 PUSH0 MSTORE PUSH1 0x20 PUSH0 KECCAK256 SWAP1 JUMPDEST DUP2 SLOAD DUP2 MSTORE SWAP1 PUSH1 0x1 ADD SWAP1 PUSH1 0x20 ADD DUP1 DUP4 GT PUSH2 0x521 JUMPI DUP3 SWAP1 SUB PUSH1 0x1F AND DUP3 ADD SWAP2 JUMPDEST POP POP POP POP POP DUP2 MSTORE PUSH1 0x20 ADD PUSH1 0x3 DUP3 ADD SLOAD DUP2 MSTORE PUSH1 0x20 ADD PUSH1 0x4 DUP3 ADD SLOAD DUP2 MSTORE POP POP SWAP1 POP DUP4 PUSH20 0xFFFFFFFFFFFFFFFFFFFFFFFFFFFFFFFFFFFFFFFF AND DUP2 PUSH1 0x20 ADD MLOAD PUSH20 0xFFFFFFFFFFFFFFFFFFFFFFFFFFFFFFFFFFFFFFFF AND EQ DUP1 ISZERO PUSH2 0x5C3 JUMPI POP DUP3 PUSH1 0x6 DUP2 GT ISZERO PUSH2 0x5AA JUMPI PUSH2 0x5A9 PUSH2 0x1D36 JUMP JUMPDEST JUMPDEST DUP2 PUSH1 0x40 ADD MLOAD PUSH1 0x6 DUP2 GT ISZERO PUSH2 0x5C1 JUMPI PUSH2 0x5C0 PUSH2 0x1D36 JUMP JUMPDEST JUMPDEST EQ JUMPDEST SWAP2 POP POP JUMPDEST SWAP5 SWAP4 POP POP POP POP JUMP JUMPDEST PUSH0 PUSH1 0x2 DUP1 SLOAD SWAP1 POP SWAP1 POP SWAP1 JUMP JUMPDEST PUSH0 PUSH0 PUSH32 0x1EFFBBFF9C66C5E59634F24FE842750C60D18891155C32DD155FC2D661A4C86D DUP2 MSTORE PUSH1 0x20 ADD SWAP1 DUP2 MSTORE PUSH1 0x20 ADD PUSH0 KECCAK256 PUSH0 CALLER PUSH20 0xFFFFFFFFFFFFFFFFFFFFFFFFFFFFFFFFFFFFFFFF AND PUSH20 0xFFFFFFFFFFFFFFFFFFFFFFFFFFFFFFFFFFFFFFFF AND DUP2 MSTORE PUSH1 0x20 ADD SWAP1 DUP2 MSTORE PUSH1 0x20 ADD PUSH0 KECCAK256 PUSH0 SWAP1 SLOAD SWAP1 PUSH2 0x100 EXP SWAP1 DIV PUSH1 0xFF AND PUSH2 0x692 JUMPI PUSH1 0x40 MLOAD PUSH32 0x8C379A000000000000000000000000000000000000000000000000000000000 DUP2 MSTORE PUSH1 0x4 ADD PUSH2 0x689 SWAP1 PUSH2 0x21DD JUMP JUMPDEST PUSH1 0x40 MLOAD DUP1 SWAP2 SUB SWAP1 REVERT JUMPDEST PUSH0 PUSH0 SWAP1 POP JUMPDEST DUP4 DUP4 SWAP1 POP DUP2 LT ISZERO PUSH2 0x815 JUMPI PUSH0 PUSH0 DUP6 DUP6 DUP5 DUP2 DUP2 LT PUSH2 0x6B7 JUMPI PUSH2 0x6B6 PUSH2 0x20F9 JUMP JUMPDEST JUMPDEST SWAP1 POP PUSH1 0x20 MUL ADD CALLDATALOAD DUP2 MSTORE PUSH1 0x20 ADD SWAP1 DUP2 MSTORE PUSH1 0x20 ADD PUSH0 KECCAK256 PUSH0 DUP4 PUSH20 0xFFFFFFFFFFFFFFFFFFFFFFFFFFFFFFFFFFFFFFFF AND PUSH20 0xFFFFFFFFFFFFFFFFFFFFFFFFFFFFFFFFFFFFFFFF AND DUP2 MSTORE PUSH1 0x20 ADD SWAP1 DUP2 MSTORE PUSH1 0x20 ADD PUSH0 KECCAK256 PUSH0 SWAP1 SLOAD SWAP1 PUSH2 0x100 EXP SWAP1 DIV PUSH1 0xFF AND PUSH2 0x808 JUMPI PUSH1 0x1 PUSH0 PUSH0 DUP7 DUP7 DUP6 DUP2 DUP2 LT PUSH2 0x72E JUMPI PUSH2 0x72D PUSH2 0x20F9 JUMP JUMPDEST JUMPDEST SWAP1 POP PUSH1 0x20 MUL ADD CALLDATALOAD DUP2 MSTORE PUSH1 0x20 ADD SWAP1 DUP2 MSTORE PUSH1 0x20 ADD PUSH0 KECCAK256 PUSH0 DUP5 PUSH20 0xFFFFFFFFFFFFFFFFFFFFFFFFFFFFFFFFFFFFFFFF AND PUSH20 0xFFFFFFFFFFFFFFFFFFFFFFFFFFFFFFFFFFFFFFFF AND DUP2 MSTORE PUSH1 0x20 ADD SWAP1 DUP2 MSTORE PUSH1 0x20 ADD PUSH0 KECCAK256 PUSH0 PUSH2 0x100 EXP DUP2 SLOAD DUP2 PUSH1 0xFF MUL NOT AND SWAP1 DUP4 ISZERO ISZERO MUL OR SWAP1 SSTORE POP CALLER PUSH20 0xFFFFFFFFFFFFFFFFFFFFFFFFFFFFFFFFFFFFFFFF AND DUP3 PUSH20 0xFFFFFFFFFFFFFFFFFFFFFFFFFFFFFFFFFFFFFFFF AND DUP6 DUP6 DUP5 DUP2 DUP2 LT PUSH2 0x7D4 JUMPI PUSH2 0x7D3 PUSH2 0x20F9 JUMP JUMPDEST JUMPDEST SWAP1 POP PUSH1 0x20 MUL ADD CALLDATALOAD PUSH32 0x2F8788117E7EFF1D82E926EC794901D17C78024A50270940304540A733656F0D PUSH1 0x40 MLOAD PUSH1 0x40 MLOAD DUP1 SWAP2 SUB SWAP1 LOG4 JUMPDEST DUP1 DUP1 PUSH1 0x1 ADD SWAP2 POP POP PUSH2 0x697 JUMP JUMPDEST POP POP POP POP JUMP JUMPDEST PUSH0 PUSH0 PUSH32 0x1EFFBBFF9C66C5E59634F24FE842750C60D18891155C32DD155FC2D661A4C86D DUP2 MSTORE PUSH1 0x20 ADD SWAP1 DUP2 MSTORE PUSH1 0x20 ADD PUSH0 KECCAK256 PUSH0 CALLER PUSH20 0xFFFFFFFFFFFFFFFFFFFFFFFFFFFFFFFFFFFFFFFF AND PUSH20 0xFFFFFFFFFFFFFFFFFFFFFFFFFFFFFFFFFFFFFFFF AND DUP2 MSTORE PUSH1 0x20 ADD SWAP1 DUP2 MSTORE PUSH1 0x20 ADD PUSH0 KECCAK256 PUSH0 SWAP1 SLOAD SWAP1 PUSH2 0x100 EXP SWAP1 DIV PUSH1 0xFF AND PUSH2 0x8D2 JUMPI PUSH1 0x40 MLOAD PUSH32 0x8C379A000000000000000000000000000000000000000000000000000000000 DUP2 MSTORE PUSH1 0x4 ADD PUSH2 0x8C9 SWAP1 PUSH2 0x21DD JUMP JUMPDEST PUSH1 0x40 MLOAD DUP1 SWAP2 SUB SWAP1 REVERT JUMPDEST PUSH0 PUSH20 0xFFFFFFFFFFFFFFFFFFFFFFFFFFFFFFFFFFFFFFFF AND DUP2 PUSH20 0xFFFFFFFFFFFFFFFFFFFFFFFFFFFFFFFFFFFFFFFF AND SUB PUSH2 0x940 JUMPI PUSH1 0x40 MLOAD PUSH32 0x8C379A000000000000000000000000000000000000000000000000000000000 DUP2 MSTORE PUSH1 0x4 ADD PUSH2 0x937 SWAP1 PUSH2 0x226B JUMP JUMPDEST PUSH1 0x40 MLOAD DUP1 SWAP2 SUB SWAP1 REVERT JUMPDEST PUSH0 PUSH0 DUP4 DUP2 MSTORE PUSH1 0x20 ADD SWAP1 DUP2 MSTORE PUSH1 0x20 ADD PUSH0 KECCAK256 PUSH0 DUP3 PUSH20 0xFFFFFFFFFFFFFFFFFFFFFFFFFFFFFFFFFFFFFFFF AND PUSH20 0xFFFFFFFFFFFFFFFFFFFFFFFFFFFFFFFFFFFFFFFF AND DUP2 MSTORE PUSH1 0x20 ADD SWAP1 DUP2 MSTORE PUSH1 0x20 ADD PUSH0 KECCAK256 PUSH0 SWAP1 SLOAD SWAP1 PUSH2 0x100 EXP SWAP1 DIV PUSH1 0xFF AND ISZERO PUSH2 0x9D8 JUMPI PUSH1 0x40 MLOAD PUSH32 0x8C379A000000000000000000000000000000000000000000000000000000000 DUP2 MSTORE PUSH1 0x4 ADD PUSH2 0x9CF SWAP1 PUSH2 0x22F9 JUMP JUMPDEST PUSH1 0x40 MLOAD DUP1 SWAP2 SUB SWAP1 REVERT JUMPDEST PUSH1 0x1 PUSH0 PUSH0 DUP5 DUP2 MSTORE PUSH1 0x20 ADD SWAP1 DUP2 MSTORE PUSH1 0x20 ADD PUSH0 KECCAK256 PUSH0 DUP4 PUSH20 0xFFFFFFFFFFFFFFFFFFFFFFFFFFFFFFFFFFFFFFFF AND PUSH20 0xFFFFFFFFFFFFFFFFFFFFFFFFFFFFFFFFFFFFFFFF AND DUP2 MSTORE PUSH1 0x20 ADD SWAP1 DUP2 MSTORE PUSH1 0x20 ADD PUSH0 KECCAK256 PUSH0 PUSH2 0x100 EXP DUP2 SLOAD DUP2 PUSH1 0xFF MUL NOT AND SWAP1 DUP4 ISZERO ISZERO MUL OR SWAP1 SSTORE POP CALLER PUSH20 0xFFFFFFFFFFFFFFFFFFFFFFFFFFFFFFFFFFFFFFFF AND DUP2 PUSH20 0xFFFFFFFFFFFFFFFFFFFFFFFFFFFFFFFFFFFFFFFF AND DUP4 PUSH32 0x2F8788117E7EFF1D82E926EC794901D17C78024A50270940304540A733656F0D PUSH1 0x40 MLOAD PUSH1 0x40 MLOAD DUP1 SWAP2 SUB SWAP1 LOG4 POP POP JUMP JUMPDEST PUSH32 0xC10C77BE35AFF266144ED64C26A1FA104BAE2F284AE99AC4A34203454704A185 DUP2 JUMP JUMPDEST PUSH32 0x408A36151F841709116A4E8ACA4E0202874F7F54687DCB863B1EA4672DC9D8CF DUP2 JUMP JUMPDEST PUSH32 0xC2979137D1774E40FE2638D355BF7A7B092BE4C67F242AAD1655E1E27F9DF9CC DUP2 JUMP JUMPDEST PUSH32 0x59A1C48E5837AD7A7F3DCEDCBE129BF3249EC4FBF651FD4F5E2600EAD39FE2F5 DUP2 JUMP JUMPDEST PUSH32 0x566C814873EED56A69B28C40AB27CC2CB150D74068BAE3E884CCD44F8DE60F8A DUP2 JUMP JUMPDEST PUSH0 PUSH0 DUP3 DUP2 MSTORE PUSH1 0x20 ADD SWAP1 DUP2 MSTORE PUSH1 0x20 ADD PUSH0 KECCAK256 PUSH0 CALLER PUSH20 0xFFFFFFFFFFFFFFFFFFFFFFFFFFFFFFFFFFFFFFFF AND PUSH20 0xFFFFFFFFFFFFFFFFFFFFFFFFFFFFFFFFFFFFFFFF AND DUP2 MSTORE PUSH1 0x20 ADD SWAP1 DUP2 MSTORE PUSH1 0x20 ADD PUSH0 KECCAK256 PUSH0 SWAP1 SLOAD SWAP1 PUSH2 0x100 EXP SWAP1 DIV PUSH1 0xFF AND PUSH2 0xBE5 JUMPI PUSH1 0x40 MLOAD PUSH32 0x8C379A000000000000000000000000000000000000000000000000000000000 DUP2 MSTORE PUSH1 0x4 ADD PUSH2 0xBDC SWAP1 PUSH2 0x2387 JUMP JUMPDEST PUSH1 0x40 MLOAD DUP1 SWAP2 SUB SWAP1 REVERT JUMPDEST PUSH0 PUSH0 PUSH0 DUP4 DUP2 MSTORE PUSH1 0x20 ADD SWAP1 DUP2 MSTORE PUSH1 0x20 ADD PUSH0 KECCAK256 PUSH0 CALLER PUSH20 0xFFFFFFFFFFFFFFFFFFFFFFFFFFFFFFFFFFFFFFFF AND PUSH20 0xFFFFFFFFFFFFFFFFFFFFFFFFFFFFFFFFFFFFFFFF AND DUP2 MSTORE PUSH1 0x20 ADD SWAP1 DUP2 MSTORE PUSH1 0x20 ADD PUSH0 KECCAK256 PUSH0 PUSH2 0x100 EXP DUP2 SLOAD DUP2 PUSH1 0xFF MUL NOT AND SWAP1 DUP4 ISZERO ISZERO MUL OR SWAP1 SSTORE POP CALLER PUSH20 0xFFFFFFFFFFFFFFFFFFFFFFFFFFFFFFFFFFFFFFFF AND CALLER PUSH20 0xFFFFFFFFFFFFFFFFFFFFFFFFFFFFFFFFFFFFFFFF AND DUP3 PUSH32 0xF6391F5C32D9C69D2A47EA670B442974B53935D1EDC7FD64EB21E047A839171B PUSH1 0x40 MLOAD PUSH1 0x40 MLOAD DUP1 SWAP2 SUB SWAP1 LOG4 POP JUMP JUMPDEST PUSH0 PUSH1 0x1 PUSH0 DUP4 DUP2 MSTORE PUSH1 0x20 ADD SWAP1 DUP2 MSTORE PUSH1 0x20 ADD PUSH0 KECCAK256 DUP1 SLOAD SWAP1 POP SWAP1 POP SWAP2 SWAP1 POP JUMP JUMPDEST PUSH0 PUSH0 PUSH0 DUP5 DUP2 MSTORE PUSH1 0x20 ADD SWAP1 DUP2 MSTORE PUSH1 0x20 ADD PUSH0 KECCAK256 PUSH0 DUP4 PUSH20 0xFFFFFFFFFFFFFFFFFFFFFFFFFFFFFFFFFFFFFFFF AND PUSH20 0xFFFFFFFFFFFFFFFFFFFFFFFFFFFFFFFFFFFFFFFF AND DUP2 MSTORE PUSH1 0x20 ADD SWAP1 DUP2 MSTORE PUSH1 0x20 ADD PUSH0 KECCAK256 PUSH0 SWAP1 SLOAD SWAP1 PUSH2 0x100 EXP SWAP1 DIV PUSH1 0xFF AND SWAP1 POP SWAP3 SWAP2 POP POP JUMP JUMPDEST PUSH2 0xD2B PUSH2 0x195D JUMP JUMPDEST PUSH1 0x1 PUSH0 DUP5 DUP2 MSTORE PUSH1 0x20 ADD SWAP1 DUP2 MSTORE PUSH1 0x20 ADD PUSH0 KECCAK256 DUP1 SLOAD SWAP1 POP DUP3 LT PUSH2 0xD81 JUMPI PUSH1 0x40 MLOAD PUSH32 0x8C379A000000000000000000000000000000000000000000000000000000000 DUP2 MSTORE PUSH1 0x4 ADD PUSH2 0xD78 SWAP1 PUSH2 0x2415 JUMP JUMPDEST PUSH1 0x40 MLOAD DUP1 SWAP2 SUB SWAP1 REVERT JUMPDEST PUSH1 0x1 PUSH0 DUP5 DUP2 MSTORE PUSH1 0x20 ADD SWAP1 DUP2 MSTORE PUSH1 0x20 ADD PUSH0 KECCAK256 DUP3 DUP2 SLOAD DUP2 LT PUSH2 0xDA4 JUMPI PUSH2 0xDA3 PUSH2 0x20F9 JUMP JUMPDEST JUMPDEST SWAP1 PUSH0 MSTORE PUSH1 0x20 PUSH0 KECCAK256 SWAP1 PUSH1 0x5 MUL ADD PUSH1 0x40 MLOAD DUP1 PUSH1 0xC0 ADD PUSH1 0x40 MSTORE SWAP1 DUP2 PUSH0 DUP3 ADD SLOAD DUP2 MSTORE PUSH1 0x20 ADD PUSH1 0x1 DUP3 ADD PUSH0 SWAP1 SLOAD SWAP1 PUSH2 0x100 EXP SWAP1 DIV PUSH20 0xFFFFFFFFFFFFFFFFFFFFFFFFFFFFFFFFFFFFFFFF AND PUSH20 0xFFFFFFFFFFFFFFFFFFFFFFFFFFFFFFFFFFFFFFFF AND PUSH20 0xFFFFFFFFFFFFFFFFFFFFFFFFFFFFFFFFFFFFFFFF AND DUP2 MSTORE PUSH1 0x20 ADD PUSH1 0x1 DUP3 ADD PUSH1 0x14 SWAP1 SLOAD SWAP1 PUSH2 0x100 EXP SWAP1 DIV PUSH1 0xFF AND PUSH1 0x6 DUP2 GT ISZERO PUSH2 0xE3E JUMPI PUSH2 0xE3D PUSH2 0x1D36 JUMP JUMPDEST JUMPDEST PUSH1 0x6 DUP2 GT ISZERO PUSH2 0xE50 JUMPI PUSH2 0xE4F PUSH2 0x1D36 JUMP JUMPDEST JUMPDEST DUP2 MSTORE PUSH1 0x20 ADD PUSH1 0x2 DUP3 ADD DUP1 SLOAD PUSH2 0xE64 SWAP1 PUSH2 0x2153 JUMP JUMPDEST DUP1 PUSH1 0x1F ADD PUSH1 0x20 DUP1 SWAP2 DIV MUL PUSH1 0x20 ADD PUSH1 0x40 MLOAD SWAP1 DUP2 ADD PUSH1 0x40 MSTORE DUP1 SWAP3 SWAP2 SWAP1 DUP2 DUP2 MSTORE PUSH1 0x20 ADD DUP3 DUP1 SLOAD PUSH2 0xE90 SWAP1 PUSH2 0x2153 JUMP JUMPDEST DUP1 ISZERO PUSH2 0xEDB JUMPI DUP1 PUSH1 0x1F LT PUSH2 0xEB2 JUMPI PUSH2 0x100 DUP1 DUP4 SLOAD DIV MUL DUP4 MSTORE SWAP2 PUSH1 0x20 ADD SWAP2 PUSH2 0xEDB JUMP JUMPDEST DUP3 ADD SWAP2 SWAP1 PUSH0 MSTORE PUSH1 0x20 PUSH0 KECCAK256 SWAP1 JUMPDEST DUP2 SLOAD DUP2 MSTORE SWAP1 PUSH1 0x1 ADD SWAP1 PUSH1 0x20 ADD DUP1 DUP4 GT PUSH2 0xEBE JUMPI DUP3 SWAP1 SUB PUSH1 0x1F AND DUP3 ADD SWAP2 JUMPDEST POP POP POP POP POP DUP2 MSTORE PUSH1 0x20 ADD PUSH1 0x3 DUP3 ADD SLOAD DUP2 MSTORE PUSH1 0x20 ADD PUSH1 0x4 DUP3 ADD SLOAD DUP2 MSTORE POP POP SWAP1 POP SWAP3 SWAP2 POP POP JUMP JUMPDEST PUSH32 0x1EFFBBFF9C66C5E59634F24FE842750C60D18891155C32DD155FC2D661A4C86D DUP2 JUMP JUMPDEST PUSH1 0x60 PUSH1 0x2 DUP1 SLOAD SWAP1 POP DUP4 LT PUSH2 0xF6D JUMPI PUSH1 0x40 MLOAD PUSH32 0x8C379A000000000000000000000000000000000000000000000000000000000 DUP2 MSTORE PUSH1 0x4 ADD PUSH2 0xF64 SWAP1 PUSH2 0x24A3 JUMP JUMPDEST PUSH1 0x40 MLOAD DUP1 SWAP2 SUB SWAP1 REVERT JUMPDEST PUSH0 DUP3 DUP5 PUSH2 0xF7A SWAP2 SWAP1 PUSH2 0x24EE JUMP JUMPDEST SWAP1 POP PUSH1 0x2 DUP1 SLOAD SWAP1 POP DUP2 GT ISZERO PUSH2 0xF92 JUMPI PUSH1 0x2 DUP1 SLOAD SWAP1 POP SWAP1 POP JUMPDEST DUP4 DUP2 PUSH2 0xF9E SWAP2 SWAP1 PUSH2 0x2521 JUMP JUMPDEST PUSH8 0xFFFFFFFFFFFFFFFF DUP2 GT ISZERO PUSH2 0xFB7 JUMPI PUSH2 0xFB6 PUSH2 0x2554 JUMP JUMPDEST JUMPDEST PUSH1 0x40 MLOAD SWAP1 DUP1 DUP3 MSTORE DUP1 PUSH1 0x20 MUL PUSH1 0x20 ADD DUP3 ADD PUSH1 0x40 MSTORE DUP1 ISZERO PUSH2 0xFF0 JUMPI DUP2 PUSH1 0x20 ADD JUMPDEST PUSH2 0xFDD PUSH2 0x195D JUMP JUMPDEST DUP2 MSTORE PUSH1 0x20 ADD SWAP1 PUSH1 0x1 SWAP1 SUB SWAP1 DUP2 PUSH2 0xFD5 JUMPI SWAP1 POP JUMPDEST POP SWAP2 POP PUSH0 DUP5 SWAP1 POP JUMPDEST DUP2 DUP2 LT ISZERO PUSH2 0x119E JUMPI PUSH1 0x2 DUP2 DUP2 SLOAD DUP2 LT PUSH2 0x1014 JUMPI PUSH2 0x1013 PUSH2 0x20F9 JUMP JUMPDEST JUMPDEST SWAP1 PUSH0 MSTORE PUSH1 0x20 PUSH0 KECCAK256 SWAP1 PUSH1 0x5 MUL ADD PUSH1 0x40 MLOAD DUP1 PUSH1 0xC0 ADD PUSH1 0x40 MSTORE SWAP1 DUP2 PUSH0 DUP3 ADD SLOAD DUP2 MSTORE PUSH1 0x20 ADD PUSH1 0x1 DUP3 ADD PUSH0 SWAP1 SLOAD SWAP1 PUSH2 0x100 EXP SWAP1 DIV PUSH20 0xFFFFFFFFFFFFFFFFFFFFFFFFFFFFFFFFFFFFFFFF AND PUSH20 0xFFFFFFFFFFFFFFFFFFFFFFFFFFFFFFFFFFFFFFFF AND PUSH20 0xFFFFFFFFFFFFFFFFFFFFFFFFFFFFFFFFFFFFFFFF AND DUP2 MSTORE PUSH1 0x20 ADD PUSH1 0x1 DUP3 ADD PUSH1 0x14 SWAP1 SLOAD SWAP1 PUSH2 0x100 EXP SWAP1 DIV PUSH1 0xFF AND PUSH1 0x6 DUP2 GT ISZERO PUSH2 0x10AE JUMPI PUSH2 0x10AD PUSH2 0x1D36 JUMP JUMPDEST JUMPDEST PUSH1 0x6 DUP2 GT ISZERO PUSH2 0x10C0 JUMPI PUSH2 0x10BF PUSH2 0x1D36 JUMP JUMPDEST JUMPDEST DUP2 MSTORE PUSH1 0x20 ADD PUSH1 0x2 DUP3 ADD DUP1 SLOAD PUSH2 0x10D4 SWAP1 PUSH2 0x2153 JUMP JUMPDEST DUP1 PUSH1 0x1F ADD PUSH1 0x20 DUP1 SWAP2 DIV MUL PUSH1 0x20 ADD PUSH1 0x40 MLOAD SWAP1 DUP2 ADD PUSH1 0x40 MSTORE DUP1 SWAP3 SWAP2 SWAP1 DUP2 DUP2 MSTORE PUSH1 0x20 ADD DUP3 DUP1 SLOAD PUSH2 0x1100 SWAP1 PUSH2 0x2153 JUMP JUMPDEST DUP1 ISZERO PUSH2 0x114B JUMPI DUP1 PUSH1 0x1F LT PUSH2 0x1122 JUMPI PUSH2 0x100 DUP1 DUP4 SLOAD DIV MUL DUP4 MSTORE SWAP2 PUSH1 0x20 ADD SWAP2 PUSH2 0x114B JUMP JUMPDEST DUP3 ADD SWAP2 SWAP1 PUSH0 MSTORE PUSH1 0x20 PUSH0 KECCAK256 SWAP1 JUMPDEST DUP2 SLOAD DUP2 MSTORE SWAP1 PUSH1 0x1 ADD SWAP1 PUSH1 0x20 ADD DUP1 DUP4 GT PUSH2 0x112E JUMPI DUP3 SWAP1 SUB PUSH1 0x1F AND DUP3 ADD SWAP2 JUMPDEST POP POP POP POP POP DUP2 MSTORE PUSH1 0x20 ADD PUSH1 0x3 DUP3 ADD SLOAD DUP2 MSTORE PUSH1 0x20 ADD PUSH1 0x4 DUP3 ADD SLOAD DUP2 MSTORE POP POP DUP4 DUP7 DUP4 PUSH2 0x1175 SWAP2 SWAP1 PUSH2 0x2521 JUMP JUMPDEST DUP2 MLOAD DUP2 LT PUSH2 0x1186 JUMPI PUSH2 0x1185 PUSH2 0x20F9 JUMP JUMPDEST JUMPDEST PUSH1 0x20 MUL PUSH1 0x20 ADD ADD DUP2 SWAP1 MSTORE POP DUP1 DUP1 PUSH1 0x1 ADD SWAP2 POP POP PUSH2 0xFF8 JUMP JUMPDEST POP POP SWAP3 SWAP2 POP POP JUMP JUMPDEST PUSH1 0x60 PUSH1 0x1 PUSH0 DUP4 DUP2 MSTORE PUSH1 0x20 ADD SWAP1 DUP2 MSTORE PUSH1 0x20 ADD PUSH0 KECCAK256 DUP1 SLOAD DUP1 PUSH1 0x20 MUL PUSH1 0x20 ADD PUSH1 0x40 MLOAD SWAP1 DUP2 ADD PUSH1 0x40 MSTORE DUP1 SWAP3 SWAP2 SWAP1 DUP2 DUP2 MSTORE PUSH1 0x20 ADD PUSH0 SWAP1 JUMPDEST DUP3 DUP3 LT ISZERO PUSH2 0x1345 JUMPI DUP4 DUP3 SWAP1 PUSH0 MSTORE PUSH1 0x20 PUSH0 KECCAK256 SWAP1 PUSH1 0x5 MUL ADD PUSH1 0x40 MLOAD DUP1 PUSH1 0xC0 ADD PUSH1 0x40 MSTORE SWAP1 DUP2 PUSH0 DUP3 ADD SLOAD DUP2 MSTORE PUSH1 0x20 ADD PUSH1 0x1 DUP3 ADD PUSH0 SWAP1 SLOAD SWAP1 PUSH2 0x100 EXP SWAP1 DIV PUSH20 0xFFFFFFFFFFFFFFFFFFFFFFFFFFFFFFFFFFFFFFFF AND PUSH20 0xFFFFFFFFFFFFFFFFFFFFFFFFFFFFFFFFFFFFFFFF AND PUSH20 0xFFFFFFFFFFFFFFFFFFFFFFFFFFFFFFFFFFFFFFFF AND DUP2 MSTORE PUSH1 0x20 ADD PUSH1 0x1 DUP3 ADD PUSH1 0x14 SWAP1 SLOAD SWAP1 PUSH2 0x100 EXP SWAP1 DIV PUSH1 0xFF AND PUSH1 0x6 DUP2 GT ISZERO PUSH2 0x127C JUMPI PUSH2 0x127B PUSH2 0x1D36 JUMP JUMPDEST JUMPDEST PUSH1 0x6 DUP2 GT ISZERO PUSH2 0x128E JUMPI PUSH2 0x128D PUSH2 0x1D36 JUMP JUMPDEST JUMPDEST DUP2 MSTORE PUSH1 0x20 ADD PUSH1 0x2 DUP3 ADD DUP1 SLOAD PUSH2 0x12A2 SWAP1 PUSH2 0x2153 JUMP JUMPDEST DUP1 PUSH1 0x1F ADD PUSH1 0x20 DUP1 SWAP2 DIV MUL PUSH1 0x20 ADD PUSH1 0x40 MLOAD SWAP1 DUP2 ADD PUSH1 0x40 MSTORE DUP1 SWAP3 SWAP2 SWAP1 DUP2 DUP2 MSTORE PUSH1 0x20 ADD DUP3 DUP1 SLOAD PUSH2 0x12CE SWAP1 PUSH2 0x2153 JUMP JUMPDEST DUP1 ISZERO PUSH2 0x1319 JUMPI DUP1 PUSH1 0x1F LT PUSH2 0x12F0 JUMPI PUSH2 0x100 DUP1 DUP4 SLOAD DIV MUL DUP4 MSTORE SWAP2 PUSH1 0x20 ADD SWAP2 PUSH2 0x1319 JUMP JUMPDEST DUP3 ADD SWAP2 SWAP1 PUSH0 MSTORE PUSH1 0x20 PUSH0 KECCAK256 SWAP1 JUMPDEST DUP2 SLOAD DUP2 MSTORE SWAP1 PUSH1 0x1 ADD SWAP1 PUSH1 0x20 ADD DUP1 DUP4 GT PUSH2 0x12FC JUMPI DUP3 SWAP1 SUB PUSH1 0x1F AND DUP3 ADD SWAP2 JUMPDEST POP POP POP POP POP DUP2 MSTORE PUSH1 0x20 ADD PUSH1 0x3 DUP3 ADD SLOAD DUP2 MSTORE PUSH1 0x20 ADD PUSH1 0x4 DUP3 ADD SLOAD DUP2 MSTORE POP POP DUP2 MSTORE PUSH1 0x20 ADD SWAP1 PUSH1 0x1 ADD SWAP1 PUSH2 0x11D8 JUMP JUMPDEST POP POP POP POP SWAP1 POP SWAP2 SWAP1 POP JUMP JUMPDEST PUSH32 0xE1DCBDB91DF27212A29BC27177C840CF2F819ECF2187432E1FAC86C2DD5DFCA9 DUP2 JUMP JUMPDEST PUSH0 PUSH0 PUSH32 0x1EFFBBFF9C66C5E59634F24FE842750C60D18891155C32DD155FC2D661A4C86D DUP2 MSTORE PUSH1 0x20 ADD SWAP1 DUP2 MSTORE PUSH1 0x20 ADD PUSH0 KECCAK256 PUSH0 CALLER PUSH20 0xFFFFFFFFFFFFFFFFFFFFFFFFFFFFFFFFFFFFFFFF AND PUSH20 0xFFFFFFFFFFFFFFFFFFFFFFFFFFFFFFFFFFFFFFFF AND DUP2 MSTORE PUSH1 0x20 ADD SWAP1 DUP2 MSTORE PUSH1 0x20 ADD PUSH0 KECCAK256 PUSH0 SWAP1 SLOAD SWAP1 PUSH2 0x100 EXP SWAP1 DIV PUSH1 0xFF AND PUSH2 0x142B JUMPI PUSH1 0x40 MLOAD PUSH32 0x8C379A000000000000000000000000000000000000000000000000000000000 DUP2 MSTORE PUSH1 0x4 ADD PUSH2 0x1422 SWAP1 PUSH2 0x21DD JUMP JUMPDEST PUSH1 0x40 MLOAD DUP1 SWAP2 SUB SWAP1 REVERT JUMPDEST PUSH0 PUSH0 DUP4 DUP2 MSTORE PUSH1 0x20 ADD SWAP1 DUP2 MSTORE PUSH1 0x20 ADD PUSH0 KECCAK256 PUSH0 DUP3 PUSH20 0xFFFFFFFFFFFFFFFFFFFFFFFFFFFFFFFFFFFFFFFF AND PUSH20 0xFFFFFFFFFFFFFFFFFFFFFFFFFFFFFFFFFFFFFFFF AND DUP2 MSTORE PUSH1 0x20 ADD SWAP1 DUP2 MSTORE PUSH1 0x20 ADD PUSH0 KECCAK256 PUSH0 SWAP1 SLOAD SWAP1 PUSH2 0x100 EXP SWAP1 DIV PUSH1 0xFF AND PUSH2 0x14C2 JUMPI PUSH1 0x40 MLOAD PUSH32 0x8C379A000000000000000000000000000000000000000000000000000000000 DUP2 MSTORE PUSH1 0x4 ADD PUSH2 0x14B9 SWAP1 PUSH2 0x25F1 JUMP JUMPDEST PUSH1 0x40 MLOAD DUP1 SWAP2 SUB SWAP1 REVERT JUMPDEST PUSH0 PUSH0 PUSH0 DUP5 DUP2 MSTORE PUSH1 0x20 ADD SWAP1 DUP2 MSTORE PUSH1 0x20 ADD PUSH0 KECCAK256 PUSH0 DUP4 PUSH20 0xFFFFFFFFFFFFFFFFFFFFFFFFFFFFFFFFFFFFFFFF AND PUSH20 0xFFFFFFFFFFFFFFFFFFFFFFFFFFFFFFFFFFFFFFFF AND DUP2 MSTORE PUSH1 0x20 ADD SWAP1 DUP2 MSTORE PUSH1 0x20 ADD PUSH0 KECCAK256 PUSH0 PUSH2 0x100 EXP DUP2 SLOAD DUP2 PUSH1 0xFF MUL NOT AND SWAP1 DUP4 ISZERO ISZERO MUL OR SWAP1 SSTORE POP CALLER PUSH20 0xFFFFFFFFFFFFFFFFFFFFFFFFFFFFFFFFFFFFFFFF AND DUP2 PUSH20 0xFFFFFFFFFFFFFFFFFFFFFFFFFFFFFFFFFFFFFFFF AND DUP4 PUSH32 0xF6391F5C32D9C69D2A47EA670B442974B53935D1EDC7FD64EB21E047A839171B PUSH1 0x40 MLOAD PUSH1 0x40 MLOAD DUP1 SWAP2 SUB SWAP1 LOG4 POP POP JUMP JUMPDEST PUSH32 0x566C814873EED56A69B28C40AB27CC2CB150D74068BAE3E884CCD44F8DE60F8A PUSH0 PUSH0 DUP3 DUP2 MSTORE PUSH1 0x20 ADD SWAP1 DUP2 MSTORE PUSH1 0x20 ADD PUSH0 KECCAK256 PUSH0 CALLER PUSH20 0xFFFFFFFFFFFFFFFFFFFFFFFFFFFFFFFFFFFFFFFF AND PUSH20 0xFFFFFFFFFFFFFFFFFFFFFFFFFFFFFFFFFFFFFFFF AND DUP2 MSTORE PUSH1 0x20 ADD SWAP1 DUP2 MSTORE PUSH1 0x20 ADD PUSH0 KECCAK256 PUSH0 SWAP1 SLOAD SWAP1 PUSH2 0x100 EXP SWAP1 DIV PUSH1 0xFF AND PUSH2 0x163B JUMPI PUSH1 0x40 MLOAD PUSH32 0x8C379A000000000000000000000000000000000000000000000000000000000 DUP2 MSTORE PUSH1 0x4 ADD PUSH2 0x1632 SWAP1 PUSH2 0x267F JUMP JUMPDEST PUSH1 0x40 MLOAD DUP1 SWAP2 SUB SWAP1 REVERT JUMPDEST PUSH1 0x3 PUSH1 0x6 DUP2 GT ISZERO PUSH2 0x164F JUMPI PUSH2 0x164E PUSH2 0x1D36 JUMP JUMPDEST JUMPDEST DUP5 PUSH1 0x6 DUP2 GT ISZERO PUSH2 0x1662 JUMPI PUSH2 0x1661 PUSH2 0x1D36 JUMP JUMPDEST JUMPDEST SUB PUSH2 0x16AD JUMPI PUSH0 DUP4 DUP4 SWAP1 POP GT PUSH2 0x16AC JUMPI PUSH1 0x40 MLOAD PUSH32 0x8C379A000000000000000000000000000000000000000000000000000000000 DUP2 MSTORE PUSH1 0x4 ADD PUSH2 0x16A3 SWAP1 PUSH2 0x270D JUMP JUMPDEST PUSH1 0x40 MLOAD DUP1 SWAP2 SUB SWAP1 REVERT JUMPDEST JUMPDEST PUSH0 PUSH1 0x40 MLOAD DUP1 PUSH1 0xC0 ADD PUSH1 0x40 MSTORE DUP1 DUP9 DUP2 MSTORE PUSH1 0x20 ADD DUP8 PUSH20 0xFFFFFFFFFFFFFFFFFFFFFFFFFFFFFFFFFFFFFFFF AND DUP2 MSTORE PUSH1 0x20 ADD DUP7 PUSH1 0x6 DUP2 GT ISZERO PUSH2 0x16EE JUMPI PUSH2 0x16ED PUSH2 0x1D36 JUMP JUMPDEST JUMPDEST DUP2 MSTORE PUSH1 0x20 ADD DUP6 DUP6 DUP1 DUP1 PUSH1 0x1F ADD PUSH1 0x20 DUP1 SWAP2 DIV MUL PUSH1 0x20 ADD PUSH1 0x40 MLOAD SWAP1 DUP2 ADD PUSH1 0x40 MSTORE DUP1 SWAP4 SWAP3 SWAP2 SWAP1 DUP2 DUP2 MSTORE PUSH1 0x20 ADD DUP4 DUP4 DUP1 DUP3 DUP5 CALLDATACOPY PUSH0 DUP2 DUP5 ADD MSTORE PUSH1 0x1F NOT PUSH1 0x1F DUP3 ADD AND SWAP1 POP DUP1 DUP4 ADD SWAP3 POP POP POP POP POP POP POP DUP2 MSTORE PUSH1 0x20 ADD TIMESTAMP DUP2 MSTORE PUSH1 0x20 ADD NUMBER DUP2 MSTORE POP SWAP1 POP PUSH1 0x1 PUSH0 DUP9 DUP2 MSTORE PUSH1 0x20 ADD SWAP1 DUP2 MSTORE PUSH1 0x20 ADD PUSH0 KECCAK256 DUP2 SWAP1 DUP1 PUSH1 0x1 DUP2 SLOAD ADD DUP1 DUP3 SSTORE DUP1 SWAP2 POP POP PUSH1 0x1 SWAP1 SUB SWAP1 PUSH0 MSTORE PUSH1 0x20 PUSH0 KECCAK256 SWAP1 PUSH1 0x5 MUL ADD PUSH0 SWAP1 SWAP2 SWAP1 SWAP2 SWAP1 SWAP2 POP PUSH0 DUP3 ADD MLOAD DUP2 PUSH0 ADD SSTORE PUSH1 0x20 DUP3 ADD MLOAD DUP2 PUSH1 0x1 ADD PUSH0 PUSH2 0x100 EXP DUP2 SLOAD DUP2 PUSH20 0xFFFFFFFFFFFFFFFFFFFFFFFFFFFFFFFFFFFFFFFF MUL NOT AND SWAP1 DUP4 PUSH20 0xFFFFFFFFFFFFFFFFFFFFFFFFFFFFFFFFFFFFFFFF AND MUL OR SWAP1 SSTORE POP PUSH1 0x40 DUP3 ADD MLOAD DUP2 PUSH1 0x1 ADD PUSH1 0x14 PUSH2 0x100 EXP DUP2 SLOAD DUP2 PUSH1 0xFF MUL NOT AND SWAP1 DUP4 PUSH1 0x6 DUP2 GT ISZERO PUSH2 0x17F9 JUMPI PUSH2 0x17F8 PUSH2 0x1D36 JUMP JUMPDEST JUMPDEST MUL OR SWAP1 SSTORE POP PUSH1 0x60 DUP3 ADD MLOAD DUP2 PUSH1 0x2 ADD SWAP1 DUP2 PUSH2 0x1813 SWAP2 SWAP1 PUSH2 0x28CB JUMP JUMPDEST POP PUSH1 0x80 DUP3 ADD MLOAD DUP2 PUSH1 0x3 ADD SSTORE PUSH1 0xA0 DUP3 ADD MLOAD DUP2 PUSH1 0x4 ADD SSTORE POP POP PUSH1 0x2 DUP2 SWAP1 DUP1 PUSH1 0x1 DUP2 SLOAD ADD DUP1 DUP3 SSTORE DUP1 SWAP2 POP POP PUSH1 0x1 SWAP1 SUB SWAP1 PUSH0 MSTORE PUSH1 0x20 PUSH0 KECCAK256 SWAP1 PUSH1 0x5 MUL ADD PUSH0 SWAP1 SWAP2 SWAP1 SWAP2 SWAP1 SWAP2 POP PUSH0 DUP3 ADD MLOAD DUP2 PUSH0 ADD SSTORE PUSH1 0x20 DUP3 ADD MLOAD DUP2 PUSH1 0x1 ADD PUSH0 PUSH2 0x100 EXP DUP2 SLOAD DUP2 PUSH20 0xFFFFFFFFFFFFFFFFFFFFFFFFFFFFFFFFFFFFFFFF MUL NOT AND SWAP1 DUP4 PUSH20 0xFFFFFFFFFFFFFFFFFFFFFFFFFFFFFFFFFFFFFFFF AND MUL OR SWAP1 SSTORE POP PUSH1 0x40 DUP3 ADD MLOAD DUP2 PUSH1 0x1 ADD PUSH1 0x14 PUSH2 0x100 EXP DUP2 SLOAD DUP2 PUSH1 0xFF MUL NOT AND SWAP1 DUP4 PUSH1 0x6 DUP2 GT ISZERO PUSH2 0x18CC JUMPI PUSH2 0x18CB PUSH2 0x1D36 JUMP JUMPDEST JUMPDEST MUL OR SWAP1 SSTORE POP PUSH1 0x60 DUP3 ADD MLOAD DUP2 PUSH1 0x2 ADD SWAP1 DUP2 PUSH2 0x18E6 SWAP2 SWAP1 PUSH2 0x28CB JUMP JUMPDEST POP PUSH1 0x80 DUP3 ADD MLOAD DUP2 PUSH1 0x3 ADD SSTORE PUSH1 0xA0 DUP3 ADD MLOAD DUP2 PUSH1 0x4 ADD SSTORE POP POP DUP6 PUSH20 0xFFFFFFFFFFFFFFFFFFFFFFFFFFFFFFFFFFFFFFFF AND DUP8 PUSH32 0x9F56068D55F366CF8B974EA35757EC1B49652BF4D550F14847F2B6AEBC00EA53 DUP8 DUP8 DUP8 TIMESTAMP NUMBER PUSH1 0x40 MLOAD PUSH2 0x194C SWAP6 SWAP5 SWAP4 SWAP3 SWAP2 SWAP1 PUSH2 0x29E3 JUMP JUMPDEST PUSH1 0x40 MLOAD DUP1 SWAP2 SUB SWAP1 LOG3 POP POP POP POP POP POP POP JUMP JUMPDEST PUSH1 0x40 MLOAD DUP1 PUSH1 0xC0 ADD PUSH1 0x40 MSTORE DUP1 PUSH0 DUP2 MSTORE PUSH1 0x20 ADD PUSH0 PUSH20 0xFFFFFFFFFFFFFFFFFFFFFFFFFFFFFFFFFFFFFFFF AND DUP2 MSTORE PUSH1 0x20 ADD PUSH0 PUSH1 0x6 DUP2 GT ISZERO PUSH2 0x199D JUMPI PUSH2 0x199C PUSH2 0x1D36 JUMP JUMPDEST JUMPDEST DUP2 MSTORE PUSH1 0x20 ADD PUSH1 0x60 DUP2 MSTORE PUSH1 0x20 ADD PUSH0 DUP2 MSTORE PUSH1 0x20 ADD PUSH0 DUP2 MSTORE POP SWAP1 JUMP JUMPDEST PUSH0 PUSH0 REVERT JUMPDEST PUSH0 PUSH0 REVERT JUMPDEST PUSH0 DUP2 SWAP1 POP SWAP2 SWAP1 POP JUMP JUMPDEST PUSH2 0x19D0 DUP2 PUSH2 0x19BE JUMP JUMPDEST DUP2 EQ PUSH2 0x19DA JUMPI PUSH0 PUSH0 REVERT JUMPDEST POP JUMP JUMPDEST PUSH0 DUP2 CALLDATALOAD SWAP1 POP PUSH2 0x19EB DUP2 PUSH2 0x19C7 JUMP JUMPDEST SWAP3 SWAP2 POP POP JUMP JUMPDEST PUSH0 PUSH20 0xFFFFFFFFFFFFFFFFFFFFFFFFFFFFFFFFFFFFFFFF DUP3 AND SWAP1 POP SWAP2 SWAP1 POP JUMP JUMPDEST PUSH0 PUSH2 0x1A1A DUP3 PUSH2 0x19F1 JUMP JUMPDEST SWAP1 POP SWAP2 SWAP1 POP JUMP JUMPDEST PUSH2 0x1A2A DUP2 PUSH2 0x1A10 JUMP JUMPDEST DUP2 EQ PUSH2 0x1A34 JUMPI PUSH0 PUSH0 REVERT JUMPDEST POP JUMP JUMPDEST PUSH0 DUP2 CALLDATALOAD SWAP1 POP PUSH2 0x1A45 DUP2 PUSH2 0x1A21 JUMP JUMPDEST SWAP3 SWAP2 POP POP JUMP JUMPDEST PUSH1 0x7 DUP2 LT PUSH2 0x1A57 JUMPI PUSH0 PUSH0 REVERT JUMPDEST POP JUMP JUMPDEST PUSH0 DUP2 CALLDATALOAD SWAP1 POP PUSH2 0x1A68 DUP2 PUSH2 0x1A4B JUMP JUMPDEST SWAP3 SWAP2 POP POP JUMP JUMPDEST PUSH0 PUSH0 PUSH0 PUSH0 PUSH1 0x80 DUP6 DUP8 SUB SLT ISZERO PUSH2 0x1A86 JUMPI PUSH2 0x1A85 PUSH2 0x19B6 JUMP JUMPDEST JUMPDEST PUSH0 PUSH2 0x1A93 DUP8 DUP3 DUP9 ADD PUSH2 0x19DD JUMP JUMPDEST SWAP5 POP POP PUSH1 0x20 PUSH2 0x1AA4 DUP8 DUP3 DUP9 ADD PUSH2 0x19DD JUMP JUMPDEST SWAP4 POP POP PUSH1 0x40 PUSH2 0x1AB5 DUP8 DUP3 DUP9 ADD PUSH2 0x1A37 JUMP JUMPDEST SWAP3 POP POP PUSH1 0x60 PUSH2 0x1AC6 DUP8 DUP3 DUP9 ADD PUSH2 0x1A5A JUMP JUMPDEST SWAP2 POP POP SWAP3 SWAP6 SWAP2 SWAP5 POP SWAP3 POP JUMP JUMPDEST PUSH0 DUP2 ISZERO ISZERO SWAP1 POP SWAP2 SWAP1 POP JUMP JUMPDEST PUSH2 0x1AE6 DUP2 PUSH2 0x1AD2 JUMP JUMPDEST DUP3 MSTORE POP POP JUMP JUMPDEST PUSH0 PUSH1 0x20 DUP3 ADD SWAP1 POP PUSH2 0x1AFF PUSH0 DUP4 ADD DUP5 PUSH2 0x1ADD JUMP JUMPDEST SWAP3 SWAP2 POP POP JUMP JUMPDEST PUSH2 0x1B0E DUP2 PUSH2 0x19BE JUMP JUMPDEST DUP3 MSTORE POP POP JUMP JUMPDEST PUSH0 PUSH1 0x20 DUP3 ADD SWAP1 POP PUSH2 0x1B27 PUSH0 DUP4 ADD DUP5 PUSH2 0x1B05 JUMP JUMPDEST SWAP3 SWAP2 POP POP JUMP JUMPDEST PUSH0 PUSH0 REVERT JUMPDEST PUSH0 PUSH0 REVERT JUMPDEST PUSH0 PUSH0 REVERT JUMPDEST PUSH0 PUSH0 DUP4 PUSH1 0x1F DUP5 ADD SLT PUSH2 0x1B4E JUMPI PUSH2 0x1B4D PUSH2 0x1B2D JUMP JUMPDEST JUMPDEST DUP3 CALLDATALOAD SWAP1 POP PUSH8 0xFFFFFFFFFFFFFFFF DUP2 GT ISZERO PUSH2 0x1B6B JUMPI PUSH2 0x1B6A PUSH2 0x1B31 JUMP JUMPDEST JUMPDEST PUSH1 0x20 DUP4 ADD SWAP2 POP DUP4 PUSH1 0x20 DUP3 MUL DUP4 ADD GT ISZERO PUSH2 0x1B87 JUMPI PUSH2 0x1B86 PUSH2 0x1B35 JUMP JUMPDEST JUMPDEST SWAP3 POP SWAP3 SWAP1 POP JUMP JUMPDEST PUSH0 PUSH0 PUSH0 PUSH1 0x40 DUP5 DUP7 SUB SLT ISZERO PUSH2 0x1BA5 JUMPI PUSH2 0x1BA4 PUSH2 0x19B6 JUMP JUMPDEST JUMPDEST PUSH0 DUP5 ADD CALLDATALOAD PUSH8 0xFFFFFFFFFFFFFFFF DUP2 GT ISZERO PUSH2 0x1BC2 JUMPI PUSH2 0x1BC1 PUSH2 0x19BA JUMP JUMPDEST JUMPDEST PUSH2 0x1BCE DUP7 DUP3 DUP8 ADD PUSH2 0x1B39 JUMP JUMPDEST SWAP4 POP SWAP4 POP POP PUSH1 0x20 PUSH2 0x1BE1 DUP7 DUP3 DUP8 ADD PUSH2 0x1A37 JUMP JUMPDEST SWAP2 POP POP SWAP3 POP SWAP3 POP SWAP3 JUMP JUMPDEST PUSH0 DUP2 SWAP1 POP SWAP2 SWAP1 POP JUMP JUMPDEST PUSH2 0x1BFD DUP2 PUSH2 0x1BEB JUMP JUMPDEST DUP2 EQ PUSH2 0x1C07 JUMPI PUSH0 PUSH0 REVERT JUMPDEST POP JUMP JUMPDEST PUSH0 DUP2 CALLDATALOAD SWAP1 POP PUSH2 0x1C18 DUP2 PUSH2 0x1BF4 JUMP JUMPDEST SWAP3 SWAP2 POP POP JUMP JUMPDEST PUSH0 PUSH0 PUSH1 0x40 DUP4 DUP6 SUB SLT ISZERO PUSH2 0x1C34 JUMPI PUSH2 0x1C33 PUSH2 0x19B6 JUMP JUMPDEST JUMPDEST PUSH0 PUSH2 0x1C41 DUP6 DUP3 DUP7 ADD PUSH2 0x1C0A JUMP JUMPDEST SWAP3 POP POP PUSH1 0x20 PUSH2 0x1C52 DUP6 DUP3 DUP7 ADD PUSH2 0x1A37 JUMP JUMPDEST SWAP2 POP POP SWAP3 POP SWAP3 SWAP1 POP JUMP JUMPDEST PUSH2 0x1C65 DUP2 PUSH2 0x1BEB JUMP JUMPDEST DUP3 MSTORE POP POP JUMP JUMPDEST PUSH0 PUSH1 0x20 DUP3 ADD SWAP1 POP PUSH2 0x1C7E PUSH0 DUP4 ADD DUP5 PUSH2 0x1C5C JUMP JUMPDEST SWAP3 SWAP2 POP POP JUMP JUMPDEST PUSH0 PUSH1 0x20 DUP3 DUP5 SUB SLT ISZERO PUSH2 0x1C99 JUMPI PUSH2 0x1C98 PUSH2 0x19B6 JUMP JUMPDEST JUMPDEST PUSH0 PUSH2 0x1CA6 DUP5 DUP3 DUP6 ADD PUSH2 0x1C0A JUMP JUMPDEST SWAP2 POP POP SWAP3 SWAP2 POP POP JUMP JUMPDEST PUSH0 PUSH1 0x20 DUP3 DUP5 SUB SLT ISZERO PUSH2 0x1CC4 JUMPI PUSH2 0x1CC3 PUSH2 0x19B6 JUMP JUMPDEST JUMPDEST PUSH0 PUSH2 0x1CD1 DUP5 DUP3 DUP6 ADD PUSH2 0x19DD JUMP JUMPDEST SWAP2 POP POP SWAP3 SWAP2 POP POP JUMP JUMPDEST PUSH0 PUSH0 PUSH1 0x40 DUP4 DUP6 SUB SLT ISZERO PUSH2 0x1CF0 JUMPI PUSH2 0x1CEF PUSH2 0x19B6 JUMP JUMPDEST JUMPDEST PUSH0 PUSH2 0x1CFD DUP6 DUP3 DUP7 ADD PUSH2 0x19DD JUMP JUMPDEST SWAP3 POP POP PUSH1 0x20 PUSH2 0x1D0E DUP6 DUP3 DUP7 ADD PUSH2 0x19DD JUMP JUMPDEST SWAP2 POP POP SWAP3 POP SWAP3 SWAP1 POP JUMP JUMPDEST PUSH2 0x1D21 DUP2 PUSH2 0x19BE JUMP JUMPDEST DUP3 MSTORE POP POP JUMP JUMPDEST PUSH2 0x1D30 DUP2 PUSH2 0x1A10 JUMP JUMPDEST DUP3 MSTORE POP POP JUMP JUMPDEST PUSH32 0x4E487B7100000000000000000000000000000000000000000000000000000000 PUSH0 MSTORE PUSH1 0x21 PUSH1 0x4 MSTORE PUSH1 0x24 PUSH0 REVERT JUMPDEST PUSH1 0x7 DUP2 LT PUSH2 0x1D74 JUMPI PUSH2 0x1D73 PUSH2 0x1D36 JUMP JUMPDEST JUMPDEST POP JUMP JUMPDEST PUSH0 DUP2 SWAP1 POP PUSH2 0x1D84 DUP3 PUSH2 0x1D63 JUMP JUMPDEST SWAP2 SWAP1 POP JUMP JUMPDEST PUSH0 PUSH2 0x1D93 DUP3 PUSH2 0x1D77 JUMP JUMPDEST SWAP1 POP SWAP2 SWAP1 POP JUMP JUMPDEST PUSH2 0x1DA3 DUP2 PUSH2 0x1D89 JUMP JUMPDEST DUP3 MSTORE POP POP JUMP JUMPDEST PUSH0 DUP2 MLOAD SWAP1 POP SWAP2 SWAP1 POP JUMP JUMPDEST PUSH0 DUP3 DUP3 MSTORE PUSH1 0x20 DUP3 ADD SWAP1 POP SWAP3 SWAP2 POP POP JUMP JUMPDEST DUP3 DUP2 DUP4 MCOPY PUSH0 DUP4 DUP4 ADD MSTORE POP POP POP JUMP JUMPDEST PUSH0 PUSH1 0x1F NOT PUSH1 0x1F DUP4 ADD AND SWAP1 POP SWAP2 SWAP1 POP JUMP JUMPDEST PUSH0 PUSH2 0x1DEB DUP3 PUSH2 0x1DA9 JUMP JUMPDEST PUSH2 0x1DF5 DUP2 DUP6 PUSH2 0x1DB3 JUMP JUMPDEST SWAP4 POP PUSH2 0x1E05 DUP2 DUP6 PUSH1 0x20 DUP7 ADD PUSH2 0x1DC3 JUMP JUMPDEST PUSH2 0x1E0E DUP2 PUSH2 0x1DD1 JUMP JUMPDEST DUP5 ADD SWAP2 POP POP SWAP3 SWAP2 POP POP JUMP JUMPDEST PUSH0 PUSH1 0xC0 DUP4 ADD PUSH0 DUP4 ADD MLOAD PUSH2 0x1E2E PUSH0 DUP7 ADD DUP3 PUSH2 0x1D18 JUMP JUMPDEST POP PUSH1 0x20 DUP4 ADD MLOAD PUSH2 0x1E41 PUSH1 0x20 DUP7 ADD DUP3 PUSH2 0x1D27 JUMP JUMPDEST POP PUSH1 0x40 DUP4 ADD MLOAD PUSH2 0x1E54 PUSH1 0x40 DUP7 ADD DUP3 PUSH2 0x1D9A JUMP JUMPDEST POP PUSH1 0x60 DUP4 ADD MLOAD DUP5 DUP3 SUB PUSH1 0x60 DUP7 ADD MSTORE PUSH2 0x1E6C DUP3 DUP3 PUSH2 0x1DE1 JUMP JUMPDEST SWAP2 POP POP PUSH1 0x80 DUP4 ADD MLOAD PUSH2 0x1E81 PUSH1 0x80 DUP7 ADD DUP3 PUSH2 0x1D18 JUMP JUMPDEST POP PUSH1 0xA0 DUP4 ADD MLOAD PUSH2 0x1E94 PUSH1 0xA0 DUP7 ADD DUP3 PUSH2 0x1D18 JUMP JUMPDEST POP DUP1 SWAP2 POP POP SWAP3 SWAP2 POP POP JUMP JUMPDEST PUSH0 PUSH1 0x20 DUP3 ADD SWAP1 POP DUP2 DUP2 SUB PUSH0 DUP4 ADD MSTORE PUSH2 0x1EB7 DUP2 DUP5 PUSH2 0x1E19 JUMP JUMPDEST SWAP1 POP SWAP3 SWAP2 POP POP JUMP JUMPDEST PUSH0 DUP2 MLOAD SWAP1 POP SWAP2 SWAP1 POP JUMP JUMPDEST PUSH0 DUP3 DUP3 MSTORE PUSH1 0x20 DUP3 ADD SWAP1 POP SWAP3 SWAP2 POP POP JUMP JUMPDEST PUSH0 DUP2 SWAP1 POP PUSH1 0x20 DUP3 ADD SWAP1 POP SWAP2 SWAP1 POP JUMP JUMPDEST PUSH0 PUSH1 0xC0 DUP4 ADD PUSH0 DUP4 ADD MLOAD PUSH2 0x1EFD PUSH0 DUP7 ADD DUP3 PUSH2 0x1D18 JUMP JUMPDEST POP PUSH1 0x20 DUP4 ADD MLOAD PUSH2 0x1F10 PUSH1 0x20 DUP7 ADD DUP3 PUSH2 0x1D27 JUMP JUMPDEST POP PUSH1 0x40 DUP4 ADD MLOAD PUSH2 0x1F23 PUSH1 0x40 DUP7 ADD DUP3 PUSH2 0x1D9A JUMP JUMPDEST POP PUSH1 0x60 DUP4 ADD MLOAD DUP5 DUP3 SUB PUSH1 0x60 DUP7 ADD MSTORE PUSH2 0x1F3B DUP3 DUP3 PUSH2 0x1DE1 JUMP JUMPDEST SWAP2 POP POP PUSH1 0x80 DUP4 ADD MLOAD PUSH2 0x1F50 PUSH1 0x80 DUP7 ADD DUP3 PUSH2 0x1D18 JUMP JUMPDEST POP PUSH1 0xA0 DUP4 ADD MLOAD PUSH2 0x1F63 PUSH1 0xA0 DUP7 ADD DUP3 PUSH2 0x1D18 JUMP JUMPDEST POP DUP1 SWAP2 POP POP SWAP3 SWAP2 POP POP JUMP JUMPDEST PUSH0 PUSH2 0x1F79 DUP4 DUP4 PUSH2 0x1EE8 JUMP JUMPDEST SWAP1 POP SWAP3 SWAP2 POP POP JUMP JUMPDEST PUSH0 PUSH1 0x20 DUP3 ADD SWAP1 POP SWAP2 SWAP1 POP JUMP JUMPDEST PUSH0 PUSH2 0x1F97 DUP3 PUSH2 0x1EBF JUMP JUMPDEST PUSH2 0x1FA1 DUP2 DUP6 PUSH2 0x1EC9 JUMP JUMPDEST SWAP4 POP DUP4 PUSH1 0x20 DUP3 MUL DUP6 ADD PUSH2 0x1FB3 DUP6 PUSH2 0x1ED9 JUMP JUMPDEST DUP1 PUSH0 JUMPDEST DUP6 DUP2 LT ISZERO PUSH2 0x1FEE JUMPI DUP5 DUP5 SUB DUP10 MSTORE DUP2 MLOAD PUSH2 0x1FCF DUP6 DUP3 PUSH2 0x1F6E JUMP JUMPDEST SWAP5 POP PUSH2 0x1FDA DUP4 PUSH2 0x1F81 JUMP JUMPDEST SWAP3 POP PUSH1 0x20 DUP11 ADD SWAP10 POP POP PUSH1 0x1 DUP2 ADD SWAP1 POP PUSH2 0x1FB6 JUMP JUMPDEST POP DUP3 SWAP8 POP DUP8 SWAP6 POP POP POP POP POP POP SWAP3 SWAP2 POP POP JUMP JUMPDEST PUSH0 PUSH1 0x20 DUP3 ADD SWAP1 POP DUP2 DUP2 SUB PUSH0 DUP4 ADD MSTORE PUSH2 0x2018 DUP2 DUP5 PUSH2 0x1F8D JUMP JUMPDEST SWAP1 POP SWAP3 SWAP2 POP POP JUMP JUMPDEST PUSH0 PUSH0 DUP4 PUSH1 0x1F DUP5 ADD SLT PUSH2 0x2035 JUMPI PUSH2 0x2034 PUSH2 0x1B2D JUMP JUMPDEST JUMPDEST DUP3 CALLDATALOAD SWAP1 POP PUSH8 0xFFFFFFFFFFFFFFFF DUP2 GT ISZERO PUSH2 0x2052 JUMPI PUSH2 0x2051 PUSH2 0x1B31 JUMP JUMPDEST JUMPDEST PUSH1 0x20 DUP4 ADD SWAP2 POP DUP4 PUSH1 0x1 DUP3 MUL DUP4 ADD GT ISZERO PUSH2 0x206E JUMPI PUSH2 0x206D PUSH2 0x1B35 JUMP JUMPDEST JUMPDEST SWAP3 POP SWAP3 SWAP1 POP JUMP JUMPDEST PUSH0 PUSH0 PUSH0 PUSH0 PUSH0 PUSH1 0x80 DUP7 DUP9 SUB SLT ISZERO PUSH2 0x208E JUMPI PUSH2 0x208D PUSH2 0x19B6 JUMP JUMPDEST JUMPDEST PUSH0 PUSH2 0x209B DUP9 DUP3 DUP10 ADD PUSH2 0x19DD JUMP JUMPDEST SWAP6 POP POP PUSH1 0x20 PUSH2 0x20AC DUP9 DUP3 DUP10 ADD PUSH2 0x1A37 JUMP JUMPDEST SWAP5 POP POP PUSH1 0x40 PUSH2 0x20BD DUP9 DUP3 DUP10 ADD PUSH2 0x1A5A JUMP JUMPDEST SWAP4 POP POP PUSH1 0x60 DUP7 ADD CALLDATALOAD PUSH8 0xFFFFFFFFFFFFFFFF DUP2 GT ISZERO PUSH2 0x20DE JUMPI PUSH2 0x20DD PUSH2 0x19BA JUMP JUMPDEST JUMPDEST PUSH2 0x20EA DUP9 DUP3 DUP10 ADD PUSH2 0x2020 JUMP JUMPDEST SWAP3 POP SWAP3 POP POP SWAP3 SWAP6 POP SWAP3 SWAP6 SWAP1 SWAP4 POP JUMP JUMPDEST PUSH32 0x4E487B7100000000000000000000000000000000000000000000000000000000 PUSH0 MSTORE PUSH1 0x32 PUSH1 0x4 MSTORE PUSH1 0x24 PUSH0 REVERT JUMPDEST PUSH32 0x4E487B7100000000000000000000000000000000000000000000000000000000 PUSH0 MSTORE PUSH1 0x22 PUSH1 0x4 MSTORE PUSH1 0x24 PUSH0 REVERT JUMPDEST PUSH0 PUSH1 0x2 DUP3 DIV SWAP1 POP PUSH1 0x1 DUP3 AND DUP1 PUSH2 0x216A JUMPI PUSH1 0x7F DUP3 AND SWAP2 POP JUMPDEST PUSH1 0x20 DUP3 LT DUP2 SUB PUSH2 0x217D JUMPI PUSH2 0x217C PUSH2 0x2126 JUMP JUMPDEST JUMPDEST POP SWAP2 SWAP1 POP JUMP JUMPDEST PUSH0 DUP3 DUP3 MSTORE PUSH1 0x20 DUP3 ADD SWAP1 POP SWAP3 SWAP2 POP POP JUMP JUMPDEST PUSH32 0x526F6C654163636573733A2063616C6C6572206973206E6F742061646D696E00 PUSH0 DUP3 ADD MSTORE POP JUMP JUMPDEST PUSH0 PUSH2 0x21C7 PUSH1 0x1F DUP4 PUSH2 0x2183 JUMP JUMPDEST SWAP2 POP PUSH2 0x21D2 DUP3 PUSH2 0x2193 JUMP JUMPDEST PUSH1 0x20 DUP3 ADD SWAP1 POP SWAP2 SWAP1 POP JUMP JUMPDEST PUSH0 PUSH1 0x20 DUP3 ADD SWAP1 POP DUP2 DUP2 SUB PUSH0 DUP4 ADD MSTORE PUSH2 0x21F4 DUP2 PUSH2 0x21BB JUMP JUMPDEST SWAP1 POP SWAP2 SWAP1 POP JUMP JUMPDEST PUSH32 0x526F6C654163636573733A2063616E6E6F74206772616E7420726F6C6520746F PUSH0 DUP3 ADD MSTORE PUSH32 0x207A65726F206164647265737300000000000000000000000000000000000000 PUSH1 0x20 DUP3 ADD MSTORE POP JUMP JUMPDEST PUSH0 PUSH2 0x2255 PUSH1 0x2D DUP4 PUSH2 0x2183 JUMP JUMPDEST SWAP2 POP PUSH2 0x2260 DUP3 PUSH2 0x21FB JUMP JUMPDEST PUSH1 0x40 DUP3 ADD SWAP1 POP SWAP2 SWAP1 POP JUMP JUMPDEST PUSH0 PUSH1 0x20 DUP3 ADD SWAP1 POP DUP2 DUP2 SUB PUSH0 DUP4 ADD MSTORE PUSH2 0x2282 DUP2 PUSH2 0x2249 JUMP JUMPDEST SWAP1 POP SWAP2 SWAP1 POP JUMP JUMPDEST PUSH32 0x526F6C654163636573733A206163636F756E7420616C72656164792068617320 PUSH0 DUP3 ADD MSTORE PUSH32 0x7468697320726F6C650000000000000000000000000000000000000000000000 PUSH1 0x20 DUP3 ADD MSTORE POP JUMP JUMPDEST PUSH0 PUSH2 0x22E3 PUSH1 0x29 DUP4 PUSH2 0x2183 JUMP JUMPDEST SWAP2 POP PUSH2 0x22EE DUP3 PUSH2 0x2289 JUMP JUMPDEST PUSH1 0x40 DUP3 ADD SWAP1 POP SWAP2 SWAP1 POP JUMP JUMPDEST PUSH0 PUSH1 0x20 DUP3 ADD SWAP1 POP DUP2 DUP2 SUB PUSH0 DUP4 ADD MSTORE PUSH2 0x2310 DUP2 PUSH2 0x22D7 JUMP JUMPDEST SWAP1 POP SWAP2 SWAP1 POP JUMP JUMPDEST PUSH32 0x526F6C654163636573733A2063616C6C657220646F6573206E6F742068617665 PUSH0 DUP3 ADD MSTORE PUSH32 0x207468697320726F6C6500000000000000000000000000000000000000000000 PUSH1 0x20 DUP3 ADD MSTORE POP JUMP JUMPDEST PUSH0 PUSH2 0x2371 PUSH1 0x2A DUP4 PUSH2 0x2183 JUMP JUMPDEST SWAP2 POP PUSH2 0x237C DUP3 PUSH2 0x2317 JUMP JUMPDEST PUSH1 0x40 DUP3 ADD SWAP1 POP SWAP2 SWAP1 POP JUMP JUMPDEST PUSH0 PUSH1 0x20 DUP3 ADD SWAP1 POP DUP2 DUP2 SUB PUSH0 DUP4 ADD MSTORE PUSH2 0x239E DUP2 PUSH2 0x2365 JUMP JUMPDEST SWAP1 POP SWAP2 SWAP1 POP JUMP JUMPDEST PUSH32 0x41756469744C6F673A20656E74727920696E646578206F7574206F6620626F75 PUSH0 DUP3 ADD MSTORE PUSH32 0x6E64730000000000000000000000000000000000000000000000000000000000 PUSH1 0x20 DUP3 ADD MSTORE POP JUMP JUMPDEST PUSH0 PUSH2 0x23FF PUSH1 0x23 DUP4 PUSH2 0x2183 JUMP JUMPDEST SWAP2 POP PUSH2 0x240A DUP3 PUSH2 0x23A5 JUMP JUMPDEST PUSH1 0x40 DUP3 ADD SWAP1 POP SWAP2 SWAP1 POP JUMP JUMPDEST PUSH0 PUSH1 0x20 DUP3 ADD SWAP1 POP DUP2 DUP2 SUB PUSH0 DUP4 ADD MSTORE PUSH2 0x242C DUP2 PUSH2 0x23F3 JUMP JUMPDEST SWAP1 POP SWAP2 SWAP1 POP JUMP JUMPDEST PUSH32 0x41756469744C6F673A2066726F6D20696E646578206F7574206F6620626F756E PUSH0 DUP3 ADD MSTORE PUSH32 0x6473000000000000000000000000000000000000000000000000000000000000 PUSH1 0x20 DUP3 ADD MSTORE POP JUMP JUMPDEST PUSH0 PUSH2 0x248D PUSH1 0x22 DUP4 PUSH2 0x2183 JUMP JUMPDEST SWAP2 POP PUSH2 0x2498 DUP3 PUSH2 0x2433 JUMP JUMPDEST PUSH1 0x40 DUP3 ADD SWAP1 POP SWAP2 SWAP1 POP JUMP JUMPDEST PUSH0 PUSH1 0x20 DUP3 ADD SWAP1 POP DUP2 DUP2 SUB PUSH0 DUP4 ADD MSTORE PUSH2 0x24BA DUP2 PUSH2 0x2481 JUMP JUMPDEST SWAP1 POP SWAP2 SWAP1 POP JUMP JUMPDEST PUSH32 0x4E487B7100000000000000000000000000000000000000000000000000000000 PUSH0 MSTORE PUSH1 0x11 PUSH1 0x4 MSTORE PUSH1 0x24 PUSH0 REVERT JUMPDEST PUSH0 PUSH2 0x24F8 DUP3 PUSH2 0x19BE JUMP JUMPDEST SWAP2 POP PUSH2 0x2503 DUP4 PUSH2 0x19BE JUMP JUMPDEST SWAP3 POP DUP3 DUP3 ADD SWAP1 POP DUP1 DUP3 GT ISZERO PUSH2 0x251B JUMPI PUSH2 0x251A PUSH2 0x24C1 JUMP JUMPDEST JUMPDEST SWAP3 SWAP2 POP POP JUMP JUMPDEST PUSH0 PUSH2 0x252B DUP3 PUSH2 0x19BE JUMP JUMPDEST SWAP2 POP PUSH2 0x2536 DUP4 PUSH2 0x19BE JUMP JUMPDEST SWAP3 POP DUP3 DUP3 SUB SWAP1 POP DUP2 DUP2 GT ISZERO PUSH2 0x254E JUMPI PUSH2 0x254D PUSH2 0x24C1 JUMP JUMPDEST JUMPDEST SWAP3 SWAP2 POP POP JUMP JUMPDEST PUSH32 0x4E487B7100000000000000000000000000000000000000000000000000000000 PUSH0 MSTORE PUSH1 0x41 PUSH1 0x4 MSTORE PUSH1 0x24 PUSH0 REVERT JUMPDEST PUSH32 0x526F6C654163636573733A206163636F756E7420646F6573206E6F7420686176 PUSH0 DUP3 ADD MSTORE PUSH32 0x65207468697320726F6C65000000000000000000000000000000000000000000 PUSH1 0x20 DUP3 ADD MSTORE POP JUMP JUMPDEST PUSH0 PUSH2 0x25DB PUSH1 0x2B DUP4 PUSH2 0x2183 JUMP JUMPDEST SWAP2 POP PUSH2 0x25E6 DUP3 PUSH2 0x2581 JUMP JUMPDEST PUSH1 0x40 DUP3 ADD SWAP1 POP SWAP2 SWAP1 POP JUMP JUMPDEST PUSH0 PUSH1 0x20 DUP3 ADD SWAP1 POP DUP2 DUP2 SUB PUSH0 DUP4 ADD MSTORE PUSH2 0x2608 DUP2 PUSH2 0x25CF JUMP JUMPDEST SWAP1 POP SWAP2 SWAP1 POP JUMP JUMPDEST PUSH32 0x526F6C654163636573733A2063616C6C657220646F6573206E6F742068617665 PUSH0 DUP3 ADD MSTORE PUSH32 0x20726571756972656420726F6C65000000000000000000000000000000000000 PUSH1 0x20 DUP3 ADD MSTORE POP JUMP JUMPDEST PUSH0 PUSH2 0x2669 PUSH1 0x2E DUP4 PUSH2 0x2183 JUMP JUMPDEST SWAP2 POP PUSH2 0x2674 DUP3 PUSH2 0x260F JUMP JUMPDEST PUSH1 0x40 DUP3 ADD SWAP1 POP SWAP2 SWAP1 POP JUMP JUMPDEST PUSH0 PUSH1 0x20 DUP3 ADD SWAP1 POP DUP2 DUP2 SUB PUSH0 DUP4 ADD MSTORE PUSH2 0x2696 DUP2 PUSH2 0x265D JUMP JUMPDEST SWAP1 POP SWAP2 SWAP1 POP JUMP JUMPDEST PUSH32 0x41756469744C6F673A2072656A656374696F6E20726561736F6E2063616E6E6F PUSH0 DUP3 ADD MSTORE PUSH32 0x7420626520656D70747900000000000000000000000000000000000000000000 PUSH1 0x20 DUP3 ADD MSTORE POP JUMP JUMPDEST PUSH0 PUSH2 0x26F7 PUSH1 0x2A DUP4 PUSH2 0x2183 JUMP JUMPDEST SWAP2 POP PUSH2 0x2702 DUP3 PUSH2 0x269D JUMP JUMPDEST PUSH1 0x40 DUP3 ADD SWAP1 POP SWAP2 SWAP1 POP JUMP JUMPDEST PUSH0 PUSH1 0x20 DUP3 ADD SWAP1 POP DUP2 DUP2 SUB PUSH0 DUP4 ADD MSTORE PUSH2 0x2724 DUP2 PUSH2 0x26EB JUMP JUMPDEST SWAP1 POP SWAP2 SWAP1 POP JUMP JUMPDEST PUSH0 DUP2 SWAP1 POP DUP2 PUSH0 MSTORE PUSH1 0x20 PUSH0 KECCAK256 SWAP1 POP SWAP2 SWAP1 POP JUMP JUMPDEST PUSH0 PUSH1 0x20 PUSH1 0x1F DUP4 ADD DIV SWAP1 POP SWAP2 SWAP1 POP JUMP JUMPDEST PUSH0 DUP3 DUP3 SHL SWAP1 POP SWAP3 SWAP2 POP POP JUMP JUMPDEST PUSH0 PUSH1 0x8 DUP4 MUL PUSH2 0x2787 PUSH32 0xFFFFFFFFFFFFFFFFFFFFFFFFFFFFFFFFFFFFFFFFFFFFFFFFFFFFFFFFFFFFFFFF DUP3 PUSH2 0x274C JUMP JUMPDEST PUSH2 0x2791 DUP7 DUP4 PUSH2 0x274C JUMP JUMPDEST SWAP6 POP DUP1 NOT DUP5 AND SWAP4 POP DUP1 DUP7 AND DUP5 OR SWAP3 POP POP POP SWAP4 SWAP3 POP POP POP JUMP JUMPDEST PUSH0 DUP2 SWAP1 POP SWAP2 SWAP1 POP JUMP JUMPDEST PUSH0 PUSH2 0x27CC PUSH2 0x27C7 PUSH2 0x27C2 DUP5 PUSH2 0x19BE JUMP JUMPDEST PUSH2 0x27A9 JUMP JUMPDEST PUSH2 0x19BE JUMP JUMPDEST SWAP1 POP SWAP2 SWAP1 POP JUMP JUMPDEST PUSH0 DUP2 SWAP1 POP SWAP2 SWAP1 POP JUMP JUMPDEST PUSH2 0x27E5 DUP4 PUSH2 0x27B2 JUMP JUMPDEST PUSH2 0x27F9 PUSH2 0x27F1 DUP3 PUSH2 0x27D3 JUMP JUMPDEST DUP5 DUP5 SLOAD PUSH2 0x2758 JUMP JUMPDEST DUP3 SSTORE POP POP POP POP JUMP JUMPDEST PUSH0 PUSH0 SWAP1 POP SWAP1 JUMP JUMPDEST PUSH2 0x2810 PUSH2 0x2801 JUMP JUMPDEST PUSH2 0x281B DUP2 DUP5 DUP5 PUSH2 0x27DC JUMP JUMPDEST POP POP POP JUMP JUMPDEST JUMPDEST DUP2 DUP2 LT ISZERO PUSH2 0x283E JUMPI PUSH2 0x2833 PUSH0 DUP3 PUSH2 0x2808 JUMP JUMPDEST PUSH1 0x1 DUP2 ADD SWAP1 POP PUSH2 0x2821 JUMP JUMPDEST POP POP JUMP JUMPDEST PUSH1 0x1F DUP3 GT ISZERO PUSH2 0x2883 JUMPI PUSH2 0x2854 DUP2 PUSH2 0x272B JUMP JUMPDEST PUSH2 0x285D DUP5 PUSH2 0x273D JUMP JUMPDEST DUP2 ADD PUSH1 0x20 DUP6 LT ISZERO PUSH2 0x286C JUMPI DUP2 SWAP1 POP JUMPDEST PUSH2 0x2880 PUSH2 0x2878 DUP6 PUSH2 0x273D JUMP JUMPDEST DUP4 ADD DUP3 PUSH2 0x2820 JUMP JUMPDEST POP POP JUMPDEST POP POP POP JUMP JUMPDEST PUSH0 DUP3 DUP3 SHR SWAP1 POP SWAP3 SWAP2 POP POP JUMP JUMPDEST PUSH0 PUSH2 0x28A3 PUSH0 NOT DUP5 PUSH1 0x8 MUL PUSH2 0x2888 JUMP JUMPDEST NOT DUP1 DUP4 AND SWAP2 POP POP SWAP3 SWAP2 POP POP JUMP JUMPDEST PUSH0 PUSH2 0x28BB DUP4 DUP4 PUSH2 0x2894 JUMP JUMPDEST SWAP2 POP DUP3 PUSH1 0x2 MUL DUP3 OR SWAP1 POP SWAP3 SWAP2 POP POP JUMP JUMPDEST PUSH2 0x28D4 DUP3 PUSH2 0x1DA9 JUMP JUMPDEST PUSH8 0xFFFFFFFFFFFFFFFF DUP2 GT ISZERO PUSH2 0x28ED JUMPI PUSH2 0x28EC PUSH2 0x2554 JUMP JUMPDEST JUMPDEST PUSH2 0x28F7 DUP3 SLOAD PUSH2 0x2153 JUMP JUMPDEST PUSH2 0x2902 DUP3 DUP3 DUP6 PUSH2 0x2842 JUMP JUMPDEST PUSH0 PUSH1 0x20 SWAP1 POP PUSH1 0x1F DUP4 GT PUSH1 0x1 DUP2 EQ PUSH2 0x2933 JUMPI PUSH0 DUP5 ISZERO PUSH2 0x2921 JUMPI DUP3 DUP8 ADD MLOAD SWAP1 POP JUMPDEST PUSH2 0x292B DUP6 DUP3 PUSH2 0x28B0 JUMP JUMPDEST DUP7 SSTORE POP PUSH2 0x2992 JUMP JUMPDEST PUSH1 0x1F NOT DUP5 AND PUSH2 0x2941 DUP7 PUSH2 0x272B JUMP JUMPDEST PUSH0 JUMPDEST DUP3 DUP2 LT ISZERO PUSH2 0x2968 JUMPI DUP5 DUP10 ADD MLOAD DUP3 SSTORE PUSH1 0x1 DUP3 ADD SWAP2 POP PUSH1 0x20 DUP6 ADD SWAP5 POP PUSH1 0x20 DUP2 ADD SWAP1 POP PUSH2 0x2943 JUMP JUMPDEST DUP7 DUP4 LT ISZERO PUSH2 0x2985 JUMPI DUP5 DUP10 ADD MLOAD PUSH2 0x2981 PUSH1 0x1F DUP10 AND DUP3 PUSH2 0x2894 JUMP JUMPDEST DUP4 SSTORE POP JUMPDEST PUSH1 0x1 PUSH1 0x2 DUP9 MUL ADD DUP9 SSTORE POP POP POP JUMPDEST POP POP POP POP POP POP JUMP JUMPDEST PUSH2 0x29A3 DUP2 PUSH2 0x1D89 JUMP JUMPDEST DUP3 MSTORE POP POP JUMP JUMPDEST DUP3 DUP2 DUP4 CALLDATACOPY PUSH0 DUP4 DUP4 ADD MSTORE POP POP POP JUMP JUMPDEST PUSH0 PUSH2 0x29C2 DUP4 DUP6 PUSH2 0x2183 JUMP JUMPDEST SWAP4 POP PUSH2 0x29CF DUP4 DUP6 DUP5 PUSH2 0x29A9 JUMP JUMPDEST PUSH2 0x29D8 DUP4 PUSH2 0x1DD1 JUMP JUMPDEST DUP5 ADD SWAP1 POP SWAP4 SWAP3 POP POP POP JUMP JUMPDEST PUSH0 PUSH1 0x80 DUP3 ADD SWAP1 POP PUSH2 0x29F6 PUSH0 DUP4 ADD DUP9 PUSH2 0x299A JUMP JUMPDEST DUP2 DUP2 SUB PUSH1 0x20 DUP4 ADD MSTORE PUSH2 0x2A09 DUP2 DUP7 DUP9 PUSH2 0x29B7 JUMP JUMPDEST SWAP1 POP PUSH2 0x2A18 PUSH1 0x40 DUP4 ADD DUP6 PUSH2 0x1B05 JUMP JUMPDEST PUSH2 0x2A25 PUSH1 0x60 DUP4 ADD DUP5 PUSH2 0x1B05 JUMP JUMPDEST SWAP7 SWAP6 POP POP POP POP POP POP JUMP INVALID LOG2 PUSH5 0x6970667358 0x22 SLT KECCAK256 OR BALANCE SWAP2 0xB9 SWAP11 DUPN 0x46 RETURNDATASIZE 0xDF SELFDESTRUCT CALLDATALOAD JUMPF 0x6F0D 0x21 CREATE2 0xCF 0x1F SLOAD PUSH30 0x5AA0AC6E34770A3D4F0EB53C64736F6C634300081F003300000000000000 "
				},
				"gasEstimates": {
					"creation": {
						"codeDepositCost": "2170600",
						"executionCost": "28663",
						"totalCost": "2199263"
					},
					"external": {
						"APPROVER_ROLE()": "370",
						"AUDITOR_ROLE()": "414",
						"DEFAULT_ADMIN_ROLE()": "436",
						"LOGGER_ROLE()": "436",
						"REGISTRY_ROLE()": "392",
						"REVIEWER_ROLE()": "348",
						"TREASURY_ROLE()": "391",
						"getAuditTrail(uint256)": "infinite",
						"getEntry(uint256,uint256)": "infinite",
						"getEntryCount(uint256)": "infinite",
						"getGlobalLog(uint256,uint256)": "infinite",
						"globalLogCount()": "2486",
						"grantMultipleRoles(bytes32[],address)": "infinite",
						"grantRole(bytes32,address)": "31726",
						"hasRole(bytes32,address)": "3182",
						"logEvent(uint256,address,uint8,string)": "infinite",
						"renounceRole(bytes32)": "29086",
						"revokeRole(bytes32,address)": "31686",
						"verifyEntry(uint256,uint256,address,uint8)": "infinite"
					}
				},
				"methodIdentifiers": {
					"APPROVER_ROLE()": "4245962b",
					"AUDITOR_ROLE()": "6e1d616e",
					"DEFAULT_ADMIN_ROLE()": "a217fddf",
					"LOGGER_ROLE()": "7bf0fbde",
					"REGISTRY_ROLE()": "42f1e879",
					"REVIEWER_ROLE()": "3b129a56",
					"TREASURY_ROLE()": "d11a57ec",
					"getAuditTrail(uint256)": "c231fa46",
					"getEntry(uint256,uint256)": "98ba676d",
					"getEntryCount(uint256)": "8c4d6e0f",
					"getGlobalLog(uint256,uint256)": "b7386862",
					"globalLogCount()": "0c4bc2e4",
					"grantMultipleRoles(bytes32[],address)": "18989def",
					"grantRole(bytes32,address)": "2f2ff15d",
					"hasRole(bytes32,address)": "91d14854",
					"logEvent(uint256,address,uint8,string)": "de7eb189",
					"renounceRole(bytes32)": "8bb9c5bf",
					"revokeRole(bytes32,address)": "d547741f",
					"verifyEntry(uint256,uint256,address,uint8)": "01eddb4a"
				}
			},
			"storageLayout": {
				"storage": [
					{
						"astId": 349,
						"contract": "AuditLog.sol:AuditLog",
						"label": "_roles",
						"offset": 0,
						"slot": "0",
						"type": "t_mapping(t_bytes32,t_mapping(t_address,t_bool))"
					},
					{
						"astId": 32,
						"contract": "AuditLog.sol:AuditLog",
						"label": "auditTrails",
						"offset": 0,
						"slot": "1",
						"type": "t_mapping(t_uint256,t_array(t_struct(AuditEntry)26_storage)dyn_storage)"
					},
					{
						"astId": 36,
						"contract": "AuditLog.sol:AuditLog",
						"label": "globalLog",
						"offset": 0,
						"slot": "2",
						"type": "t_array(t_struct(AuditEntry)26_storage)dyn_storage"
					}
				],
				"types": {
					"t_address": {
						"encoding": "inplace",
						"label": "address",
						"numberOfBytes": "20"
					},
					"t_array(t_struct(AuditEntry)26_storage)dyn_storage": {
						"base": "t_struct(AuditEntry)26_storage",
						"encoding": "dynamic_array",
						"label": "struct AuditLog.AuditEntry[]",
						"numberOfBytes": "32"
					},
					"t_bool": {
						"encoding": "inplace",
						"label": "bool",
						"numberOfBytes": "1"
					},
					"t_bytes32": {
						"encoding": "inplace",
						"label": "bytes32",
						"numberOfBytes": "32"
					},
					"t_enum(ActionType)12": {
						"encoding": "inplace",
						"label": "enum AuditLog.ActionType",
						"numberOfBytes": "1"
					},
					"t_mapping(t_address,t_bool)": {
						"encoding": "mapping",
						"key": "t_address",
						"label": "mapping(address => bool)",
						"numberOfBytes": "32",
						"value": "t_bool"
					},
					"t_mapping(t_bytes32,t_mapping(t_address,t_bool))": {
						"encoding": "mapping",
						"key": "t_bytes32",
						"label": "mapping(bytes32 => mapping(address => bool))",
						"numberOfBytes": "32",
						"value": "t_mapping(t_address,t_bool)"
					},
					"t_mapping(t_uint256,t_array(t_struct(AuditEntry)26_storage)dyn_storage)": {
						"encoding": "mapping",
						"key": "t_uint256",
						"label": "mapping(uint256 => struct AuditLog.AuditEntry[])",
						"numberOfBytes": "32",
						"value": "t_array(t_struct(AuditEntry)26_storage)dyn_storage"
					},
					"t_string_storage": {
						"encoding": "bytes",
						"label": "string",
						"numberOfBytes": "32"
					},
					"t_struct(AuditEntry)26_storage": {
						"encoding": "inplace",
						"label": "struct AuditLog.AuditEntry",
						"members": [
							{
								"astId": 14,
								"contract": "AuditLog.sol:AuditLog",
								"label": "applicationId",
								"offset": 0,
								"slot": "0",
								"type": "t_uint256"
							},
							{
								"astId": 16,
								"contract": "AuditLog.sol:AuditLog",
								"label": "actor",
								"offset": 0,
								"slot": "1",
								"type": "t_address"
							},
							{
								"astId": 19,
								"contract": "AuditLog.sol:AuditLog",
								"label": "action",
								"offset": 20,
								"slot": "1",
								"type": "t_enum(ActionType)12"
							},
							{
								"astId": 21,
								"contract": "AuditLog.sol:AuditLog",
								"label": "details",
								"offset": 0,
								"slot": "2",
								"type": "t_string_storage"
							},
							{
								"astId": 23,
								"contract": "AuditLog.sol:AuditLog",
								"label": "timestamp",
								"offset": 0,
								"slot": "3",
								"type": "t_uint256"
							},
							{
								"astId": 25,
								"contract": "AuditLog.sol:AuditLog",
								"label": "blockNumber",
								"offset": 0,
								"slot": "4",
								"type": "t_uint256"
							}
						],
						"numberOfBytes": "160"
					},
					"t_uint256": {
						"encoding": "inplace",
						"label": "uint256",
						"numberOfBytes": "32"
					}
				}
			},
			"userdoc": {
				"kind": "user",
				"methods": {
					"getAuditTrail(uint256)": {
						"notice": "Get the complete audit trail for one application"
					},
					"getEntry(uint256,uint256)": {
						"notice": "Get a specific audit entry for an application"
					},
					"getEntryCount(uint256)": {
						"notice": "Get total number of events logged for an application"
					},
					"getGlobalLog(uint256,uint256)": {
						"notice": "Get a slice of the global log (for auditors paginating)"
					},
					"globalLogCount()": {
						"notice": "Get total events in the global system log"
					},
					"grantMultipleRoles(bytes32[],address)": {
						"notice": "Convenience: grant multiple roles to one account (admin only)"
					},
					"grantRole(bytes32,address)": {
						"notice": "Grant a role to an account (admin only)"
					},
					"hasRole(bytes32,address)": {
						"notice": "Check if an account has a specific role"
					},
					"logEvent(uint256,address,uint8,string)": {
						"notice": "Log an audit event — called by PensionRegistry only"
					},
					"renounceRole(bytes32)": {
						"notice": "An account can voluntarily renounce their own role"
					},
					"revokeRole(bytes32,address)": {
						"notice": "Revoke a role from an account (admin only)"
					},
					"verifyEntry(uint256,uint256,address,uint8)": {
						"notice": "Verify if a specific entry hash matches expected values"
					}
				},
				"version": 1
			}
		}
	}
}