{
	"data": {
		"bytecode": {
			"linkReferences": {},
			"object": "608060405260016004555f600555348015610018575f5ffd5b50604051616079380380616079833981810160405281019061003a9190610457565b60015f5f7f1effbbff9c66c5e59634f24fe842750c60d18891155c32dd155fc2d661a4c86d81526020019081526020015f205f3373ffffffffffffffffffffffffffffffffffffffff1673ffffffffffffffffffffffffffffffffffffffff1681526020019081526020015f205f6101000a81548160ff0219169083151502179055503373ffffffffffffffffffffffffffffffffffffffff163373ffffffffffffffffffffffffffffffffffffffff167f1effbbff9c66c5e59634f24fe842750c60d18891155c32dd155fc2d661a4c86d7f2f8788117e7eff1d82e926ec794901d17c78024a50270940304540a733656f0d60405160405180910390a45f73ffffffffffffffffffffffffffffffffffffffff168473ffffffffffffffffffffffffffffffffffffffff16036101a6576040517f08c379a000000000000000000000000000000000000000000000000000000000815260040161019d9061053b565b60405180910390fd5b5f73ffffffffffffffffffffffffffffffffffffffff168373ffffffffffffffffffffffffffffffffffffffff1603610214576040517f08c379a000000000000000000000000000000000000000000000000000000000815260040161020b906105c9565b60405180910390fd5b5f73ffffffffffffffffffffffffffffffffffffffff168273ffffffffffffffffffffffffffffffffffffffff1603610282576040517f08c379a000000000000000000000000000000000000000000000000000000000815260040161027990610657565b60405180910390fd5b5f73ffffffffffffffffffffffffffffffffffffffff168173ffffffffffffffffffffffffffffffffffffffff16036102f0576040517f08c379a00000000000000000000000000000000000000000000000000000000081526004016102e7906106e5565b60405180910390fd5b8360065f6101000a81548173ffffffffffffffffffffffffffffffffffffffff021916908373ffffffffffffffffffffffffffffffffffffffff1602179055508260075f6101000a81548173ffffffffffffffffffffffffffffffffffffffff021916908373ffffffffffffffffffffffffffffffffffffffff1602179055508160085f6101000a81548173ffffffffffffffffffffffffffffffffffffffff021916908373ffffffffffffffffffffffffffffffffffffffff1602179055508060095f6101000a81548173ffffffffffffffffffffffffffffffffffffffff021916908373ffffffffffffffffffffffffffffffffffffffff16021790555050505050610703565b5f5ffd5b5f73ffffffffffffffffffffffffffffffffffffffff82169050919050565b5f610426826103fd565b9050919050565b6104368161041c565b8114610440575f5ffd5b50565b5f815190506104518161042d565b92915050565b5f5f5f5f6080858703121561046f5761046e6103f9565b5b5f61047c87828801610443565b945050602061048d87828801610443565b935050604061049e87828801610443565b92505060606104af87828801610443565b91505092959194509250565b5f82825260208201905092915050565b7f50656e73696f6e52656769737472793a20696e76616c69642041756469744c6f5f8201527f6720616464726573730000000000000000000000000000000000000000000000602082015250565b5f6105256029836104bb565b9150610530826104cb565b604082019050919050565b5f6020820190508181035f83015261055281610519565b9050919050565b7f50656e73696f6e52656769737472793a20696e76616c69642046756e644d616e5f8201527f6167657220616464726573730000000000000000000000000000000000000000602082015250565b5f6105b3602c836104bb565b91506105be82610559565b604082019050919050565b5f6020820190508181035f8301526105e0816105a7565b9050919050565b7f50656e73696f6e52656769737472793a20696e76616c696420536368656d65435f8201527f6f6e666967206164647265737300000000000000000000000000000000000000602082015250565b5f610641602d836104bb565b915061064c826105e7565b604082019050919050565b5f6020820190508181035f83015261066e81610635565b9050919050565b7f50656e73696f6e52656769737472793a20696e76616c696420495046535665725f8201527f6966696572206164647265737300000000000000000000000000000000000000602082015250565b5f6106cf602d836104bb565b91506106da82610675565b604082019050919050565b5f6020820190508181035f8301526106fc816106c3565b9050919050565b615969806107105f395ff3fe608060405234801561000f575f5ffd5b50600436106101e2575f3560e01c80636d9e05091161010d578063a5c1674e116100a0578063d11a57ec1161006f578063d11a57ec14610591578063d32cca47146105af578063d547741f146105e2578063dfefadff146105fe576101e2565b8063a5c1674e146104f7578063a761135614610513578063b4846e3914610531578063c1a6254e14610561576101e2565b80638252f6fe116100dc5780638252f6fe1461045d5780638bb9c5bf1461048d57806391d14854146104a9578063a217fddf146104d9576101e2565b80636d9e0509146103e75780636e1d616e1461040557806377bb38aa146104235780637bf0fbde1461043f576101e2565b80632dda196f116101855780634245962b116101545780634245962b1461036f57806342f1e8791461038d5780635a2d6ebd146103ab5780636209ec2d146103c9576101e2565b80632dda196f146102e95780632f2ff15d1461031957806334b25ee2146103355780633b129a5614610351576101e2565b806318989def116101c157806318989def146102635780631f2f4bfd1461027f578063213fbf1b146102af5780632bcd60f3146102cb576101e2565b8062f2bd50146101e65780630f28b65e1461021657806311575df014610247575b5f5ffd5b61020060048036038101906101fb91906135d6565b610639565b60405161020d9190613623565b60405180910390f35b610230600480360381019061022b919061363c565b610664565b60405161023e929190613681565b60405180910390f35b610261600480360381019061025c9190613709565b610852565b005b61027d600480360381019061027891906137bb565b610c16565b005b6102996004803603810190610294919061363c565b610e56565b6040516102a69190613a39565b60405180910390f35b6102c960048036038101906102c4919061363c565b61119e565b005b6102d3611508565b6040516102e09190613ab4565b60405180910390f35b61030360048036038101906102fe9190613af7565b61152d565b6040516103109190613b22565b60405180910390f35b610333600480360381019061032e9190613b3b565b61154a565b005b61034f600480360381019061034a9190613ba3565b6117c9565b005b610359611a99565b6040516103669190613bf0565b60405180910390f35b610377611abd565b6040516103849190613bf0565b60405180910390f35b610395611ae1565b6040516103a29190613bf0565b60405180910390f35b6103b3611b05565b6040516103c09190613c29565b60405180910390f35b6103d1611b2a565b6040516103de9190613c73565b60405180910390f35b6103ef611b4f565b6040516103fc9190613cac565b60405180910390f35b61040d611b74565b60405161041a9190613bf0565b60405180910390f35b61043d6004803603810190610438919061363c565b611b98565b005b610447611eb1565b6040516104549190613bf0565b60405180910390f35b61047760048036038101906104729190613af7565b611ed5565b6040516104849190613b22565b60405180910390f35b6104a760048036038101906104a29190613af7565b611efb565b005b6104c360048036038101906104be9190613b3b565b612052565b6040516104d09190613b22565b60405180910390f35b6104e16120b3565b6040516104ee9190613bf0565b60405180910390f35b610511600480360381019061050c919061363c565b6120d7565b005b61051b6123db565b6040516105289190613623565b60405180910390f35b61054b60048036038101906105469190613cc5565b6123e1565b6040516105589190613d98565b60405180910390f35b61057b60048036038101906105769190613db8565b612474565b6040516105889190613623565b60405180910390f35b610599612a78565b6040516105a69190613bf0565b60405180910390f35b6105c960048036038101906105c4919061363c565b612a9c565b6040516105d99493929190613e8f565b60405180910390f35b6105fc60048036038101906105f79190613b3b565b612c15565b005b6106186004803603810190610613919061363c565b612e24565b6040516106309c9b9a99989796959493929190613ed9565b60405180910390f35b6003602052815f5260405f208181548110610652575f80fd5b905f5260205f20015f91509150505481565b5f5f825f600681111561067a576106796138be565b5b60015f8381526020019081526020015f206005015f9054906101000a900460ff1660068111156106ad576106ac6138be565b5b036106ed576040517f08c379a00000000000000000000000000000000000000000000000000000000081526004016106e49061400f565b60405180910390fd5b5f60015f8681526020019081526020015f20905060016006811115610715576107146138be565b5b816005015f9054906101000a900460ff166006811115610738576107376138be565b5b1480610778575060026006811115610753576107526138be565b5b816005015f9054906101000a900460ff166006811115610776576107756138be565b5b145b1561084b5762015180816009015442610791919061405a565b61079b91906140ba565b92505f60085f9054906101000a900473ffffffffffffffffffffffffffffffffffffffff1673ffffffffffffffffffffffffffffffffffffffff1663e35bb0fc83600401546040518263ffffffff1660e01b81526004016107fc9190613623565b5f60405180830381865afa158015610816573d5f5f3e3d5ffd5b505050506040513d5f823e3d601f19601f8201168201806040525081019061083e919061432d565b60a0015190508084119450505b5050915091565b7f408a36151f841709116a4e8aca4e0202874f7f54687dcb863b1ea4672dc9d8cf5f5f8281526020019081526020015f205f3373ffffffffffffffffffffffffffffffffffffffff1673ffffffffffffffffffffffffffffffffffffffff1681526020019081526020015f205f9054906101000a900460ff1661090a576040517f08c379a0000000000000000000000000000000000000000000000000000000008152600401610901906143e4565b60405180910390fd5b835f600681111561091e5761091d6138be565b5b60015f8381526020019081526020015f206005015f9054906101000a900460ff166006811115610951576109506138be565b5b03610991576040517f08c379a00000000000000000000000000000000000000000000000000000000081526004016109889061400f565b60405180910390fd5b5f84849050116109d6576040517f08c379a00000000000000000000000000000000000000000000000000000000081526004016109cd90614472565b60405180910390fd5b5f60015f8781526020019081526020015f209050600260068111156109fe576109fd6138be565b5b816005015f9054906101000a900460ff166006811115610a2157610a206138be565b5b1480610a61575060016006811115610a3c57610a3b6138be565b5b816005015f9054906101000a900460ff166006811115610a5f57610a5e6138be565b5b145b610aa0576040517f08c379a0000000000000000000000000000000000000000000000000000000008152600401610a9790614500565b60405180910390fd5b6004816005015f6101000a81548160ff02191690836006811115610ac757610ac66138be565b5b021790555033816008015f6101000a81548173ffffffffffffffffffffffffffffffffffffffff021916908373ffffffffffffffffffffffffffffffffffffffff1602179055508484826006019182610b2192919061471c565b504281600a018190555060065f9054906101000a900473ffffffffffffffffffffffffffffffffffffffff1673ffffffffffffffffffffffffffffffffffffffff1663de7eb1898733600389896040518663ffffffff1660e01b8152600401610b8e959493929190614869565b5f604051808303815f87803b158015610ba5575f5ffd5b505af1158015610bb7573d5f5f3e3d5ffd5b505050503373ffffffffffffffffffffffffffffffffffffffff16867ff97d4cbd11fcf5b3ca85a58819f7e8371314cdfeb98f4ccf741b37fef987b0d4878742604051610c06939291906148b5565b60405180910390a3505050505050565b5f5f7f1effbbff9c66c5e59634f24fe842750c60d18891155c32dd155fc2d661a4c86d81526020019081526020015f205f3373ffffffffffffffffffffffffffffffffffffffff1673ffffffffffffffffffffffffffffffffffffffff1681526020019081526020015f205f9054906101000a900460ff16610ccd576040517f08c379a0000000000000000000000000000000000000000000000000000000008152600401610cc49061492f565b60405180910390fd5b5f5f90505b83839050811015610e50575f5f858584818110610cf257610cf161494d565b5b9050602002013581526020019081526020015f205f8373ffffffffffffffffffffffffffffffffffffffff1673ffffffffffffffffffffffffffffffffffffffff1681526020019081526020015f205f9054906101000a900460ff16610e435760015f5f868685818110610d6957610d6861494d565b5b9050602002013581526020019081526020015f205f8473ffffffffffffffffffffffffffffffffffffffff1673ffffffffffffffffffffffffffffffffffffffff1681526020019081526020015f205f6101000a81548160ff0219169083151502179055503373ffffffffffffffffffffffffffffffffffffffff168273ffffffffffffffffffffffffffffffffffffffff16858584818110610e0f57610e0e61494d565b5b905060200201357f2f8788117e7eff1d82e926ec794901d17c78024a50270940304540a733656f0d60405160405180910390a45b8080600101915050610cd2565b50505050565b610e5e61348d565b815f6006811115610e7257610e716138be565b5b60015f8381526020019081526020015f206005015f9054906101000a900460ff166006811115610ea557610ea46138be565b5b03610ee5576040517f08c379a0000000000000000000000000000000000000000000000000000000008152600401610edc9061400f565b60405180910390fd5b60015f8481526020019081526020015f20604051806101800160405290815f8201548152602001600182015f9054906101000a900473ffffffffffffffffffffffffffffffffffffffff1673ffffffffffffffffffffffffffffffffffffffff1673ffffffffffffffffffffffffffffffffffffffff16815260200160028201548152602001600382018054610f7a90614555565b80601f0160208091040260200160405190810160405280929190818152602001828054610fa690614555565b8015610ff15780601f10610fc857610100808354040283529160200191610ff1565b820191905f5260205f20905b815481529060010190602001808311610fd457829003601f168201915b5050505050815260200160048201548152602001600582015f9054906101000a900460ff166006811115611028576110276138be565b5b600681111561103a576110396138be565b5b815260200160068201805461104e90614555565b80601f016020809104026020016040519081016040528092919081815260200182805461107a90614555565b80156110c55780601f1061109c576101008083540402835291602001916110c5565b820191905f5260205f20905b8154815290600101906020018083116110a857829003601f168201915b50505050508152602001600782015f9054906101000a900473ffffffffffffffffffffffffffffffffffffffff1673ffffffffffffffffffffffffffffffffffffffff1673ffffffffffffffffffffffffffffffffffffffff168152602001600882015f9054906101000a900473ffffffffffffffffffffffffffffffffffffffff1673ffffffffffffffffffffffffffffffffffffffff1673ffffffffffffffffffffffffffffffffffffffff16815260200160098201548152602001600a8201548152602001600b82015481525050915050919050565b7f408a36151f841709116a4e8aca4e0202874f7f54687dcb863b1ea4672dc9d8cf5f5f8281526020019081526020015f205f3373ffffffffffffffffffffffffffffffffffffffff1673ffffffffffffffffffffffffffffffffffffffff1681526020019081526020015f205f9054906101000a900460ff16611256576040517f08c379a000000000000000000000000000000000000000000000000000000000815260040161124d906143e4565b60405180910390fd5b815f600681111561126a576112696138be565b5b60015f8381526020019081526020015f206005015f9054906101000a900460ff16600681111561129d5761129c6138be565b5b036112dd576040517f08c379a00000000000000000000000000000000000000000000000000000000081526004016112d49061400f565b60405180910390fd5b5f60015f8581526020019081526020015f20905060026006811115611305576113046138be565b5b816005015f9054906101000a900460ff166006811115611328576113276138be565b5b1480611368575060016006811115611343576113426138be565b5b816005015f9054906101000a900460ff166006811115611366576113656138be565b5b145b6113a7576040517f08c379a000000000000000000000000000000000000000000000000000000000815260040161139e906149ea565b60405180910390fd5b6003816005015f6101000a81548160ff021916908360068111156113ce576113cd6138be565b5b021790555033816008015f6101000a81548173ffffffffffffffffffffffffffffffffffffffff021916908373ffffffffffffffffffffffffffffffffffffffff1602179055504281600a018190555060065f9054906101000a900473ffffffffffffffffffffffffffffffffffffffff1673ffffffffffffffffffffffffffffffffffffffff1663de7eb189853360026040518463ffffffff1660e01b815260040161147d93929190614a78565b5f604051808303815f87803b158015611494575f5ffd5b505af11580156114a6573d5f5f3e3d5ffd5b505050503373ffffffffffffffffffffffffffffffffffffffff16847ffeeb8e84e6040297a7855615c0620632bd3facc1f5bec7d7a4ccc4f2ada32381426040516114f19190613623565b60405180910390a361150284612ff5565b50505050565b60085f9054906101000a900473ffffffffffffffffffffffffffffffffffffffff1681565b6002602052805f5260405f205f915054906101000a900460ff1681565b5f5f7f1effbbff9c66c5e59634f24fe842750c60d18891155c32dd155fc2d661a4c86d81526020019081526020015f205f3373ffffffffffffffffffffffffffffffffffffffff1673ffffffffffffffffffffffffffffffffffffffff1681526020019081526020015f205f9054906101000a900460ff16611601576040517f08c379a00000000000000000000000000000000000000000000000000000000081526004016115f89061492f565b60405180910390fd5b5f73ffffffffffffffffffffffffffffffffffffffff168173ffffffffffffffffffffffffffffffffffffffff160361166f576040517f08c379a000000000000000000000000000000000000000000000000000000000815260040161166690614b30565b60405180910390fd5b5f5f8381526020019081526020015f205f8273ffffffffffffffffffffffffffffffffffffffff1673ffffffffffffffffffffffffffffffffffffffff1681526020019081526020015f205f9054906101000a900460ff1615611707576040517f08c379a00000000000000000000000000000000000000000000000000000000081526004016116fe90614bbe565b60405180910390fd5b60015f5f8481526020019081526020015f205f8373ffffffffffffffffffffffffffffffffffffffff1673ffffffffffffffffffffffffffffffffffffffff1681526020019081526020015f205f6101000a81548160ff0219169083151502179055503373ffffffffffffffffffffffffffffffffffffffff168173ffffffffffffffffffffffffffffffffffffffff16837f2f8788117e7eff1d82e926ec794901d17c78024a50270940304540a733656f0d60405160405180910390a45050565b5f5f7f1effbbff9c66c5e59634f24fe842750c60d18891155c32dd155fc2d661a4c86d81526020019081526020015f205f3373ffffffffffffffffffffffffffffffffffffffff1673ffffffffffffffffffffffffffffffffffffffff1681526020019081526020015f205f9054906101000a900460ff16611880576040517f08c379a00000000000000000000000000000000000000000000000000000000081526004016118779061492f565b60405180910390fd5b815f6006811115611894576118936138be565b5b60015f8381526020019081526020015f206005015f9054906101000a900460ff1660068111156118c7576118c66138be565b5b03611907576040517f08c379a00000000000000000000000000000000000000000000000000000000081526004016118fe9061400f565b60405180910390fd5b5f60015f8581526020019081526020015f20905060068081111561192e5761192d6138be565b5b816005015f9054906101000a900460ff166006811115611951576119506138be565b5b14611991576040517f08c379a000000000000000000000000000000000000000000000000000000000815260040161198890614c4c565b60405180910390fd5b82156119c4576001816005015f6101000a81548160ff021916908360068111156119be576119bd6138be565b5b02179055505b5f836119e8576040518060600160405280603881526020016158fc60389139611a02565b6040518060600160405280603881526020016158c4603891395b905060065f9054906101000a900473ffffffffffffffffffffffffffffffffffffffff1673ffffffffffffffffffffffffffffffffffffffff1663de7eb18986336006856040518563ffffffff1660e01b8152600401611a659493929190614c6a565b5f604051808303815f87803b158015611a7c575f5ffd5b505af1158015611a8e573d5f5f3e3d5ffd5b505050505050505050565b7fc10c77be35aff266144ed64c26a1fa104bae2f284ae99ac4a34203454704a18581565b7f408a36151f841709116a4e8aca4e0202874f7f54687dcb863b1ea4672dc9d8cf81565b7fc2979137d1774e40fe2638d355bf7a7b092be4c67f242aad1655e1e27f9df9cc81565b60065f9054906101000a900473ffffffffffffffffffffffffffffffffffffffff1681565b60075f9054906101000a900473ffffffffffffffffffffffffffffffffffffffff1681565b60095f9054906101000a900473ffffffffffffffffffffffffffffffffffffffff1681565b7f59a1c48e5837ad7a7f3dcedcbe129bf3249ec4fbf651fd4f5e2600ead39fe2f581565b7fc10c77be35aff266144ed64c26a1fa104bae2f284ae99ac4a34203454704a1855f5f8281526020019081526020015f205f3373ffffffffffffffffffffffffffffffffffffffff1673ffffffffffffffffffffffffffffffffffffffff1681526020019081526020015f205f9054906101000a900460ff16611c50576040517f08c379a0000000000000000000000000000000000000000000000000000000008152600401611c47906143e4565b60405180910390fd5b815f6006811115611c6457611c636138be565b5b60015f8381526020019081526020015f206005015f9054906101000a900460ff166006811115611c9757611c966138be565b5b03611cd7576040517f08c379a0000000000000000000000000000000000000000000000000000000008152600401611cce9061400f565b60405180910390fd5b5f60015f8581526020019081526020015f20905060016006811115611cff57611cfe6138be565b5b816005015f9054906101000a900460ff166006811115611d2257611d216138be565b5b14611d62576040517f08c379a0000000000000000000000000000000000000000000000000000000008152600401611d5990614d24565b60405180910390fd5b6002816005015f6101000a81548160ff02191690836006811115611d8957611d886138be565b5b021790555033816007015f6101000a81548173ffffffffffffffffffffffffffffffffffffffff021916908373ffffffffffffffffffffffffffffffffffffffff16021790555060065f9054906101000a900473ffffffffffffffffffffffffffffffffffffffff1673ffffffffffffffffffffffffffffffffffffffff1663de7eb189853360016040518463ffffffff1660e01b8152600401611e2f93929190614db2565b5f604051808303815f87803b158015611e46575f5ffd5b505af1158015611e58573d5f5f3e3d5ffd5b505050503373ffffffffffffffffffffffffffffffffffffffff16847f04ed30a0cdf14cdfec3ef2792ea0b60aec00284dd4b4c5f574b0ec867f8cd09042604051611ea39190613623565b60405180910390a350505050565b7f566c814873eed56a69b28c40ab27cc2cb150d74068bae3e884ccd44f8de60f8a81565b5f60025f8381526020019081526020015f205f9054906101000a900460ff169050919050565b5f5f8281526020019081526020015f205f3373ffffffffffffffffffffffffffffffffffffffff1673ffffffffffffffffffffffffffffffffffffffff1681526020019081526020015f205f9054906101000a900460ff16611f92576040517f08c379a0000000000000000000000000000000000000000000000000000000008152600401611f8990614e6a565b60405180910390fd5b5f5f5f8381526020019081526020015f205f3373ffffffffffffffffffffffffffffffffffffffff1673ffffffffffffffffffffffffffffffffffffffff1681526020019081526020015f205f6101000a81548160ff0219169083151502179055503373ffffffffffffffffffffffffffffffffffffffff163373ffffffffffffffffffffffffffffffffffffffff16827ff6391f5c32d9c69d2a47ea670b442974b53935d1edc7fd64eb21e047a839171b60405160405180910390a450565b5f5f5f8481526020019081526020015f205f8373ffffffffffffffffffffffffffffffffffffffff1673ffffffffffffffffffffffffffffffffffffffff1681526020019081526020015f205f9054906101000a900460ff16905092915050565b7f1effbbff9c66c5e59634f24fe842750c60d18891155c32dd155fc2d661a4c86d81565b805f60068111156120eb576120ea6138be565b5b60015f8381526020019081526020015f206005015f9054906101000a900460ff16600681111561211e5761211d6138be565b5b0361215e576040517f08c379a00000000000000000000000000000000000000000000000000000000081526004016121559061400f565b60405180910390fd5b5f60015f8481526020019081526020015f2090503373ffffffffffffffffffffffffffffffffffffffff16816001015f9054906101000a900473ffffffffffffffffffffffffffffffffffffffff1673ffffffffffffffffffffffffffffffffffffffff1614612203576040517f08c379a00000000000000000000000000000000000000000000000000000000081526004016121fa90614ef8565b60405180910390fd5b60046006811115612217576122166138be565b5b816005015f9054906101000a900460ff16600681111561223a576122396138be565b5b1461227a576040517f08c379a000000000000000000000000000000000000000000000000000000000815260040161227190614f86565b60405180910390fd5b62278d0081600a015461228d9190614fa4565b4211156122cf576040517f08c379a00000000000000000000000000000000000000000000000000000000081526004016122c690615047565b60405180910390fd5b6006816005015f6101000a81548160ff021916908360068111156122f6576122f56138be565b5b021790555060065f9054906101000a900473ffffffffffffffffffffffffffffffffffffffff1673ffffffffffffffffffffffffffffffffffffffff1663de7eb189843360056040518463ffffffff1660e01b815260040161235a939291906150d5565b5f604051808303815f87803b158015612371575f5ffd5b505af1158015612383573d5f5f3e3d5ffd5b505050503373ffffffffffffffffffffffffffffffffffffffff16837fe0e58e9cc5ed7ef092d3e14cff6136d23ebf75a16cf3c8257ef8804811d8b0f3426040516123ce9190613623565b60405180910390a3505050565b60055481565b606060035f8373ffffffffffffffffffffffffffffffffffffffff1673ffffffffffffffffffffffffffffffffffffffff1681526020019081526020015f2080548060200260200160405190810160405280929190818152602001828054801561246857602002820191905f5260205f20905b815481526020019060010190808311612454575b50505050509050919050565b5f5f5f1b85036124b9576040517f08c379a00000000000000000000000000000000000000000000000000000000081526004016124b09061518d565b60405180910390fd5b5f84849050116124fe576040517f08c379a00000000000000000000000000000000000000000000000000000000081526004016124f59061521b565b60405180910390fd5b60085f9054906101000a900473ffffffffffffffffffffffffffffffffffffffff1673ffffffffffffffffffffffffffffffffffffffff1663f522c60a836040518263ffffffff1660e01b81526004016125589190613623565b602060405180830381865afa158015612573573d5f5f3e3d5ffd5b505050506040513d601f19601f820116820180604052508101906125979190615239565b6125d6576040517f08c379a00000000000000000000000000000000000000000000000000000000081526004016125cd906152d4565b60405180910390fd5b60025f8681526020019081526020015f205f9054906101000a900460ff1615612634576040517f08c379a000000000000000000000000000000000000000000000000000000000815260040161262b90615388565b60405180910390fd5b60045f815480929190612646906153a6565b91905055905060055f81548092919061265e906153a6565b91905055506040518061018001604052808281526020013373ffffffffffffffffffffffffffffffffffffffff16815260200186815260200185858080601f0160208091040260200160405190810160405280939291908181526020018383808284375f81840152601f19601f820116905080830192505050505050508152602001838152602001600160068111156126fa576126f96138be565b5b815260200160405180602001604052805f81525081526020015f73ffffffffffffffffffffffffffffffffffffffff1681526020015f73ffffffffffffffffffffffffffffffffffffffff1681526020014281526020015f81526020015f81525060015f8381526020019081526020015f205f820151815f01556020820151816001015f6101000a81548173ffffffffffffffffffffffffffffffffffffffff021916908373ffffffffffffffffffffffffffffffffffffffff1602179055506040820151816002015560608201518160030190816127d991906153ed565b506080820151816004015560a0820151816005015f6101000a81548160ff0219169083600681111561280e5761280d6138be565b5b021790555060c082015181600601908161282891906153ed565b5060e0820151816007015f6101000a81548173ffffffffffffffffffffffffffffffffffffffff021916908373ffffffffffffffffffffffffffffffffffffffff160217905550610100820151816008015f6101000a81548173ffffffffffffffffffffffffffffffffffffffff021916908373ffffffffffffffffffffffffffffffffffffffff160217905550610120820151816009015561014082015181600a015561016082015181600b0155905050600160025f8781526020019081526020015f205f6101000a81548160ff02191690831515021790555060035f3373ffffffffffffffffffffffffffffffffffffffff1673ffffffffffffffffffffffffffffffffffffffff1681526020019081526020015f2081908060018154018082558091505060019003905f5260205f20015f909190919091505560065f9054906101000a900473ffffffffffffffffffffffffffffffffffffffff1673ffffffffffffffffffffffffffffffffffffffff1663de7eb18982335f6129ad87613335565b89896040516020016129c1939291906155d4565b6040516020818303038152906040526040518563ffffffff1660e01b81526004016129ef9493929190614c6a565b5f604051808303815f87803b158015612a06575f5ffd5b505af1158015612a18573d5f5f3e3d5ffd5b50505050813373ffffffffffffffffffffffffffffffffffffffff16827f6c5b70268f016664d393f4f4176087b13ae0029e5be4ac3fba257035318d68a6878742604051612a68939291906148b5565b60405180910390a4949350505050565b7fe1dcbdb91df27212a29bc27177c840cf2f819ecf2187432e1fac86c2dd5dfca981565b5f60605f5f845f6006811115612ab557612ab46138be565b5b60015f8381526020019081526020015f206005015f9054906101000a900460ff166006811115612ae857612ae76138be565b5b03612b28576040517f08c379a0000000000000000000000000000000000000000000000000000000008152600401612b1f9061400f565b60405180910390fd5b5f60015f8881526020019081526020015f209050806005015f9054906101000a900460ff1681600601826008015f9054906101000a900473ffffffffffffffffffffffffffffffffffffffff1683600a0154828054612b8690614555565b80601f0160208091040260200160405190810160405280929190818152602001828054612bb290614555565b8015612bfd5780601f10612bd457610100808354040283529160200191612bfd565b820191905f5260205f20905b815481529060010190602001808311612be057829003601f168201915b50505050509250955095509550955050509193509193565b5f5f7f1effbbff9c66c5e59634f24fe842750c60d18891155c32dd155fc2d661a4c86d81526020019081526020015f205f3373ffffffffffffffffffffffffffffffffffffffff1673ffffffffffffffffffffffffffffffffffffffff1681526020019081526020015f205f9054906101000a900460ff16612ccc576040517f08c379a0000000000000000000000000000000000000000000000000000000008152600401612cc39061492f565b60405180910390fd5b5f5f8381526020019081526020015f205f8273ffffffffffffffffffffffffffffffffffffffff1673ffffffffffffffffffffffffffffffffffffffff1681526020019081526020015f205f9054906101000a900460ff16612d63576040517f08c379a0000000000000000000000000000000000000000000000000000000008152600401612d5a9061567f565b60405180910390fd5b5f5f5f8481526020019081526020015f205f8373ffffffffffffffffffffffffffffffffffffffff1673ffffffffffffffffffffffffffffffffffffffff1681526020019081526020015f205f6101000a81548160ff0219169083151502179055503373ffffffffffffffffffffffffffffffffffffffff168173ffffffffffffffffffffffffffffffffffffffff16837ff6391f5c32d9c69d2a47ea670b442974b53935d1edc7fd64eb21e047a839171b60405160405180910390a45050565b6001602052805f5260405f205f91509050805f015490806001015f9054906101000a900473ffffffffffffffffffffffffffffffffffffffff1690806002015490806003018054612e7490614555565b80601f0160208091040260200160405190810160405280929190818152602001828054612ea090614555565b8015612eeb5780601f10612ec257610100808354040283529160200191612eeb565b820191905f5260205f20905b815481529060010190602001808311612ece57829003601f168201915b505050505090806004015490806005015f9054906101000a900460ff1690806006018054612f1890614555565b80601f0160208091040260200160405190810160405280929190818152602001828054612f4490614555565b8015612f8f5780601f10612f6657610100808354040283529160200191612f8f565b820191905f5260205f20905b815481529060010190602001808311612f7257829003601f168201915b505050505090806007015f9054906101000a900473ffffffffffffffffffffffffffffffffffffffff1690806008015f9054906101000a900473ffffffffffffffffffffffffffffffffffffffff169080600901549080600a01549080600b015490508c565b5f60015f8381526020019081526020015f2090506003600681111561301d5761301c6138be565b5b816005015f9054906101000a900460ff1660068111156130405761303f6138be565b5b14613080576040517f08c379a0000000000000000000000000000000000000000000000000000000008152600401613077906156e7565b60405180910390fd5b6005816005015f6101000a81548160ff021916908360068111156130a7576130a66138be565b5b02179055504281600b01819055505f60085f9054906101000a900473ffffffffffffffffffffffffffffffffffffffff1673ffffffffffffffffffffffffffffffffffffffff16636e07a43883600401546040518263ffffffff1660e01b81526004016131149190613623565b602060405180830381865afa15801561312f573d5f5f3e3d5ffd5b505050506040513d601f19601f820116820180604052508101906131539190615705565b905060075f9054906101000a900473ffffffffffffffffffffffffffffffffffffffff1673ffffffffffffffffffffffffffffffffffffffff16630816c387848460040154856001015f9054906101000a900473ffffffffffffffffffffffffffffffffffffffff166040518463ffffffff1660e01b81526004016131da93929190615750565b5f604051808303815f87803b1580156131f1575f5ffd5b505af1158015613203573d5f5f3e3d5ffd5b5050505060065f9054906101000a900473ffffffffffffffffffffffffffffffffffffffff1673ffffffffffffffffffffffffffffffffffffffff1663de7eb1898430600461325186613335565b6040516020016132619190615819565b6040516020818303038152906040526040518563ffffffff1660e01b815260040161328f9493929190614c6a565b5f604051808303815f87803b1580156132a6575f5ffd5b505af11580156132b8573d5f5f3e3d5ffd5b50505050816001015f9054906101000a900473ffffffffffffffffffffffffffffffffffffffff1673ffffffffffffffffffffffffffffffffffffffff16837f46aae7b734144ca04cb1909fad512adf7a45690027501461fd008365bbd74e9e8342604051613328929190615845565b60405180910390a3505050565b60605f820361337b576040518060400160405280600181526020017f30000000000000000000000000000000000000000000000000000000000000008152509050613488565b5f8290505f5b5f82146133aa578080613393906153a6565b915050600a826133a391906140ba565b9150613381565b5f8167ffffffffffffffff8111156133c5576133c46140ee565b5b6040519080825280601f01601f1916602001820160405280156133f75781602001600182028036833780820191505090505b5090505b5f851461348157818061340d9061586c565b925050600a8561341d9190615893565b60306134299190614fa4565b60f81b81838151811061343f5761343e61494d565b5b60200101907effffffffffffffffffffffffffffffffffffffffffffffffffffffffffffff191690815f1a905350600a8561347a91906140ba565b94506133fb565b8093505050505b919050565b6040518061018001604052805f81526020015f73ffffffffffffffffffffffffffffffffffffffff1681526020015f8152602001606081526020015f81526020015f60068111156134e1576134e06138be565b5b8152602001606081526020015f73ffffffffffffffffffffffffffffffffffffffff1681526020015f73ffffffffffffffffffffffffffffffffffffffff1681526020015f81526020015f81526020015f81525090565b5f604051905090565b5f5ffd5b5f5ffd5b5f73ffffffffffffffffffffffffffffffffffffffff82169050919050565b5f61357282613549565b9050919050565b61358281613568565b811461358c575f5ffd5b50565b5f8135905061359d81613579565b92915050565b5f819050919050565b6135b5816135a3565b81146135bf575f5ffd5b50565b5f813590506135d0816135ac565b92915050565b5f5f604083850312156135ec576135eb613541565b5b5f6135f98582860161358f565b925050602061360a858286016135c2565b9150509250929050565b61361d816135a3565b82525050565b5f6020820190506136365f830184613614565b92915050565b5f6020828403121561365157613650613541565b5b5f61365e848285016135c2565b91505092915050565b5f8115159050919050565b61367b81613667565b82525050565b5f6040820190506136945f830185613672565b6136a16020830184613614565b9392505050565b5f5ffd5b5f5ffd5b5f5ffd5b5f5f83601f8401126136c9576136c86136a8565b5b8235905067ffffffffffffffff8111156136e6576136e56136ac565b5b602083019150836001820283011115613702576137016136b0565b5b9250929050565b5f5f5f604084860312156137205761371f613541565b5b5f61372d868287016135c2565b935050602084013567ffffffffffffffff81111561374e5761374d613545565b5b61375a868287016136b4565b92509250509250925092565b5f5f83601f84011261377b5761377a6136a8565b5b8235905067ffffffffffffffff811115613798576137976136ac565b5b6020830191508360208202830111156137b4576137b36136b0565b5b9250929050565b5f5f5f604084860312156137d2576137d1613541565b5b5f84013567ffffffffffffffff8111156137ef576137ee613545565b5b6137fb86828701613766565b9350935050602061380e8682870161358f565b9150509250925092565b613821816135a3565b82525050565b61383081613568565b82525050565b5f819050919050565b61384881613836565b82525050565b5f81519050919050565b5f82825260208201905092915050565b8281835e5f83830152505050565b5f601f19601f8301169050919050565b5f6138908261384e565b61389a8185613858565b93506138aa818560208601613868565b6138b381613876565b840191505092915050565b7f4e487b71000000000000000000000000000000000000000000000000000000005f52602160045260245ffd5b600781106138fc576138fb6138be565b5b50565b5f81905061390c826138eb565b919050565b5f61391b826138ff565b9050919050565b61392b81613911565b82525050565b5f61018083015f8301516139475f860182613818565b50602083015161395a6020860182613827565b50604083015161396d604086018261383f565b50606083015184820360608601526139858282613886565b915050608083015161399a6080860182613818565b5060a08301516139ad60a0860182613922565b5060c083015184820360c08601526139c58282613886565b91505060e08301516139da60e0860182613827565b506101008301516139ef610100860182613827565b50610120830151613a04610120860182613818565b50610140830151613a19610140860182613818565b50610160830151613a2e610160860182613818565b508091505092915050565b5f6020820190508181035f830152613a518184613931565b905092915050565b5f819050919050565b5f613a7c613a77613a7284613549565b613a59565b613549565b9050919050565b5f613a8d82613a62565b9050919050565b5f613a9e82613a83565b9050919050565b613aae81613a94565b82525050565b5f602082019050613ac75f830184613aa5565b92915050565b613ad681613836565b8114613ae0575f5ffd5b50565b5f81359050613af181613acd565b92915050565b5f60208284031215613b0c57613b0b613541565b5b5f613b1984828501613ae3565b91505092915050565b5f602082019050613b355f830184613672565b92915050565b5f5f60408385031215613b5157613b50613541565b5b5f613b5e85828601613ae3565b9250506020613b6f8582860161358f565b9150509250929050565b613b8281613667565b8114613b8c575f5ffd5b50565b5f81359050613b9d81613b79565b92915050565b5f5f60408385031215613bb957613bb8613541565b5b5f613bc6858286016135c2565b9250506020613bd785828601613b8f565b9150509250929050565b613bea81613836565b82525050565b5f602082019050613c035f830184613be1565b92915050565b5f613c1382613a83565b9050919050565b613c2381613c09565b82525050565b5f602082019050613c3c5f830184613c1a565b92915050565b5f613c4c82613a62565b9050919050565b5f613c5d82613c42565b9050919050565b613c6d81613c53565b82525050565b5f602082019050613c865f830184613c64565b92915050565b5f613c9682613a83565b9050919050565b613ca681613c8c565b82525050565b5f602082019050613cbf5f830184613c9d565b92915050565b5f60208284031215613cda57613cd9613541565b5b5f613ce78482850161358f565b91505092915050565b5f81519050919050565b5f82825260208201905092915050565b5f819050602082019050919050565b5f613d248383613818565b60208301905092915050565b5f602082019050919050565b5f613d4682613cf0565b613d508185613cfa565b9350613d5b83613d0a565b805f5b83811015613d8b578151613d728882613d19565b9750613d7d83613d30565b925050600181019050613d5e565b5085935050505092915050565b5f6020820190508181035f830152613db08184613d3c565b905092915050565b5f5f5f5f60608587031215613dd057613dcf613541565b5b5f613ddd87828801613ae3565b945050602085013567ffffffffffffffff811115613dfe57613dfd613545565b5b613e0a878288016136b4565b93509350506040613e1d878288016135c2565b91505092959194509250565b613e3281613911565b82525050565b5f82825260208201905092915050565b5f613e528261384e565b613e5c8185613e38565b9350613e6c818560208601613868565b613e7581613876565b840191505092915050565b613e8981613568565b82525050565b5f608082019050613ea25f830187613e29565b8181036020830152613eb48186613e48565b9050613ec36040830185613e80565b613ed06060830184613614565b95945050505050565b5f61018082019050613eed5f83018f613614565b613efa602083018e613e80565b613f07604083018d613be1565b8181036060830152613f19818c613e48565b9050613f28608083018b613614565b613f3560a083018a613e29565b81810360c0830152613f478189613e48565b9050613f5660e0830188613e80565b613f64610100830187613e80565b613f72610120830186613614565b613f80610140830185613614565b613f8e610160830184613614565b9d9c50505050505050505050505050565b7f50656e73696f6e52656769737472793a206170706c69636174696f6e20646f655f8201527f73206e6f74206578697374000000000000000000000000000000000000000000602082015250565b5f613ff9602b83613e38565b915061400482613f9f565b604082019050919050565b5f6020820190508181035f83015261402681613fed565b9050919050565b7f4e487b71000000000000000000000000000000000000000000000000000000005f52601160045260245ffd5b5f614064826135a3565b915061406f836135a3565b92508282039050818111156140875761408661402d565b5b92915050565b7f4e487b71000000000000000000000000000000000000000000000000000000005f52601260045260245ffd5b5f6140c4826135a3565b91506140cf836135a3565b9250826140df576140de61408d565b5b828204905092915050565b5f5ffd5b7f4e487b71000000000000000000000000000000000000000000000000000000005f52604160045260245ffd5b61412482613876565b810181811067ffffffffffffffff82111715614143576141426140ee565b5b80604052505050565b5f614155613538565b9050614161828261411b565b919050565b5f5ffd5b5f81519050614178816135ac565b92915050565b5f5ffd5b5f67ffffffffffffffff82111561419c5761419b6140ee565b5b6141a582613876565b9050602081019050919050565b5f6141c46141bf84614182565b61414c565b9050828152602081018484840111156141e0576141df61417e565b5b6141eb848285613868565b509392505050565b5f82601f830112614207576142066136a8565b5b81516142178482602086016141b2565b91505092915050565b5f8151905061422e81613b79565b92915050565b5f610120828403121561424a576142496140ea565b5b61425561012061414c565b90505f6142648482850161416a565b5f83015250602082015167ffffffffffffffff81111561428757614286614166565b5b614293848285016141f3565b60208301525060406142a78482850161416a565b60408301525060606142bb8482850161416a565b60608301525060806142cf8482850161416a565b60808301525060a06142e38482850161416a565b60a08301525060c06142f784828501614220565b60c08301525060e061430b8482850161416a565b60e0830152506101006143208482850161416a565b6101008301525092915050565b5f6020828403121561434257614341613541565b5b5f82015167ffffffffffffffff81111561435f5761435e613545565b5b61436b84828501614234565b91505092915050565b7f526f6c654163636573733a2063616c6c657220646f6573206e6f7420686176655f8201527f20726571756972656420726f6c65000000000000000000000000000000000000602082015250565b5f6143ce602e83613e38565b91506143d982614374565b604082019050919050565b5f6020820190508181035f8301526143fb816143c2565b9050919050565b7f50656e73696f6e52656769737472793a2072656a656374696f6e20726561736f5f8201527f6e206973206d616e6461746f7279000000000000000000000000000000000000602082015250565b5f61445c602e83613e38565b915061446782614402565b604082019050919050565b5f6020820190508181035f83015261448981614450565b9050919050565b7f50656e73696f6e52656769737472793a206170706c69636174696f6e206973205f8201527f6e6f7420726561647920666f722072656a656374696f6e000000000000000000602082015250565b5f6144ea603783613e38565b91506144f582614490565b604082019050919050565b5f6020820190508181035f830152614517816144de565b9050919050565b5f82905092915050565b7f4e487b71000000000000000000000000000000000000000000000000000000005f52602260045260245ffd5b5f600282049050600182168061456c57607f821691505b60208210810361457f5761457e614528565b5b50919050565b5f819050815f5260205f209050919050565b5f6020601f8301049050919050565b5f82821b905092915050565b5f600883026145e17fffffffffffffffffffffffffffffffffffffffffffffffffffffffffffffffff826145a6565b6145eb86836145a6565b95508019841693508086168417925050509392505050565b5f61461d614618614613846135a3565b613a59565b6135a3565b9050919050565b5f819050919050565b61463683614603565b61464a61464282614624565b8484546145b2565b825550505050565b5f5f905090565b614661614652565b61466c81848461462d565b505050565b5b8181101561468f576146845f82614659565b600181019050614672565b5050565b601f8211156146d4576146a581614585565b6146ae84614597565b810160208510156146bd578190505b6146d16146c985614597565b830182614671565b50505b505050565b5f82821c905092915050565b5f6146f45f19846008026146d9565b1980831691505092915050565b5f61470c83836146e5565b9150826002028217905092915050565b614726838361451e565b67ffffffffffffffff81111561473f5761473e6140ee565b5b6147498254614555565b614754828285614693565b5f601f831160018114614781575f841561476f578287013590505b6147798582614701565b8655506147e0565b601f19841661478f86614585565b5f5b828110156147b657848901358255600182019150602085019450602081019050614791565b868310156147d357848901356147cf601f8916826146e5565b8355505b6001600288020188555050505b50505050505050565b600781106147fa576147f96138be565b5b50565b5f81905061480a826147e9565b919050565b5f614819826147fd565b9050919050565b6148298161480f565b82525050565b828183375f83830152505050565b5f6148488385613e38565b935061485583858461482f565b61485e83613876565b840190509392505050565b5f60808201905061487c5f830188613614565b6148896020830187613e80565b6148966040830186614820565b81810360608301526148a981848661483d565b90509695505050505050565b5f6040820190508181035f8301526148ce81858761483d565b90506148dd6020830184613614565b949350505050565b7f526f6c654163636573733a2063616c6c6572206973206e6f742061646d696e005f82015250565b5f614919601f83613e38565b9150614924826148e5565b602082019050919050565b5f6020820190508181035f8301526149468161490d565b9050919050565b7f4e487b71000000000000000000000000000000000000000000000000000000005f52603260045260245ffd5b7f50656e73696f6e52656769737472793a206170706c69636174696f6e206973205f8201527f6e6f7420726561647920666f7220617070726f76616c00000000000000000000602082015250565b5f6149d4603683613e38565b91506149df8261497a565b604082019050919050565b5f6020820190508181035f830152614a01816149c8565b9050919050565b7f4170706c69636174696f6e20617070726f7665642062792053746174652057655f8201527f6c66617265204465706172746d656e7400000000000000000000000000000000602082015250565b5f614a62603083613e38565b9150614a6d82614a08565b604082019050919050565b5f608082019050614a8b5f830186613614565b614a986020830185613e80565b614aa56040830184614820565b8181036060830152614ab681614a56565b9050949350505050565b7f526f6c654163636573733a2063616e6e6f74206772616e7420726f6c6520746f5f8201527f207a65726f206164647265737300000000000000000000000000000000000000602082015250565b5f614b1a602d83613e38565b9150614b2582614ac0565b604082019050919050565b5f6020820190508181035f830152614b4781614b0e565b9050919050565b7f526f6c654163636573733a206163636f756e7420616c726561647920686173205f8201527f7468697320726f6c650000000000000000000000000000000000000000000000602082015250565b5f614ba8602983613e38565b9150614bb382614b4e565b604082019050919050565b5f6020820190508181035f830152614bd581614b9c565b9050919050565b7f50656e73696f6e52656769737472793a206e6f7420696e2064697370757465645f8201527f2073746174650000000000000000000000000000000000000000000000000000602082015250565b5f614c36602683613e38565b9150614c4182614bdc565b604082019050919050565b5f6020820190508181035f830152614c6381614c2a565b9050919050565b5f608082019050614c7d5f830187613614565b614c8a6020830186613e80565b614c976040830185614820565b8181036060830152614ca98184613e48565b905095945050505050565b7f50656e73696f6e52656769737472793a206170706c69636174696f6e206d75735f8201527f7420626520696e205355424d4954544544207374617465000000000000000000602082015250565b5f614d0e603783613e38565b9150614d1982614cb4565b604082019050919050565b5f6020820190508181035f830152614d3b81614d02565b9050919050565b7f526576696577207374617274656420627920676f7665726e6d656e74206f66665f8201527f696369616c000000000000000000000000000000000000000000000000000000602082015250565b5f614d9c602583613e38565b9150614da782614d42565b604082019050919050565b5f608082019050614dc55f830186613614565b614dd26020830185613e80565b614ddf6040830184614820565b8181036060830152614df081614d90565b9050949350505050565b7f526f6c654163636573733a2063616c6c657220646f6573206e6f7420686176655f8201527f207468697320726f6c6500000000000000000000000000000000000000000000602082015250565b5f614e54602a83613e38565b9150614e5f82614dfa565b604082019050919050565b5f6020820190508181035f830152614e8181614e48565b9050919050565b7f50656e73696f6e52656769737472793a206f6e6c79206170706c6963616e74205f8201527f63616e2072616973652064697370757465000000000000000000000000000000602082015250565b5f614ee2603183613e38565b9150614eed82614e88565b604082019050919050565b5f6020820190508181035f830152614f0f81614ed6565b9050919050565b7f50656e73696f6e52656769737472793a2063616e206f6e6c79206469737075745f8201527f6520612072656a656374696f6e00000000000000000000000000000000000000602082015250565b5f614f70602d83613e38565b9150614f7b82614f16565b604082019050919050565b5f6020820190508181035f830152614f9d81614f64565b9050919050565b5f614fae826135a3565b9150614fb9836135a3565b9250828201905080821115614fd157614fd061402d565b5b92915050565b7f50656e73696f6e52656769737472793a20646973707574652077696e646f77205f8201527f6f66203330206461797320686173207061737365640000000000000000000000602082015250565b5f615031603583613e38565b915061503c82614fd7565b604082019050919050565b5f6020820190508181035f83015261505e81615025565b9050919050565b7f42656e65666963696172792072616973656420612064697370757465206167615f8201527f696e7374207468652072656a656374696f6e206465636973696f6e0000000000602082015250565b5f6150bf603b83613e38565b91506150ca82615065565b604082019050919050565b5f6080820190506150e85f830186613614565b6150f56020830185613e80565b6151026040830184614820565b8181036060830152615113816150b3565b9050949350505050565b7f50656e73696f6e52656769737472793a20696e76616c696420416164686161725f8201527f2068617368000000000000000000000000000000000000000000000000000000602082015250565b5f615177602583613e38565b91506151828261511d565b604082019050919050565b5f6020820190508181035f8301526151a48161516b565b9050919050565b7f50656e73696f6e52656769737472793a2049504653204349442063616e6e6f745f8201527f20626520656d7074790000000000000000000000000000000000000000000000602082015250565b5f615205602983613e38565b9150615210826151ab565b604082019050919050565b5f6020820190508181035f830152615232816151f9565b9050919050565b5f6020828403121561524e5761524d613541565b5b5f61525b84828501614220565b91505092915050565b7f50656e73696f6e52656769737472793a20736368656d65206973206e6f7420615f8201527f6374697665000000000000000000000000000000000000000000000000000000602082015250565b5f6152be602583613e38565b91506152c982615264565b604082019050919050565b5f6020820190508181035f8301526152eb816152b2565b9050919050565b7f50656e73696f6e52656769737472793a204161646861617220616c72656164795f8201527f2068617320616e20616374697665206170706c69636174696f6e202d2064757060208201527f6c69636174652070726576656e74656400000000000000000000000000000000604082015250565b5f615372605083613e38565b915061537d826152f2565b606082019050919050565b5f6020820190508181035f83015261539f81615366565b9050919050565b5f6153b0826135a3565b91507fffffffffffffffffffffffffffffffffffffffffffffffffffffffffffffffff82036153e2576153e161402d565b5b600182019050919050565b6153f68261384e565b67ffffffffffffffff81111561540f5761540e6140ee565b5b6154198254614555565b615424828285614693565b5f60209050601f831160018114615455575f8415615443578287015190505b61544d8582614701565b8655506154b4565b601f19841661546386614585565b5f5b8281101561548a57848901518255600182019150602085019450602081019050615465565b868310156154a757848901516154a3601f8916826146e5565b8355505b6001600288020188555050505b505050505050565b5f81905092915050565b7f4170706c69636174696f6e207375626d69747465642e20536368656d652049445f8201527f3a20000000000000000000000000000000000000000000000000000000000000602082015250565b5f6155206022836154bc565b915061552b826154c6565b602282019050919050565b5f6155408261384e565b61554a81856154bc565b935061555a818560208601613868565b80840191505092915050565b7f2e2049504653204349443a2000000000000000000000000000000000000000005f82015250565b5f61559a600c836154bc565b91506155a582615566565b600c82019050919050565b5f6155bb83856154bc565b93506155c883858461482f565b82840190509392505050565b5f6155de82615514565b91506155ea8286615536565b91506155f58261558e565b91506156028284866155b0565b9150819050949350505050565b7f526f6c654163636573733a206163636f756e7420646f6573206e6f74206861765f8201527f65207468697320726f6c65000000000000000000000000000000000000000000602082015250565b5f615669602b83613e38565b91506156748261560f565b604082019050919050565b5f6020820190508181035f8301526156968161565d565b9050919050565b7f50656e73696f6e52656769737472793a206e6f7420617070726f7665640000005f82015250565b5f6156d1601d83613e38565b91506156dc8261569d565b602082019050919050565b5f6020820190508181035f8301526156fe816156c5565b9050919050565b5f6020828403121561571a57615719613541565b5b5f6157278482850161416a565b91505092915050565b5f61573a82613549565b9050919050565b61574a81615730565b82525050565b5f6060820190506157635f830186613614565b6157706020830185613614565b61577d6040830184615741565b949350505050565b7f50656e73696f6e207061796d656e74206f6620000000000000000000000000005f82015250565b5f6157b96013836154bc565b91506157c482615785565b601382019050919050565b7f205765692064697362757273656420746f2062656e65666963696172790000005f82015250565b5f615803601d836154bc565b915061580e826157cf565b601d82019050919050565b5f615823826157ad565b915061582f8284615536565b915061583a826157f7565b915081905092915050565b5f6040820190506158585f830185613614565b6158656020830184613614565b9392505050565b5f615876826135a3565b91505f82036158885761588761402d565b5b600182039050919050565b5f61589d826135a3565b91506158a8836135a3565b9250826158b8576158b761408d565b5b82820690509291505056fe44697370757465207265736f6c7665643a206170706c69636174696f6e2072652d6f70656e656420666f722066726573682072657669657744697370757465207265736f6c7665643a206f726967696e616c2072656a656374696f6e20757068656c6420627920636f6d6d6974746565a2646970667358221220764e690dcb11cb4c340446e2caf16a8174e8c8e2b4778bf7e51f42e52408d34a64736f6c634300081f0033",
			"opcodes": "PUSH1 0x80 PUSH1 0x40 MSTORE PUSH1 0x1 PUSH1 0x4 SSTORE PUSH0 PUSH1 0x5 SSTORE CALLVALUE DUP1 ISZERO PUSH2 0x18 JUMPI PUSH0 PUSH0 REVERT JUMPDEST POP PUSH1 0x40 MLOAD PUSH2 0x6079 CODESIZE SUB DUP1 PUSH2 0x6079 DUP4 CODECOPY DUP2 DUP2 ADD PUSH1 0x40 MSTORE DUP2 ADD SWAP1 PUSH2 0x3A SWAP2 SWAP1 PUSH2 0x457 JUMP JUMPDEST PUSH1 0x1 PUSH0 PUSH0 PUSH32 0x1EFFBBFF9C66C5E59634F24FE842750C60D18891155C32DD155FC2D661A4C86D DUP2 MSTORE PUSH1 0x20 ADD SWAP1 DUP2 MSTORE PUSH1 0x20 ADD PUSH0 KECCAK256 PUSH0 CALLER PUSH20 0xFFFFFFFFFFFFFFFFFFFFFFFFFFFFFFFFFFFFFFFF AND PUSH20 0xFFFFFFFFFFFFFFFFFFFFFFFFFFFFFFFFFFFFFFFF AND DUP2 MSTORE PUSH1 0x20 ADD SWAP1 DUP2 MSTORE PUSH1 0x20 ADD PUSH0 KECCAK256 PUSH0 PUSH2 0x100 EXP DUP2 SLOAD DUP2 PUSH1 0xFF MUL NOT AND SWAP1 DUP4 ISZERO ISZERO MUL OR SWAP1 SSTORE POP CALLER PUSH20 0xFFFFFFFFFFFFFFFFFFFFFFFFFFFFFFFFFFFFFFFF AND CALLER PUSH20 0xFFFFFFFFFFFFFFFFFFFFFFFFFFFFFFFFFFFFFFFF AND PUSH32 0x1EFFBBFF9C66C5E59634F24FE842750C60D18891155C32DD155FC2D661A4C86D PUSH32 0x2F8788117E7EFF1D82E926EC794901D17C78024A50270940304540A733656F0D PUSH1 0x40 MLOAD PUSH1 0x40 MLOAD DUP1 SWAP2 SUB SWAP1 LOG4 PUSH0 PUSH20 0xFFFFFFFFFFFFFFFFFFFFFFFFFFFFFFFFFFFFFFFF AND DUP5 PUSH20 0xFFFFFFFFFFFFFFFFFFFFFFFFFFFFFFFFFFFFFFFF AND SUB PUSH2 0x1A6 JUMPI PUSH1 0x40 MLOAD PUSH32 0x8C379A000000000000000000000000000000000000000000000000000000000 DUP2 MSTORE PUSH1 0x4 ADD PUSH2 0x19D SWAP1 PUSH2 0x53B JUMP JUMPDEST PUSH1 0x40 MLOAD DUP1 SWAP2 SUB SWAP1 REVERT JUMPDEST PUSH0 PUSH20 0xFFFFFFFFFFFFFFFFFFFFFFFFFFFFFFFFFFFFFFFF AND DUP4 PUSH20 0xFFFFFFFFFFFFFFFFFFFFFFFFFFFFFFFFFFFFFFFF AND SUB PUSH2 0x214 JUMPI PUSH1 0x40 MLOAD PUSH32 0x8C379A000000000000000000000000000000000000000000000000000000000 DUP2 MSTORE PUSH1 0x4 ADD PUSH2 0x20B SWAP1 PUSH2 0x5C9 JUMP JUMPDEST PUSH1 0x40 MLOAD DUP1 SWAP2 SUB SWAP1 REVERT JUMPDEST PUSH0 PUSH20 0xFFFFFFFFFFFFFFFFFFFFFFFFFFFFFFFFFFFFFFFF AND DUP3 PUSH20 0xFFFFFFFFFFFFFFFFFFFFFFFFFFFFFFFFFFFFFFFF AND SUB PUSH2 0x282 JUMPI PUSH1 0x40 MLOAD PUSH32 0x8C379A000000000000000000000000000000000000000000000000000000000 DUP2 MSTORE PUSH1 0x4 ADD PUSH2 0x279 SWAP1 PUSH2 0x657 JUMP JUMPDEST PUSH1 0x40 MLOAD DUP1 SWAP2 SUB SWAP1 REVERT JUMPDEST PUSH0 PUSH20 0xFFFFFFFFFFFFFFFFFFFFFFFFFFFFFFFFFFFFFFFF AND DUP2 PUSH20 0xFFFFFFFFFFFFFFFFFFFFFFFFFFFFFFFFFFFFFFFF AND SUB PUSH2 0x2F0 JUMPI PUSH1 0x40 MLOAD PUSH32 0x8C379A000000000000000000000000000000000000000000000000000000000 DUP2 MSTORE PUSH1 0x4 ADD PUSH2 0x2E7 SWAP1 PUSH2 0x6E5 JUMP JUMPDEST PUSH1 0x40 MLOAD DUP1 SWAP2 SUB SWAP1 REVERT JUMPDEST DUP4 PUSH1 0x6 PUSH0 PUSH2 0x100 EXP DUP2 SLOAD DUP2 PUSH20 0xFFFFFFFFFFFFFFFFFFFFFFFFFFFFFFFFFFFFFFFF MUL NOT AND SWAP1 DUP4 PUSH20 0xFFFFFFFFFFFFFFFFFFFFFFFFFFFFFFFFFFFFFFFF AND MUL OR SWAP1 SSTORE POP DUP3 PUSH1 0x7 PUSH0 PUSH2 0x100 EXP DUP2 SLOAD DUP2 PUSH20 0xFFFFFFFFFFFFFFFFFFFFFFFFFFFFFFFFFFFFFFFF MUL NOT AND SWAP1 DUP4 PUSH20 0xFFFFFFFFFFFFFFFFFFFFFFFFFFFFFFFFFFFFFFFF AND MUL OR SWAP1 SSTORE POP DUP2 PUSH1 0x8 PUSH0 PUSH2 0x100 EXP DUP2 SLOAD DUP2 PUSH20 0xFFFFFFFFFFFFFFFFFFFFFFFFFFFFFFFFFFFFFFFF MUL NOT AND SWAP1 DUP4 PUSH20 0xFFFFFFFFFFFFFFFFFFFFFFFFFFFFFFFFFFFFFFFF AND MUL OR SWAP1 SSTORE POP DUP1 PUSH1 0x9 PUSH0 PUSH2 0x100 EXP DUP2 SLOAD DUP2 PUSH20 0xFFFFFFFFFFFFFFFFFFFFFFFFFFFFFFFFFFFFFFFF MUL NOT AND SWAP1 DUP4 PUSH20 0xFFFFFFFFFFFFFFFFFFFFFFFFFFFFFFFFFFFFFFFF AND MUL OR SWAP1 SSTORE POP POP POP POP POP PUSH2 0x703 JUMP JUMPDEST PUSH0 PUSH0 REVERT JUMPDEST PUSH0 PUSH20 0xFFFFFFFFFFFFFFFFFFFFFFFFFFFFFFFFFFFFFFFF DUP3 AND SWAP1 POP SWAP2 SWAP1 POP JUMP JUMPDEST PUSH0 PUSH2 0x426 DUP3 PUSH2 0x3FD JUMP JUMPDEST SWAP1 POP SWAP2 SWAP1 POP JUMP JUMPDEST PUSH2 0x436 DUP2 PUSH2 0x41C JUMP JUMPDEST DUP2 EQ PUSH2 0x440 JUMPI PUSH0 PUSH0 REVERT JUMPDEST POP JUMP JUMPDEST PUSH0 DUP2 MLOAD SWAP1 POP PUSH2 0x451 DUP2 PUSH2 0x42D JUMP JUMPDEST SWAP3 SWAP2 POP POP JUMP JUMPDEST PUSH0 PUSH0 PUSH0 PUSH0 PUSH1 0x80 DUP6 DUP8 SUB SLT ISZERO PUSH2 0x46F JUMPI PUSH2 0x46E PUSH2 0x3F9 JUMP JUMPDEST JUMPDEST PUSH0 PUSH2 0x47C DUP8 DUP3 DUP9 ADD PUSH2 0x443 JUMP JUMPDEST SWAP5 POP POP PUSH1 0x20 PUSH2 0x48D DUP8 DUP3 DUP9 ADD PUSH2 0x443 JUMP JUMPDEST SWAP4 POP POP PUSH1 0x40 PUSH2 0x49E DUP8 DUP3 DUP9 ADD PUSH2 0x443 JUMP JUMPDEST SWAP3 POP POP PUSH1 0x60 PUSH2 0x4AF DUP8 DUP3 DUP9 ADD PUSH2 0x443 JUMP JUMPDEST SWAP2 POP POP SWAP3 SWAP6 SWAP2 SWAP5 POP SWAP3 POP JUMP JUMPDEST PUSH0 DUP3 DUP3 MSTORE PUSH1 0x20 DUP3 ADD SWAP1 POP SWAP3 SWAP2 POP POP JUMP JUMPDEST PUSH32 0x50656E73696F6E52656769737472793A20696E76616C69642041756469744C6F PUSH0 DUP3 ADD MSTORE PUSH32 0x6720616464726573730000000000000000000000000000000000000000000000 PUSH1 0x20 DUP3 ADD MSTORE POP JUMP JUMPDEST PUSH0 PUSH2 0x525 PUSH1 0x29 DUP4 PUSH2 0x4BB JUMP JUMPDEST SWAP2 POP PUSH2 0x530 DUP3 PUSH2 0x4CB JUMP JUMPDEST PUSH1 0x40 DUP3 ADD SWAP1 POP SWAP2 SWAP1 POP JUMP JUMPDEST PUSH0 PUSH1 0x20 DUP3 ADD SWAP1 POP DUP2 DUP2 SUB PUSH0 DUP4 ADD MSTORE PUSH2 0x552 DUP2 PUSH2 0x519 JUMP JUMPDEST SWAP1 POP SWAP2 SWAP1 POP JUMP JUMPDEST PUSH32 0x50656E73696F6E52656769737472793A20696E76616C69642046756E644D616E PUSH0 DUP3 ADD MSTORE PUSH32 0x6167657220616464726573730000000000000000000000000000000000000000 PUSH1 0x20 DUP3 ADD MSTORE POP JUMP JUMPDEST PUSH0 PUSH2 0x5B3 PUSH1 0x2C DUP4 PUSH2 0x4BB JUMP JUMPDEST SWAP2 POP PUSH2 0x5BE DUP3 PUSH2 0x559 JUMP JUMPDEST PUSH1 0x40 DUP3 ADD SWAP1 POP SWAP2 SWAP1 POP JUMP JUMPDEST PUSH0 PUSH1 0x20 DUP3 ADD SWAP1 POP DUP2 DUP2 SUB PUSH0 DUP4 ADD MSTORE PUSH2 0x5E0 DUP2 PUSH2 0x5A7 JUMP JUMPDEST SWAP1 POP SWAP2 SWAP1 POP JUMP JUMPDEST PUSH32 0x50656E73696F6E52656769737472793A20696E76616C696420536368656D6543 PUSH0 DUP3 ADD MSTORE PUSH32 0x6F6E666967206164647265737300000000000000000000000000000000000000 PUSH1 0x20 DUP3 ADD MSTORE POP JUMP JUMPDEST PUSH0 PUSH2 0x641 PUSH1 0x2D DUP4 PUSH2 0x4BB JUMP JUMPDEST SWAP2 POP PUSH2 0x64C DUP3 PUSH2 0x5E7 JUMP JUMPDEST PUSH1 0x40 DUP3 ADD SWAP1 POP SWAP2 SWAP1 POP JUMP JUMPDEST PUSH0 PUSH1 0x20 DUP3 ADD SWAP1 POP DUP2 DUP2 SUB PUSH0 DUP4 ADD MSTORE PUSH2 0x66E DUP2 PUSH2 0x635 JUMP JUMPDEST SWAP1 POP SWAP2 SWAP1 POP JUMP JUMPDEST PUSH32 0x50656E73696F6E52656769737472793A20696E76616C69642049504653566572 PUSH0 DUP3 ADD MSTORE PUSH32 0x6966696572206164647265737300000000000000000000000000000000000000 PUSH1 0x20 DUP3 ADD MSTORE POP JUMP JUMPDEST PUSH0 PUSH2 0x6CF PUSH1 0x2D DUP4 PUSH2 0x4BB JUMP JUMPDEST SWAP2 POP PUSH2 0x6DA DUP3 PUSH2 0x675 JUMP JUMPDEST PUSH1 0x40 DUP3 ADD SWAP1 POP SWAP2 SWAP1 POP JUMP JUMPDEST PUSH0 PUSH1 0x20 DUP3 ADD SWAP1 POP DUP2 DUP2 SUB PUSH0 DUP4 ADD MSTORE PUSH2 0x6FC DUP2 PUSH2 0x6C3 JUMP JUMPDEST SWAP1 POP SWAP2 SWAP1 POP JUMP JUMPDEST PUSH2 0x5969 DUP1 PUSH2 0x710 PUSH0 CODECOPY PUSH0 RETURN INVALID PUSH1 0x80 PUSH1 0x40 MSTORE CALLVALUE DUP1 ISZERO PUSH2 0xF JUMPI PUSH0 PUSH0 REVERT JUMPDEST POP PUSH1 0x4 CALLDATASIZE LT PUSH2 0x1E2 JUMPI PUSH0 CALLDATALOAD PUSH1 0xE0 SHR DUP1 PUSH4 0x6D9E0509 GT PUSH2 0x10D JUMPI DUP1 PUSH4 0xA5C1674E GT PUSH2 0xA0 JUMPI DUP1 PUSH4 0xD11A57EC GT PUSH2 0x6F JUMPI DUP1 PUSH4 0xD11A57EC EQ PUSH2 0x591 JUMPI DUP1 PUSH4 0xD32CCA47 EQ PUSH2 0x5AF JUMPI DUP1 PUSH4 0xD547741F EQ PUSH2 0x5E2 JUMPI DUP1 PUSH4 0xDFEFADFF EQ PUSH2 0x5FE JUMPI PUSH2 0x1E2 JUMP JUMPDEST DUP1 PUSH4 0xA5C1674E EQ PUSH2 0x4F7 JUMPI DUP1 PUSH4 0xA7611356 EQ PUSH2 0x513 JUMPI DUP1 PUSH4 0xB4846E39 EQ PUSH2 0x531 JUMPI DUP1 PUSH4 0xC1A6254E EQ PUSH2 0x561 JUMPI PUSH2 0x1E2 JUMP JUMPDEST DUP1 PUSH4 0x8252F6FE GT PUSH2 0xDC JUMPI DUP1 PUSH4 0x8252F6FE EQ PUSH2 0x45D JUMPI DUP1 PUSH4 0x8BB9C5BF EQ PUSH2 0x48D JUMPI DUP1 PUSH4 0x91D14854 EQ PUSH2 0x4A9 JUMPI DUP1 PUSH4 0xA217FDDF EQ PUSH2 0x4D9 JUMPI PUSH2 0x1E2 JUMP JUMPDEST DUP1 PUSH4 0x6D9E0509 EQ PUSH2 0x3E7 JUMPI DUP1 PUSH4 0x6E1D616E EQ PUSH2 0x405 JUMPI DUP1 PUSH4 0x77BB38AA EQ PUSH2 0x423 JUMPI DUP1 PUSH4 0x7BF0FBDE EQ PUSH2 0x43F JUMPI PUSH2 0x1E2 JUMP JUMPDEST DUP1 PUSH4 0x2DDA196F GT PUSH2 0x185 JUMPI DUP1 PUSH4 0x4245962B GT PUSH2 0x154 JUMPI DUP1 PUSH4 0x4245962B EQ PUSH2 0x36F JUMPI DUP1 PUSH4 0x42F1E879 EQ PUSH2 0x38D JUMPI DUP1 PUSH4 0x5A2D6EBD EQ PUSH2 0x3AB JUMPI DUP1 PUSH4 0x6209EC2D EQ PUSH2 0x3C9 JUMPI PUSH2 0x1E2 JUMP JUMPDEST DUP1 PUSH4 0x2DDA196F EQ PUSH2 0x2E9 JUMPI DUP1 PUSH4 0x2F2FF15D EQ PUSH2 0x319 JUMPI DUP1 PUSH4 0x34B25EE2 EQ PUSH2 0x335 JUMPI DUP1 PUSH4 0x3B129A56 EQ PUSH2 0x351 JUMPI PUSH2 0x1E2 JUMP JUMPDEST DUP1 PUSH4 0x18989DEF GT PUSH2 0x1C1 JUMPI DUP1 PUSH4 0x18989DEF EQ PUSH2 0x263 JUMPI DUP1 PUSH4 0x1F2F4BFD EQ PUSH2 0x27F JUMPI DUP1 PUSH4 0x213FBF1B EQ PUSH2 0x2AF JUMPI DUP1 PUSH4 0x2BCD60F3 EQ PUSH2 0x2CB JUMPI PUSH2 0x1E2 JUMP JUMPDEST DUP1 PUSH3 0xF2BD50 EQ PUSH2 0x1E6 JUMPI DUP1 PUSH4 0xF28B65E EQ PUSH2 0x216 JUMPI DUP1 PUSH4 0x11575DF0 EQ PUSH2 0x247 JUMPI JUMPDEST PUSH0 PUSH0 REVERT JUMPDEST PUSH2 0x200 PUSH1 0x4 DUP1 CALLDATASIZE SUB DUP2 ADD SWAP1 PUSH2 0x1FB SWAP2 SWAP1 PUSH2 0x35D6 JUMP JUMPDEST PUSH2 0x639 JUMP JUMPDEST PUSH1 0x40 MLOAD PUSH2 0x20D SWAP2 SWAP1 PUSH2 0x3623 JUMP JUMPDEST PUSH1 0x40 MLOAD DUP1 SWAP2 SUB SWAP1 RETURN JUMPDEST PUSH2 0x230 PUSH1 0x4 DUP1 CALLDATASIZE SUB DUP2 ADD SWAP1 PUSH2 0x22B SWAP2 SWAP1 PUSH2 0x363C JUMP JUMPDEST PUSH2 0x664 JUMP JUMPDEST PUSH1 0x40 MLOAD PUSH2 0x23E SWAP3 SWAP2 SWAP1 PUSH2 0x3681 JUMP JUMPDEST PUSH1 0x40 MLOAD DUP1 SWAP2 SUB SWAP1 RETURN JUMPDEST PUSH2 0x261 PUSH1 0x4 DUP1 CALLDATASIZE SUB DUP2 ADD SWAP1 PUSH2 0x25C SWAP2 SWAP1 PUSH2 0x3709 JUMP JUMPDEST PUSH2 0x852 JUMP JUMPDEST STOP JUMPDEST PUSH2 0x27D PUSH1 0x4 DUP1 CALLDATASIZE SUB DUP2 ADD SWAP1 PUSH2 0x278 SWAP2 SWAP1 PUSH2 0x37BB JUMP JUMPDEST PUSH2 0xC16 JUMP JUMPDEST STOP JUMPDEST PUSH2 0x299 PUSH1 0x4 DUP1 CALLDATASIZE SUB DUP2 ADD SWAP1 PUSH2 0x294 SWAP2 SWAP1 PUSH2 0x363C JUMP JUMPDEST PUSH2 0xE56 JUMP JUMPDEST PUSH1 0x40 MLOAD PUSH2 0x2A6 SWAP2 SWAP1 PUSH2 0x3A39 JUMP JUMPDEST PUSH1 0x40 MLOAD DUP1 SWAP2 SUB SWAP1 RETURN JUMPDEST PUSH2 0x2C9 PUSH1 0x4 DUP1 CALLDATASIZE SUB DUP2 ADD SWAP1 PUSH2 0x2C4 SWAP2 SWAP1 PUSH2 0x363C JUMP JUMPDEST PUSH2 0x119E JUMP JUMPDEST STOP JUMPDEST PUSH2 0x2D3 PUSH2 0x1508 JUMP JUMPDEST PUSH1 0x40 MLOAD PUSH2 0x2E0 SWAP2 SWAP1 PUSH2 0x3AB4 JUMP JUMPDEST PUSH1 0x40 MLOAD DUP1 SWAP2 SUB SWAP1 RETURN JUMPDEST PUSH2 0x303 PUSH1 0x4 DUP1 CALLDATASIZE SUB DUP2 ADD SWAP1 PUSH2 0x2FE SWAP2 SWAP1 PUSH2 0x3AF7 JUMP JUMPDEST PUSH2 0x152D JUMP JUMPDEST PUSH1 0x40 MLOAD PUSH2 0x310 SWAP2 SWAP1 PUSH2 0x3B22 JUMP JUMPDEST PUSH1 0x40 MLOAD DUP1 SWAP2 SUB SWAP1 RETURN JUMPDEST PUSH2 0x333 PUSH1 0x4 DUP1 CALLDATASIZE SUB DUP2 ADD SWAP1 PUSH2 0x32E SWAP2 SWAP1 PUSH2 0x3B3B JUMP JUMPDEST PUSH2 0x154A JUMP JUMPDEST STOP JUMPDEST PUSH2 0x34F PUSH1 0x4 DUP1 CALLDATASIZE SUB DUP2 ADD SWAP1 PUSH2 0x34A SWAP2 SWAP1 PUSH2 0x3BA3 JUMP JUMPDEST PUSH2 0x17C9 JUMP JUMPDEST STOP JUMPDEST PUSH2 0x359 PUSH2 0x1A99 JUMP JUMPDEST PUSH1 0x40 MLOAD PUSH2 0x366 SWAP2 SWAP1 PUSH2 0x3BF0 JUMP JUMPDEST PUSH1 0x40 MLOAD DUP1 SWAP2 SUB SWAP1 RETURN JUMPDEST PUSH2 0x377 PUSH2 0x1ABD JUMP JUMPDEST PUSH1 0x40 MLOAD PUSH2 0x384 SWAP2 SWAP1 PUSH2 0x3BF0 JUMP JUMPDEST PUSH1 0x40 MLOAD DUP1 SWAP2 SUB SWAP1 RETURN JUMPDEST PUSH2 0x395 PUSH2 0x1AE1 JUMP JUMPDEST PUSH1 0x40 MLOAD PUSH2 0x3A2 SWAP2 SWAP1 PUSH2 0x3BF0 JUMP JUMPDEST PUSH1 0x40 MLOAD DUP1 SWAP2 SUB SWAP1 RETURN JUMPDEST PUSH2 0x3B3 PUSH2 0x1B05 JUMP JUMPDEST PUSH1 0x40 MLOAD PUSH2 0x3C0 SWAP2 SWAP1 PUSH2 0x3C29 JUMP JUMPDEST PUSH1 0x40 MLOAD DUP1 SWAP2 SUB SWAP1 RETURN JUMPDEST PUSH2 0x3D1 PUSH2 0x1B2A JUMP JUMPDEST PUSH1 0x40 MLOAD PUSH2 0x3DE SWAP2 SWAP1 PUSH2 0x3C73 JUMP JUMPDEST PUSH1 0x40 MLOAD DUP1 SWAP2 SUB SWAP1 RETURN JUMPDEST PUSH2 0x3EF PUSH2 0x1B4F JUMP JUMPDEST PUSH1 0x40 MLOAD PUSH2 0x3FC SWAP2 SWAP1 PUSH2 0x3CAC JUMP JUMPDEST PUSH1 0x40 MLOAD DUP1 SWAP2 SUB SWAP1 RETURN JUMPDEST PUSH2 0x40D PUSH2 0x1B74 JUMP JUMPDEST PUSH1 0x40 MLOAD PUSH2 0x41A SWAP2 SWAP1 PUSH2 0x3BF0 JUMP JUMPDEST PUSH1 0x40 MLOAD DUP1 SWAP2 SUB SWAP1 RETURN JUMPDEST PUSH2 0x43D PUSH1 0x4 DUP1 CALLDATASIZE SUB DUP2 ADD SWAP1 PUSH2 0x438 SWAP2 SWAP1 PUSH2 0x363C JUMP JUMPDEST PUSH2 0x1B98 JUMP JUMPDEST STOP JUMPDEST PUSH2 0x447 PUSH2 0x1EB1 JUMP JUMPDEST PUSH1 0x40 MLOAD PUSH2 0x454 SWAP2 SWAP1 PUSH2 0x3BF0 JUMP JUMPDEST PUSH1 0x40 MLOAD DUP1 SWAP2 SUB SWAP1 RETURN JUMPDEST PUSH2 0x477 PUSH1 0x4 DUP1 CALLDATASIZE SUB DUP2 ADD SWAP1 PUSH2 0x472 SWAP2 SWAP1 PUSH2 0x3AF7 JUMP JUMPDEST PUSH2 0x1ED5 JUMP JUMPDEST PUSH1 0x40 MLOAD PUSH2 0x484 SWAP2 SWAP1 PUSH2 0x3B22 JUMP JUMPDEST PUSH1 0x40 MLOAD DUP1 SWAP2 SUB SWAP1 RETURN JUMPDEST PUSH2 0x4A7 PUSH1 0x4 DUP1 CALLDATASIZE SUB DUP2 ADD SWAP1 PUSH2 0x4A2 SWAP2 SWAP1 PUSH2 0x3AF7 JUMP JUMPDEST PUSH2 0x1EFB JUMP JUMPDEST STOP JUMPDEST PUSH2 0x4C3 PUSH1 0x4 DUP1 CALLDATASIZE SUB DUP2 ADD SWAP1 PUSH2 0x4BE SWAP2 SWAP1 PUSH2 0x3B3B JUMP JUMPDEST PUSH2 0x2052 JUMP JUMPDEST PUSH1 0x40 MLOAD PUSH2 0x4D0 SWAP2 SWAP1 PUSH2 0x3B22 JUMP JUMPDEST PUSH1 0x40 MLOAD DUP1 SWAP2 SUB SWAP1 RETURN JUMPDEST PUSH2 0x4E1 PUSH2 0x20B3 JUMP JUMPDEST PUSH1 0x40 MLOAD PUSH2 0x4EE SWAP2 SWAP1 PUSH2 0x3BF0 JUMP JUMPDEST PUSH1 0x40 MLOAD DUP1 SWAP2 SUB SWAP1 RETURN JUMPDEST PUSH2 0x511 PUSH1 0x4 DUP1 CALLDATASIZE SUB DUP2 ADD SWAP1 PUSH2 0x50C SWAP2 SWAP1 PUSH2 0x363C JUMP JUMPDEST PUSH2 0x20D7 JUMP JUMPDEST STOP JUMPDEST PUSH2 0x51B PUSH2 0x23DB JUMP JUMPDEST PUSH1 0x40 MLOAD PUSH2 0x528 SWAP2 SWAP1 PUSH2 0x3623 JUMP JUMPDEST PUSH1 0x40 MLOAD DUP1 SWAP2 SUB SWAP1 RETURN JUMPDEST PUSH2 0x54B PUSH1 0x4 DUP1 CALLDATASIZE SUB DUP2 ADD SWAP1 PUSH2 0x546 SWAP2 SWAP1 PUSH2 0x3CC5 JUMP JUMPDEST PUSH2 0x23E1 JUMP JUMPDEST PUSH1 0x40 MLOAD PUSH2 0x558 SWAP2 SWAP1 PUSH2 0x3D98 JUMP JUMPDEST PUSH1 0x40 MLOAD DUP1 SWAP2 SUB SWAP1 RETURN JUMPDEST PUSH2 0x57B PUSH1 0x4 DUP1 CALLDATASIZE SUB DUP2 ADD SWAP1 PUSH2 0x576 SWAP2 SWAP1 PUSH2 0x3DB8 JUMP JUMPDEST PUSH2 0x2474 JUMP JUMPDEST PUSH1 0x40 MLOAD PUSH2 0x588 SWAP2 SWAP1 PUSH2 0x3623 JUMP JUMPDEST PUSH1 0x40 MLOAD DUP1 SWAP2 SUB SWAP1 RETURN JUMPDEST PUSH2 0x599 PUSH2 0x2A78 JUMP JUMPDEST PUSH1 0x40 MLOAD PUSH2 0x5A6 SWAP2 SWAP1 PUSH2 0x3BF0 JUMP JUMPDEST PUSH1 0x40 MLOAD DUP1 SWAP2 SUB SWAP1 RETURN JUMPDEST PUSH2 0x5C9 PUSH1 0x4 DUP1 CALLDATASIZE SUB DUP2 ADD SWAP1 PUSH2 0x5C4 SWAP2 SWAP1 PUSH2 0x363C JUMP JUMPDEST PUSH2 0x2A9C JUMP JUMPDEST PUSH1 0x40 MLOAD PUSH2 0x5D9 SWAP5 SWAP4 SWAP3 SWAP2 SWAP1 PUSH2 0x3E8F JUMP JUMPDEST PUSH1 0x40 MLOAD DUP1 SWAP2 SUB SWAP1 RETURN JUMPDEST PUSH2 0x5FC PUSH1 0x4 DUP1 CALLDATASIZE SUB DUP2 ADD SWAP1 PUSH2 0x5F7 SWAP2 SWAP1 PUSH2 0x3B3B JUMP JUMPDEST PUSH2 0x2C15 JUMP JUMPDEST STOP JUMPDEST PUSH2 0x618 PUSH1 0x4 DUP1 CALLDATASIZE SUB DUP2 ADD SWAP1 PUSH2 0x613 SWAP2 SWAP1 PUSH2 0x363C JUMP JUMPDEST PUSH2 0x2E24 JUMP JUMPDEST PUSH1 0x40 MLOAD PUSH2 0x630 SWAP13 SWAP12 SWAP11 SWAP10 SWAP9 SWAP8 SWAP7 SWAP6 SWAP5 SWAP4 SWAP3 SWAP2 SWAP1 PUSH2 0x3ED9 JUMP JUMPDEST PUSH1 0x40 MLOAD DUP1 SWAP2 SUB SWAP1 RETURN JUMPDEST PUSH1 0x3 PUSH1 0x20 MSTORE DUP2 PUSH0 MSTORE PUSH1 0x40 PUSH0 KECCAK256 DUP2 DUP2 SLOAD DUP2 LT PUSH2 0x652 JUMPI PUSH0 DUP1 REVERT JUMPDEST SWAP1 PUSH0 MSTORE PUSH1 0x20 PUSH0 KECCAK256 ADD PUSH0 SWAP2 POP SWAP2 POP POP SLOAD DUP2 JUMP JUMPDEST PUSH0 PUSH0 DUP3 PUSH0 PUSH1 0x6 DUP2 GT ISZERO PUSH2 0x67A JUMPI PUSH2 0x679 PUSH2 0x38BE JUMP JUMPDEST JUMPDEST PUSH1 0x1 PUSH0 DUP4 DUP2 MSTORE PUSH1 0x20 ADD SWAP1 DUP2 MSTORE PUSH1 0x20 ADD PUSH0 KECCAK256 PUSH1 0x5 ADD PUSH0 SWAP1 SLOAD SWAP1 PUSH2 0x100 EXP SWAP1 DIV PUSH1 0xFF AND PUSH1 0x6 DUP2 GT ISZERO PUSH2 0x6AD JUMPI PUSH2 0x6AC PUSH2 0x38BE JUMP JUMPDEST JUMPDEST SUB PUSH2 0x6ED JUMPI PUSH1 0x40 MLOAD PUSH32 0x8C379A000000000000000000000000000000000000000000000000000000000 DUP2 MSTORE PUSH1 0x4 ADD PUSH2 0x6E4 SWAP1 PUSH2 0x400F JUMP JUMPDEST PUSH1 0x40 MLOAD DUP1 SWAP2 SUB SWAP1 REVERT JUMPDEST PUSH0 PUSH1 0x1 PUSH0 DUP7 DUP2 MSTORE PUSH1 0x20 ADD SWAP1 DUP2 MSTORE PUSH1 0x20 ADD PUSH0 KECCAK256 SWAP1 POP PUSH1 0x1 PUSH1 0x6 DUP2 GT ISZERO PUSH2 0x715 JUMPI PUSH2 0x714 PUSH2 0x38BE JUMP JUMPDEST JUMPDEST DUP2 PUSH1 0x5 ADD PUSH0 SWAP1 SLOAD SWAP1 PUSH2 0x100 EXP SWAP1 DIV PUSH1 0xFF AND PUSH1 0x6 DUP2 GT ISZERO PUSH2 0x738 JUMPI PUSH2 0x737 PUSH2 0x38BE JUMP JUMPDEST JUMPDEST EQ DUP1 PUSH2 0x778 JUMPI POP PUSH1 0x2 PUSH1 0x6 DUP2 GT ISZERO PUSH2 0x753 JUMPI PUSH2 0x752 PUSH2 0x38BE JUMP JUMPDEST JUMPDEST DUP2 PUSH1 0x5 ADD PUSH0 SWAP1 SLOAD SWAP1 PUSH2 0x100 EXP SWAP1 DIV PUSH1 0xFF AND PUSH1 0x6 DUP2 GT ISZERO PUSH2 0x776 JUMPI PUSH2 0x775 PUSH2 0x38BE JUMP JUMPDEST JUMPDEST EQ JUMPDEST ISZERO PUSH2 0x84B JUMPI PUSH3 0x15180 DUP2 PUSH1 0x9 ADD SLOAD TIMESTAMP PUSH2 0x791 SWAP2 SWAP1 PUSH2 0x405A JUMP JUMPDEST PUSH2 0x79B SWAP2 SWAP1 PUSH2 0x40BA JUMP JUMPDEST SWAP3 POP PUSH0 PUSH1 0x8 PUSH0 SWAP1 SLOAD SWAP1 PUSH2 0x100 EXP SWAP1 DIV PUSH20 0xFFFFFFFFFFFFFFFFFFFFFFFFFFFFFFFFFFFFFFFF AND PUSH20 0xFFFFFFFFFFFFFFFFFFFFFFFFFFFFFFFFFFFFFFFF AND PUSH4 0xE35BB0FC DUP4 PUSH1 0x4 ADD SLOAD PUSH1 0x40 MLOAD DUP3 PUSH4 0xFFFFFFFF AND PUSH1 0xE0 SHL DUP2 MSTORE PUSH1 0x4 ADD PUSH2 0x7FC SWAP2 SWAP1 PUSH2 0x3623 JUMP JUMPDEST PUSH0 PUSH1 0x40 MLOAD DUP1 DUP4 SUB DUP2 DUP7 GAS STATICCALL ISZERO DUP1 ISZERO PUSH2 0x816 JUMPI RETURNDATASIZE PUSH0 PUSH0 RETURNDATACOPY RETURNDATASIZE PUSH0 REVERT JUMPDEST POP POP POP POP PUSH1 0x40 MLOAD RETURNDATASIZE PUSH0 DUP3 RETURNDATACOPY RETURNDATASIZE PUSH1 0x1F NOT PUSH1 0x1F DUP3 ADD AND DUP3 ADD DUP1 PUSH1 0x40 MSTORE POP DUP2 ADD SWAP1 PUSH2 0x83E SWAP2 SWAP1 PUSH2 0x432D JUMP JUMPDEST PUSH1 0xA0 ADD MLOAD SWAP1 POP DUP1 DUP5 GT SWAP5 POP POP JUMPDEST POP POP SWAP2 POP SWAP2 JUMP JUMPDEST PUSH32 0x408A36151F841709116A4E8ACA4E0202874F7F54687DCB863B1EA4672DC9D8CF PUSH0 PUSH0 DUP3 DUP2 MSTORE PUSH1 0x20 ADD SWAP1 DUP2 MSTORE PUSH1 0x20 ADD PUSH0 KECCAK256 PUSH0 CALLER PUSH20 0xFFFFFFFFFFFFFFFFFFFFFFFFFFFFFFFFFFFFFFFF AND PUSH20 0xFFFFFFFFFFFFFFFFFFFFFFFFFFFFFFFFFFFFFFFF AND DUP2 MSTORE PUSH1 0x20 ADD SWAP1 DUP2 MSTORE PUSH1 0x20 ADD PUSH0 KECCAK256 PUSH0 SWAP1 SLOAD SWAP1 PUSH2 0x100 EXP SWAP1 DIV PUSH1 0xFF AND PUSH2 0x90A JUMPI PUSH1 0x40 MLOAD PUSH32 0x8C379A000000000000000000000000000000000000000000000000000000000 DUP2 MSTORE PUSH1 0x4 ADD PUSH2 0x901 SWAP1 PUSH2 0x43E4 JUMP JUMPDEST PUSH1 0x40 MLOAD DUP1 SWAP2 SUB SWAP1 REVERT JUMPDEST DUP4 PUSH0 PUSH1 0x6 DUP2 GT ISZERO PUSH2 0x91E JUMPI PUSH2 0x91D PUSH2 0x38BE JUMP JUMPDEST JUMPDEST PUSH1 0x1 PUSH0 DUP4 DUP2 MSTORE PUSH1 0x20 ADD SWAP1 DUP2 MSTORE PUSH1 0x20 ADD PUSH0 KECCAK256 PUSH1 0x5 ADD PUSH0 SWAP1 SLOAD SWAP1 PUSH2 0x100 EXP SWAP1 DIV PUSH1 0xFF AND PUSH1 0x6 DUP2 GT ISZERO PUSH2 0x951 JUMPI PUSH2 0x950 PUSH2 0x38BE JUMP JUMPDEST JUMPDEST SUB PUSH2 0x991 JUMPI PUSH1 0x40 MLOAD PUSH32 0x8C379A000000000000000000000000000000000000000000000000000000000 DUP2 MSTORE PUSH1 0x4 ADD PUSH2 0x988 SWAP1 PUSH2 0x400F JUMP JUMPDEST PUSH1 0x40 MLOAD DUP1 SWAP2 SUB SWAP1 REVERT JUMPDEST PUSH0 DUP5 DUP5 SWAP1 POP GT PUSH2 0x9D6 JUMPI PUSH1 0x40 MLOAD PUSH32 0x8C379A000000000000000000000000000000000000000000000000000000000 DUP2 MSTORE PUSH1 0x4 ADD PUSH2 0x9CD SWAP1 PUSH2 0x4472 JUMP JUMPDEST PUSH1 0x40 MLOAD DUP1 SWAP2 SUB SWAP1 REVERT JUMPDEST PUSH0 PUSH1 0x1 PUSH0 DUP8 DUP2 MSTORE PUSH1 0x20 ADD SWAP1 DUP2 MSTORE PUSH1 0x20 ADD PUSH0 KECCAK256 SWAP1 POP PUSH1 0x2 PUSH1 0x6 DUP2 GT ISZERO PUSH2 0x9FE JUMPI PUSH2 0x9FD PUSH2 0x38BE JUMP JUMPDEST JUMPDEST DUP2 PUSH1 0x5 ADD PUSH0 SWAP1 SLOAD SWAP1 PUSH2 0x100 EXP SWAP1 DIV PUSH1 0xFF AND PUSH1 0x6 DUP2 GT ISZERO PUSH2 0xA21 JUMPI PUSH2 0xA20 PUSH2 0x38BE JUMP JUMPDEST JUMPDEST EQ DUP1 PUSH2 0xA61 JUMPI POP PUSH1 0x1 PUSH1 0x6 DUP2 GT ISZERO PUSH2 0xA3C JUMPI PUSH2 0xA3B PUSH2 0x38BE JUMP JUMPDEST JUMPDEST DUP2 PUSH1 0x5 ADD PUSH0 SWAP1 SLOAD SWAP1 PUSH2 0x100 EXP SWAP1 DIV PUSH1 0xFF AND PUSH1 0x6 DUP2 GT ISZERO PUSH2 0xA5F JUMPI PUSH2 0xA5E PUSH2 0x38BE JUMP JUMPDEST JUMPDEST EQ JUMPDEST PUSH2 0xAA0 JUMPI PUSH1 0x40 MLOAD PUSH32 0x8C379A000000000000000000000000000000000000000000000000000000000 DUP2 MSTORE PUSH1 0x4 ADD PUSH2 0xA97 SWAP1 PUSH2 0x4500 JUMP JUMPDEST PUSH1 0x40 MLOAD DUP1 SWAP2 SUB SWAP1 REVERT JUMPDEST PUSH1 0x4 DUP2 PUSH1 0x5 ADD PUSH0 PUSH2 0x100 EXP DUP2 SLOAD DUP2 PUSH1 0xFF MUL NOT AND SWAP1 DUP4 PUSH1 0x6 DUP2 GT ISZERO PUSH2 0xAC7 JUMPI PUSH2 0xAC6 PUSH2 0x38BE JUMP JUMPDEST JUMPDEST MUL OR SWAP1 SSTORE POP CALLER DUP2 PUSH1 0x8 ADD PUSH0 PUSH2 0x100 EXP DUP2 SLOAD DUP2 PUSH20 0xFFFFFFFFFFFFFFFFFFFFFFFFFFFFFFFFFFFFFFFF MUL NOT AND SWAP1 DUP4 PUSH20 0xFFFFFFFFFFFFFFFFFFFFFFFFFFFFFFFFFFFFFFFF AND MUL OR SWAP1 SSTORE POP DUP5 DUP5 DUP3 PUSH1 0x6 ADD SWAP2 DUP3 PUSH2 0xB21 SWAP3 SWAP2 SWAP1 PUSH2 0x471C JUMP JUMPDEST POP TIMESTAMP DUP2 PUSH1 0xA ADD DUP2 SWAP1 SSTORE POP PUSH1 0x6 PUSH0 SWAP1 SLOAD SWAP1 PUSH2 0x100 EXP SWAP1 DIV PUSH20 0xFFFFFFFFFFFFFFFFFFFFFFFFFFFFFFFFFFFFFFFF AND PUSH20 0xFFFFFFFFFFFFFFFFFFFFFFFFFFFFFFFFFFFFFFFF AND PUSH4 0xDE7EB189 DUP8 CALLER PUSH1 0x3 DUP10 DUP10 PUSH1 0x40 MLOAD DUP7 PUSH4 0xFFFFFFFF AND PUSH1 0xE0 SHL DUP2 MSTORE PUSH1 0x4 ADD PUSH2 0xB8E SWAP6 SWAP5 SWAP4 SWAP3 SWAP2 SWAP1 PUSH2 0x4869 JUMP JUMPDEST PUSH0 PUSH1 0x40 MLOAD DUP1 DUP4 SUB DUP2 PUSH0 DUP8 DUP1 EXTCODESIZE ISZERO DUP1 ISZERO PUSH2 0xBA5 JUMPI PUSH0 PUSH0 REVERT JUMPDEST POP GAS CALL ISZERO DUP1 ISZERO PUSH2 0xBB7 JUMPI RETURNDATASIZE PUSH0 PUSH0 RETURNDATACOPY RETURNDATASIZE PUSH0 REVERT JUMPDEST POP POP POP POP CALLER PUSH20 0xFFFFFFFFFFFFFFFFFFFFFFFFFFFFFFFFFFFFFFFF AND DUP7 PUSH32 0xF97D4CBD11FCF5B3CA85A58819F7E8371314CDFEB98F4CCF741B37FEF987B0D4 DUP8 DUP8 TIMESTAMP PUSH1 0x40 MLOAD PUSH2 0xC06 SWAP4 SWAP3 SWAP2 SWAP1 PUSH2 0x48B5 JUMP JUMPDEST PUSH1 0x40 MLOAD DUP1 SWAP2 SUB SWAP1 LOG3 POP POP POP POP POP POP JUMP JUMPDEST PUSH0 PUSH0 PUSH32 0x1EFFBBFF9C66C5E59634F24FE842750C60D18891155C32DD155FC2D661A4C86D DUP2 MSTORE PUSH1 0x20 ADD SWAP1 DUP2 MSTORE PUSH1 0x20 ADD PUSH0 KECCAK256 PUSH0 CALLER PUSH20 0xFFFFFFFFFFFFFFFFFFFFFFFFFFFFFFFFFFFFFFFF AND PUSH20 0xFFFFFFFFFFFFFFFFFFFFFFFFFFFFFFFFFFFFFFFF AND DUP2 MSTORE PUSH1 0x20 ADD SWAP1 DUP2 MSTORE PUSH1 0x20 ADD PUSH0 KECCAK256 PUSH0 SWAP1 SLOAD SWAP1 PUSH2 0x100 EXP SWAP1 DIV PUSH1 0xFF AND PUSH2 0xCCD JUMPI PUSH1 0x40 MLOAD PUSH32 0x8C379A000000000000000000000000000000000000000000000000000000000 DUP2 MSTORE PUSH1 0x4 ADD PUSH2 0xCC4 SWAP1 PUSH2 0x492F JUMP JUMPDEST PUSH1 0x40 MLOAD DUP1 SWAP2 SUB SWAP1 REVERT JUMPDEST PUSH0 PUSH0 SWAP1 POP JUMPDEST DUP4 DUP4 SWAP1 POP DUP2 LT ISZERO PUSH2 0xE50 JUMPI PUSH0 PUSH0 DUP6 DUP6 DUP5 DUP2 DUP2 LT PUSH2 0xCF2 JUMPI PUSH2 0xCF1 PUSH2 0x494D JUMP JUMPDEST JUMPDEST SWAP1 POP PUSH1 0x20 MUL ADD CALLDATALOAD DUP2 MSTORE PUSH1 0x20 ADD SWAP1 DUP2 MSTORE PUSH1 0x20 ADD PUSH0 KECCAK256 PUSH0 DUP4 PUSH20 0xFFFFFFFFFFFFFFFFFFFFFFFFFFFFFFFFFFFFFFFF AND PUSH20 0xFFFFFFFFFFFFFFFFFFFFFFFFFFFFFFFFFFFFFFFF AND DUP2 MSTORE PUSH1 0x20 ADD SWAP1 DUP2 MSTORE PUSH1 0x20 ADD PUSH0 KECCAK256 PUSH0 SWAP1 SLOAD SWAP1 PUSH2 0x100 EXP SWAP1 DIV PUSH1 0xFF AND PUSH2 0xE43 JUMPI PUSH1 0x1 PUSH0 PUSH0 DUP7 DUP7 DUP6 DUP2 DUP2 LT PUSH2 0xD69 JUMPI PUSH2 0xD68 PUSH2 0x494D JUMP JUMPDEST JUMPDEST SWAP1 POP PUSH1 0x20 MUL ADD CALLDATALOAD DUP2 MSTORE PUSH1 0x20 ADD SWAP1 DUP2 MSTORE PUSH1 0x20 ADD PUSH0 KECCAK256 PUSH0 DUP5 PUSH20 0xFFFFFFFFFFFFFFFFFFFFFFFFFFFFFFFFFFFFFFFF AND PUSH20 0xFFFFFFFFFFFFFFFFFFFFFFFFFFFFFFFFFFFFFFFF AND DUP2 MSTORE PUSH1 0x20 ADD SWAP1 DUP2 MSTORE PUSH1 0x20 ADD PUSH0 KECCAK256 PUSH0 PUSH2 0x100 EXP DUP2 SLOAD DUP2 PUSH1 0xFF MUL NOT AND SWAP1 DUP4 ISZERO ISZERO MUL OR SWAP1 SSTORE POP CALLER PUSH20 0xFFFFFFFFFFFFFFFFFFFFFFFFFFFFFFFFFFFFFFFF AND DUP3 PUSH20 0xFFFFFFFFFFFFFFFFFFFFFFFFFFFFFFFFFFFFFFFF AND DUP6 DUP6 DUP5 DUP2 DUP2 LT PUSH2 0xE0F JUMPI PUSH2 0xE0E PUSH2 0x494D JUMP JUMPDEST JUMPDEST SWAP1 POP PUSH1 0x20 MUL ADD CALLDATALOAD PUSH32 0x2F8788117E7EFF1D82E926EC794901D17C78024A50270940304540A733656F0D PUSH1 0x40 MLOAD PUSH1 0x40 MLOAD DUP1 SWAP2 SUB SWAP1 LOG4 JUMPDEST DUP1 DUP1 PUSH1 0x1 ADD SWAP2 POP POP PUSH2 0xCD2 JUMP JUMPDEST POP POP POP POP JUMP JUMPDEST PUSH2 0xE5E PUSH2 0x348D JUMP JUMPDEST DUP2 PUSH0 PUSH1 0x6 DUP2 GT ISZERO PUSH2 0xE72 JUMPI PUSH2 0xE71 PUSH2 0x38BE JUMP JUMPDEST JUMPDEST PUSH1 0x1 PUSH0 DUP4 DUP2 MSTORE PUSH1 0x20 ADD SWAP1 DUP2 MSTORE PUSH1 0x20 ADD PUSH0 KECCAK256 PUSH1 0x5 ADD PUSH0 SWAP1 SLOAD SWAP1 PUSH2 0x100 EXP SWAP1 DIV PUSH1 0xFF AND PUSH1 0x6 DUP2 GT ISZERO PUSH2 0xEA5 JUMPI PUSH2 0xEA4 PUSH2 0x38BE JUMP JUMPDEST JUMPDEST SUB PUSH2 0xEE5 JUMPI PUSH1 0x40 MLOAD PUSH32 0x8C379A000000000000000000000000000000000000000000000000000000000 DUP2 MSTORE PUSH1 0x4 ADD PUSH2 0xEDC SWAP1 PUSH2 0x400F JUMP JUMPDEST PUSH1 0x40 MLOAD DUP1 SWAP2 SUB SWAP1 REVERT JUMPDEST PUSH1 0x1 PUSH0 DUP5 DUP2 MSTORE PUSH1 0x20 ADD SWAP1 DUP2 MSTORE PUSH1 0x20 ADD PUSH0 KECCAK256 PUSH1 0x40 MLOAD DUP1 PUSH2 0x180 ADD PUSH1 0x40 MSTORE SWAP1 DUP2 PUSH0 DUP3 ADD SLOAD DUP2 MSTORE PUSH1 0x20 ADD PUSH1 0x1 DUP3 ADD PUSH0 SWAP1 SLOAD SWAP1 PUSH2 0x100 EXP SWAP1 DIV PUSH20 0xFFFFFFFFFFFFFFFFFFFFFFFFFFFFFFFFFFFFFFFF AND PUSH20 0xFFFFFFFFFFFFFFFFFFFFFFFFFFFFFFFFFFFFFFFF AND PUSH20 0xFFFFFFFFFFFFFFFFFFFFFFFFFFFFFFFFFFFFFFFF AND DUP2 MSTORE PUSH1 0x20 ADD PUSH1 0x2 DUP3 ADD SLOAD DUP2 MSTORE PUSH1 0x20 ADD PUSH1 0x3 DUP3 ADD DUP1 SLOAD PUSH2 0xF7A SWAP1 PUSH2 0x4555 JUMP JUMPDEST DUP1 PUSH1 0x1F ADD PUSH1 0x20 DUP1 SWAP2 DIV MUL PUSH1 0x20 ADD PUSH1 0x40 MLOAD SWAP1 DUP2 ADD PUSH1 0x40 MSTORE DUP1 SWAP3 SWAP2 SWAP1 DUP2 DUP2 MSTORE PUSH1 0x20 ADD DUP3 DUP1 SLOAD PUSH2 0xFA6 SWAP1 PUSH2 0x4555 JUMP JUMPDEST DUP1 ISZERO PUSH2 0xFF1 JUMPI DUP1 PUSH1 0x1F LT PUSH2 0xFC8 JUMPI PUSH2 0x100 DUP1 DUP4 SLOAD DIV MUL DUP4 MSTORE SWAP2 PUSH1 0x20 ADD SWAP2 PUSH2 0xFF1 JUMP JUMPDEST DUP3 ADD SWAP2 SWAP1 PUSH0 MSTORE PUSH1 0x20 PUSH0 KECCAK256 SWAP1 JUMPDEST DUP2 SLOAD DUP2 MSTORE SWAP1 PUSH1 0x1 ADD SWAP1 PUSH1 0x20 ADD DUP1 DUP4 GT PUSH2 0xFD4 JUMPI DUP3 SWAP1 SUB PUSH1 0x1F AND DUP3 ADD SWAP2 JUMPDEST POP POP POP POP POP DUP2 MSTORE PUSH1 0x20 ADD PUSH1 0x4 DUP3 ADD SLOAD DUP2 MSTORE PUSH1 0x20 ADD PUSH1 0x5 DUP3 ADD PUSH0 SWAP1 SLOAD SWAP1 PUSH2 0x100 EXP SWAP1 DIV PUSH1 0xFF AND PUSH1 0x6 DUP2 GT ISZERO PUSH2 0x1028 JUMPI PUSH2 0x1027 PUSH2 0x38BE JUMP JUMPDEST JUMPDEST PUSH1 0x6 DUP2 GT ISZERO PUSH2 0x103A JUMPI PUSH2 0x1039 PUSH2 0x38BE JUMP JUMPDEST JUMPDEST DUP2 MSTORE PUSH1 0x20 ADD PUSH1 0x6 DUP3 ADD DUP1 SLOAD PUSH2 0x104E SWAP1 PUSH2 0x4555 JUMP JUMPDEST DUP1 PUSH1 0x1F ADD PUSH1 0x20 DUP1 SWAP2 DIV MUL PUSH1 0x20 ADD PUSH1 0x40 MLOAD SWAP1 DUP2 ADD PUSH1 0x40 MSTORE DUP1 SWAP3 SWAP2 SWAP1 DUP2 DUP2 MSTORE PUSH1 0x20 ADD DUP3 DUP1 SLOAD PUSH2 0x107A SWAP1 PUSH2 0x4555 JUMP JUMPDEST DUP1 ISZERO PUSH2 0x10C5 JUMPI DUP1 PUSH1 0x1F LT PUSH2 0x109C JUMPI PUSH2 0x100 DUP1 DUP4 SLOAD DIV MUL DUP4 MSTORE SWAP2 PUSH1 0x20 ADD SWAP2 PUSH2 0x10C5 JUMP JUMPDEST DUP3 ADD SWAP2 SWAP1 PUSH0 MSTORE PUSH1 0x20 PUSH0 KECCAK256 SWAP1 JUMPDEST DUP2 SLOAD DUP2 MSTORE SWAP1 PUSH1 0x1 ADD SWAP1 PUSH1 0x20 ADD DUP1 DUP4 GT PUSH2 0x10A8 JUMPI DUP3 SWAP1 SUB PUSH1 0x1F AND DUP3 ADD SWAP2 JUMPDEST POP POP POP POP POP DUP2 MSTORE PUSH1 0x20 ADD PUSH1 0x7 DUP3 ADD PUSH0 SWAP1 SLOAD SWAP1 PUSH2 0x100 EXP SWAP1 DIV PUSH20 0xFFFFFFFFFFFFFFFFFFFFFFFFFFFFFFFFFFFFFFFF AND PUSH20 0xFFFFFFFFFFFFFFFFFFFFFFFFFFFFFFFFFFFFFFFF AND PUSH20 0xFFFFFFFFFFFFFFFFFFFFFFFFFFFFFFFFFFFFFFFF AND DUP2 MSTORE PUSH1 0x20 ADD PUSH1 0x8 DUP3 ADD PUSH0 SWAP1 SLOAD SWAP1 PUSH2 0x100 EXP SWAP1 DIV PUSH20 0xFFFFFFFFFFFFFFFFFFFFFFFFFFFFFFFFFFFFFFFF AND PUSH20 0xFFFFFFFFFFFFFFFFFFFFFFFFFFFFFFFFFFFFFFFF AND PUSH20 0xFFFFFFFFFFFFFFFFFFFFFFFFFFFFFFFFFFFFFFFF AND DUP2 MSTORE PUSH1 0x20 ADD PUSH1 0x9 DUP3 ADD SLOAD DUP2 MSTORE PUSH1 0x20 ADD PUSH1 0xA DUP3 ADD SLOAD DUP2 MSTORE PUSH1 0x20 ADD PUSH1 0xB DUP3 ADD SLOAD DUP2 MSTORE POP POP SWAP2 POP POP SWAP2 SWAP1 POP JUMP JUMPDEST PUSH32 0x408A36151F841709116A4E8ACA4E0202874F7F54687DCB863B1EA4672DC9D8CF PUSH0 PUSH0 DUP3 DUP2 MSTORE PUSH1 0x20 ADD SWAP1 DUP2 MSTORE PUSH1 0x20 ADD PUSH0 KECCAK256 PUSH0 CALLER PUSH20 0xFFFFFFFFFFFFFFFFFFFFFFFFFFFFFFFFFFFFFFFF AND PUSH20 0xFFFFFFFFFFFFFFFFFFFFFFFFFFFFFFFFFFFFFFFF AND DUP2 MSTORE PUSH1 0x20 ADD SWAP1 DUP2 MSTORE PUSH1 0x20 ADD PUSH0 KECCAK256 PUSH0 SWAP1 SLOAD SWAP1 PUSH2 0x100 EXP SWAP1 DIV PUSH1 0xFF AND PUSH2 0x1256 JUMPI PUSH1 0x40 MLOAD PUSH32 0x8C379A000000000000000000000000000000000000000000000000000000000 DUP2 MSTORE PUSH1 0x4 ADD PUSH2 0x124D SWAP1 PUSH2 0x43E4 JUMP JUMPDEST PUSH1 0x40 MLOAD DUP1 SWAP2 SUB SWAP1 REVERT JUMPDEST DUP2 PUSH0 PUSH1 0x6 DUP2 GT ISZERO PUSH2 0x126A JUMPI PUSH2 0x1269 PUSH2 0x38BE JUMP JUMPDEST JUMPDEST PUSH1 0x1 PUSH0 DUP4 DUP2 MSTORE PUSH1 0x20 ADD SWAP1 DUP2 MSTORE PUSH1 0x20 ADD PUSH0 KECCAK256 PUSH1 0x5 ADD PUSH0 SWAP1 SLOAD SWAP1 PUSH2 0x100 EXP SWAP1 DIV PUSH1 0xFF AND PUSH1 0x6 DUP2 GT ISZERO PUSH2 0x129D JUMPI PUSH2 0x129C PUSH2 0x38BE JUMP JUMPDEST JUMPDEST SUB PUSH2 0x12DD JUMPI PUSH1 0x40 MLOAD PUSH32 0x8C379A000000000000000000000000000000000000000000000000000000000 DUP2 MSTORE PUSH1 0x4 ADD PUSH2 0x12D4 SWAP1 PUSH2 0x400F JUMP JUMPDEST PUSH1 0x40 MLOAD DUP1 SWAP2 SUB SWAP1 REVERT JUMPDEST PUSH0 PUSH1 0x1 PUSH0 DUP6 DUP2 MSTORE PUSH1 0x20 ADD SWAP1 DUP2 MSTORE PUSH1 0x20 ADD PUSH0 KECCAK256 SWAP1 POP PUSH1 0x2 PUSH1 0x6 DUP2 GT ISZERO PUSH2 0x1305 JUMPI PUSH2 0x1304 PUSH2 0x38BE JUMP JUMPDEST JUMPDEST DUP2 PUSH1 0x5 ADD PUSH0 SWAP1 SLOAD SWAP1 PUSH2 0x100 EXP SWAP1 DIV PUSH1 0xFF AND PUSH1 0x6 DUP2 GT ISZERO PUSH2 0x1328 JUMPI PUSH2 0x1327 PUSH2 0x38BE JUMP JUMPDEST JUMPDEST EQ DUP1 PUSH2 0x1368 JUMPI POP PUSH1 0x1 PUSH1 0x6 DUP2 GT ISZERO PUSH2 0x1343 JUMPI PUSH2 0x1342 PUSH2 0x38BE JUMP JUMPDEST JUMPDEST DUP2 PUSH1 0x5 ADD PUSH0 SWAP1 SLOAD SWAP1 PUSH2 0x100 EXP SWAP1 DIV PUSH1 0xFF AND PUSH1 0x6 DUP2 GT ISZERO PUSH2 0x1366 JUMPI PUSH2 0x1365 PUSH2 0x38BE JUMP JUMPDEST JUMPDEST EQ JUMPDEST PUSH2 0x13A7 JUMPI PUSH1 0x40 MLOAD PUSH32 0x8C379A000000000000000000000000000000000000000000000000000000000 DUP2 MSTORE PUSH1 0x4 ADD PUSH2 0x139E SWAP1 PUSH2 0x49EA JUMP JUMPDEST PUSH1 0x40 MLOAD DUP1 SWAP2 SUB SWAP1 REVERT JUMPDEST PUSH1 0x3 DUP2 PUSH1 0x5 ADD PUSH0 PUSH2 0x100 EXP DUP2 SLOAD DUP2 PUSH1 0xFF MUL NOT AND SWAP1 DUP4 PUSH1 0x6 DUP2 GT ISZERO PUSH2 0x13CE JUMPI PUSH2 0x13CD PUSH2 0x38BE JUMP JUMPDEST JUMPDEST MUL OR SWAP1 SSTORE POP CALLER DUP2 PUSH1 0x8 ADD PUSH0 PUSH2 0x100 EXP DUP2 SLOAD DUP2 PUSH20 0xFFFFFFFFFFFFFFFFFFFFFFFFFFFFFFFFFFFFFFFF MUL NOT AND SWAP1 DUP4 PUSH20 0xFFFFFFFFFFFFFFFFFFFFFFFFFFFFFFFFFFFFFFFF AND MUL OR SWAP1 SSTORE POP TIMESTAMP DUP2 PUSH1 0xA ADD DUP2 SWAP1 SSTORE POP PUSH1 0x6 PUSH0 SWAP1 SLOAD SWAP1 PUSH2 0x100 EXP SWAP1 DIV PUSH20 0xFFFFFFFFFFFFFFFFFFFFFFFFFFFFFFFFFFFFFFFF AND PUSH20 0xFFFFFFFFFFFFFFFFFFFFFFFFFFFFFFFFFFFFFFFF AND PUSH4 0xDE7EB189 DUP6 CALLER PUSH1 0x2 PUSH1 0x40 MLOAD DUP5 PUSH4 0xFFFFFFFF AND PUSH1 0xE0 SHL DUP2 MSTORE PUSH1 0x4 ADD PUSH2 0x147D SWAP4 SWAP3 SWAP2 SWAP1 PUSH2 0x4A78 JUMP JUMPDEST PUSH0 PUSH1 0x40 MLOAD DUP1 DUP4 SUB DUP2 PUSH0 DUP8 DUP1 EXTCODESIZE ISZERO DUP1 ISZERO PUSH2 0x1494 JUMPI PUSH0 PUSH0 REVERT JUMPDEST POP GAS CALL ISZERO DUP1 ISZERO PUSH2 0x14A6 JUMPI RETURNDATASIZE PUSH0 PUSH0 RETURNDATACOPY RETURNDATASIZE PUSH0 REVERT JUMPDEST POP POP POP POP CALLER PUSH20 0xFFFFFFFFFFFFFFFFFFFFFFFFFFFFFFFFFFFFFFFF AND DUP5 PUSH32 0xFEEB8E84E6040297A7855615C0620632BD3FACC1F5BEC7D7A4CCC4F2ADA32381 TIMESTAMP PUSH1 0x40 MLOAD PUSH2 0x14F1 SWAP2 SWAP1 PUSH2 0x3623 JUMP JUMPDEST PUSH1 0x40 MLOAD DUP1 SWAP2 SUB SWAP1 LOG3 PUSH2 0x1502 DUP5 PUSH2 0x2FF5 JUMP JUMPDEST POP POP POP POP JUMP JUMPDEST PUSH1 0x8 PUSH0 SWAP1 SLOAD SWAP1 PUSH2 0x100 EXP SWAP1 DIV PUSH20 0xFFFFFFFFFFFFFFFFFFFFFFFFFFFFFFFFFFFFFFFF AND DUP2 JUMP JUMPDEST PUSH1 0x2 PUSH1 0x20 MSTORE DUP1 PUSH0 MSTORE PUSH1 0x40 PUSH0 KECCAK256 PUSH0 SWAP2 POP SLOAD SWAP1 PUSH2 0x100 EXP SWAP1 DIV PUSH1 0xFF AND DUP2 JUMP JUMPDEST PUSH0 PUSH0 PUSH32 0x1EFFBBFF9C66C5E59634F24FE842750C60D18891155C32DD155FC2D661A4C86D DUP2 MSTORE PUSH1 0x20 ADD SWAP1 DUP2 MSTORE PUSH1 0x20 ADD PUSH0 KECCAK256 PUSH0 CALLER PUSH20 0xFFFFFFFFFFFFFFFFFFFFFFFFFFFFFFFFFFFFFFFF AND PUSH20 0xFFFFFFFFFFFFFFFFFFFFFFFFFFFFFFFFFFFFFFFF AND DUP2 MSTORE PUSH1 0x20 ADD SWAP1 DUP2 MSTORE PUSH1 0x20 ADD PUSH0 KECCAK256 PUSH0 SWAP1 SLOAD SWAP1 PUSH2 0x100 EXP SWAP1 DIV PUSH1 0xFF AND PUSH2 0x1601 JUMPI PUSH1 0x40 MLOAD PUSH32 0x8C379A000000000000000000000000000000000000000000000000000000000 DUP2 MSTORE PUSH1 0x4 ADD PUSH2 0x15F8 SWAP1 PUSH2 0x492F JUMP JUMPDEST PUSH1 0x40 MLOAD DUP1 SWAP2 SUB SWAP1 REVERT JUMPDEST PUSH0 PUSH20 0xFFFFFFFFFFFFFFFFFFFFFFFFFFFFFFFFFFFFFFFF AND DUP2 PUSH20 0xFFFFFFFFFFFFFFFFFFFFFFFFFFFFFFFFFFFFFFFF AND SUB PUSH2 0x166F JUMPI PUSH1 0x40 MLOAD PUSH32 0x8C379A000000000000000000000000000000000000000000000000000000000 DUP2 MSTORE PUSH1 0x4 ADD PUSH2 0x1666 SWAP1 PUSH2 0x4B30 JUMP JUMPDEST PUSH1 0x40 MLOAD DUP1 SWAP2 SUB SWAP1 REVERT JUMPDEST PUSH0 PUSH0 DUP4 DUP2 MSTORE PUSH1 0x20 ADD SWAP1 DUP2 MSTORE PUSH1 0x20 ADD PUSH0 KECCAK256 PUSH0 DUP3 PUSH20 0xFFFFFFFFFFFFFFFFFFFFFFFFFFFFFFFFFFFFFFFF AND PUSH20 0xFFFFFFFFFFFFFFFFFFFFFFFFFFFFFFFFFFFFFFFF AND DUP2 MSTORE PUSH1 0x20 ADD SWAP1 DUP2 MSTORE PUSH1 0x20 ADD PUSH0 KECCAK256 PUSH0 SWAP1 SLOAD SWAP1 PUSH2 0x100 EXP SWAP1 DIV PUSH1 0xFF AND ISZERO PUSH2 0x1707 JUMPI PUSH1 0x40 MLOAD PUSH32 0x8C379A000000000000000000000000000000000000000000000000000000000 DUP2 MSTORE PUSH1 0x4 ADD PUSH2 0x16FE SWAP1 PUSH2 0x4BBE JUMP JUMPDEST PUSH1 0x40 MLOAD DUP1 SWAP2 SUB SWAP1 REVERT JUMPDEST PUSH1 0x1 PUSH0 PUSH0 DUP5 DUP2 MSTORE PUSH1 0x20 ADD SWAP1 DUP2 MSTORE PUSH1 0x20 ADD PUSH0 KECCAK256 PUSH0 DUP4 PUSH20 0xFFFFFFFFFFFFFFFFFFFFFFFFFFFFFFFFFFFFFFFF AND PUSH20 0xFFFFFFFFFFFFFFFFFFFFFFFFFFFFFFFFFFFFFFFF AND DUP2 MSTORE PUSH1 0x20 ADD SWAP1 DUP2 MSTORE PUSH1 0x20 ADD PUSH0 KECCAK256 PUSH0 PUSH2 0x100 EXP DUP2 SLOAD DUP2 PUSH1 0xFF MUL NOT AND SWAP1 DUP4 ISZERO ISZERO MUL OR SWAP1 SSTORE POP CALLER PUSH20 0xFFFFFFFFFFFFFFFFFFFFFFFFFFFFFFFFFFFFFFFF AND DUP2 PUSH20 0xFFFFFFFFFFFFFFFFFFFFFFFFFFFFFFFFFFFFFFFF AND DUP4 PUSH32 0x2F8788117E7EFF1D82E926EC794901D17C78024A50270940304540A733656F0D PUSH1 0x40 MLOAD PUSH1 0x40 MLOAD DUP1 SWAP2 SUB SWAP1 LOG4 POP POP JUMP JUMPDEST PUSH0 PUSH0 PUSH32 0x1EFFBBFF9C66C5E59634F24FE842750C60D18891155C32DD155FC2D661A4C86D DUP2 MSTORE PUSH1 0x20 ADD SWAP1 DUP2 MSTORE PUSH1 0x20 ADD PUSH0 KECCAK256 PUSH0 CALLER PUSH20 0xFFFFFFFFFFFFFFFFFFFFFFFFFFFFFFFFFFFFFFFF AND PUSH20 0xFFFFFFFFFFFFFFFFFFFFFFFFFFFFFFFFFFFFFFFF AND DUP2 MSTORE PUSH1 0x20 ADD SWAP1 DUP2 MSTORE PUSH1 0x20 ADD PUSH0 KECCAK256 PUSH0 SWAP1 SLOAD SWAP1 PUSH2 0x100 EXP SWAP1 DIV PUSH1 0xFF AND PUSH2 0x1880 JUMPI PUSH1 0x40 MLOAD PUSH32 0x8C379A000000000000000000000000000000000000000000000000000000000 DUP2 MSTORE PUSH1 0x4 ADD PUSH2 0x1877 SWAP1 PUSH2 0x492F JUMP JUMPDEST PUSH1 0x40 MLOAD DUP1 SWAP2 SUB SWAP1 REVERT JUMPDEST DUP2 PUSH0 PUSH1 0x6 DUP2 GT ISZERO PUSH2 0x1894 JUMPI PUSH2 0x1893 PUSH2 0x38BE JUMP JUMPDEST JUMPDEST PUSH1 0x1 PUSH0 DUP4 DUP2 MSTORE PUSH1 0x20 ADD SWAP1 DUP2 MSTORE PUSH1 0x20 ADD PUSH0 KECCAK256 PUSH1 0x5 ADD PUSH0 SWAP1 SLOAD SWAP1 PUSH2 0x100 EXP SWAP1 DIV PUSH1 0xFF AND PUSH1 0x6 DUP2 GT ISZERO PUSH2 0x18C7 JUMPI PUSH2 0x18C6 PUSH2 0x38BE JUMP JUMPDEST JUMPDEST SUB PUSH2 0x1907 JUMPI PUSH1 0x40 MLOAD PUSH32 0x8C379A000000000000000000000000000000000000000000000000000000000 DUP2 MSTORE PUSH1 0x4 ADD PUSH2 0x18FE SWAP1 PUSH2 0x400F JUMP JUMPDEST PUSH1 0x40 MLOAD DUP1 SWAP2 SUB SWAP1 REVERT JUMPDEST PUSH0 PUSH1 0x1 PUSH0 DUP6 DUP2 MSTORE PUSH1 0x20 ADD SWAP1 DUP2 MSTORE PUSH1 0x20 ADD PUSH0 KECCAK256 SWAP1 POP PUSH1 0x6 DUP1 DUP2 GT ISZERO PUSH2 0x192E JUMPI PUSH2 0x192D PUSH2 0x38BE JUMP JUMPDEST JUMPDEST DUP2 PUSH1 0x5 ADD PUSH0 SWAP1 SLOAD SWAP1 PUSH2 0x100 EXP SWAP1 DIV PUSH1 0xFF AND PUSH1 0x6 DUP2 GT ISZERO PUSH2 0x1951 JUMPI PUSH2 0x1950 PUSH2 0x38BE JUMP JUMPDEST JUMPDEST EQ PUSH2 0x1991 JUMPI PUSH1 0x40 MLOAD PUSH32 0x8C379A000000000000000000000000000000000000000000000000000000000 DUP2 MSTORE PUSH1 0x4 ADD PUSH2 0x1988 SWAP1 PUSH2 0x4C4C JUMP JUMPDEST PUSH1 0x40 MLOAD DUP1 SWAP2 SUB SWAP1 REVERT JUMPDEST DUP3 ISZERO PUSH2 0x19C4 JUMPI PUSH1 0x1 DUP2 PUSH1 0x5 ADD PUSH0 PUSH2 0x100 EXP DUP2 SLOAD DUP2 PUSH1 0xFF MUL NOT AND SWAP1 DUP4 PUSH1 0x6 DUP2 GT ISZERO PUSH2 0x19BE JUMPI PUSH2 0x19BD PUSH2 0x38BE JUMP JUMPDEST JUMPDEST MUL OR SWAP1 SSTORE POP JUMPDEST PUSH0 DUP4 PUSH2 0x19E8 JUMPI PUSH1 0x40 MLOAD DUP1 PUSH1 0x60 ADD PUSH1 0x40 MSTORE DUP1 PUSH1 0x38 DUP2 MSTORE PUSH1 0x20 ADD PUSH2 0x58FC PUSH1 0x38 SWAP2 CODECOPY PUSH2 0x1A02 JUMP JUMPDEST PUSH1 0x40 MLOAD DUP1 PUSH1 0x60 ADD PUSH1 0x40 MSTORE DUP1 PUSH1 0x38 DUP2 MSTORE PUSH1 0x20 ADD PUSH2 0x58C4 PUSH1 0x38 SWAP2 CODECOPY JUMPDEST SWAP1 POP PUSH1 0x6 PUSH0 SWAP1 SLOAD SWAP1 PUSH2 0x100 EXP SWAP1 DIV PUSH20 0xFFFFFFFFFFFFFFFFFFFFFFFFFFFFFFFFFFFFFFFF AND PUSH20 0xFFFFFFFFFFFFFFFFFFFFFFFFFFFFFFFFFFFFFFFF AND PUSH4 0xDE7EB189 DUP7 CALLER PUSH1 0x6 DUP6 PUSH1 0x40 MLOAD DUP6 PUSH4 0xFFFFFFFF AND PUSH1 0xE0 SHL DUP2 MSTORE PUSH1 0x4 ADD PUSH2 0x1A65 SWAP5 SWAP4 SWAP3 SWAP2 SWAP1 PUSH2 0x4C6A JUMP JUMPDEST PUSH0 PUSH1 0x40 MLOAD DUP1 DUP4 SUB DUP2 PUSH0 DUP8 DUP1 EXTCODESIZE ISZERO DUP1 ISZERO PUSH2 0x1A7C JUMPI PUSH0 PUSH0 REVERT JUMPDEST POP GAS CALL ISZERO DUP1 ISZERO PUSH2 0x1A8E JUMPI RETURNDATASIZE PUSH0 PUSH0 RETURNDATACOPY RETURNDATASIZE PUSH0 REVERT JUMPDEST POP POP POP POP POP POP POP POP POP JUMP JUMPDEST PUSH32 0xC10C77BE35AFF266144ED64C26A1FA104BAE2F284AE99AC4A34203454704A185 DUP2 JUMP JUMPDEST PUSH32 0x408A36151F841709116A4E8ACA4E0202874F7F54687DCB863B1EA4672DC9D8CF DUP2 JUMP JUMPDEST PUSH32 0xC2979137D1774E40FE2638D355BF7A7B092BE4C67F242AAD1655E1E27F9DF9CC DUP2 JUMP JUMPDEST PUSH1 0x6 PUSH0 SWAP1 SLOAD SWAP1 PUSH2 0x100 EXP SWAP1 DIV PUSH20 0xFFFFFFFFFFFFFFFFFFFFFFFFFFFFFFFFFFFFFFFF AND DUP2 JUMP JUMPDEST PUSH1 0x7 PUSH0 SWAP1 SLOAD SWAP1 PUSH2 0x100 EXP SWAP1 DIV PUSH20 0xFFFFFFFFFFFFFFFFFFFFFFFFFFFFFFFFFFFFFFFF AND DUP2 JUMP JUMPDEST PUSH1 0x9 PUSH0 SWAP1 SLOAD SWAP1 PUSH2 0x100 EXP SWAP1 DIV PUSH20 0xFFFFFFFFFFFFFFFFFFFFFFFFFFFFFFFFFFFFFFFF AND DUP2 JUMP JUMPDEST PUSH32 0x59A1C48E5837AD7A7F3DCEDCBE129BF3249EC4FBF651FD4F5E2600EAD39FE2F5 DUP2 JUMP JUMPDEST PUSH32 0xC10C77BE35AFF266144ED64C26A1FA104BAE2F284AE99AC4A34203454704A185 PUSH0 PUSH0 DUP3 DUP2 MSTORE PUSH1 0x20 ADD SWAP1 DUP2 MSTORE PUSH1 0x20 ADD PUSH0 KECCAK256 PUSH0 CALLER PUSH20 0xFFFFFFFFFFFFFFFFFFFFFFFFFFFFFFFFFFFFFFFF AND PUSH20 0xFFFFFFFFFFFFFFFFFFFFFFFFFFFFFFFFFFFFFFFF AND DUP2 MSTORE PUSH1 0x20 ADD SWAP1 DUP2 MSTORE PUSH1 0x20 ADD PUSH0 KECCAK256 PUSH0 SWAP1 SLOAD SWAP1 PUSH2 0x100 EXP SWAP1 DIV PUSH1 0xFF AND PUSH2 0x1C50 JUMPI PUSH1 0x40 MLOAD PUSH32 0x8C379A000000000000000000000000000000000000000000000000000000000 DUP2 MSTORE PUSH1 0x4 ADD PUSH2 0x1C47 SWAP1 PUSH2 0x43E4 JUMP JUMPDEST PUSH1 0x40 MLOAD DUP1 SWAP2 SUB SWAP1 REVERT JUMPDEST DUP2 PUSH0 PUSH1 0x6 DUP2 GT ISZERO PUSH2 0x1C64 JUMPI PUSH2 0x1C63 PUSH2 0x38BE JUMP JUMPDEST JUMPDEST PUSH1 0x1 PUSH0 DUP4 DUP2 MSTORE PUSH1 0x20 ADD SWAP1 DUP2 MSTORE PUSH1 0x20 ADD PUSH0 KECCAK256 PUSH1 0x5 ADD PUSH0 SWAP1 SLOAD SWAP1 PUSH2 0x100 EXP SWAP1 DIV PUSH1 0xFF AND PUSH1 0x6 DUP2 GT ISZERO PUSH2 0x1C97 JUMPI PUSH2 0x1C96 PUSH2 0x38BE JUMP JUMPDEST JUMPDEST SUB PUSH2 0x1CD7 JUMPI PUSH1 0x40 MLOAD PUSH32 0x8C379A000000000000000000000000000000000000000000000000000000000 DUP2 MSTORE PUSH1 0x4 ADD PUSH2 0x1CCE SWAP1 PUSH2 0x400F JUMP JUMPDEST PUSH1 0x40 MLOAD DUP1 SWAP2 SUB SWAP1 REVERT JUMPDEST PUSH0 PUSH1 0x1 PUSH0 DUP6 DUP2 MSTORE PUSH1 0x20 ADD SWAP1 DUP2 MSTORE PUSH1 0x20 ADD PUSH0 KECCAK256 SWAP1 POP PUSH1 0x1 PUSH1 0x6 DUP2 GT ISZERO PUSH2 0x1CFF JUMPI PUSH2 0x1CFE PUSH2 0x38BE JUMP JUMPDEST JUMPDEST DUP2 PUSH1 0x5 ADD PUSH0 SWAP1 SLOAD SWAP1 PUSH2 0x100 EXP SWAP1 DIV PUSH1 0xFF AND PUSH1 0x6 DUP2 GT ISZERO PUSH2 0x1D22 JUMPI PUSH2 0x1D21 PUSH2 0x38BE JUMP JUMPDEST JUMPDEST EQ PUSH2 0x1D62 JUMPI PUSH1 0x40 MLOAD PUSH32 0x8C379A000000000000000000000000000000000000000000000000000000000 DUP2 MSTORE PUSH1 0x4 ADD PUSH2 0x1D59 SWAP1 PUSH2 0x4D24 JUMP JUMPDEST PUSH1 0x40 MLOAD DUP1 SWAP2 SUB SWAP1 REVERT JUMPDEST PUSH1 0x2 DUP2 PUSH1 0x5 ADD PUSH0 PUSH2 0x100 EXP DUP2 SLOAD DUP2 PUSH1 0xFF MUL NOT AND SWAP1 DUP4 PUSH1 0x6 DUP2 GT ISZERO PUSH2 0x1D89 JUMPI PUSH2 0x1D88 PUSH2 0x38BE JUMP JUMPDEST JUMPDEST MUL OR SWAP1 SSTORE POP CALLER DUP2 PUSH1 0x7 ADD PUSH0 PUSH2 0x100 EXP DUP2 SLOAD DUP2 PUSH20 0xFFFFFFFFFFFFFFFFFFFFFFFFFFFFFFFFFFFFFFFF MUL NOT AND SWAP1 DUP4 PUSH20 0xFFFFFFFFFFFFFFFFFFFFFFFFFFFFFFFFFFFFFFFF AND MUL OR SWAP1 SSTORE POP PUSH1 0x6 PUSH0 SWAP1 SLOAD SWAP1 PUSH2 0x100 EXP SWAP1 DIV PUSH20 0xFFFFFFFFFFFFFFFFFFFFFFFFFFFFFFFFFFFFFFFF AND PUSH20 0xFFFFFFFFFFFFFFFFFFFFFFFFFFFFFFFFFFFFFFFF AND PUSH4 0xDE7EB189 DUP6 CALLER PUSH1 0x1 PUSH1 0x40 MLOAD DUP5 PUSH4 0xFFFFFFFF AND PUSH1 0xE0 SHL DUP2 MSTORE PUSH1 0x4 ADD PUSH2 0x1E2F SWAP4 SWAP3 SWAP2 SWAP1 PUSH2 0x4DB2 JUMP JUMPDEST PUSH0 PUSH1 0x40 MLOAD DUP1 DUP4 SUB DUP2 PUSH0 DUP8 DUP1 EXTCODESIZE ISZERO DUP1 ISZERO PUSH2 0x1E46 JUMPI PUSH0 PUSH0 REVERT JUMPDEST POP GAS CALL ISZERO DUP1 ISZERO PUSH2 0x1E58 JUMPI RETURNDATASIZE PUSH0 PUSH0 RETURNDATACOPY RETURNDATASIZE PUSH0 REVERT JUMPDEST POP POP POP POP CALLER PUSH20 0xFFFFFFFFFFFFFFFFFFFFFFFFFFFFFFFFFFFFFFFF AND DUP5 PUSH32 0x4ED30A0CDF14CDFEC3EF2792EA0B60AEC00284DD4B4C5F574B0EC867F8CD090 TIMESTAMP PUSH1 0x40 MLOAD PUSH2 0x1EA3 SWAP2 SWAP1 PUSH2 0x3623 JUMP JUMPDEST PUSH1 0x40 MLOAD DUP1 SWAP2 SUB SWAP1 LOG3 POP POP POP POP JUMP JUMPDEST PUSH32 0x566C814873EED56A69B28C40AB27CC2CB150D74068BAE3E884CCD44F8DE60F8A DUP2 JUMP JUMPDEST PUSH0 PUSH1 0x2 PUSH0 DUP4 DUP2 MSTORE PUSH1 0x20 ADD SWAP1 DUP2 MSTORE PUSH1 0x20 ADD PUSH0 KECCAK256 PUSH0 SWAP1 SLOAD SWAP1 PUSH2 0x100 EXP SWAP1 DIV PUSH1 0xFF AND SWAP1 POP SWAP2 SWAP1 POP JUMP JUMPDEST PUSH0 PUSH0 DUP3 DUP2 MSTORE PUSH1 0x20 ADD SWAP1 DUP2 MSTORE PUSH1 0x20 ADD PUSH0 KECCAK256 PUSH0 CALLER PUSH20 0xFFFFFFFFFFFFFFFFFFFFFFFFFFFFFFFFFFFFFFFF AND PUSH20 0xFFFFFFFFFFFFFFFFFFFFFFFFFFFFFFFFFFFFFFFF AND DUP2 MSTORE PUSH1 0x20 ADD SWAP1 DUP2 MSTORE PUSH1 0x20 ADD PUSH0 KECCAK256 PUSH0 SWAP1 SLOAD SWAP1 PUSH2 0x100 EXP SWAP1 DIV PUSH1 0xFF AND PUSH2 0x1F92 JUMPI PUSH1 0x40 MLOAD PUSH32 0x8C379A000000000000000000000000000000000000000000000000000000000 DUP2 MSTORE PUSH1 0x4 ADD PUSH2 0x1F89 SWAP1 PUSH2 0x4E6A JUMP JUMPDEST PUSH1 0x40 MLOAD DUP1 SWAP2 SUB SWAP1 REVERT JUMPDEST PUSH0 PUSH0 PUSH0 DUP4 DUP2 MSTORE PUSH1 0x20 ADD SWAP1 DUP2 MSTORE PUSH1 0x20 ADD PUSH0 KECCAK256 PUSH0 CALLER PUSH20 0xFFFFFFFFFFFFFFFFFFFFFFFFFFFFFFFFFFFFFFFF AND PUSH20 0xFFFFFFFFFFFFFFFFFFFFFFFFFFFFFFFFFFFFFFFF AND DUP2 MSTORE PUSH1 0x20 ADD SWAP1 DUP2 MSTORE PUSH1 0x20 ADD PUSH0 KECCAK256 PUSH0 PUSH2 0x100 EXP DUP2 SLOAD DUP2 PUSH1 0xFF MUL NOT AND SWAP1 DUP4 ISZERO ISZERO MUL OR SWAP1 SSTORE POP CALLER PUSH20 0xFFFFFFFFFFFFFFFFFFFFFFFFFFFFFFFFFFFFFFFF AND CALLER PUSH20 0xFFFFFFFFFFFFFFFFFFFFFFFFFFFFFFFFFFFFFFFF AND DUP3 PUSH32 0xF6391F5C32D9C69D2A47EA670B442974B53935D1EDC7FD64EB21E047A839171B PUSH1 0x40 MLOAD PUSH1 0x40 MLOAD DUP1 SWAP2 SUB SWAP1 LOG4 POP JUMP JUMPDEST PUSH0 PUSH0 PUSH0 DUP5 DUP2 MSTORE PUSH1 0x20 ADD SWAP1 DUP2 MSTORE PUSH1 0x20 ADD PUSH0 KECCAK256 PUSH0 DUP4 PUSH20 0xFFFFFFFFFFFFFFFFFFFFFFFFFFFFFFFFFFFFFFFF AND PUSH20 0xFFFFFFFFFFFFFFFFFFFFFFFFFFFFFFFFFFFFFFFF AND DUP2 MSTORE PUSH1 0x20 ADD SWAP1 DUP2 MSTORE PUSH1 0x20 ADD PUSH0 KECCAK256 PUSH0 SWAP1 SLOAD SWAP1 PUSH2 0x100 EXP SWAP1 DIV PUSH1 0xFF AND SWAP1 POP SWAP3 SWAP2 POP POP JUMP JUMPDEST PUSH32 0x1EFFBBFF9C66C5E59634F24FE842750C60D18891155C32DD155FC2D661A4C86D DUP2 JUMP JUMPDEST DUP1 PUSH0 PUSH1 0x6 DUP2 GT ISZERO PUSH2 0x20EB JUMPI PUSH2 0x20EA PUSH2 0x38BE JUMP JUMPDEST JUMPDEST PUSH1 0x1 PUSH0 DUP4 DUP2 MSTORE PUSH1 0x20 ADD SWAP1 DUP2 MSTORE PUSH1 0x20 ADD PUSH0 KECCAK256 PUSH1 0x5 ADD PUSH0 SWAP1 SLOAD SWAP1 PUSH2 0x100 EXP SWAP1 DIV PUSH1 0xFF AND PUSH1 0x6 DUP2 GT ISZERO PUSH2 0x211E JUMPI PUSH2 0x211D PUSH2 0x38BE JUMP JUMPDEST JUMPDEST SUB PUSH2 0x215E JUMPI PUSH1 0x40 MLOAD PUSH32 0x8C379A000000000000000000000000000000000000000000000000000000000 DUP2 MSTORE PUSH1 0x4 ADD PUSH2 0x2155 SWAP1 PUSH2 0x400F JUMP JUMPDEST PUSH1 0x40 MLOAD DUP1 SWAP2 SUB SWAP1 REVERT JUMPDEST PUSH0 PUSH1 0x1 PUSH0 DUP5 DUP2 MSTORE PUSH1 0x20 ADD SWAP1 DUP2 MSTORE PUSH1 0x20 ADD PUSH0 KECCAK256 SWAP1 POP CALLER PUSH20 0xFFFFFFFFFFFFFFFFFFFFFFFFFFFFFFFFFFFFFFFF AND DUP2 PUSH1 0x1 ADD PUSH0 SWAP1 SLOAD SWAP1 PUSH2 0x100 EXP SWAP1 DIV PUSH20 0xFFFFFFFFFFFFFFFFFFFFFFFFFFFFFFFFFFFFFFFF AND PUSH20 0xFFFFFFFFFFFFFFFFFFFFFFFFFFFFFFFFFFFFFFFF AND EQ PUSH2 0x2203 JUMPI PUSH1 0x40 MLOAD PUSH32 0x8C379A000000000000000000000000000000000000000000000000000000000 DUP2 MSTORE PUSH1 0x4 ADD PUSH2 0x21FA SWAP1 PUSH2 0x4EF8 JUMP JUMPDEST PUSH1 0x40 MLOAD DUP1 SWAP2 SUB SWAP1 REVERT JUMPDEST PUSH1 0x4 PUSH1 0x6 DUP2 GT ISZERO PUSH2 0x2217 JUMPI PUSH2 0x2216 PUSH2 0x38BE JUMP JUMPDEST JUMPDEST DUP2 PUSH1 0x5 ADD PUSH0 SWAP1 SLOAD SWAP1 PUSH2 0x100 EXP SWAP1 DIV PUSH1 0xFF AND PUSH1 0x6 DUP2 GT ISZERO PUSH2 0x223A JUMPI PUSH2 0x2239 PUSH2 0x38BE JUMP JUMPDEST JUMPDEST EQ PUSH2 0x227A JUMPI PUSH1 0x40 MLOAD PUSH32 0x8C379A000000000000000000000000000000000000000000000000000000000 DUP2 MSTORE PUSH1 0x4 ADD PUSH2 0x2271 SWAP1 PUSH2 0x4F86 JUMP JUMPDEST PUSH1 0x40 MLOAD DUP1 SWAP2 SUB SWAP1 REVERT JUMPDEST PUSH3 0x278D00 DUP2 PUSH1 0xA ADD SLOAD PUSH2 0x228D SWAP2 SWAP1 PUSH2 0x4FA4 JUMP JUMPDEST TIMESTAMP GT ISZERO PUSH2 0x22CF JUMPI PUSH1 0x40 MLOAD PUSH32 0x8C379A000000000000000000000000000000000000000000000000000000000 DUP2 MSTORE PUSH1 0x4 ADD PUSH2 0x22C6 SWAP1 PUSH2 0x5047 JUMP JUMPDEST PUSH1 0x40 MLOAD DUP1 SWAP2 SUB SWAP1 REVERT JUMPDEST PUSH1 0x6 DUP2 PUSH1 0x5 ADD PUSH0 PUSH2 0x100 EXP DUP2 SLOAD DUP2 PUSH1 0xFF MUL NOT AND SWAP1 DUP4 PUSH1 0x6 DUP2 GT ISZERO PUSH2 0x22F6 JUMPI PUSH2 0x22F5 PUSH2 0x38BE JUMP JUMPDEST JUMPDEST MUL OR SWAP1 SSTORE POP PUSH1 0x6 PUSH0 SWAP1 SLOAD SWAP1 PUSH2 0x100 EXP SWAP1 DIV PUSH20 0xFFFFFFFFFFFFFFFFFFFFFFFFFFFFFFFFFFFFFFFF AND PUSH20 0xFFFFFFFFFFFFFFFFFFFFFFFFFFFFFFFFFFFFFFFF AND PUSH4 0xDE7EB189 DUP5 CALLER PUSH1 0x5 PUSH1 0x40 MLOAD DUP5 PUSH4 0xFFFFFFFF AND PUSH1 0xE0 SHL DUP2 MSTORE PUSH1 0x4 ADD PUSH2 0x235A SWAP4 SWAP3 SWAP2 SWAP1 PUSH2 0x50D5 JUMP JUMPDEST PUSH0 PUSH1 0x40 MLOAD DUP1 DUP4 SUB DUP2 PUSH0 DUP8 DUP1 EXTCODESIZE ISZERO DUP1 ISZERO PUSH2 0x2371 JUMPI PUSH0 PUSH0 REVERT JUMPDEST POP GAS CALL ISZERO DUP1 ISZERO PUSH2 0x2383 JUMPI RETURNDATASIZE PUSH0 PUSH0 RETURNDATACOPY RETURNDATASIZE PUSH0 REVERT JUMPDEST POP POP POP POP CALLER PUSH20 0xFFFFFFFFFFFFFFFFFFFFFFFFFFFFFFFFFFFFFFFF AND DUP4 PUSH32 0xE0E58E9CC5ED7EF092D3E14CFF6136D23EBF75A16CF3C8257EF8804811D8B0F3 TIMESTAMP PUSH1 0x40 MLOAD PUSH2 0x23CE SWAP2 SWAP1 PUSH2 0x3623 JUMP JUMPDEST PUSH1 0x40 MLOAD DUP1 SWAP2 SUB SWAP1 LOG3 POP POP POP JUMP JUMPDEST PUSH1 0x5 SLOAD DUP2 JUMP JUMPDEST PUSH1 0x60 PUSH1 0x3 PUSH0 DUP4 PUSH20 0xFFFFFFFFFFFFFFFFFFFFFFFFFFFFFFFFFFFFFFFF AND PUSH20 0xFFFFFFFFFFFFFFFFFFFFFFFFFFFFFFFFFFFFFFFF AND DUP2 MSTORE PUSH1 0x20 ADD SWAP1 DUP2 MSTORE PUSH1 0x20 ADD PUSH0 KECCAK256 DUP1 SLOAD DUP1 PUSH1 0x20 MUL PUSH1 0x20 ADD PUSH1 0x40 MLOAD SWAP1 DUP2 ADD PUSH1 0x40 MSTORE DUP1 SWAP3 SWAP2 SWAP1 DUP2 DUP2 MSTORE PUSH1 0x20 ADD DUP3 DUP1 SLOAD DUP1 ISZERO PUSH2 0x2468 JUMPI PUSH1 0x20 MUL DUP3 ADD SWAP2 SWAP1 PUSH0 MSTORE PUSH1 0x20 PUSH0 KECCAK256 SWAP1 JUMPDEST DUP2 SLOAD DUP2 MSTORE PUSH1 0x20 ADD SWAP1 PUSH1 0x1 ADD SWAP1 DUP1 DUP4 GT PUSH2 0x2454 JUMPI JUMPDEST POP POP POP POP POP SWAP1 POP SWAP2 SWAP1 POP JUMP JUMPDEST PUSH0 PUSH0 PUSH0 SHL DUP6 SUB PUSH2 0x24B9 JUMPI PUSH1 0x40 MLOAD PUSH32 0x8C379A000000000000000000000000000000000000000000000000000000000 DUP2 MSTORE PUSH1 0x4 ADD PUSH2 0x24B0 SWAP1 PUSH2 0x518D JUMP JUMPDEST PUSH1 0x40 MLOAD DUP1 SWAP2 SUB SWAP1 REVERT JUMPDEST PUSH0 DUP5 DUP5 SWAP1 POP GT PUSH2 0x24FE JUMPI PUSH1 0x40 MLOAD PUSH32 0x8C379A000000000000000000000000000000000000000000000000000000000 DUP2 MSTORE PUSH1 0x4 ADD PUSH2 0x24F5 SWAP1 PUSH2 0x521B JUMP JUMPDEST PUSH1 0x40 MLOAD DUP1 SWAP2 SUB SWAP1 REVERT JUMPDEST PUSH1 0x8 PUSH0 SWAP1 SLOAD SWAP1 PUSH2 0x100 EXP SWAP1 DIV PUSH20 0xFFFFFFFFFFFFFFFFFFFFFFFFFFFFFFFFFFFFFFFF AND PUSH20 0xFFFFFFFFFFFFFFFFFFFFFFFFFFFFFFFFFFFFFFFF AND PUSH4 0xF522C60A DUP4 PUSH1 0x40 MLOAD DUP3 PUSH4 0xFFFFFFFF AND PUSH1 0xE0 SHL DUP2 MSTORE PUSH1 0x4 ADD PUSH2 0x2558 SWAP2 SWAP1 PUSH2 0x3623 JUMP JUMPDEST PUSH1 0x20 PUSH1 0x40 MLOAD DUP1 DUP4 SUB DUP2 DUP7 GAS STATICCALL ISZERO DUP1 ISZERO PUSH2 0x2573 JUMPI RETURNDATASIZE PUSH0 PUSH0 RETURNDATACOPY RETURNDATASIZE PUSH0 REVERT JUMPDEST POP POP POP POP PUSH1 0x40 MLOAD RETURNDATASIZE PUSH1 0x1F NOT PUSH1 0x1F DUP3 ADD AND DUP3 ADD DUP1 PUSH1 0x40 MSTORE POP DUP2 ADD SWAP1 PUSH2 0x2597 SWAP2 SWAP1 PUSH2 0x5239 JUMP JUMPDEST PUSH2 0x25D6 JUMPI PUSH1 0x40 MLOAD PUSH32 0x8C379A000000000000000000000000000000000000000000000000000000000 DUP2 MSTORE PUSH1 0x4 ADD PUSH2 0x25CD SWAP1 PUSH2 0x52D4 JUMP JUMPDEST PUSH1 0x40 MLOAD DUP1 SWAP2 SUB SWAP1 REVERT JUMPDEST PUSH1 0x2 PUSH0 DUP7 DUP2 MSTORE PUSH1 0x20 ADD SWAP1 DUP2 MSTORE PUSH1 0x20 ADD PUSH0 KECCAK256 PUSH0 SWAP1 SLOAD SWAP1 PUSH2 0x100 EXP SWAP1 DIV PUSH1 0xFF AND ISZERO PUSH2 0x2634 JUMPI PUSH1 0x40 MLOAD PUSH32 0x8C379A000000000000000000000000000000000000000000000000000000000 DUP2 MSTORE PUSH1 0x4 ADD PUSH2 0x262B SWAP1 PUSH2 0x5388 JUMP JUMPDEST PUSH1 0x40 MLOAD DUP1 SWAP2 SUB SWAP1 REVERT JUMPDEST PUSH1 0x4 PUSH0 DUP2 SLOAD DUP1 SWAP3 SWAP2 SWAP1 PUSH2 0x2646 SWAP1 PUSH2 0x53A6 JUMP JUMPDEST SWAP2 SWAP1 POP SSTORE SWAP1 POP PUSH1 0x5 PUSH0 DUP2 SLOAD DUP1 SWAP3 SWAP2 SWAP1 PUSH2 0x265E SWAP1 PUSH2 0x53A6 JUMP JUMPDEST SWAP2 SWAP1 POP SSTORE POP PUSH1 0x40 MLOAD DUP1 PUSH2 0x180 ADD PUSH1 0x40 MSTORE DUP1 DUP3 DUP2 MSTORE PUSH1 0x20 ADD CALLER PUSH20 0xFFFFFFFFFFFFFFFFFFFFFFFFFFFFFFFFFFFFFFFF AND DUP2 MSTORE PUSH1 0x20 ADD DUP7 DUP2 MSTORE PUSH1 0x20 ADD DUP6 DUP6 DUP1 DUP1 PUSH1 0x1F ADD PUSH1 0x20 DUP1 SWAP2 DIV MUL PUSH1 0x20 ADD PUSH1 0x40 MLOAD SWAP1 DUP2 ADD PUSH1 0x40 MSTORE DUP1 SWAP4 SWAP3 SWAP2 SWAP1 DUP2 DUP2 MSTORE PUSH1 0x20 ADD DUP4 DUP4 DUP1 DUP3 DUP5 CALLDATACOPY PUSH0 DUP2 DUP5 ADD MSTORE PUSH1 0x1F NOT PUSH1 0x1F DUP3 ADD AND SWAP1 POP DUP1 DUP4 ADD SWAP3 POP POP POP POP POP POP POP DUP2 MSTORE PUSH1 0x20 ADD DUP4 DUP2 MSTORE PUSH1 0x20 ADD PUSH1 0x1 PUSH1 0x6 DUP2 GT ISZERO PUSH2 0x26FA JUMPI PUSH2 0x26F9 PUSH2 0x38BE JUMP JUMPDEST JUMPDEST DUP2 MSTORE PUSH1 0x20 ADD PUSH1 0x40 MLOAD DUP1 PUSH1 0x20 ADD PUSH1 0x40 MSTORE DUP1 PUSH0 DUP2 MSTORE POP DUP2 MSTORE PUSH1 0x20 ADD PUSH0 PUSH20 0xFFFFFFFFFFFFFFFFFFFFFFFFFFFFFFFFFFFFFFFF AND DUP2 MSTORE PUSH1 0x20 ADD PUSH0 PUSH20 0xFFFFFFFFFFFFFFFFFFFFFFFFFFFFFFFFFFFFFFFF AND DUP2 MSTORE PUSH1 0x20 ADD TIMESTAMP DUP2 MSTORE PUSH1 0x20 ADD PUSH0 DUP2 MSTORE PUSH1 0x20 ADD PUSH0 DUP2 MSTORE POP PUSH1 0x1 PUSH0 DUP4 DUP2 MSTORE PUSH1 0x20 ADD SWAP1 DUP2 MSTORE PUSH1 0x20 ADD PUSH0 KECCAK256 PUSH0 DUP3 ADD MLOAD DUP2 PUSH0 ADD SSTORE PUSH1 0x20 DUP3 ADD MLOAD DUP2 PUSH1 0x1 ADD PUSH0 PUSH2 0x100 EXP DUP2 SLOAD DUP2 PUSH20 0xFFFFFFFFFFFFFFFFFFFFFFFFFFFFFFFFFFFFFFFF MUL NOT AND SWAP1 DUP4 PUSH20 0xFFFFFFFFFFFFFFFFFFFFFFFFFFFFFFFFFFFFFFFF AND MUL OR SWAP1 SSTORE POP PUSH1 0x40 DUP3 ADD MLOAD DUP2 PUSH1 0x2 ADD SSTORE PUSH1 0x60 DUP3 ADD MLOAD DUP2 PUSH1 0x3 ADD SWAP1 DUP2 PUSH2 0x27D9 SWAP2 SWAP1 PUSH2 0x53ED JUMP JUMPDEST POP PUSH1 0x80 DUP3 ADD MLOAD DUP2 PUSH1 0x4 ADD SSTORE PUSH1 0xA0 DUP3 ADD MLOAD DUP2 PUSH1 0x5 ADD PUSH0 PUSH2 0x100 EXP DUP2 SLOAD DUP2 PUSH1 0xFF MUL NOT AND SWAP1 DUP4 PUSH1 0x6 DUP2 GT ISZERO PUSH2 0x280E JUMPI PUSH2 0x280D PUSH2 0x38BE JUMP JUMPDEST JUMPDEST MUL OR SWAP1 SSTORE POP PUSH1 0xC0 DUP3 ADD MLOAD DUP2 PUSH1 0x6 ADD SWAP1 DUP2 PUSH2 0x2828 SWAP2 SWAP1 PUSH2 0x53ED JUMP JUMPDEST POP PUSH1 0xE0 DUP3 ADD MLOAD DUP2 PUSH1 0x7 ADD PUSH0 PUSH2 0x100 EXP DUP2 SLOAD DUP2 PUSH20 0xFFFFFFFFFFFFFFFFFFFFFFFFFFFFFFFFFFFFFFFF MUL NOT AND SWAP1 DUP4 PUSH20 0xFFFFFFFFFFFFFFFFFFFFFFFFFFFFFFFFFFFFFFFF AND MUL OR SWAP1 SSTORE POP PUSH2 0x100 DUP3 ADD MLOAD DUP2 PUSH1 0x8 ADD PUSH0 PUSH2 0x100 EXP DUP2 SLOAD DUP2 PUSH20 0xFFFFFFFFFFFFFFFFFFFFFFFFFFFFFFFFFFFFFFFF MUL NOT AND SWAP1 DUP4 PUSH20 0xFFFFFFFFFFFFFFFFFFFFFFFFFFFFFFFFFFFFFFFF AND MUL OR SWAP1 SSTORE POP PUSH2 0x120 DUP3 ADD MLOAD DUP2 PUSH1 0x9 ADD SSTORE PUSH2 0x140 DUP3 ADD MLOAD DUP2 PUSH1 0xA ADD SSTORE PUSH2 0x160 DUP3 ADD MLOAD DUP2 PUSH1 0xB ADD SSTORE SWAP1 POP POP PUSH1 0x1 PUSH1 0x2 PUSH0 DUP8 DUP2 MSTORE PUSH1 0x20 ADD SWAP1 DUP2 MSTORE PUSH1 0x20 ADD PUSH0 KECCAK256 PUSH0 PUSH2 0x100 EXP DUP2 SLOAD DUP2 PUSH1 0xFF MUL NOT AND SWAP1 DUP4 ISZERO ISZERO MUL OR SWAP1 SSTORE POP PUSH1 0x3 PUSH0 CALLER PUSH20 0xFFFFFFFFFFFFFFFFFFFFFFFFFFFFFFFFFFFFFFFF AND PUSH20 0xFFFFFFFFFFFFFFFFFFFFFFFFFFFFFFFFFFFFFFFF AND DUP2 MSTORE PUSH1 0x20 ADD SWAP1 DUP2 MSTORE PUSH1 0x20 ADD PUSH0 KECCAK256 DUP2 SWAP1 DUP1 PUSH1 0x1 DUP2 SLOAD ADD DUP1 DUP3 SSTORE DUP1 SWAP2 POP POP PUSH1 0x1 SWAP1 SUB SWAP1 PUSH0 MSTORE PUSH1 0x20 PUSH0 KECCAK256 ADD PUSH0 SWAP1 SWAP2 SWAP1 SWAP2 SWAP1 SWAP2 POP SSTORE PUSH1 0x6 PUSH0 SWAP1 SLOAD SWAP1 PUSH2 0x100 EXP SWAP1 DIV PUSH20 0xFFFFFFFFFFFFFFFFFFFFFFFFFFFFFFFFFFFFFFFF AND PUSH20 0xFFFFFFFFFFFFFFFFFFFFFFFFFFFFFFFFFFFFFFFF AND PUSH4 0xDE7EB189 DUP3 CALLER PUSH0 PUSH2 0x29AD DUP8 PUSH2 0x3335 JUMP JUMPDEST DUP10 DUP10 PUSH1 0x40 MLOAD PUSH1 0x20 ADD PUSH2 0x29C1 SWAP4 SWAP3 SWAP2 SWAP1 PUSH2 0x55D4 JUMP JUMPDEST PUSH1 0x40 MLOAD PUSH1 0x20 DUP2 DUP4 SUB SUB DUP2 MSTORE SWAP1 PUSH1 0x40 MSTORE PUSH1 0x40 MLOAD DUP6 PUSH4 0xFFFFFFFF AND PUSH1 0xE0 SHL DUP2 MSTORE PUSH1 0x4 ADD PUSH2 0x29EF SWAP5 SWAP4 SWAP3 SWAP2 SWAP1 PUSH2 0x4C6A JUMP JUMPDEST PUSH0 PUSH1 0x40 MLOAD DUP1 DUP4 SUB DUP2 PUSH0 DUP8 DUP1 EXTCODESIZE ISZERO DUP1 ISZERO PUSH2 0x2A06 JUMPI PUSH0 PUSH0 REVERT JUMPDEST POP GAS CALL ISZERO DUP1 ISZERO PUSH2 0x2A18 JUMPI RETURNDATASIZE PUSH0 PUSH0 RETURNDATACOPY RETURNDATASIZE PUSH0 REVERT JUMPDEST POP POP POP POP DUP2 CALLER PUSH20 0xFFFFFFFFFFFFFFFFFFFFFFFFFFFFFFFFFFFFFFFF AND DUP3 PUSH32 0x6C5B70268F016664D393F4F4176087B13AE0029E5BE4AC3FBA257035318D68A6 DUP8 DUP8 TIMESTAMP PUSH1 0x40 MLOAD PUSH2 0x2A68 SWAP4 SWAP3 SWAP2 SWAP1 PUSH2 0x48B5 JUMP JUMPDEST PUSH1 0x40 MLOAD DUP1 SWAP2 SUB SWAP1 LOG4 SWAP5 SWAP4 POP POP POP POP JUMP JUMPDEST PUSH32 0xE1DCBDB91DF27212A29BC27177C840CF2F819ECF2187432E1FAC86C2DD5DFCA9 DUP2 JUMP JUMPDEST PUSH0 PUSH1 0x60 PUSH0 PUSH0 DUP5 PUSH0 PUSH1 0x6 DUP2 GT ISZERO PUSH2 0x2AB5 JUMPI PUSH2 0x2AB4 PUSH2 0x38BE JUMP JUMPDEST JUMPDEST PUSH1 0x1 PUSH0 DUP4 DUP2 MSTORE PUSH1 0x20 ADD SWAP1 DUP2 MSTORE PUSH1 0x20 ADD PUSH0 KECCAK256 PUSH1 0x5 ADD PUSH0 SWAP1 SLOAD SWAP1 PUSH2 0x100 EXP SWAP1 DIV PUSH1 0xFF AND PUSH1 0x6 DUP2 GT ISZERO PUSH2 0x2AE8 JUMPI PUSH2 0x2AE7 PUSH2 0x38BE JUMP JUMPDEST JUMPDEST SUB PUSH2 0x2B28 JUMPI PUSH1 0x40 MLOAD PUSH32 0x8C379A000000000000000000000000000000000000000000000000000000000 DUP2 MSTORE PUSH1 0x4 ADD PUSH2 0x2B1F SWAP1 PUSH2 0x400F JUMP JUMPDEST PUSH1 0x40 MLOAD DUP1 SWAP2 SUB SWAP1 REVERT JUMPDEST PUSH0 PUSH1 0x1 PUSH0 DUP9 DUP2 MSTORE PUSH1 0x20 ADD SWAP1 DUP2 MSTORE PUSH1 0x20 ADD PUSH0 KECCAK256 SWAP1 POP DUP1 PUSH1 0x5 ADD PUSH0 SWAP1 SLOAD SWAP1 PUSH2 0x100 EXP SWAP1 DIV PUSH1 0xFF AND DUP2 PUSH1 0x6 ADD DUP3 PUSH1 0x8 ADD PUSH0 SWAP1 SLOAD SWAP1 PUSH2 0x100 EXP SWAP1 DIV PUSH20 0xFFFFFFFFFFFFFFFFFFFFFFFFFFFFFFFFFFFFFFFF AND DUP4 PUSH1 0xA ADD SLOAD DUP3 DUP1 SLOAD PUSH2 0x2B86 SWAP1 PUSH2 0x4555 JUMP JUMPDEST DUP1 PUSH1 0x1F ADD PUSH1 0x20 DUP1 SWAP2 DIV MUL PUSH1 0x20 ADD PUSH1 0x40 MLOAD SWAP1 DUP2 ADD PUSH1 0x40 MSTORE DUP1 SWAP3 SWAP2 SWAP1 DUP2 DUP2 MSTORE PUSH1 0x20 ADD DUP3 DUP1 SLOAD PUSH2 0x2BB2 SWAP1 PUSH2 0x4555 JUMP JUMPDEST DUP1 ISZERO PUSH2 0x2BFD JUMPI DUP1 PUSH1 0x1F LT PUSH2 0x2BD4 JUMPI PUSH2 0x100 DUP1 DUP4 SLOAD DIV MUL DUP4 MSTORE SWAP2 PUSH1 0x20 ADD SWAP2 PUSH2 0x2BFD JUMP JUMPDEST DUP3 ADD SWAP2 SWAP1 PUSH0 MSTORE PUSH1 0x20 PUSH0 KECCAK256 SWAP1 JUMPDEST DUP2 SLOAD DUP2 MSTORE SWAP1 PUSH1 0x1 ADD SWAP1 PUSH1 0x20 ADD DUP1 DUP4 GT PUSH2 0x2BE0 JUMPI DUP3 SWAP1 SUB PUSH1 0x1F AND DUP3 ADD SWAP2 JUMPDEST POP POP POP POP POP SWAP3 POP SWAP6 POP SWAP6 POP SWAP6 POP SWAP6 POP POP POP SWAP2 SWAP4 POP SWAP2 SWAP4 JUMP JUMPDEST PUSH0 PUSH0 PUSH32 0x1EFFBBFF9C66C5E59634F24FE842750C60D18891155C32DD155FC2D661A4C86D DUP2 MSTORE PUSH1 0x20 ADD SWAP1 DUP2 MSTORE PUSH1 0x20 ADD PUSH0 KECCAK256 PUSH0 CALLER PUSH20 0xFFFFFFFFFFFFFFFFFFFFFFFFFFFFFFFFFFFFFFFF AND PUSH20 0xFFFFFFFFFFFFFFFFFFFFFFFFFFFFFFFFFFFFFFFF AND DUP2 MSTORE PUSH1 0x20 ADD SWAP1 DUP2 MSTORE PUSH1 0x20 ADD PUSH0 KECCAK256 PUSH0 SWAP1 SLOAD SWAP1 PUSH2 0x100 EXP SWAP1 DIV PUSH1 0xFF AND PUSH2 0x2CCC JUMPI PUSH1 0x40 MLOAD PUSH32 0x8C379A000000000000000000000000000000000000000000000000000000000 DUP2 MSTORE PUSH1 0x4 ADD PUSH2 0x2CC3 SWAP1 PUSH2 0x492F JUMP JUMPDEST PUSH1 0x40 MLOAD DUP1 SWAP2 SUB SWAP1 REVERT JUMPDEST PUSH0 PUSH0 DUP4 DUP2 MSTORE PUSH1 0x20 ADD SWAP1 DUP2 MSTORE PUSH1 0x20 ADD PUSH0 KECCAK256 PUSH0 DUP3 PUSH20 0xFFFFFFFFFFFFFFFFFFFFFFFFFFFFFFFFFFFFFFFF AND PUSH20 0xFFFFFFFFFFFFFFFFFFFFFFFFFFFFFFFFFFFFFFFF AND DUP2 MSTORE PUSH1 0x20 ADD SWAP1 DUP2 MSTORE PUSH1 0x20 ADD PUSH0 KECCAK256 PUSH0 SWAP1 SLOAD SWAP1 PUSH2 0x100 EXP SWAP1 DIV PUSH1 0xFF AND PUSH2 0x2D63 JUMPI PUSH1 0x40 MLOAD PUSH32 0x8C379A000000000000000000000000000000000000000000000000000000000 DUP2 MSTORE PUSH1 0x4 ADD PUSH2 0x2D5A SWAP1 PUSH2 0x567F JUMP JUMPDEST PUSH1 0x40 MLOAD DUP1 SWAP2 SUB SWAP1 REVERT JUMPDEST PUSH0 PUSH0 PUSH0 DUP5 DUP2 MSTORE PUSH1 0x20 ADD SWAP1 DUP2 MSTORE PUSH1 0x20 ADD PUSH0 KECCAK256 PUSH0 DUP4 PUSH20 0xFFFFFFFFFFFFFFFFFFFFFFFFFFFFFFFFFFFFFFFF AND PUSH20 0xFFFFFFFFFFFFFFFFFFFFFFFFFFFFFFFFFFFFFFFF AND DUP2 MSTORE PUSH1 0x20 ADD SWAP1 DUP2 MSTORE PUSH1 0x20 ADD PUSH0 KECCAK256 PUSH0 PUSH2 0x100 EXP DUP2 SLOAD DUP2 PUSH1 0xFF MUL NOT AND SWAP1 DUP4 ISZERO ISZERO MUL OR SWAP1 SSTORE POP CALLER PUSH20 0xFFFFFFFFFFFFFFFFFFFFFFFFFFFFFFFFFFFFFFFF AND DUP2 PUSH20 0xFFFFFFFFFFFFFFFFFFFFFFFFFFFFFFFFFFFFFFFF AND DUP4 PUSH32 0xF6391F5C32D9C69D2A47EA670B442974B53935D1EDC7FD64EB21E047A839171B PUSH1 0x40 MLOAD PUSH1 0x40 MLOAD DUP1 SWAP2 SUB SWAP1 LOG4 POP POP JUMP JUMPDEST PUSH1 0x1 PUSH1 0x20 MSTORE DUP1 PUSH0 MSTORE PUSH1 0x40 PUSH0 KECCAK256 PUSH0 SWAP2 POP SWAP1 POP DUP1 PUSH0 ADD SLOAD SWAP1 DUP1 PUSH1 0x1 ADD PUSH0 SWAP1 SLOAD SWAP1 PUSH2 0x100 EXP SWAP1 DIV PUSH20 0xFFFFFFFFFFFFFFFFFFFFFFFFFFFFFFFFFFFFFFFF AND SWAP1 DUP1 PUSH1 0x2 ADD SLOAD SWAP1 DUP1 PUSH1 0x3 ADD DUP1 SLOAD PUSH2 0x2E74 SWAP1 PUSH2 0x4555 JUMP JUMPDEST DUP1 PUSH1 0x1F ADD PUSH1 0x20 DUP1 SWAP2 DIV MUL PUSH1 0x20 ADD PUSH1 0x40 MLOAD SWAP1 DUP2 ADD PUSH1 0x40 MSTORE DUP1 SWAP3 SWAP2 SWAP1 DUP2 DUP2 MSTORE PUSH1 0x20 ADD DUP3 DUP1 SLOAD PUSH2 0x2EA0 SWAP1 PUSH2 0x4555 JUMP JUMPDEST DUP1 ISZERO PUSH2 0x2EEB JUMPI DUP1 PUSH1 0x1F LT PUSH2 0x2EC2 JUMPI PUSH2 0x100 DUP1 DUP4 SLOAD DIV MUL DUP4 MSTORE SWAP2 PUSH1 0x20 ADD SWAP2 PUSH2 0x2EEB JUMP JUMPDEST DUP3 ADD SWAP2 SWAP1 PUSH0 MSTORE PUSH1 0x20 PUSH0 KECCAK256 SWAP1 JUMPDEST DUP2 SLOAD DUP2 MSTORE SWAP1 PUSH1 0x1 ADD SWAP1 PUSH1 0x20 ADD DUP1 DUP4 GT PUSH2 0x2ECE JUMPI DUP3 SWAP1 SUB PUSH1 0x1F AND DUP3 ADD SWAP2 JUMPDEST POP POP POP POP POP SWAP1 DUP1 PUSH1 0x4 ADD SLOAD SWAP1 DUP1 PUSH1 0x5 ADD PUSH0 SWAP1 SLOAD SWAP1 PUSH2 0x100 EXP SWAP1 DIV PUSH1 0xFF AND SWAP1 DUP1 PUSH1 0x6 ADD DUP1 SLOAD PUSH2 0x2F18 SWAP1 PUSH2 0x4555 JUMP JUMPDEST DUP1 PUSH1 0x1F ADD PUSH1 0x20 DUP1 SWAP2 DIV MUL PUSH1 0x20 ADD PUSH1 0x40 MLOAD SWAP1 DUP2 ADD PUSH1 0x40 MSTORE DUP1 SWAP3 SWAP2 SWAP1 DUP2 DUP2 MSTORE PUSH1 0x20 ADD DUP3 DUP1 SLOAD PUSH2 0x2F44 SWAP1 PUSH2 0x4555 JUMP JUMPDEST DUP1 ISZERO PUSH2 0x2F8F JUMPI DUP1 PUSH1 0x1F LT PUSH2 0x2F66 JUMPI PUSH2 0x100 DUP1 DUP4 SLOAD DIV MUL DUP4 MSTORE SWAP2 PUSH1 0x20 ADD SWAP2 PUSH2 0x2F8F JUMP JUMPDEST DUP3 ADD SWAP2 SWAP1 PUSH0 MSTORE PUSH1 0x20 PUSH0 KECCAK256 SWAP1 JUMPDEST DUP2 SLOAD DUP2 MSTORE SWAP1 PUSH1 0x1 ADD SWAP1 PUSH1 0x20 ADD DUP1 DUP4 GT PUSH2 0x2F72 JUMPI DUP3 SWAP1 SUB PUSH1 0x1F AND DUP3 ADD SWAP2 JUMPDEST POP POP POP POP POP SWAP1 DUP1 PUSH1 0x7 ADD PUSH0 SWAP1 SLOAD SWAP1 PUSH2 0x100 EXP SWAP1 DIV PUSH20 0xFFFFFFFFFFFFFFFFFFFFFFFFFFFFFFFFFFFFFFFF AND SWAP1 DUP1 PUSH1 0x8 ADD PUSH0 SWAP1 SLOAD SWAP1 PUSH2 0x100 EXP SWAP1 DIV PUSH20 0xFFFFFFFFFFFFFFFFFFFFFFFFFFFFFFFFFFFFFFFF AND SWAP1 DUP1 PUSH1 0x9 ADD SLOAD SWAP1 DUP1 PUSH1 0xA ADD SLOAD SWAP1 DUP1 PUSH1 0xB ADD SLOAD SWAP1 POP DUP13 JUMP JUMPDEST PUSH0 PUSH1 0x1 PUSH0 DUP4 DUP2 MSTORE PUSH1 0x20 ADD SWAP1 DUP2 MSTORE PUSH1 0x20 ADD PUSH0 KECCAK256 SWAP1 POP PUSH1 0x3 PUSH1 0x6 DUP2 GT ISZERO PUSH2 0x301D JUMPI PUSH2 0x301C PUSH2 0x38BE JUMP JUMPDEST JUMPDEST DUP2 PUSH1 0x5 ADD PUSH0 SWAP1 SLOAD SWAP1 PUSH2 0x100 EXP SWAP1 DIV PUSH1 0xFF AND PUSH1 0x6 DUP2 GT ISZERO PUSH2 0x3040 JUMPI PUSH2 0x303F PUSH2 0x38BE JUMP JUMPDEST JUMPDEST EQ PUSH2 0x3080 JUMPI PUSH1 0x40 MLOAD PUSH32 0x8C379A000000000000000000000000000000000000000000000000000000000 DUP2 MSTORE PUSH1 0x4 ADD PUSH2 0x3077 SWAP1 PUSH2 0x56E7 JUMP JUMPDEST PUSH1 0x40 MLOAD DUP1 SWAP2 SUB SWAP1 REVERT JUMPDEST PUSH1 0x5 DUP2 PUSH1 0x5 ADD PUSH0 PUSH2 0x100 EXP DUP2 SLOAD DUP2 PUSH1 0xFF MUL NOT AND SWAP1 DUP4 PUSH1 0x6 DUP2 GT ISZERO PUSH2 0x30A7 JUMPI PUSH2 0x30A6 PUSH2 0x38BE JUMP JUMPDEST JUMPDEST MUL OR SWAP1 SSTORE POP TIMESTAMP DUP2 PUSH1 0xB ADD DUP2 SWAP1 SSTORE POP PUSH0 PUSH1 0x8 PUSH0 SWAP1 SLOAD SWAP1 PUSH2 0x100 EXP SWAP1 DIV PUSH20 0xFFFFFFFFFFFFFFFFFFFFFFFFFFFFFFFFFFFFFFFF AND PUSH20 0xFFFFFFFFFFFFFFFFFFFFFFFFFFFFFFFFFFFFFFFF AND PUSH4 0x6E07A438 DUP4 PUSH1 0x4 ADD SLOAD PUSH1 0x40 MLOAD DUP3 PUSH4 0xFFFFFFFF AND PUSH1 0xE0 SHL DUP2 MSTORE PUSH1 0x4 ADD PUSH2 0x3114 SWAP2 SWAP1 PUSH2 0x3623 JUMP JUMPDEST PUSH1 0x20 PUSH1 0x40 MLOAD DUP1 DUP4 SUB DUP2 DUP7 GAS STATICCALL ISZERO DUP1 ISZERO PUSH2 0x312F JUMPI RETURNDATASIZE PUSH0 PUSH0 RETURNDATACOPY RETURNDATASIZE PUSH0 REVERT JUMPDEST POP POP POP POP PUSH1 0x40 MLOAD RETURNDATASIZE PUSH1 0x1F NOT PUSH1 0x1F DUP3 ADD AND DUP3 ADD DUP1 PUSH1 0x40 MSTORE POP DUP2 ADD SWAP1 PUSH2 0x3153 SWAP2 SWAP1 PUSH2 0x5705 JUMP JUMPDEST SWAP1 POP PUSH1 0x7 PUSH0 SWAP1 SLOAD SWAP1 PUSH2 0x100 EXP SWAP1 DIV PUSH20 0xFFFFFFFFFFFFFFFFFFFFFFFFFFFFFFFFFFFFFFFF AND PUSH20 0xFFFFFFFFFFFFFFFFFFFFFFFFFFFFFFFFFFFFFFFF AND PUSH4 0x816C387 DUP5 DUP5 PUSH1 0x4 ADD SLOAD DUP6 PUSH1 0x1 ADD PUSH0 SWAP1 SLOAD SWAP1 PUSH2 0x100 EXP SWAP1 DIV PUSH20 0xFFFFFFFFFFFFFFFFFFFFFFFFFFFFFFFFFFFFFFFF AND PUSH1 0x40 MLOAD DUP5 PUSH4 0xFFFFFFFF AND PUSH1 0xE0 SHL DUP2 MSTORE PUSH1 0x4 ADD PUSH2 0x31DA SWAP4 SWAP3 SWAP2 SWAP1 PUSH2 0x5750 JUMP JUMPDEST PUSH0 PUSH1 0x40 MLOAD DUP1 DUP4 SUB DUP2 PUSH0 DUP8 DUP1 EXTCODESIZE ISZERO DUP1 ISZERO PUSH2 0x31F1 JUMPI PUSH0 PUSH0 REVERT JUMPDEST POP GAS CALL ISZERO DUP1 ISZERO PUSH2 0x3203 JUMPI RETURNDATASIZE PUSH0 PUSH0 RETURNDATACOPY RETURNDATASIZE PUSH0 REVERT JUMPDEST POP POP POP POP PUSH1 0x6 PUSH0 SWAP1 SLOAD SWAP1 PUSH2 0x100 EXP SWAP1 DIV PUSH20 0xFFFFFFFFFFFFFFFFFFFFFFFFFFFFFFFFFFFFFFFF AND PUSH20 0xFFFFFFFFFFFFFFFFFFFFFFFFFFFFFFFFFFFFFFFF AND PUSH4 0xDE7EB189 DUP5 ADDRESS PUSH1 0x4 PUSH2 0x3251 DUP7 PUSH2 0x3335 JUMP JUMPDEST PUSH1 0x40 MLOAD PUSH1 0x20 ADD PUSH2 0x3261 SWAP2 SWAP1 PUSH2 0x5819 JUMP JUMPDEST PUSH1 0x40 MLOAD PUSH1 0x20 DUP2 DUP4 SUB SUB DUP2 MSTORE SWAP1 PUSH1 0x40 MSTORE PUSH1 0x40 MLOAD DUP6 PUSH4 0xFFFFFFFF AND PUSH1 0xE0 SHL DUP2 MSTORE PUSH1 0x4 ADD PUSH2 0x328F SWAP5 SWAP4 SWAP3 SWAP2 SWAP1 PUSH2 0x4C6A JUMP JUMPDEST PUSH0 PUSH1 0x40 MLOAD DUP1 DUP4 SUB DUP2 PUSH0 DUP8 DUP1 EXTCODESIZE ISZERO DUP1 ISZERO PUSH2 0x32A6 JUMPI PUSH0 PUSH0 REVERT JUMPDEST POP GAS CALL ISZERO DUP1 ISZERO PUSH2 0x32B8 JUMPI RETURNDATASIZE PUSH0 PUSH0 RETURNDATACOPY RETURNDATASIZE PUSH0 REVERT JUMPDEST POP POP POP POP DUP2 PUSH1 0x1 ADD PUSH0 SWAP1 SLOAD SWAP1 PUSH2 0x100 EXP SWAP1 DIV PUSH20 0xFFFFFFFFFFFFFFFFFFFFFFFFFFFFFFFFFFFFFFFF AND PUSH20 0xFFFFFFFFFFFFFFFFFFFFFFFFFFFFFFFFFFFFFFFF AND DUP4 PUSH32 0x46AAE7B734144CA04CB1909FAD512ADF7A45690027501461FD008365BBD74E9E DUP4 TIMESTAMP PUSH1 0x40 MLOAD PUSH2 0x3328 SWAP3 SWAP2 SWAP1 PUSH2 0x5845 JUMP JUMPDEST PUSH1 0x40 MLOAD DUP1 SWAP2 SUB SWAP1 LOG3 POP POP POP JUMP JUMPDEST PUSH1 0x60 PUSH0 DUP3 SUB PUSH2 0x337B JUMPI PUSH1 0x40 MLOAD DUP1 PUSH1 0x40 ADD PUSH1 0x40 MSTORE DUP1 PUSH1 0x1 DUP2 MSTORE PUSH1 0x20 ADD PUSH32 0x3000000000000000000000000000000000000000000000000000000000000000 DUP2 MSTORE POP SWAP1 POP PUSH2 0x3488 JUMP JUMPDEST PUSH0 DUP3 SWAP1 POP PUSH0 JUMPDEST PUSH0 DUP3 EQ PUSH2 0x33AA JUMPI DUP1 DUP1 PUSH2 0x3393 SWAP1 PUSH2 0x53A6 JUMP JUMPDEST SWAP2 POP POP PUSH1 0xA DUP3 PUSH2 0x33A3 SWAP2 SWAP1 PUSH2 0x40BA JUMP JUMPDEST SWAP2 POP PUSH2 0x3381 JUMP JUMPDEST PUSH0 DUP2 PUSH8 0xFFFFFFFFFFFFFFFF DUP2 GT ISZERO PUSH2 0x33C5 JUMPI PUSH2 0x33C4 PUSH2 0x40EE JUMP JUMPDEST JUMPDEST PUSH1 0x40 MLOAD SWAP1 DUP1 DUP3 MSTORE DUP1 PUSH1 0x1F ADD PUSH1 0x1F NOT AND PUSH1 0x20 ADD DUP3 ADD PUSH1 0x40 MSTORE DUP1 ISZERO PUSH2 0x33F7 JUMPI DUP2 PUSH1 0x20 ADD PUSH1 0x1 DUP3 MUL DUP1 CALLDATASIZE DUP4 CALLDATACOPY DUP1 DUP3 ADD SWAP2 POP POP SWAP1 POP JUMPDEST POP SWAP1 POP JUMPDEST PUSH0 DUP6 EQ PUSH2 0x3481 JUMPI DUP2 DUP1 PUSH2 0x340D SWAP1 PUSH2 0x586C JUMP JUMPDEST SWAP3 POP POP PUSH1 0xA DUP6 PUSH2 0x341D SWAP2 SWAP1 PUSH2 0x5893 JUMP JUMPDEST PUSH1 0x30 PUSH2 0x3429 SWAP2 SWAP1 PUSH2 0x4FA4 JUMP JUMPDEST PUSH1 0xF8 SHL DUP2 DUP4 DUP2 MLOAD DUP2 LT PUSH2 0x343F JUMPI PUSH2 0x343E PUSH2 0x494D JUMP JUMPDEST JUMPDEST PUSH1 0x20 ADD ADD SWAP1 PUSH31 0xFFFFFFFFFFFFFFFFFFFFFFFFFFFFFFFFFFFFFFFFFFFFFFFFFFFFFFFFFFFFFF NOT AND SWAP1 DUP2 PUSH0 BYTE SWAP1 MSTORE8 POP PUSH1 0xA DUP6 PUSH2 0x347A SWAP2 SWAP1 PUSH2 0x40BA JUMP JUMPDEST SWAP5 POP PUSH2 0x33FB JUMP JUMPDEST DUP1 SWAP4 POP POP POP POP JUMPDEST SWAP2 SWAP1 POP JUMP JUMPDEST PUSH1 0x40 MLOAD DUP1 PUSH2 0x180 ADD PUSH1 0x40 MSTORE DUP1 PUSH0 DUP2 MSTORE PUSH1 0x20 ADD PUSH0 PUSH20 0xFFFFFFFFFFFFFFFFFFFFFFFFFFFFFFFFFFFFFFFF AND DUP2 MSTORE PUSH1 0x20 ADD PUSH0 DUP2 MSTORE PUSH1 0x20 ADD PUSH1 0x60 DUP2 MSTORE PUSH1 0x20 ADD PUSH0 DUP2 MSTORE PUSH1 0x20 ADD PUSH0 PUSH1 0x6 DUP2 GT ISZERO PUSH2 0x34E1 JUMPI PUSH2 0x34E0 PUSH2 0x38BE JUMP JUMPDEST JUMPDEST DUP2 MSTORE PUSH1 0x20 ADD PUSH1 0x60 DUP2 MSTORE PUSH1 0x20 ADD PUSH0 PUSH20 0xFFFFFFFFFFFFFFFFFFFFFFFFFFFFFFFFFFFFFFFF AND DUP2 MSTORE PUSH1 0x20 ADD PUSH0 PUSH20 0xFFFFFFFFFFFFFFFFFFFFFFFFFFFFFFFFFFFFFFFF AND DUP2 MSTORE PUSH1 0x20 ADD PUSH0 DUP2 MSTORE PUSH1 0x20 ADD PUSH0 DUP2 MSTORE PUSH1 0x20 ADD PUSH0 DUP2 MSTORE POP SWAP1 JUMP JUMPDEST PUSH0 PUSH1 0x40 MLOAD SWAP1 POP SWAP1 JUMP JUMPDEST PUSH0 PUSH0 REVERT JUMPDEST PUSH0 PUSH0 REVERT JUMPDEST PUSH0 PUSH20 0xFFFFFFFFFFFFFFFFFFFFFFFFFFFFFFFFFFFFFFFF DUP3 AND SWAP1 POP SWAP2 SWAP1 POP JUMP JUMPDEST PUSH0 PUSH2 0x3572 DUP3 PUSH2 0x3549 JUMP JUMPDEST SWAP1 POP SWAP2 SWAP1 POP JUMP JUMPDEST PUSH2 0x3582 DUP2 PUSH2 0x3568 JUMP JUMPDEST DUP2 EQ PUSH2 0x358C JUMPI PUSH0 PUSH0 REVERT JUMPDEST POP JUMP JUMPDEST PUSH0 DUP2 CALLDATALOAD SWAP1 POP PUSH2 0x359D DUP2 PUSH2 0x3579 JUMP JUMPDEST SWAP3 SWAP2 POP POP JUMP JUMPDEST PUSH0 DUP2 SWAP1 POP SWAP2 SWAP1 POP JUMP JUMPDEST PUSH2 0x35B5 DUP2 PUSH2 0x35A3 JUMP JUMPDEST DUP2 EQ PUSH2 0x35BF JUMPI PUSH0 PUSH0 REVERT JUMPDEST POP JUMP JUMPDEST PUSH0 DUP2 CALLDATALOAD SWAP1 POP PUSH2 0x35D0 DUP2 PUSH2 0x35AC JUMP JUMPDEST SWAP3 SWAP2 POP POP JUMP JUMPDEST PUSH0 PUSH0 PUSH1 0x40 DUP4 DUP6 SUB SLT ISZERO PUSH2 0x35EC JUMPI PUSH2 0x35EB PUSH2 0x3541 JUMP JUMPDEST JUMPDEST PUSH0 PUSH2 0x35F9 DUP6 DUP3 DUP7 ADD PUSH2 0x358F JUMP JUMPDEST SWAP3 POP POP PUSH1 0x20 PUSH2 0x360A DUP6 DUP3 DUP7 ADD PUSH2 0x35C2 JUMP JUMPDEST SWAP2 POP POP SWAP3 POP SWAP3 SWAP1 POP JUMP JUMPDEST PUSH2 0x361D DUP2 PUSH2 0x35A3 JUMP JUMPDEST DUP3 MSTORE POP POP JUMP JUMPDEST PUSH0 PUSH1 0x20 DUP3 ADD SWAP1 POP PUSH2 0x3636 PUSH0 DUP4 ADD DUP5 PUSH2 0x3614 JUMP JUMPDEST SWAP3 SWAP2 POP POP JUMP JUMPDEST PUSH0 PUSH1 0x20 DUP3 DUP5 SUB SLT ISZERO PUSH2 0x3651 JUMPI PUSH2 0x3650 PUSH2 0x3541 JUMP JUMPDEST JUMPDEST PUSH0 PUSH2 0x365E DUP5 DUP3 DUP6 ADD PUSH2 0x35C2 JUMP JUMPDEST SWAP2 POP POP SWAP3 SWAP2 POP POP JUMP JUMPDEST PUSH0 DUP2 ISZERO ISZERO SWAP1 POP SWAP2 SWAP1 POP JUMP JUMPDEST PUSH2 0x367B DUP2 PUSH2 0x3667 JUMP JUMPDEST DUP3 MSTORE POP POP JUMP JUMPDEST PUSH0 PUSH1 0x40 DUP3 ADD SWAP1 POP PUSH2 0x3694 PUSH0 DUP4 ADD DUP6 PUSH2 0x3672 JUMP JUMPDEST PUSH2 0x36A1 PUSH1 0x20 DUP4 ADD DUP5 PUSH2 0x3614 JUMP JUMPDEST SWAP4 SWAP3 POP POP POP JUMP JUMPDEST PUSH0 PUSH0 REVERT JUMPDEST PUSH0 PUSH0 REVERT JUMPDEST PUSH0 PUSH0 REVERT JUMPDEST PUSH0 PUSH0 DUP4 PUSH1 0x1F DUP5 ADD SLT PUSH2 0x36C9 JUMPI PUSH2 0x36C8 PUSH2 0x36A8 JUMP JUMPDEST JUMPDEST DUP3 CALLDATALOAD SWAP1 POP PUSH8 0xFFFFFFFFFFFFFFFF DUP2 GT ISZERO PUSH2 0x36E6 JUMPI PUSH2 0x36E5 PUSH2 0x36AC JUMP JUMPDEST JUMPDEST PUSH1 0x20 DUP4 ADD SWAP2 POP DUP4 PUSH1 0x1 DUP3 MUL DUP4 ADD GT ISZERO PUSH2 0x3702 JUMPI PUSH2 0x3701 PUSH2 0x36B0 JUMP JUMPDEST JUMPDEST SWAP3 POP SWAP3 SWAP1 POP JUMP JUMPDEST PUSH0 PUSH0 PUSH0 PUSH1 0x40 DUP5 DUP7 SUB SLT ISZERO PUSH2 0x3720 JUMPI PUSH2 0x371F PUSH2 0x3541 JUMP JUMPDEST JUMPDEST PUSH0 PUSH2 0x372D DUP7 DUP3 DUP8 ADD PUSH2 0x35C2 JUMP JUMPDEST SWAP4 POP POP PUSH1 0x20 DUP5 ADD CALLDATALOAD PUSH8 0xFFFFFFFFFFFFFFFF DUP2 GT ISZERO PUSH2 0x374E JUMPI PUSH2 0x374D PUSH2 0x3545 JUMP JUMPDEST JUMPDEST PUSH2 0x375A DUP7 DUP3 DUP8 ADD PUSH2 0x36B4 JUMP JUMPDEST SWAP3 POP SWAP3 POP POP SWAP3 POP SWAP3 POP SWAP3 JUMP JUMPDEST PUSH0 PUSH0 DUP4 PUSH1 0x1F DUP5 ADD SLT PUSH2 0x377B JUMPI PUSH2 0x377A PUSH2 0x36A8 JUMP JUMPDEST JUMPDEST DUP3 CALLDATALOAD SWAP1 POP PUSH8 0xFFFFFFFFFFFFFFFF DUP2 GT ISZERO PUSH2 0x3798 JUMPI PUSH2 0x3797 PUSH2 0x36AC JUMP JUMPDEST JUMPDEST PUSH1 0x20 DUP4 ADD SWAP2 POP DUP4 PUSH1 0x20 DUP3 MUL DUP4 ADD GT ISZERO PUSH2 0x37B4 JUMPI PUSH2 0x37B3 PUSH2 0x36B0 JUMP JUMPDEST JUMPDEST SWAP3 POP SWAP3 SWAP1 POP JUMP JUMPDEST PUSH0 PUSH0 PUSH0 PUSH1 0x40 DUP5 DUP7 SUB SLT ISZERO PUSH2 0x37D2 JUMPI PUSH2 0x37D1 PUSH2 0x3541 JUMP JUMPDEST JUMPDEST PUSH0 DUP5 ADD CALLDATALOAD PUSH8 0xFFFFFFFFFFFFFFFF DUP2 GT ISZERO PUSH2 0x37EF JUMPI PUSH2 0x37EE PUSH2 0x3545 JUMP JUMPDEST JUMPDEST PUSH2 0x37FB DUP7 DUP3 DUP8 ADD PUSH2 0x3766 JUMP JUMPDEST SWAP4 POP SWAP4 POP POP PUSH1 0x20 PUSH2 0x380E DUP7 DUP3 DUP8 ADD PUSH2 0x358F JUMP JUMPDEST SWAP2 POP POP SWAP3 POP SWAP3 POP SWAP3 JUMP JUMPDEST PUSH2 0x3821 DUP2 PUSH2 0x35A3 JUMP JUMPDEST DUP3 MSTORE POP POP JUMP JUMPDEST PUSH2 0x3830 DUP2 PUSH2 0x3568 JUMP JUMPDEST DUP3 MSTORE POP POP JUMP JUMPDEST PUSH0 DUP2 SWAP1 POP SWAP2 SWAP1 POP JUMP JUMPDEST PUSH2 0x3848 DUP2 PUSH2 0x3836 JUMP JUMPDEST DUP3 MSTORE POP POP JUMP JUMPDEST PUSH0 DUP2 MLOAD SWAP1 POP SWAP2 SWAP1 POP JUMP JUMPDEST PUSH0 DUP3 DUP3 MSTORE PUSH1 0x20 DUP3 ADD SWAP1 POP SWAP3 SWAP2 POP POP JUMP JUMPDEST DUP3 DUP2 DUP4 MCOPY PUSH0 DUP4 DUP4 ADD MSTORE POP POP POP JUMP JUMPDEST PUSH0 PUSH1 0x1F NOT PUSH1 0x1F DUP4 ADD AND SWAP1 POP SWAP2 SWAP1 POP JUMP JUMPDEST PUSH0 PUSH2 0x3890 DUP3 PUSH2 0x384E JUMP JUMPDEST PUSH2 0x389A DUP2 DUP6 PUSH2 0x3858 JUMP JUMPDEST SWAP4 POP PUSH2 0x38AA DUP2 DUP6 PUSH1 0x20 DUP7 ADD PUSH2 0x3868 JUMP JUMPDEST PUSH2 0x38B3 DUP2 PUSH2 0x3876 JUMP JUMPDEST DUP5 ADD SWAP2 POP POP SWAP3 SWAP2 POP POP JUMP JUMPDEST PUSH32 0x4E487B7100000000000000000000000000000000000000000000000000000000 PUSH0 MSTORE PUSH1 0x21 PUSH1 0x4 MSTORE PUSH1 0x24 PUSH0 REVERT JUMPDEST PUSH1 0x7 DUP2 LT PUSH2 0x38FC JUMPI PUSH2 0x38FB PUSH2 0x38BE JUMP JUMPDEST JUMPDEST POP JUMP JUMPDEST PUSH0 DUP2 SWAP1 POP PUSH2 0x390C DUP3 PUSH2 0x38EB JUMP JUMPDEST SWAP2 SWAP1 POP JUMP JUMPDEST PUSH0 PUSH2 0x391B DUP3 PUSH2 0x38FF JUMP JUMPDEST SWAP1 POP SWAP2 SWAP1 POP JUMP JUMPDEST PUSH2 0x392B DUP2 PUSH2 0x3911 JUMP JUMPDEST DUP3 MSTORE POP POP JUMP JUMPDEST PUSH0 PUSH2 0x180 DUP4 ADD PUSH0 DUP4 ADD MLOAD PUSH2 0x3947 PUSH0 DUP7 ADD DUP3 PUSH2 0x3818 JUMP JUMPDEST POP PUSH1 0x20 DUP4 ADD MLOAD PUSH2 0x395A PUSH1 0x20 DUP7 ADD DUP3 PUSH2 0x3827 JUMP JUMPDEST POP PUSH1 0x40 DUP4 ADD MLOAD PUSH2 0x396D PUSH1 0x40 DUP7 ADD DUP3 PUSH2 0x383F JUMP JUMPDEST POP PUSH1 0x60 DUP4 ADD MLOAD DUP5 DUP3 SUB PUSH1 0x60 DUP7 ADD MSTORE PUSH2 0x3985 DUP3 DUP3 PUSH2 0x3886 JUMP JUMPDEST SWAP2 POP POP PUSH1 0x80 DUP4 ADD MLOAD PUSH2 0x399A PUSH1 0x80 DUP7 ADD DUP3 PUSH2 0x3818 JUMP JUMPDEST POP PUSH1 0xA0 DUP4 ADD MLOAD PUSH2 0x39AD PUSH1 0xA0 DUP7 ADD DUP3 PUSH2 0x3922 JUMP JUMPDEST POP PUSH1 0xC0 DUP4 ADD MLOAD DUP5 DUP3 SUB PUSH1 0xC0 DUP7 ADD MSTORE PUSH2 0x39C5 DUP3 DUP3 PUSH2 0x3886 JUMP JUMPDEST SWAP2 POP POP PUSH1 0xE0 DUP4 ADD MLOAD PUSH2 0x39DA PUSH1 0xE0 DUP7 ADD DUP3 PUSH2 0x3827 JUMP JUMPDEST POP PUSH2 0x100 DUP4 ADD MLOAD PUSH2 0x39EF PUSH2 0x100 DUP7 ADD DUP3 PUSH2 0x3827 JUMP JUMPDEST POP PUSH2 0x120 DUP4 ADD MLOAD PUSH2 0x3A04 PUSH2 0x120 DUP7 ADD DUP3 PUSH2 0x3818 JUMP JUMPDEST POP PUSH2 0x140 DUP4 ADD MLOAD PUSH2 0x3A19 PUSH2 0x140 DUP7 ADD DUP3 PUSH2 0x3818 JUMP JUMPDEST POP PUSH2 0x160 DUP4 ADD MLOAD PUSH2 0x3A2E PUSH2 0x160 DUP7 ADD DUP3 PUSH2 0x3818 JUMP JUMPDEST POP DUP1 SWAP2 POP POP SWAP3 SWAP2 POP POP JUMP JUMPDEST PUSH0 PUSH1 0x20 DUP3 ADD SWAP1 POP DUP2 DUP2 SUB PUSH0 DUP4 ADD MSTORE PUSH2 0x3A51 DUP2 DUP5 PUSH2 0x3931 JUMP JUMPDEST SWAP1 POP SWAP3 SWAP2 POP POP JUMP JUMPDEST PUSH0 DUP2 SWAP1 POP SWAP2 SWAP1 POP JUMP JUMPDEST PUSH0 PUSH2 0x3A7C PUSH2 0x3A77 PUSH2 0x3A72 DUP5 PUSH2 0x3549 JUMP JUMPDEST PUSH2 0x3A59 JUMP JUMPDEST PUSH2 0x3549 JUMP JUMPDEST SWAP1 POP SWAP2 SWAP1 POP JUMP JUMPDEST PUSH0 PUSH2 0x3A8D DUP3 PUSH2 0x3A62 JUMP JUMPDEST SWAP1 POP SWAP2 SWAP1 POP JUMP JUMPDEST PUSH0 PUSH2 0x3A9E DUP3 PUSH2 0x3A83 JUMP JUMPDEST SWAP1 POP SWAP2 SWAP1 POP JUMP JUMPDEST PUSH2 0x3AAE DUP2 PUSH2 0x3A94 JUMP JUMPDEST DUP3 MSTORE POP POP JUMP JUMPDEST PUSH0 PUSH1 0x20 DUP3 ADD SWAP1 POP PUSH2 0x3AC7 PUSH0 DUP4 ADD DUP5 PUSH2 0x3AA5 JUMP JUMPDEST SWAP3 SWAP2 POP POP JUMP JUMPDEST PUSH2 0x3AD6 DUP2 PUSH2 0x3836 JUMP JUMPDEST DUP2 EQ PUSH2 0x3AE0 JUMPI PUSH0 PUSH0 REVERT JUMPDEST POP JUMP JUMPDEST PUSH0 DUP2 CALLDATALOAD SWAP1 POP PUSH2 0x3AF1 DUP2 PUSH2 0x3ACD JUMP JUMPDEST SWAP3 SWAP2 POP POP JUMP JUMPDEST PUSH0 PUSH1 0x20 DUP3 DUP5 SUB SLT ISZERO PUSH2 0x3B0C JUMPI PUSH2 0x3B0B PUSH2 0x3541 JUMP JUMPDEST JUMPDEST PUSH0 PUSH2 0x3B19 DUP5 DUP3 DUP6 ADD PUSH2 0x3AE3 JUMP JUMPDEST SWAP2 POP POP SWAP3 SWAP2 POP POP JUMP JUMPDEST PUSH0 PUSH1 0x20 DUP3 ADD SWAP1 POP PUSH2 0x3B35 PUSH0 DUP4 ADD DUP5 PUSH2 0x3672 JUMP JUMPDEST SWAP3 SWAP2 POP POP JUMP JUMPDEST PUSH0 PUSH0 PUSH1 0x40 DUP4 DUP6 SUB SLT ISZERO PUSH2 0x3B51 JUMPI PUSH2 0x3B50 PUSH2 0x3541 JUMP JUMPDEST JUMPDEST PUSH0 PUSH2 0x3B5E DUP6 DUP3 DUP7 ADD PUSH2 0x3AE3 JUMP JUMPDEST SWAP3 POP POP PUSH1 0x20 PUSH2 0x3B6F DUP6 DUP3 DUP7 ADD PUSH2 0x358F JUMP JUMPDEST SWAP2 POP POP SWAP3 POP SWAP3 SWAP1 POP JUMP JUMPDEST PUSH2 0x3B82 DUP2 PUSH2 0x3667 JUMP JUMPDEST DUP2 EQ PUSH2 0x3B8C JUMPI PUSH0 PUSH0 REVERT JUMPDEST POP JUMP JUMPDEST PUSH0 DUP2 CALLDATALOAD SWAP1 POP PUSH2 0x3B9D DUP2 PUSH2 0x3B79 JUMP JUMPDEST SWAP3 SWAP2 POP POP JUMP JUMPDEST PUSH0 PUSH0 PUSH1 0x40 DUP4 DUP6 SUB SLT ISZERO PUSH2 0x3BB9 JUMPI PUSH2 0x3BB8 PUSH2 0x3541 JUMP JUMPDEST JUMPDEST PUSH0 PUSH2 0x3BC6 DUP6 DUP3 DUP7 ADD PUSH2 0x35C2 JUMP JUMPDEST SWAP3 POP POP PUSH1 0x20 PUSH2 0x3BD7 DUP6 DUP3 DUP7 ADD PUSH2 0x3B8F JUMP JUMPDEST SWAP2 POP POP SWAP3 POP SWAP3 SWAP1 POP JUMP JUMPDEST PUSH2 0x3BEA DUP2 PUSH2 0x3836 JUMP JUMPDEST DUP3 MSTORE POP POP JUMP JUMPDEST PUSH0 PUSH1 0x20 DUP3 ADD SWAP1 POP PUSH2 0x3C03 PUSH0 DUP4 ADD DUP5 PUSH2 0x3BE1 JUMP JUMPDEST SWAP3 SWAP2 POP POP JUMP JUMPDEST PUSH0 PUSH2 0x3C13 DUP3 PUSH2 0x3A83 JUMP JUMPDEST SWAP1 POP SWAP2 SWAP1 POP JUMP JUMPDEST PUSH2 0x3C23 DUP2 PUSH2 0x3C09 JUMP JUMPDEST DUP3 MSTORE POP POP JUMP JUMPDEST PUSH0 PUSH1 0x20 DUP3 ADD SWAP1 POP PUSH2 0x3C3C PUSH0 DUP4 ADD DUP5 PUSH2 0x3C1A JUMP JUMPDEST SWAP3 SWAP2 POP POP JUMP JUMPDEST PUSH0 PUSH2 0x3C4C DUP3 PUSH2 0x3A62 JUMP JUMPDEST SWAP1 POP SWAP2 SWAP1 POP JUMP JUMPDEST PUSH0 PUSH2 0x3C5D DUP3 PUSH2 0x3C42 JUMP JUMPDEST SWAP1 POP SWAP2 SWAP1 POP JUMP JUMPDEST PUSH2 0x3C6D DUP2 PUSH2 0x3C53 JUMP JUMPDEST DUP3 MSTORE POP POP JUMP JUMPDEST PUSH0 PUSH1 0x20 DUP3 ADD SWAP1 POP PUSH2 0x3C86 PUSH0 DUP4 ADD DUP5 PUSH2 0x3C64 JUMP JUMPDEST SWAP3 SWAP2 POP POP JUMP JUMPDEST PUSH0 PUSH2 0x3C96 DUP3 PUSH2 0x3A83 JUMP JUMPDEST SWAP1 POP SWAP2 SWAP1 POP JUMP JUMPDEST PUSH2 0x3CA6 DUP2 PUSH2 0x3C8C JUMP JUMPDEST DUP3 MSTORE POP POP JUMP JUMPDEST PUSH0 PUSH1 0x20 DUP3 ADD SWAP1 POP PUSH2 0x3CBF PUSH0 DUP4 ADD DUP5 PUSH2 0x3C9D JUMP JUMPDEST SWAP3 SWAP2 POP POP JUMP JUMPDEST PUSH0 PUSH1 0x20 DUP3 DUP5 SUB SLT ISZERO PUSH2 0x3CDA JUMPI PUSH2 0x3CD9 PUSH2 0x3541 JUMP JUMPDEST JUMPDEST PUSH0 PUSH2 0x3CE7 DUP5 DUP3 DUP6 ADD PUSH2 0x358F JUMP JUMPDEST SWAP2 POP POP SWAP3 SWAP2 POP POP JUMP JUMPDEST PUSH0 DUP2 MLOAD SWAP1 POP SWAP2 SWAP1 POP JUMP JUMPDEST PUSH0 DUP3 DUP3 MSTORE PUSH1 0x20 DUP3 ADD SWAP1 POP SWAP3 SWAP2 POP POP JUMP JUMPDEST PUSH0 DUP2 SWAP1 POP PUSH1 0x20 DUP3 ADD SWAP1 POP SWAP2 SWAP1 POP JUMP JUMPDEST PUSH0 PUSH2 0x3D24 DUP4 DUP4 PUSH2 0x3818 JUMP JUMPDEST PUSH1 0x20 DUP4 ADD SWAP1 POP SWAP3 SWAP2 POP POP JUMP JUMPDEST PUSH0 PUSH1 0x20 DUP3 ADD SWAP1 POP SWAP2 SWAP1 POP JUMP JUMPDEST PUSH0 PUSH2 0x3D46 DUP3 PUSH2 0x3CF0 JUMP JUMPDEST PUSH2 0x3D50 DUP2 DUP6 PUSH2 0x3CFA JUMP JUMPDEST SWAP4 POP PUSH2 0x3D5B DUP4 PUSH2 0x3D0A JUMP JUMPDEST DUP1 PUSH0 JUMPDEST DUP4 DUP2 LT ISZERO PUSH2 0x3D8B JUMPI DUP2 MLOAD PUSH2 0x3D72 DUP9 DUP3 PUSH2 0x3D19 JUMP JUMPDEST SWAP8 POP PUSH2 0x3D7D DUP4 PUSH2 0x3D30 JUMP JUMPDEST SWAP3 POP POP PUSH1 0x1 DUP2 ADD SWAP1 POP PUSH2 0x3D5E JUMP JUMPDEST POP DUP6 SWAP4 POP POP POP POP SWAP3 SWAP2 POP POP JUMP JUMPDEST PUSH0 PUSH1 0x20 DUP3 ADD SWAP1 POP DUP2 DUP2 SUB PUSH0 DUP4 ADD MSTORE PUSH2 0x3DB0 DUP2 DUP5 PUSH2 0x3D3C JUMP JUMPDEST SWAP1 POP SWAP3 SWAP2 POP POP JUMP JUMPDEST PUSH0 PUSH0 PUSH0 PUSH0 PUSH1 0x60 DUP6 DUP8 SUB SLT ISZERO PUSH2 0x3DD0 JUMPI PUSH2 0x3DCF PUSH2 0x3541 JUMP JUMPDEST JUMPDEST PUSH0 PUSH2 0x3DDD DUP8 DUP3 DUP9 ADD PUSH2 0x3AE3 JUMP JUMPDEST SWAP5 POP POP PUSH1 0x20 DUP6 ADD CALLDATALOAD PUSH8 0xFFFFFFFFFFFFFFFF DUP2 GT ISZERO PUSH2 0x3DFE JUMPI PUSH2 0x3DFD PUSH2 0x3545 JUMP JUMPDEST JUMPDEST PUSH2 0x3E0A DUP8 DUP3 DUP9 ADD PUSH2 0x36B4 JUMP JUMPDEST SWAP4 POP SWAP4 POP POP PUSH1 0x40 PUSH2 0x3E1D DUP8 DUP3 DUP9 ADD PUSH2 0x35C2 JUMP JUMPDEST SWAP2 POP POP SWAP3 SWAP6 SWAP2 SWAP5 POP SWAP3 POP JUMP JUMPDEST PUSH2 0x3E32 DUP2 PUSH2 0x3911 JUMP JUMPDEST DUP3 MSTORE POP POP JUMP JUMPDEST PUSH0 DUP3 DUP3 MSTORE PUSH1 0x20 DUP3 ADD SWAP1 POP SWAP3 SWAP2 POP POP JUMP JUMPDEST PUSH0 PUSH2 0x3E52 DUP3 PUSH2 0x384E JUMP JUMPDEST PUSH2 0x3E5C DUP2 DUP6 PUSH2 0x3E38 JUMP JUMPDEST SWAP4 POP PUSH2 0x3E6C DUP2 DUP6 PUSH1 0x20 DUP7 ADD PUSH2 0x3868 JUMP JUMPDEST PUSH2 0x3E75 DUP2 PUSH2 0x3876 JUMP JUMPDEST DUP5 ADD SWAP2 POP POP SWAP3 SWAP2 POP POP JUMP JUMPDEST PUSH2 0x3E89 DUP2 PUSH2 0x3568 JUMP JUMPDEST DUP3 MSTORE POP POP JUMP JUMPDEST PUSH0 PUSH1 0x80 DUP3 ADD SWAP1 POP PUSH2 0x3EA2 PUSH0 DUP4 ADD DUP8 PUSH2 0x3E29 JUMP JUMPDEST DUP2 DUP2 SUB PUSH1 0x20 DUP4 ADD MSTORE PUSH2 0x3EB4 DUP2 DUP7 PUSH2 0x3E48 JUMP JUMPDEST SWAP1 POP PUSH2 0x3EC3 PUSH1 0x40 DUP4 ADD DUP6 PUSH2 0x3E80 JUMP JUMPDEST PUSH2 0x3ED0 PUSH1 0x60 DUP4 ADD DUP5 PUSH2 0x3614 JUMP JUMPDEST SWAP6 SWAP5 POP POP POP POP POP JUMP JUMPDEST PUSH0 PUSH2 0x180 DUP3 ADD SWAP1 POP PUSH2 0x3EED PUSH0 DUP4 ADD DUP16 PUSH2 0x3614 JUMP JUMPDEST PUSH2 0x3EFA PUSH1 0x20 DUP4 ADD DUP15 PUSH2 0x3E80 JUMP JUMPDEST PUSH2 0x3F07 PUSH1 0x40 DUP4 ADD DUP14 PUSH2 0x3BE1 JUMP JUMPDEST DUP2 DUP2 SUB PUSH1 0x60 DUP4 ADD MSTORE PUSH2 0x3F19 DUP2 DUP13 PUSH2 0x3E48 JUMP JUMPDEST SWAP1 POP PUSH2 0x3F28 PUSH1 0x80 DUP4 ADD DUP12 PUSH2 0x3614 JUMP JUMPDEST PUSH2 0x3F35 PUSH1 0xA0 DUP4 ADD DUP11 PUSH2 0x3E29 JUMP JUMPDEST DUP2 DUP2 SUB PUSH1 0xC0 DUP4 ADD MSTORE PUSH2 0x3F47 DUP2 DUP10 PUSH2 0x3E48 JUMP JUMPDEST SWAP1 POP PUSH2 0x3F56 PUSH1 0xE0 DUP4 ADD DUP9 PUSH2 0x3E80 JUMP JUMPDEST PUSH2 0x3F64 PUSH2 0x100 DUP4 ADD DUP8 PUSH2 0x3E80 JUMP JUMPDEST PUSH2 0x3F72 PUSH2 0x120 DUP4 ADD DUP7 PUSH2 0x3614 JUMP JUMPDEST PUSH2 0x3F80 PUSH2 0x140 DUP4 ADD DUP6 PUSH2 0x3614 JUMP JUMPDEST PUSH2 0x3F8E PUSH2 0x160 DUP4 ADD DUP5 PUSH2 0x3614 JUMP JUMPDEST SWAP14 SWAP13 POP POP POP POP POP POP POP POP POP POP POP POP POP JUMP JUMPDEST PUSH32 0x50656E73696F6E52656769737472793A206170706C69636174696F6E20646F65 PUSH0 DUP3 ADD MSTORE PUSH32 0x73206E6F74206578697374000000000000000000000000000000000000000000 PUSH1 0x20 DUP3 ADD MSTORE POP JUMP JUMPDEST PUSH0 PUSH2 0x3FF9 PUSH1 0x2B DUP4 PUSH2 0x3E38 JUMP JUMPDEST SWAP2 POP PUSH2 0x4004 DUP3 PUSH2 0x3F9F JUMP JUMPDEST PUSH1 0x40 DUP3 ADD SWAP1 POP SWAP2 SWAP1 POP JUMP JUMPDEST PUSH0 PUSH1 0x20 DUP3 ADD SWAP1 POP DUP2 DUP2 SUB PUSH0 DUP4 ADD MSTORE PUSH2 0x4026 DUP2 PUSH2 0x3FED JUMP JUMPDEST SWAP1 POP SWAP2 SWAP1 POP JUMP JUMPDEST PUSH32 0x4E487B7100000000000000000000000000000000000000000000000000000000 PUSH0 MSTORE PUSH1 0x11 PUSH1 0x4 MSTORE PUSH1 0x24 PUSH0 REVERT JUMPDEST PUSH0 PUSH2 0x4064 DUP3 PUSH2 0x35A3 JUMP JUMPDEST SWAP2 POP PUSH2 0x406F DUP4 PUSH2 0x35A3 JUMP JUMPDEST SWAP3 POP DUP3 DUP3 SUB SWAP1 POP DUP2 DUP2 GT ISZERO PUSH2 0x4087 JUMPI PUSH2 0x4086 PUSH2 0x402D JUMP JUMPDEST JUMPDEST SWAP3 SWAP2 POP POP JUMP JUMPDEST PUSH32 0x4E487B7100000000000000000000000000000000000000000000000000000000 PUSH0 MSTORE PUSH1 0x12 PUSH1 0x4 MSTORE PUSH1 0x24 PUSH0 REVERT JUMPDEST PUSH0 PUSH2 0x40C4 DUP3 PUSH2 0x35A3 JUMP JUMPDEST SWAP2 POP PUSH2 0x40CF DUP4 PUSH2 0x35A3 JUMP JUMPDEST SWAP3 POP DUP3 PUSH2 0x40DF JUMPI PUSH2 0x40DE PUSH2 0x408D JUMP JUMPDEST JUMPDEST DUP3 DUP3 DIV SWAP1 POP SWAP3 SWAP2 POP POP JUMP JUMPDEST PUSH0 PUSH0 REVERT JUMPDEST PUSH32 0x4E487B7100000000000000000000000000000000000000000000000000000000 PUSH0 MSTORE PUSH1 0x41 PUSH1 0x4 MSTORE PUSH1 0x24 PUSH0 REVERT JUMPDEST PUSH2 0x4124 DUP3 PUSH2 0x3876 JUMP JUMPDEST DUP2 ADD DUP2 DUP2 LT PUSH8 0xFFFFFFFFFFFFFFFF DUP3 GT OR ISZERO PUSH2 0x4143 JUMPI PUSH2 0x4142 PUSH2 0x40EE JUMP JUMPDEST JUMPDEST DUP1 PUSH1 0x40 MSTORE POP POP POP JUMP JUMPDEST PUSH0 PUSH2 0x4155 PUSH2 0x3538 JUMP JUMPDEST SWAP1 POP PUSH2 0x4161 DUP3 DUP3 PUSH2 0x411B JUMP JUMPDEST SWAP2 SWAP1 POP JUMP JUMPDEST PUSH0 PUSH0 REVERT JUMPDEST PUSH0 DUP2 MLOAD SWAP1 POP PUSH2 0x4178 DUP2 PUSH2 0x35AC JUMP JUMPDEST SWAP3 SWAP2 POP POP JUMP JUMPDEST PUSH0 PUSH0 REVERT JUMPDEST PUSH0 PUSH8 0xFFFFFFFFFFFFFFFF DUP3 GT ISZERO PUSH2 0x419C JUMPI PUSH2 0x419B PUSH2 0x40EE JUMP JUMPDEST JUMPDEST PUSH2 0x41A5 DUP3 PUSH2 0x3876 JUMP JUMPDEST SWAP1 POP PUSH1 0x20 DUP2 ADD SWAP1 POP SWAP2 SWAP1 POP JUMP JUMPDEST PUSH0 PUSH2 0x41C4 PUSH2 0x41BF DUP5 PUSH2 0x4182 JUMP JUMPDEST PUSH2 0x414C JUMP JUMPDEST SWAP1 POP DUP3 DUP2 MSTORE PUSH1 0x20 DUP2 ADD DUP5 DUP5 DUP5 ADD GT ISZERO PUSH2 0x41E0 JUMPI PUSH2 0x41DF PUSH2 0x417E JUMP JUMPDEST JUMPDEST PUSH2 0x41EB DUP5 DUP3 DUP6 PUSH2 0x3868 JUMP JUMPDEST POP SWAP4 SWAP3 POP POP POP JUMP JUMPDEST PUSH0 DUP3 PUSH1 0x1F DUP4 ADD SLT PUSH2 0x4207 JUMPI PUSH2 0x4206 PUSH2 0x36A8 JUMP JUMPDEST JUMPDEST DUP2 MLOAD PUSH2 0x4217 DUP5 DUP3 PUSH1 0x20 DUP7 ADD PUSH2 0x41B2 JUMP JUMPDEST SWAP2 POP POP SWAP3 SWAP2 POP POP JUMP JUMPDEST PUSH0 DUP2 MLOAD SWAP1 POP PUSH2 0x422E DUP2 PUSH2 0x3B79 JUMP JUMPDEST SWAP3 SWAP2 POP POP JUMP JUMPDEST PUSH0 PUSH2 0x120 DUP3 DUP5 SUB SLT ISZERO PUSH2 0x424A JUMPI PUSH2 0x4249 PUSH2 0x40EA JUMP JUMPDEST JUMPDEST PUSH2 0x4255 PUSH2 0x120 PUSH2 0x414C JUMP JUMPDEST SWAP1 POP PUSH0 PUSH2 0x4264 DUP5 DUP3 DUP6 ADD PUSH2 0x416A JUMP JUMPDEST PUSH0 DUP4 ADD MSTORE POP PUSH1 0x20 DUP3 ADD MLOAD PUSH8 0xFFFFFFFFFFFFFFFF DUP2 GT ISZERO PUSH2 0x4287 JUMPI PUSH2 0x4286 PUSH2 0x4166 JUMP JUMPDEST JUMPDEST PUSH2 0x4293 DUP5 DUP3 DUP6 ADD PUSH2 0x41F3 JUMP JUMPDEST PUSH1 0x20 DUP4 ADD MSTORE POP PUSH1 0x40 PUSH2 0x42A7 DUP5 DUP3 DUP6 ADD PUSH2 0x416A JUMP JUMPDEST PUSH1 0x40 DUP4 ADD MSTORE POP PUSH1 0x60 PUSH2 0x42BB DUP5 DUP3 DUP6 ADD PUSH2 0x416A JUMP JUMPDEST PUSH1 0x60 DUP4 ADD MSTORE POP PUSH1 0x80 PUSH2 0x42CF DUP5 DUP3 DUP6 ADD PUSH2 0x416A JUMP JUMPDEST PUSH1 0x80 DUP4 ADD MSTORE POP PUSH1 0xA0 PUSH2 0x42E3 DUP5 DUP3 DUP6 ADD PUSH2 0x416A JUMP JUMPDEST PUSH1 0xA0 DUP4 ADD MSTORE POP PUSH1 0xC0 PUSH2 0x42F7 DUP5 DUP3 DUP6 ADD PUSH2 0x4220 JUMP JUMPDEST PUSH1 0xC0 DUP4 ADD MSTORE POP PUSH1 0xE0 PUSH2 0x430B DUP5 DUP3 DUP6 ADD PUSH2 0x416A JUMP JUMPDEST PUSH1 0xE0 DUP4 ADD MSTORE POP PUSH2 0x100 PUSH2 0x4320 DUP5 DUP3 DUP6 ADD PUSH2 0x416A JUMP JUMPDEST PUSH2 0x100 DUP4 ADD MSTORE POP SWAP3 SWAP2 POP POP JUMP JUMPDEST PUSH0 PUSH1 0x20 DUP3 DUP5 SUB SLT ISZERO PUSH2 0x4342 JUMPI PUSH2 0x4341 PUSH2 0x3541 JUMP JUMPDEST JUMPDEST PUSH0 DUP3 ADD MLOAD PUSH8 0xFFFFFFFFFFFFFFFF DUP2 GT ISZERO PUSH2 0x435F JUMPI PUSH2 0x435E PUSH2 0x3545 JUMP JUMPDEST JUMPDEST PUSH2 0x436B DUP5 DUP3 DUP6 ADD PUSH2 0x4234 JUMP JUMPDEST SWAP2 POP POP SWAP3 SWAP2 POP POP JUMP JUMPDEST PUSH32 0x526F6C654163636573733A2063616C6C657220646F6573206E6F742068617665 PUSH0 DUP3 ADD MSTORE PUSH32 0x20726571756972656420726F6C65000000000000000000000000000000000000 PUSH1 0x20 DUP3 ADD MSTORE POP JUMP JUMPDEST PUSH0 PUSH2 0x43CE PUSH1 0x2E DUP4 PUSH2 0x3E38 JUMP JUMPDEST SWAP2 POP PUSH2 0x43D9 DUP3 PUSH2 0x4374 JUMP JUMPDEST PUSH1 0x40 DUP3 ADD SWAP1 POP SWAP2 SWAP1 POP JUMP JUMPDEST PUSH0 PUSH1 0x20 DUP3 ADD SWAP1 POP DUP2 DUP2 SUB PUSH0 DUP4 ADD MSTORE PUSH2 0x43FB DUP2 PUSH2 0x43C2 JUMP JUMPDEST SWAP1 POP SWAP2 SWAP1 POP JUMP JUMPDEST PUSH32 0x50656E73696F6E52656769737472793A2072656A656374696F6E20726561736F PUSH0 DUP3 ADD MSTORE PUSH32 0x6E206973206D616E6461746F7279000000000000000000000000000000000000 PUSH1 0x20 DUP3 ADD MSTORE POP JUMP JUMPDEST PUSH0 PUSH2 0x445C PUSH1 0x2E DUP4 PUSH2 0x3E38 JUMP JUMPDEST SWAP2 POP PUSH2 0x4467 DUP3 PUSH2 0x4402 JUMP JUMPDEST PUSH1 0x40 DUP3 ADD SWAP1 POP SWAP2 SWAP1 POP JUMP JUMPDEST PUSH0 PUSH1 0x20 DUP3 ADD SWAP1 POP DUP2 DUP2 SUB PUSH0 DUP4 ADD MSTORE PUSH2 0x4489 DUP2 PUSH2 0x4450 JUMP JUMPDEST SWAP1 POP SWAP2 SWAP1 POP JUMP JUMPDEST PUSH32 0x50656E73696F6E52656769737472793A206170706C69636174696F6E20697320 PUSH0 DUP3 ADD MSTORE PUSH32 0x6E6F7420726561647920666F722072656A656374696F6E000000000000000000 PUSH1 0x20 DUP3 ADD MSTORE POP JUMP JUMPDEST PUSH0 PUSH2 0x44EA PUSH1 0x37 DUP4 PUSH2 0x3E38 JUMP JUMPDEST SWAP2 POP PUSH2 0x44F5 DUP3 PUSH2 0x4490 JUMP JUMPDEST PUSH1 0x40 DUP3 ADD SWAP1 POP SWAP2 SWAP1 POP JUMP JUMPDEST PUSH0 PUSH1 0x20 DUP3 ADD SWAP1 POP DUP2 DUP2 SUB PUSH0 DUP4 ADD MSTORE PUSH2 0x4517 DUP2 PUSH2 0x44DE JUMP JUMPDEST SWAP1 POP SWAP2 SWAP1 POP JUMP JUMPDEST PUSH0 DUP3 SWAP1 POP SWAP3 SWAP2 POP POP JUMP JUMPDEST PUSH32 0x4E487B7100000000000000000000000000000000000000000000000000000000 PUSH0 MSTORE PUSH1 0x22 PUSH1 0x4 MSTORE PUSH1 0x24 PUSH0 REVERT JUMPDEST PUSH0 PUSH1 0x2 DUP3 DIV SWAP1 POP PUSH1 0x1 DUP3 AND DUP1 PUSH2 0x456C JUMPI PUSH1 0x7F DUP3 AND SWAP2 POP JUMPDEST PUSH1 0x20 DUP3 LT DUP2 SUB PUSH2 0x457F JUMPI PUSH2 0x457E PUSH2 0x4528 JUMP JUMPDEST JUMPDEST POP SWAP2 SWAP1 POP JUMP JUMPDEST PUSH0 DUP2 SWAP1 POP DUP2 PUSH0 MSTORE PUSH1 0x20 PUSH0 KECCAK256 SWAP1 POP SWAP2 SWAP1 POP JUMP JUMPDEST PUSH0 PUSH1 0x20 PUSH1 0x1F DUP4 ADD DIV SWAP1 POP SWAP2 SWAP1 POP JUMP JUMPDEST PUSH0 DUP3 DUP3 SHL SWAP1 POP SWAP3 SWAP2 POP POP JUMP JUMPDEST PUSH0 PUSH1 0x8 DUP4 MUL PUSH2 0x45E1 PUSH32 0xFFFFFFFFFFFFFFFFFFFFFFFFFFFFFFFFFFFFFFFFFFFFFFFFFFFFFFFFFFFFFFFF DUP3 PUSH2 0x45A6 JUMP JUMPDEST PUSH2 0x45EB DUP7 DUP4 PUSH2 0x45A6 JUMP JUMPDEST SWAP6 POP DUP1 NOT DUP5 AND SWAP4 POP DUP1 DUP7 AND DUP5 OR SWAP3 POP POP POP SWAP4 SWAP3 POP POP POP JUMP JUMPDEST PUSH0 PUSH2 0x461D PUSH2 0x4618 PUSH2 0x4613 DUP5 PUSH2 0x35A3 JUMP JUMPDEST PUSH2 0x3A59 JUMP JUMPDEST PUSH2 0x35A3 JUMP JUMPDEST SWAP1 POP SWAP2 SWAP1 POP JUMP JUMPDEST PUSH0 DUP2 SWAP1 POP SWAP2 SWAP1 POP JUMP JUMPDEST PUSH2 0x4636 DUP4 PUSH2 0x4603 JUMP JUMPDEST PUSH2 0x464A PUSH2 0x4642 DUP3 PUSH2 0x4624 JUMP JUMPDEST DUP5 DUP5 SLOAD PUSH2 0x45B2 JUMP JUMPDEST DUP3 SSTORE POP POP POP POP JUMP JUMPDEST PUSH0 PUSH0 SWAP1 POP SWAP1 JUMP JUMPDEST PUSH2 0x4661 PUSH2 0x4652 JUMP JUMPDEST PUSH2 0x466C DUP2 DUP5 DUP5 PUSH2 0x462D JUMP JUMPDEST POP POP POP JUMP JUMPDEST JUMPDEST DUP2 DUP2 LT ISZERO PUSH2 0x468F JUMPI PUSH2 0x4684 PUSH0 DUP3 PUSH2 0x4659 JUMP JUMPDEST PUSH1 0x1 DUP2 ADD SWAP1 POP PUSH2 0x4672 JUMP JUMPDEST POP POP JUMP JUMPDEST PUSH1 0x1F DUP3 GT ISZERO PUSH2 0x46D4 JUMPI PUSH2 0x46A5 DUP2 PUSH2 0x4585 JUMP JUMPDEST PUSH2 0x46AE DUP5 PUSH2 0x4597 JUMP JUMPDEST DUP2 ADD PUSH1 0x20 DUP6 LT ISZERO PUSH2 0x46BD JUMPI DUP2 SWAP1 POP JUMPDEST PUSH2 0x46D1 PUSH2 0x46C9 DUP6 PUSH2 0x4597 JUMP JUMPDEST DUP4 ADD DUP3 PUSH2 0x4671 JUMP JUMPDEST POP POP JUMPDEST POP POP POP JUMP JUMPDEST PUSH0 DUP3 DUP3 SHR SWAP1 POP SWAP3 SWAP2 POP POP JUMP JUMPDEST PUSH0 PUSH2 0x46F4 PUSH0 NOT DUP5 PUSH1 0x8 MUL PUSH2 0x46D9 JUMP JUMPDEST NOT DUP1 DUP4 AND SWAP2 POP POP SWAP3 SWAP2 POP POP JUMP JUMPDEST PUSH0 PUSH2 0x470C DUP4 DUP4 PUSH2 0x46E5 JUMP JUMPDEST SWAP2 POP DUP3 PUSH1 0x2 MUL DUP3 OR SWAP1 POP SWAP3 SWAP2 POP POP JUMP JUMPDEST PUSH2 0x4726 DUP4 DUP4 PUSH2 0x451E JUMP JUMPDEST PUSH8 0xFFFFFFFFFFFFFFFF DUP2 GT ISZERO PUSH2 0x473F JUMPI PUSH2 0x473E PUSH2 0x40EE JUMP JUMPDEST JUMPDEST PUSH2 0x4749 DUP3 SLOAD PUSH2 0x4555 JUMP JUMPDEST PUSH2 0x4754 DUP3 DUP3 DUP6 PUSH2 0x4693 JUMP JUMPDEST PUSH0 PUSH1 0x1F DUP4 GT PUSH1 0x1 DUP2 EQ PUSH2 0x4781 JUMPI PUSH0 DUP5 ISZERO PUSH2 0x476F JUMPI DUP3 DUP8 ADD CALLDATALOAD SWAP1 POP JUMPDEST PUSH2 0x4779 DUP6 DUP3 PUSH2 0x4701 JUMP JUMPDEST DUP7 SSTORE POP PUSH2 0x47E0 JUMP JUMPDEST PUSH1 0x1F NOT DUP5 AND PUSH2 0x478F DUP7 PUSH2 0x4585 JUMP JUMPDEST PUSH0 JUMPDEST DUP3 DUP2 LT ISZERO PUSH2 0x47B6 JUMPI DUP5 DUP10 ADD CALLDATALOAD DUP3 SSTORE PUSH1 0x1 DUP3 ADD SWAP2 POP PUSH1 0x20 DUP6 ADD SWAP5 POP PUSH1 0x20 DUP2 ADD SWAP1 POP PUSH2 0x4791 JUMP JUMPDEST DUP7 DUP4 LT ISZERO PUSH2 0x47D3 JUMPI DUP5 DUP10 ADD CALLDATALOAD PUSH2 0x47CF PUSH1 0x1F DUP10 AND DUP3 PUSH2 0x46E5 JUMP JUMPDEST DUP4 SSTORE POP JUMPDEST PUSH1 0x1 PUSH1 0x2 DUP9 MUL ADD DUP9 SSTORE POP POP POP JUMPDEST POP POP POP POP POP POP POP JUMP JUMPDEST PUSH1 0x7 DUP2 LT PUSH2 0x47FA JUMPI PUSH2 0x47F9 PUSH2 0x38BE JUMP JUMPDEST JUMPDEST POP JUMP JUMPDEST PUSH0 DUP2 SWAP1 POP PUSH2 0x480A DUP3 PUSH2 0x47E9 JUMP JUMPDEST SWAP2 SWAP1 POP JUMP JUMPDEST PUSH0 PUSH2 0x4819 DUP3 PUSH2 0x47FD JUMP JUMPDEST SWAP1 POP SWAP2 SWAP1 POP JUMP JUMPDEST PUSH2 0x4829 DUP2 PUSH2 0x480F JUMP JUMPDEST DUP3 MSTORE POP POP JUMP JUMPDEST DUP3 DUP2 DUP4 CALLDATACOPY PUSH0 DUP4 DUP4 ADD MSTORE POP POP POP JUMP JUMPDEST PUSH0 PUSH2 0x4848 DUP4 DUP6 PUSH2 0x3E38 JUMP JUMPDEST SWAP4 POP PUSH2 0x4855 DUP4 DUP6 DUP5 PUSH2 0x482F JUMP JUMPDEST PUSH2 0x485E DUP4 PUSH2 0x3876 JUMP JUMPDEST DUP5 ADD SWAP1 POP SWAP4 SWAP3 POP POP POP JUMP JUMPDEST PUSH0 PUSH1 0x80 DUP3 ADD SWAP1 POP PUSH2 0x487C PUSH0 DUP4 ADD DUP9 PUSH2 0x3614 JUMP JUMPDEST PUSH2 0x4889 PUSH1 0x20 DUP4 ADD DUP8 PUSH2 0x3E80 JUMP JUMPDEST PUSH2 0x4896 PUSH1 0x40 DUP4 ADD DUP7 PUSH2 0x4820 JUMP JUMPDEST DUP2 DUP2 SUB PUSH1 0x60 DUP4 ADD MSTORE PUSH2 0x48A9 DUP2 DUP5 DUP7 PUSH2 0x483D JUMP JUMPDEST SWAP1 POP SWAP7 SWAP6 POP POP POP POP POP POP JUMP JUMPDEST PUSH0 PUSH1 0x40 DUP3 ADD SWAP1 POP DUP2 DUP2 SUB PUSH0 DUP4 ADD MSTORE PUSH2 0x48CE DUP2 DUP6 DUP8 PUSH2 0x483D JUMP JUMPDEST SWAP1 POP PUSH2 0x48DD PUSH1 0x20 DUP4 ADD DUP5 PUSH2 0x3614 JUMP JUMPDEST SWAP5 SWAP4 POP POP POP POP JUMP JUMPDEST PUSH32 0x526F6C654163636573733A2063616C6C6572206973206E6F742061646D696E00 PUSH0 DUP3 ADD MSTORE POP JUMP JUMPDEST PUSH0 PUSH2 0x4919 PUSH1 0x1F DUP4 PUSH2 0x3E38 JUMP JUMPDEST SWAP2 POP PUSH2 0x4924 DUP3 PUSH2 0x48E5 JUMP JUMPDEST PUSH1 0x20 DUP3 ADD SWAP1 POP SWAP2 SWAP1 POP JUMP JUMPDEST PUSH0 PUSH1 0x20 DUP3 ADD SWAP1 POP DUP2 DUP2 SUB PUSH0 DUP4 ADD MSTORE PUSH2 0x4946 DUP2 PUSH2 0x490D JUMP JUMPDEST SWAP1 POP SWAP2 SWAP1 POP JUMP JUMPDEST PUSH32 0x4E487B7100000000000000000000000000000000000000000000000000000000 PUSH0 MSTORE PUSH1 0x32 PUSH1 0x4 MSTORE PUSH1 0x24 PUSH0 REVERT JUMPDEST PUSH32 0x50656E73696F6E52656769737472793A206170706C69636174696F6E20697320 PUSH0 DUP3 ADD MSTORE PUSH32 0x6E6F7420726561647920666F7220617070726F76616C00000000000000000000 PUSH1 0x20 DUP3 ADD MSTORE POP JUMP JUMPDEST PUSH0 PUSH2 0x49D4 PUSH1 0x36 DUP4 PUSH2 0x3E38 JUMP JUMPDEST SWAP2 POP PUSH2 0x49DF DUP3 PUSH2 0x497A JUMP JUMPDEST PUSH1 0x40 DUP3 ADD SWAP1 POP SWAP2 SWAP1 POP JUMP JUMPDEST PUSH0 PUSH1 0x20 DUP3 ADD SWAP1 POP DUP2 DUP2 SUB PUSH0 DUP4 ADD MSTORE PUSH2 0x4A01 DUP2 PUSH2 0x49C8 JUMP JUMPDEST SWAP1 POP SWAP2 SWAP1 POP JUMP JUMPDEST PUSH32 0x4170706C69636174696F6E20617070726F766564206279205374617465205765 PUSH0 DUP3 ADD MSTORE PUSH32 0x6C66617265204465706172746D656E7400000000000000000000000000000000 PUSH1 0x20 DUP3 ADD MSTORE POP JUMP JUMPDEST PUSH0 PUSH2 0x4A62 PUSH1 0x30 DUP4 PUSH2 0x3E38 JUMP JUMPDEST SWAP2 POP PUSH2 0x4A6D DUP3 PUSH2 0x4A08 JUMP JUMPDEST PUSH1 0x40 DUP3 ADD SWAP1 POP SWAP2 SWAP1 POP JUMP JUMPDEST PUSH0 PUSH1 0x80 DUP3 ADD SWAP1 POP PUSH2 0x4A8B PUSH0 DUP4 ADD DUP7 PUSH2 0x3614 JUMP JUMPDEST PUSH2 0x4A98 PUSH1 0x20 DUP4 ADD DUP6 PUSH2 0x3E80 JUMP JUMPDEST PUSH2 0x4AA5 PUSH1 0x40 DUP4 ADD DUP5 PUSH2 0x4820 JUMP JUMPDEST DUP2 DUP2 SUB PUSH1 0x60 DUP4 ADD MSTORE PUSH2 0x4AB6 DUP2 PUSH2 0x4A56 JUMP JUMPDEST SWAP1 POP SWAP5 SWAP4 POP POP POP POP JUMP JUMPDEST PUSH32 0x526F6C654163636573733A2063616E6E6F74206772616E7420726F6C6520746F PUSH0 DUP3 ADD MSTORE PUSH32 0x207A65726F206164647265737300000000000000000000000000000000000000 PUSH1 0x20 DUP3 ADD MSTORE POP JUMP JUMPDEST PUSH0 PUSH2 0x4B1A PUSH1 0x2D DUP4 PUSH2 0x3E38 JUMP JUMPDEST SWAP2 POP PUSH2 0x4B25 DUP3 PUSH2 0x4AC0 JUMP JUMPDEST PUSH1 0x40 DUP3 ADD SWAP1 POP SWAP2 SWAP1 POP JUMP JUMPDEST PUSH0 PUSH1 0x20 DUP3 ADD SWAP1 POP DUP2 DUP2 SUB PUSH0 DUP4 ADD MSTORE PUSH2 0x4B47 DUP2 PUSH2 0x4B0E JUMP JUMPDEST SWAP1 POP SWAP2 SWAP1 POP JUMP JUMPDEST PUSH32 0x526F6C654163636573733A206163636F756E7420616C72656164792068617320 PUSH0 DUP3 ADD MSTORE PUSH32 0x7468697320726F6C650000000000000000000000000000000000000000000000 PUSH1 0x20 DUP3 ADD MSTORE POP JUMP JUMPDEST PUSH0 PUSH2 0x4BA8 PUSH1 0x29 DUP4 PUSH2 0x3E38 JUMP JUMPDEST SWAP2 POP PUSH2 0x4BB3 DUP3 PUSH2 0x4B4E JUMP JUMPDEST PUSH1 0x40 DUP3 ADD SWAP1 POP SWAP2 SWAP1 POP JUMP JUMPDEST PUSH0 PUSH1 0x20 DUP3 ADD SWAP1 POP DUP2 DUP2 SUB PUSH0 DUP4 ADD MSTORE PUSH2 0x4BD5 DUP2 PUSH2 0x4B9C JUMP JUMPDEST SWAP1 POP SWAP2 SWAP1 POP JUMP JUMPDEST PUSH32 0x50656E73696F6E52656769737472793A206E6F7420696E206469737075746564 PUSH0 DUP3 ADD MSTORE PUSH32 0x2073746174650000000000000000000000000000000000000000000000000000 PUSH1 0x20 DUP3 ADD MSTORE POP JUMP JUMPDEST PUSH0 PUSH2 0x4C36 PUSH1 0x26 DUP4 PUSH2 0x3E38 JUMP JUMPDEST SWAP2 POP PUSH2 0x4C41 DUP3 PUSH2 0x4BDC JUMP JUMPDEST PUSH1 0x40 DUP3 ADD SWAP1 POP SWAP2 SWAP1 POP JUMP JUMPDEST PUSH0 PUSH1 0x20 DUP3 ADD SWAP1 POP DUP2 DUP2 SUB PUSH0 DUP4 ADD MSTORE PUSH2 0x4C63 DUP2 PUSH2 0x4C2A JUMP JUMPDEST SWAP1 POP SWAP2 SWAP1 POP JUMP JUMPDEST PUSH0 PUSH1 0x80 DUP3 ADD SWAP1 POP PUSH2 0x4C7D PUSH0 DUP4 ADD DUP8 PUSH2 0x3614 JUMP JUMPDEST PUSH2 0x4C8A PUSH1 0x20 DUP4 ADD DUP7 PUSH2 0x3E80 JUMP JUMPDEST PUSH2 0x4C97 PUSH1 0x40 DUP4 ADD DUP6 PUSH2 0x4820 JUMP JUMPDEST DUP2 DUP2 SUB PUSH1 0x60 DUP4 ADD MSTORE PUSH2 0x4CA9 DUP2 DUP5 PUSH2 0x3E48 JUMP JUMPDEST SWAP1 POP SWAP6 SWAP5 POP POP POP POP POP JUMP JUMPDEST PUSH32 0x50656E73696F6E52656769737472793A206170706C69636174696F6E206D7573 PUSH0 DUP3 ADD MSTORE PUSH32 0x7420626520696E205355424D4954544544207374617465000000000000000000 PUSH1 0x20 DUP3 ADD MSTORE POP JUMP JUMPDEST PUSH0 PUSH2 0x4D0E PUSH1 0x37 DUP4 PUSH2 0x3E38 JUMP JUMPDEST SWAP2 POP PUSH2 0x4D19 DUP3 PUSH2 0x4CB4 JUMP JUMPDEST PUSH1 0x40 DUP3 ADD SWAP1 POP SWAP2 SWAP1 POP JUMP JUMPDEST PUSH0 PUSH1 0x20 DUP3 ADD SWAP1 POP DUP2 DUP2 SUB PUSH0 DUP4 ADD MSTORE PUSH2 0x4D3B DUP2 PUSH2 0x4D02 JUMP JUMPDEST SWAP1 POP SWAP2 SWAP1 POP JUMP JUMPDEST PUSH32 0x526576696577207374617274656420627920676F7665726E6D656E74206F6666 PUSH0 DUP3 ADD MSTORE PUSH32 0x696369616C000000000000000000000000000000000000000000000000000000 PUSH1 0x20 DUP3 ADD MSTORE POP JUMP JUMPDEST PUSH0 PUSH2 0x4D9C PUSH1 0x25 DUP4 PUSH2 0x3E38 JUMP JUMPDEST SWAP2 POP PUSH2 0x4DA7 DUP3 PUSH2 0x4D42 JUMP JUMPDEST PUSH1 0x40 DUP3 ADD SWAP1 POP SWAP2 SWAP1 POP JUMP JUMPDEST PUSH0 PUSH1 0x80 DUP3 ADD SWAP1 POP PUSH2 0x4DC5 PUSH0 DUP4 ADD DUP7 PUSH2 0x3614 JUMP JUMPDEST PUSH2 0x4DD2 PUSH1 0x20 DUP4 ADD DUP6 PUSH2 0x3E80 JUMP JUMPDEST PUSH2 0x4DDF PUSH1 0x40 DUP4 ADD DUP5 PUSH2 0x4820 JUMP JUMPDEST DUP2 DUP2 SUB PUSH1 0x60 DUP4 ADD MSTORE PUSH2 0x4DF0 DUP2 PUSH2 0x4D90 JUMP JUMPDEST SWAP1 POP SWAP5 SWAP4 POP POP POP POP JUMP JUMPDEST PUSH32 0x526F6C654163636573733A2063616C6C657220646F6573206E6F742068617665 PUSH0 DUP3 ADD MSTORE PUSH32 0x207468697320726F6C6500000000000000000000000000000000000000000000 PUSH1 0x20 DUP3 ADD MSTORE POP JUMP JUMPDEST PUSH0 PUSH2 0x4E54 PUSH1 0x2A DUP4 PUSH2 0x3E38 JUMP JUMPDEST SWAP2 POP PUSH2 0x4E5F DUP3 PUSH2 0x4DFA JUMP JUMPDEST PUSH1 0x40 DUP3 ADD SWAP1 POP SWAP2 SWAP1 POP JUMP JUMPDEST PUSH0 PUSH1 0x20 DUP3 ADD SWAP1 POP DUP2 DUP2 SUB PUSH0 DUP4 ADD MSTORE PUSH2 0x4E81 DUP2 PUSH2 0x4E48 JUMP JUMPDEST SWAP1 POP SWAP2 SWAP1 POP JUMP JUMPDEST PUSH32 0x50656E73696F6E52656769737472793A206F6E6C79206170706C6963616E7420 PUSH0 DUP3 ADD MSTORE PUSH32 0x63616E2072616973652064697370757465000000000000000000000000000000 PUSH1 0x20 DUP3 ADD MSTORE POP JUMP JUMPDEST PUSH0 PUSH2 0x4EE2 PUSH1 0x31 DUP4 PUSH2 0x3E38 JUMP JUMPDEST SWAP2 POP PUSH2 0x4EED DUP3 PUSH2 0x4E88 JUMP JUMPDEST PUSH1 0x40 DUP3 ADD SWAP1 POP SWAP2 SWAP1 POP JUMP JUMPDEST PUSH0 PUSH1 0x20 DUP3 ADD SWAP1 POP DUP2 DUP2 SUB PUSH0 DUP4 ADD MSTORE PUSH2 0x4F0F DUP2 PUSH2 0x4ED6 JUMP JUMPDEST SWAP1 POP SWAP2 SWAP1 POP JUMP JUMPDEST PUSH32 0x50656E73696F6E52656769737472793A2063616E206F6E6C7920646973707574 PUSH0 DUP3 ADD MSTORE PUSH32 0x6520612072656A656374696F6E00000000000000000000000000000000000000 PUSH1 0x20 DUP3 ADD MSTORE POP JUMP JUMPDEST PUSH0 PUSH2 0x4F70 PUSH1 0x2D DUP4 PUSH2 0x3E38 JUMP JUMPDEST SWAP2 POP PUSH2 0x4F7B DUP3 PUSH2 0x4F16 JUMP JUMPDEST PUSH1 0x40 DUP3 ADD SWAP1 POP SWAP2 SWAP1 POP JUMP JUMPDEST PUSH0 PUSH1 0x20 DUP3 ADD SWAP1 POP DUP2 DUP2 SUB PUSH0 DUP4 ADD MSTORE PUSH2 0x4F9D DUP2 PUSH2 0x4F64 JUMP JUMPDEST SWAP1 POP SWAP2 SWAP1 POP JUMP JUMPDEST PUSH0 PUSH2 0x4FAE DUP3 PUSH2 0x35A3 JUMP JUMPDEST SWAP2 POP PUSH2 0x4FB9 DUP4 PUSH2 0x35A3 JUMP JUMPDEST SWAP3 POP DUP3 DUP3 ADD SWAP1 POP DUP1 DUP3 GT ISZERO PUSH2 0x4FD1 JUMPI PUSH2 0x4FD0 PUSH2 0x402D JUMP JUMPDEST JUMPDEST SWAP3 SWAP2 POP POP JUMP JUMPDEST PUSH32 0x50656E73696F6E52656769737472793A20646973707574652077696E646F7720 PUSH0 DUP3 ADD MSTORE PUSH32 0x6F66203330206461797320686173207061737365640000000000000000000000 PUSH1 0x20 DUP3 ADD MSTORE POP JUMP JUMPDEST PUSH0 PUSH2 0x5031 PUSH1 0x35 DUP4 PUSH2 0x3E38 JUMP JUMPDEST SWAP2 POP PUSH2 0x503C DUP3 PUSH2 0x4FD7 JUMP JUMPDEST PUSH1 0x40 DUP3 ADD SWAP1 POP SWAP2 SWAP1 POP JUMP JUMPDEST PUSH0 PUSH1 0x20 DUP3 ADD SWAP1 POP DUP2 DUP2 SUB PUSH0 DUP4 ADD MSTORE PUSH2 0x505E DUP2 PUSH2 0x5025 JUMP JUMPDEST SWAP1 POP SWAP2 SWAP1 POP JUMP JUMPDEST PUSH32 0x42656E6566696369617279207261697365642061206469737075746520616761 PUSH0 DUP3 ADD MSTORE PUSH32 0x696E7374207468652072656A656374696F6E206465636973696F6E0000000000 PUSH1 0x20 DUP3 ADD MSTORE POP JUMP JUMPDEST PUSH0 PUSH2 0x50BF PUSH1 0x3B DUP4 PUSH2 0x3E38 JUMP JUMPDEST SWAP2 POP PUSH2 0x50CA DUP3 PUSH2 0x5065 JUMP JUMPDEST PUSH1 0x40 DUP3 ADD SWAP1 POP SWAP2 SWAP1 POP JUMP JUMPDEST PUSH0 PUSH1 0x80 DUP3 ADD SWAP1 POP PUSH2 0x50E8 PUSH0 DUP4 ADD DUP7 PUSH2 0x3614 JUMP JUMPDEST PUSH2 0x50F5 PUSH1 0x20 DUP4 ADD DUP6 PUSH2 0x3E80 JUMP JUMPDEST PUSH2 0x5102 PUSH1 0x40 DUP4 ADD DUP5 PUSH2 0x4820 JUMP JUMPDEST DUP2 DUP2 SUB PUSH1 0x60 DUP4 ADD MSTORE PUSH2 0x5113 DUP2 PUSH2 0x50B3 JUMP JUMPDEST SWAP1 POP SWAP5 SWAP4 POP POP POP POP JUMP JUMPDEST PUSH32 0x50656E73696F6E52656769737472793A20696E76616C69642041616468616172 PUSH0 DUP3 ADD MSTORE PUSH32 0x2068617368000000000000000000000000000000000000000000000000000000 PUSH1 0x20 DUP3 ADD MSTORE POP JUMP JUMPDEST PUSH0 PUSH2 0x5177 PUSH1 0x25 DUP4 PUSH2 0x3E38 JUMP JUMPDEST SWAP2 POP PUSH2 0x5182 DUP3 PUSH2 0x511D JUMP JUMPDEST PUSH1 0x40 DUP3 ADD SWAP1 POP SWAP2 SWAP1 POP JUMP JUMPDEST PUSH0 PUSH1 0x20 DUP3 ADD SWAP1 POP DUP2 DUP2 SUB PUSH0 DUP4 ADD MSTORE PUSH2 0x51A4 DUP2 PUSH2 0x516B JUMP JUMPDEST SWAP1 POP SWAP2 SWAP1 POP JUMP JUMPDEST PUSH32 0x50656E73696F6E52656769737472793A2049504653204349442063616E6E6F74 PUSH0 DUP3 ADD MSTORE PUSH32 0x20626520656D7074790000000000000000000000000000000000000000000000 PUSH1 0x20 DUP3 ADD MSTORE POP JUMP JUMPDEST PUSH0 PUSH2 0x5205 PUSH1 0x29 DUP4 PUSH2 0x3E38 JUMP JUMPDEST SWAP2 POP PUSH2 0x5210 DUP3 PUSH2 0x51AB JUMP JUMPDEST PUSH1 0x40 DUP3 ADD SWAP1 POP SWAP2 SWAP1 POP JUMP JUMPDEST PUSH0 PUSH1 0x20 DUP3 ADD SWAP1 POP DUP2 DUP2 SUB PUSH0 DUP4 ADD MSTORE PUSH2 0x5232 DUP2 PUSH2 0x51F9 JUMP JUMPDEST SWAP1 POP SWAP2 SWAP1 POP JUMP JUMPDEST PUSH0 PUSH1 0x20 DUP3 DUP5 SUB SLT ISZERO PUSH2 0x524E JUMPI PUSH2 0x524D PUSH2 0x3541 JUMP JUMPDEST JUMPDEST PUSH0 PUSH2 0x525B DUP5 DUP3 DUP6 ADD PUSH2 0x4220 JUMP JUMPDEST SWAP2 POP POP SWAP3 SWAP2 POP POP JUMP JUMPDEST PUSH32 0x50656E73696F6E52656769737472793A20736368656D65206973206E6F742061 PUSH0 DUP3 ADD MSTORE PUSH32 0x6374697665000000000000000000000000000000000000000000000000000000 PUSH1 0x20 DUP3 ADD MSTORE POP JUMP JUMPDEST PUSH0 PUSH2 0x52BE PUSH1 0x25 DUP4 PUSH2 0x3E38 JUMP JUMPDEST SWAP2 POP PUSH2 0x52C9 DUP3 PUSH2 0x5264 JUMP JUMPDEST PUSH1 0x40 DUP3 ADD SWAP1 POP SWAP2 SWAP1 POP JUMP JUMPDEST PUSH0 PUSH1 0x20 DUP3 ADD SWAP1 POP DUP2 DUP2 SUB PUSH0 DUP4 ADD MSTORE PUSH2 0x52EB DUP2 PUSH2 0x52B2 JUMP JUMPDEST SWAP1 POP SWAP2 SWAP1 POP JUMP JUMPDEST PUSH32 0x50656E73696F6E52656769737472793A204161646861617220616C7265616479 PUSH0 DUP3 ADD MSTORE PUSH32 0x2068617320616E20616374697665206170706C69636174696F6E202D20647570 PUSH1 0x20 DUP3 ADD MSTORE PUSH32 0x6C69636174652070726576656E74656400000000000000000000000000000000 PUSH1 0x40 DUP3 ADD MSTORE POP JUMP JUMPDEST PUSH0 PUSH2 0x5372 PUSH1 0x50 DUP4 PUSH2 0x3E38 JUMP JUMPDEST SWAP2 POP PUSH2 0x537D DUP3 PUSH2 0x52F2 JUMP JUMPDEST PUSH1 0x60 DUP3 ADD SWAP1 POP SWAP2 SWAP1 POP JUMP JUMPDEST PUSH0 PUSH1 0x20 DUP3 ADD SWAP1 POP DUP2 DUP2 SUB PUSH0 DUP4 ADD MSTORE PUSH2 0x539F DUP2 PUSH2 0x5366 JUMP JUMPDEST SWAP1 POP SWAP2 SWAP1 POP JUMP JUMPDEST PUSH0 PUSH2 0x53B0 DUP3 PUSH2 0x35A3 JUMP JUMPDEST SWAP2 POP PUSH32 0xFFFFFFFFFFFFFFFFFFFFFFFFFFFFFFFFFFFFFFFFFFFFFFFFFFFFFFFFFFFFFFFF DUP3 SUB PUSH2 0x53E2 JUMPI PUSH2 0x53E1 PUSH2 0x402D JUMP JUMPDEST JUMPDEST PUSH1 0x1 DUP3 ADD SWAP1 POP SWAP2 SWAP1 POP JUMP JUMPDEST PUSH2 0x53F6 DUP3 PUSH2 0x384E JUMP JUMPDEST PUSH8 0xFFFFFFFFFFFFFFFF DUP2 GT ISZERO PUSH2 0x540F JUMPI PUSH2 0x540E PUSH2 0x40EE JUMP JUMPDEST JUMPDEST PUSH2 0x5419 DUP3 SLOAD PUSH2 0x4555 JUMP JUMPDEST PUSH2 0x5424 DUP3 DUP3 DUP6 PUSH2 0x4693 JUMP JUMPDEST PUSH0 PUSH1 0x20 SWAP1 POP PUSH1 0x1F DUP4 GT PUSH1 0x1 DUP2 EQ PUSH2 0x5455 JUMPI PUSH0 DUP5 ISZERO PUSH2 0x5443 JUMPI DUP3 DUP8 ADD MLOAD SWAP1 POP JUMPDEST PUSH2 0x544D DUP6 DUP3 PUSH2 0x4701 JUMP JUMPDEST DUP7 SSTORE POP PUSH2 0x54B4 JUMP JUMPDEST PUSH1 0x1F NOT DUP5 AND PUSH2 0x5463 DUP7 PUSH2 0x4585 JUMP JUMPDEST PUSH0 JUMPDEST DUP3 DUP2 LT ISZERO PUSH2 0x548A JUMPI DUP5 DUP10 ADD MLOAD DUP3 SSTORE PUSH1 0x1 DUP3 ADD SWAP2 POP PUSH1 0x20 DUP6 ADD SWAP5 POP PUSH1 0x20 DUP2 ADD SWAP1 POP PUSH2 0x5465 JUMP JUMPDEST DUP7 DUP4 LT ISZERO PUSH2 0x54A7 JUMPI DUP5 DUP10 ADD MLOAD PUSH2 0x54A3 PUSH1 0x1F DUP10 AND DUP3 PUSH2 0x46E5 JUMP JUMPDEST DUP4 SSTORE POP JUMPDEST PUSH1 0x1 PUSH1 0x2 DUP9 MUL ADD DUP9 SSTORE POP POP POP JUMPDEST POP POP POP POP POP POP JUMP JUMPDEST PUSH0 DUP2 SWAP1 POP SWAP3 SWAP2 POP POP JUMP JUMPDEST PUSH32 0x4170706C69636174696F6E207375626D69747465642E20536368656D65204944 PUSH0 DUP3 ADD MSTORE PUSH32 0x3A20000000000000000000000000000000000000000000000000000000000000 PUSH1 0x20 DUP3 ADD MSTORE POP JUMP JUMPDEST PUSH0 PUSH2 0x5520 PUSH1 0x22 DUP4 PUSH2 0x54BC JUMP JUMPDEST SWAP2 POP PUSH2 0x552B DUP3 PUSH2 0x54C6 JUMP JUMPDEST PUSH1 0x22 DUP3 ADD SWAP1 POP SWAP2 SWAP1 POP JUMP JUMPDEST PUSH0 PUSH2 0x5540 DUP3 PUSH2 0x384E JUMP JUMPDEST PUSH2 0x554A DUP2 DUP6 PUSH2 0x54BC JUMP JUMPDEST SWAP4 POP PUSH2 0x555A DUP2 DUP6 PUSH1 0x20 DUP7 ADD PUSH2 0x3868 JUMP JUMPDEST DUP1 DUP5 ADD SWAP2 POP POP SWAP3 SWAP2 POP POP JUMP JUMPDEST PUSH32 0x2E2049504653204349443A200000000000000000000000000000000000000000 PUSH0 DUP3 ADD MSTORE POP JUMP JUMPDEST PUSH0 PUSH2 0x559A PUSH1 0xC DUP4 PUSH2 0x54BC JUMP JUMPDEST SWAP2 POP PUSH2 0x55A5 DUP3 PUSH2 0x5566 JUMP JUMPDEST PUSH1 0xC DUP3 ADD SWAP1 POP SWAP2 SWAP1 POP JUMP JUMPDEST PUSH0 PUSH2 0x55BB DUP4 DUP6 PUSH2 0x54BC JUMP JUMPDEST SWAP4 POP PUSH2 0x55C8 DUP4 DUP6 DUP5 PUSH2 0x482F JUMP JUMPDEST DUP3 DUP5 ADD SWAP1 POP SWAP4 SWAP3 POP POP POP JUMP JUMPDEST PUSH0 PUSH2 0x55DE DUP3 PUSH2 0x5514 JUMP JUMPDEST SWAP2 POP PUSH2 0x55EA DUP3 DUP7 PUSH2 0x5536 JUMP JUMPDEST SWAP2 POP PUSH2 0x55F5 DUP3 PUSH2 0x558E JUMP JUMPDEST SWAP2 POP PUSH2 0x5602 DUP3 DUP5 DUP7 PUSH2 0x55B0 JUMP JUMPDEST SWAP2 POP DUP2 SWAP1 POP SWAP5 SWAP4 POP POP POP POP JUMP JUMPDEST PUSH32 0x526F6C654163636573733A206163636F756E7420646F6573206E6F7420686176 PUSH0 DUP3 ADD MSTORE PUSH32 0x65207468697320726F6C65000000000000000000000000000000000000000000 PUSH1 0x20 DUP3 ADD MSTORE POP JUMP JUMPDEST PUSH0 PUSH2 0x5669 PUSH1 0x2B DUP4 PUSH2 0x3E38 JUMP JUMPDEST SWAP2 POP PUSH2 0x5674 DUP3 PUSH2 0x560F JUMP JUMPDEST PUSH1 0x40 DUP3 ADD SWAP1 POP SWAP2 SWAP1 POP JUMP JUMPDEST PUSH0 PUSH1 0x20 DUP3 ADD SWAP1 POP DUP2 DUP2 SUB PUSH0 DUP4 ADD MSTORE PUSH2 0x5696 DUP2 PUSH2 0x565D JUMP JUMPDEST SWAP1 POP SWAP2 SWAP1 POP JUMP JUMPDEST PUSH32 0x50656E73696F6E52656769737472793A206E6F7420617070726F766564000000 PUSH0 DUP3 ADD MSTORE POP JUMP JUMPDEST PUSH0 PUSH2 0x56D1 PUSH1 0x1D DUP4 PUSH2 0x3E38 JUMP JUMPDEST SWAP2 POP PUSH2 0x56DC DUP3 PUSH2 0x569D JUMP JUMPDEST PUSH1 0x20 DUP3 ADD SWAP1 POP SWAP2 SWAP1 POP JUMP JUMPDEST PUSH0 PUSH1 0x20 DUP3 ADD SWAP1 POP DUP2 DUP2 SUB PUSH0 DUP4 ADD MSTORE PUSH2 0x56FE DUP2 PUSH2 0x56C5 JUMP JUMPDEST SWAP1 POP SWAP2 SWAP1 POP JUMP JUMPDEST PUSH0 PUSH1 0x20 DUP3 DUP5 SUB SLT ISZERO PUSH2 0x571A JUMPI PUSH2 0x5719 PUSH2 0x3541 JUMP JUMPDEST JUMPDEST PUSH0 PUSH2 0x5727 DUP5 DUP3 DUP6 ADD PUSH2 0x416A JUMP JUMPDEST SWAP2 POP POP SWAP3 SWAP2 POP POP JUMP JUMPDEST PUSH0 PUSH2 0x573A DUP3 PUSH2 0x3549 JUMP JUMPDEST SWAP1 POP SWAP2 SWAP1 POP JUMP JUMPDEST PUSH2 0x574A DUP2 PUSH2 0x5730 JUMP JUMPDEST DUP3 MSTORE POP POP JUMP JUMPDEST PUSH0 PUSH1 0x60 DUP3 ADD SWAP1 POP PUSH2 0x5763 PUSH0 DUP4 ADD DUP7 PUSH2 0x3614 JUMP JUMPDEST PUSH2 0x5770 PUSH1 0x20 DUP4 ADD DUP6 PUSH2 0x3614 JUMP JUMPDEST PUSH2 0x577D PUSH1 0x40 DUP4 ADD DUP5 PUSH2 0x5741 JUMP JUMPDEST SWAP5 SWAP4 POP POP POP POP JUMP JUMPDEST PUSH32 0x50656E73696F6E207061796D656E74206F662000000000000000000000000000 PUSH0 DUP3 ADD MSTORE POP JUMP JUMPDEST PUSH0 PUSH2 0x57B9 PUSH1 0x13 DUP4 PUSH2 0x54BC JUMP JUMPDEST SWAP2 POP PUSH2 0x57C4 DUP3 PUSH2 0x5785 JUMP JUMPDEST PUSH1 0x13 DUP3 ADD SWAP1 POP SWAP2 SWAP1 POP JUMP JUMPDEST PUSH32 0x205765692064697362757273656420746F2062656E6566696369617279000000 PUSH0 DUP3 ADD MSTORE POP JUMP JUMPDEST PUSH0 PUSH2 0x5803 PUSH1 0x1D DUP4 PUSH2 0x54BC JUMP JUMPDEST SWAP2 POP PUSH2 0x580E DUP3 PUSH2 0x57CF JUMP JUMPDEST PUSH1 0x1D DUP3 ADD SWAP1 POP SWAP2 SWAP1 POP JUMP JUMPDEST PUSH0 PUSH2 0x5823 DUP3 PUSH2 0x57AD JUMP JUMPDEST SWAP2 POP PUSH2 0x582F DUP3 DUP5 PUSH2 0x5536 JUMP JUMPDEST SWAP2 POP PUSH2 0x583A DUP3 PUSH2 0x57F7 JUMP JUMPDEST SWAP2 POP DUP2 SWAP1 POP SWAP3 SWAP2 POP POP JUMP JUMPDEST PUSH0 PUSH1 0x40 DUP3 ADD SWAP1 POP PUSH2 0x5858 PUSH0 DUP4 ADD DUP6 PUSH2 0x3614 JUMP JUMPDEST PUSH2 0x5865 PUSH1 0x20 DUP4 ADD DUP5 PUSH2 0x3614 JUMP JUMPDEST SWAP4 SWAP3 POP POP POP JUMP JUMPDEST PUSH0 PUSH2 0x5876 DUP3 PUSH2 0x35A3 JUMP JUMPDEST SWAP2 POP PUSH0 DUP3 SUB PUSH2 0x5888 JUMPI PUSH2 0x5887 PUSH2 0x402D JUMP JUMPDEST JUMPDEST PUSH1 0x1 DUP3 SUB SWAP1 POP SWAP2 SWAP1 POP JUMP JUMPDEST PUSH0 PUSH2 0x589D DUP3 PUSH2 0x35A3 JUMP JUMPDEST SWAP2 POP PUSH2 0x58A8 DUP4 PUSH2 0x35A3 JUMP JUMPDEST SWAP3 POP DUP3 PUSH2 0x58B8 JUMPI PUSH2 0x58B7 PUSH2 0x408D JUMP JUMPDEST JUMPDEST DUP3 DUP3 MOD SWAP1 POP SWAP3 SWAP2 POP POP JUMP INVALID PREVRANDAO PUSH10 0x7370757465207265736F PUSH13 0x7665643A206170706C69636174 PUSH10 0x6F6E2072652D6F70656E PUSH6 0x6420666F7220 PUSH7 0x72657368207265 PUSH23 0x69657744697370757465207265736F6C7665643A206F72 PUSH10 0x67696E616C2072656A65 PUSH4 0x74696F6E KECCAK256 PUSH22 0x7068656C6420627920636F6D6D6974746565A2646970 PUSH7 0x7358221220764E PUSH10 0xDCB11CB4C340446E2CA CALL PUSH11 0x8174E8C8E2B4778BF7E51F TIMESTAMP JUMPF 0x2408 0xD3 BLOBBASEFEE PUSH5 0x736F6C6343 STOP ADDMOD 0x1F STOP CALLER "
		},
		"gasEstimates": {
			"creation": {
				"codeDepositCost": "4577800",
				"executionCost": "infinite",
				"totalCost": "infinite"
			},
			"external": {
				"APPROVER_ROLE()": "370",
				"AUDITOR_ROLE()": "393",
				"DEFAULT_ADMIN_ROLE()": "436",
				"LOGGER_ROLE()": "437",
				"REGISTRY_ROLE()": "392",
				"REVIEWER_ROLE()": "437",
				"TREASURY_ROLE()": "369",
				"aadhaarRegistered(bytes32)": "2831",
				"applications(uint256)": "infinite",
				"approveApplication(uint256)": "infinite",
				"auditLog()": "infinite",
				"beginReview(uint256)": "infinite",
				"checkSLABreach(uint256)": "infinite",
				"fundManager()": "infinite",
				"getApplication(uint256)": "infinite",
				"getApplicationStatus(uint256)": "infinite",
				"getApplicationsByWallet(address)": "infinite",
				"grantMultipleRoles(bytes32[],address)": "infinite",
				"grantRole(bytes32,address)": "31704",
				"hasRole(bytes32,address)": "3204",
				"ipfsVerifier()": "infinite",
				"isAadhaarRegistered(bytes32)": "2855",
				"raiseDispute(uint256)": "infinite",
				"rejectApplication(uint256,string)": "infinite",
				"renounceRole(bytes32)": "29130",
				"resolveDispute(uint256,bool)": "infinite",
				"revokeRole(bytes32,address)": "31686",
				"schemeConfig()": "infinite",
				"submitApplication(bytes32,string,uint256)": "infinite",
				"totalApplications()": "2492",
				"walletApplications(address,uint256)": "infinite"
			},
			"internal": {
				"_triggerPayment(uint256)": "infinite",
				"_uint2str(uint256)": "infinite"
			}
		},
		"methodIdentifiers": {
			"APPROVER_ROLE()": "4245962b",
			"AUDITOR_ROLE()": "6e1d616e",
			"DEFAULT_ADMIN_ROLE()": "a217fddf",
			"LOGGER_ROLE()": "7bf0fbde",
			"REGISTRY_ROLE()": "42f1e879",
			"REVIEWER_ROLE()": "3b129a56",
			"TREASURY_ROLE()": "d11a57ec",
			"aadhaarRegistered(bytes32)": "2dda196f",
			"applications(uint256)": "dfefadff",
			"approveApplication(uint256)": "213fbf1b",
			"auditLog()": "5a2d6ebd",
			"beginReview(uint256)": "77bb38aa",
			"checkSLABreach(uint256)": "0f28b65e",
			"fundManager()": "6209ec2d",
			"getApplication(uint256)": "1f2f4bfd",
			"getApplicationStatus(uint256)": "d32cca47",
			"getApplicationsByWallet(address)": "b4846e39",
			"grantMultipleRoles(bytes32[],address)": "18989def",
			"grantRole(bytes32,address)": "2f2ff15d",
			"hasRole(bytes32,address)": "91d14854",
			"ipfsVerifier()": "6d9e0509",
			"isAadhaarRegistered(bytes32)": "8252f6fe",
			"raiseDispute(uint256)": "a5c1674e",
			"rejectApplication(uint256,string)": "11575df0",
			"renounceRole(bytes32)": "8bb9c5bf",
			"resolveDispute(uint256,bool)": "34b25ee2",
			"revokeRole(bytes32,address)": "d547741f",
			"schemeConfig()": "2bcd60f3",
			"submitApplication(bytes32,string,uint256)": "c1a6254e",
			"totalApplications()": "a7611356",
			"walletApplications(address,uint256)": "00f2bd50"
		}
	},
	"abi": [
		{
			"inputs": [
				{
					"internalType": "address",
					"name": "auditLogAddr",
					"type": "address"
				},
				{
					"internalType": "address",
					"name": "fundManagerAddr",
					"type": "address"
				},
				{
					"internalType": "address",
					"name": "schemeConfigAddr",
					"type": "address"
				},
				{
					"internalType": "address",
					"name": "ipfsVerifierAddr",
					"type": "address"
				}
			],
			"stateMutability": "nonpayable",
			"type": "constructor"
		},
		{
			"anonymous": false,
			"inputs": [
				{
					"indexed": true,
					"internalType": "uint256",
					"name": "applicationId",
					"type": "uint256"
				},
				{
					"indexed": true,
					"internalType": "address",
					"name": "auditor",
					"type": "address"
				},
				{
					"indexed": false,
					"internalType": "uint256",
					"name": "timestamp",
					"type": "uint256"
				}
			],
			"name": "ApplicationApproved",
			"type": "event"
		},
		{
			"anonymous": false,
			"inputs": [
				{
					"indexed": true,
					"internalType": "uint256",
					"name": "applicationId",
					"type": "uint256"
				},
				{
					"indexed": true,
					"internalType": "address",
					"name": "auditor",
					"type": "address"
				},
				{
					"indexed": false,
					"internalType": "string",
					"name": "reason",
					"type": "string"
				},
				{
					"indexed": false,
					"internalType": "uint256",
					"name": "timestamp",
					"type": "uint256"
				}
			],
			"name": "ApplicationRejected",
			"type": "event"
		},
		{
			"anonymous": false,
			"inputs": [
				{
					"indexed": true,
					"internalType": "uint256",
					"name": "applicationId",
					"type": "uint256"
				},
				{
					"indexed": true,
					"internalType": "address",
					"name": "applicant",
					"type": "address"
				},
				{
					"indexed": true,
					"internalType": "uint256",
					"name": "schemeId",
					"type": "uint256"
				},
				{
					"indexed": false,
					"internalType": "string",
					"name": "ipfsCID",
					"type": "string"
				},
				{
					"indexed": false,
					"internalType": "uint256",
					"name": "timestamp",
					"type": "uint256"
				}
			],
			"name": "ApplicationSubmitted",
			"type": "event"
		},
		{
			"anonymous": false,
			"inputs": [
				{
					"indexed": true,
					"internalType": "uint256",
					"name": "applicationId",
					"type": "uint256"
				},
				{
					"indexed": true,
					"internalType": "address",
					"name": "applicant",
					"type": "address"
				},
				{
					"indexed": false,
					"internalType": "uint256",
					"name": "timestamp",
					"type": "uint256"
				}
			],
			"name": "DisputeRaised",
			"type": "event"
		},
		{
			"anonymous": false,
			"inputs": [
				{
					"indexed": true,
					"internalType": "uint256",
					"name": "applicationId",
					"type": "uint256"
				},
				{
					"indexed": true,
					"internalType": "address",
					"name": "beneficiary",
					"type": "address"
				},
				{
					"indexed": false,
					"internalType": "uint256",
					"name": "amount",
					"type": "uint256"
				},
				{
					"indexed": false,
					"internalType": "uint256",
					"name": "timestamp",
					"type": "uint256"
				}
			],
			"name": "PaymentTriggered",
			"type": "event"
		},
		{
			"anonymous": false,
			"inputs": [
				{
					"indexed": true,
					"internalType": "uint256",
					"name": "applicationId",
					"type": "uint256"
				},
				{
					"indexed": true,
					"internalType": "address",
					"name": "reviewer",
					"type": "address"
				},
				{
					"indexed": false,
					"internalType": "uint256",
					"name": "timestamp",
					"type": "uint256"
				}
			],
			"name": "ReviewStarted",
			"type": "event"
		},
		{
			"anonymous": false,
			"inputs": [
				{
					"indexed": true,
					"internalType": "bytes32",
					"name": "role",
					"type": "bytes32"
				},
				{
					"indexed": true,
					"internalType": "address",
					"name": "account",
					"type": "address"
				},
				{
					"indexed": true,
					"internalType": "address",
					"name": "sender",
					"type": "address"
				}
			],
			"name": "RoleGranted",
			"type": "event"
		},
		{
			"anonymous": false,
			"inputs": [
				{
					"indexed": true,
					"internalType": "bytes32",
					"name": "role",
					"type": "bytes32"
				},
				{
					"indexed": true,
					"internalType": "address",
					"name": "account",
					"type": "address"
				},
				{
					"indexed": true,
					"internalType": "address",
					"name": "sender",
					"type": "address"
				}
			],
			"name": "RoleRevoked",
			"type": "event"
		},
		{
			"inputs": [],
			"name": "APPROVER_ROLE",
			"outputs": [
				{
					"internalType": "bytes32",
					"name": "",
					"type": "bytes32"
				}
			],
			"stateMutability": "view",
			"type": "function"
		},
		{
			"inputs": [],
			"name": "AUDITOR_ROLE",
			"outputs": [
				{
					"internalType": "bytes32",
					"name": "",
					"type": "bytes32"
				}
			],
			"stateMutability": "view",
			"type": "function"
		},
		{
			"inputs": [],
			"name": "DEFAULT_ADMIN_ROLE",
			"outputs": [
				{
					"internalType": "bytes32",
					"name": "",
					"type": "bytes32"
				}
			],
			"stateMutability": "view",
			"type": "function"
		},
		{
			"inputs": [],
			"name": "LOGGER_ROLE",
			"outputs": [
				{
					"internalType": "bytes32",
					"name": "",
					"type": "bytes32"
				}
			],
			"stateMutability": "view",
			"type": "function"
		},
		{
			"inputs": [],
			"name": "REGISTRY_ROLE",
			"outputs": [
				{
					"internalType": "bytes32",
					"name": "",
					"type": "bytes32"
				}
			],
			"stateMutability": "view",
			"type": "function"
		},
		{
			"inputs": [],
			"name": "REVIEWER_ROLE",
			"outputs": [
				{
					"internalType": "bytes32",
					"name": "",
					"type": "bytes32"
				}
			],
			"stateMutability": "view",
			"type": "function"
		},
		{
			"inputs": [],
			"name": "TREASURY_ROLE",
			"outputs": [
				{
					"internalType": "bytes32",
					"name": "",
					"type": "bytes32"
				}
			],
			"stateMutability": "view",
			"type": "function"
		},
		{
			"inputs": [
				{
					"internalType": "bytes32",
					"name": "",
					"type": "bytes32"
				}
			],
			"name": "aadhaarRegistered",
			"outputs": [
				{
					"internalType": "bool",
					"name": "",
					"type": "bool"
				}
			],
			"stateMutability": "view",
			"type": "function"
		},
		{
			"inputs": [
				{
					"internalType": "uint256",
					"name": "",
					"type": "uint256"
				}
			],
			"name": "applications",
			"outputs": [
				{
					"internalType": "uint256",
					"name": "applicationId",
					"type": "uint256"
				},
				{
					"internalType": "address",
					"name": "applicant",
					"type": "address"
				},
				{
					"internalType": "bytes32",
					"name": "aadhaarHash",
					"type": "bytes32"
				},
				{
					"internalType": "string",
					"name": "ipfsCID",
					"type": "string"
				},
				{
					"internalType": "uint256",
					"name": "schemeId",
					"type": "uint256"
				},
				{
					"internalType": "enum PensionRegistry.ApplicationState",
					"name": "state",
					"type": "uint8"
				},
				{
					"internalType": "string",
					"name": "rejectionReason",
					"type": "string"
				},
				{
					"internalType": "address",
					"name": "reviewer",
					"type": "address"
				},
				{
					"internalType": "address",
					"name": "auditor",
					"type": "address"
				},
				{
					"internalType": "uint256",
					"name": "submittedAt",
					"type": "uint256"
				},
				{
					"internalType": "uint256",
					"name": "decidedAt",
					"type": "uint256"
				},
				{
					"internalType": "uint256",
					"name": "paidAt",
					"type": "uint256"
				}
			],
			"stateMutability": "view",
			"type": "function"
		},
		{
			"inputs": [
				{
					"internalType": "uint256",
					"name": "appId",
					"type": "uint256"
				}
			],
			"name": "approveApplication",
			"outputs": [],
			"stateMutability": "nonpayable",
			"type": "function"
		},
		{
			"inputs": [],
			"name": "auditLog",
			"outputs": [
				{
					"internalType": "contract AuditLog",
					"name": "",
					"type": "address"
				}
			],
			"stateMutability": "view",
			"type": "function"
		},
		{
			"inputs": [
				{
					"internalType": "uint256",
					"name": "appId",
					"type": "uint256"
				}
			],
			"name": "beginReview",
			"outputs": [],
			"stateMutability": "nonpayable",
			"type": "function"
		},
		{
			"inputs": [
				{
					"internalType": "uint256",
					"name": "appId",
					"type": "uint256"
				}
			],
			"name": "checkSLABreach",
			"outputs": [
				{
					"internalType": "bool",
					"name": "breached",
					"type": "bool"
				},
				{
					"internalType": "uint256",
					"name": "daysElapsed",
					"type": "uint256"
				}
			],
			"stateMutability": "view",
			"type": "function"
		},
		{
			"inputs": [],
			"name": "fundManager",
			"outputs": [
				{
					"internalType": "contract FundManager",
					"name": "",
					"type": "address"
				}
			],
			"stateMutability": "view",
			"type": "function"
		},
		{
			"inputs": [
				{
					"internalType": "uint256",
					"name": "appId",
					"type": "uint256"
				}
			],
			"name": "getApplication",
			"outputs": [
				{
					"components": [
						{
							"internalType": "uint256",
							"name": "applicationId",
							"type": "uint256"
						},
						{
							"internalType": "address",
							"name": "applicant",
							"type": "address"
						},
						{
							"internalType": "bytes32",
							"name": "aadhaarHash",
							"type": "bytes32"
						},
						{
							"internalType": "string",
							"name": "ipfsCID",
							"type": "string"
						},
						{
							"internalType": "uint256",
							"name": "schemeId",
							"type": "uint256"
						},
						{
							"internalType": "enum PensionRegistry.ApplicationState",
							"name": "state",
							"type": "uint8"
						},
						{
							"internalType": "string",
							"name": "rejectionReason",
							"type": "string"
						},
						{
							"internalType": "address",
							"name": "reviewer",
							"type": "address"
						},
						{
							"internalType": "address",
							"name": "auditor",
							"type": "address"
						},
						{
							"internalType": "uint256",
							"name": "submittedAt",
							"type": "uint256"
						},
						{
							"internalType": "uint256",
							"name": "decidedAt",
							"type": "uint256"
						},
						{
							"internalType": "uint256",
							"name": "paidAt",
							"type": "uint256"
						}
					],
					"internalType": "struct PensionRegistry.Application",
					"name": "",
					"type": "tuple"
				}
			],
			"stateMutability": "view",
			"type": "function"
		},
		{
			"inputs": [
				{
					"internalType": "uint256",
					"name": "appId",
					"type": "uint256"
				}
			],
			"name": "getApplicationStatus",
			"outputs": [
				{
					"internalType": "enum PensionRegistry.ApplicationState",
					"name": "state",
					"type": "uint8"
				},
				{
					"internalType": "string",
					"name": "rejectionReason",
					"type": "string"
				},
				{
					"internalType": "address",
					"name": "auditor",
					"type": "address"
				},
				{
					"internalType": "uint256",
					"name": "decidedAt",
					"type": "uint256"
				}
			],
			"stateMutability": "view",
			"type": "function"
		},
		{
			"inputs": [
				{
					"internalType": "address",
					"name": "wallet",
					"type": "address"
				}
			],
			"name": "getApplicationsByWallet",
			"outputs": [
				{
					"internalType": "uint256[]",
					"name": "",
					"type": "uint256[]"
				}
			],
			"stateMutability": "view",
			"type": "function"
		},
		{
			"inputs": [
				{
					"internalType": "bytes32[]",
					"name": "roles",
					"type": "bytes32[]"
				},
				{
					"internalType": "address",
					"name": "account",
					"type": "address"
				}
			],
			"name": "grantMultipleRoles",
			"outputs": [],
			"stateMutability": "nonpayable",
			"type": "function"
		},
		{
			"inputs": [
				{
					"internalType": "bytes32",
					"name": "role",
					"type": "bytes32"
				},
				{
					"internalType": "address",
					"name": "account",
					"type": "address"
				}
			],
			"name": "grantRole",
			"outputs": [],
			"stateMutability": "nonpayable",
			"type": "function"
		},
		{
			"inputs": [
				{
					"internalType": "bytes32",
					"name": "role",
					"type": "bytes32"
				},
				{
					"internalType": "address",
					"name": "account",
					"type": "address"
				}
			],
			"name": "hasRole",
			"outputs": [
				{
					"internalType": "bool",
					"name": "",
					"type": "bool"
				}
			],
			"stateMutability": "view",
			"type": "function"
		},
		{
			"inputs": [],
			"name": "ipfsVerifier",
			"outputs": [
				{
					"internalType": "contract IPFSVerifier",
					"name": "",
					"type": "address"
				}
			],
			"stateMutability": "view",
			"type": "function"
		},
		{
			"inputs": [
				{
					"internalType": "bytes32",
					"name": "aadhaarHash",
					"type": "bytes32"
				}
			],
			"name": "isAadhaarRegistered",
			"outputs": [
				{
					"internalType": "bool",
					"name": "",
					"type": "bool"
				}
			],
			"stateMutability": "view",
			"type": "function"
		},
		{
			"inputs": [
				{
					"internalType": "uint256",
					"name": "appId",
					"type": "uint256"
				}
			],
			"name": "raiseDispute",
			"outputs": [],
			"stateMutability": "nonpayable",
			"type": "function"
		},
		{
			"inputs": [
				{
					"internalType": "uint256",
					"name": "appId",
					"type": "uint256"
				},
				{
					"internalType": "string",
					"name": "reason",
					"type": "string"
				}
			],
			"name": "rejectApplication",
			"outputs": [],
			"stateMutability": "nonpayable",
			"type": "function"
		},
		{
			"inputs": [
				{
					"internalType": "bytes32",
					"name": "role",
					"type": "bytes32"
				}
			],
			"name": "renounceRole",
			"outputs": [],
			"stateMutability": "nonpayable",
			"type": "function"
		},
		{
			"inputs": [
				{
					"internalType": "uint256",
					"name": "appId",
					"type": "uint256"
				},
				{
					"internalType": "bool",
					"name": "reopen",
					"type": "bool"
				}
			],
			"name": "resolveDispute",
			"outputs": [],
			"stateMutability": "nonpayable",
			"type": "function"
		},
		{
			"inputs": [
				{
					"internalType": "bytes32",
					"name": "role",
					"type": "bytes32"
				},
				{
					"internalType": "address",
					"name": "account",
					"type": "address"
				}
			],
			"name": "revokeRole",
			"outputs": [],
			"stateMutability": "nonpayable",
			"type": "function"
		},
		{
			"inputs": [],
			"name": "schemeConfig",
			"outputs": [
				{
					"internalType": "contract SchemeConfig",
					"name": "",
					"type": "address"
				}
			],
			"stateMutability": "view",
			"type": "function"
		},
		{
			"inputs": [
				{
					"internalType": "bytes32",
					"name": "aadhaarHash",
					"type": "bytes32"
				},
				{
					"internalType": "string",
					"name": "ipfsCID",
					"type": "string"
				},
				{
					"internalType": "uint256",
					"name": "schemeId",
					"type": "uint256"
				}
			],
			"name": "submitApplication",
			"outputs": [
				{
					"internalType": "uint256",
					"name": "applicationId",
					"type": "uint256"
				}
			],
			"stateMutability": "nonpayable",
			"type": "function"
		},
		{
			"inputs": [],
			"name": "totalApplications",
			"outputs": [
				{
					"internalType": "uint256",
					"name": "",
					"type": "uint256"
				}
			],
			"stateMutability": "view",
			"type": "function"
		},
		{
			"inputs": [
				{
					"internalType": "address",
					"name": "",
					"type": "address"
				},
				{
					"internalType": "uint256",
					"name": "",
					"type": "uint256"
				}
			],
			"name": "walletApplications",
			"outputs": [
				{
					"internalType": "uint256",
					"name": "",
					"type": "uint256"
				}
			],
			"stateMutability": "view",
			"type": "function"
		}
	]
}